:020000040800F2
:1000000000800120CDE300083FC4000845C400087B
:100010004BC4000851C4000857C400080000000089
:10002000000000000000000000000000E19D00084A
:100030005DC40008000000009D9D0008C59C0008EC
:100040001DE400081DE400081DE400081DE400088C
:100050001DE400081DE400081DE400081DE400087C
:100060001DE400081DE400081DE400081DE400086C
:100070001DE400081DE400081DE400081DE400085C
:100080004DAB00081DE40008913500080000000099
:100090000000000000000000000000001DE4000857
:1000A0001DE400081DE400081DE400081DE400082C
:1000B0001DE400081DE400081DE400081DE400081C
:1000C0001DE400081DE400081DE400081DE400080C
:1000D0001DE400081DE4000839AB00080000000022
:1000E0001DE400081DE400081DE4000800000000F5
:1000F0000000000000000000000000001DE40008F7
:10010000000000001DE400086DC400081DE40008A4
:1001100000000000000000000000000000000000DF
:1001200081C400081DE400081DE400081DE4000867
:100130001DE40008000000000000000000000000B6
:100140000000000000000000000000001DE40008A6
:100150001DE400081DE400081DE400081DE400087B
:100160001DE400081DE4000800000000000000007D
:10017000000000000000000000000000000000007F
:10018000000000001DE40008000000000000000066
:040190001DE4000862
:1001980081F0004102E000BF83F0004330B54FEA30
:1001A80041044FEA430594EA050F08BF90EA020F9D
:1001B8001FBF54EA000C55EA020C7FEA645C7FEA30
:1001C800655C00F0E2804FEA5454D4EB5555B8BF53
:1001D8006D420CDD2C4480EA020281EA030382EAC4
:1001E800000083EA010180EA020281EA0303362D56
:1001F80088BF30BD11F0004F4FEA01314FF4801C29
:100208004CEA113102D0404261EB410113F0004F3A
:100218004FEA03334CEA133302D0524263EB4303F1
:1002280094EA050F00F0A780A4F10104D5F1200E8F
:100238000DDB02FA0EFC22FA05F2801841F10001EA
:1002480003FA0EF2801843FA05F359410EE0A5F1BE
:1002580020050EF1200E012A03FA0EFC28BF4CF0EF
:10026800020C43FA05F3C01851EBE37101F00045A5
:1002780007D54FF0000EDCF1000C7EEB00006EEBB2
:100288000101B1F5801F1BD3B1F5001F0CD349083C
:100298005FEA30004FEA3C0C04F101044FEA445293
:1002A80012F5800F80F09A80BCF1004F08BF5FEA1A
:1002B800500C50F1000041EB045141EA050130BDFA
:1002C8005FEA4C0C404141EB0101013C28BFB1F50C
:1002D800801FE9D291F0000F04BF01460020B1FA57
:1002E80081F308BF2033A3F10B03B3F120020CDA2A
:1002F8000C3208DD02F1140CC2F10C0201FA0CF008
:1003080021FA02F10CE002F11402D8BFC2F1200C6C
:1003180001FA02F120FA0CFCDCBF41EA0C01904022
:10032800E41AA2BF01EB0451294330BD6FEA04046B
:100338001F3C1CDA0C340EDC04F11404C4F1200256
:1003480020FA04F001FA02F340EA030021FA04F368
:1003580045EA030130BDC4F10C04C4F1200220FABF
:1003680002F001FA04F340EA0300294630BD21FAFD
:1003780004F0294630BD94F0000F83F4801306BFC3
:1003880081F480110134013D4EE77FEA645C18BFB7
:100398007FEA655C29D094EA050F08BF90EA020F4E
:1003A80005D054EA000C04BF1946104630BD91EA46
:1003B800030F1EBF0021002030BD5FEA545C05D149
:1003C8004000494128BF41F0004130BD14F5800488
:1003D8003CBF01F5801130BD01F0004545F0FE41FC
:1003E80041F470014FF0000030BD7FEA645C1ABF31
:1003F800194610467FEA655C1CBF0B46024650EA68
:10040800013406BF52EA033591EA030F41F4002193
:1004180030BD00BF90F0000F04BF0021704730B519
:100428004FF4806404F132044FF000054FF00001EE
:1004380050E700BF90F0000F04BF0021704730B5AF
:100448004FF4806404F1320410F0004548BF404284
:100458004FF000013EE700BF42004FEAE2014FEAD9
:1004680031014FEA02701FBF12F07F4393F07F4FB4
:1004780081F06051704732F07F4208BF704793F0B7
:100488007F4F04BF41F40021704730B54FF46074CA
:1004980001F0004521F000411CE700BF50EA0102CD
:1004A80008BF704730B54FF000050AE050EA010276
:1004B80008BF704730B511F0004502D5404261EBE6
:1004C80041014FF4806404F132045FEA915C3FF427
:1004D800D8AE4FF003025FEADC0C18BF03325FEAC4
:1004E800DC0C18BF033202EBDC02C2F1200300FA75
:1004F80003FC20FA02F001FA03FE40EA0E0021FA9A
:1005080002F11444BDE600BF70B54FF0FF0C4CF487
:10051800E06C1CEA11541DBF1CEA135594EA0C0F39
:1005280095EA0C0F00F0DEF82C4481EA030621EA74
:100538004C5123EA4C5350EA013518BF52EA0335AF
:1005480041F4801143F4801338D0A0FB02CE4FF061
:100558000005E1FB02E506F00042E0FB03E54FF091
:100568000006E1FB03569CF0000F18BF4EF0010E89
:10057800A4F1FF04B6F5007F64F5407404D25FEA85
:100588004E0E6D4146EB060642EAC62141EA555138
:100598004FEAC52040EA5E504FEACE2EB4F1FD0C7A
:1005A80088BFBCF5E06F1ED8BEF1004F08BF5FEAF8
:1005B800500E50F1000041EB045170BD06F00046AA
:1005C80046EA010140EA020081EA0301B4EB5C0457
:1005D800C2BFD4EB0C0541EA045170BD41F480114F
:1005E8004FF0000E013C00F3AB8014F1360FDEBF74
:1005F800002001F0004170BDC4F10004203C35DA50
:100608000C341BDC04F11404C4F1200500FA05F3D2
:1006180020FA04F001FA05F240EA020001F0004273
:1006280021F0004110EBD37021FA04F642EB0601E9
:100638005EEA430E08BF20EAD37070BDC4F10C0413
:10064800C4F1200500FA04F320FA05F001FA04F2D7
:1006580040EA020001F0004110EBD37041F10001C3
:100668005EEA430E08BF20EAD37070BDC4F12005CE
:1006780000FA05F24EEA020E20FA04F301FA05F236
:1006880043EA020321FA04F001F0004121FA04F2DE
:1006980020EA020000EBD3705EEA430E08BF20EAAE
:1006A800D37070BD94F0000F0FD101F000464000E8
:1006B80041EB010111F4801F08BF013CF7D041EA6A
:1006C800060195F0000F18BF704703F0004652006E
:1006D80043EB030313F4801F08BF013DF7D043EA3F
:1006E8000603704794EA0C0F0CEA135518BF95EAF5
:1006F8000C0F0CD050EA410618BF52EA4306D1D17C
:1007080081EA030101F000414FF0000070BD50EA9A
:10071800410606BF1046194652EA430619D094EA24
:100728000C0F02D150EA013613D195EA0C0F05D10E
:1007380052EA03361CBF104619460AD181EA030162
:1007480001F0004141F0FE4141F470014FF000001A
:1007580070BD41F0FE4141F4780170BD70B54FF0B5
:10076800FF0C4CF4E06C1CEA11541DBF1CEA135535
:1007780094EA0C0F95EA0C0F00F0A7F8A4EB050417
:1007880081EA030E52EA03354FEA013100F088800E
:100798004FEA03334FF0805545EA131343EA1263D7
:1007A8004FEA022245EA111545EA10654FEA00268C
:1007B8000EF000419D4208BF964244F1FD0404F545
:1007C800407402D25B084FEA3202B61A65EB0305A1
:1007D8005B084FEA32024FF480104FF4002CB6EB5E
:1007E800020E75EB030E22BFB61A754640EA0C00DE
:1007F8005B084FEA3202B6EB020E75EB030E22BF1E
:10080800B61A754640EA5C005B084FEA3202B6EB5E
:10081800020E75EB030E22BFB61A754640EA9C001D
:100828005B084FEA3202B6EB020E75EB030E22BFED
:10083800B61A754640EADC0055EA060E18D04FEAAB
:10084800051545EA16754FEA06164FEAC30343EA4B
:1008580052734FEAC2025FEA1C1CC0D111F4801F18
:100868000BD141EA00014FF000004FF0004CB6E711
:1008780011F4801F04BF01430020B4F1FD0C88BFB0
:10088800BCF5E06F3FF6AFAEB5EB030C04BFB6EBBB
:10089800020C5FEA500C50F1000041EB045170BDAE
:1008A8000EF0004E4EEA113114EB5C04C2BFD4EBDB
:1008B8000C0541EA045170BD41F480114FF0000E5F
:1008C800013C90E645EA060E8DE60CEA135594EADB
:1008D8000C0F08BF95EA0C0F3FF43BAF94EA0C0FDE
:1008E8000AD150EA01347FF434AF95EA0C0F7FF453
:1008F80025AF104619462CE795EA0C0F06D152EAA7
:1009080003353FF4FDAE1046194622E750EA41068A
:1009180018BF52EA43067FF4C5AE50EA41047FF49B
:100928000DAF52EA43057FF4EBAE12E74FF0FF3C00
:1009380006E000BF4FF0010C02E000BF4FF0010CD1
:100948004DF804CD4FEA410C7FEA6C5C4FEA430C4A
:1009580018BF7FEA6C5C1BD001B050EA410C0CBF99
:1009680052EA430C91EA030F02BF90EA020F0020FB
:10097800704710F1000F91EA030F58BF994208BF62
:1009880090422CBFD8176FEAE37040F0010070471F
:100998004FEA410C7FEA6C5C02D150EA013C07D176
:1009A8004FEA430C7FEA6C5CD6D152EA033CD3D0C1
:1009B8005DF8040B704700BF8446104662468C46BB
:1009C8001946634600E000BF01B5FFF7B7FF0028EE
:1009D80048BF10F1000F01BD4DF808EDFFF7F4FF17
:1009E8000CBF012000205DF808FB00BF4DF808EDA2
:1009F800FFF7EAFF34BF012000205DF808FB00BFC5
:100A08004DF808EDFFF7E0FF94BF012000205DF8E6
:100A180008FB00BF4DF808EDFFF7CEFF94BF01209B
:100A280000205DF808FB00BF4DF808EDFFF7C4FF94
:100A380034BF012000205DF808FB00BF4FEA410CDD
:100A48007FEA6C5C02D150EA013C0AD14FEA430CC0
:100A58007FEA6C5C02D152EA033C02D14FF00000FD
:100A680070474FF0010070474FEA410212F500123B
:100A780015D211D56FF47873B3EB625212D94FEADD
:100A8800C12343F0004343EA505311F0004F23FAC7
:100A980002F018BF404270474FF00000704750EA1C
:100AA800013005D111F0004008BF6FF000407047D9
:100AB8004FF00000704700BF4A0011D212F5001233
:100AC80011D20DD56FF47873B3EB62520ED44FEA9E
:100AD800C12343F0004343EA505323FA02F070471E
:100AE8004FF00000704750EA013002D14FF0FF305C
:100AF80070474FF0000070474FEA4102B2F1E043FF
:100B080024BFB3F5001CDCF1FE5C0DD901F0004CEC
:100B18004FEAC0024CEA5070B2F1004F40EB83003C
:100B280008BF20F00100704711F0804F21D113F168
:100B38003872BCBF01F00040704741F480114FEAA1
:100B48005252C2F11802C2F1200C10FA0CF320FA2A
:100B580002F018BF40F001004FEAC1234FEAD32347
:100B680003FA0CFC40EA0C0023FA02F34FEA4303B1
:100B7800CCE77FEA625307D150EA01331EBF4FF03A
:100B8800FE4040F44000704701F0004040F0FE4055
:100B980040F40000704700BF53B94AB9002908BFA4
:100BA80000281CBF4FF0FF314FF0FF3000F00CB8A9
:100BB800ADF1080C6DE904CE0FF060F8DDF804E043
:100BC800DDE9022304B07047704700BF0348044BB7
:100BD800834202D0034B03B11847704760210020BD
:100BE80060210020000000000548064B1B1AD90FA1
:100BF80001EBA301491002D0034B03B1184770471A
:100C080060210020602100200000000010B5064C83
:100C1800237843B9FFF7DAFF044B13B10448AFF365
:100C280000800123237010BD602100200000000017
:100C3800CCFF000808B5054B1BB105490548AFF3C3
:100C48000080BDE80840FFF7CFBF00BF00000000EC
:100C580064210020CCFF000880B483B000AF786026
:100C680039607B68DB6A23F470023B681A437B684F
:100C7800DA6200BF0C37BD465DF8047B704780B46C
:100C880083B000AF786039607B689B6823F440725A
:100C98003B681A437B689A6000BF0C37BD465DF815
:100CA800047B704780B483B000AF78607B689B6832
:100CB80003F44013002B0CBF01230023DBB21846BA
:100CC8000C37BD465DF8047B704780B483B000AF35
:100CD80078607B689B6843F001027B689A6000BF7C
:100CE8000C37BD465DF8047B704780B483B000AF15
:100CF80078607B689B6823F001027B689A6000BF7C
:100D08000C37BD465DF8047B704780B483B000AFF4
:100D180078607B689B6803F00103012B0CBF0123FB
:100D28000023DBB218460C37BD465DF8047B7047DC
:100D380080B483B000AF78607B689B6843F480021E
:100D48007B689A6000BF0C37BD465DF8047B70472E
:100D580080B483B000AF78607B681B6803F004033D
:100D6800042B0CBF01230023DBB218460C37BD4609
:100D78005DF8047B704780B483B000AF78607B680F
:100D88006FF004021A6000BF0C37BD465DF8047BA3
:100D9800704780B483B000AF78607B685B6843F0CD
:100DA80020027B685A6000BF0C37BD465DF8047BA3
:100DB800704780B483B000AF78607B685B6843F0AD
:100DC80080027B685A6000BF0C37BD465DF8047B23
:100DD800704780B483B000AF78607B685B6823F0AD
:100DE80020027B685A6000BF0C37BD465DF8047B63
:100DF800704780B483B000AF78607B685B6823F08D
:100E080080627B685A6000BF0C37BD465DF8047B82
:100E1800704780B483B000AF78607B685B6823F06C
:100E280080027B685A6000BF0C37BD465DF8047BC2
:100E3800704780B483B000AF78607B685B6823F04C
:100E480040027B685A6000BF0C37BD465DF8047BE2
:100E5800704780B483B000AF78607B685B6803F04C
:100E68008063B3F1806F0CBF01230023DBB2184607
:100E78000C37BD465DF8047B704780B483B000AF83
:100E880078607B685B6803F04003402B0CBF01234C
:100E98000023DBB218460C37BD465DF8047B70476B
:100EA80080B584B000AF78600123FB817B681B6943
:100EB8001846FFF7F7FE0346002B24D07B689B7A81
:100EC800DBB2022B0CD07B689B7ADBB2082B07D0F5
:100ED8007B681B691846FFF73BFF0346012B12D1BD
:100EE8007B689B7ADBB2082B03D17B6801229A725C
:100EF80002E07B6820229A727B681B691846FFF71C
:100F080017FF0023FB81FB8918461037BD4680BDBB
:100F180080B487B000AFF8600B467A607B81FB68CD
:100F28003C333B6100237B610DE07B699B003A69A0
:100F3800134419687B695B007A6813448AB21A8083
:100F48007B6901337B617B897A699A42EDDB00BF5B
:100F580000BF1C37BD465DF8047B704780B485B080
:100F680000AFF860B9607A603B6000BF1437BD46D7
:100F78005DF8047B704780B485B000AFF860B96055
:100F88007A6000BF1437BD465DF8047B704780B5B2
:100F980084B000AF78607B681B691846FFF7D8FEFD
:100FA8000346FB73FB7B012B07D17B681B69184643
:100FB800FFF7E1FE7B6802229A72FB7B1846103726
:100FC800BD4680BD80B483B000AF78600B46FB702F
:100FD80000BF0C37BD465DF8047B704790B589B0FB
:100FE80002AFF860084611461A4603467B810B4655
:100FF8003B811346FB8000237B61FB681B693D4AEC
:10100800934201D13C4B7B617B69002B6CD0FB6820
:101018001A697B691A617B690022DA71FB88012BE6
:1010280062D03B89002B48D07B695B7ADBB2082B06
:1010380043D0FB68DA687B69DA60FB681A687B6909
:101048001A60FB685A697B695A61FB689A797B69FF
:101058009A71FB681A797B691A717B691B69B96A8D
:101068001846FFF7F9FD7B89012B22D07B89042BD9
:1010780017D17B691B694FF440711846FFF7FFFDD4
:101088007B6918697B6959697B699B791C467B690F
:10109800DA687B691B68009313462246FFF75EFFF8
:1010A80007E07B89022B04D17B691B691846FFF78F
:1010B80070FE7B6908225A7216E03B89002B13D117
:1010C8007B699B7ADBB2082B0ED0FB685A797B6967
:1010D8005A717B89022B04D17B691B691846FFF77B
:1010E80068FE7B6908229A727B6918461C37BD46E0
:1010F80090BD00BF002001407C21002080B582B057
:1011080000AF78607B681B691846FFF7FEFD034651
:10111800002B04D17B681B691846FFF7D6FD00BF7A
:101128000837BD4680BD80B586B000AFF8600B4675
:101138007A607B810123FB82FB681B69002B4BD003
:101148007B89012B05D1F868FFF7AAFE0346FB82CD
:1011580042E07B89042B24D1FB681B691846FFF702
:10116800A1FD0346002B37D0FB6801229A72FB6869
:101178001B691846FFF7DCFD00BFFB689B7ADBB2F2
:10118800022BFAD1FB681869FB685B799BB27A6815
:101198001946FFF7BDFEFB6808229A720023FB82FE
:1011A8001AE07B89022B17D1FB689B7ADBB2202BD4
:1011B80004D0FB689B7ADBB2022B0DD1FB680822B6
:1011C8009A72FB681869FB685B799BB27A68194662
:1011D800FFF79EFE0023FB82FB8A18461837BD46A0
:1011E80080BD80B582B000AF78600B467B80134627
:1011F8003B807B681B691846FFF787FD0346002B79
:1012080004D07B681B691846FFF76FFD7B681B6974
:101218001846FFF732FE0346002B04D07B681B6993
:101228001846FFF706FE7B681B691846FFF711FE94
:101238000346002B04D07B681B691846FFF7D9FDCD
:101248003B88002B35D07B88012B1AD07B88022B5A
:1012580005D17B681B691846FFF7BBFD11E07B8849
:10126800042B0ED17B6818697B6859697B689B7968
:101278001A46FFF780FE7B681B6900211846FFF7B6
:10128800FEFC7B680022DA607B6800221A607B68BB
:1012980000225A617B6800229A717B6800221A71C9
:1012A8007B681A697B681B7919461046FFF7D4FCDE
:1012B8000AE07B6800225A717B88022B04D17B6884
:1012C8001B691846FFF7A5FD00BF0837BD4680BD5E
:1012D80080B485B000AF78607B681B6803F060035A
:1012E800FB60FB68002B04D17B681B6803F01003CC
:1012F800FB60FB6818461437BD465DF8047B7047F1
:1013080080B483B000AF78607B681B6B18460C37DD
:10131800BD465DF8047B704780B483B000AF786049
:1013280039607B681A6A3B681A437B681A6200BF97
:101338000C37BD465DF8047B704780B483B000AFBE
:10134800786039607B681A6A3B68DB431A407B68BF
:101358001A6200BF0C37BD465DF8047B704780B445
:1013680083B000AF78607B685B6C43F400427B68B5
:101378005A6400BF0C37BD465DF8047B704780B4E3
:1013880083B000AF78607B68DB6843F001027B685C
:10139800DA6000BF0C37BD465DF8047B704780B447
:1013A80083B000AF78607B68DB6823F001027B685C
:1013B800DA6000BF0C37BD465DF8047B704780B427
:1013C80083B000AF78607B68DB6803F00103012B12
:1013D80001D1012300E0002318460C37BD465DF813
:1013E800047B704780B483B000AF78607B68DB68AB
:1013F80043F002027B68DA6000BF0C37BD465DF837
:10140800047B704780B483B000AF78607B68DB688A
:1014180023F002027B68DA6000BF0C37BD465DF836
:10142800047B704780B483B000AF78607B68DB686A
:1014380003F00203022B01D1012300E00023184628
:101448000C37BD465DF8047B704780B483B000AFAD
:1014580078607B68DB6843F004027B68DA6000BF71
:101468000C37BD465DF8047B704780B483B000AF8D
:1014780078607B68DB6823F004027B68DA6000BF71
:101488000C37BD465DF8047B704780B483B000AF6D
:1014980078607B68DB6803F00403042B01D1012327
:1014A80000E0002318460C37BD465DF8047B704702
:1014B80080B483B000AF78607B68DB6843F00802D3
:1014C8007B68DA6000BF0C37BD465DF8047B704767
:1014D80080B483B000AF78607B68DB6823F00802D3
:1014E8007B68DA6000BF0C37BD465DF8047B704747
:1014F80080B483B000AF78607B68DB6803F00803D2
:10150800082B01D1012300E0002318460C37BD4603
:101518005DF8047B704780B483B000AF78607B6867
:10152800DB6843F010027B68DA6000BF0C37BD4609
:101538005DF8047B704780B483B000AF78607B6847
:10154800DB6823F010027B68DA6000BF0C37BD4609
:101558005DF8047B704780B483B000AF78607B6827
:10156800DB6803F01003102B01D1012300E00023F6
:1015780018460C37BD465DF8047B704780B483B0CD
:1015880000AF78607B68DB6843F020027B68DA6034
:1015980000BF0C37BD465DF8047B704780B483B04C
:1015A80000AF78607B68DB6823F020027B68DA6034
:1015B80000BF0C37BD465DF8047B704780B483B02C
:1015C80000AF78607B68DB6803F02003202B01D133
:1015D800012300E0002318460C37BD465DF8047B64
:1015E800704780B483B000AF78607B68DB6843F0F5
:1015F80040027B68DA6000BF0C37BD465DF8047BAB
:10160800704780B483B000AF78607B68DB6823F0F4
:1016180040027B68DA6000BF0C37BD465DF8047B8A
:10162800704780B483B000AF78607B68DB6803F0F4
:101638004003402B01D1012300E0002318460C375A
:10164800BD465DF8047B704780B483B000AF786016
:101658007B68DB6843F080027B68DA6000BF0C3788
:10166800BD465DF8047B704780B483B000AF7860F6
:101678007B68DB6823F080027B68DA6000BF0C3788
:10168800BD465DF8047B704780B483B000AF7860D6
:101698007B68DB6803F08003802B01D1012300E025
:1016A800002318460C37BD465DF8047B704780B5AB
:1016B80082B000AF78600B467B807B8803F0010323
:1016C800002B0CD07B681B681846FFF7AAFF03465F
:1016D800012B04D07B681B681846FFF782FF7B88C4
:1016E80003F00203002B0CD07B681B681846FFF739
:1016F80099FE0346012B04D07B681B681846FFF748
:1017080071FE7B8803F00403002B0CD07B681B68F8
:101718001846FFF7BAFE0346012B04D07B681B6806
:101728001846FFF792FE7B8803F00803002B0CD0C5
:101738007B681B681846FFF7DBFE0346012B04D0C5
:101748007B681B681846FFF7B3FE7B8803F010031D
:10175800002B0CD07B681B681846FFF7FCFE03467D
:10176800012B04D07B681B681846FFF7D4FE7B88E2
:1017780003F02003002B0CD07B681B681846FFF78A
:101788001EFE0346012B04D07B681B681846FFF732
:10179800F6FD7B8803F04003002B0CD07B681B68A8
:1017A8001846FFF771FF0346012B04D07B681B68BE
:1017B8001846FFF749FF7B8803F08003002B0CD005
:1017C8007B681B681846FFF7F9FE0346012B04D017
:1017D8007B681B681846FFF7D1FE00BF0837BD4677
:1017E80080BD80B582B000AF78600B467B807B8877
:1017F80003F00103002B0CD07B681B681846FFF729
:1018080010FF0346012B04D17B681B681846FFF7BD
:10181800F8FE7B8803F00203002B0CD07B681B6862
:101828001846FFF7FFFD0346012B04D17B681B68B0
:101838001846FFF7E7FD7B8803F00403002B0CD064
:101848007B681B681846FFF720FE0346012B04D16E
:101858007B681B681846FFF708FE7B8803F00803BF
:10186800002B0CD07B681B681846FFF741FE034627
:10187800012B04D17B681B681846FFF729FE7B887B
:1018880003F01003002B0CD07B681B681846FFF789
:1018980062FE0346012B04D17B681B681846FFF7DC
:1018A8004AFE7B8803F02003002B0CD07B681B6862
:1018B8001846FFF784FD0346012B04D07B681B689C
:1018C8001846FFF76CFD7B8803F04003002B0CD013
:1018D8007B681B681846FFF7D7FE0346012B04D127
:1018E8007B681B681846FFF7BFFE7B8803F0800300
:1018F800002B0CD07B681B681846FFF75FFE034679
:10190800012B04D17B681B681846FFF747FE00BF10
:101918000837BD4680BD000080B582B000AF786052
:101928000B46FB70FB78022B06D17B681B680121F4
:101938001846FFF7F1FC1DE07B681B680F4A9342CD
:1019480018D1FB78032B06D17B681B680421184645
:10195800FFF7E2FC0EE0FB78042B0BD17B681B68D9
:1019680001211846FFF7D8FC7B681B68042118463C
:10197800FFF7D2FC00BF0837BD4680BD000001401C
:1019880080B582B000AF78600B46FB70FB78022B05
:1019980006D17B681B6801211846FFF7CEFC1DE0C5
:1019A8007B681B680F4A934218D1FB78032B06D13A
:1019B8007B681B6804211846FFF7BFFC0EE0FB7824
:1019C800042B0BD17B681B6801211846FFF7B5FC77
:1019D8007B681B6804211846FFF7AFFC00BF083777
:1019E800BD4680BD0000014080B582B000AF786080
:1019F8000B46FB70FB78022B06D17B681B68102115
:101A08001846FFF789FC1DE07B681B680F4A934264
:101A180018D1FB78032B06D17B681B684021184638
:101A2800FFF77AFC0EE0FB78042B0BD17B681B6870
:101A380010211846FFF770FC7B681B684021184688
:101A4800FFF76AFC00BF0837BD4680BD00000140B3
:101A580080B582B000AF78600B46FB70FB78022B34
:101A680006D17B681B6810211846FFF766FC1DE04D
:101A78007B681B680F4A934218D1FB78032B06D169
:101A88007B681B6840211846FFF757FC0EE0FB787F
:101A9800042B0BD17B681B6810211846FFF74DFCFF
:101AA8007B681B6840211846FFF747FC00BF0837D2
:101AB800BD4680BD0000014080B582B000AF7860AF
:101AC8000B46FB70FB78022B07D17B681B684FF431
:101AD80080711846FFF720FC20E07B681B68114ADC
:101AE80093421BD1FB78032B07D17B681B684FF40B
:101AF80080611846FFF710FC10E0FB78042B0DD12D
:101B08007B681B684FF480711846FFF705FC7B68FB
:101B18001B684FF480611846FFF7FEFB00BF0837CB
:101B2800BD4680BD0000014080B582B000AF78603E
:101B38000B46FB70FB78022B07D17B681B684FF4C0
:101B480080711846FFF7F9FB20E07B681B68114A93
:101B580093421BD1FB78032B07D17B681B684FF49A
:101B680080611846FFF7E9FB10E0FB78042B0DD1E4
:101B78007B681B684FF480711846FFF7DEFB7B68B3
:101B88001B684FF480611846FFF7D7FB00BF083782
:101B9800BD4680BD0000014080B584B000AF7860CC
:101BA8000023FB607B681B681C4A934201D11C4BD5
:101BB800FB607B681A68FB681A60FB681B6818463C
:101BC800FFF786FBB860BB68002B06D0BB68102BFC
:101BD80003D0FB6801221A7102E0FB6800221A7127
:101BE800FB681B680D4A934204D1FB681B681846C2
:101BF800FFF7B5FBFB681B68084A934208D17B686E
:101C08001B681846FFF77CFB0346DAB2FB685A717B
:101C1800FB6818461037BD4680BD00BF0000014074
:101C28009821002080B485B000AF786039603B68A7
:101C3800FB603B68B3F5803F0CD37B681B68B3F14E
:101C4800804F07D07B681B68064A934202D04FF644
:101C5800FF73FB60FB6818461437BD465DF8047BCC
:101C6800704700BF000C004080B485B000AF7860BA
:101C780039600023FB7397F90F3018461437BD46B7
:101C88005DF8047B7047000080B584B000AF7860D1
:101C980039600023FB727B68002B05D1374801F0BF
:101CA8005CFE4FF0FF3365E03B68002B05D13448FC
:101CB80001F053FE4FF0FF335CE0324BD3E90001F3
:101CC8004FF000024FF04043FEF786FE0346002B1C
:101CD80006D03B68D3E900232A49C1E9002305E07F
:101CE800284BD3E900233968C1E90023254BD3E900
:101CF80000014FF00002244BFEF76EFE0346002B56
:101D080002D0224801F029FE7B685B681B68204AE4
:101D180013607B685B685B681E4A13607B685B685E
:101D28009B681D4A13607B685B68DB681B4A13600D
:101D38001B4B00221A6002F083FA0023FB60002389
:101D4800FB6007E0174AFB68174942F82310FB6855
:101D58000133FB60FB68022BF4D901F0BBFE03469C
:101D6800FB7297F90B30002B02D1104B01221A702D
:101D780097F90B3018461037BD4680BDE8FF0008BC
:101D88000C000108802000200000F0BF3800010886
:101D9800682300206C230020702300207423002077
:101DA8007823002024220020B14200086523002067
:101DB80080B586B000AF78600023FB7500233B61D7
:101DC8000023FB732A4B1B78DBB2002B0CBF0123CB
:101DD8000023DBB2BB73274B02221A707B68002BEF
:101DE8000BD1234B1B78DBB2002B06D1224B1B787F
:101DF800DBB2002B01D1012300E00023FB7316E0C6
:101E08000A2007F05FFE3B6903F51C5310333B6162
:101E18007B68B3F1FF3F05D03A697B689A4201D9E4
:101E2800012300E00023FB73002001F0A1FE104B0A
:101E38001B78DBB2002B07D10F4B1B78DBB2002BD2
:101E480002D1FB7B002BDBD00A4B03221A70FB7BF1
:101E5800002B01D09C23FB75BB7B002B01D002F02B
:101E68001DFB97F9173018461837BD4680BD00BFCF
:101E780063230020652300206423002080B586B0FA
:101E880000AF034687ED000BFB810023FB750123A0
:101E9800BB754FF000024FF00003D7E90001FEF7D1
:101EA800A5FD0346002B05D02E4801F056FD4FF046
:101EB800FF3353E0FB89FF2B08D9FB89FF22194622
:101EC800294801F04AFD4FF0FF3347E0274B1B78C4
:101ED800DBB2032B04D0254B1B78DBB2012B02D1DC
:101EE800224B04221A70FB89022B15D8FB89204A41
:101EF80052F82330002B0FD002F09AFE03467B7570
:101F08007B7D022B08D1FB89194A52F82330FA89C4
:101F1800104698470346BB75FB897B82FB891846A8
:101F280097ED000B01F038FDBB7D002B06D07B8AB6
:101F3800184602F055FE0346FB7503E07B8A1846F7
:101F480002F0B1FE97F91730002B05D097F917303A
:101F58001946084801F001FD97F917301846183757
:101F6800BD4680BDA4000108E800010865230020E3
:101F7800242200202801010880B582B000AF002388
:101F8800FB71002001F0F4FD0346FB7197F907305F
:101F980018460837BD4680BD80B582B000AF002323
:101FA800FB710B4B06221A7001F080FE0346FB7191
:101FB8000C22002107480DF0C5FF02F0F5F9044B8B
:101FC80000221A7097F9073018460837BD4680BDB9
:101FD800652300202422002080B400AF034B1B7827
:101FE800DBB21846BD465DF8047B704764230020C9
:101FF80080B400AF034B1B78DBB21846BD465DF8D2
:10200800047B70477C23002080B483B000AF034674
:102018003960FB7197F90730002B0ADB3B68DAB2AD
:102028000C4997F907301201D2B20B4483F8002308
:102038000AE03B68DAB20849FB7903F00F03043B76
:102048001201D2B20B441A7600BF0C37BD465DF8B8
:10205800047B704700E100E000ED00E080B584B04B
:1020680000AFF860B9607A60FB68DBB20F3BDBB2A7
:102078005BB279681846FFF7C7FF00BF1037BD4647
:1020880080BD000080B483B000AF0346FB7197F9B0
:102098000730002B0BDBFB7903F01F02074997F988
:1020A80007305B09012000FA02F241F8232000BF43
:1020B8000C37BD465DF8047B704700BF00E100E0C7
:1020C80080B483B000AF0346FB7197F90730002B4B
:1020D80012DBFB7903F01F020A4997F907305B0905
:1020E800012000FA02F2203341F82320BFF34F8F7A
:1020F80000BFBFF36F8F00BF00BF0C37BD465DF850
:10210800047B704700E100E080B483B000AF7860E2
:102118007B686FF004021A6000BF0C37BD465DF89B
:10212800047B704780B483B000AF78607B685B68DD
:1021380003F08003802B0CBF01230023DBB2184679
:102148000C37BD465DF8047B704780B483B000AFA0
:1021580078607B681B6843F001027B681A6000BFE7
:102168000C37BD465DF8047B704780B483B000AF80
:1021780078607B681B6823F001027B681A6000BFE7
:102188000C37BD465DF8047B704780B483B000AF60
:10219800786039607B681B6823F004023B681A4347
:1021A8007B681A6000BF0C37BD465DF8047B70473A
:1021B80080B483B000AF78607B681B6803F00403C9
:1021C80018460C37BD465DF8047B704780B483B071
:1021D80000AF786039607B683A68DA6200BF0C3714
:1021E800BD465DF8047B704780B483B000AF78606B
:1021F8007B68DB6A18460C37BD465DF8047B704780
:1022080080B483B000AF786039607B683A681A633D
:1022180000BF0C37BD465DF8047B704780B483B0BF
:1022280000AF786039607B683A685A6300BF0C3742
:10223800BD465DF8047B704780B483B000AF78601A
:1022480039607B683A689A6300BF0C37BD465DF811
:10225800047B704780B483B000AF786039607B68D6
:102268003A68DA6300BF0C37BD465DF8047B7047F7
:1022780080B483B000AF78607B685B6B18460C371E
:10228800BD465DF8047B704780B483B000AF7860CA
:102298007B689B6B18460C37BD465DF8047B70471E
:1022A80080B483B000AF78607B68DB6B18460C376E
:1022B800BD465DF8047B704780B483B000AF78609A
:1022C8007B685B6943F001027B685A6100BF0C3789
:1022D800BD465DF8047B704780B483B000AF78607A
:1022E80039607B683A689A6100BF0C37BD465DF873
:1022F800047B704780B483B000AF786039603B6876
:102308001A047B689A6100BF0C37BD465DF8047BF0
:102318007047000080B584B000AF786087ED000A90
:10232800D7ED007AF5EEC07AF1EE10FA03D54FF04A
:1023380000033B600AE0D7ED007A9FED167AF4EED1
:10234800C77AF1EE10FA01DD134B3B607B681B681E
:102358001846FFF749FFF8607B681B79002B0CBF14
:1023680001230023DBB21A46FB68134407EE903AB8
:10237800B8EE677AD7ED007A27EE277ADFED056A9F
:10238800C7EE267AFCEEE77A17EE903A1846103731
:10239800BD4680BD0000C8420000C84280B582B07A
:1023A80000AF786039607B681B681846FFF71CFF30
:1023B80002463B68934205D07B681B68396818461B
:1023C800FFF704FF00BF0837BD4680BD80B582B067
:1023D80000AF786039607B681B681846FFF748FFD4
:1023E80002463B68934205D07B681B6839681846EB
:1023F800FFF714FF00BF0837BD4680BD80B582B027
:1024080000AF786039607B681B681846FFF73CFFAF
:1024180002463B68934205D07B681B6839681846BA
:10242800FFF70AFF00BF0837BD4680BD80B582B000
:1024380000AF786039607B681B681846FFF730FF8B
:1024480002463B68934205D07B681B68396818468A
:10245800FFF700FF00BF0837BD4680BD80B584B0D8
:1024680000AF786087ED000A97ED000A7868FFF7FB
:1024780051FFF860F9687868FFF7A8FF00BF1037C8
:10248800BD4680BD80B584B000AF786087ED000A96
:1024980097ED000A7868FFF73DFFF860F9687868FB
:1024A800FFF7ACFF00BF1037BD4680BD80B584B0D4
:1024B80000AF786087ED000A97ED000A7868FFF7AB
:1024C80029FFF860F9687868FFF7B0FF00BF103798
:1024D800BD4680BD80B485B000AF78607B681B685E
:1024E8009B6803F00703FB60FB68062B0CBF012306
:1024F8000023DBB218461437BD465DF8047B7047ED
:1025080080B584B000AF78600B46FB707B681B68B1
:102518001846FFF74DFEF860FB78002B0AD07B6861
:102528001B681E4A934205D17B681B680021184628
:10253800FFF766FEFB68042B11D07B681B6804213B
:102548001846FFF722FE7B681B681846FFF7B4FEA3
:102558007B681B68F9681846FFF717FE04E07B687C
:102568001B681846FFF7A8FE7B681B681846FFF72C
:10257800ECFDFB78002B0CD07B681B68074A934264
:1025880007D17B681A687B685B7919461046FFF7A4
:1025980037FE00BF1037BD4680BD00BF00000140B8
:1025A80080B582B000AF78607B681B681846FFF77B
:1025B800DCFD00BF0837BD4680BD000080B58CB08B
:1025C80002AF78607B6800221A727B6801225A6029
:1025D8000023BB6100233B74174BFB6100233B6264
:1025E8000023BB74002387F82430012387F82530A3
:1025F8000223FB6002237B7407F10C004FF4801365
:102608000093022300220221FEF7E8FC02467B68C1
:10261800DA607B68DB681846FEF770FD7B68DB686C
:1026280000211846FEF7CEFC7B6801221A7200BF13
:102638002837BD4680BD00BF0020014080B584B06A
:1026480000AF87ED000B38687B6823F000414FF03E
:1026580000022F4BFEF7CAF90346002B48D04FF073
:1026680000022C4BD7E90001FEF7D4F90346002BF2
:1026780013D04FF00002274BD7E90001FDF78EFD7C
:1026880002460B4643EC172BB0EE470AF0EE670AFA
:102698000CF012F887ED020B2EE04FF000021E4BF3
:1026A800D7E90001FEF7C0F90346002B0CD04FF024
:1026B80000024FF00003D7E90001FDF725FF0246AD
:1026C8000B46C7E9022317E04FF00002114BD7E988
:1026D8000001FDF761FD02460B4643EC172BB0EEF7
:1026E800470AF0EE670A0BF05FFF87ED020B03E085
:1026F800D7E90023C7E90223D7E9022343EC172BC4
:10270800B0EE470AF0EE670A1037BD4680BD00BF3D
:10271800000030430000E03F0000E0BF80B5A6B0F5
:1027280000AF78601D4BBB6000233B7300237B73B5
:1027380007F108031846FFF72FFA02467B68DA60AC
:102748007B68DB6800211846FEF7B1FF7B68DB6811
:1027580004211846FFF7E0F87B68DB680421184677
:10276800FFF742F97B68DB6804211846FFF7A4F9F4
:102778007B68DB681846FFF7ADFE034687F897309D
:1027880097F89730002B05D17B68DB680121184644
:10279800FFF7B6FE00BF9837BD4680BD0000014078
:1027A8002DE9B04F98B000AFBB4B93F9353087F89F
:1027B8004330002387F8473097F84330042B20D85C
:1027C80001A252F823F000BFE5270008ED27000812
:1027D800F5270008FD27000805280008002387F8CA
:1027E80047300EE0032387F847300AE0032387F8D1
:1027F800473006E0002387F8473002E0002387F8D7
:10280800473097F94730A44A82F83530A24B93F9FC
:10281800343087F84230002387F8463097F8423042
:10282800042B20D801A252F823F000BF4928000841
:10283800512800085928000861280008692800085C
:10284800002387F846300EE0032387F846300AE075
:10285800032387F8463006E0002387F8463002E075
:10286800002387F8463097F946308B4A82F834308F
:102878008A4B9B6DBB648A4B03F500539B6C00220B
:102888001C461546BB6C00229846914608FB05F28B
:1028980004FB09F31344A4FB08010B441946FDF794
:1028A800FDFD4FF000027F4BFDF72EFE02460B4662
:1028B8007A49C1E900237A4B03F5FB53D3E90001B8
:1028C800764BD3E90023FDF71FFE02460B46C7E906
:1028D8000E23734B03F5FB53103353E90201D7E979
:1028E8000E23FDF711FE02460B46104619466C4BA7
:1028F80003F5FB531033D3E90023FDF705FE024629
:102908000B46C7E91423664BD3E90223D7E9140120
:10291800FEF76CF80346002B77D097ED140B0BF0FD
:10292800CBFE87ED160B97ED160B00F0DDFF034687
:10293800002B06D04FF000024FF00003C7E9162322
:1029480007E09FED531B97ED160B0BF065FD87ED28
:10295800160B4FF000024FF00003D7E91601FEF7FF
:1029680045F80346002B14D0BB6D3B61FB6D83F02B
:1029780000437B61D7E90401FEF79EF803469BB24A
:102988005B429BB21BB21846FDF754FD02460B464C
:102998000BE0D7E91601FEF78FF803469BB21BB28E
:1029A8001846FDF747FD02460B46D7E91401FDF727
:1029B800F3FB02460B46C7E91423374B93F935302E
:1029C80087F8363097F8363087F8453097F836303C
:1029D800042B14D801A252F823F000BFF9290008EB
:1029E800072A0008072A0008012A0008072A000801
:1029F800022387F8453002E0012387F8453097F92C
:102A08004520254B83F8352088E097ED140B0BF013
:102A1800DFFE87ED160B97ED160B00F089FF0346D6
:102A2800002B06D197ED160B00F05EFF0346002B36
:102A380006D04FF000024FF00003C7E9162307E065
:102A48009FED131B97ED160B0BF0E6FC87ED160BAD
:102A58004FF000024FF00003D7E91601FDF7C6FF5B
:102A68000346002B20D0BB6DBB60FB6D83F0004399
:102A7800FB60D7E90201FEF71FF803469BB25B42F1
:102A88009BB21BB21846FDF7D5FC02460B4617E071
:102A9800000000000000F0409822002038220020AA
:102AA800000000200000103DD7E91601FEF704F8E9
:102AB80003469BB21BB21846FDF7BCFC02460B4608
:102AC800D7E91401FDF768FB02460B46C7E9142352
:102AD800394B93F9343087F8373097F8373087F81F
:102AE800443097F83730042B13D801A252F823F05A
:102AF8000D2B00081B2B00081B2B0008152B0008AA
:102B08001B2B0008022387F8443002E0012387F8D2
:102B1800443097F94420284B83F83420274B03F599
:102B2800FC5353E90223D7E91401FDF7EDFC0246F3
:102B38000B46C7E9142397ED140B0BF049FE87EDFC
:102B4800160B97ED160B00F0F3FE0346002B06D18B
:102B580097ED160B00F0C8FE0346002B06D04FF089
:102B680000024FF00003C7E9162307E09FED101B92
:102B780097ED160B0BF050FC87ED160B4FF000028B
:102B88004FF00003D7E91601FDF730FF0346002B8D
:102B980016D0BB6D3B60FB6D83F000437B60D7E9CB
:102BA8000001FDF789FF03469BB25B429BB20DE033
:102BB800000000000000F0409822002000000020E3
:102BC800D7E91601FDF778FF03469BB2BB86C64BD3
:102BD80003F5FC531033D3E90001C44BD3E90023B8
:102BE800FDF792FC02460B4610461946BE4B03F50C
:102BF800FD5353E90223FDF7D1FA02460B4643EC95
:102C0800172BB0EE470AF0EE670A0BF085FC51EC83
:102C1800100BB54B03F5FC53D3E90023FDF774FC07
:102C280002460B4610461946AF4B03F5FC531033CA
:102C380053E90223FDF7B2FA02460B46AB49C1E954
:102C48000223A94B03F5FD531033D3E90001A74B29
:102C5800D3E90023FDF758FC02460B4610461946F7
:102C6800A14B03F5FE5353E90223FDF797FA0246F9
:102C78000B4643EC172BB0EE470AF0EE670A0BF051
:102C88004BFC51EC100B984B03F5FD53D3E9002393
:102C9800FDF73AFC02460B4610461946924B03F5DF
:102CA800FD53103353E90223FDF778FA02460B4629
:102CB8008E49C1E904238C4B03F5FE531033D3E945
:102CC80000018A4BD3E90023FDF71EFC02460B46A0
:102CD80010461946844B03F5FF5353E90223FDF7C9
:102CE8005DFA02460B4643EC172BB0EE470AF0EEAE
:102CF800670A0BF011FC51EC100B7B4B03F5FE53EC
:102D0800D3E90023FDF700FC02460B46104619469E
:102D1800754B03F5FE53103353E90223FDF73EFAD2
:102D280002460B467149C1E906236DA3D3E9002386
:102D3800D7E90E01FDF730FA02460B4643EC172B94
:102D4800B0EE470AF0EE670A0BF0E6FB51EC100B09
:102D5800664BD3E90423FDF7D7FB02460B4614461E
:102D68001D4697ED0E0B0BF0D7FB51EC100B5F4B8C
:102D7800D3E90223FDF7C8FB02460B462046294645
:102D8800FDF70CFA02460B4614461D4654A3D3E938
:102D98000023D7E90E01FDF701FA02460B4643EC82
:102DA800172BB0EE470AF0EE670A0BF0B5FB51ECB3
:102DB800100B4E4BD3E90623FDF7A6FB02460B4644
:102DC80020462946FDF7EAF902460B461046194601
:102DD800454B03F5FF53D3E90023FDF795FB024666
:102DE8000B464249C1E908233DA3D3E90023D7E9AB
:102DF8000E01FDF7D1F902460B4643EC172BB0EE56
:102E0800470AF0EE670A0BF03FFB51EC100B374B0B
:102E1800D3E90423FDF778FB02460B4614461D460A
:102E280097ED0E0B0BF030FB51EC100B2F4BD3E949
:102E38000223FDF769FB02460B4620462946FDF7AB
:102E4800ADF902460B4614461D4625A3D3E90023D7
:102E5800D7E90E01FDF7A2F902460B4643EC172B02
:102E6800B0EE470AF0EE670A0BF00EFB51EC100BC0
:102E78001E4BD3E90623FDF747FB02460B462046C7
:102E88002946FDF78BF902460B4610461946164BA4
:102E980003F5FF53D3E90023FDF736FB02460B4643
:102EA8001249C1E90A23114BD3E902010F4BD3E9B7
:102EB8000423FDF773F902460B46104619460B4BDF
:102EC800D3E90623FDF76AF902460B46C7E916233C
:102ED8004FF00002064BD7E91601FDF715FB09E094
:102EE80065732D3852C100400000002038220020B0
:102EF8000000E03F02460B4610461946864B03F594
:102F0800FF53D3E90023FDF7FFFA02460B46834936
:102F1800C1E90C23814BD3E902457F4B03F5FF53ED
:102F2800103353E90201D7E91623FDF7EDFA0246FB
:102F38000B4620462946FDF72FF902460B46104658
:102F48001946754B03F5005353E90223FDF7DCFAE4
:102F580002460B46C7E91623704BD3E904016F4BB1
:102F6800D3E90623FDF718F902460B461046194621
:102F7800694B03F5FF531033D3E90023FDF7C4FA77
:102F880002460B4610461946634B03F50053D3E936
:102F98000023FDF7B9FA02460B46C7E90E23BB8E9C
:102FA8001846FDF737FA02460B46D7E91401FDF734
:102FB800F3F802460B46C7E90A23574B03F50053BB
:102FC800B3F95E301A46BB8E1344534A0233DB0012
:102FD8001344D3E90023C7E914234F4B03F50053E7
:102FE800B3F95C301A46BB8E13444B4A0233DB00FC
:102FF8001344D3E90001D7E91423FDF7CDF80246BD
:103008000B4610461946D7E90A23FDF77DFA024612
:103018000B46D7E91401FDF7C1F802460B46C7E98C
:1030280014233D4B03F50053B3F962301A46BB8EA7
:103038001344394A0233DB001344D3E90023C7E9B8
:103048000823354B03F50053B3F960301A46BB8E9D
:103058001344314A0233DB001344D3E90001D7E9B2
:103068000823FDF799F802460B4610461946D7E99A
:103078000A23FDF749FA02460B46D7E90801FDF78E
:103088008DF802460B46C7E90A23234B03F5005384
:10309800B3F86620204B03F50053B3F868309A4222
:1030A8003ED9D7E90A23D7E90E01FDF72DFA0246E2
:1030B8000B4614461D46D7E91423D7E91601FDF738
:1030C80023FA02460B4620462946FDF765F80246D4
:1030D8000B46924683F0004B104BC3E912ABD7E97D
:1030E8000A23D7E91601FDF70FFA02460B461446E4
:1030F8001D46D7E91423D7E90E01FDF705FA024664
:103108000B4620462946FDF749F802460B46034977
:10311800C1E914233AE000BF000000203822002053
:10312800D7E90A23D7E91601FDF7EEF902460B465F
:1031380014461D46D7E91423D7E90E01FDF7E4F933
:1031480002460B4620462946FDF728F802460B465C
:103158008B49C1E91223D7E90A23D7E90E01FDF704
:10316800D3F902460B4614461D46D7E91423D7E97E
:103178001601FDF7C9F902460B4620462946FDF718
:103188000BF802460B467E49C1E914237C4BD3E970
:1031980012237B49C1E90E23794BD3E914237849DB
:1031A800C1E91023774B03F50053103393ED007BEF
:1031B800B0EE470AF0EE670AFFF740FA87ED160B04
:1031C8004FF00002704BD7E91601FDF70FFC0346DC
:1031D800002B14D04FF000024FF00003D7E916017E
:1031E800FDF718FC0346002B06D0D7E91601FDF7BA
:1031F80063FC0346BB6405E00023BB6402E04FF0B8
:10320800FF33BB64614BDB69B96C1846FEF70AFDF6
:10321800B8645E4BDB69B96C1846FFF7BFF85B4BC7
:10322800DC69584B03F50053203353E90223104659
:103238001946FDF761FC034600EE103A2046FFF7F9
:103248000DF9524BDC694F4B03F500532033D3E99A
:10325800002310461946FDF74FFC034600EE103ACE
:103268002046FFF70FF9494BDC69464B03F500533D
:103278002033D3E9002310461946FDF73DFC0346E9
:1032880000EE103A2046FFF711F9404B1B6B184629
:10329800FDF7D0F83B4B03F5015353E90223FDF743
:1032A800A5FB0346002B0AD0384B1B6B002B06DB13
:1032B800344B03F50053303353E9022303E04FF056
:1032C80000024FF00003C7E91623304B1B6B18466A
:1032D800FDF7B0F804460D462A4B03F5005330338A
:1032E800D3E900014FF00002294BFCF755FF0246D5
:1032F8000B4620462946FDF78DFB0346002B03D0DD
:10330800224B00221A6304E0204B1B6B01331F4A37
:103318001363204BFB614FF000024FF00003D7E925
:103328001601FDF759FB0346002B02D12023FB644D
:1033380001E00023FB64FB6C1946F869FEF7CCFF3B
:10334800FB6CDB4303F020031946F869FEF7D2FF54
:10335800114B9A6A01329A629B6A1846FDF75AF82D
:103368000D4BD3E90C230C4CFDF7CEF802460B4667
:10337800C4E9082300BF6037BD46BDE8B08F00BF71
:1033880038220020000000200000F0419822002090
:103398000000F03F00000240D022002000000000A2
:1033A80080B500AF3C494FF000023C4BC1E9102307
:1033B800394937A3D3E90023C1E90C23364B384AEE
:1033C8009A60354B374ADA60334B374A1A61324BC9
:1033D800364A5A61304B364A5A60354B354A1A607C
:1033E800344B354A1A60334B334A5A60314B334AAF
:1033F8009A60304B314ADA602E4B304A1A612D4BB5
:103408002D4A5A612B4B2E4A9A612A4B2D4ADA6172
:10341800284B294A1A62274B274A5A621E4A1E4BD2
:103428005B6818329A601C4A1B4B5B6808325A600A
:10343800194A194B5B682032DA60174B164A9B6AA7
:103448009363214B03F500539B6D204AD3621F4BB6
:1034580000225A601D4B00221A701C48FFF7AEF874
:10346800194B03F500531B6D194A9365174B00223E
:103478001A74164B00221A76144B01225A61154809
:10348800FFF74CF9114B01221A7600BF80BD00BF2F
:103498009A9999999999B93FD02200200000F0BFD4
:1034A800547ED9DBC59BE8A1379A037F7A8FBC9EEF
:1034B800202300203423002074280108CE22002075
:1034C800CD220020CC2200200000002098220020DD
:1034D80038220020A822002080B500AF214B1B789D
:1034E800002B11D11F4B01221A701E4B5B68012B58
:1034F8000AD11C4B1B7A002B06D01A4BDB68002222
:1035080002211846FDF76DFE164B1B7C002B27D1B8
:10351800144B01221A74134B5B69012B20D1114BF8
:103528001B7E002B1CD00F4BDB691846FFF738F8C1
:103538000C4BDB6900211846FEF753F9094BDB6990
:1035480004211846FEF71CFA064BDB6904211846CD
:10355800FEF77EFA034BDB6904211846FEF7E4FA0E
:1035680000BF80BD9822002080B500AF0222044928
:103578002120FEF773FD1220FEF784FD00BF80BDF9
:10358800913500080000000080B582B000AF4848BF
:10359800FEF7C8FD0346002B07D04648FDF7F7FCA9
:1035A8000346002B01D0012300E00023002B71D03B
:1035B8003F48FEF7A9FD404B1B78DBB2012B69D1D0
:1035C8003E4B93F93630BB710023FB71BB79042B5A
:1035D8001AD801A252F823F0F5350008FB35000887
:1035E80001360008073600080D3600080023FB7175
:1035F8000AE00323FB7107E00323FB7104E00023C7
:10360800FB7101E00023FB7197F907202B4B83F82E
:1036180036202B4B2A4A9B6A9363284BDB683A4631
:1036280002211846FDF77FFD244BDB6A254A936586
:10363800244B9A6D244B03F500535B6D13441F4ACA
:10364800D3621E4BDA6A204B1B689A4205D91E4B7F
:1036580003F50053DB6C194AD362184B042283F834
:103668003620174B9B6B1846FCF7D4FE0EA3D3E904
:103678000023FCF749FF02460B461449C1E9002321
:10368800124B93ED007BB0EE470AF0EE670A01207B
:10369800FEF7F4FBBFF36F8F00BFBFF34F8F00BF80
:1036A80000BF0837BD4680BD9A9999999999B93F45
:1036B800002001407C210020622300209822002065
:1036C800D0220020382200200000002030220020D4
:1036D80080B500AF1220FEF7F3FC00BF80BD0000EC
:1036E80080B582B000AF4FF000024FF00003C7E989
:1036F8000023164B1B785A1CD1B2144A1170002BA8
:1037080009D0134B01221A60104B1B78013BDAB227
:103718000E4B1A7016E062B600BF0E4B1B68D3E959
:103728000823C7E90023FFF73BF897ED000B0020BB
:10373800FEF7A4FB72B600BF044B1B78013BDAB25C
:10374800024B1A700837BD4680BD00BF60230020B9
:103758005C2300207028010880B586B000AF78602F
:1037680039605B4B7B615B4B3B610023FB735A4BBE
:1037780000221A70594B00221A7001DF09F080FDEF
:1037880008F002FB06F0B6F908F0D2FD08F0A4FD37
:1037980008F022FD08F054FC08F046FB504B1B686B
:1037A80000221A6000210020FEF75EFA0346FB7330
:1037B80097F90F30002B02D097F90F3084E0FFF70C
:1037C800D3FEFFF7EDFD72B600BF62B600BF444BF3
:1037D8001B685A68424B1B68403319461046FEF76F
:1037E80053FA0346FB7397F90F30002B0DD14FF0B6
:1037F800FF30FEF7DDFAFEF7EFFB0346002B04D09F
:10380800374B1B68012283F8482072B600BF97ED3A
:10381800050A06F063FAFEF7EBFB0346002B0CD112
:10382800FEF7DAFB0346002B07D12D4B1B6893F8F4
:103838004830002B01D1012300E00023DAB2274BE6
:103848001A7062B600BF62B600BF2FE0FEF794FBA5
:103858000346FB73FEF7CCFB0346002B0AD1FEF7A9
:10386800BBFB0346002B05D11D4B1B6893F8483062
:10387800002B01D0012300E00023DAB2164B1A70A6
:10388800154B1B78DBB2002B0CBF01230023DBB2E6
:103898001A46124B1A70104B1B78DBB2002B05D05E
:1038A800104B1B680F4A23F0010313600B4B1B7866
:1038B800DBB2002BCAD1FFF70FFEFEF76DFBFFF757
:1038C80007FF72B600BF002318461837BD4680BDF3
:1038D800CDCCCC3D0000A84261230020622300200B
:1038E8007028010810E000E080B582B000AF87EDD5
:1038F800000B0D4BD3E90023D7E90001FDF76CF865
:103908000346002B09D1094BD3E90023D7E900016D
:10391800FDF762F80346002B01D0012300E00023E5
:1039280018460837BD4680BD70200020782000204A
:1039380080B582B000AF87ED000BD7E90023D7E947
:103948000001FDF77BF80346002B01D0012300E0BE
:10395800002318460837BD4680BD0FB480B400AFB9
:1039680000BFBD465DF8047B04B0704780B485B0E5
:1039780000AFF860B9607A60FB68BA681A60FB68E3
:1039880004337A681A6000BF1437BD465DF8047BBB
:103998007047000000000000F0B58BB000AF87ED65
:1039A800020B0346FB80FB88002B77D14FF0000207
:1039B800414BD7E90201FCF7A7FD02460B46C7E9D0
:1039C80006239FED391B97ED060B0AF025FD53ECF6
:1039D800102B10461946FDF76FF803467B6100234C
:1039E8007B6233A3D3E90023D7E90601FDF71CF86E
:1039F8000346002B0ED02EA3D3E90023D7E90601F6
:103A0800FCF7ACFE02460B4610461946FDF754F883
:103A180003467B627A6A79692848FFF7A7FF284B33
:103A2800D3E900014FF00002264BFCF7D5FF03460F
:103A3800002B2ED1224BD3E900014FF000024FF0AA
:103A48004043FCF7C9FF0346002B22D11C4BD3E9A6
:103A58000001D7E90223FCF79FFB02460B461446F8
:103A68001D464FF00002184BD7E90201FCF74CFD48
:103A780002460B4601210E4620462946FCF7B6FFB2
:103A88000346002B01D100231E46F3B21A460F4B02
:103A98001A700F49D7E90223C1E9002300BF2C3768
:103AA800BD46F0BDAFF30080000000000000F0410B
:103AB8000000E0FFFFFFEF4100408F408823002017
:103AC800802000200000F0BF0000B03C7C230020D4
:103AD8009023002080B584B000AF0023BB60002392
:103AE8007B600023FB731F494FF000024FF0000377
:103AF800C1E900233A1D07F108031146184605F0ED
:103B0800B3FFBB687A681146184604F0D3F8034639
:103B1800FB7397F90F30002B05D01348FFF71DFFF3
:103B280097F90F301AE03A1D07F1080311461846B5
:103B380005F0B1FFBB687A681146184600F054FFDB
:103B48000346FB7397F90F30002B05D097F90F3018
:103B580019460648FFF701FF97F90F301846103746
:103B6800BD4680BD80230020A4020108CC020108C4
:103B780080B584B000AF0346FB710023FB730023BC
:103B8800BB73002005F09EFF00237B7304F060FAEE
:103B98000346FB7397F90F30002B0DD097F90F30C0
:103BA80013F1020F08D097F90F3019463C48FFF778
:103BB800D4FE0123BB730BE07B7B002B04D197F968
:103BC8000F3013F1020F01D0012300E000237B73B3
:103BD800BB7B002B21D100F039FF0346FB7397F91B
:103BE8000F30002B0DD097F90F3013F1020F08D0CA
:103BF80097F90F3019462B48FFF7AFFE0123BB7327
:103C08000BE07B7B002B04D197F90F3013F1020FE7
:103C180001D0012300E000237B73BB7B002B21D163
:103C280004F0A0F90346FB7397F90F30002B0DD071
:103C380097F90F3013F1020F08D097F90F30194692
:103C48001948FFF78AFE0123BB730BE07B7B002B2F
:103C580004D197F90F3013F1020F01D0012300E0CE
:103C680000237B73FB79002B0DD0002005F02AFF81
:103C7800BB7B002B02D17B7B002B01D1012300E011
:103C88000023BB7301E00123BB73BB7B002B3FF414
:103C98007BAF97F90F3018461037BD4680BD00BF7F
:103CA800F40201082C0301085C03010880B582B006
:103CB80000AF0023BB70394B1B78DBB2002B02D05E
:103CC800002000F0E1FF00F0B3FF0346FB70002383
:103CD8007B600EE00A2005F0F5FE7B6803F51C53B7
:103CE80010337B600120FFF743FF00F0A1FF03467C
:103CF800FB707B682A4A934202D8FB78002BE9D1F3
:103D080000F0A2FF0346BB7097F90230002B05D0E4
:103D180097F9023019462348FFF71FFE04F012FBFB
:103D28000346BB7097F90230002B05D097F9023093
:103D380019461D48FFF711FE1C4B00221A701C4B38
:103D480000221A701B4B00221A601B4B00221A60BB
:103D58001A4B00221A601A4B00221A60194B0022D3
:103D68001A6019494FF000024FF04043C1E900239F
:103D78000A4B00221A700822002114480CF0E2F8BD
:103D880013494FF000024FF00003C1E9002397F9EF
:103D9800023018460837BD4680BD00BF7C2300208E
:103DA800FF2C310194030108B003010863230020AC
:103DB80064230020682300206C2300207023002047
:103DC80074230020782300208020002088230020EE
:103DD8009023002080B586B000AF614B1B687B61E3
:103DE8007B69002B00F0B8805E4B1B78DBB2002BA0
:103DF80004D15B4B1B68002B00F0AE805A4B1B783C
:103E0800DBB2022B40F0A880584B1B78002B40F007
:103E1800A3807B69D3E90023C7E90223544B1B78AD
:103E2800002B00F08A80534B1B78DBB2002B04D0A8
:103E3800504B1B78DBB2022B01D1012300E0002399
:103E4800FB714C4B1B78DBB2012B04D0494B1B7820
:103E5800DBB2022B01D1012300E00023BB71FB7907
:103E6800002B33D0444BD3E90023D7E90201FCF7F8
:103E7800D1FD0346002B0AD0404BD3E900013E4B4D
:103E8800D3E90023FCF7B2FD0346002B14D13A4BCB
:103E9800D3E90023D7E90201FCF7C6FD0346002B4E
:103EA80014D0364BD3E90001334BD3E90023FCF798
:103EB80093FD0346002B09D0314B1B68002B02D120
:103EC800304B01221A70294B01221A70BB79002B42
:103ED80033D0294BD3E90023D7E90201FCF786FD4B
:103EE8000346002B0AD0254BD3E90001224BD3E926
:103EF8000023FCF78FFD0346002B14D11E4BD3E99A
:103F08000023D7E90201FCF767FD0346002B14D014
:103F18001A4BD3E90001184BD3E90023FCF784FDC1
:103F28000346002B09D0164B1B68002B02D1154BFA
:103F380001221A700D4B01221A700C4B1B78002BB2
:103F48000CBF01230023DBB21A46094B1A700B4938
:103F5800D7E90223C1E9002300BF1837BD4680BD59
:103F68009C230020A0230020BC230020CB2300207A
:103F7800C8230020B8230020A8230020C023002045
:103F8800B4230020CA23002080B582B000AF0023EC
:103F9800FB719E4B1B78DBB2002B18D19C4B002287
:103FA8001A709C4B00221A709B4B1B78DBB2002BBB
:103FB8002DD0964B02221A70974B00221A70974BFD
:103FC8001B78DBB2002B22D10123FB711FE0924B3F
:103FD80000221A708E4B1B78DBB2002B09D0904B55
:103FE80000221A70894B00221A70894B00221A701D
:103FF8000DE08A4B1B78DBB2002B02D10123FB7149
:1040080005E0844B1B78FB71824B00221A707F4BB2
:104018001B78DBB2042B00F2D78001A252F823F000
:104028003D40000877410008574000082B41000830
:10403800B5400008784B1B78DBB2002B00F0D88025
:10404800724B02221A70744B00221A70D0E0FB796E
:10405800002B00F0CF80734B1B68002B0DDD6F4BDE
:104068001B78DBB2012B08D16E4B1B681A466E4BCE
:104078001A60664B03221A70BCE06C4B1B68002B5D
:104088000AD0674B01221A70684B1B68664A136096
:104098005E4B04221A70ADE06548FFF75EFC604B8A
:1040A80000221A70594B00221A70A3E05E4B1B685D
:1040B800002B04D05C4B1B68013B5B4A13605A4BD6
:1040C8001B68002B40F098805A4B1B78DBB2012B01
:1040D80006D1534B00221A704C4B00221A708BE009
:1040E800554B1B68002B0AD04D4B00221A70524BBF
:1040F8001B684D4A1360454B01221A707CE0FB791E
:10410800002B07D0494B1B68474A13603F4B0422DA
:104118001A7071E0424B00221A703C4B02221A704E
:104128006AE0414B1B68002B04D03F4B1B68013BE6
:104138003D4A13603C4B1B68002B5FD13B4B1B680F
:10414800002B0AD0364B01221A70384B1B68364AAE
:1041580013602E4B04221A7050E03548FFF7FDFB20
:104168002F4B00221A70294B00221A7046E02E4B62
:104178001B68002B04D02C4B1B68013B2A4A136098
:10418800294B1B68002B3BD1FB79002B18D0274B00
:104198001B68002B0AD0224B01221A70234B1B6884
:1041A800214A1360194B04221A7029E02048FFF7AE
:1041B800D4FB1B4B00221A70144B00221A701FE00C
:1041C800124B02221A701BE0104B1B78DBB2194607
:1041D8001A48FFF7C2FB124B00221A700D4B00223F
:1041E8001A700B4B00221A70084B00221A7008E054
:1041F80000BF06E000BF04E000BF02E000BF00E02F
:1042080000BF00BF0837BD4680BD00BFBC230020EB
:10421800B9230020CB2300208C200020BA230020C3
:10422800CA230020B4230020CC23002088200020AB
:10423800D4030108BB230020B0230020FC0301089D
:1042480080B400AF10494FF000024FF00003C1E9FD
:1042580000230E4B00221A700D4B1B78DAB20D4B5F
:104268001A700D4B00221A700C4B00221A700C4B5E
:1042780000221A600B4B00221A7000231846BD4614
:104288005DF8047B704700BFC0230020C8230020CE
:10429800BA230020C9230020CA230020CB230020F2
:1042A800CC230020BC23002080B584B000AF034697
:1042B800FB80FB88002B3FD1314B1B78DAB2314BA6
:1042C8001B789A4214BF01230023DBB2FB732C4BEB
:1042D8001B78DAB22B4B1A70FB7B002B0BD02A4BC6
:1042E80000221A70294B00221A70294B00221A60EA
:1042F800284B00221A70224B1B78DBB2012B1BD1F2
:10430800244B1B78DBB2002B04D1234B1B78DBB288
:10431800002B08D11F4B1B78DBB2012B0CD11C4B97
:104328001B68012B08D11A4B00221A601A4B002275
:104338001A70184B02221A70114B1B78DBB2012B32
:1043480007D1164B1B889BB2FA889A4201D1FFF716
:1043580041FDFB88002B05D1FFF716FE104B00220C
:104368001A7006E00E4B1B78002B02D00D4B1B7801
:1043780001E0054B1B7818461037BD4680BD00BFCD
:10438800BA230020C9230020CA230020CB23002001
:10439800CC230020BC2300208C2000209823002060
:1043A800D1230020D023002080B400AF26494FF04D
:1043B80000024FF00003C1E90023244B00221A70C9
:1043C800234B00221A70234B00221A70224B002222
:1043D8001A80224B00221A70214B00221A70214B9E
:1043E80000221A60204B00221A70204B00221A70FB
:1043F8001F4B00221A601F4B00221A701E494FF0F3
:1044080000024FF00003C1E900231C4B4FF47A72FD
:104418001A601B4B00221A601A4B00221A601A4BB2
:1044280000221A70194B01221A70194B00221A70B7
:10443800184B00221A70184B00221A7000231846D5
:10444800BD465DF8047B7047C0230020C8230020C8
:10445800BC230020C923002098230020CA23002061
:10446800CB230020CC230020D0230020D123002000
:104478009C230020A0230020A823002088200020BF
:10448800B0230020B4230020B82300208C20002073
:10449800B9230020BA230020BB23002080B400AF3A
:1044A800194B1B78DBB2002B29D1184B1B78DBB2D8
:1044B800002B0BD0164B1B78DBB2002B06D1154B0B
:1044C80001221A70144B01221A7018E0104B1B7845
:1044D800DBB21A460D4B1B78DBB2002B0CBF012355
:1044E8000023DBB21340002B06D00A4B00221A70BF
:1044F800094B01221A7002E0074B00221A7000BF14
:10450800BD465DF8047B7047BA2300208C2000204C
:10451800B9230020D0230020D123002080B586B005
:1045280000AFF860B9607A603B600023FB7503F068
:10453800FDFE3861FB681B68184604F00DF9002180
:10454800386803F06BFE0246BB681A6003F056FE3B
:1045580002467B681A60BB681B68002B0FD0BB68DB
:104568001B681946386904F0FDFB0246FB681A60AF
:10457800FB681B68002B04D1F623FB7501E0F823C8
:10458800FB7597F9173018461837BD4680BD0000EF
:1045980080B584B000AFF860B9607A60FA68BB682B
:1045A80013441B7819460848FFF7D7F9FB68002B16
:1045B80002D0F86804F0D0F87B6800221A60002363
:1045C80018461037BD4680BD2004010880B584B068
:1045D80000AFF860B9607A60FA68BB6813441B786A
:1045E80019460648FFF7B9F97B6802221A604FF0AE
:1045F800FF3318461037BD4680BD00BF7C04010854
:1046080080B485B000AF03460A46FB711346BB7100
:104618000523FB73FB79F02B02D90023FB7322E0FF
:10462800FB79E32B05D9FB79F02B02D80123FB7327
:1046380019E0FB79D22B02D9FB79E22B08D9FB7957
:10464800C02B08D1BB79002B05D0BB79022B02D82F
:104658000223FB7307E0FB79C72B04D9FB79D22B24
:1046680001D80323FB73FB7B18461437BD465DF85E
:10467800047B704780B58CB000AFF860B9607A6091
:104688003B60FB68BB62BB6A1B7887F82730002356
:1046980087F82F3097F82730C02B06D1BB68012B3D
:1046A80003D9BB6A5B7887F82F30364B1B78002B11
:1046B8003ED097F82F2097F8273011461846FFF775
:1046C8009FFF0346FB76002387F82E30FB7E052BE1
:1046D80023D0FB7E2C4A52F823307B6100233B61B8
:1046E8007B69002B19D097F827207B6910469847DB
:1046F80038613B69002B14BF01230023DBB287F824
:104708002E3097F82E30002B07D03B695A687B680B
:104718001A603B699A683B681A6097F82E30002B3C
:104728002CD17B68194A1A603B68194A1A6025E03F
:1047380097F82730FF2B1BD1134B1B683B627B6814
:1047480000221A603B6800221A603B6A002B15D0D1
:104758003B6AFF209847F861FB69002B0ED0FB6984
:104768005A687B681A60FB699A683B681A6005E0BA
:104778007B68084A1A603B6800221A6000BF30371D
:10478800BD4680BDD3230020D8230020D54500088E
:10479800654800089945000880B483B000AF034617
:1047A800FB71044AFB79137000BF0C37BD465DF8F6
:1047B800047B7047D323002080B400AF034B1B78E1
:1047C8001846BD465DF8047B704700BFD42300201F
:1047D80080B483B000AF0346FB71064B1A78FB79AF
:1047E8001343DAB2034B1A7000BF0C37BD465DF8AD
:1047F800047B7047D423002080B483B000AF034605
:10480800FB7197F90730DB435AB2074B1B785BB251
:1048180013405BB2DAB2044B1A7000BF0C37BD46C6
:104828005DF8047B704700BFD423002080B400AF3C
:10483800034B1B781846BD465DF8047B704700BFE4
:10484800D523002080B400AF034B1B881846BD4613
:104858005DF8047B704700BFD623002080B586B082
:1048680000AF0346B9607A60FB7397F90F30002BED
:1048780005D1BB683B613B69FF221A7076E0BB68D3
:104888007B617B69FE221A7097F90F3010330F2B6A
:1048980062D801A252F823F059490008514900088A
:1048A80049490008414900083949000831490008C8
:1048B8002149000829490008194900081149000838
:1048C8000949000801490008E9480008E1480008CA
:1048D800F1480008F94800087B6930225A7045E021
:1048E8007B6929225A7041E07B6922225A703DE097
:1048F8007B6920225A7039E07B6900225A7035E0C2
:104908007B6923225A7031E07B6921225A702DE09D
:104918007B6911225A7029E07B6927225A7025E0A9
:104928007B692A225A7021E07B6910225A701DE0A7
:104938007B6924225A7019E07B6928225A7015E095
:104948007B6926225A7011E07B6931225A700DE08A
:104958007B6933225A7009E097F90F3019460548E8
:10496800FEF7FBFF7B6920225A70FFE700BF18376C
:10497800BD4680BDAC04010880B487B000AF0346D3
:10498800B9607A60FB7300237B61BB68002B23D07E
:1049980000233B6100233B6117E03A6913465B0043
:1049A80013449B001A46BB6813441B78FA7B9A424F
:1049B80008D13A6913465B0013449B001A46BB684A
:1049C80013447B613B6901333B613A697B689A42D6
:1049D80002D27B69002BE0D07B6918461C37BD46A4
:1049E8005DF8047B7047000080B582B000AF786046
:1049F8003960134B1B78002B05D01248FEF7ADFF2A
:104A08006FF00B0318E000F07BFC00F085FC034618
:104A18000D4A136002F052FA02F06CFA03460A4A91
:104A2800936003F045F803F04DF80346064A5360D7
:104A3800034B01221A70002318460837BD4680BD73
:104A4800D2230020F0040108D823002080B58CB0C0
:104A580002AF002387F82730002387F82630002389
:104A6800FB610023BB6100237B6100233B610023C2
:104A7800FB6000233B620023BB6000237B60554B37
:104A88001B78002B05D15448FEF767FF6FF0080329
:104A98009BE007F1140007F1180207F11C0107F168
:104AA800100300930346002003F012FB034687F827
:104AB800273097F92730002B09D097F9273013F1C1
:104AC800040F04D097F9273013F1050F71D1FB6952
:104AD800002B05D07A693B691A44BB699A4203D90D
:104AE800F82387F8273067E0FA697B6913443B624B
:104AF80039693B1D07F10802386AFFF7BBFDBB683F
:104B0800002B09D13B6A1B7819463448FEF725FF6C
:104B1800F42387F827304FE0BB68F869796907F113
:104B28000C029847034687F826307B68002B3DD057
:104B3800FB68002B3AD0002387F827303A69FB68D6
:104B48009A420BD2FB6807F1140207F1180107F12A
:104B58001C00FFF7E3FC034687F827303B691A4639
:104B68000021386A0BF0EEF997F92730002B1DD198
:104B7800FA697B6913443B627B68FA6897F92600F7
:104B8800396A9847F969B8697B69FA6801920093AC
:104B980003460A464FF6FF71012003F041F9034628
:104BA80087F8273097F92730002B04D197F9273059
:104BB8000BE000BF00E000BFFB69002B03D0FB69DE
:104BC800184603F0C9FD97F9273018462837BD461F
:104BD80080BD00BFD2230020200501084805010838
:104BE80080B584B000AF0346FB800023FB7300232D
:104BF800BB600D4B1B78002B05D10C48FEF7ADFEB2
:104C08006FF008030CE004F0C7FFB860FB880022CF
:104C1800B968184602F06CFB0346FB7397F90F302E
:104C280018461037BD4680BDD223002078050108FC
:104C380080B400AF034B1B781846BD465DF8047B73
:104C4800704700BFD323002080B500AF0B4B1B7803
:104C5800002B02D10A48FEF780FE02F04FFF02F057
:104C6800F1FD00F075FB1022002106480BF06AF9EF
:104C7800024B00221A700023184680BDD223002060
:104C880070060108D823002080B584B000AF786092
:104C9800786802F0B1FB0346FB7397F90F301846AA
:104CA8001037BD4680BD80B584B000AF0346FB8099
:104CB8000123FB73FA7BFB880021184602F018FBDE
:104CC8000346BB7397F90E3018461037BD4680BDB2
:104CD80080B584B000AF0346FB710123FB6003F08D
:104CE800DCFAB860FA79B968FB68B1FBF3F39A4269
:104CF80034BF01230023DBB218461037BD4680BD00
:104D080080B584B000AF78600B46FB7000F02AFBDA
:104D1800F860F9680648FEF720FE064B1B781A462D
:104D2800F96878680BF040F900BF1037BD4680BDC0
:104D380098060108F023002080B588B000AFF8601D
:104D4800B9607A600023FB77FA68BB681344BB61DB
:104D5800BB697B610023FB7402F0A6FC0346FB746D
:104D6800FB7C002B08D11A48FEF7F7FD7B6802226E
:104D78001A606FF00A0327E07B695B78002B03D089
:104D88007B695B78012B01D1012300E00023FB74D0
:104D9800FB7C002B0BD17B695B7819460D48FEF72D
:104DA800DCFD7B6802221A606FF001030CE00A4800
:104DB800FEF7D3FD0120FFF7EFFC0023FB777B68AC
:104DC80008221A6097F91F3018462037BD4680BD63
:104DD800B0060108FC0601082007010880B586B066
:104DE80000AF0346B9607A60FB7397F90F30002B68
:104DF80047D1BB687B610822002178690BF0A2F8D3
:104E08007B69FF221A7005227B695A7000227B6930
:104E18009A7003F042FA0346DAB27B69DA7003F05B
:104E280035FA03469AB27B699A807B6901229A71A6
:104E38007B690122DA717B695B7819461648FEF7AF
:104E48008CFD7B699B7819461448FEF786FD7B69C3
:104E5800DB7819461248FEF780FD7B699B889BB278
:104E680019461048FEF779FD7B699B7919460E486B
:104E7800FEF773FD7B69DB7919460C48FEF76DFD7B
:104E880006E097F90F307A68B9681846FFF7E6FC2C
:104E980000BF1837BD4680BD4807010864070108F0
:104EA800800701089C070108B8070108D407010812
:104EB80080B586B000AFF860B9607A600123FB75F1
:104EC80002F0F2FB0346FB75FB7D002B08D10B4873
:104ED800FEF743FD7B6802221A606FF00A0309E0BF
:104EE8000748FEF73AFD0020FFF756FC7B680122D1
:104EF8001A60002318461837BD4680BDF007010820
:104F08004008010880B584B000AFF860B9607A60E5
:104F18000548FEF722FD7B6806221A600023184622
:104F28001037BD4680BD00BF7008010880B586B047
:104F380000AF0346B9607A60FB73BB687B610622E9
:104F4800002178690AF0FEFF7B69FF221A70FFF7DB
:104F580033FC03461A467B695A70FFF767FC034621
:104F68001A467B699A70FFF76DFC03461A467B69FF
:104F78009A807B695B7819460948FEF7EEFC7B69E5
:104F88009B7819460748FEF7E8FC7B699B889BB22B
:104F980019460548FEF7E1FC00BF1837BD4680BD3D
:104FA8007C080108A0080108C408010880B586B07B
:104FB80000AFF860B9607A600023FB750B48FEF714
:104FC800CCFC02F05BFB0346FB75FB7D002B03D09A
:104FD80003F08CF902F061FB7B6802221A606FF023
:104FE800040318461837BD4680BD00BFE80801080D
:104FF80080B588B000AFF860B9607A600023FB77AD
:10500800FA68BB681344BB61BB697B610023FB740E
:105018007B695A687B69DB781946104600F0AEF95F
:105028000346FB74FB7C002B08D10D48FEF795FC6A
:105038007B6802221A606FF00B030CE07B695968E9
:105048007B69DB781A460748FEF787FC7B680122F4
:105058001A6097F91F3018462037BD4680BD00BF3B
:10506800F00801080C09010880B58AB000AFF860A3
:10507800B9607A60002387F82730FA68BB68134460
:105088003B623B6AFB610023FB7600F06BF97861B9
:10509800FB695B781846FFF71BFE0346FB76FB7E31
:1050A800002B0BD1FB695B7819461248FEF755FCBB
:1050B8007B6802221A606FF0010316E07B69002BFF
:1050C80008D10D48FEF749FC7B6802221A606FF090
:1050D8000B030AE0FB695A78084B1A70074B1B78D8
:1050E8005A1C7B681A6097F9273018462837BD463E
:1050F80080BD00BF4009010870090108F0230020A5
:1051080080B588B000AF0346B9607A60FB7397F941
:105118000F30002B30D100F025F9F861BB68BB6176
:1051280001220021B8690AF00DFFBB69FF221A703D
:10513800FB69002B1CD0164B1B7801337A689A4206
:1051480016D1BB6801337B610023FB741148FEF75D
:1051580004FCFB7C19467869FFF7D2FD0C4B1B78E1
:10516800184600F029F90A4B00221A7000BF0AE01D
:105178000948FEF7F2FB06E097F90F307A68B9683C
:105188001846FFF76BFB00BF2037BD4680BD00BF48
:10519800F02300208C0901089809010880B588B01F
:1051A80000AFF860B9607A600023FB77FA68BB68E3
:1051B8001344BB61BB697B610023FB747B695B782B
:1051C8001846FFF785FD0346FB74FB7C002B0BD1CB
:1051D8007B695B7819461748FEF7BFFB7B6802229C
:1051E8001A606FF0010320E07B695A687B69DB78FD
:1051F8001946104600F0C2F80346FB74FB7C002BEE
:1052080008D10D48FEF7A9FB7B6802221A606FF0EF
:105218000B030AE07B695A78084B1A70074B1B7816
:105228005A1C7B681A6097F91F3018462037BD460C
:1052380080BD00BFB8090108EC090108F02300206F
:1052480080B588B000AF0346B9607A60FB7397F900
:105258000F30002B30D100F085F8F861BB68BB61D6
:1052680001220021B8690AF06DFEBB69FF221A709D
:10527800FB69002B1CD0164B1B7801337A689A42C5
:1052880016D1BB6801337B610023FB741148FEF71C
:1052980064FBFB7C19467869FFF732FD0C4B1B78E1
:1052A800184600F089F80A4B00221A7000BF0AE07D
:1052B8000948FEF752FB06E097F90F307A68B9689B
:1052C8001846FFF7CBFA00BF2037BD4680BD00BFA8
:1052D800F02300200C0A01081C0A010880B582B0DE
:1052E80000AF0346FB71FB79072204491846FFF714
:1052F80043FB034618460837BD4680BD7828010899
:1053080080B500AF034800F013F800F069F800BF5B
:1053180080BD00BFE552000880B400AF034B1B6896
:105328001846BD465DF8047B704700BFF423002093
:1053380080B483B000AF7860044A7B68136000BF14
:105348000C37BD465DF8047B704700BFF42300208E
:1053580080B500AF00F04BF80020FFF7E9FF00BF71
:1053680080BD000080B400AF034B1B681846BD46E3
:105378005DF8047B704700BFE823002080B483B049
:1053880000AF78600B46FB70FB78002B04D17B687C
:10539800002B01D1002306E0064A7B681360054A0A
:1053A800FB781371012318460C37BD465DF8047B62
:1053B800704700BFE823002080B483B000AF0346E5
:1053C800FB71064B1A68FB791344044A136000BF4B
:1053D8000C37BD465DF8047B704700BFE82300200A
:1053E80080B400AF00BFBD465DF8047B704780B451
:1053F80000AF00BFBD465DF8047B704780B584B040
:1054080000AF0346FB800023FB7305F08EFE0346C6
:105418000B4A13600B4B1B68002B0CBF01230023A6
:10542800DBB2FB73FB7B002B04D1054B1B681846D2
:1054380005F08CFEFB7B18461037BD4680BD00BFCB
:10544800042400200024002080B582B000AF034669
:10545800FB80044B1B68184605F078FE00BF083730
:10546800BD4680BD0424002080B582B000AF03464D
:10547800FB8005F05AFE0346074A1360074B1B687A
:105488000133064A1360044B1B68184605F05EFE9C
:1054980000BF0837BD4680BD04240020002400203A
:1054A80080B582B000AF0346FB8005F03EFE0346A0
:1054B800074A1360074B1B68013B064A1360044BFD
:1054C8001B68184605F042FE00BF0837BD4680BD80
:1054D800042400200024002080B483B000AF0346D9
:1054E800FB80104B1968FA8813465B001344DB00F5
:1054F8000B445B79022B0AD00A4B1968FA881346C9
:105508005B001344DB000B445B79032B01D10123BF
:1055180000E00023DBB218460C37BD465DF8047B7B
:10552800704700BFF823002080B582B000AF002389
:10553800FB710023BB800023BB8008E0BB881846B2
:10554800FFF7CAFF0346FB71BB880133BB80094BD9
:105558009B88BA889A4202D2FB79002BEED0FB795D
:10556800002B0CBF01230023DBB218460837BD46C9
:1055780080BD00BFF823002080B485B000AF03468B
:10558800FB800B467B7113463B71284B1B68002B35
:1055980042D0264B9B88FA889A423DD2234B196801
:1055A800FA8813465B001344DB000B441B68002B8E
:1055B80032D01E4B1968FA8813465B001344DB008F
:1055C8000B441B797A799A4226D2184B1968FA88C3
:1055D80013465B001344DB000B4419687A791346C1
:1055E800DB009B1A9B000B441B68002B14D00F4B4D
:1055F8001968FA8813465B001344DB000B441968EA
:105608007A791346DB009B1A9B000B441B793A7985
:105618009A4201D2012300E00023FB73FB7B18466A
:105628001437BD465DF8047B704700BFF82300209F
:1056380080B485B000AF03463A60FB710B46BB717E
:105648000023FB73BB79BB81FB79FF2B04D1BB899A
:10565800FF2B01D80123FB73FB7B18461437BD468B
:105668005DF8047B704780B483B000AF0346FB71DC
:10567800FB7923F01003002B0CBF01230023DBB2BE
:1056880018460C37BD465DF8047B704780B485B07A
:1056980000AF0346FB710023FB73FB79002B05D099
:1056A800FB79012B02D0FB79022B01D10123FB737B
:1056B800FB7B18461437BD465DF8047B704780B401
:1056C80085B000AF0346FB710023FB73FB79002B09
:1056D80005D0FB79012B02D0FB79022B01D10123E4
:1056E800FB73FB7B18461437BD465DF8047B704797
:1056F80080B400AF01231846BD465DF8047B7047AF
:1057080080B485B000AF0346FB80164B1968FA8851
:1057180013465B001344DB000B441B7B022B0ED1AA
:10572800104B1968FA8813465B001344DB000B44DE
:10573800DA880D4B1B889A4201D0012300E0002330
:10574800FB73FB7B002B04D0FB88012B01D80123C2
:1057580000E00023FB73FB7B18461437BD465DF859
:10576800047B7047F82300209820002080B485B07F
:1057780000AF78600B46FB707B681968FA781346AF
:10578800DB009B1A9B000B44BB60BB689B687A6874
:10579800D28902FB03F30133FB60FB78002B08D1AD
:1057A8007B681B7A03F01003002B02D0FB680433DC
:1057B800FB60FB6818461437BD465DF8047B7047EC
:1057C80080B586B000AF78600023BB7400237B618E
:1057D8000023FB740023FB7415E0FB7C19467868F2
:1057E800FFF7C4FFF8600023BB600121F86802F0EE
:1057F80015FDB860BA687B699A4201D9BB687B61BC
:10580800FB7C0133FB747B681B79FA7C9A42E4D3F6
:105818007B681B791A4613465B0099187B6814331A
:105828001A46786903F050F80346BB7497F91230AA
:10583800002B03D07B684FF0FF325A6197F9123082
:1058480018461837BD4680BD80B582B000AF786075
:105858007B685B69B3F1FF3F04D07B685B691846DE
:1058680003F044F97B684FF0FF325A6100BF0837F4
:10587800BD4680BD80B58AB000AFF860B9607A6077
:10588800002387F82730FA68BB6813443B623B6AF9
:10589800FB61FB699A78DB781B0213437B83FB6906
:1058A8001B797B76FB695B793B760023FB753A7E37
:1058B800797E7B8B1846FFF75FFE0346FB75FB7D01
:1058C800002B0BD1798B7A7E3B7E1D48FEF745F87D
:1058D8007B6802221A606FF001032CE07B8B18466C
:1058E800FFF7FAFD0346002B0CBF01230023DBB2B0
:1058F800FB75FB7D002B0AD17B8B19461148FEF7FF
:105908002CF87B6802221A606FF0070313E0798B8A
:105918007A7E3B7E0C48FEF720F80C4A7B8B13807E
:105928000A4A7B7E9370094A3B7ED3707B680122CA
:105938001A6097F9273018462837BD4680BD00BF42
:10594800440A0108880A0108B80A010894200020BE
:10595800F0B58FB004AFF860B9607A60002387F8BB
:105968002730FA68BB6813443B623B6AFB61584BBB
:105978001B887B83564B9B787B76554BDB783B7635
:1059880000237B610023FB743A7E797E7B8B18466B
:10599800FFF7F2FD0346FB74FB7C002B0BD1798BE0
:1059A8007A7E3B7E4B48FDF7D8FF7B6802221A605F
:1059B8006FF0050387E07B8B1846FFF78DFD0346E4
:1059C800002B0CBF01230023DBB2FB74FB7C002BF4
:1059D8000AD17B8B19464048FDF7BFFF7B6802223E
:1059E8001A606FF007036EE0FB695878FB699978D5
:1059F800FB695B681A46FFF71BFE0346FB74FB7CDA
:105A0800002B1BD1798B7A7E387EFB695B781C462C
:105A1800FB699B781D46FB69DB781E46FB695B6862
:105A2800039302960195009403462C48FDF795FFD1
:105A38007B6802221A606FF0010344E0798B7A7E5A
:105A4800387EFB695B781C46FB699B781D46FB69C1
:105A5800DB781E46FB695B68039302960195009408
:105A680003461F48FDF779FF1E4B19687A8B1346CA
:105A78005B001344DB000B4419687A7E1346DB0095
:105A88009B1A9B000B441A683B7EDB0013447B6126
:105A9800FB695A787B691A70FB699A787B695A7036
:105AA800FB69DA787B699A70FB695A687B695A6086
:105AB800074BDB780133DAB2054BDA707B680122D9
:105AC8001A6097F9273018462C37BD46F0BD00BF3D
