:020000040800F2
:1000000000800020E92401087D0101088301010826
:10001000890101088F010108950101080000000015
:10002000000000000000000000000000B5D700083C
:100030009B0101080000000071D7000899D6000854
:100040003925010839250108392501083925010814
:100050003925010839250108392501083925010804
:10006000392501083925010839250108B5E50008B9
:10007000A901010839250108392501083925010898
:100080003925010800000000E9370008392501087A
:1000900039250108392501083925010839250108C4
:1000A00039250108392501083925010839250108B4
:1000B000B901010839250108392501083925010848
:1000C0003925010839250108392501083925010894
:1000D0003925010839250108392501083925010884
:1000E0003925010839250108392501083925010874
:1000F00039250108392501083925010800000000CB
:100100000000000039250108000000003925010821
:1001100039250108000000003925010839250108AA
:100120003925010839250108392501083925010833
:1001300039250108000000000000000039250108F1
:1001400039250108392501080000000000000000E1
:10015000000000000000000000000000000000009F
:100160000000000000000000000000003925010828
:100170003925010800000000000000000000000018
:100180000000000039250108000000000000000008
:10019000000000000000000000000000000000005F
:1001A000000000000000000039250108A1E500085A
:1001B000392501083925010839250108000000000A
:1001C00000000000392501080000000000000000C8
:0801D000392501083925010859
:1001D80081F0004102E000BF83F0004330B54FEAF0
:1001E80041044FEA430594EA050F08BF90EA020F5D
:1001F8001FBF54EA000C55EA020C7FEA645C7FEAF0
:10020800655C00F0E2804FEA5454D4EB5555B8BF12
:100218006D420CDD2C4480EA020281EA030382EA83
:10022800000083EA010180EA020281EA0303362D15
:1002380088BF30BD11F0004F4FEA01314FF4801CE8
:100248004CEA113102D0404261EB410113F0004FFA
:100258004FEA03334CEA133302D0524263EB4303B1
:1002680094EA050F00F0A780A4F10104D5F1200E4F
:100278000DDB02FA0EFC22FA05F2801841F10001AA
:1002880003FA0EF2801843FA05F359410EE0A5F17E
:1002980020050EF1200E012A03FA0EFC28BF4CF0AF
:1002A800020C43FA05F3C01851EBE37101F0004565
:1002B80007D54FF0000EDCF1000C7EEB00006EEB72
:1002C8000101B1F5801F1BD3B1F5001F0CD34908FC
:1002D8005FEA30004FEA3C0C04F101044FEA445253
:1002E80012F5800F80F09A80BCF1004F08BF5FEADA
:1002F800500C50F1000041EB045141EA050130BDBA
:100308005FEA4C0C404141EB0101013C28BFB1F5CB
:10031800801FE9D291F0000F04BF01460020B1FA16
:1003280081F308BF2033A3F10B03B3F120020CDAE9
:100338000C3208DD02F1140CC2F10C0201FA0CF0C7
:1003480021FA02F10CE002F11402D8BFC2F1200C2C
:1003580001FA02F120FA0CFCDCBF41EA0C019040E2
:10036800E41AA2BF01EB0451294330BD6FEA04042B
:100378001F3C1CDA0C340EDC04F11404C4F1200216
:1003880020FA04F001FA02F340EA030021FA04F328
:1003980045EA030130BDC4F10C04C4F1200220FA7F
:1003A80002F001FA04F340EA0300294630BD21FABD
:1003B80004F0294630BD94F0000F83F4801306BF83
:1003C80081F480110134013D4EE77FEA645C18BF77
:1003D8007FEA655C29D094EA050F08BF90EA020F0E
:1003E80005D054EA000C04BF1946104630BD91EA06
:1003F800030F1EBF0021002030BD5FEA545C05D109
:100408004000494128BF41F0004130BD14F5800447
:100418003CBF01F5801130BD01F0004545F0FE41BB
:1004280041F470014FF0000030BD7FEA645C1ABFF0
:10043800194610467FEA655C1CBF0B46024650EA27
:10044800013406BF52EA033591EA030F41F4002153
:1004580030BD00BF90F0000F04BF0021704730B5D9
:100468004FF4806404F132044FF000054FF00001AE
:1004780050E700BF90F0000F04BF0021704730B56F
:100488004FF4806404F1320410F0004548BF404244
:100498004FF000013EE700BF42004FEAE2014FEA99
:1004A80031014FEA02701FBF12F07F4393F07F4F74
:1004B80081F06051704732F07F4208BF704793F077
:1004C8007F4F04BF41F40021704730B54FF460748A
:1004D80001F0004521F000411CE700BF50EA01028D
:1004E80008BF704730B54FF000050AE050EA010236
:1004F80008BF704730B511F0004502D5404261EBA6
:1005080041014FF4806404F132045FEA915C3FF4E6
:10051800D8AE4FF003025FEADC0C18BF03325FEA83
:10052800DC0C18BF033202EBDC02C2F1200300FA34
:1005380003FC20FA02F001FA03FE40EA0E0021FA59
:1005480002F11444BDE600BF70B54FF0FF0C4CF447
:10055800E06C1CEA11541DBF1CEA135594EA0C0FF9
:1005680095EA0C0F00F0DEF82C4481EA030621EA34
:100578004C5123EA4C5350EA013518BF52EA03356F
:1005880041F4801143F4801338D0A0FB02CE4FF021
:100598000005E1FB02E506F00042E0FB03E54FF051
:1005A8000006E1FB03569CF0000F18BF4EF0010E49
:1005B800A4F1FF04B6F5007F64F5407404D25FEA45
:1005C8004E0E6D4146EB060642EAC62141EA5551F8
:1005D8004FEAC52040EA5E504FEACE2EB4F1FD0C3A
:1005E80088BFBCF5E06F1ED8BEF1004F08BF5FEAB8
:1005F800500E50F1000041EB045170BD06F000466A
:1006080046EA010140EA020081EA0301B4EB5C0416
:10061800C2BFD4EB0C0541EA045170BD41F480110E
:100628004FF0000E013C00F3AB8014F1360FDEBF33
:10063800002001F0004170BDC4F10004203C35DA0F
:100648000C341BDC04F11404C4F1200500FA05F392
:1006580020FA04F001FA05F240EA020001F0004233
:1006680021F0004110EBD37021FA04F642EB0601A9
:100678005EEA430E08BF20EAD37070BDC4F10C04D3
:10068800C4F1200500FA04F320FA05F001FA04F297
:1006980040EA020001F0004110EBD37041F1000183
:1006A8005EEA430E08BF20EAD37070BDC4F120058E
:1006B80000FA05F24EEA020E20FA04F301FA05F2F6
:1006C80043EA020321FA04F001F0004121FA04F29E
:1006D80020EA020000EBD3705EEA430E08BF20EA6E
:1006E800D37070BD94F0000F0FD101F000464000A8
:1006F80041EB010111F4801F08BF013CF7D041EA2A
:10070800060195F0000F18BF704703F0004652002D
:1007180043EB030313F4801F08BF013DF7D043EAFE
:100728000603704794EA0C0F0CEA135518BF95EAB4
:100738000C0F0CD050EA410618BF52EA4306D1D13B
:1007480081EA030101F000414FF0000070BD50EA5A
:10075800410606BF1046194652EA430619D094EAE4
:100768000C0F02D150EA013613D195EA0C0F05D1CE
:1007780052EA03361CBF104619460AD181EA030122
:1007880001F0004141F0FE4141F470014FF00000DA
:1007980070BD41F0FE4141F4780170BD70B54FF075
:1007A800FF0C4CF4E06C1CEA11541DBF1CEA1355F5
:1007B80094EA0C0F95EA0C0F00F0A7F8A4EB0504D7
:1007C80081EA030E52EA03354FEA013100F08880CE
:1007D8004FEA03334FF0805545EA131343EA126397
:1007E8004FEA022245EA111545EA10654FEA00264C
:1007F8000EF000419D4208BF964244F1FD0404F505
:10080800407402D25B084FEA3202B61A65EB030560
:100818005B084FEA32024FF480104FF4002CB6EB1D
:10082800020E75EB030E22BFB61A754640EA0C009D
:100838005B084FEA3202B6EB020E75EB030E22BFDD
:10084800B61A754640EA5C005B084FEA3202B6EB1E
:10085800020E75EB030E22BFB61A754640EA9C00DD
:100868005B084FEA3202B6EB020E75EB030E22BFAD
:10087800B61A754640EADC0055EA060E18D04FEA6B
:10088800051545EA16754FEA06164FEAC30343EA0B
:1008980052734FEAC2025FEA1C1CC0D111F4801FD8
:1008A8000BD141EA00014FF000004FF0004CB6E7D1
:1008B80011F4801F04BF01430020B4F1FD0C88BF70
:1008C800BCF5E06F3FF6AFAEB5EB030C04BFB6EB7B
:1008D800020C5FEA500C50F1000041EB045170BD6E
:1008E8000EF0004E4EEA113114EB5C04C2BFD4EB9B
:1008F8000C0541EA045170BD41F480114FF0000E1F
:10090800013C90E645EA060E8DE60CEA135594EA9A
:100918000C0F08BF95EA0C0F3FF43BAF94EA0C0F9D
:100928000AD150EA01347FF434AF95EA0C0F7FF412
:1009380025AF104619462CE795EA0C0F06D152EA66
:1009480003353FF4FDAE1046194622E750EA41064A
:1009580018BF52EA43067FF4C5AE50EA41047FF45B
:100968000DAF52EA43057FF4EBAE12E74FF0FF3CC0
:1009780006E000BF4FF0010C02E000BF4FF0010C91
:100988004DF804CD4FEA410C7FEA6C5C4FEA430C0A
:1009980018BF7FEA6C5C1BD001B050EA410C0CBF59
:1009A80052EA430C91EA030F02BF90EA020F0020BB
:1009B800704710F1000F91EA030F58BF994208BF22
:1009C80090422CBFD8176FEAE37040F001007047DF
:1009D8004FEA410C7FEA6C5C02D150EA013C07D136
:1009E8004FEA430C7FEA6C5CD6D152EA033CD3D081
:1009F8005DF8040B704700BF8446104662468C467B
:100A08001946634600E000BF01B5FFF7B7FF0028AD
:100A180048BF10F1000F01BD4DF808EDFFF7F4FFD6
:100A28000CBF012000205DF808FB00BF4DF808ED61
:100A3800FFF7EAFF34BF012000205DF808FB00BF84
:100A48004DF808EDFFF7E0FF94BF012000205DF8A6
:100A580008FB00BF4DF808EDFFF7CEFF94BF01205B
:100A680000205DF808FB00BF4DF808EDFFF7C4FF54
:100A780034BF012000205DF808FB00BF4FEA410C9D
:100A88007FEA6C5C02D150EA013C0AD14FEA430C80
:100A98007FEA6C5C02D152EA033C02D14FF00000BD
:100AA80070474FF0010070474A0011D212F500124A
:100AB80011D20DD56FF47873B3EB62520ED44FEAAE
:100AC800C12343F0004343EA505323FA02F070472E
:100AD8004FF00000704750EA013002D14FF0FF306C
:100AE80070474FF0000070474FEA4102B2F1E0430F
:100AF80024BFB3F5001CDCF1FE5C0DD901F0004CFD
:100B08004FEAC0024CEA5070B2F1004F40EB83004C
:100B180008BF20F00100704711F0804F21D113F178
:100B28003872BCBF01F00040704741F480114FEAB1
:100B38005252C2F11802C2F1200C10FA0CF320FA3A
:100B480002F018BF40F001004FEAC1234FEAD32357
:100B580003FA0CFC40EA0C0023FA02F34FEA4303C1
:100B6800CCE77FEA625307D150EA01331EBF4FF04A
:100B7800FE4040F44000704701F0004040F0FE4065
:100B880040F40000704700BF53B94AB9002908BFB4
:100B980000281CBF4FF0FF314FF0FF3000F00CB8B9
:100BA800ADF1080C6DE904CE12F01AFADDF804E094
:100BB800DDE9022304B07047704700BF0348044BC7
:100BC800834202D0034B03B118477047CC1300206F
:100BD800CC130020000000000548064B1B1AD90F53
:100BE80001EBA301491002D0034B03B1184770472A
:100BF800CC130020CC1300200000000010B5064CD8
:100C0800237843B9FFF7DAFF044B13B10448AFF375
:100C180000800123237010BDD013002000000000C5
:100C28003033010808B5054B1BB105490548AFF33A
:100C38000080BDE80840FFF7CFBF00BF00000000FC
:100C4800D41300203033010880B483B000AF78603B
:100C58007B68DB6803F44063002B01D1012300E0CB
:100C6800002318460C37BD465DF8047B704780B4F6
:100C780083B000AF786039607B681B6B23F00F028C
:100C88003B681A437B681A6300BF0C37BD465DF8A2
:100C9800047B704780B483B000AF786039607B68AC
:100CA800DB6823F003023B681A437B68DA6000BF05
:100CB8000C37BD465DF8047B704780B483B000AF45
:100CC80078607B68DB6C03F4C073002B01D10123CF
:100CD80000E0002318460C37BD465DF8047B7047DA
:100CE80080B483B000AF78607B689B6823F00043D2
:100CF80023F03F0343F001027B689A6000BF0C3782
:100D0800BD465DF8047B704780B483B000AF78605F
:100D18007B689B6823F0004323F03F0343F0020203
:100D28007B689A6000BF0C37BD465DF8047B70474E
:100D380080B483B000AF78607B689B6803F00103E0
:100D4800012B01D1012300E0002318460C37BD46D2
:100D58005DF8047B704780B483B000AF7860396079
:100D68007B689B6823F0404323F03F033A6802F016
:100D78008042134343F000427B689A6000BF0C37FF
:100D8800BD465DF8047B704780B483B000AF7860DF
:100D98007B689B6803F00043B3F1004F01D1012346
:100DA80000E0002318460C37BD465DF8047B704709
:100DB80080B483B000AF78607B689B6823F0004301
:100DC80023F03F0343F004027B689A6000BF0C37AE
:100DD800BD465DF8047B704780B483B000AF78608F
:100DE8007B689B6823F0004323F03F0343F008022D
:100DF8007B689A6000BF0C37BD465DF8047B70477E
:100E080080B483B000AF78607B681B6803F0400350
:100E1800402B01D1012300E0002318460C37BD46C2
:100E28005DF8047B704780B483B000AF78607B685E
:100E380040221A6000BF0C37BD465DF8047B70473E
:100E480080B483B000AF78607B685B6843F00802C9
:100E58007B685A6000BF0C37BD465DF8047B70475D
:100E680080B483B000AF78607B685B6843F0400271
:100E78007B685A6000BF0C37BD465DF8047B70473D
:100E880080B483B000AF78607B685B6823F00802A9
:100E98007B685A6000BF0C37BD465DF8047B70471D
:100EA80080B483B000AF78607B685B6823F0100281
:100EB8007B685A6000BF0C37BD465DF8047B7047FD
:100EC80080B483B000AF78607B685B6823F0400231
:100ED8007B685A6000BF0C37BD465DF8047B7047DD
:100EE80080B483B000AF78607B685B6823F08002D1
:100EF8007B685A6000BF0C37BD465DF8047B7047BD
:100F080080B483B000AF78607B685B6803F010033F
:100F1800102B01D1012300E0002318460C37BD46F1
:100F28005DF8047B704780B483B000AF78607B685D
:100F38005B6803F08003802B01D1012300E00023CC
:100F480018460C37BD465DF8047B704780B584B001
:100F580000AF78600123FB817B681B691846FFF7A7
:100F6800ACFE0346002B24D07B689B7ADBB2022BB5
:100F78000CD07B689B7ADBB2082B07D07B681B6997
:100F88001846FFF73DFF0346012B12D17B689B7A79
:100F9800DBB2082B03D17B6801229A7202E07B68DE
:100FA80020229A727B681B691846FFF715FF0023F9
:100FB800FB81FB8918461037BD4680BD80B487B0D9
:100FC80000AFF8600B467A607B81FB6880333B6139
:100FD80000237B610DE07B699B003A691344196823
:100FE8007B695B007A6813448AB21A807B69013393
:100FF8007B617B897A699A42EDDB00BF00BF1C37B1
:10100800BD465DF8047B704780B485B000AFF860DA
:10101800B9607A603B6000BF1437BD465DF8047B59
:10102800704780B485B000AFF860B9607A6000BFDF
:101038001437BD465DF8047B704780B584B000AFB7
:1010480078607B681B691846FFF7DAFE0346FB7376
:10105800FB7B012B07D17B681B691846FFF7E3FE72
:101068007B6802229A72FB7B18461037BD4680BD0A
:1010780080B582B000AF78600B46FB70FB78012B1F
:101088000DD17B681B691846FFF7DEFD0346012B6F
:1010980012D07B681B691846FFF78AFE0CE07B6854
:1010A8001B691846FFF709FE0346012B04D07B682D
:1010B8001B691846FFF790FE00BF0837BD4680BD84
:1010C80090B589B002AFF860084611461A46034643
:1010D8007B810B463B811346FB8000237B61FB68C9
:1010E8001B69B3F1A04F01D13A4B7B617B69002B9F
:1010F8006BD0FB681A697B691A617B690022DA7117
:10110800FB88012B61D03B89002B47D07B695B7A38
:10111800DBB2082B42D0FB68DA687B69DA60FB68CF
:101128001A687B691A60FB685A697B695A61FB68AF
:101138009A797B699A71FB681A797B691A717B695C
:101148001B69B96A1846FFF792FD7B89012B21D0EC
:101158007B89042B16D17B691B6903211846FFF78D
:1011680099FD7B6918697B6959697B699B791C467C
:101178007B69DA687B691B68009313462246FFF790
:1011880043FF07E07B89022B04D17B691B69184662
:10119800FFF756FE7B6908225A7216E03B89002B3E
:1011A80013D17B699B7ADBB2082B0ED0FB685A7986
:1011B8007B695A717B89022B04D17B691B691846AC
:1011C800FFF74EFE7B6908229A727B6918461C3726
:1011D800BD4690BDEC13002080B582B000AF7860AA
:1011E8007B681B691846FFF7A3FD0346002B04D153
:1011F8007B681B691846FFF773FD00BF0837BD46BB
:1012080080BD80B586B000AFF8600B467A607B8100
:101218000123FB82FB681B69002B4BD07B89012BC8
:1012280005D1F868FFF792FE0346FB8242E07B890E
:10123800042B24D1FB681B691846FFF73EFD0346C3
:10124800002B37D0FB6801229A72FB681B6918468D
:10125800FFF7C2FD00BFFB689B7ADBB2022BFAD115
:10126800FB681869FB685B799BB27A681946FFF7D7
:10127800A5FEFB6808229A720023FB821AE07B898C
:10128800022B17D1FB689B7ADBB2202B04D0FB68BA
:101298009B7ADBB2022B0DD1FB6808229A72FB689D
:1012A8001869FB685B799BB27A681946FFF786FE76
:1012B8000023FB82FB8A18461837BD4680BD80B5DF
:1012C80082B000AF78600B467B8013463B807B681A
:1012D8001B691846FFF72CFD0346002B04D07B68DA
:1012E8001B691846FFF710FD7B681B691846FFF756
:1012F8001AFE0346002B04D07B681B691846FFF7CB
:10130800EFFD7B681B691846FFF7FAFD0346002BC3
:1013180004D07B681B691846FFF7C2FD3B88002B89
:1013280035D07B88012B1AD07B88022B05D17B68AE
:101338001B691846FFF7A4FD11E07B88042B0ED12A
:101348007B6818697B6859697B689B791A46FFF73F
:1013580068FE7B681B6900211846FFF79BFC7B68C9
:101368000022DA607B6800221A607B6800225A61DA
:101378007B6800229A717B6800221A717B681A695F
:101388007B681B7919461046FFF771FC0AE07B68F9
:1013980000225A717B88022B04D17B681B6918468E
:1013A800FFF78EFD00BF0837BD4680BD80B584B00D
:1013B80000AF78600B46FB707B681B691846FFF727
:1013C800B7FC0346FB7397F90F30012B04D17B68F8
:1013D8001B691846FFF798FCFB78002B0FD17B6838
:1013E8001B697F211846FFF7B6FC00BF7B681B69A5
:1013F8001846FFF7C9FC0346012BF7D040E0FB78FD
:10140800012B0FD17B681B692C491846FFF7A3FCF9
:1014180000BF7B681B691846FFF7B6FC0346012B23
:10142800F7D02DE07B681B697F211846FFF793FCF6
:1014380000BF7B681B691846FFF7A6FC0346012B13
:10144800F7D00023BB8107E000BFBB891BB29BB26A
:1014580001339BB21BB2BB81BB891BB29BB2032B6E
:10146800F2D97B681B6915491846FFF774FC00BF61
:101478007B681B691846FFF787FC0346012BF7D0EA
:101488000023BB8107E000BFBB891BB29BB20133BD
:101498009BB21BB2BB81BB891BB29BB2032BF2D997
:1014A80097F90F30012B04D17B681B691846FFF7A9
:1014B80017FC00BF1037BD4680BD00BF00007F404D
:1014C80080B485B000AF78607B681B6803F0600368
:1014D800FB60FB68002B04D17B681B6803F01003DA
:1014E800FB60FB6818461437BD465DF8047B7047FF
:1014F80080B483B000AF78607B681B6B18460C37EC
:10150800BD465DF8047B704780B483B000AF786057
:1015180039607B681A6A3B681A437B681A6200BFA5
:101528000C37BD465DF8047B704780B483B000AFCC
:10153800786039607B681A6A3B68DB431A407B68CD
:101548001A6200BF0C37BD465DF8047B704780B453
:1015580083B000AF78607B685B6C43F400427B68C3
:101568005A6400BF0C37BD465DF8047B704780B4F1
:1015780083B000AF78607B68DB6843F001027B686A
:10158800DA6000BF0C37BD465DF8047B704780B455
:1015980083B000AF78607B68DB6823F001027B686A
:1015A800DA6000BF0C37BD465DF8047B704780B435
:1015B80083B000AF78607B68DB6803F00103012B20
:1015C80001D1012300E0002318460C37BD465DF821
:1015D800047B704780B483B000AF78607B68DB68B9
:1015E80043F002027B68DA6000BF0C37BD465DF845
:1015F800047B704780B483B000AF78607B68DB6899
:1016080023F002027B68DA6000BF0C37BD465DF844
:10161800047B704780B483B000AF78607B68DB6878
:1016280003F00203022B01D1012300E00023184636
:101638000C37BD465DF8047B704780B483B000AFBB
:1016480078607B68DB6843F004027B68DA6000BF7F
:101658000C37BD465DF8047B704780B483B000AF9B
:1016680078607B68DB6823F004027B68DA6000BF7F
:101678000C37BD465DF8047B704780B483B000AF7B
:1016880078607B68DB6803F00403042B01D1012335
:1016980000E0002318460C37BD465DF8047B704710
:1016A80080B483B000AF78607B68DB6843F00802E1
:1016B8007B68DA6000BF0C37BD465DF8047B704775
:1016C80080B483B000AF78607B68DB6823F00802E1
:1016D8007B68DA6000BF0C37BD465DF8047B704755
:1016E80080B483B000AF78607B68DB6803F00803E0
:1016F800082B01D1012300E0002318460C37BD4612
:101708005DF8047B704780B483B000AF78607B6875
:10171800DB6843F010027B68DA6000BF0C37BD4617
:101728005DF8047B704780B483B000AF78607B6855
:10173800DB6823F010027B68DA6000BF0C37BD4617
:101748005DF8047B704780B483B000AF78607B6835
:10175800DB6803F01003102B01D1012300E0002304
:1017680018460C37BD465DF8047B704780B483B0DB
:1017780000AF78607B68DB6843F020027B68DA6042
:1017880000BF0C37BD465DF8047B704780B483B05A
:1017980000AF78607B68DB6823F020027B68DA6042
:1017A80000BF0C37BD465DF8047B704780B483B03A
:1017B80000AF78607B68DB6803F02003202B01D141
:1017C800012300E0002318460C37BD465DF8047B72
:1017D800704780B483B000AF78607B68DB6843F003
:1017E80040027B68DA6000BF0C37BD465DF8047BB9
:1017F800704780B483B000AF78607B68DB6823F003
:1018080040027B68DA6000BF0C37BD465DF8047B98
:10181800704780B483B000AF78607B68DB6803F002
:101828004003402B01D1012300E0002318460C3768
:10183800BD465DF8047B704780B483B000AF786024
:101848007B68DB6843F080027B68DA6000BF0C3796
:10185800BD465DF8047B704780B483B000AF786004
:101868007B68DB6823F080027B68DA6000BF0C3796
:10187800BD465DF8047B704780B483B000AF7860E4
:101888007B68DB6803F08003802B01D1012300E033
:10189800002318460C37BD465DF8047B704780B4BA
:1018A80083B000AF78607B68DB6843F400027B6834
:1018B800DA6000BF0C37BD465DF8047B704780B422
:1018C80083B000AF78607B68DB6823F400027B6834
:1018D800DA6000BF0C37BD465DF8047B704780B402
:1018E80083B000AF78607B68DB6803F40003B3F56E
:1018F800000F01D1012300E0002318460C37BD4634
:101908005DF8047B704780B483B000AF78607B6873
:10191800DB6843F480027B68DA6000BF0C37BD46A1
:101928005DF8047B704780B483B000AF78607B6853
:10193800DB6823F480027B68DA6000BF0C37BD46A1
:101948005DF8047B704780B483B000AF78607B6833
:10195800DB6803F48003B3F5800F01D1012300E0B5
:10196800002318460C37BD465DF8047B704780B4E9
:1019780083B000AF78607B68DB6843F400127B6853
:10198800DA6000BF0C37BD465DF8047B704780B451
:1019980083B000AF78607B68DB6823F400127B6853
:1019A800DA6000BF0C37BD465DF8047B704780B431
:1019B80083B000AF78607B68DB6803F40013B3F58D
:1019C800001F01D1012300E0002318460C37BD4653
:1019D8005DF8047B704780B483B000AF78607B68A3
:1019E800DB6843F480127B68DA6000BF0C37BD46C1
:1019F8005DF8047B704780B483B000AF78607B6883
:101A0800DB6823F480127B68DA6000BF0C37BD46C0
:101A18005DF8047B704780B483B000AF78607B6862
:101A2800DB6803F48013B3F5801F01D1012300E0C4
:101A3800002318460C37BD465DF8047B704780B517
:101A480082B000AF78600B467B807B8803F001038F
:101A5800002B0CD07B681B681846FFF7DAFE03469C
:101A6800012B04D07B681B681846FFF7B2FE7B8801
:101A780003F00203002B0CD07B681B681846FFF7A5
:101A8800C9FD0346012B04D07B681B681846FFF785
:101A9800A1FD7B8803F00403002B0CD07B681B6836
:101AA8001846FFF7EAFD0346012B04D07B681B6844
:101AB8001846FFF7C2FD7B8803F00803002B0CD003
:101AC8007B681B681846FFF70BFE0346012B04D002
:101AD8007B681B681846FFF7E3FD7B8803F010035B
:101AE800002B0CD07B681B681846FFF72CFE0346BA
:101AF800012B04D07B681B681846FFF704FE7B881F
:101B080003F02003002B0CD07B681B681846FFF7F6
:101B18004EFD0346012B04D07B681B681846FFF76F
:101B280026FD7B8803F04003002B0CD07B681B68E4
:101B38001846FFF7A1FE0346012B04D07B681B68FB
:101B48001846FFF779FE7B8803F08003002B0CD042
:101B58007B681B681846FFF729FE0346012B04D053
:101B68007B681B681846FFF701FE7B8803F48073C7
:101B7800002B0CD07B681B681846FFF74CFF034608
:101B8800012B04D07B681B681846FFF724FF7B886D
:101B980003F40073002B0CD07B681B681846FFF712
:101BA80006FF0346012B04D07B681B681846FFF725
:101BB800DEFE7B8803F48063002B0CD07B681B68F7
:101BC8001846FFF78CFE0346012B04D07B681B6880
:101BD8001846FFF764FE7B8803F40063002B0CD0E3
:101BE8007B681B681846FFF7AEFE0346012B04D03E
:101BF8007B681B681846FFF786FE00BF0837BD469E
:101C080080BD80B582B000AF78600B467B807B8852
:101C180003F00103002B0CD07B681B681846FFF704
:101C2800F8FD0346012B04D17B681B681846FFF7B3
:101C3800E0FD7B8803F00203002B0CD07B681B6857
:101C48001846FFF7E7FC0346012B04D17B681B68A5
:101C58001846FFF7CFFC7B8803F00403002B0CD059
:101C68007B681B681846FFF708FD0346012B04D163
:101C78007B681B681846FFF7F0FC7B8803F00803B5
:101C8800002B0CD07B681B681846FFF729FD03461C
:101C9800012B04D17B681B681846FFF711FD7B8870
:101CA80003F01003002B0CD07B681B681846FFF765
:101CB8004AFD0346012B04D17B681B681846FFF7D1
:101CC80032FD7B8803F02003002B0CD07B681B6857
:101CD8001846FFF76CFC0346012B04D07B681B6891
:101CE8001846FFF754FC7B8803F04003002B0CD008
:101CF8007B681B681846FFF7BFFD0346012B04D11C
:101D08007B681B681846FFF7A7FD7B8803F08003F4
:101D1800002B0CD07B681B681846FFF747FD03466D
:101D2800012B04D17B681B681846FFF72FFD7B88C1
:101D380003F48073002B0CD07B681B681846FFF7F0
:101D48006AFE0346012B04D17B681B681846FFF71F
:101D580052FE7B8803F40073002B0CD07B681B6851
:101D68001846FFF724FE0346012B04D17B681B6845
:101D78001846FFF70CFE7B8803F48063002B0CD019
:101D88007B681B681846FFF7AAFD0346012B04D1A0
:101D98007B681B681846FFF792FD7B8803F4006395
:101DA800002B0CD07B681B681846FFF7CCFD034658
:101DB800012B04D17B681B681846FFF7B4FD00BFF0
:101DC8000837BD4680BD000080B582B000AF78609E
:101DD8000B46FB70FB78022B06D17B681B68012140
:101DE8001846FFF791FB31E07B681B68194A93425C
:101DF80013D07B681B68184A93420ED07B681B6817
:101E0800164A934209D07B681B68154A934204D04E
:101E18007B681B68134A934218D1FB78032B06D1C1
:101E28007B681B6804211846FFF76EFB0EE0FB7801
:101E3800042B0BD17B681B6801211846FFF764FB54
:101E48007B681B6804211846FFF75EFB00BF083754
:101E5800BD4680BD002C01400034014000400140D7
:101E6800004401400048014080B582B000AF78606E
:101E78000B46FB70FB78022B06D17B681B6801219F
:101E88001846FFF752FB31E07B681B68194A9342FA
:101E980013D07B681B68184A93420ED07B681B6876
:101EA800164A934209D07B681B68154A934204D0AE
:101EB8007B681B68134A934218D1FB78032B06D121
:101EC8007B681B6804211846FFF72FFB0EE0FB78A0
:101ED800042B0BD17B681B6801211846FFF725FBF3
:101EE8007B681B6804211846FFF71FFB00BF0837F3
:101EF800BD4680BD002C0140003401400040014037
:101F0800004401400048014080B582B000AF7860CD
:101F18000B46FB70FB78022B06D17B681B681021EF
:101F28001846FFF7F1FA31E07B681B68194A9342BB
:101F380013D07B681B68184A93420ED07B681B68D5
:101F4800164A934209D07B681B68154A934204D00D
:101F58007B681B68134A934218D1FB78032B06D180
:101F68007B681B6840211846FFF7CEFA0EE0FB7825
:101F7800042B0BD17B681B6810211846FFF7C4FAA5
:101F88007B681B6840211846FFF7BEFA00BF083778
:101F9800BD4680BD002C0140003401400040014096
:101FA800004401400048014080B582B000AF78602D
:101FB8000B46FB70FB78022B06D17B681B6810214F
:101FC8001846FFF7B2FA31E07B681B68194A93425A
:101FD80013D07B681B68184A93420ED07B681B6835
:101FE800164A934209D07B681B68154A934204D06D
:101FF8007B681B68134A934218D1FB78032B06D1E0
:102008007B681B6840211846FFF78FFA0EE0FB78C3
:10201800042B0BD17B681B6810211846FFF785FA43
:102028007B681B6840211846FFF77FFA00BF083716
:10203800BD4680BD002C01400034014000400140F5
:10204800004401400048014080B582B000AF78608C
:102058000B46FB70FB78022B07D17B681B684FF49B
:1020680080711846FFF750FA34E07B681B681B4AFA
:10207800934213D07B681B68194A93420ED07B6841
:102088001B68184A934209D07B681B68164A93421A
:1020980004D07B681B68154A93421BD1FB78032B3D
:1020A80007D17B681B684FF480611846FFF72CFA4C
:1020B80010E0FB78042B0DD17B681B684FF480710E
:1020C8001846FFF721FA7B681B684FF480611846B1
:1020D800FFF71AFA00BF0837BD4680BD002C014043
:1020E80000340140004001400044014000480140E4
:1020F80080B582B000AF78600B46FB70FB78022B8E
:1021080007D17B681B684FF480711846FFF70DFAFA
:1021180034E07B681B681B4A934213D07B681B68BA
:10212800194A93420ED07B681B68184A934209D01B
:102138007B681B68164A934204D07B681B68154A63
:1021480093421BD1FB78032B07D17B681B684FF4A4
:1021580080611846FFF7E9F910E0FB78042B0DD1F0
:102168007B681B684FF480711846FFF7DEF97B68BF
:102178001B684FF480611846FFF7D7F900BF08378E
:10218800BD4680BD002C01400034014000400140A4
:10219800004401400048014080B584B000AF786039
:1021A8000023FB607B681B68334A934201D1334BA1
:1021B800FB607B681A68FB681A60FB681B68184636
:1021C800FFF77EF9B860BB68002B06D0BB68102B00
:1021D80003D0FB6801221A7102E0FB6800221A7121
:1021E800FB681B68244A934213D0FB681B68244A87
:1021F80093420ED0FB681B68224A934209D0FB68C1
:102208001B68214A934204D0FB681B681F4A93420B
:1022180004D1FB681B681846FFF799F9FB681B682F
:10222800154A934213D0FB681B68154A93420ED097
:10223800FB681B68134A934209D0FB681B68124A63
:10224800934204D0FB681B68104A934208D17B680C
:102258001B681846FFF74CF90346DAB2FB685A7157
:10226800FB6800229A71FB680022DA71FB68184645
:102278001037BD4680BD00BF002C01400814002067
:102288000034014000400140004401400048014042
:1022980080B485B000AF786039600023FB7397F98C
:1022A8000F3018461437BD465DF8047B70470000B0
:1022B80080B584B000AF786039600023FB727B681A
:1022C800002B05D1374805F035F84FF0FF3365E0AE
:1022D8003B68002B05D1344805F02CF84FF0FF334C
:1022E8005CE0324BD3E900014FF000024FF040436D
:1022F800FEF792FB0346002B06D03B68D3E9002388
:102308002A49C1E9002305E0284BD3E900233968AD
:10231800C1E90023254BD3E900014FF00002244B0B
:10232800FEF77AFB0346002B02D0224805F002F89C
:102338007B685B681B68204A13607B685B685B6826
:102348001E4A13607B685B689B681D4A13607B6844
:102358005B68DB681B4A13601B4B00221A6005F0A0
:102368005BFC0023FB600023FB6007E0174AFB6867
:10237800174942F82310FB680133FB60FB68012B07
:10238800F4D905F093F80346FB7297F90B30002B4C
:1023980002D1104B01221A7097F90B3018461037EA
:1023A800BD4680BD483301086C330108E81200209F
:1023B8000000F0BF98330108581D00205C1D002064
:1023C800601D0020641D0020681D0020941400205A
:1023D800897C0008561D002080B586B000AF786063
:1023E8000023FB7500233B610023FB732A4B1B78FA
:1023F800DBB2002B0CBF01230023DBB2BB73274BDE
:1024080002221A707B68002B0BD1234B1B78DBB29E
:10241800002B06D1224B1B78DBB2002B01D1012304
:1024280000E00023FB7316E00A200BF037F83B6945
:1024380003F51C5310333B617B68B3F1FF3F05D0B4
:102448003A697B689A4201D9012300E00023FB73B3
:10245800002005F079F8104B1B78DBB2002B07D170
:102468000F4B1B78DBB2002B02D1FB7B002BDBD0A0
:102478000A4B03221A70FB7B002B01D09C23FB75AF
:10248800BB7B002B01D005F0F5FC97F917301846F7
:102498001837BD4680BD00BF541D0020561D0020C2
:1024A800551D002080B586B000AF034687ED000BB0
:1024B800FB810023FB750123BB754FF000024FF031
:1024C8000003D7E90001FEF7B1FA0346002B05D057
:1024D8002E4804F02FFF4FF0FF3353E0FB89FF2B0A
:1024E80008D9FB89FF221946294804F023FF4FF039
:1024F800FF3347E0274B1B78DBB2032B04D0254B77
:102508001B78DBB2012B02D1224B04221A70FB8903
:10251800012B15D8FB89204A52F82330002B0FD005
:1025280006F072F803467B757B7D022B08D1FB8988
:10253800194A52F82330FA89104698470346BB7562
:10254800FB897B82FB89184697ED000B04F010FF8E
:10255800BB7D002B06D07B8A184606F02DF8034673
:10256800FB7503E07B8A184606F089F897F917305F
:10257800002B05D097F917301946084804F0DAFE01
:1025880097F9173018461837BD4680BD043401083E
:1025980048340108561D002094140020883401088E
:1025A80080B582B000AF0023FB71002004F0CCFF9F
:1025B8000346FB7197F9073018460837BD4680BDBA
:1025C80080B582B000AF0023FB710B4B06221A7056
:1025D80005F058F80346FB7108220021074810F05F
:1025E80063FE05F0CDFB044B00221A7097F9073003
:1025F80018460837BD4680BD561D0020941400209B
:1026080080B400AF034B1B78DBB21846BD465DF8BB
:10261800047B7047551D002080B400AF034B1B7826
:10262800DBB21846BD465DF8047B70476C1D002080
:1026380080B483B000AF03463960FB7197F9073067
:10264800002B0ADB3B68DAB20C4997F90730120114
:10265800D2B20B4483F800230AE03B68DAB2084997
:10266800FB7903F00F03043B1201D2B20B441A7634
:1026780000BF0C37BD465DF8047B704700E100E001
:1026880000ED00E080B584B000AFF860B9607A6012
:10269800FB68DBB20F3BDBB25BB279681846FFF729
:1026A800C7FF00BF1037BD4680BD80B485B000AFFE
:1026B800EFF310837B607B68FB600123BB60BB6822
:1026C80083F3108800BFFB6818461437BD465DF8D1
:1026D800047B704780B483B000AF0346FB7197F961
:1026E8000730002B0BDBFB7903F01F02074997F932
:1026F80007305B09012000FA02F241F8232000BFED
:102708000C37BD465DF8047B704700BF00E100E070
:1027180080B483B000AF0346FB7197F90730002BF4
:1027280012DBFB7903F01F020A4997F907305B09AE
:10273800012000FA02F2203341F82320BFF34F8F23
:1027480000BFBFF36F8F00BF00BF0C37BD465DF8F9
:10275800047B704700E100E080B483B000AF78608C
:102768007B6840221A6000BF0C37BD465DF8047BC9
:10277800704780B483B000AF78607B685B6803F013
:102788004003402B01D1012300E0002318460C37F9
:10279800BD465DF8047B704780B483B000AF7860B5
:1027A8007B681B6843F001027B681A6000BF0C3726
:1027B800BD465DF8047B704780B483B000AF786095
:1027C8007B681B6823F001027B681A6000BF0C3726
:1027D800BD465DF8047B704780B483B000AF786075
:1027E80039607B681B6823F004023B681A437B68E6
:1027F8001A6000BF0C37BD465DF8047B704780B493
:1028080083B000AF78607B681B6803F00403184648
:102818000C37BD465DF8047B704780B483B000AFC9
:1028280078607B68DB6A18460C37BD465DF8047B28
:10283800704780B483B000AF786039607B683A68CD
:102848001A6300BF0C37BD465DF8047B704780B43F
:1028580083B000AF786039607B683A685A6300BF1C
:102868000C37BD465DF8047B704780B483B000AF79
:10287800786039607B683A689A6300BF0C37BD4658
:102888005DF8047B704780B483B000AF786039602E
:102898007B683A68DA6300BF0C37BD465DF8047B95
:1028A800704780B483B000AF78607B685B6B184674
:1028B8000C37BD465DF8047B704780B483B000AF29
:1028C80078607B689B6B18460C37BD465DF8047BC7
:1028D800704780B483B000AF78607B68DB6B1846C4
:1028E8000C37BD465DF8047B704780B483B000AFF9
:1028F80078607B685B6943F001027B685A6100BFBE
:102908000C37BD465DF8047B704780B483B000AFD8
:1029180078607B681B6918460C37BD465DF8047BF8
:10292800704780B483B000AF786039607B683A68DC
:102938009A6100BF0C37BD465DF8047B704780B4D0
:1029480083B000AF786039607B683A689A6200BFEC
:102958000C37BD465DF8047B7047000080B584B035
:1029680000AF786087ED000AD7ED007AF5EEC07AFF
:10297800F1EE10FA03D54FF000033B600AE0D7ED03
:10298800007A9FED167AF4EEC77AF1EE10FA01DDBF
:10299800134B3B607B681B681846FFF73EFFF860E7
:1029A8007B681B79002B0CBF01230023DBB21A467E
:1029B800FB68134407EE903AB8EE677AD7ED007AD1
:1029C80027EE277ADFED056AC7EE267AFCEEE77A6E
:1029D80017EE903A18461037BD4680BD0000C84231
:1029E8000000C84280B582B000AF786039607B686B
:1029F8001B681846FFF755FF02463B68934205D00F
:102A08007B681B6839681846FFF721FF00BF083745
:102A1800BD4680BD80B582B000AF786039607B6804
:102A28001B681846FFF749FF02463B68934205D0EA
:102A38007B681B6839681846FFF717FF00BF08371F
:102A4800BD4680BD80B582B000AF786039607B68D4
:102A58001B681846FFF73DFF02463B68934205D0C6
:102A68007B681B6839681846FFF70DFF00BF0837F9
:102A7800BD4680BD80B584B000AF786087ED000AA0
:102A880097ED000A7868FFF769FFF860F9687868D9
:102A9800FFF7A8FF00BF1037BD4680BD80B584B0E2
:102AA80000AF786087ED000A97ED000A7868FFF7B5
:102AB80055FFF860F9687868FFF7ACFF00BF10377A
:102AC800BD4680BD80B584B000AF786087ED000A50
:102AD80097ED000A7868FFF741FFF860F9687868B1
:102AE800FFF7B0FF00BF1037BD4680BD80B485B08A
:102AF80000AF78607B681B689A68074B1340FB60DF
:102B0800FB68062B0CBF01230023DBB218461437E1
:102B1800BD465DF8047B70470700010080B584B0AE
:102B280000AF78600B46FB707B681B681846FFF7A0
:102B380066FEF860FB78002B1ED07B681B68324A63
:102B4800934213D07B681B68304A93420ED07B684F
:102B58001B682F4A934209D07B681B682D4A934211
:102B680004D07B681B682C4A934205D17B681B689C
:102B780000211846FFF75DFEFB68042B11D07B6827
:102B88001B6804211846FFF727FE7B681B68184658
:102B9800FFF7ABFE7B681B68F9681846FFF71CFE59
:102BA80004E07B681B681846FFF79FFE7B681B687C
:102BB8001846FFF7F1FDFB78002B20D07B681B68D7
:102BC800114A934213D07B681B68104A93420ED077
:102BD8007B681B680E4A934209D07B681B680D4AC4
:102BE800934204D07B681B680B4A934207D17B68E9
:102BF8001A687B685B7919461046FFF71AFE00BF12
:102C08001037BD4680BD00BF002C01400034014094
:102C180000400140004401400048014080B582B0B6
:102C280000AF78607B681B681846FFF7C5FD00BFDA
:102C38000837BD4680BD000080B483B000AF78601F
:102C4800084B93F84530002B0CBF01230023DAB260
:102C58007B6801331A7000BF0C37BD465DF8047BF2
:102C6800704700BFE01B002080B400AF0A4B93F808
:102C780045200132D2B283F84520074B93F84530FE
:102C8800632B03D9044B002283F8452000BFBD46BF
:102C98005DF8047B704700BFE01B002080B58CB056
:102CA80002AF78607B6800221A727B6801225A6042
:102CB80000237B6200233B737B6A7B614FF0A04358
:102CC800BB610023FB610023BB73002387F820301E
:102CD800012387F821300223BB6002237B7307F1AD
:102CE800080001230093022300220221FEF7E8F9DD
:102CF80002467B68DA607B68DB6800211846FEF7CD
:102D080055FB7B68DB681846FEF766FA7B68DB686C
:102D180000211846FEF7ACF97B6801221A7200BF41
:102D28002837BD4680BD000080B5A6B000AF7860EA
:102D38001D4BBB6000233B7300237B7307F1080323
:102D48001846FFF729FA02467B68DA607B68DB6879
:102D580000211846FEF773FE7B68DB6804211846DD
:102D6800FFF732F87B68DB6804211846FFF7CCF8D8
:102D78007B68DB6804211846FFF766F97B68DB6827
:102D88001846FFF7B3FE034687F8973097F8973051
:102D9800002B05D17B68DB6801211846FFF7BEFED2
:102DA80000BF9837BD4680BD002C014080B586B075
:102DB80000AF87ED010AC7ED000A97ED010A04F09C
:102DC800A2FA0346002B06D197ED000A04F09BFAFD
:102DD8000346002B03D0374B1B687B6161E097EDFE
:102DE800010A04F055FA0346002B33D097ED000A88
:102DF80004F04EFA0346002B2CD0D7ED007AF5EEFE
:102E0800C07AF1EE10FA02DD01233B6102E04FF0D7
:102E1800FF333B61D7ED017AF5EEC07AF1EE10FA97
:102E280002DD0123FB6002E04FF0FF33FB60FB682B
:102E380007EE903AF8EEE77A3B6907EE103AB8EEFB
:102E4800C77AF0EE470AB0EE670A0FF0A9FB87EDE4
:102E5800050A26E0D7ED007AF5EE407AF1EE10FA91
:102E680017D1D7ED017AF5EEC07AF1EE10FA02DD4E
:102E7800114B7B6115E0D7ED017AF5EEC07AF1EEE2
:102E880010FA02D50D4B7B610BE04FF000037B611C
:102E980007E0D7ED000A97ED010A0FF081FB87EDF7
:102EA800050A7B6907EE903AB0EE670A1837BD4607
:102EB80080BD00BFD8120020DB0FC93FDB0FC9BFA0
:102EC80090B585B000AFFFF7CFFE644B93F96F3133
:102ED8007B730023FB737B7B042B1BD801A252F866
:102EE80023F000BF012F0008072F00080D2F00084E
:102EF800132F0008192F00080023FB730AE003238F
:102F0800FB7307E00323FB7304E00023FB7301E07A
:102F18000023FB7397F90F20504B83F86F2150481B
:102F2800FFF7F3FCB860BB6803F40053002B14BF31
:102F380001230023DBB2FB714A4AFB7982F8B235E0
:102F4800464B93F85821474B83F88E25454B93F809
:102F58008E35002B0CBF01230023DBB21A46414BF0
:102F680083F88F253F4B93F8B235002B06D03D4BA5
:102F780093F88F35002B01D0012300E00023DAB24B
:102F8800384B83F89025374B93F89035002B37D082
:102F9800324B93F85A21334B83F8B025314B93F8D1
:102FA800B035002B0CBF01230023DBB21A462D4B92
:102FB80083F8B1252B4B93F8B125284B83F85A2178
:102FC800264B93F96F31BB71BB79BB73BB79042B6B
:102FD80011D801A252F823F0F52F0008FF2F00089E
:102FE800FF2F0008FB2F0008FF2F00080223BB73E8
:102FF80001E00123BB7397F90E20184B83F86F216A
:10300800184B93F8B025154B83F87021154BD3E96D
:1030180014231449C1E90023124BD3F8C033114AD1
:10302800C2F8B4330F4B93F8B2250C4B83F85821F0
:103038000D4B9A6A01329A629B6A1846FDF70AFAA2
:10304800094BD3E90C23084CFDF77EFA02460B46E0
:10305800C4E9082300BF1437BD4690BD601A00209C
:1030680000080048A8140020E01B0020B0B582B07A
:1030780000AF364BD3F830311846FDF7FBF9344B27
:10308800D3E97423FDF7D2FC0346002B08D02F4B5D
:10309800D3F83031002B03DB2D4BD3E9702303E049
:1030A8004FF000024FF000032A49C1E90223274BE1
:1030B800D3F830311846FDF7DDF904460D46244BA8
:1030C800D3E972014FF00002234BFDF785F8024661
:1030D8000B4620462946FDF7BDFC0346002B04D0CD
:1030E8001A4B0022C3F8302106E0184BD3F83031D0
:1030F8000133164AC2F830314FF090433B60154B0C
:10310800D3E902014FF000024FF00003FDF784FC01
:103118000346002B02D120237B6001E000237B6063
:103128007B6819463868FFF7FCFB7B68DB4303F0D4
:10313800200319463868FFF702FC084B9A6B0132E6
:103148009A6300BF0837BD46B0BD00BF601A0020B3
:1031580000000020A81400200000F03FE01B002021
:1031680080B582B000AF964B58220021184610F067
:103178009BF893494FF00002924BC1E91223904902
:103188008DA3D3E90023C1E90C238D4B8E4A9A60A5
:103198008B4B8E4ADA608A4B8D4A1A61884B8D4A6E
:1031A8005A61874B8C4A5A608B4B8C4A1A608B4BFE
:1031B8008B4A1A60894B8A4A5A60884B894A9A60B6
:1031C800864B894ADA60854B884A1A61834B874A5D
:1031D8005A61824B854A9A61804B854ADA617F4BF6
:1031E800844A1A627D4B804A5A627C4B7E4A9A62B4
:1031F8007A4B7D4ADA62794B7B4A1A63774B7A4A73
:103208005A63764B784A9A63744B774ADA63734BFE
:10321800754A1A64714B744A5A64704B724A9A64BC
:103228006E4B714ADA646D4B6F4A1A656B4B6E4A86
:103238005A656A4B704A9A65684B704ADA65674BFB
:103248006F4A1A66654B6F4A5A66644B6E4A9A66AD
:10325800624B6E4ADA66614B634A1A675F4B624A91
:103268005A675E4B604A9A675C4B5F4ADA675B4B0A
:103278005D4AC3F88020594B654AC3F88420574BF0
:10328800644AC3F88820554B634AC3F88C20534BD3
:10329800614AC3F89020514B604AC3F894204F4BC1
:1032A8005F4AC3F898204D4B5E4AC3F89C204B4BAD
:1032B8005D4AC3F8A020494B5B4AC3F8A420474B9A
:1032C800594AC3F8A820454B584AC3F8AC20434B89
:1032D800544AC3F8B020414B434AC3F8B4203F4B8B
:1032E800414AC3F8B8203D4B3F4AC3F8BC203B4B8A
:1032F8003D4AC3F8C020394B3B4AC3F8C420374B7A
:10330800394AC3F8C820354B374AC3F8CC20334B69
:10331800354AC3F8D020314B334AC3F8D4202F4B59
:10332800314AC3F8D8202D4B2F4AC3F8DC202B4B49
:103338002D4AC3F8E020294B2B4AC3F8E420274B39
:10334800294AC3F8E820254B274AC3F8EC20234B29
:10335800254AC3F8F020214B214AC3F8F4201F4B1B
:103368001F4AC3F8F820164A154B5B6818329A6052
:10337800134A134B5B6808325A60114A104B5B685A
:103388002032DA604FF4B762002129480FF08CFF31
:103398004FF4BC72002127480FF086FF264B03F537
:1033A800805393F8B422234B83F87021224BD3E93E
:1033B8007823204942E000BFFCA9F1D24D62503F7A
:1033C800E01B00200000F0BF45A39C1193CA767C47
:1033D800FABDC9D9D74065BC381C00204C1C002058
:1033E800D45B0108CF1B0020BB1B0020CE1B002094
:1033F800CD1B0020CC1B0020CB1B0020CA1B0020AB
:10340800C91B0020C81B0020C71B0020C61B0020AA
:10341800C51B0020C41B0020C01B0020BF1B0020B0
:10342800BE1B0020C11B0020C21B0020C31B0020A4
:10343800A8140020601A002000000020C1E92423FD
:103448006B4BD3E97A236B49C1E926236A4B0122E6
:103458005A71694B03221A70674B03225A70664BE4
:1034680003229A70644B0322DA70634B03221A71A9
:103478005F4B03F5805393F8B3225E4B83F85821D2
:103488005C4B0022C3F83021594B03F5805393F865
:10349800AB22584B83F85A21554B03F5805393F8C8
:1034A800AA22564B83F8B025554B554A9B6AD363DD
:1034B8004F4B03F58053D3F83422504B03F5836305
:1034C8001A604B4B03F58053D3F840224B4B03F55E
:1034D80086631A60464B03F58053D3F86832454A31
:1034E800C2F82C31424B03F58053D3F88832414A55
:1034F800C2F84C313E4BD3E944233E49C1E9082385
:103508003B4BD3E946233B49C1E90A23384BD3E96E
:1035180048233849C1E90C23354BD3E948233549B9
:10352800C1E90E23324BD3E948233249C1E91023BC
:103538002F4BD3E948232F49C1E912232C4BD3E958
:103548004A232C49C1E91423294BD3E94C2329499F
:10355800C1E91623264BD3E952232649C1E918238A
:10356800234BD3E958232349C1E91A23204BD3E934
:103578005A232049C1E91C231D4BD3E95C231D496B
:10358800C1E91E231A4BD3E95E231A49C1E9202356
:10359800174BD3E964231749C1E92223144B03F5D8
:1035A8008053D3F81832134AC2F8B830104B03F5D9
:1035B8008053D3F824320F4AC2F8BC300F4B03F5BE
:1035C80083631B680B4AC2F8C0300A4B002283F899
:1035D8005C210A4B03F586631B68064AC2F8C430AF
:1035E800044B002283F85D2100237B6018E000BFB4
:1035F80000000020601A0020D81B0020A81400201A
:10360800E01B0020464B03F58053D3F8842245493C
:103618007B6832339B000B445A607B6801337B60C4
:103628007B68172BEEDD3F4B0022C3F848213C4B4B
:1036380003F58053D3F864323A4AC2F8C830384B9D
:1036480003F58053B3F98C22374BA3F88825344B04
:1036580003F5805393F8AC22324B83F85921304B51
:10366800D3F81822304B03F244531A602C4BD3F88A
:103678001C222D4B03F5A8631A602A4B00225A60BE
:10368800284B00221A70274B012283F87521254800
:10369800FFF704FB234B00221A74224B012283F804
:1036A8007421204B00221A761E4B01225A611F48B2
:1036B800FFF73AFB1B4B01221A76194BD3F8483215
:1036C800194AC2F8C033164BD3E93E231649C1E95B
:1036D8001423134BD3E93E231349C1E91623114B95
:1036E800012283F876210F4B0122C3F850210D4B9C
:1036F800012283F871210B4B0122C3F85421084B96
:10370800D3E96C230749C1E92423054BD3E96E2388
:103718000449C1E9262300BF0837BD4680BD00BF64
:1037280000000020601A0020A8140020701A002051
:1037380080B500AF214B1B78002B11D11F4B012204
:103748001A701E4B5B68012B0AD11C4B1B7A002B8D
:1037580006D01A4BDB68002202211846FDF7AFFDA0
:10376800164B1B7C002B27D1144B01221A74134BC8
:103778005B69012B20D1114B1B7E002B1CD00F4BFA
:10378800DB691846FFF74AFA0C4BDB69002118463B
:10379800FEF737FA094BDB6904211846FEF764FB8C
:1037A800064BDB6904211846FEF7FEFB034BDB6979
:1037B80004211846FEF79CFC00BF80BD601A00205B
:1037C80080B500AF022204492120FEF75BFF1220DA
:1037D800FEF780FF00BF80BDE93700080000000049
:1037E8002DE9F04FAFB000AFFEF75FFFB8674FF0BD
:1037F800A040FEF7BEFF0346002B07D0CE48FDF7DA
:103808001CFC0346002B01D0012300E00023002B01
:1038180003F093834FF0A040FEF79EFFC74B1B7841
:10382800DBB2012B43F08983C54B93F96E3187F8DE
:103838007730002387F8B73097F87730042B20D8F3
:1038480001A252F823F000BF653800086D3800085F
:10385800753800087D38000885380008002387F887
:10386800B7300EE0032387F8B7300AE0032387F860
:10387800B73006E0002387F8B73002E0002387F866
:10388800B73097F9B730AE4A82F86E31AC4B93F93E
:103898006D3187F87630002387F8B63097F87630A0
:1038A800042B20D801A252F823F000BFC938000821
:1038B800D1380008D9380008E1380008E93800088C
:1038C800002387F8B6300EE0032387F8B6300AE005
:1038D800032387F8B63006E0002387F8B63002E005
:1038E800002387F8B63097F9B630954A82F86D31DB
:1038F800934B93F96C3187F87530002387F8B5300E
:1039080097F87530042B20D801A252F823F000BF95
:103918002D390008353900083D39000845390008B7
:103928004D390008002387F8B5300EE0032387F8E7
:10393800B5300AE0032387F8B53006E0002387F89E
:10394800B53002E0002387F8B53097F9B5307C4AE6
:1039580082F86C317A4B93F96B3187F87430002315
:1039680087F8B43097F87430042B20D801A252F8A5
:1039780023F000BF9139000899390008A1390008DF
:10398800A9390008B1390008002387F8B4300EE0DF
:10399800032387F8B4300AE0032387F8B43006E03D
:1039A800002387F8B43002E0002387F8B43097F991
:1039B800B430634A82F86B31614B93F96A3187F806
:1039C8007330002387F8B33097F87330042B20D86E
:1039D80001A252F823F000BFF5390008FD390008AC
:1039E800053A00080D3A0008153A0008002387F840
:1039F800B3300EE0032387F8B3300AE0032387F8D7
:103A0800B33006E0002387F8B33002E0002387F8DC
:103A1800B33097F9B3304A4A82F86A31484B93F980
:103A2800693187F87230002387F8B23097F872301E
:103A3800042B20D801A252F823F000BF593A0008FD
:103A4800613A0008693A0008713A0008793A0008B2
:103A5800002387F8B2300EE0032387F8B2300AE07B
:103A6800032387F8B23006E0002387F8B23002E07B
:103A7800002387F8B23097F9B230314A82F86931B9
:103A88002F4B93F9683187F87130002387F8B130EC
:103A980097F87130042B20D801A252F823F000BF08
:103AA800BD3A0008C53A0008CD3A0008D53A0008E2
:103AB800DD3A0008002387F8B1300EE0032387F8C9
:103AC800B1300AE0032387F8B13006E0002387F815
:103AD800B13002E0002387F8B13097F9B130184AC5
:103AE80082F86831164B93F9673187F870300023F4
:103AF80087F8B03097F87030042B26D801A252F816
:103B080023F000BF213B0008293B0008313B000897
:103B1800393B00084D3B0008002387F8B03014E01B
:103B2800032387F8B03010E0032387F8B0300CE0A7
:103B3800002387F8B03008E0EC130020531D002064
:103B4800601A0020002387F8B03097F9B030D64AC1
:103B580082F86731D44B93F9663187F86F300023C8
:103B680087F8AF3097F86F30042B20D801A252F8AD
:103B780023F000BF913B0008993B0008A13B0008D7
:103B8800A93B0008B13B0008002387F8AF300EE0DE
:103B9800032387F8AF300AE0032387F8AF3006E045
:103BA800002387F8AF3002E0002387F8AF3097F999
:103BB800AF30BD4A82F86631BB4B93F9653187F85F
:103BC8006E30002387F8AE3097F86E30042B20D87B
:103BD80001A252F823F000BFF53B0008FD3B0008A6
:103BE800053C00080D3C0008153C0008002387F838
:103BF800AE300EE0032387F8AE300AE0032387F8DF
:103C0800AE3006E0002387F8AE3002E0002387F8E4
:103C1800AE3097F9AE30A44A82F86531A24B93F9D9
:103C2800643187F86D30002387F8AD3097F86D3030
:103C3800042B20D801A252F823F000BF593C0008F9
:103C4800613C0008693C0008713C0008793C0008A8
:103C5800002387F8AD300EE0032387F8AD300AE083
:103C6800032387F8AD3006E0002387F8AD3002E083
:103C7800002387F8AD3097F9AD308B4A82F864316C
:103C8800894B93F9633187F86C30002387F8AC309F
:103C980097F86C30042B20D801A252F823F000BF0B
:103CA800BD3C0008C53C0008CD3C0008D53C0008D8
:103CB800DD3C0008002387F8AC300EE0032387F8CA
:103CC800AC300AE0032387F8AC3006E0002387F81D
:103CD800AC3002E0002387F8AC3097F9AC30724A78
:103CE80082F86331704B93F9623187F86B300023A7
:103CF80087F8AB3097F86B30042B20D801A252F824
:103D080023F000BF213D0008293D0008313D00088F
:103D1800393D0008413D0008002387F8AB300EE02C
:103D2800032387F8AB300AE0032387F8AB3006E0BB
:103D3800002387F8AB3002E0002387F8AB3097F90F
:103D4800AB30594A82F86231574B93F9613187F8A1
:103D58006A30002387F8AA3097F86A30042B20D8F5
:103D680001A252F823F000BF853D00088D3D0008F0
:103D7800953D00089D3D0008A53D0008002387F8F3
:103D8800AA300EE0032387F8AA300AE0032387F855
:103D9800AA3006E0002387F8AA3002E0002387F85B
:103DA800AA3097F9AA30404A82F861313E4B93F91C
:103DB800603187F86930002387F8A93097F86930AF
:103DC800042B20D801A252F823F000BFE93D0008D7
:103DD800F13D0008F93D0008013E0008093E0008D1
:103DE800002387F8A9300EE0032387F8A9300AE0FA
:103DF800032387F8A93006E0002387F8A93002E0FA
:103E0800002387F8A93097F9A930274A82F860314A
:103E1800254B93F95F3187F86830002387F8A8307D
:103E280097F86830042B20D801A252F823F000BF7D
:103E38004D3E0008553E00085D3E0008653E0008FE
:103E48006D3E0008002387F8A8300EE0032387F8AA
:103E5800A8300AE0032387F8A83006E0002387F893
:103E6800A83002E0002387F8A83097F9A8300E4A56
:103E780082F85F310C4B93F95E3187F86730002385
:103E880087F8A73097F86730042B22D801A252F898
:103E980023F000BFB53E0008BD3E0008C53E00083F
:103EA800CD3E0008D53E0008601A0020002387F8A0
:103EB800A7300EE0032387F8A7300AE0032387F82A
:103EC800A73006E0002387F8A73002E0002387F830
:103ED800A73097F9A730244A82F85E31224B93F92C
:103EE8005B3187F86630002387F8A63097F866308C
:103EF800042B20D801A252F823F000BF193F000874
:103F0800213F0008293F0008313F0008393F0008D9
:103F1800002387F8A6300EE0032387F8A6300AE0CE
:103F2800032387F8A63006E0002387F8A63002E0CE
:103F3800002387F8A63097F9A6300B4A82F85B3140
:103F48000A4B0A4A9B6AD363094B03F58053B3F8BB
:103F5800A632002B10D0064B03F58053B3F8A032DD
:103F6800044AA2F874350FE0601A0020E01B002014
:103F780000000020A8140020A44B03F58053B3F8D8
:103F8800A232A34AA2F87435A24BD3E92423A0494C
:103F9800C1E904239F4BD3E926239D49C1E90623A0
:103FA8009C4BD86807F130031A460221FDF729F91E
:103FB8003B8EA7F86430964AB7F86430A2F87E358D
:103FC800B7F86420924BC3F868257B8EA7F8643055
:103FD8008F4AB7F86430A2F88035B7F864208C4B64
:103FE800C3F86C258A4BD3F868351846FCF742FAB3
:103FF800874BD3E90423FCF7EFF802460B4610463B
:104008001946834BC3E90801814BD3F86C35184630
:10401800FCF730FA7E4BD3E90623FCF7DDF80246BD
:104028000B46104619467A4BC3E90A01774BD3F879
:104038005C321846FCF730FA754BD3E90823FCF7D5
:1040480083FA02460B46C7E926237149D7E9262396
:10405800C1E90C236D4BD3F860321846FCF71CFA03
:1040680002460B46D7E92601FCF76EFA02460B46D4
:10407800C7E926236649D7E92623C1E91023634BFC
:10408800D3F864321846FCF707FAD7E92623FCF779
:104098005BFA02460B46104619465D4BC3E914010C
:1040A8005A4BD3F85C321846FCF7F6F9584BD3E96B
:1040B8000A23FCF749FA02460B46C7E92623544966
:1040C800D7E92623C1E90E23504BD3F860321846AE
:1040D800FCF7E2F902460B46D7E92601FCF734FA69
:1040E80002460B46C7E926234949D7E92623C1E9F1
:1040F8001223464BD3F864321846FCF7CDF9D7E9BA
:104108002623FCF721FA02460B4610461946404B77
:10411800C3E916013E4BD3E914013D4BD3E91623FD
:10412800FCF75CF802460B4610461946384BD3E9B3
:104138001623FCF753F802460B4610461946344B33
:10414800C3E9BC01314BD3E92C01314BD3E9BC2382
:10415800FCF7FAF902460B46104619462C4BC3E900
:10416800BE012B4BD3E914232949C1E9C023284BAD
:10417800D3E9BE232649C1E9C223244BD3E9400130
:10418800234BD3E9C023FCF7DFF902460B46104660
:1041980019461F4BC3E918011C4BD3E942011C4BBC
:1041A800D3E9C223FCF7D0F902460B46104619465C
:1041B800174BC3E91A01174BD3E908231449C1E97E
:1041C8001C23144BD3E90A231149C1E91E230F4BC1
:1041D80003F58053D3F810321846FCF75DF90C4B01
:1041E800D3E91E23FCF7B0F902460B4610461946E0
:1041F800074BC3E92001074BD3E90C230449C1E964
:104208002223044BD3E90E2306E000BF0000002060
:10421800A8140020601A00208B49C1E924238B4B85
:10422800D3E910238849C1E92623884BD3E912230F
:104238008549C1E92823854B93F87031824A82F871
:104248009135814B93F89135002B0CBF0123002346
:10425800DBB287F863307C4A97F8633082F892358E
:104268007B4B1B78012B0CBF01230023DBB21A46C2
:10427800754B93F892359A4205D0754B1B78032BF2
:1042880001D0012300E0002387F8623097F86230FC
:10429800002B04D16C4B93F89235002B05D06D4B55
:1042A800D3E94A236949C1E91423674B93F8923546
:1042B80087F86130664A97F861301370634BD3E929
:1042C80014236149C1E92A235F4BD3E92A015E4BD4
:1042D800D3E92623FBF780FF02460B461046194612
:1042E800594BC3E92C01584BD3E91C01564BD3E970
:1042F8002023FBF771FF02460B4610461946524B26
:10430800D3E92C23FBF76AFF02460B4610461946F1
:104318004D4BC3E92E014F4BD3E9040146A3D3E922
:104328000023FCF711F902460B461046194644A330
:10433800D3E90023FCF732FA02460B46C7E92623E5
:10434800D7E92601FCF7D0FB0346C7F88C30D7F82D
:104358008C00FCF7A1F83C4BD3E92E23FCF7F4F8CA
:1043680002460B4610461946374BC3E93001384B15
:104378005B78012B0CBF01230023DBB21A46324BBA
:1043880093F892359A4205D0314B5B78032B01D0D4
:10439800012300E0002387F8623097F86230002B91
:1043A80004D1294B93F89235002B05D0294BD3E93A
:1043B8004C232649C1E91623254A97F861305370E2
:1043C800224BD3E916232049C1E932231E4BD3E9F6
:1043D80030011D4BD3E93223FBF700FF02460B46A1
:1043E80010461946184BC3E934011A4BD3E94E015C
:1043F800184BD3E95023FCF737FB0346002B2BD08F
:10440800144BD3E91401134BD3E91223FBF7E4FE51
:1044180002460B46104619460B4BC3E9E2010D4B09
:10442800D3E912230849C1E93623074BD3E9E2232C
:104438000549C1E938231BE09A999999999901404E
:104448002FD66D3D2D5FD13FA8140020601A0020A3
:10445800D81B0020000000208E4BD3E916238E497C
:10446800C1E936238B4BD3E918238B49C1E938239B
:10447800894BD3E93401884BD3E93623FCF764F838
:1044880002460B4610461946834BC3E93A01834B53
:10449800D3E918238049C1E93C237F4BD3E938018C
:1044A8007D4BD3E93C23FCF74FF802460B461046F8
:1044B8001946794BC3E93E01774BD3E93A01764B6C
:1044C800D3E93E23FBF78AFE02460B4610461946FF
:1044D800714BC3E94001704BD3E94023C7E9262358
:1044E8006C4BD3E95423D7E92601FCF7B3FA03460A
:1044F800002B18D1674BD3E9562301210C46D7E985
:104508002601FCF79DFA0346002B01D100231C4627
:10451800E3B283F00103DBB2002B06D05F4B93F8C4
:104528007231002B01D0012300E00023DBB25B4A8B
:1045380082F87231594B93F87231002B08D0554BE1
:1045480003F5805393F8AE32534A82F8933507E067
:10455800504B03F5805393F8AF324F4A82F89335A6
:104568004E4BD3E91A234C49C1E942234B4BD3E9BB
:104578001C234949C1E94423464B03F58053D3F82A
:1045880014321846FBF788FF434BD3E94423FBF763
:10459800DBFF02460B46104619463F4BC3E946016E
:1045A8003F4B9B78012B0CBF01230023DBB21A463B
:1045B800394B93F892359A4205D0394B9B78032BA7
:1045C80001D0012300E0002387F8623097F86230B9
:1045D800002B04D1304B93F89235002B05D02D4B8E
:1045E800D3E95C232D49C1E91E232D4A97F8613090
:1045F80093702A4BD3E91E232749C1E94823264B48
:10460800D3E94801244BD3E92823FBF7E5FD02460B
:104618000B4610461946204BC3E94A011E4BD3E905
:1046280042011D4BD3E94623FBF7D6FD02460B4654
:1046380010461946184BD3E94A23FBF7CFFD02462B
:104648000B4610461946144BC3E94C01D7F88C00A9
:10465800FBF722FF104BD3E94C23FBF775FF02460B
:104668000B46104619460C4BC3E94E010C4BDB7840
:10467800012B0CBF01230023DBB21A46064B93F82B
:1046880092359A420ED0064BDB78032B0AD00123D1
:1046980009E000BF00000020A8140020601A0020D4
:1046A800D81B0020002387F8623097F86230002B6F
:1046B80004D1A14B93F89235002B05D09F4BD3E939
:1046C8005E239F49C1E920239E4A97F86130D37041
:1046D8009B4BD3E920239849C1E95023964BD3E952
:1046E8004E01954BD3E95023FBF778FD02460B4664
:1046F80010461946904BC3E95201904BD3E960012B
:104708008E4BD3E96223FCF7AFF90346002B1BD08D
:104718008A4BD3E91C01894BD3E91A23FBF75CFDCB
:1047280002460B4610461946834BC3E9E001834B0A
:10473800D3E91A238049C1E954237F4BD3E9E02305
:104748007D49C1E956230BE07C4BD3E91E237A4906
:10475800C1E95423794BD3E920237749C1E956238A
:10476800754BD3E95201744BD3E95423FBF7ECFEA4
:1047780002460B46104619466F4BC3E95801704B69
:10478800D3E922236C49C1E95A236B4BD3E956017B
:10479800694BD3E95A23FBF7D7FE02460B4610466E
:1047A8001946654BC3E95C01634BD3E95801624B79
:1047B800D3E95C23FBF712FD02460B461046194667
:1047C8005D4BC3E95E015C4BD3E95E23C7E9262351
:1047D8005A4BD3E96623D7E92601FCF73BF9034690
:1047E800002B18D1554BD3E9682301210C46D7E992
:1047F8002601FCF725F90346002B01D100231C46AE
:10480800E3B283F00103DBB2002B06D04C4B93F8E4
:104818007331002B01D0012300E00023DBB2484AAA
:1048280082F87331464B93F87331002B08D0434B11
:1048380003F5805393F8B0323F4A82F8943507E085
:104848003E4B03F5805393F8B1323B4A82F89435D6
:10485800394B93F89335002B05D03A4B5B79012BF4
:1048680001D0012300E0002387F8623097F8623016
:10487800002B00F0C580304B93F89335002B06D001
:104888002D4B93F89435002B01D0012300E0002331
:10489800DBB2294A82F8AF35274B93F8AF35002BA6
:1048A8005DD0264B93ED0E7BB0EE470AF0EE670A1B
:1048B8000DF016FF87ED260B97ED260B02F00EFD87
:1048C8000346002B06D197ED260B02F0BDFC0346EC
:1048D800002B06D04FF000024FF00003C7E9262353
:1048E80007E09FED131B97ED260B0DF023FE87EDD8
:1048F800260B4FF000024FF00003D7E92601FCF722
:1049080095F80346002B1FD0D7F89830BB62D7F82C
:104918009C3083F00043FB62D7E90A01FCF7C4F836
:1049280003469BB25B429BB21BB214E0AFF300801C
:10493800000000000000F040A81400200000002043
:10494800601A0020D81B0020D7E92601FCF7ACF834
:1049580003469BB21BB2524AA2F888354CE0514B31
:1049680093ED107BB0EE470AF0EE670A0DF0B8FE43
:1049780087ED260B97ED260B02F0B0FC0346002BC3
:1049880006D197ED260B02F05FFC0346002B06D0FC
:104998004FF000024FF00003C7E9262307E09FED20
:1049A8003E1B97ED260B0DF0C5FD87ED260B4FF04E
:1049B80000024FF00003D7E92601FCF737F8034659
:1049C800002B0FD0D7F89850D7F89C3083F00046CA
:1049D80028463146FCF768F803469BB25B429BB217
:1049E8001BB206E0D7E92601FCF75EF803469BB246
:1049F8001BB22B4AA2F888352B4A042382F86E3161
:104A0800274B93F89335294A5371254BB3F98835C9
:104A1800002B16DD224BD3E940233A6283F0004392
:104A28007B621F4B97ED087B83ED607B1C4BD3E9C2
:104A38005E231B49C1E962231B4B042283F86D21C5
:104A480015E0174BD3E95E23BA6183F00043FB619D
:104A5800134B97ED067B83ED627B114BD3E9402323
:104A68000F49C1E96023104B042283F86C210F4BD6
:104A78001B79012B0CBF01230023DBB21A46084B1C
:104A880093F892359A4213D0084B1B79032B0FD019
:104A980001230EE0AFF30080000000000000F040AA
:104AA800A814002000000020601A0020D81B002055
:104AB800002387F8623097F86230002B04D1984BB6
:104AC80093F89235002B07D0964B03F58053D3F813
:104AD8001832954AC2F8B830944A97F86130137181
:104AE800914BD3F8B8308E4AC2F8B8338D4BD3E91E
:104AF80002014FF000028E4BFBF750FE02460B46B8
:104B0800C7E92623D7E92601FBF7EEFF0346844AC7
:104B1800C2F8BC33824BD3E96045814BD3F8BC3330
:104B28001846FBF7B9FC02460B4620462946FBF718
:104B38000BFD02460B467A49C1E9C423784BD3E9F9
:104B48006245774BD3F8B8331846FBF7A5FC024605
:104B58000B4620462946FBF7F7FC02460B467049F0
:104B6800C1E9C6236E4BD3E9C4016D4BD3E9C62313
:104B7800FBF734FB02460B466949C1E9C823684B79
:104B8800D3E96245664BD3F8BC331846FBF784FC7F
:104B980002460B4620462946FBF7D6FC02460B4642
:104BA8005F49C1E9CA235E4BD3E960455C4BD3F842
:104BB800B8331846FBF770FC02460B4620462946D8
:104BC800FBF7C2FC02460B465549C1E9CC23544BBE
:104BD800D3E9CA01524BD3E9CC23FBF7FDFA0246CD
:104BE8000B464F49C1E9CE234D4BD3E9C8231046A4
:104BF8001946FBF779FF0246494B03F5AB631A6088
:104C0800474BD3E9CE2310461946FBF76DFF024602
:104C1800434B03F25C531A60414B03F5AB63D3ED8E
:104C2800007A3F4B03F25C5393ED007AF0EE470AAB
:104C3800B0EE670AFEF7BAF8F0EE407A384B03F5A3
:104C4800AC63C3ED007A364B03F5AC631B681846BA
:104C5800FBF722FC02460B463149C1E9D223314B0E
:104C68001A8E304B03F58053B3F896329A4238D9EE
:104C78002C4BD3E926012A4BD3E9D223FBF764FC5A
:104C880002460B462649C1E9D823254BD3E9D8016A
:104C9800244BD3E92823FBF7DDFE0346002B06D07F
:104CA8001F4BD3E9D8231E49C1E9DA2312E01C4B74
:104CB800D3E9D8011B4BD3E92423FBF78FFA02462B
:104CC8000B461749C1E9DC23154BD3E9DC2314490A
:104CD800C1E9DA23124BD3E9DA231149C1E9D42314
:104CE80005E00F4BD3E9D2230D49C1E9D4230C4B7E
:104CF800D3E9D4230A49C1E9D623094BD3E9D6011C
:104D0800084BD3E92A23FBF7AFFE0346002B11D04B
:104D1800034BD3E9D6230249C1E9D0231DE000BFE4
:104D2800A814002000000020601A0020D81B0020D2
:104D3800000059407E4BD3E9D6017E4BD3E92223AC
:104D4800FBF74CFA02460B467949C1E9DE23784B5A
:104D5800D3E9DE237649C1E9D023764B03F58053A6
:104D6800D3F81C321846FBF797FB714BD3E9D023D5
:104D7800FBF7EAFB02460B4610461946FBF7B4FE62
:104D880003466B4AC2F8C0336B4B93F87021684BEB
:104D980083F89525664B93F89535002B3DD0664BE7
:104DA800D3F84C31624AC2F8AC33624B03F58053F6
:104DB800D3F8783200229A4693465D4BD3F8AC3349
:104DC8000022984691461AEB08033B604BEB090317
:104DD8007B60D7E90034C7E92434D7E92423012BC1
:104DE80005D34FF0FF324FF00003C7E92423D7F86B
:104DF80090304F4AC2F8B0334D4BD3F8B0334E4AD7
:104E0800C2F84C314A4BD3F8B033494AC2F8903310
:104E1800494B042283F86B2113E0464B03F580537A
:104E2800D3F87C32444AC2F84C31424B03F58053E4
:104E3800D3F87C323E4AC2F890333F4B042283F8C1
:104E48006A213B4BD3F890233A4B9B6A9A4294BF12
:104E580001230023DBB21A46354B83F89625344BE1
:104E680093F89635002B0CBF01230023DBB21A46BA
:104E78002F4B83F897252E4BD3F890232D4B03F512
:104E88008053D3F880329A4210D22A4BD3F8043296
:104E9800294AC2F82C31274BD3F80432244AC2F8E5
:104EA800C433254B042283F8692165E0224BD3F8EB
:104EB8002C211F4B03F5A9631A601E4B93ED827AD0
:104EC8001B4B03F5A963D3ED007A77EE277A184BCD
:104ED80003F24C53C3ED007A154B03F24C531B6895
:104EE800C7F88C30134BD3F81032FB65114BD3F84D
:104EF8000C32BB6597ED237AD7ED167AB4EEE77AD4
:104F0800F1EE10FA05DD0A4B03F5AA63BA6D1A60D3
:104F18001AE097ED237AD7ED177AB4EEE77AF1EE37
:104F280010FA0BD5024B03F5AA63FA6D1A600BE071
:104F3800A814002000000020601A0020C24B03F5CE
:104F4800AA63D7F88C201A60BF4B03F5AA631B68C5
:104F5800BE4AC2F82C31BE4B93ED857ABA4B03F5A5
:104F6800AA63D3ED007A67EE277AB74BC3EDF17ADF
:104F7800B64B042283F86821B54B03F5805393EDB3
:104F8800887AB14BD3EDF17A67EE277AAE4BC3ED51
:104F9800F27AAE4BD3F8BC30AB4AC2F8CC33AC4B48
:104FA80003F5805393F8B232002B0CBF0123002382
:104FB800DBB21A46A44B83F89825A34B93F898358F
:104FC800002B00F09380A14B93F859219E4B83F856
:104FD800AE259D4B93F8AE35002B0AD09A4BD3F8EB
:104FE800C823994B03F244531A60984B042283F860
:104FF8006721954B03F2445393ED007A924BD3ED1E
:10500800F37A77EE277A904B03F5A763C3ED007A1E
:105018008D4B03F5A763D3ED007AB0EE670A0DF068
:1050280021FC87ED230A97ED230A02F06CF9034669
:10503800002B06D197ED230A02F02AF90346002B2C
:1050480004D04FF00003C7F88C3007E0DFED810A89
:1050580097ED230A0DF0A6FA87ED230AD7ED237AF8
:10506800F5EEC07AF1EE10FA0CD5D7ED237AF1EE11
:10507800677AFCEEE77A17EE903A9BB25B429BB2F6
:105088001BB207E0D7ED237AFCEEE77A17EE903AE9
:105098009BB21BB26C4AA2F886356B4BB3F98635C6
:1050A80007EE903AF8EEE77A674B03F23C53C3ED0C
:1050B800007A654B03F5A76393ED007A624B03F220
:1050C8003C53D3ED007A77EE677A5F4B03F5A8631C
:1050D800C3ED007A5E4B03F5805393F8AD225B4B2A
:1050E80083F85921594B042283F86621564B93F8CB
:1050F8009735002B06D0544BD3F8C033524AC2F828
:10510800D03315E0524B93ED807A4F4B03F5A863EB
:10511800D3ED007A67EE277A4B4B03F25453C3ED75
:10512800007A494B03F254531B68474AC2F8D033FC
:10513800474B03F5805393ED8A7A434BD3EDF47ACA
:1051480067EE277A404BC3EDF57A3F4B93EDF57A3E
:105158003F4BD3ED937AB4EEE77AF1EE10FA4CBFF9
:1051680001230023DBB21A46374B83F89925364BC7
:1051780093F899359AB2344BA3F87625324BB3F8A5
:105188007635002B68D0304BD3EDF57AB0EE670A50
:105198000DF068FB87ED230A97ED230A02F0B3F8B8
:1051A8000346002B06D197ED230A02F071F8034657
:1051B800002B04D04FF00003C7F88C3007E0DFED78
:1051C800250A97ED230A0DF0EDF987ED230AD7EDAF
:1051D800237AF5EEC07AF1EE10FA0CD5D7ED237AE2
:1051E800F1EE677AFCEEE77A17EE903A9BB25B42F3
:1051F8009BB21BB207E0D7ED237AFCEEE77A17EEF5
:10520800903A9BB21BB2104AA2F884350E4BB3F900
:10521800843507EE903AF8EEE77A0B4B03F5A16375
:10522800C3ED007A084B93EDF57A074B03F5A163BC
:10523800D3ED007A77EE677A034BC3EDF67A034B2A
:10524800042283F8652167E0A8140020601A002072
:105258000000002000008047514BD3EDF57AB0EEF6
:10526800670A0DF047FB87ED230A97ED230A02F042
:105278004AF80346002B06D197ED230A02F008F8F6
:105288000346002B04D04FF00003C7F88C3007E02A
:10529800DFED440A97ED230A0DF084F987ED230A20
:1052A800D7ED237AF5EEC07AF1EE10FA0CD5D7EDEA
:1052B800237AF1EE677AFCEEE77A17EE903A9BB222
:1052C8005B429BB21BB207E0D7ED237AFCEEE77A8C
:1052D80017EE903A9BB21BB2314AA2F88235304B96
:1052E800B3F9823507EE903AF8EEE77A2C4B03F2E1
:1052F8000453C3ED007A2A4B93EDF57A284B03F259
:105308000453D3ED007A77EE677A254BC3EDF67A2E
:10531800254B042283F86421244B03F5805393ED35
:105328008B7A1F4BD3EDF67A67EE277A1C4BC3EDC9
:10533800F77A1B4BD3EDF77AB0EE670A0DF0DAFA7D
:1053480087ED230A97ED230A01F0DDFF0346002BC2
:1053580006D197ED230A01F09BFF0346002B04D0EA
:105368004FF00003C7F88C3007E0DFED0E0A97ED29
:10537800230A0DF017F987ED230AD7ED237AF5EE06
:10538800C07AF1EE10FA13D5D7ED237AF1EE677AE9
:10539800FCEEE77A17EE903A9BB25B429BB20EE0C6
:1053A800A814002000008047601A00200000002098
:1053B800D7ED237AFCEEE77A17EE903A9BB2B24A21
:1053C800A2F87835B14B03F58053B3F98E321A46FB
:1053D800AD4BB3F8783513447B65AB4A7B6DC2F8A7
:1053E80094337B6DA94A9A339B0013441B68A64AE1
:1053F800C2F8E033A54B03F58053B3F990321A464F
:10540800A14BB3F8783513447B659F4A7B6DC2F88E
:1054180098337B6D9D4A9A339B0013441B689A4AC4
:10542800C2F8E433994B03F58053B3F992321A4624
:10543800954BB3F8783513447B65934A7B6DC2F876
:105448009C337B6D914A9A339B0013441B688E4AA8
:10545800C2F8E8338D4B03F58053B3F994321A46FA
:10546800894BB3F8783513447B65874A7B6DC2F85E
:10547800A0337B6D854A9A339B0013441B68824A8C
:10548800C2F8EC33804B93EDF87A7F4BD3EDF97A81
:1054980077EE677A7C4BC3EDFC7A7B4BB3F87835B3
:1054A80007EE903AF8EE677A774BC3EDFD7A764BC4
:1054B80093EDF77A744BD3EDFD7A77EE677A724BFA
:1054C800C3EDFE7A704B93EDFC7A6F4BD3EDFE7A09
:1054D80067EE277A6C4BC3EDFF7A6B4B93EDFF7A3F
:1054E800694BD3EDF97A77EE277A674B03F580633A
:1054F800C3ED007A644B93EDFA7A634BD3EDFB7AF4
:1055080077EE677A604B03F20443C3ED007A5E4B93
:1055180003F2044393ED007A5B4BD3EDFE7A67EE1A
:10552800277A594B03F58163C3ED007A564B03F58F
:10553800816393ED007A544BD3EDFB7A77EE277AAB
:10554800514B03F20C43C3ED007A4F4BD3E91A4594
:105558004D4B03F20C431B681846FAF79DFF0246B1
:105568000B4620462946FAF7EFFF02460B46464906
:10557800C1E9A623444BD3E91845434B03F580639F
:105588001B681846FAF788FF02460B46204629464C
:10559800FAF7DAFF02460B463B49C1E9A8233A4B22
:1055A800D3E9A601384BD3E9A823FAF715FE02463A
:1055B8000B463549C1E9AA23334BD3E91845324B89
:1055C80003F20C431B681846FAF766FF02460B46BF
:1055D80020462946FAF7B8FF02460B462A49C1E990
:1055E800AC23294BD3E91A45274B03F580631B6885
:1055F8001846FAF751FF02460B4620462946FAF7A5
:10560800A3FF02460B462049C1E9AE231E4BD3E94E
:10561800AC011D4BD3E9AE23FAF7E0FD02460B4679
:105628001949C1E9B023194B03F58053B3F89C22FB
:10563800164B03F58053B3F89E329A4228D9124B81
:10564800D3E9AA233A6183F000437B610E4B97EDBF
:10565800047B83EDB27B0C4BD3E9B2231046194689
:10566800FBF742FA0246084B03F20C531A60064B4A
:10567800D3E9B02310461946FBF736FA0246024B27
:1056880003F5A2631A601BE0A814002000000020A4
:10569800A64BD3E9B02310461946FBF725FA024674
:1056A800A24B03F20C531A60A04BD3E9AA2310466D
:1056B8001946FBF719FA02469C4B03F5A2631A60D8
:1056C8009A4B03F20C531A68984B03F214531A605E
:1056D800964B03F5A2631A68944B03F5A3631A600B
:1056E800934B93ED967A914B03F5A363D3ED007A30
:1056F80077EE677A8D4B03F58263C3ED007A8B4BA7
:1057080003F5826393ED007A894B03F58053D3ED5B
:105718008C7A67EE277A854B03F21443C3ED007A3F
:10572800844B93F87021814B83F89A257F4A97F828
:10573800633082F89B357E4B03F58053D3F83422CF
:105748007A4B03F583631A60784B93F89B35002BEB
:1057580004D1784B93F95C31002B06D0734B03F5D9
:1057680083631B68734AC2F8C030724BD3F8C020F9
:105778006E4B03F21C431A606C4B03F2144393ED17
:10578800007A6A4B03F21C43D3ED007A77EE277A4E
:10579800664B03F58463C3ED007A644B03F58463B9
:1057A8001B68C7F88C30624B9B69FB65604B1B6AB2
:1057B800BB6597ED237AD7ED167AB4EEE77AF1EE6A
:1057C80010FA05DD594B03F22443BA6D1A6014E050
:1057D80097ED237AD7ED177AB4EEE77AF1EE10FA5F
:1057E80005D5524B03F22443FA6D1A6005E04F4B7E
:1057F80003F22443D7F88C201A604D4B03F58053ED
:1058080093ED8F7A494B03F21453D3ED007A77EE78
:10581800677A464B03F58563C3ED007A434B03F57E
:10582800856393ED007A424B03F58053D3ED8C7A70
:1058380067EE277A3D4B03F22C43C3ED007A3B4ACF
:1058480097F8633082F89C35394B03F58053D3F8C9
:105858004022364B03F586631A60344B93F89C3527
:10586800002B04D1334B93F95D31002B06D02F4B1D
:1058780003F586631B682F4AC2F8C4302D4BD3F852
:10588800C4202A4B03F234431A60284B03F22C43FA
:1058980093ED007A254B03F23443D3ED007A77EE8B
:1058A800277A224B03F58763C3ED007A1F4B03F574
:1058B80087631B68C7F88C301D4BDB69FB651C4B85
:1058C8005B6ABB6597ED237AD7ED167AB4EEE77A73
:1058D800F1EE10FA05DD154B03F23C43BA6D1A6080
:1058E80014E097ED237AD7ED177AB4EEE77AF1EE64
:1058F80010FA05D50D4B03F23C43FA6D1A6005E02A
:105908000A4B03F23C43D7F88C201A60084B03F586
:105918008053B3F8A832002B0ED0054BD3F83822A9
:10592800024B03F588631A600DE000BFA81400203D
:1059380000000020601A0020B04BD3F83C22B04B86
:1059480003F588631A60AE4B03F5886393ED007A1C
:10595800AB4B03F58863D3ED007A67EE277AA84B43
:1059680003F24443C3ED007AA54B03F23C4393EDA5
:10597800007AA34B03F23C43D3ED007A67EE277A13
:105988009F4B03F58963C3ED007A9D4B03F22443D3
:1059980093ED007A9A4B03F22443D3ED007A67EE35
:1059A800277A974B03F24C43C3ED007A944B03F5E7
:1059B800896393ED007A924B03F24C43D3ED007A5E
:1059C80077EE277A8E4B03F58A63C3ED007A8C4B0A
:1059D800B3F87435012B05D0894BB3F87435022B15
:1059E80040F0C081864BB3F87425844B9B8D9A4256
:1059F8000CBF01230023DBB21A46814B83F8A9258B
:105A08007F4BB3F874257D4BDB8D9A420CBF012385
:105A18000023DBB21A467A4B83F8AA25784B93F811
:105A2800A935002B10D0764B03F23C431A68744B0F
:105A380003F2D4431A60724B03F224431A68704B82
:105A480003F59B631A600FE06D4B03F224431A6859
:105A58006B4B03F2D4431A60694B03F23C431A6858
:105A6800674B03F59B631A60654B03F2D44393EDD0
:105A7800007A634B03F58863D3ED007AB4EEE77AD6
:105A8800F1EE10FACCBF01230023DBB21A465C4BBF
:105A980083F8AB255A4B93F8AB35002B08D0584BFD
:105AA80003F588631A68564B03F2DC431A6042E038
:105AB800524B93ED8C7A524B03F58863D3ED007A01
:105AC80067EE277A4E4B03F59E63C3ED007A4C4B85
