:020000040800F2
:1000000000800120F1FB000863DC000869DC0008C7
:100010006FDC000875DC00087BDC000800000000D5
:1000200000000000000000000000000001B6000811
:1000300081DC000800000000BDB50008E5B4000840
:1000400041FC000841FC000841FC000841FC00089C
:1000500041FC000841FC000841FC000841FC00088C
:1000600041FC000841FC000841FC000841FC00087C
:1000700041FC000841FC000841FC000841FC00086C
:100080006DC3000841FC0008D13C000800000000DE
:1000900000000000000000000000000041FC00081B
:1000A00041FC000841FC000841FC000841FC00083C
:1000B00041FC000841FC000841FC000841FC00082C
:1000C00041FC000841FC000841FC000841FC00081C
:1000D00041FC000841FC000859C300080000000072
:1000E00041FC000841FC000841FC00080000000041
:1000F00000000000000000000000000041FC0008BB
:100100000000000041FC000891DC000841FC0008F0
:1001100000000000000000000000000000000000DF
:10012000A5DC000841FC000841FC000841FC000877
:1001300041FC00080000000000000000000000007A
:1001400000000000000000000000000041FC00086A
:1001500041FC000841FC000841FC000841FC00088B
:1001600041FC000841FC0008000000000000000005
:10017000000000000000000000000000000000007F
:100180000000000041FC000800000000000000002A
:0401900041FC000826
:1001980081F0004102E000BF83F0004330B54FEA30
:1001A80041044FEA430594EA050F08BF90EA020F9D
:1001B8001FBF54EA000C55EA020C7FEA645C7FEA30
:1001C800655C00F0E2804FEA5454D4EB5555B8BF53
:1001D8006D420CDD2C4480EA020281EA030382EAC4
:1001E800000083EA010180EA020281EA0303362D56
:1001F80088BF30BD11F0004F4FEA01314FF4801C29
:100208004CEA113102D0404261EB410113F0004F3A
:100218004FEA03334CEA133302D0524263EB4303F1
:1002280094EA050F00F0A780A4F10104D5F1200E8F
:100238000DDB02FA0EFC22FA05F2801841F10001EA
:1002480003FA0EF2801843FA05F359410EE0A5F1BE
:1002580020050EF1200E012A03FA0EFC28BF4CF0EF
:10026800020C43FA05F3C01851EBE37101F00045A5
:1002780007D54FF0000EDCF1000C7EEB00006EEBB2
:100288000101B1F5801F1BD3B1F5001F0CD349083C
:100298005FEA30004FEA3C0C04F101044FEA445293
:1002A80012F5800F80F09A80BCF1004F08BF5FEA1A
:1002B800500C50F1000041EB045141EA050130BDFA
:1002C8005FEA4C0C404141EB0101013C28BFB1F50C
:1002D800801FE9D291F0000F04BF01460020B1FA57
:1002E80081F308BF2033A3F10B03B3F120020CDA2A
:1002F8000C3208DD02F1140CC2F10C0201FA0CF008
:1003080021FA02F10CE002F11402D8BFC2F1200C6C
:1003180001FA02F120FA0CFCDCBF41EA0C01904022
:10032800E41AA2BF01EB0451294330BD6FEA04046B
:100338001F3C1CDA0C340EDC04F11404C4F1200256
:1003480020FA04F001FA02F340EA030021FA04F368
:1003580045EA030130BDC4F10C04C4F1200220FABF
:1003680002F001FA04F340EA0300294630BD21FAFD
:1003780004F0294630BD94F0000F83F4801306BFC3
:1003880081F480110134013D4EE77FEA645C18BFB7
:100398007FEA655C29D094EA050F08BF90EA020F4E
:1003A80005D054EA000C04BF1946104630BD91EA46
:1003B800030F1EBF0021002030BD5FEA545C05D149
:1003C8004000494128BF41F0004130BD14F5800488
:1003D8003CBF01F5801130BD01F0004545F0FE41FC
:1003E80041F470014FF0000030BD7FEA645C1ABF31
:1003F800194610467FEA655C1CBF0B46024650EA68
:10040800013406BF52EA033591EA030F41F4002193
:1004180030BD00BF90F0000F04BF0021704730B519
:100428004FF4806404F132044FF000054FF00001EE
:1004380050E700BF90F0000F04BF0021704730B5AF
:100448004FF4806404F1320410F0004548BF404284
:100458004FF000013EE700BF42004FEAE2014FEAD9
:1004680031014FEA02701FBF12F07F4393F07F4FB4
:1004780081F06051704732F07F4208BF704793F0B7
:100488007F4F04BF41F40021704730B54FF46074CA
:1004980001F0004521F000411CE700BF50EA0102CD
:1004A80008BF704730B54FF000050AE050EA010276
:1004B80008BF704730B511F0004502D5404261EBE6
:1004C80041014FF4806404F132045FEA915C3FF427
:1004D800D8AE4FF003025FEADC0C18BF03325FEAC4
:1004E800DC0C18BF033202EBDC02C2F1200300FA75
:1004F80003FC20FA02F001FA03FE40EA0E0021FA9A
:1005080002F11444BDE600BF70B54FF0FF0C4CF487
:10051800E06C1CEA11541DBF1CEA135594EA0C0F39
:1005280095EA0C0F00F0DEF82C4481EA030621EA74
:100538004C5123EA4C5350EA013518BF52EA0335AF
:1005480041F4801143F4801338D0A0FB02CE4FF061
:100558000005E1FB02E506F00042E0FB03E54FF091
:100568000006E1FB03569CF0000F18BF4EF0010E89
:10057800A4F1FF04B6F5007F64F5407404D25FEA85
:100588004E0E6D4146EB060642EAC62141EA555138
:100598004FEAC52040EA5E504FEACE2EB4F1FD0C7A
:1005A80088BFBCF5E06F1ED8BEF1004F08BF5FEAF8
:1005B800500E50F1000041EB045170BD06F00046AA
:1005C80046EA010140EA020081EA0301B4EB5C0457
:1005D800C2BFD4EB0C0541EA045170BD41F480114F
:1005E8004FF0000E013C00F3AB8014F1360FDEBF74
:1005F800002001F0004170BDC4F10004203C35DA50
:100608000C341BDC04F11404C4F1200500FA05F3D2
:1006180020FA04F001FA05F240EA020001F0004273
:1006280021F0004110EBD37021FA04F642EB0601E9
:100638005EEA430E08BF20EAD37070BDC4F10C0413
:10064800C4F1200500FA04F320FA05F001FA04F2D7
:1006580040EA020001F0004110EBD37041F10001C3
:100668005EEA430E08BF20EAD37070BDC4F12005CE
:1006780000FA05F24EEA020E20FA04F301FA05F236
:1006880043EA020321FA04F001F0004121FA04F2DE
:1006980020EA020000EBD3705EEA430E08BF20EAAE
:1006A800D37070BD94F0000F0FD101F000464000E8
:1006B80041EB010111F4801F08BF013CF7D041EA6A
:1006C800060195F0000F18BF704703F0004652006E
:1006D80043EB030313F4801F08BF013DF7D043EA3F
:1006E8000603704794EA0C0F0CEA135518BF95EAF5
:1006F8000C0F0CD050EA410618BF52EA4306D1D17C
:1007080081EA030101F000414FF0000070BD50EA9A
:10071800410606BF1046194652EA430619D094EA24
:100728000C0F02D150EA013613D195EA0C0F05D10E
:1007380052EA03361CBF104619460AD181EA030162
:1007480001F0004141F0FE4141F470014FF000001A
:1007580070BD41F0FE4141F4780170BD70B54FF0B5
:10076800FF0C4CF4E06C1CEA11541DBF1CEA135535
:1007780094EA0C0F95EA0C0F00F0A7F8A4EB050417
:1007880081EA030E52EA03354FEA013100F088800E
:100798004FEA03334FF0805545EA131343EA1263D7
:1007A8004FEA022245EA111545EA10654FEA00268C
:1007B8000EF000419D4208BF964244F1FD0404F545
:1007C800407402D25B084FEA3202B61A65EB0305A1
:1007D8005B084FEA32024FF480104FF4002CB6EB5E
:1007E800020E75EB030E22BFB61A754640EA0C00DE
:1007F8005B084FEA3202B6EB020E75EB030E22BF1E
:10080800B61A754640EA5C005B084FEA3202B6EB5E
:10081800020E75EB030E22BFB61A754640EA9C001D
:100828005B084FEA3202B6EB020E75EB030E22BFED
:10083800B61A754640EADC0055EA060E18D04FEAAB
:10084800051545EA16754FEA06164FEAC30343EA4B
:1008580052734FEAC2025FEA1C1CC0D111F4801F18
:100868000BD141EA00014FF000004FF0004CB6E711
:1008780011F4801F04BF01430020B4F1FD0C88BFB0
:10088800BCF5E06F3FF6AFAEB5EB030C04BFB6EBBB
:10089800020C5FEA500C50F1000041EB045170BDAE
:1008A8000EF0004E4EEA113114EB5C04C2BFD4EBDB
:1008B8000C0541EA045170BD41F480114FF0000E5F
:1008C800013C90E645EA060E8DE60CEA135594EADB
:1008D8000C0F08BF95EA0C0F3FF43BAF94EA0C0FDE
:1008E8000AD150EA01347FF434AF95EA0C0F7FF453
:1008F80025AF104619462CE795EA0C0F06D152EAA7
:1009080003353FF4FDAE1046194622E750EA41068A
:1009180018BF52EA43067FF4C5AE50EA41047FF49B
:100928000DAF52EA43057FF4EBAE12E74FF0FF3C00
:1009380006E000BF4FF0010C02E000BF4FF0010CD1
:100948004DF804CD4FEA410C7FEA6C5C4FEA430C4A
:1009580018BF7FEA6C5C1BD001B050EA410C0CBF99
:1009680052EA430C91EA030F02BF90EA020F0020FB
:10097800704710F1000F91EA030F58BF994208BF62
:1009880090422CBFD8176FEAE37040F0010070471F
:100998004FEA410C7FEA6C5C02D150EA013C07D176
:1009A8004FEA430C7FEA6C5CD6D152EA033CD3D0C1
:1009B8005DF8040B704700BF8446104662468C46BB
:1009C8001946634600E000BF01B5FFF7B7FF0028EE
:1009D80048BF10F1000F01BD4DF808EDFFF7F4FF17
:1009E8000CBF012000205DF808FB00BF4DF808EDA2
:1009F800FFF7EAFF34BF012000205DF808FB00BFC5
:100A08004DF808EDFFF7E0FF94BF012000205DF8E6
:100A180008FB00BF4DF808EDFFF7CEFF94BF01209B
:100A280000205DF808FB00BF4DF808EDFFF7C4FF94
:100A380034BF012000205DF808FB00BF4FEA410CDD
:100A48007FEA6C5C02D150EA013C0AD14FEA430CC0
:100A58007FEA6C5C02D152EA033C02D14FF00000FD
:100A680070474FF0010070474FEA410212F500123B
:100A780015D211D56FF47873B3EB625212D94FEADD
:100A8800C12343F0004343EA505311F0004F23FAC7
:100A980002F018BF404270474FF00000704750EA1C
:100AA800013005D111F0004008BF6FF000407047D9
:100AB8004FF00000704700BF4A0011D212F5001233
:100AC80011D20DD56FF47873B3EB62520ED44FEA9E
:100AD800C12343F0004343EA505323FA02F070471E
:100AE8004FF00000704750EA013002D14FF0FF305C
:100AF80070474FF0000070474FEA4102B2F1E043FF
:100B080024BFB3F5001CDCF1FE5C0DD901F0004CEC
:100B18004FEAC0024CEA5070B2F1004F40EB83003C
:100B280008BF20F00100704711F0804F21D113F168
:100B38003872BCBF01F00040704741F480114FEAA1
:100B48005252C2F11802C2F1200C10FA0CF320FA2A
:100B580002F018BF40F001004FEAC1234FEAD32347
:100B680003FA0CFC40EA0C0023FA02F34FEA4303B1
:100B7800CCE77FEA625307D150EA01331EBF4FF03A
:100B8800FE4040F44000704701F0004040F0FE4055
:100B980040F40000704700BF53B94AB9002908BFA4
:100BA80000281CBF4FF0FF314FF0FF3000F00CB8A9
:100BB800ADF1080C6DE904CE10F0ECFCDDF804E0B2
:100BC800DDE9022304B07047704700BF0348044BB7
:100BD800834202D0034B03B11847704738240020E2
:100BE80038240020000000000548064B1B1AD90FC6
:100BF80001EBA301491002D0034B03B1184770471A
:100C080038240020382400200000000010B5064CCD
:100C1800237843B9FFF7DAFF044B13B10448AFF365
:100C280000800123237010BD38240020000000003C
:100C3800E418010808B5054B1BB105490548AFF391
:100C48000080BDE80840FFF7CFBF00BF00000000EC
:100C58003C240020E418010880B483B000AF786019
:100C680039607B68DB6A23F470023B681A437B684F
:100C7800DA6200BF0C37BD465DF8047B704780B46C
:100C880083B000AF786039607B689B6823F440725A
:100C98003B681A437B689A6000BF0C37BD465DF815
:100CA800047B704780B483B000AF78607B689B6832
:100CB80003F44013002B0CBF01230023DBB21846BA
:100CC8000C37BD465DF8047B704780B483B000AF35
:100CD80078607B689B6843F001027B689A6000BF7C
:100CE8000C37BD465DF8047B704780B483B000AF15
:100CF80078607B689B6823F001027B689A6000BF7C
:100D08000C37BD465DF8047B704780B483B000AFF4
:100D180078607B689B6803F00103012B0CBF0123FB
:100D28000023DBB218460C37BD465DF8047B7047DC
:100D380080B483B000AF78607B689B6843F480021E
:100D48007B689A6000BF0C37BD465DF8047B70472E
:100D580080B483B000AF78607B681B6803F004033D
:100D6800042B0CBF01230023DBB218460C37BD4609
:100D78005DF8047B704780B483B000AF78607B680F
:100D88006FF004021A6000BF0C37BD465DF8047BA3
:100D9800704780B483B000AF78607B685B6843F0CD
:100DA80020027B685A6000BF0C37BD465DF8047BA3
:100DB800704780B483B000AF78607B685B6843F0AD
:100DC80080027B685A6000BF0C37BD465DF8047B23
:100DD800704780B483B000AF78607B685B6823F0AD
:100DE80020027B685A6000BF0C37BD465DF8047B63
:100DF800704780B483B000AF78607B685B6823F08D
:100E080080627B685A6000BF0C37BD465DF8047B82
:100E1800704780B483B000AF78607B685B6823F06C
:100E280080027B685A6000BF0C37BD465DF8047BC2
:100E3800704780B483B000AF78607B685B6823F04C
:100E480040027B685A6000BF0C37BD465DF8047BE2
:100E5800704780B483B000AF78607B685B6803F04C
:100E68008063B3F1806F0CBF01230023DBB2184607
:100E78000C37BD465DF8047B704780B483B000AF83
:100E880078607B685B6803F04003402B0CBF01234C
:100E98000023DBB218460C37BD465DF8047B70476B
:100EA80080B584B000AF78600123FB817B681B6943
:100EB8001846FFF7F7FE0346002B24D07B689B7A81
:100EC800DBB2022B0CD07B689B7ADBB2082B07D0F5
:100ED8007B681B691846FFF73BFF0346012B12D1BD
:100EE8007B689B7ADBB2082B03D17B6801229A725C
:100EF80002E07B6820229A727B681B691846FFF71C
:100F080017FF0023FB81FB8918461037BD4680BDBB
:100F180080B487B000AFF8600B467A607B81FB68CD
:100F28003C333B6100237B610DE07B699B003A69A0
:100F3800134419687B695B007A6813448AB21A8083
:100F48007B6901337B617B897A699A42EDDB00BF5B
:100F580000BF1C37BD465DF8047B704780B485B080
:100F680000AFF860B9607A603B6000BF1437BD46D7
:100F78005DF8047B704780B485B000AFF860B96055
:100F88007A6000BF1437BD465DF8047B704780B5B2
:100F980084B000AF78607B681B691846FFF7D8FEFD
:100FA8000346FB73FB7B012B07D17B681B69184643
:100FB800FFF7E1FE7B6802229A72FB7B1846103726
:100FC800BD4680BD80B483B000AF78600B46FB702F
:100FD80000BF0C37BD465DF8047B704790B589B0FB
:100FE80002AFF860084611461A4603467B810B4655
:100FF8003B811346FB8000237B61FB681B693D4AEC
:10100800934201D13C4B7B617B69002B6CD0FB6820
:101018001A697B691A617B690022DA71FB88012BE6
:1010280062D03B89002B48D07B695B7ADBB2082B06
:1010380043D0FB68DA687B69DA60FB681A687B6909
:101048001A60FB685A697B695A61FB689A797B69FF
:101058009A71FB681A797B691A717B691B69B96A8D
:101068001846FFF7F9FD7B89012B22D07B89042BD9
:1010780017D17B691B694FF440711846FFF7FFFDD4
:101088007B6918697B6959697B699B791C467B690F
:10109800DA687B691B68009313462246FFF75EFFF8
:1010A80007E07B89022B04D17B691B691846FFF78F
:1010B80070FE7B6908225A7216E03B89002B13D117
:1010C8007B699B7ADBB2082B0ED0FB685A797B6967
:1010D8005A717B89022B04D17B691B691846FFF77B
:1010E80068FE7B6908229A727B6918461C37BD46E0
:1010F80090BD00BF002001405424002080B582B07C
:1011080000AF78607B681B691846FFF7FEFD034651
:10111800002B04D17B681B691846FFF7D6FD00BF7A
:101128000837BD4680BD80B586B000AFF8600B4675
:101138007A607B810123FB82FB681B69002B4BD003
:101148007B89012B05D1F868FFF7AAFE0346FB82CD
:1011580042E07B89042B24D1FB681B691846FFF702
:10116800A1FD0346002B37D0FB6801229A72FB6869
:101178001B691846FFF7DCFD00BFFB689B7ADBB2F2
:10118800022BFAD1FB681869FB685B799BB27A6815
:101198001946FFF7BDFEFB6808229A720023FB82FE
:1011A8001AE07B89022B17D1FB689B7ADBB2202BD4
:1011B80004D0FB689B7ADBB2022B0DD1FB680822B6
:1011C8009A72FB681869FB685B799BB27A68194662
:1011D800FFF79EFE0023FB82FB8A18461837BD46A0
:1011E80080BD80B582B000AF78600B467B80134627
:1011F8003B807B681B691846FFF787FD0346002B79
:1012080004D07B681B691846FFF76FFD7B681B6974
:101218001846FFF732FE0346002B04D07B681B6993
:101228001846FFF706FE7B681B691846FFF711FE94
:101238000346002B04D07B681B691846FFF7D9FDCD
:101248003B88002B35D07B88012B1AD07B88022B5A
:1012580005D17B681B691846FFF7BBFD11E07B8849
:10126800042B0ED17B6818697B6859697B689B7968
:101278001A46FFF780FE7B681B6900211846FFF7B6
:10128800FEFC7B680022DA607B6800221A607B68BB
:1012980000225A617B6800229A717B6800221A71C9
:1012A8007B681A697B681B7919461046FFF7D4FCDE
:1012B8000AE07B6800225A717B88022B04D17B6884
:1012C8001B691846FFF7A5FD00BF0837BD4680BD5E
:1012D80080B485B000AF78607B681B6803F060035A
:1012E800FB60FB68002B04D17B681B6803F01003CC
:1012F800FB60FB6818461437BD465DF8047B7047F1
:1013080080B483B000AF78607B681B6B18460C37DD
:10131800BD465DF8047B704780B483B000AF786049
:1013280039607B681A6A3B681A437B681A6200BF97
:101338000C37BD465DF8047B704780B483B000AFBE
:10134800786039607B681A6A3B68DB431A407B68BF
:101358001A6200BF0C37BD465DF8047B704780B445
:1013680083B000AF78607B685B6C43F400427B68B5
:101378005A6400BF0C37BD465DF8047B704780B4E3
:1013880083B000AF78607B68DB6843F001027B685C
:10139800DA6000BF0C37BD465DF8047B704780B447
:1013A80083B000AF78607B68DB6823F001027B685C
:1013B800DA6000BF0C37BD465DF8047B704780B427
:1013C80083B000AF78607B68DB6803F00103012B12
:1013D80001D1012300E0002318460C37BD465DF813
:1013E800047B704780B483B000AF78607B68DB68AB
:1013F80043F002027B68DA6000BF0C37BD465DF837
:10140800047B704780B483B000AF78607B68DB688A
:1014180023F002027B68DA6000BF0C37BD465DF836
:10142800047B704780B483B000AF78607B68DB686A
:1014380003F00203022B01D1012300E00023184628
:101448000C37BD465DF8047B704780B483B000AFAD
:1014580078607B68DB6843F004027B68DA6000BF71
:101468000C37BD465DF8047B704780B483B000AF8D
:1014780078607B68DB6823F004027B68DA6000BF71
:101488000C37BD465DF8047B704780B483B000AF6D
:1014980078607B68DB6803F00403042B01D1012327
:1014A80000E0002318460C37BD465DF8047B704702
:1014B80080B483B000AF78607B68DB6843F00802D3
:1014C8007B68DA6000BF0C37BD465DF8047B704767
:1014D80080B483B000AF78607B68DB6823F00802D3
:1014E8007B68DA6000BF0C37BD465DF8047B704747
:1014F80080B483B000AF78607B68DB6803F00803D2
:10150800082B01D1012300E0002318460C37BD4603
:101518005DF8047B704780B483B000AF78607B6867
:10152800DB6843F010027B68DA6000BF0C37BD4609
:101538005DF8047B704780B483B000AF78607B6847
:10154800DB6823F010027B68DA6000BF0C37BD4609
:101558005DF8047B704780B483B000AF78607B6827
:10156800DB6803F01003102B01D1012300E00023F6
:1015780018460C37BD465DF8047B704780B483B0CD
:1015880000AF78607B68DB6843F020027B68DA6034
:1015980000BF0C37BD465DF8047B704780B483B04C
:1015A80000AF78607B68DB6823F020027B68DA6034
:1015B80000BF0C37BD465DF8047B704780B483B02C
:1015C80000AF78607B68DB6803F02003202B01D133
:1015D800012300E0002318460C37BD465DF8047B64
:1015E800704780B483B000AF78607B68DB6843F0F5
:1015F80040027B68DA6000BF0C37BD465DF8047BAB
:10160800704780B483B000AF78607B68DB6823F0F4
:1016180040027B68DA6000BF0C37BD465DF8047B8A
:10162800704780B483B000AF78607B68DB6803F0F4
:101638004003402B01D1012300E0002318460C375A
:10164800BD465DF8047B704780B483B000AF786016
:101658007B68DB6843F080027B68DA6000BF0C3788
:10166800BD465DF8047B704780B483B000AF7860F6
:101678007B68DB6823F080027B68DA6000BF0C3788
:10168800BD465DF8047B704780B483B000AF7860D6
:101698007B68DB6803F08003802B01D1012300E025
:1016A800002318460C37BD465DF8047B704780B5AB
:1016B80082B000AF78600B467B807B8803F0010323
:1016C800002B0CD07B681B681846FFF7AAFF03465F
:1016D800012B04D07B681B681846FFF782FF7B88C4
:1016E80003F00203002B0CD07B681B681846FFF739
:1016F80099FE0346012B04D07B681B681846FFF748
:1017080071FE7B8803F00403002B0CD07B681B68F8
:101718001846FFF7BAFE0346012B04D07B681B6806
:101728001846FFF792FE7B8803F00803002B0CD0C5
:101738007B681B681846FFF7DBFE0346012B04D0C5
:101748007B681B681846FFF7B3FE7B8803F010031D
:10175800002B0CD07B681B681846FFF7FCFE03467D
:10176800012B04D07B681B681846FFF7D4FE7B88E2
:1017780003F02003002B0CD07B681B681846FFF78A
:101788001EFE0346012B04D07B681B681846FFF732
:10179800F6FD7B8803F04003002B0CD07B681B68A8
:1017A8001846FFF771FF0346012B04D07B681B68BE
:1017B8001846FFF749FF7B8803F08003002B0CD005
:1017C8007B681B681846FFF7F9FE0346012B04D017
:1017D8007B681B681846FFF7D1FE00BF0837BD4677
:1017E80080BD80B582B000AF78600B467B807B8877
:1017F80003F00103002B0CD07B681B681846FFF729
:1018080010FF0346012B04D17B681B681846FFF7BD
:10181800F8FE7B8803F00203002B0CD07B681B6862
:101828001846FFF7FFFD0346012B04D17B681B68B0
:101838001846FFF7E7FD7B8803F00403002B0CD064
:101848007B681B681846FFF720FE0346012B04D16E
:101858007B681B681846FFF708FE7B8803F00803BF
:10186800002B0CD07B681B681846FFF741FE034627
:10187800012B04D17B681B681846FFF729FE7B887B
:1018880003F01003002B0CD07B681B681846FFF789
:1018980062FE0346012B04D17B681B681846FFF7DC
:1018A8004AFE7B8803F02003002B0CD07B681B6862
:1018B8001846FFF784FD0346012B04D07B681B689C
:1018C8001846FFF76CFD7B8803F04003002B0CD013
:1018D8007B681B681846FFF7D7FE0346012B04D127
:1018E8007B681B681846FFF7BFFE7B8803F0800300
:1018F800002B0CD07B681B681846FFF75FFE034679
:10190800012B04D17B681B681846FFF747FE00BF10
:101918000837BD4680BD000080B582B000AF786052
:101928000B46FB70FB78022B06D17B681B680121F4
:101938001846FFF7F1FC1DE07B681B680F4A9342CD
:1019480018D1FB78032B06D17B681B680421184645
:10195800FFF7E2FC0EE0FB78042B0BD17B681B68D9
:1019680001211846FFF7D8FC7B681B68042118463C
:10197800FFF7D2FC00BF0837BD4680BD000001401C
:1019880080B582B000AF78600B46FB70FB78022B05
:1019980006D17B681B6801211846FFF7CEFC1DE0C5
:1019A8007B681B680F4A934218D1FB78032B06D13A
:1019B8007B681B6804211846FFF7BFFC0EE0FB7824
:1019C800042B0BD17B681B6801211846FFF7B5FC77
:1019D8007B681B6804211846FFF7AFFC00BF083777
:1019E800BD4680BD0000014080B582B000AF786080
:1019F8000B46FB70FB78022B06D17B681B68102115
:101A08001846FFF789FC1DE07B681B680F4A934264
:101A180018D1FB78032B06D17B681B684021184638
:101A2800FFF77AFC0EE0FB78042B0BD17B681B6870
:101A380010211846FFF770FC7B681B684021184688
:101A4800FFF76AFC00BF0837BD4680BD00000140B3
:101A580080B582B000AF78600B46FB70FB78022B34
:101A680006D17B681B6810211846FFF766FC1DE04D
:101A78007B681B680F4A934218D1FB78032B06D169
:101A88007B681B6840211846FFF757FC0EE0FB787F
:101A9800042B0BD17B681B6810211846FFF74DFCFF
:101AA8007B681B6840211846FFF747FC00BF0837D2
:101AB800BD4680BD0000014080B582B000AF7860AF
:101AC8000B46FB70FB78022B07D17B681B684FF431
:101AD80080711846FFF720FC20E07B681B68114ADC
:101AE80093421BD1FB78032B07D17B681B684FF40B
:101AF80080611846FFF710FC10E0FB78042B0DD12D
:101B08007B681B684FF480711846FFF705FC7B68FB
:101B18001B684FF480611846FFF7FEFB00BF0837CB
:101B2800BD4680BD0000014080B582B000AF78603E
:101B38000B46FB70FB78022B07D17B681B684FF4C0
:101B480080711846FFF7F9FB20E07B681B68114A93
:101B580093421BD1FB78032B07D17B681B684FF49A
:101B680080611846FFF7E9FB10E0FB78042B0DD1E4
:101B78007B681B684FF480711846FFF7DEFB7B68B3
:101B88001B684FF480611846FFF7D7FB00BF083782
:101B9800BD4680BD0000014080B584B000AF7860CC
:101BA8000023FB607B681B681C4A934201D11C4BD5
:101BB800FB607B681A68FB681A60FB681B6818463C
:101BC800FFF786FBB860BB68002B06D0BB68102BFC
:101BD80003D0FB6801221A7102E0FB6800221A7127
:101BE800FB681B680D4A934204D1FB681B681846C2
:101BF800FFF7B5FBFB681B68084A934208D17B686E
:101C08001B681846FFF77CFB0346DAB2FB685A717B
:101C1800FB6818461037BD4680BD00BF0000014074
:101C28007024002080B485B000AF786039603B68CC
:101C3800FB603B68B3F5803F0CD37B681B68B3F14E
:101C4800804F07D07B681B68064A934202D04FF644
:101C5800FF73FB60FB6818461437BD465DF8047BCC
:101C6800704700BF000C004080B485B000AF7860BA
:101C780039600023FB7397F90F3018461437BD46B7
:101C88005DF8047B7047000080B584B000AF7860D1
:101C980039600023FB727B68002B05D1374803F0BD
:101CA8006CFA4FF0FF3365E03B68002B05D13448F0
:101CB80003F063FA4FF0FF335CE0324BD3E90001E5
:101CC8004FF000024FF04043FEF786FE0346002B1C
:101CD80006D03B68D3E900232A49C1E9002305E07F
:101CE800284BD3E900233968C1E90023254BD3E900
:101CF80000014FF00002244BFEF76EFE0346002B56
:101D080002D0224803F039FA7B685B681B68204AD6
:101D180013607B685B685B681E4A13607B685B685E
:101D28009B681D4A13607B685B68DB681B4A13600D
:101D38001B4B00221A6003F093FE0023FB60002374
:101D4800FB6007E0174AFB68174942F82310FB6855
:101D58000133FB60FB68012BF4D903F0CBFA03468F
:101D6800FB7297F90B30002B02D1104B01221A702D
:101D780097F90B3018461037BD4680BD0019010889
:101D880024190108582300200000F0BF5019010849
:101D9800E0260020E4260020E8260020EC2600208B
:101DA800F0260020FC240020D15A0008DE2600205E
:101DB80080B586B000AF78600023FB7500233B61D7
:101DC8000023FB732A4B1B78DBB2002B0CBF0123CB
:101DD8000023DBB2BB73274B02221A707B68002BEF
:101DE8000BD1234B1B78DBB2002B06D1224B1B787F
:101DF800DBB2002B01D1012300E00023FB7316E0C6
:101E08000A2009F06FFA3B6903F51C5310333B6154
:101E18007B68B3F1FF3F05D03A697B689A4201D9E4
:101E2800012300E00023FB73002003F0B1FA104BFC
:101E38001B78DBB2002B07D10F4B1B78DBB2002BD2
:101E480002D1FB7B002BDBD00A4B03221A70FB7BF1
:101E5800002B01D09C23FB75BB7B002B01D003F02A
:101E68002DFF97F9173018461837BD4680BD00BFBB
:101E7800DC260020DE260020DD26002080B586B086
:101E880000AF034687ED000BFB810023FB750123A0
:101E9800BB754FF000024FF00003D7E90001FEF7D1
:101EA800A5FD0346002B05D02E4803F066F94FF038
:101EB800FF3353E0FB89FF2B08D9FB89FF22194622
:101EC800294803F05AF94FF0FF3347E0274B1B78B6
:101ED800DBB2032B04D0254B1B78DBB2012B02D1DC
:101EE800224B04221A70FB89012B15D8FB89204A42
:101EF80052F82330002B0FD004F0AAFA03467B7562
:101F08007B7D022B08D1FB89194A52F82330FA89C4
:101F1800104698470346BB75FB897B82FB891846A8
:101F280097ED000B03F048F9BB7D002B06D07B8AA8
:101F3800184604F065FA0346FB7503E07B8A1846E9
:101F480004F0C1FA97F91730002B05D097F917302C
:101F58001946084803F011F997F917301846183749
:101F6800BD4680BDBC190108001A0108DE26002004
:101F7800FC240020401A010880B582B000AF00237D
:101F8800FB71002003F004FA0346FB7197F9073050
:101F980018460837BD4680BD80B582B000AF002323
:101FA800FB710B4B06221A7003F090FA0346FB7183
:101FB8000822002107480FF051FC03F005FE044BEE
:101FC80000221A7097F9073018460837BD4680BDB9
:101FD800DE260020FC24002080B400AF034B1B78D1
:101FE800DBB21846BD465DF8047B7047DD2600204D
:101FF80080B400AF034B1B78DBB21846BD465DF8D2
:10200800047B7047F426002080B483B000AF0346F9
:102018003960FB7197F90730002B0ADB3B68DAB2AD
:102028000C4997F907301201D2B20B4483F8002308
:102038000AE03B68DAB20849FB7903F00F03043B76
:102048001201D2B20B441A7600BF0C37BD465DF8B8
:10205800047B704700E100E000ED00E080B584B04B
:1020680000AFF860B9607A60FB68DBB20F3BDBB2A7
:102078005BB279681846FFF7C7FF00BF1037BD4647
:1020880080BD000080B483B000AF0346FB7197F9B0
:102098000730002B0BDBFB7903F01F02074997F988
:1020A80007305B09012000FA02F241F8232000BF43
:1020B8000C37BD465DF8047B704700BF00E100E0C7
:1020C80080B483B000AF0346FB7197F90730002B4B
:1020D80012DBFB7903F01F020A4997F907305B0905
:1020E800012000FA02F2203341F82320BFF34F8F7A
:1020F80000BFBFF36F8F00BF00BF0C37BD465DF850
:10210800047B704700E100E080B483B000AF7860E2
:102118007B686FF004021A6000BF0C37BD465DF89B
:10212800047B704780B483B000AF78607B685B68DD
:1021380003F08003802B0CBF01230023DBB2184679
:102148000C37BD465DF8047B704780B483B000AFA0
:1021580078607B681B6843F001027B681A6000BFE7
:102168000C37BD465DF8047B704780B483B000AF80
:1021780078607B681B6823F001027B681A6000BFE7
:102188000C37BD465DF8047B704780B483B000AF60
:10219800786039607B681B6823F004023B681A4347
:1021A8007B681A6000BF0C37BD465DF8047B70473A
:1021B80080B483B000AF78607B681B6803F00403C9
:1021C80018460C37BD465DF8047B704780B483B071
:1021D80000AF786039607B683A68DA6200BF0C3714
:1021E800BD465DF8047B704780B483B000AF78606B
:1021F8007B68DB6A18460C37BD465DF8047B704780
:1022080080B483B000AF786039607B683A681A633D
:1022180000BF0C37BD465DF8047B704780B483B0BF
:1022280000AF786039607B683A685A6300BF0C3742
:10223800BD465DF8047B704780B483B000AF78601A
:1022480039607B683A689A6300BF0C37BD465DF811
:10225800047B704780B483B000AF786039607B68D6
:102268003A68DA6300BF0C37BD465DF8047B7047F7
:1022780080B483B000AF78607B685B6B18460C371E
:10228800BD465DF8047B704780B483B000AF7860CA
:102298007B689B6B18460C37BD465DF8047B70471E
:1022A80080B483B000AF78607B68DB6B18460C376E
:1022B800BD465DF8047B704780B483B000AF78609A
:1022C8007B685B6943F001027B685A6100BF0C3789
:1022D800BD465DF8047B704780B483B000AF78607A
:1022E80039607B683A689A6100BF0C37BD465DF873
:1022F800047B704780B483B000AF786039603B6876
:102308001A047B689A6100BF0C37BD465DF8047BF0
:102318007047000080B584B000AF786087ED000A90
:10232800D7ED007AF5EEC07AF1EE10FA03D54FF04A
:1023380000033B600AE0D7ED007A9FED167AF4EED1
:10234800C77AF1EE10FA01DD134B3B607B681B681E
:102358001846FFF749FFF8607B681B79002B0CBF14
:1023680001230023DBB21A46FB68134407EE903AB8
:10237800B8EE677AD7ED007A27EE277ADFED056A9F
:10238800C7EE267AFCEEE77A17EE903A1846103731
:10239800BD4680BD0000C8420000C84280B582B07A
:1023A80000AF786039607B681B681846FFF71CFF30
:1023B80002463B68934205D07B681B68396818461B
:1023C800FFF704FF00BF0837BD4680BD80B582B067
:1023D80000AF786039607B681B681846FFF748FFD4
:1023E80002463B68934205D07B681B6839681846EB
:1023F800FFF714FF00BF0837BD4680BD80B582B027
:1024080000AF786039607B681B681846FFF73CFFAF
:1024180002463B68934205D07B681B6839681846BA
:10242800FFF70AFF00BF0837BD4680BD80B582B000
:1024380000AF786039607B681B681846FFF730FF8B
:1024480002463B68934205D07B681B68396818468A
:10245800FFF700FF00BF0837BD4680BD80B584B0D8
:1024680000AF786087ED000A97ED000A7868FFF7FB
:1024780051FFF860F9687868FFF7A8FF00BF1037C8
:10248800BD4680BD80B584B000AF786087ED000A96
:1024980097ED000A7868FFF73DFFF860F9687868FB
:1024A800FFF7ACFF00BF1037BD4680BD80B584B0D4
:1024B80000AF786087ED000A97ED000A7868FFF7AB
:1024C80029FFF860F9687868FFF7B0FF00BF103798
:1024D800BD4680BD80B485B000AF78607B681B685E
:1024E8009B6803F00703FB60FB68062B0CBF012306
:1024F8000023DBB218461437BD465DF8047B7047ED
:1025080080B584B000AF78600B46FB707B681B68B1
:102518001846FFF74DFEF860FB78002B0AD07B6861
:102528001B681E4A934205D17B681B680021184628
:10253800FFF766FEFB68042B11D07B681B6804213B
:102548001846FFF722FE7B681B681846FFF7B4FEA3
:102558007B681B68F9681846FFF717FE04E07B687C
:102568001B681846FFF7A8FE7B681B681846FFF72C
:10257800ECFDFB78002B0CD07B681B68074A934264
:1025880007D17B681A687B685B7919461046FFF7A4
:1025980037FE00BF1037BD4680BD00BF00000140B8
:1025A80080B582B000AF78607B681B681846FFF77B
:1025B800DCFD00BF0837BD4680BD000080B483B095
:1025C80000AF7860084BB3F84230002B0CBF0123F2
:1025D8000023DAB27B6801331A7000BF0C37BD469E
:1025E8005DF8047B704700BFF825002080B400AF79
:1025F8000A4BB3F84220013292B2A3F84220074BAB
:10260800B3F84230B3F57A6F03D3044B0022A3F832
:10261800422000BFBD465DF8047B7047F8250020C6
:1026280080B58CB002AF78607B6800221A727B6834
:1026380001225A600023BB6100233B74174BFB61E6
:1026480000233B620023BB74002387F82430012356
:1026580087F825300223FB6002237B7407F10C0006
:102668004FF480130093022300220221FEF7B6FCE8
:1026780002467B68DA607B68DB681846FEF73EFD39
:102688007B68DB6800211846FEF79CFC7B6801220A
:102698001A7200BF2837BD4680BD00BF0020014028
:1026A800F0B58BB000AF87ED020B87ED001BD7E9C3
:1026B8000223C7E908234FF000024FF00003D7E9CF
:1026C8000001FEF789F90346002B10D04FF00002F5
:1026D8004FF00003D7E90201FEF77EF90346002B0D
:1026E80000F01281D7E90023C7E908230CE197ED30
:1026F800020B02F02DFD0346002B0DD197ED000BC8
:1027080002F026FD0346002B06D197ED020B02F0DE
:10271800FBFC0346002B05D0814BD3E90023C7E916
:102728000823F1E04FF000024FF00003D7E902015F
:10273800FEF752F90346002B0CD0D7E900234FF0DF
:1027480000004FF00001FEF709F802460B46C7E902
:102758000823D9E097ED000B02F0D6FC0346002BC6
:1027680029D001231C464FF000024FF00003D7E99F
:102778000001FEF73BF90346002B01D100231C465C
:10278800E4B201231D464FF000024FF00003D7E9E1
:102798000201FEF72BF90346002B01D100231D4649
:1027A800EBB26340DBB2002B00F0AE80D7E9002328
:1027B800C7E90823A8E097ED001B97ED020B0DF081
:1027C8003DFA87ED080B01231E464FF000024FF03B
:1027D8000003D7E90801FEF7FFF80346002B01D1F3
:1027E80000231E46F3B2FB77FB7F002B4ED197EDFB
:1027F800000B0DF0EDFB53EC102BD7E90001FEF7B1
:1028080013F90346002B41D0D7E90023D7E9020189
:10281800FDF7A4FF02460B461146396123F0004339
:102828007B614FF000023F4BD7E90401FDF7B6FC8E
:1028380002460B4643EC172BB0EE470AF0EE670A48
:102848000DF0C6FB53EC102BD7E90401FDF7A4FCEF
:1028580002460B46144623F000454FF00002324B67
:10286800D7E90401FDF750FE02460B4601210E464A
:1028780020462946FEF7D8F80346002B01D100234D
:102888001E46F3B283F00103DBB2FB77FB7F002B1C
:102898000CD04FF000024FF00003D7E90001FDF71C
:1028A80033FE02460B46C7E908232DE001231C46E8
:1028B8004FF000024FF00003D7E90201FEF796F847
:1028C8000346002B01D100231C46E4B201231D4618
:1028D8004FF000024FF00003D7E90001FEF786F839
:1028E8000346002B01D100231D46EBB26340DBB247
:1028F800002B09D0D7E90023D7E90801FDF74EFCE2
:1029080002460B46C7E90823D7E9082343EC172BEF
:10291800B0EE470AF0EE670A2C37BD46F0BD00BF9F
:10292800402300200000E03F0000B03C80B584B0A8
:1029380000AF87ED000B38687B6823F000414FF04B
:1029480000022F4BFEF752F80346002B48D04FF0F9
:1029580000022C4BD7E90001FEF75CF80346002B78
:1029680013D04FF00002274BD7E90001FDF716FC02
:1029780002460B4643EC172BB0EE470AF0EE670A07
:102988000DF026FB87ED020B2EE04FF000021E4BE8
:10299800D7E90001FEF748F80346002B0CD04FF0AA
:1029A80000024FF00003D7E90001FDF7ADFD024634
:1029B8000B46C7E9022317E04FF00002114BD7E995
:1029C8000001FDF7E9FB02460B4643EC172BB0EE7E
:1029D800470AF0EE670A0DF073FA87ED020B03E081
:1029E800D7E90023C7E90223D7E9022343EC172BD1
:1029F800B0EE470AF0EE670A1037BD4680BD00BF4B
:102A0800000030430000E03F0000E0BF80B5A6B002
:102A180000AF78601D4BBB6000233B7300237B73C2
:102A280007F108031846FFF7B7F802467B68DA6033
:102A38007B68DB6800211846FEF739FE7B68DB6897
:102A480004211846FEF768FF7B68DB6804211846F6
:102A5800FEF7CAFF7B68DB6804211846FFF72CF8ED
:102A68007B68DB681846FFF735FD034687F8973023
:102A780097F89730002B05D17B68DB680121184651
:102A8800FFF73EFD00BF9837BD4680BD00000140FE
:102A98002DE9B04F8EB000AFFFF7A8FD674BD3E923
:102AA8000A01674B03F504532033D3E90023FDF7EC
:102AB800BBFF0346002B08D0614B03F504532033BA
:102AC800D3E90023C7E90A231BE05C4BD3E90A01D9
:102AD8005B4B03F50453303353E90223FDF786FFBC
:102AE8000346002B08D0564B03F50453303353E903
:102AF8000223C7E90A2304E0504BD3E90A23C7E9B4
:102B08000A234E4BD3E90C014D4B03F504532033F4
:102B1800D3E90023FDF788FF0346002B08D0484B74
:102B280003F504532033D3E90023C7E908231BE046
:102B3800424BD3E90C01424B03F50453303353E9BC
:102B48000223FDF753FF0346002B08D03C4B03F547
:102B58000453303353E90223C7E9082304E0374B11
:102B6800D3E90C23C7E90823344BD3E90E01344BCE
:102B780003F504532033D3E90023FDF755FF03463B
:102B8800002B08D02E4B03F504532033D3E9002340
:102B9800C7E906231BE0294BD3E90E01284B03F5AF
:102BA8000453303353E90223FDF720FF0346002B7B
:102BB80008D0234B03F50453303353E90223C7E904
:102BC800062304E01D4BD3E90E23C7E90623D7E902
:102BD8000623D7E90801FDF7E1FA02460B4610463D
:102BE8001946D7E90A23FDF7D9FA02460B461046DB
:102BF8001946134B03F504533033D3E90023FDF78B
:102C080083FC02460B460D49C1E918230C4B03F51A
:102C1800055353E902010A4B03F50553D3E9002391
:102C2800FDF7F8FE0346002B0CD0054B03F50553C2
:102C380053E902230149C1E91C2309E010250020BA
:102C4800000000205F4BD3E92C235F49C1E91C2316
:102C58005D4BD3E91823D7E90A01FDF79DFA02462F
:102C68000B4610461946584BD3E91C23FDF74CFC7C
:102C780002460B46C7E90A23534BD3E91823D7E981
:102C88000801FDF789FA02460B46104619464E4BD5
:102C9800D3E91C23FDF738FC02460B46C7E9082395
:102CA800494BD3E91823D7E90601FDF775FA02461F
:102CB8000B4610461946444BD3E91C23FDF724FC68
:102CC80002460B46C7E90623404B93F85F30002BBA
:102CD80043D03C4B03F507531033D3E90023104688
:102CE8001946FDF7C1FE0346013B364A0E33DB00A9
:102CF8001344D3E900233549C1E90823334BD3E909
:102D08000801304B03F507532033D3E90023FDF7BF
:102D18008BFE0346002B09D02A4B03F507532033BB
:102D2800D3E900232949C1E9082316E0274BD3E951
:102D38000801244B03F50753303353E90223FDF709
:102D480055FE0346002B08D01E4B03F507533033BE
:102D580053E902231D49C1E908231C4BD3E90A01A1
:102D6800184BD3E90623FDF755FE0346002B2FD059
:102D7800164BD3E90A01134BD3E91423FDF740FEA0
:102D88000346002B06D0114BD3E90A230E49C1E9AB
:102D98001C2333E00D4BD3E90A450A4B03F50053D6
:102DA800D3F810331846FDF757FB02460B4620466A
:102DB8002946FDF7F1F902460B460349C1E91C23F0
:102DC8001CE000BF000000201025002090250020F6
:102DD8005F4BD3E90A455F4B03F50053D3F814332F
:102DE8001846FDF739FB02460B4620462946FDF7F3
:102DF800D5F902460B465849C1E91C23554BD3E97E
:102E08000E01554BD3E91C23FDF77EFB02460B460A
:102E1800C7E90C2397ED0C0B0CF08EFFB0EE407A4F
:102E2800F0EE607A4C4B83ED1A7B97ED0C0B0CF0AF
:102E38003BFFB0EE407AF0EE607A474B83ED187BAB
:102E4800444B03F507533033D3E90001D7E90A238C
:102E5800FDF75AFB02460B4614461D463D4B03F54B
:102E6800085353E90201D7E90823FDF74DFB024651
:102E78000B4620462946FDF791F902460B461446B3
:102E88001D46344B03F50853D3E90001D7E906235F
:102E9800FDF73AFB02460B4620462946FDF77EF928
:102EA80002460B46C7E90A232A4B03F50853103399
:102EB80053E90201D7E90823FDF726FB02460B4632
:102EC80014461D46234B03F508531033D3E900017C
:102ED800D7E90623FDF718FB02460B46204629468C
:102EE800FDF75CF902460B46C7E90823184B93F82F
:102EF8006030002B47D0174B03F508532033D3E934
:102F0800002310461946FDF7AFFD0346013B114A61
:102F18000E33DB001344D3E900230D49C1E90C2328
:102F28000B4BD3E90C010B4B03F508533033D3E9B2
:102F38000023FDF779FD0346002B0FD0054B03F561
:102F480008533033D3E900230149C1E90C231AE0BF
:102F5800902500200000002010250020B24BD3E966
:102F68000C01B24B03F5095353E90223FDF73EFD6B
:102F78000346002B07D0AD4B03F5095353E9022351
:102F8800A949C1E90C23A84BD3E90E23A849C1E9F3
:102F98000023A64BD3E90E01A54BD3E90023FDF787
:102FA800B3FA02460B46C7E906239F4BD3E908014B
:102FB800D7E90623FDF7A8FA02460B4614461D4634
:102FC8009A4B03F509533033D3E9002310461946C9
:102FD800FDF74AFD0346013B944A03F22D43DB000B
:102FE8001344D3E9002320462946FDF78DFA02460B
:102FF8000B4614461D468D4B03F50A5353E902232D
:1030080010461946FDF730FD0346013B874A03F297
:103018002D43DB001344D3E9002320462946FDF75E
:103028009DFB02460B46C7E90223804B03F50A5372
:103038002033D3E9002310461946FDF715FD034652
:10304800013B7A4A03F22943DB001344D3E90045E4
:10305800764B03F50A53303353E9022310461946D9
:10306800FDF702FD0346013B704A03F22943DB00EA
:103078001344D3E9002320462946FDF78DF802467C
:103088000B4614461D46684BD3E90C01664BD3E941
:103098000823FDF739FA02460B4620462946FDF774
:1030A80033FA02460B4614461D46604BD3E920010D
:1030B8005D4BD3E90823FDF727FA02460B46204665
:1030C8002946FDF76BF802460B4614461D46574B3A
:1030D800D3E90E014FF00002564BFDF715FA0246F0
:1030E8000B4620462946FDF70FFA02460B46C7E96C
:1030F80000234E4BD3E912014D4BD3E90023FDF7D2
:1031080003FA02460B4610461946494BD3E91C23DD
:10311800FDF744F802460B464349C1E90A23424BEE
:10312800D3E90C01424BD3E91823FDF7EDF9024628
:103138000B4614461D463C4BD3E908013C4BD3E9EA
:103148001A23FDF7E1F902460B4620462946FDF70A
:1031580023F802460B463649C1E91C23344BD3E910
:103168001C233349C1E904232F4BD3E90C01304B0D
:10317800D3E91A23FDF7C8F902460B4614461D4643
:10318800294BD3E908012A4BD3E91823FDF7BCF9E9
:1031980002460B4620462946FDF700F802460B4634
:1031A8002349C1E91E23214B03F50B53D3E9000141
:1031B8001F4BD3E91C23FDF7A7F902460B4614461B
:1031C8001D461A4B03F50B53103353E90201184BF4
:1031D800D3E91E23FDF798F902460B4620462946F7
:1031E800FCF7DCFF02460B461149C1E908230F4BE7
:1031F80003F50B53203353E902010D4BD3E91C238C
:10320800FDF782F902460B4614461D46074B03F5A7
:103218000B531033D3E90001054BD3E91E23FDF707
:1032280073F9024608E000BF902500200000002046
:10323800102500200000F83F0B4620462946FCF7E1
:10324800ADFF02460B462249C1E90623214B03F58F
:103258000B53203393ED007BB0EE471AF0EE671A5C
:1032680097ED0C0BFFF71CFAB0EE407AF0EE607A9F
:10327800174B83ED027B174B03F50B53303313EDDC
:10328800027BB0EE470AF0EE670AFFF74FFB87EDC7
:103298000C0B4FF00002104BD7E90C01FDF7A6FB11
:1032A8000346002B1AD04FF000024FF00003D7E975
:1032B8000C01FDF7AFFB0346002B06D0D7E90C0144
:1032C800FDF7FAFB03467B610BE000237B6108E016
:1032D80010250020000000200000F0414FF0FF33CF
:1032E8007B61A14BDB6979691846FEF79BFC786125
:1032F8009D4BDB6979691846FFF750F89A4BDC69F2
:103308009A4BD3E90A2310461946FDF7F5FB034605
:1033180000EE103A2046FFF7A1F8934BDC69934B77
:10332800D3E90C2310461946FDF7E6FB034600EEE9
:10333800103A2046FFF7A6F88B4BDC698B4BD3E994
:103348000E2310461946FDF7D7FB034600EE103A48
:103358002046FFF7ABF8844B002283F85F20824BAE
:10336800D3E90845814BD3E91801D7E90823FDF7CC
:10337800CBF802460B46904699467C4BD3E91A0196
:10338800D7E90A23FDF7C0F802460B4640464946EE
:10339800FCF702FF02460B4690469946744B03F52C
:1033A8000853203353E9022310461946FDF75CFB06
:1033B8000346013B6E4A03F23143DB001344D3E971
:1033C800002340464946FDF7C9F902460B46904698
:1033D8009946654BD3E90C01D7E90623FDF794F824
:1033E80002460B4692469B46614B03F50953203330
:1033F80053E9022310461946FDF736FB0346013B05
:103408005B4A03F23343DB001344D3E900235046FD
:103418005946FDF779F802460B4692469B46544BAF
:1034280003F509532033D3E9002310461946FDF765
:103438001BFB0346013B4E4A03F23343DB001344B4
:10344800D3E9002350465946FDF788F902460B4652
:1034580040464946FCF7A0FE02460B469046994670
:10346800434BD3E92001D7E90623FDF74DF802467F
:103478000B4692469B463E4B03F50953303353E9BE
:10348800022310461946FDF7EFFA0346013B384A76
:1034980003F23543DB001344D3E900235046594671
:1034A800FDF75CF902460B4640464946FCF774FEB8
:1034B80002460B46904699462B4BD3E908012C4B04
:1034C800D3E91023FDF720F802460B4692469B46A7
:1034D800274B03F50753103353E9022310461946C7
:1034E800FDF7C2FA0346013B214A03F23743DB00EA
:1034F8001344D3E9002350465946FDF72FF90246F5
:103508000B4640464946FCF747FE02460B46104626
:103518001946174B03F50753203353E90223FCF7E9
:10352800F3FF02460B4620462946FCF737FE0246C3
:103538000B460D49C1E908230B4BD3E908010C4B95
:1035480003F507532033D3E90023FDF76DFA03464B
:10355800002B0FD0064B03F507532033D3E9002384
:103568000149C1E908231CE090250020102500200E
:10357800000000207E4BD3E908017E4B03F507537A
:10358800303353E90223FDF731FA0346002B08D004
:10359800784B03F50753303353E902237449C1E9E3
:1035A8000823734B002283F86020714BD3E90C4544
:1035B800714BD3E91801D7E90A23FCF7A5FF0246A6
:1035C8000B46904699466C4BD3E91A01D7E9082374
:1035D800FCF79AFF02460B4640464946FCF7DEFDDB
:1035E80002460B4690469946624B03F50A53D3E9C7
:1035F800002310461946FDF737FA0346013B5D4A9A
:1036080003F22B43DB001344D3E900234046494629
:10361800FDF7A4F802460B4610461946D7E90223DF
:10362800FCF7BCFD02460B4690469946504BD3E941
:103638000C01504BD3E91023FCF766FF02460B46FA
:1036480092469B464B4B03F50A53103353E902232A
:1036580010461946FDF708FA0346013B454A03F2AE
:103668002F43DB001344D3E9002350465946FDF7A6
:1036780075F802460B4640464946FCF78DFD024662
:103688000B46104619463B4B03F50853303353E9B4
:103698000223FCF739FF02460B4620462946FCF771
:1036A8007DFD02460B463249C1E90C23304BD3E974
:1036B8000C01304B03F508533033D3E90023FDF7F1
:1036C800B3F90346002B09D02A4B03F508533033CE
:1036D800D3E900232649C1E90C2314E0244BD3E99C
:1036E8000C01244B03F5095353E90223FDF77EF936
:1036F8000346002B07D01F4B03F5095353E9022358
:103708001B49C1E90C231C4B93ED007BB0EE470A23
:10371800F0EE670A01F01CFD0346002B05D0174B9D
:10372800D3E90023C7E90C2334E0134BD3E90001A4
:103738004FF000024FF00003FDF758F90346002B45
:1037480005D04FF000020E4BC7E90C2322E00A4BCC
:10375800D3E900014FF000024FF00003FDF764F9D0
:103768000346002B10D04FF00002064B10E000BFBC
:103778009025002000000020102500204023002074
:103788000000F0BF0000F03F4FF000024FF00003D0
:10379800C7E90C23614BD3E90E45614B03F50A5386
:1037A800203353E90223D7E90001FCF7F5FC024670
:1037B8000B46904699465A4B03F50A531033D3E902
:1037C800002310461946FDF74FF90346013B544ABA
:1037D8001133DB001344D3E90001524BD3E9002332
:1037E800FCF792FE02460B4640464946FCF7D4FCDD
:1037F80002460B4690469946494B03F50A53303327
:10380800D3E9002310461946FDF72EF90346013B7C
:10381800434A1133DB001344D3E90001D7E90C23F1
:10382800FCF772FE02460B4640464946FCF7B4FCDC
:1038380002460B4690469946394B03F50B5353E91C
:10384800022310461946FDF70FF90346013B344A97
:103858001133DB001344D3E9002340464946FCF703
:103868007DFF02460B46104619462D4B03F50953BA
:10387800D3E90023FCF748FE02460B4620462946BA
:10388800FCF78CFC02460B462449C1E90E23234B66
:10389800D3E90E01224B03F50953103353E90223F0
:1038A800FDF7C2F80346002B09D01D4B03F5095359
:1038B800103353E902231949C1E90E2316E0174BC7
:1038C800D3E90E01164B03F509531033D3E900234E
:1038D800FDF78CF80346002B08D0114B03F509536C
:1038E8001033D3E900230D49C1E90E230E4B9A6A20
:1038F80001329A629B6A1846FCF78CFD0A4BD3E9A1
:103908000C23094CFCF700FE02460B46C4E90823C9
:1039180000BF3837BD46BDE8B08F00BF90250020F6
:103928000000002010250020F8250020B0B586B042
:1039380000AF354B9B6D1846FCF77CFD334B03F508
:103948000C53D3E90023FDF751F80346002B0AD0A6
:103958002D4B9B6D002B06DB2C4B03F50B533033A3
:10396800D3E9002303E04FF000024FF00003C7E95A
:103978000223254B9B6D1846FCF75CFD04460D465B
:10398800224B03F50C5353E902014FF00002204B80
:10399800FCF702FC02460B4620462946FDF73AF89A
:1039A8000346002B03D0184B00229A6504E0164BFF
:1039B8009B6D0133144A9365164B7B604FF00002F0
:1039C8004FF00003D7E90201FDF706F80346002B84
:1039D80002D120237B6101E000237B617B691946CA
:1039E8007868FEF779FC7B69DB4303F0200319460E
:1039F8007868FEF77FFC084B9A6B01329A6300BF28
:103A08001837BD46B0BD00BF90250020000000203B
:103A18000000F03F00000240F825002000000000F0
:103A280080B500AF6C494FF000026C4BC1E912231E
:103A3800694967A3D3E90023C1E90C23664B684AA7
:103A48009A60654B674ADA60634B674A1A61624B52
:103A5800664A5A61604B664A5A60654B654A1A6005
:103A6800644B654A1A60634B634A5A60614B624A09
:103A78009A60604B614ADA605E4B604A1A615D4B3E
:103A88005E4A5A615B4B5D4A9A615A4B5B4ADA61FE
:103A9800584B5A4A1A62574B584A5A62554B574A1A
:103AA8009A62544B554ADA62524B544A1A63514B44
:103AB800524A5A634F4B514A9A634E4B4F4ADA6304
:103AC8004C4B4E4A1A644B4B4C4A5A64494B4B4A2E
:103AD8009A64484B494ADA64464B494A1A65454B49
:103AE800484A5A65434B454A9A65424B424ADA6509
:103AF800404B414A1A663F4B3F4A5A663D4B3E4A45
:103B08009A66354A344B5B6818329A60324A324BAF
:103B18005B6808325A60304A2F4B5B682032DA60A3
:103B2800394B012283F85F20384BD3E92A233649E1
:103B3800C1E90A23344B012283F86020334BD3E9CF
:103B480028233149C1E90E23234B234A9B6AD363B7
:103B58002E4BD3E900232C49C1E910232B4BD3E981
:103B680002232949C1E91223284BD3E90423264912
:103B7800C1E91423244B00225A60234B00221A70F7
:103B88002148FEF74DFD214BD3E92E232049C1E9F9
:103B98000A231E4BD3E92E231D49C1E90C231B4BD5
:103BA800D3E92E231A49C1E90E23174B00221A74B0
:103BB800154B00221A76144B01225A611548FEF75C
:103BC80025FF114B01221A7600BF80BDAFF300809C
:103BD8002D431CEBE236FA3EF82500200000144085
:103BE8001F8C74EC66D48553BF6BF923FB776E3258
:103BF80050260020642600208C410108EC25002076
:103C0800EE250020ED250020902500200000002052
:103C180010250020A025002080B500AF214B1B787F
:103C2800002B11D11F4B01221A701E4B5B68012B10
:103C38000AD11C4B1B7A002B06D01A4BDB680022DA
:103C480002211846FDF7CDFA164B1B7C002B27D115
:103C5800144B01221A74134B5B69012B20D1114BB1
:103C68001B7E002B1CD00F4BDB691846FEF798FC17
:103C78000C4BDB6900211846FDF7B3FD094BDB69E6
:103C880004211846FDF77CFE064BDB690421184623
:103C9800FDF7DEFE034BDB6904211846FDF744FF00
:103CA80000BF80BD9025002080B500AF02220449E6
:103CB8002120FEF7D3F91220FEF7E4F900BF80BDFA
:103CC800D13C0008000000002DE9B04F96B000AFCD
:103CD800BA48FEF727FA0346002B07D0B848FDF785
:103CE80056F90346002B01D0012300E00023002BE6
:103CF80001F08B80B148FEF707FAB24B1B78DBB2B4
:103D0800012B41F08280B04B93F95E3087F8253063
:103D1800002387F8573097F82530042B1FD801A2C5
:103D280052F823F0413D0008493D0008513D000884
:103D3800593D0008613D0008002387F857300EE020
:103D4800032387F857300AE0032387F8573006E043
:103D5800002387F8573002E0002387F8573097F997
:103D68005720994B83F85E20974B93F95D3087F87D
:103D78002430002387F8563097F82430042B20D8B5
:103D880001A252F823F000BFA53D0008AD3D000890
:103D9800B53D0008BD3D0008C53D0008002387F873
:103DA80056300EE0032387F856300AE0032387F8DD
:103DB800563006E0002387F8563002E0002387F8E3
:103DC800563097F95620804B83F85D207E4B93F947
:103DD8005C3087F82330002387F8553097F8233074
:103DE800042B20D801A252F823F000BF093E000896
:103DF800113E0008193E0008213E0008293E00082F
:103E0800002387F855300EE0032387F855300AE081
:103E1800032387F8553006E0002387F8553002E081
:103E2800002387F8553097F95520674B83F85C20B5
:103E3800664B664A9B6AD363634BDB6807F10C02E7
:103E480002211846FDF76FF9614BD3E93801614B40
:103E5800D3E90023FCF7A0F902460B465D49C1E906
:103E680010235C4BD3E91001594BD3E93C23FCF7F1
:103E78004BFB02460B4610461946534BD3E9102319
:103E8800FCF78CF902460B465249C1E91223514B03
:103E9800D3E904454F4BD3E904014E4BD3E906233C
:103EA800FCF77CF902460B4610461946494BD3E904
:103EB8000823FCF773F902460B4610461946444B93
:103EC800D3E94023FCF720FB02460B46204629464F
:103ED800FCF762F902460B46104619463C4BD3E9FB
:103EE8004423FCF711FB02460B46C7E91223394B62
:103EF800D3E90601374BD3E90823FCF74DF902460D
:103F08000B4610461946324BD3E94223FCF7FCFA1C
:103F180002460B46104619462D4BD3E94623FCF7BB
:103F2800F3FA02460B46C7E910232A4BD3E90201EC
:103F3800274BD3E93A23FCF72FF902460B461046E4
:103F48001946234B03F5025353E90223FCF7DCFA25
:103F580002460B461F49C1E916231E4BD3E9160139
:103F68001B4BD3E93623FCF741FD0346002B00F039
:103F78008780184B93ED167BB0EE470AF0EE670A80
:103F88000CF026F8B0EE407AF0EE607A114B83ED33
:103F9800147B104B93ED147BB0EE470AF0EE670AE2
:103FA80001F0B2F80346002B16D00A494FF0000280
:103FB8004FF00003C1E9142320E000BF00200140B6
:103FC80054240020DB26002090250020F82500201E
:103FD8000000002010250020A34B93ED147B9FEDDB
:103FE800A01BB0EE470AF0EE670A0BF027FEB0EE12
:103FF800407AF0EE607A9C4B83ED147B9A4BD3E9C0
:104008001645994BD3E914014FF000024FF0000315
:10401800FCF7ECFC0346002B15D0934BD3E9142393
:104028003A6083F000437B60D7E90001FCF744FD68
:1040380003469BB25B429BB21BB21846FCF7FAF9E7
:1040480002460B460EE0884BD3E914231046194666
:10405800FCF732FD03469BB21BB21846FCF7EAF99F
:1040680002460B4620462946FCF796F802460B46C0
:104078007D49C1E916237D4B042283F85E2081E047
:10408800794B93ED167BB0EE470AF0EE670A0CF019
:104098002BF8B0EE407AF0EE607A734B83ED147B28
:1040A800714B93ED147BB0EE470AF0EE670A01F00E
:1040B8004FF80346002B0BD16B4B93ED147BB0EEFE
:1040C800470AF0EE670A01F01FF80346002B07D0F5
:1040D80065494FF000024FF00003C1E9142311E0D5
:1040E800614B93ED147B9FED5E1BB0EE470AF0EE3B
:1040F800670A0BF0A3FDB0EE407AF0EE607A5A4BF7
:1041080083ED147B584BD3E91645574BD3E914017B
:104118004FF000024FF00003FCF768FC0346002B49
:1041280014D0514BD3E91423924683F0004B5046E8
:104138005946FCF7C1FC03469BB25B429BB21BB2DB
:104148001846FCF777F902460B460EE0464BD3E9D2
:10415800142310461946FCF7AFFC03469BB21BB26A
:104168001846FCF767F902460B4620462946FCF735
:1041780013F802460B463C49C1E916233B4B04227F
:1041880083F85D20384BD3E91601394B03F5025308
:10419800D3E90023FCF7B8F902460B463249C1E9D6
:1041A8001623314B93ED167BB0EE470AF0EE670A03
:1041B8000BF09AFFB0EE407AF0EE607A2A4B83ED6E
:1041C800147B294B93ED147BB0EE470AF0EE670A97
:1041D80000F0BEFF0346002B0BD1234B93ED147B5D
:1041E800B0EE470AF0EE670A00F08EFF0346002B98
:1041F80007D01D494FF000024FF00003C1E9142316
:1042080011E0194B93ED147B9FED151BB0EE470A97
:10421800F0EE670A0BF012FDB0EE407AF0EE607A2D
:10422800114B83ED147B104BD3E914014FF00002BE
:104238004FF00003FCF7DAFB0346002B1AD00A4BB9
:10424800D3E91423904683F0004940464946FCF7D9
:1042580033FC03469BB25B429BB214E0AFF3008091
:10426800000000000000F0401025002090250020EC
:1042780000000020954BD3E9142310461946FCF79B
:104288001BFC03469BB23B84904BD3E916453B8C01
:104298001846FCF7BFF802460B4620462946FBF7AE
:1042A8007BFF02460B468949C1E91423884B03F575
:1042B8000053B3F91E331A463B8C1344844A253302
:1042C800DB001344D3E900238049C1E91623804B5E
:1042D80003F50053B3F91C331A463B8C13447C4A4C
:1042E8002533DB001344D3E90001784BD3E91623C7
:1042F800FBF752FF02460B4610461946734BD3E9AB
:104308001423FCF701F902460B46104619466F4B79
:10431800D3E91623FBF742FF02460B46C7E90623FB
:104328006B4B03F50053B3F922331A463B8C134405
:10433800674A2533DB001344D3E900236349C1E905
:104348001623634B03F50053B3F920331A463B8C0D
:1043580013445F4A2533DB001344D3E900015B4B68
:10436800D3E91623FBF718FF02460B4610461946F9
:10437800564BD3E91423FCF7C7F802460B46104600
:104388001946524BD3E91623FBF708FF02460B46A2
:10439800C7E904234E4B03F50053B3F828234C4BCD
:1043A80003F50053B3F82A339A4237D9D7E90423DF
:1043B800D7E91001FCF7A8F802460B4614461D463B
:1043C800D7E90623D7E91201FCF79EF802460B4607
:1043D80020462946FBF7E0FE02460B4611463963A4
:1043E80083F000437B63D7E90423D7E91201FCF784
:1043F8008BF802460B4614461D46D7E90623D7E933
:104408001001FCF781F802460B4620462946FBF7C7
:10441800C5FE02460B46C7E90A2333E0D7E9042361
:10442800D7E91201FCF770F802460B4614461D4600
:10443800D7E90623D7E91001FCF766F802460B46D0
:1044480020462946FBF7AAFE02460B46C7E90C237D
:10445800D7E90423D7E91001FCF756F802460B46C2
:1044680014461D46D7E90623D7E91201FCF74CF894
:1044780002460B4620462946FBF78EFE02460B46AF
:10448800C7E90A23114BD3E91201114BD3E91623CB
:10449800FCF7CAFA0346002B06D00D4BD3E91623C6
:1044A8000A49C1E914231BE0084BD3E91201084B60
:1044B800D3E90823FCF79AFA0346002B0AD0044BE9
:1044C800D3E908230149C1E9142309E01025002094
:1044D800000000206F4BD3E912236E49C1E9142371
:1044E8006C4BD3E91401D7E90A23FBF755FE0246C2
:1044F8000B46C7E91223684B03F50253103353E9FF
:104508000201D7E90C23FBF747FE02460B46614937
:10451800C1E916235F4BD3E916015F4B03F502533C
:104528001033D3E90023FBF7EFFF02460B46104692
:1045380019465A4BD3E91223FBF730FE02460B46C5
:104548005449C1E91423534BD3E91401524BD3E91D
:104558001823FCF769FA0346002B05D04E4BD3E924
:104568001823C7E90A2315E04A4BD3E914014A4B3B
:10457800D3E90A23FCF73AFA0346002B05D0464B49
:10458800D3E90A23C7E90A2304E0424BD3E91423F9
:10459800C7E90A23404B03F502531033D3E900015E
:1045A800D7E91223FBF7B0FF02460B46104619461F
:1045B8003A4BD3E91423FBF7F1FD02460B46C7E952
:1045C8001023354BD3E91A23D7E91001FCF72CFA4D
:1045D8000346002B05D0304BD3E91A23C7E90E2335
:1045E80013E02D4BD3E90C23D7E91001FCF7FEF9B2
:1045F8000346002B05D0284BD3E90C23C7E90E232B
:1046080003E0D7E91023C7E90E23234B03F5005332
:10461800B3F82423204B03F50053B3F826339A420A
:104628003ED9D7E90423D7E90E01FBF76DFF02460F
:104638000B4614461D46D7E90623D7E90A01FBF7BE
:1046480063FF02460B4620462946FBF7A7FD0246B4
:104658000B46C7E90C23D7E90423D7E90A01FBF77E
:1046680053FF02460B4614461D46D7E90623D7E9F1
:104678000E01FBF749FF02460B4620462946FBF789
:104688008BFD02460B461146B96283F00043FB627C
:104698003AE000BF102500200000002090250020EF
:1046A800D7E90423D7E90A01FBF72EFF02460B4698
:1046B80014461D46D7E90623D7E90E01FBF724FF68
:1046C80002460B4620462946FBF766FD02460B4686
:1046D800C7E90C23D7E90423D7E90E01FBF714FF38
:1046E80002460B4614461D46D7E90623D7E90A01B8
:1046F800FBF70AFF02460B4620462946FBF74EFD0C
:1047080002460B46C7E90A23B84B03F50253303378
:1047180053E90223D7E90C01FBF7F6FE02460B46E4
:10472800C7E90623B14B03F502533033D3E900231D
:10473800D7E90C01FBF7E8FE02460B46C7E90C2354
:10474800AA4B03F5035353E90223D7E90A01FBF700
:10475800DBFE02460B46C7E90423D7E90C23D7E959
:104768000401FBF719FD02460B46104619469F4BFC
:1047780003F50353D3E90023FBF7C6FE02460B46B5
:10478800C7E90A23D7E90C234FF000004FF00001D6
:10479800FBF702FD02460B4610461946D7E90423EB
:1047A800FBF7FAFC02460B46104619468F4B03F5F9
:1047B8000353103353E90223FBF7A6FE02460B46C8
:1047C800C7E9042397ED0A1B97ED060B0BF0FCFADB
:1047D800B0EE407AF0EE607A97ED041BB0EE470A2F
:1047E800F0EE670A0BF0F0FA55EC104B97ED0A1B48
:1047F80097ED060B0BF010FBB0EE407AF0EE607A06
:1048080097ED041BB0EE470AF0EE670A0BF004FBC5
:1048180053EC102B20462946FBF7C0FC02460B46FA
:1048280010461946714B03F503531033D3E900239F
:10483800FBF76AFE02460B46C7E90C23D7E90C23AF
:10484800D7E90601FBF7AAFC02460B4610461946B3
:10485800664B03F50353203353E90223FBF754FE59
:1048680002460B4610461946604B03F503532033A6
:10487800D3E90023FBF748FE02460B4610461946CB
:104888005A4B03F50353303353E90223FBF73CFE3D
:1048980002460B4610461946544B03F50353303372
:1048A800D3E90023FBF77AFC02460B465049C1E9DD
:1048B8000A23D7E90C23D7E90A01FBF76FFC024664
:1048C8000B4610461946494B03F50353203353E969
:1048D8000223FBF719FE02460B4610461946434BC6
:1048E80003F503532033D3E90023FBF70DFE0246FB
:1048F8000B46104619463D4B03F50353303353E935
:104908000223FBF701FE02460B4610461946374BB9
:1049180003F503533033D3E90023FBF73FFC02468A
:104928000B463349C1E90C23D7E90423D7E90C0125
:10493800FBF734FC02460B46104619462B4B03F591
:104948000353203353E90223FBF7DEFD02460B46EF
:1049580010461946254B03F503532033D3E90023AA
:10496800FBF7D2FD02460B46104619461F4B03F5CE
:104978000353303353E90223FBF7C6FD02460B46C7
:1049880010461946194B03F503533033D3E9002376
:10499800FBF704FC02460B461549C1E90E23134BED
:1049A800D3E91A23D7E91001FCF73EF80346002B98
:1049B8000BD00E4BD3E91A23D7E91001FBF7ECFB18
:1049C80002460B46C7E910231FE0084BD3E90C2326
:1049D800D7E91001FCF71EF80346002B0AD04FF068
:1049E80000024FF00003C7E910230EE0000000208A
:1049F80010250020A24BD3E90C23D7E91001FBF7BF
:104A0800CBFB02460B46C7E910239D4B03F5045325
:104A1800D3E90023D7E91201FBF776FD02460B46DE
:104A2800C7E91223974BD3E91401954BD3E918230F
:104A3800FBF7FAFF0346002B0DD0924BD3E9140184
:104A48008F4BD3E91823FBF7A7FB02460B468D498A
:104A5800C1E914231FE08B4BD3E91401884BD3E938
:104A68000A23FBF7D7FF0346002B07D085494FF0F1
:104A780000024FF00003C1E914230CE0814BD3E995
:104A880014017F4BD3E90A23FBF786FB02460B464A
:104A98007C49C1E914237B4BD3E91601784B03F514
:104AA8000453D3E90023FBF72FFD02460B46754953
:104AB800C1E91623734BD3E91201714BD3E91623CD
:104AC800FBF7B2FF0346002B0DD06E4BD3E9120162
:104AD8006B4BD3E91623FBF75FFB02460B4669498C
:104AE800C1E912231FE0674BD3E91201644BD3E9F4
:104AF8000823FBF78FFF0346002B07D061494FF0CF
:104B080000024FF00003C1E912230CE05D4BD3E92A
:104B180012015B4BD3E90823FBF73EFB02460B4629
:104B28005849C1E91223574BD3E91001544B03F5F7
:104B3800045353E90223FBF7E7FC02460B465149AD
:104B4800C1E910234F4BD3E912014D4B03F5045330
:104B5800203353E90223FBF767FF0346002B07D0F6
:104B6800474B03F5005393F8363387F8263006E0B1
:104B7800434B03F5005393F8373387F82630414BFE
:104B8800D3E910013E4B03F50453203353E90223C4
:104B9800FBF74AFF0346002B07D0394B03F50053B8
:104BA80093F8383387F8273006E0354B03F5005380
:104BB80093F8393387F82730314B03F50453203302
:104BC80053E902012F4BD3E91223FBF705FF0346F4
:104BD800002B0BD197F9262097F927309A4205D157
:104BE800274BD3E934232749C1E91023264BD3E9BE
:104BF8001045234BD3E93E01224BD3E91023FBF7A1
:104C080083FC02460B4620462946FBF7C7FA0246B4
:104C18000B461D49C1E910231A4BD3E91401184B5F
:104C280003F504531033D3E90023FBF7FDFE0346D5
:104C3800002B07D0124B03F5005393F8323387F853
:104C4800263006E00E4B03F5005393F8333387F80C
:104C580026300C4BD3E91601094B03F504531033E6
:104C6800D3E90023FBF7E0FE0346002B0ED0044BEC
:104C780003F5005393F8343387F827300DE000BF6D
:104C8800000000201025002090250020664B03F529
:104C9800005393F8353387F82730634B03F50453F3
:104CA8001033D3E90001614BD3E91423FBF794FED9
:104CB8000346002B0BD197F9262097F927309A4203
:104CC80005D1594BD3E932235849C1E91623584B2A
:104CD800D3E91245544B03F50253203353E902013B
:104CE800524BD3E91623FBF70FFC02460B4620462E
:104CF8002946FBF753FA02460B464D49C1E91223F0
:104D0800494B03F50453103353E90223D7E9100143
:104D1800FBF78AFE0346002B07D0434B03F50053ED
:104D280093F82E3387F8263006E03F4B03F50053FF
:104D380093F82F3387F826303B4B03F50453103391
:104D480053E90223D7E91201FBF76EFE0346002B55
:104D580007D0354B03F5005393F8303387F82730E5
:104D680006E0314B03F5005393F8313387F82730C9
:104D78002D4B03F50453103353E90223D7E91001EF
:104D8800FBF72AFE0346002B0AD197F9262097F94C
:104D980027309A4204D1244BD3E93023C7E91223A0
:104DA800234BD3E91445204B03F502532033D3E9B1
:104DB8000001D7E91223FBF7A7FB02460B46204662
:104DC8002946FBF7EBF902460B461949C1E91423BA
:104DD800174B042283F85C20164BDB6B1846FBF755
:104DE80019FB0FA3D3E90023FBF78EFB02460B4602
:104DF8001149C1E90023104B93ED007BB0EE470A3F
:104E0800F0EE670A0220FDF739F8BFF36F8F00BF95
:104E1800BFF34F8F00BF00BF5837BD46BDE8B08F06
:104E28002D431CEBE236FA3E00000020102500203E
:104E380090250020F82500200825002080B500AF27
:104E48001220FDF73DF900BF80BD00000000000002
:104E580080B584B000AF4FF000024FF00003C7E9FF
:104E68000223414B1B785A1CD1B23F4A1170002BC8
:104E780009D03E4B01221A603B4B1B78013BDAB24A
:104E8800394B1A7066E03B1D1846FDF797FB62B672
:104E980000BF374B1B68D3E90823C7E90223FDF796
:104EA800F7FD97ED020B0020FCF7E8FF72B600BF94
:104EB8002D4B1B78013BDAB22B4B1A707B79002BF8
:104EC80011D02C4B5B785A1CD1B22A4A5170002B56
:104ED80009D0264B01221A60264B5B78013BDAB2D7
:104EE800244B5A7036E0234B5B78002B32D01E4B94
:104EF8005B78002B2DD11C4B5B780133DAB21A4B4F
:104F08005A7062B600BF1A4B1B689B6B1846FBF7BA
:104F180081FA13A3D3E90023FBF7F6FA02460B46FE
:104F2800C7E90223FEF702FD97ED020B0120FCF70B
:104F3800A5FF00BF72B600BF0E4B5B78013BDAB22B
:104F48000C4B5A70084B5B78013BDAB2064B5A702F
:104F580000E000BF1037BD4680BD00BFAFF3008042
:104F68009A9999999999B93FD4260020D02600207A
:104F780088410108D826002080B586B000AF786047
:104F880039605B4B7B615B4B3B610023FB735A4B86
:104F980000221A70594B00221A7001DF09F082FDB5
:104FA80008F002FB06F0B6F908F0D4FD08F0A6FDFB
:104FB80008F022FD08F054FC08F046FB504B1B6833
:104FC80000221A6000210020FCF74EFE0346FB7306
:104FD80097F90F30002B02D097F90F3084E0FEF7D5
:104FE80063FEFEF71DFD72B600BF62B600BF444BFC
:104FF8001B685A68424B1B68483319461046FCF731
:1050080043FE0346FB7397F90F30002B0DD14FF089
:10501800FF30FCF7CDFEFCF7DFFF0346002B04D082
:10502800374B1B68012283F8502072B600BF97EDFA
:10503800050A06F063FAFCF7DBFF0346002B0CD1E8
:10504800FCF7CAFF0346002B07D12D4B1B6893F8CA
:105058005030002B01D1012300E00023DAB2274BA6
:105068001A7062B600BF62B600BF2FE0FCF784FF7B
:105078000346FB73FCF7BCFF0346002B0AD1FCF781
:10508800ABFF0346002B05D11D4B1B6893F850302E
:10509800002B01D0012300E00023DAB2164B1A706E
:1050A800154B1B78DBB2002B0CBF01230023DBB2AE
:1050B8001A46124B1A70104B1B78DBB2002B05D026
:1050C800104B1B680F4A23F0010313600B4B1B782E
:1050D800DBB2002BCAD1FEF79FFDFCF75DFFFFF79F
:1050E800ADFE72B600BF002318461837BD4680BD16
:1050F80017B7D1370000A842DA260020DB260020A7
:105108008841010810E000E080B582B000AF87ED6B
:10511800000B0D4BD3E90023D7E90001FBF75CFC3A
:105128000346002B09D1094BD3E90023D7E9000135
:10513800FBF752FC0346002B01D0012300E00023BB
:1051480018460837BD4680BD48230020502300205C
:1051580080B582B000AF87ED000BD7E90023D7E90F
:105168000001FBF76BFC0346002B01D0012300E094
:10517800002318460837BD4680BD0FB480B400AF81
:1051880000BFBD465DF8047B04B0704780B485B0AD
:1051980000AFF860B9607A60FB68BA681A60FB68AB
:1051A80004337A681A6000BF1437BD465DF8047B83
:1051B8007047000000000000F0B58BB000AF87ED2D
:1051C800020B0346FB80FB88002B77D14FF00002CF
:1051D800414BD7E90201FBF797F902460B46C7E9AD
:1051E80006239FED391B97ED060B0AF027FD53ECBC
:1051F800102B10461946FBF75FFC03467B61002322
:105208007B6233A3D3E90023D7E90601FBF70CFC43
:105218000346002B0ED02EA3D3E90023D7E90601BD
:10522800FBF79CFA02460B4610461946FBF744FC6E
:1052380003467B627A6A79692848FFF7A7FF284BFB
:10524800D3E900014FF00002264BFBF7C5FB0346EC
:10525800002B2ED1224BD3E900014FF000024FF072
:105268004043FBF7B9FB0346002B22D11C4BD3E983
:105278000001D7E90223FAF78FFF02460B461446CE
:105288001D464FF00002184BD7E90201FBF73CF925
:1052980002460B4601210E4620462946FBF7A6FB8F
:1052A8000346002B01D100231E46F3B21A460F4BCA
:1052B8001A700F49D7E90223C1E9002300BF2C3730
:1052C800BD46F0BDAFF30080000000000000F041D3
:1052D8000000E0FFFFFFEF4100408F400027002063
:1052E800582300200000F0BF0000B03CF426002046
:1052F8000827002080B584B000AF0023BB600023DE
:105308007B600023FB731F494FF000024FF000033E
:10531800C1E900233A1D07F108031146184605F0B4
:10532800B3FFBB687A681146184604F0D3F8034601
:10533800FB7397F90F30002B05D01348FFF71DFFBB
:1053480097F90F301AE03A1D07F10803114618467D
:1053580005F0B1FFBB687A681146184600F054FFA3
:105368000346FB7397F90F30002B05D097F90F30E0
:1053780019460648FFF701FF97F90F30184610370E
:10538800BD4680BDF8260020BC1B0108E41B0108AF
:1053980080B584B000AF0346FB710023FB73002384
:1053A800BB73002005F09EFF00237B7304F060FAB6
:1053B8000346FB7397F90F30002B0DD097F90F3088
:1053C80013F1020F08D097F90F3019463C48FFF740
:1053D800D4FE0123BB730BE07B7B002B04D197F930
:1053E8000F3013F1020F01D0012300E000237B737B
:1053F800BB7B002B21D100F039FF0346FB7397F9E3
:105408000F30002B0DD097F90F3013F1020F08D091
:1054180097F90F3019462B48FFF7AFFE0123BB73EE
:105428000BE07B7B002B04D197F90F3013F1020FAF
:1054380001D0012300E000237B73BB7B002B21D12B
:1054480004F0A0F90346FB7397F90F30002B0DD039
:1054580097F90F3013F1020F08D097F90F3019465A
:105468001948FFF78AFE0123BB730BE07B7B002BF7
:1054780004D197F90F3013F1020F01D0012300E096
:1054880000237B73FB79002B0DD0002005F02AFF49
:10549800BB7B002B02D17B7B002B01D1012300E0D9
:1054A8000023BB7301E00123BB73BB7B002B3FF4DC
:1054B8007BAF97F90F3018461037BD4680BD00BF47
:1054C8000C1C0108441C0108741C010880B582B03A
:1054D80000AF0023BB70394B1B78DBB2002B02D026
:1054E800002000F0E1FF00F0B3FF0346FB7000234B
:1054F8007B600EE00A2005F0F5FE7B6803F51C537F
:1055080010337B600120FFF743FF00F0A1FF034643
:10551800FB707B682A4A934202D8FB78002BE9D1BA
:1055280000F0A2FF0346BB7097F90230002B05D0AC
:1055380097F9023019462348FFF71FFE04F012FBC3
:105548000346BB7097F90230002B05D097F902305B
:1055580019461D48FFF711FE1C4B00221A701C4B00
:1055680000221A701B4B00221A601B4B00221A6083
:105578001A4B00221A601A4B00221A60194B00229B
:105588001A6019494FF000024FF04043C1E9002367
:105598000A4B00221A700822002114480CF05EF908
:1055A80013494FF000024FF00003C1E9002397F9B7
:1055B800023018460837BD4680BD00BFF4260020DB
:1055C800FF2C3101AC1C0108C81C0108DC26002096
:1055D800DD260020E0260020E4260020E826002022
:1055E800EC260020F0260020582300200027002069
:1055F8000827002080B586B000AF614B1B687B612F
:105608007B69002B00F0B8805E4B1B78DBB2002B67
:1056180004D15B4B1B68002B00F0AE805A4B1B7803
:10562800DBB2022B40F0A880584B1B78002B40F0CF
:10563800A3807B69D3E90023C7E90223544B1B7875
:10564800002B00F08A80534B1B78DBB2002B04D070
:10565800504B1B78DBB2022B01D1012300E0002361
:10566800FB714C4B1B78DBB2012B04D0494B1B78E8
:10567800DBB2022B01D1012300E00023BB71FB79CF
:10568800002B33D0444BD3E90023D7E90201FBF7C1
:10569800C1F90346002B0AD0404BD3E900013E4B29
:1056A800D3E90023FBF7A2F90346002B14D13A4BA8
:1056B800D3E90023D7E90201FBF7B6F90346002B2B
:1056C80014D0364BD3E90001334BD3E90023FBF761
:1056D80083F90346002B09D0314B1B68002B02D1FC
:1056E800304B01221A70294B01221A70BB79002B0A
:1056F80033D0294BD3E90023D7E90201FBF776F928
:105708000346002B0AD0254BD3E90001224BD3E9ED
:105718000023FBF77FF90346002B14D11E4BD3E976
:105728000023D7E90201FBF757F90346002B14D0F1
:105738001A4BD3E90001184BD3E90023FBF774F99E
:105748000346002B09D0164B1B68002B02D1154BC2
:1057580001221A700D4B01221A700C4B1B78002B7A
:105768000CBF01230023DBB21A46094B1A700B4900
:10577800D7E90223C1E9002300BF1837BD4680BD21
:105788001427002018270020342700204327002052
:10579800402700203027002020270020382700201D
:1057A8002C2700204227002080B582B000AF0023BC
:1057B800FB719E4B1B78DBB2002B18D19C4B00224F
:1057C8001A709C4B00221A709B4B1B78DBB2002B83
:1057D8002DD0964B02221A70974B00221A70974BC5
:1057E8001B78DBB2002B22D10123FB711FE0924B07
:1057F80000221A708E4B1B78DBB2002B09D0904B1D
:1058080000221A70894B00221A70894B00221A70E4
:105818000DE08A4B1B78DBB2002B02D10123FB7110
:1058280005E0844B1B78FB71824B00221A707F4B7A
:105838001B78DBB2042B00F2D78001A252F823F0C8
:105848005D58000897590008775800084B59000818
:10585800D5580008784B1B78DBB2002B00F0D880B5
:10586800724B02221A70744B00221A70D0E0FB7936
:10587800002B00F0CF80734B1B68002B0DDD6F4BA6
:105888001B78DBB2012B08D16E4B1B681A466E4B96
:105898001A60664B03221A70BCE06C4B1B68002B25
:1058A8000AD0674B01221A70684B1B68664A13605E
:1058B8005E4B04221A70ADE06548FFF75EFC604B52
:1058C80000221A70594B00221A70A3E05E4B1B6825
:1058D800002B04D05C4B1B68013B5B4A13605A4B9E
:1058E8001B68002B40F098805A4B1B78DBB2012BC9
:1058F80006D1534B00221A704C4B00221A708BE0D1
:10590800554B1B68002B0AD04D4B00221A70524B86
:105918001B684D4A1360454B01221A707CE0FB79E5
:10592800002B07D0494B1B68474A13603F4B0422A2
:105938001A7071E0424B00221A703C4B02221A7016
:105948006AE0414B1B68002B04D03F4B1B68013BAE
:105958003D4A13603C4B1B68002B5FD13B4B1B68D7
:10596800002B0AD0364B01221A70384B1B68364A76
:1059780013602E4B04221A7050E03548FFF7FDFBE8
:105988002F4B00221A70294B00221A7046E02E4B2A
:105998001B68002B04D02C4B1B68013B2A4A136060
:1059A800294B1B68002B3BD1FB79002B18D0274BC8
:1059B8001B68002B0AD0224B01221A70234B1B684C
:1059C800214A1360194B04221A7029E02048FFF776
:1059D800D4FB1B4B00221A70144B00221A701FE0D4
:1059E800124B02221A701BE0104B1B78DBB21946CF
:1059F8001A48FFF7C2FB124B00221A700D4B002207
:105A08001A700B4B00221A70084B00221A7008E01B
:105A180000BF06E000BF04E000BF02E000BF00E0F6
:105A280000BF00BF0837BD4680BD00BF3427002037
:105A3800312700204327002064230020322700203C
:105A4800422700202C270020442700206023002024
:105A5800EC1C01083327002028270020141D01080A
:105A680080B400AF10494FF000024FF00003C1E9C5
:105A780000230E4B00221A700D4B1B78DAB20D4B27
:105A88001A700D4B00221A700C4B00221A700C4B26
:105A980000221A600B4B00221A7000231846BD46DC
:105AA8005DF8047B704700BF38270020402700209E
:105AB80032270020412700204227002043270020CA
:105AC800442700203427002080B584B000AF034667
