:020000040800F2
:1000000000800120198A00087F6A0008856A0008BC
:100010008B6A0008916A0008976A000800000000D7
:100020000000000000000000000000008D550008E6
:100030009D6A00080000000049550008715400083E
:10004000698A0008698A0008698A0008698A0008C4
:10005000698A0008698A0008698A0008698A0008B4
:10006000698A0008698A0008698A0008698A0008A4
:10007000698A0008698A0008698A0008698A000894
:10008000AB6A0008698A0008C1450008000000004A
:10009000000000000000000000000000698A000865
:1000A000698A0008698A0008698A0008698A000864
:1000B000698A0008698A0008698A0008698A000854
:1000C000698A0008698A0008698A0008698A000844
:1000D000698A0008698A000871240008000000008D
:1000E000DD3F0008698A0008698A000800000000F6
:1000F000000000000000000000000000698A000805
:1001000000000000698A0008B96A0008698A0008CE
:1001100000000000000000000000000000000000DF
:10012000CD6A0008698A0008698A0008698A00089F
:10013000698A0008000000000000000000000000C4
:10014000000000000000000000000000698A0008B4
:10015000698A0008698A0008698A0008698A0008B3
:10016000698A0008698A0008000000000000000099
:10017000000000000000000000000000000000007F
:1001800000000000698A0008000000000000000074
:04019000698A000870
:1001980081F0004102E000BF83F0004330B54FEA30
:1001A80041044FEA430594EA050F08BF90EA020F9D
:1001B8001FBF54EA000C55EA020C7FEA645C7FEA30
:1001C800655C00F0E2804FEA5454D4EB5555B8BF53
:1001D8006D420CDD2C4480EA020281EA030382EAC4
:1001E800000083EA010180EA020281EA0303362D56
:1001F80088BF30BD11F0004F4FEA01314FF4801C29
:100208004CEA113102D0404261EB410113F0004F3A
:100218004FEA03334CEA133302D0524263EB4303F1
:1002280094EA050F00F0A780A4F10104D5F1200E8F
:100238000DDB02FA0EFC22FA05F2801841F10001EA
:1002480003FA0EF2801843FA05F359410EE0A5F1BE
:1002580020050EF1200E012A03FA0EFC28BF4CF0EF
:10026800020C43FA05F3C01851EBE37101F00045A5
:1002780007D54FF0000EDCF1000C7EEB00006EEBB2
:100288000101B1F5801F1BD3B1F5001F0CD349083C
:100298005FEA30004FEA3C0C04F101044FEA445293
:1002A80012F5800F80F09A80BCF1004F08BF5FEA1A
:1002B800500C50F1000041EB045141EA050130BDFA
:1002C8005FEA4C0C404141EB0101013C28BFB1F50C
:1002D800801FE9D291F0000F04BF01460020B1FA57
:1002E80081F308BF2033A3F10B03B3F120020CDA2A
:1002F8000C3208DD02F1140CC2F10C0201FA0CF008
:1003080021FA02F10CE002F11402D8BFC2F1200C6C
:1003180001FA02F120FA0CFCDCBF41EA0C01904022
:10032800E41AA2BF01EB0451294330BD6FEA04046B
:100338001F3C1CDA0C340EDC04F11404C4F1200256
:1003480020FA04F001FA02F340EA030021FA04F368
:1003580045EA030130BDC4F10C04C4F1200220FABF
:1003680002F001FA04F340EA0300294630BD21FAFD
:1003780004F0294630BD94F0000F83F4801306BFC3
:1003880081F480110134013D4EE77FEA645C18BFB7
:100398007FEA655C29D094EA050F08BF90EA020F4E
:1003A80005D054EA000C04BF1946104630BD91EA46
:1003B800030F1EBF0021002030BD5FEA545C05D149
:1003C8004000494128BF41F0004130BD14F5800488
:1003D8003CBF01F5801130BD01F0004545F0FE41FC
:1003E80041F470014FF0000030BD7FEA645C1ABF31
:1003F800194610467FEA655C1CBF0B46024650EA68
:10040800013406BF52EA033591EA030F41F4002193
:1004180030BD00BF90F0000F04BF0021704730B519
:100428004FF4806404F132044FF000054FF00001EE
:1004380050E700BF90F0000F04BF0021704730B5AF
:100448004FF4806404F1320410F0004548BF404284
:100458004FF000013EE700BF42004FEAE2014FEAD9
:1004680031014FEA02701FBF12F07F4393F07F4FB4
:1004780081F06051704732F07F4208BF704793F0B7
:100488007F4F04BF41F40021704730B54FF46074CA
:1004980001F0004521F000411CE700BF50EA0102CD
:1004A80008BF704730B54FF000050AE050EA010276
:1004B80008BF704730B511F0004502D5404261EBE6
:1004C80041014FF4806404F132045FEA915C3FF427
:1004D800D8AE4FF003025FEADC0C18BF03325FEAC4
:1004E800DC0C18BF033202EBDC02C2F1200300FA75
:1004F80003FC20FA02F001FA03FE40EA0E0021FA9A
:1005080002F11444BDE600BF70B54FF0FF0C4CF487
:10051800E06C1CEA11541DBF1CEA135594EA0C0F39
:1005280095EA0C0F00F0DEF82C4481EA030621EA74
:100538004C5123EA4C5350EA013518BF52EA0335AF
:1005480041F4801143F4801338D0A0FB02CE4FF061
:100558000005E1FB02E506F00042E0FB03E54FF091
:100568000006E1FB03569CF0000F18BF4EF0010E89
:10057800A4F1FF04B6F5007F64F5407404D25FEA85
:100588004E0E6D4146EB060642EAC62141EA555138
:100598004FEAC52040EA5E504FEACE2EB4F1FD0C7A
:1005A80088BFBCF5E06F1ED8BEF1004F08BF5FEAF8
:1005B800500E50F1000041EB045170BD06F00046AA
:1005C80046EA010140EA020081EA0301B4EB5C0457
:1005D800C2BFD4EB0C0541EA045170BD41F480114F
:1005E8004FF0000E013C00F3AB8014F1360FDEBF74
:1005F800002001F0004170BDC4F10004203C35DA50
:100608000C341BDC04F11404C4F1200500FA05F3D2
:1006180020FA04F001FA05F240EA020001F0004273
:1006280021F0004110EBD37021FA04F642EB0601E9
:100638005EEA430E08BF20EAD37070BDC4F10C0413
:10064800C4F1200500FA04F320FA05F001FA04F2D7
:1006580040EA020001F0004110EBD37041F10001C3
:100668005EEA430E08BF20EAD37070BDC4F12005CE
:1006780000FA05F24EEA020E20FA04F301FA05F236
:1006880043EA020321FA04F001F0004121FA04F2DE
:1006980020EA020000EBD3705EEA430E08BF20EAAE
:1006A800D37070BD94F0000F0FD101F000464000E8
:1006B80041EB010111F4801F08BF013CF7D041EA6A
:1006C800060195F0000F18BF704703F0004652006E
:1006D80043EB030313F4801F08BF013DF7D043EA3F
:1006E8000603704794EA0C0F0CEA135518BF95EAF5
:1006F8000C0F0CD050EA410618BF52EA4306D1D17C
:1007080081EA030101F000414FF0000070BD50EA9A
:10071800410606BF1046194652EA430619D094EA24
:100728000C0F02D150EA013613D195EA0C0F05D10E
:1007380052EA03361CBF104619460AD181EA030162
:1007480001F0004141F0FE4141F470014FF000001A
:1007580070BD41F0FE4141F4780170BD70B54FF0B5
:10076800FF0C4CF4E06C1CEA11541DBF1CEA135535
:1007780094EA0C0F95EA0C0F00F0A7F8A4EB050417
:1007880081EA030E52EA03354FEA013100F088800E
:100798004FEA03334FF0805545EA131343EA1263D7
:1007A8004FEA022245EA111545EA10654FEA00268C
:1007B8000EF000419D4208BF964244F1FD0404F545
:1007C800407402D25B084FEA3202B61A65EB0305A1
:1007D8005B084FEA32024FF480104FF4002CB6EB5E
:1007E800020E75EB030E22BFB61A754640EA0C00DE
:1007F8005B084FEA3202B6EB020E75EB030E22BF1E
:10080800B61A754640EA5C005B084FEA3202B6EB5E
:10081800020E75EB030E22BFB61A754640EA9C001D
:100828005B084FEA3202B6EB020E75EB030E22BFED
:10083800B61A754640EADC0055EA060E18D04FEAAB
:10084800051545EA16754FEA06164FEAC30343EA4B
:1008580052734FEAC2025FEA1C1CC0D111F4801F18
:100868000BD141EA00014FF000004FF0004CB6E711
:1008780011F4801F04BF01430020B4F1FD0C88BFB0
:10088800BCF5E06F3FF6AFAEB5EB030C04BFB6EBBB
:10089800020C5FEA500C50F1000041EB045170BDAE
:1008A8000EF0004E4EEA113114EB5C04C2BFD4EBDB
:1008B8000C0541EA045170BD41F480114FF0000E5F
:1008C800013C90E645EA060E8DE60CEA135594EADB
:1008D8000C0F08BF95EA0C0F3FF43BAF94EA0C0FDE
:1008E8000AD150EA01347FF434AF95EA0C0F7FF453
:1008F80025AF104619462CE795EA0C0F06D152EAA7
:1009080003353FF4FDAE1046194622E750EA41068A
:1009180018BF52EA43067FF4C5AE50EA41047FF49B
:100928000DAF52EA43057FF4EBAE12E74FF0FF3C00
:1009380006E000BF4FF0010C02E000BF4FF0010CD1
:100948004DF804CD4FEA410C7FEA6C5C4FEA430C4A
:1009580018BF7FEA6C5C1BD001B050EA410C0CBF99
:1009680052EA430C91EA030F02BF90EA020F0020FB
:10097800704710F1000F91EA030F58BF994208BF62
:1009880090422CBFD8176FEAE37040F0010070471F
:100998004FEA410C7FEA6C5C02D150EA013C07D176
:1009A8004FEA430C7FEA6C5CD6D152EA033CD3D0C1
:1009B8005DF8040B704700BF8446104662468C46BB
:1009C8001946634600E000BF01B5FFF7B7FF0028EE
:1009D80048BF10F1000F01BD4DF808EDFFF7F4FF17
:1009E8000CBF012000205DF808FB00BF4DF808EDA2
:1009F800FFF7EAFF34BF012000205DF808FB00BFC5
:100A08004DF808EDFFF7E0FF94BF012000205DF8E6
:100A180008FB00BF4DF808EDFFF7CEFF94BF01209B
:100A280000205DF808FB00BF4DF808EDFFF7C4FF94
:100A380034BF012000205DF808FB00BF4FEA410CDD
:100A48007FEA6C5C02D150EA013C0AD14FEA430CC0
:100A58007FEA6C5C02D152EA033C02D14FF00000FD
:100A680070474FF0010070474A0011D212F500128A
:100A780011D20DD56FF47873B3EB62520ED44FEAEE
:100A8800C12343F0004343EA505323FA02F070476E
:100A98004FF00000704750EA013002D14FF0FF30AC
:100AA80070474FF0000070474FEA4102B2F1E0434F
:100AB80024BFB3F5001CDCF1FE5C0DD901F0004C3D
:100AC8004FEAC0024CEA5070B2F1004F40EB83008D
:100AD80008BF20F00100704711F0804F21D113F1B9
:100AE8003872BCBF01F00040704741F480114FEAF2
:100AF8005252C2F11802C2F1200C10FA0CF320FA7B
:100B080002F018BF40F001004FEAC1234FEAD32397
:100B180003FA0CFC40EA0C0023FA02F34FEA430301
:100B2800CCE77FEA625307D150EA01331EBF4FF08A
:100B3800FE4040F44000704701F0004040F0FE40A5
:100B480040F40000704700BF53B94AB9002908BFF4
:100B580000281CBF4FF0FF314FF0FF3000F00CB8F9
:100B6800ADF1080C6DE904CE08F042FBDDF804E0B5
:100B7800DDE9022304B07047704700BF0348044B07
:100B8800834202D0034B03B118477047E812002094
:100B9800E8120020000000000548064B1B1AD90F78
:100BA80001EBA301491002D0034B03B1184770476A
:100BB800E8120020E81200200000000010B5064CE2
:100BC800237843B9FFF7DAFF044B13B10448AFF3B6
:100BD80000800123237010BDE812002000000000EF
:100BE8004095000808B5054B1BB105490548AFF30A
:100BF8000080BDE80840FFF7CFBF00BF000000003D
:100C0800EC1200204095000880B485B000AF7860F1
:100C18007B681B6803F06003FB60FB68002B04D152
:100C28007B681B6803F01003FB60FB6818461437E9
:100C3800BD465DF8047B704780B483B000AF786030
:100C48007B685B6A18460C37BD465DF8047B7047C5
:100C580080B483B000AF78607B681B6B18460C3794
:100C6800BD465DF8047B704780B483B000AF786000
:100C780039607B681A6A3B681A437B681A6200BF4E
:100C88000C37BD465DF8047B704780B483B000AF75
:100C9800786039607B681A6A3B68DB431A407B6876
:100CA8001A6200BF0C37BD465DF8047B704780B4FC
:100CB80083B000AF78607B685B6C43F400427B686C
:100CC8005A6400BF0C37BD465DF8047B704780B49A
:100CD80083B000AF78607B68DB6843F001027B6813
:100CE800DA6000BF0C37BD465DF8047B704780B4FE
:100CF80083B000AF78607B68DB6823F001027B6813
:100D0800DA6000BF0C37BD465DF8047B704780B4DD
:100D180083B000AF78607B68DB6803F00103012BC8
:100D280001D1012300E0002318460C37BD465DF8C9
:100D3800047B704780B483B000AF78607B68DB6861
:100D480043F002027B68DA6000BF0C37BD465DF8ED
:100D5800047B704780B483B000AF78607B68DB6841
:100D680023F002027B68DA6000BF0C37BD465DF8ED
:100D7800047B704780B483B000AF78607B68DB6821
:100D880003F00203022B01D1012300E000231846DF
:100D98000C37BD465DF8047B704780B483B000AF64
:100DA80078607B68DB6843F004027B68DA6000BF28
:100DB8000C37BD465DF8047B704780B483B000AF44
:100DC80078607B68DB6823F004027B68DA6000BF28
:100DD8000C37BD465DF8047B704780B483B000AF24
:100DE80078607B68DB6803F00403042B01D10123DE
:100DF80000E0002318460C37BD465DF8047B7047B9
:100E080080B483B000AF78607B68DB6843F0080289
:100E18007B68DA6000BF0C37BD465DF8047B70471D
:100E280080B483B000AF78607B68DB6823F0080289
:100E38007B68DA6000BF0C37BD465DF8047B7047FD
:100E480080B483B000AF78607B68DB6803F0080388
:100E5800082B01D1012300E0002318460C37BD46BA
:100E68005DF8047B704780B483B000AF78607B681E
:100E7800DB6843F010027B68DA6000BF0C37BD46C0
:100E88005DF8047B704780B483B000AF78607B68FE
:100E9800DB6823F010027B68DA6000BF0C37BD46C0
:100EA8005DF8047B704780B483B000AF78607B68DE
:100EB800DB6803F01003102B01D1012300E00023AD
:100EC80018460C37BD465DF8047B704780B483B084
:100ED80000AF78607B68DB6843F020027B68DA60EB
:100EE80000BF0C37BD465DF8047B704780B483B003
:100EF80000AF78607B68DB6823F020027B68DA60EB
:100F080000BF0C37BD465DF8047B704780B483B0E2
:100F180000AF78607B68DB6803F02003202B01D1E9
:100F2800012300E0002318460C37BD465DF8047B1A
:100F3800704780B483B000AF78607B68DB6843F0AB
:100F480040027B68DA6000BF0C37BD465DF8047B61
:100F5800704780B483B000AF78607B68DB6823F0AB
:100F680040027B68DA6000BF0C37BD465DF8047B41
:100F7800704780B483B000AF78607B68DB6803F0AB
:100F88004003402B01D1012300E0002318460C3711
:100F9800BD465DF8047B704780B483B000AF7860CD
:100FA8007B68DB6843F080027B68DA6000BF0C373F
:100FB800BD465DF8047B704780B483B000AF7860AD
:100FC8007B68DB6823F080027B68DA6000BF0C373F
:100FD800BD465DF8047B704780B483B000AF78608D
:100FE8007B68DB6803F08003802B01D1012300E0DC
:100FF800002318460C37BD465DF8047B704780B562
:1010080082B000AF78600B467B807B8803F00103D9
:10101800002B0CD07B681B681846FFF7AAFF034615
:10102800012B04D07B681B681846FFF782FF7B887A
:1010380003F00203002B0CD07B681B681846FFF7EF
:1010480099FE0346012B04D07B681B681846FFF7FE
:1010580071FE7B8803F00403002B0CD07B681B68AF
:101068001846FFF7BAFE0346012B04D07B681B68BD
:101078001846FFF792FE7B8803F00803002B0CD07C
:101088007B681B681846FFF7DBFE0346012B04D07C
:101098007B681B681846FFF7B3FE7B8803F01003D4
:1010A800002B0CD07B681B681846FFF7FCFE034634
:1010B800012B04D07B681B681846FFF7D4FE7B8899
:1010C80003F02003002B0CD07B681B681846FFF741
:1010D8001EFE0346012B04D07B681B681846FFF7E9
:1010E800F6FD7B8803F04003002B0CD07B681B685F
:1010F8001846FFF771FF0346012B04D07B681B6875
:101108001846FFF749FF7B8803F08003002B0CD0BB
:101118007B681B681846FFF7F9FE0346012B04D0CD
:101128007B681B681846FFF7D1FE00BF0837BD462D
:1011380080BD80B582B000AF78600B467B807B882D
:1011480003F00103002B0CD07B681B681846FFF7DF
:1011580010FF0346012B04D17B681B681846FFF774
:10116800F8FE7B8803F00203002B0CD07B681B6819
:101178001846FFF7FFFD0346012B04D17B681B6867
:101188001846FFF7E7FD7B8803F00403002B0CD01B
:101198007B681B681846FFF720FE0346012B04D125
:1011A8007B681B681846FFF708FE7B8803F0080376
:1011B800002B0CD07B681B681846FFF741FE0346DE
:1011C800012B04D17B681B681846FFF729FE7B8832
:1011D80003F01003002B0CD07B681B681846FFF740
:1011E80062FE0346012B04D17B681B681846FFF793
:1011F8004AFE7B8803F02003002B0CD07B681B6819
:101208001846FFF784FD0346012B04D07B681B6852
:101218001846FFF76CFD7B8803F04003002B0CD0C9
:101228007B681B681846FFF7D7FE0346012B04D1DD
:101238007B681B681846FFF7BFFE7B8803F08003B6
:10124800002B0CD07B681B681846FFF75FFE03462F
:10125800012B04D17B681B681846FFF747FE00BFC7
:101268000837BD4680BD000080B582B000AF786009
:101278000B46FB70FB78022B06D17B681B680121AB
:101288001846FFF7F1FC1DE07B681B680F4A934284
:1012980018D1FB78032B06D17B681B6804211846FC
:1012A800FFF7E2FC0EE0FB78042B0BD17B681B6890
:1012B80001211846FFF7D8FC7B681B6804211846F3
:1012C800FFF7D2FC00BF0837BD4680BD00000140D3
:1012D80080B582B000AF78600B46FB70FB78022BBC
:1012E80006D17B681B6801211846FFF7CEFC1DE07C
:1012F8007B681B680F4A934218D1FB78032B06D1F1
:101308007B681B6804211846FFF7BFFC0EE0FB78DA
:10131800042B0BD17B681B6801211846FFF7B5FC2D
:101328007B681B6804211846FFF7AFFC00BF08372D
:10133800BD4680BD0000014080B582B000AF786036
:101348000B46FB70FB78022B06D17B681B681021CB
:101358001846FFF789FC1DE07B681B680F4A93421B
:1013680018D1FB78032B06D17B681B6840211846EF
:10137800FFF77AFC0EE0FB78042B0BD17B681B6827
:1013880010211846FFF770FC7B681B68402118463F
:10139800FFF76AFC00BF0837BD4680BD000001406A
:1013A80080B582B000AF78600B46FB70FB78022BEB
:1013B80006D17B681B6810211846FFF766FC1DE004
:1013C8007B681B680F4A934218D1FB78032B06D120
:1013D8007B681B6840211846FFF757FC0EE0FB7836
:1013E800042B0BD17B681B6810211846FFF74DFCB6
:1013F8007B681B6840211846FFF747FC00BF083789
:10140800BD4680BD0000014080B582B000AF786065
:101418000B46FB70FB78022B07D17B681B684FF4E7
:1014280080711846FFF720FC20E07B681B68114A92
:1014380093421BD1FB78032B07D17B681B684FF4C1
:1014480080611846FFF710FC10E0FB78042B0DD1E3
:101458007B681B684FF480711846FFF705FC7B68B2
:101468001B684FF480611846FFF7FEFB00BF083782
:10147800BD4680BD0000014080B582B000AF7860F5
:101488000B46FB70FB78022B07D17B681B684FF477
:1014980080711846FFF7F9FB20E07B681B68114A4A
:1014A80093421BD1FB78032B07D17B681B684FF451
:1014B80080611846FFF7E9FB10E0FB78042B0DD19B
:1014C8007B681B684FF480711846FFF7DEFB7B686A
:1014D8001B684FF480611846FFF7D7FB00BF083739
:1014E800BD4680BD0000014080B584B000AF786083
:1014F8000023FB607B681B68204A934202D1204B83
:10150800FB6006E07B681B68B3F1804F01D11D4B7F
:10151800FB607B681A68FB681A60FB681B681846E2
:10152800FFF772FBB860BB68002B06D0BB68102BB6
:1015380003D0FB6801221A7102E0FB6800221A71CD
:10154800FB681B680D4A934204D1FB681B68184668
:10155800FFF7ADFBFB681B68084A934208D17B681C
:101568001B681846FFF774FB0346DAB2FB685A712A
:10157800FB6818461037BD4680BD00BF000001401B
:10158800041300209013002080B582B000AF78606B
:101598007B681B681846FFF74FFB03461846083759
:1015A800BD4680BD80B483B000AF786039607B6889
:1015B800DB6A23F470023B681A437B68DA6200BF77
:1015C8000C37BD465DF8047B704780B483B000AF2C
:1015D800786039607B689B6823F440723B681A43E3
:1015E8007B689A6000BF0C37BD465DF8047B704786
:1015F80080B483B000AF78607B689B6803F44013C5
:10160800002B0CBF01230023DBB218460C37BD4664
:101618005DF8047B704780B483B000AF78607B6866
:101628009B6843F001027B689A6000BF0C37BD4697
:101638005DF8047B704780B483B000AF78607B6846
:101648009B6823F001027B689A6000BF0C37BD4697
:101658005DF8047B704780B483B000AF78607B6826
:101668009B6803F00103012B0CBF01230023DBB2AD
:1016780018460C37BD465DF8047B704780B483B0CC
:1016880000AF78607B689B6843F480027B689A604F
:1016980000BF0C37BD465DF8047B704780B483B04B
:1016A80000AF78607B681B6803F00403042B0CBF51
:1016B80001230023DBB218460C37BD465DF8047BD6
:1016C800704780B483B000AF78607B686FF0040225
:1016D8001A6000BF0C37BD465DF8047B704780B4C4
:1016E80083B000AF78607B685B6843F020027B685A
:1016F8005A6000BF0C37BD465DF8047B704780B464
:1017080083B000AF78607B685B6843F080027B68D9
:101718005A6000BF0C37BD465DF8047B704780B443
:1017280083B000AF78607B685B6823F020027B6839
:101738005A6000BF0C37BD465DF8047B704780B423
:1017480083B000AF78607B685B6823F080627B6859
:101758005A6000BF0C37BD465DF8047B704780B403
:1017680083B000AF78607B685B6823F080027B6899
:101778005A6000BF0C37BD465DF8047B704780B4E3
:1017880083B000AF78607B685B6823F040027B68B9
:101798005A6000BF0C37BD465DF8047B704780B4C3
:1017A80083B000AF78607B685B6803F08063B3F157
:1017B800806F0CBF01230023DBB218460C37BD46EF
:1017C8005DF8047B704780B483B000AF78607B68B5
:1017D8005B6803F04003402B0CBF01230023DBB2FE
:1017E80018460C37BD465DF8047B704780B584B059
:1017F80000AF78600123FB817B681B691846FFF7FF
:10180800F7FE0346002B24D07B689B7ADBB2022BC1
:101818000CD07B689B7ADBB2082B07D07B681B69EE
:101828001846FFF73BFF0346012B12D17B689B7AD2
:10183800DBB2082B03D17B6801229A7202E07B6835
:1018480020229A727B681B691846FFF717FF00234E
:10185800FB81FB8918461037BD4680BD80B487B030
:1018680000AFF8600B467A607B81FB683C333B61D4
:1018780000237B610DE07B699B003A69134419687A
:101888007B695B007A6813448AB21A807B690133EA
:101898007B617B897A699A42EDDB00BF00BF1C3708
:1018A800BD465DF8047B704780B485B000AFF86032
:1018B800B9607A603B6000BF1437BD465DF8047BB1
:1018C800704780B485B000AFF860B9607A6000BF37
:1018D8001437BD465DF8047B704780B584B000AF0F
:1018E80078607B681B691846FFF7D8FE0346FB73D0
:1018F800FB7B012B07D17B681B691846FFF7E1FECC
:101908007B6802229A72FB7B18461037BD4680BD61
:1019180080B483B000AF78600B46FB7000BF0C3713
:10192800BD465DF8047B704790B589B002AFF8609A
:10193800084611461A4603467B810B463B811346EF
:10194800FB8000237B61FB681B693D4A934201D100
:101958003C4B7B617B69002B6CD0FB681A697B6907
:101968001A617B690022DA71FB88012B62D03B89FE
:10197800002B48D07B695B7ADBB2082B43D0FB682D
:10198800DA687B69DA60FB681A687B691A60FB6849
:101998005A697B695A61FB689A797B699A71FB6815
:1019A8001A797B691A717B691B69B96A1846FFF74E
:1019B800F9FD7B89012B22D07B89042B17D17B6908
:1019C8001B694FF440711846FFF7FFFD7B691869E2
:1019D8007B6959697B699B791C467B69DA687B69F5
:1019E8001B68009313462246FFF75EFF07E07B89DA
:1019F800022B04D17B691B691846FFF770FE7B69CF
:101A080008225A7216E03B89002B13D17B699B7A16
:101A1800DBB2082B0ED0FB685A797B695A717B8937
:101A2800022B04D17B691B691846FFF768FE7B69A6
:101A380008229A727B6918461C37BD4690BD00BFC4
:101A4800002001401C14002080B582B000AF7860EF
:101A58007B681B691846FFF7FEFD0346002B04D17F
:101A68007B681B691846FFF7D6FD00BF0837BD46DF
:101A780080BD80B586B000AFF8600B467A607B8188
:101A88000123FB82FB681B69002B4BD07B89012B50
:101A980005D1F868FFF7AAFE0346FB8242E07B897E
:101AA800042B24D1FB681B691846FFF7A1FD0346E8
:101AB800002B37D0FB6801229A72FB681B69184615
:101AC800FFF7DCFD00BFFB689B7ADBB2022BFAD183
:101AD800FB681869FB685B799BB27A681946FFF75F
:101AE800BDFEFB6808229A720023FB821AE07B89FC
:101AF800022B17D1FB689B7ADBB2202B04D0FB6842
:101B08009B7ADBB2022B0DD1FB6808229A72FB6824
:101B18001869FB685B799BB27A681946FFF79EFEE5
:101B28000023FB82FB8A18461837BD4680BD80B566
:101B380082B000AF78600B467B8013463B807B68A1
:101B48001B691846FFF787FD0346002B04D07B6806
:101B58001B691846FFF76FFD7B681B691846FFF77E
:101B680032FE0346002B04D07B681B691846FFF73A
:101B780006FE7B681B691846FFF711FE0346002B1B
:101B880004D07B681B691846FFF7D9FD3B88002BFA
:101B980035D07B88012B1AD07B88022B05D17B6836
:101BA8001B691846FFF7BBFD11E07B88042B0ED19B
:101BB8007B6818697B6859697B689B791A46FFF7C7
:101BC80080FE7B681B6900211846FFF7FEFC7B68D6
:101BD8000022DA607B6800221A607B6800225A6162
:101BE8007B6800229A717B6800221A717B681A69E7
:101BF8007B681B7919461046FFF7D4FC0AE07B681E
:101C080000225A717B88022B04D17B681B69184615
:101C1800FFF7A5FD00BF0837BD4680BD80B400AF03
:101C2800044BDB681B0A03F007031846BD465DF842
:101C3800047B704700ED00E080B483B000AF03463A
:101C4800FB7197F90730002B0BDBFB7903F01F02C0
:101C5800074997F907305B09012000FA02F241F8B9
:101C6800232000BF0C37BD465DF8047B704700BFDA
:101C780000E100E080B483B000AF03463960FB7137
:101C880097F90730002B0ADB3B68DAB20C4997F961
:101C980007301201D2B20B4483F800230AE03B68F4
:101CA800DAB20849FB7903F00F03043B1201D2B200
:101CB8000B441A7600BF0C37BD465DF8047B7047AD
:101CC80000E100E000ED00E080B489B000AFF8600A
:101CD800B9607A60FB6803F00703FB61FB69C3F135
:101CE8000703042B28BF0423BB61FB690433062BBD
:101CF80002D9FB69033B00E000237B614FF0FF3210
:101D0800BB6902FA03F3DA43BB681A407B699A405D
:101D18004FF0FF317B6901FA03F3D9437B680B402D
:101D2800134318462437BD465DF8047B704700000E
:101D380080B483B000AF786039600C4A3B681344C4
:101D48001B781A467B6813441B6808493A680A449A
:101D5800127811467A680A4443F00103136000BF01
:101D68000C37BD465DF8047B704700BF58950008E6
:101D780080B485B000AFF860B9607A600D4ABB687E
:101D880013441B781A46FB6813445B681B0C1B043E
:101D98000849BA680A4412781146FA680A44114692
:101DA8007A6813434B6000BF1437BD465DF8047B67
:101DB800704700BF5895000880B485B000AFF86040
:101DC800B9607A603B60BB69402B14D1174ABB6885
:101DD80013441B781A46FB6813441A467B68D36081
:101DE800124ABB6813441B781A46FB6813441A4608
:101DF8003B68936013E00D4ABB6813441B781A468E
:101E0800FB6813441A467B689360084ABB6813440E
:101E18001B781A46FB6813441A463B68D36000BF18
:101E28001437BD465DF8047B704700BF589500081D
:101E380080B483B000AF786039600C4A3B681344C3
:101E48001B781A467B6813441B6808493A680A4499
:101E5800127811467A680A4443F01003136000BFF1
:101E68000C37BD465DF8047B704700BF58950008E5
:101E780080B483B000AF786039600C4A3B68134483
:101E88001B781A467B6813441B6808493A680A4459
:101E9800127811467A680A4423F01003136000BFD1
:101EA8000C37BD465DF8047B704700BF58950008A5
:101EB80080B483B000AF78607B68DB6843F400527D
:101EC8007B68DA6000BF0C37BD465DF8047B70475D
:101ED80080B483B000AF78607B68DB6823F400527D
:101EE8007B68DA6000BF0C37BD465DF8047B70473D
:101EF80080B483B000AF78607B681B6803F0800310
:101F0800802B0CBF01230023DBB218460C37BD46DB
:101F18005DF8047B704780B489B000AF78607B6857
:101F28000C33FB60FB6853E8003FBB60BB6843F0C1
:101F38002003FB617B680C33FA69BA617B617969BC
:101F4800BA6941E800233B613B69002BE7D100BF38
:101F580000BF2437BD465DF8047B704780B489B064
:101F680000AF78607B680C33FB60FB6853E8003F88
:101F7800BB60BB6843F08003FB617B680C33FA6984
:101F8800BA617B617969BA6941E800233B613B69C1
:101F9800002BE7D100BF00BF2437BD465DF8047BA6
:101FA800704780B489B000AF78607B680C33FB6001
:101FB800FB6853E8003FBB60BB6843F48073FB6178
:101FC8007B680C33FA69BA617B617969BA6941E85F
:101FD80000233B613B69002BE7D100BF00BF2437DA
:101FE800BD465DF8047B704780B489B000AF786067
:101FF8007B681433FB60FB6853E8003FBB60BB6839
:1020080043F00103FB617B681433FA69BA617B61B1
:102018007969BA6941E800233B613B69002BE7D144
:1020280000BF00BF2437BD465DF8047B704780B40D
:1020380089B000AF78607B680C33FB60FB6853E8BD
:10204800003FBB60BB6823F02003FB617B680C3357
:10205800FA69BA617B617969BA6941E800233B6131
:102068003B69002BE7D100BF00BF2437BD465DF8B0
:10207800047B704780B489B000AF78607B680C330C
:10208800FB60FB6853E8003FBB60BB6823F080033C
:10209800FB617B680C33FA69BA617B617969BA695B
:1020A80041E800233B613B69002BE7D100BF00BF3B
:1020B8002437BD465DF8047B704780B489B000AF13
:1020C80078607B680C33FB60FB6853E8003FBB60BB
:1020D800BB6823F48073FB617B680C33FA69BA61CF
:1020E8007B617969BA6941E800233B613B69002B50
:1020F800E7D100BF00BF2437BD465DF8047B7047B9
:1021080080B489B000AF78607B681433FB60FB68EB
:1021180053E8003FBB60BB6823F00103FB617B68A9
:102128001433FA69BA617B617969BA6941E80023B5
:102138003B613B69002BE7D100BF00BF2437BD4698
:102148005DF8047B704780B489B000AF78607B6825
:102158001433FB60FB6853E8003FBB60BB6843F087
:102168004003FB617B681433FA69BA617B61796962
:10217800BA6941E800233B613B69002BE7D100BF06
:1021880000BF2437BD465DF8047B704780B489B032
:1021980000AF78607B681433FB60FB6853E8003F4E
:1021A800BB60BB6823F04003FB617B681433FA69AA
:1021B800BA617B617969BA6941E800233B613B698F
:1021C800002BE7D100BF00BF2437BD465DF8047B74
:1021D800704780B489B000AF78607B681433FB60C7
:1021E800FB6853E8003FBB60BB6843F08003FB61BA
:1021F8007B681433FA69BA617B617969BA6941E825
:1022080000233B613B69002BE7D100BF00BF2437A7
:10221800BD465DF8047B704780B489B000AF786034
:102228007B681433FB60FB6853E8003FBB60BB6806
:1022380023F08003FB617B681433FA69BA617B6120
:102248007969BA6941E800233B613B69002BE7D112
:1022580000BF00BF2437BD465DF8047B704780B4DB
:1022680083B000AF78607B68043318460C37BD46EE
:102278005DF8047B704780B483B000AF78600B468C
:10228800FB70FA787B685A6000BF0C37BD465DF872
:10229800047B704780B485B000AF786039607B6894
:1022A8005B6B3A681344FB607B685A6B7B689B6B7B
:1022B8009A4204D27B689B6BFA689A4212D27B6876
:1022C8005A6B7B689B6B9A420ED37B689B6AFA6851
:1022D8009A4209D37B689B6AFA68D21A7B689B6B1F
:1022E8009A4201D3012300E00023DBB218461437D9
:1022F800BD465DF8047B704780B586B000AFF860D6
:10230800B9607A603B607968F868FFF7C3FF0346F5
:10231800002B21D03B68002B1CD005F00DFB786109
:1023280000BF7968F868FFF7B5FF0346002B07D0B0
:102338000121786903F012F802463B689342F0D213
:102348000121786903F00AF802463B68934203D2F8
:10235800012347E0012345E0FB685A6B7B681A4478
:10236800FB689B6A9A4223D9FB689A6AFB685B6B95
:10237800D31A3B61FB681A6AFB685B6B13443A69C2
:10238800B968184607F0CAF8FB685A6B7B681A44A4
:10239800FB689B6AD21AFB685A63FB68186A3B6938
:1023A800BA68D118FB685B6B1A4607F0B7F80FE0FC
:1023B800FB681A6AFB685B6B13447A68B96818464D
:1023C80007F0ACF8FB685A6B7B681A44FB685A63E1
:1023D800FB685A6BFB689B6A9A4202D1FB68002231
:1023E8005A63002318461837BD4680BD80B584B0AF
:1023F80000AF78607B681B681846FFF779FD0346D5
:10240800FB73FB7B012B29D17B689A6B7B685B6B29
:102418009A421BD07B6818687B681A6A7B689B6B3A
:1024280013441B781946FFF726FF7B689B6B5A1CE1
:102438007B689B6A9A4203D17B6800229A630DE00D
:102448007B689B6B5A1C7B689A6307E07B681B68F8
:102458001846FFF70FFE7B6800229A74FB7B18462C
:102468001037BD4680BD000080B500AF0248FFF7B9
:10247800BDFF00BF80BD00BF38140020B0B584B0D8
:1024880002AF78607B685C687B681B7C1D467B6854
:102498001B681846FFF7E3FE02467B68DB691946AE
:1024A800002300930B4629462046FFF785FC7B68EE
:1024B80058687B681B7C19467B685B6A1A46FFF77D
:1024C80057FC7B685A687B681B7C19461046FFF7E7
:1024D800AFFC7B681B681846FFF735FE7B681B68F6
:1024E8005A697B681B6842F040025A617B685A68E7
:1024F8007B681B7C19461046FFF71AFC00BF08379B
:10250800BD46B0BDF0B585B002AF78607B689C6809
:102518007B685B7C1D467B681B6A1E467B681B6864
:102528001846FFF79CFE0346402200923246294691
:102538002046FFF741FC7B689A687B685B7C1946FC
:102548001046FFF775FC7B681B681846FFF741FECD
:1025580000BF0C37BD46F0BD80B584B000AF7860D1
:102568007B681B681A46604B9A4202D15F4BFB603E
:1025780002E00023FB6000BFFB68002B00F0AF8087
:10258800FB685A7D7B685B7D1343DAB2FB685A753A
:10259800FB689A7D7B689B7D1343DAB2FB689A756A
:1025A8007B681A68FB681A60FB6800221A83FB685C
:1025B80000225A83FB681B681846FFF789FC7B6872
:1025C8005B7D03F00103002B3CD07B685A6AFB68F3
:1025D8005A627B68DA69FB68DA61FB680022DA62B2
:1025E800FB6800221A637B681A7DFB681A75FB6812
:1025F800002283F83C20FB689B7D03F01003002B2E
:1026080015D07B685A68FB685A607B681A7CFB683F
:102618001A74F868FFF732FFFB681B681846FFF763
:10262800E3FCFB681B681846FFF7BBFC0AE0FB6885
:102638009B7D03F00403002B04D0FB681B6818463D
:10264800FFF769FC7B685B7D03F00203002B27D052
:102658007B689A6AFB689A627B681A6AFB681A62E6
:10266800FB6800225A63FB6800229A63FB68002219
:102678009A74FB680022DA74FB689B7D03F02003E0
:10268800002B0DD07B689A68FB689A607B685A7C3F
:10269800FB685A74FB680022DA60F868FFF732FFBB
:1026A800FB681B681846FFF703FC7B681B681A4623
:1026B8000D4B9A4210D1FFF7B1FA034600220021D0
:1026C8001846FFF701FB034619462620FFF7D2FA02
:1026D8002620FFF7B1FA02E00023FB6000BFFB6889
:1026E80018461037BD4680BD00440040381400200D
:1026F80080B584B000AFF860B9607A603B60BB69B0
:1027080000221A60FB685B8B03F08003002B01D06A
:10271800802353E07B68002B4FD0FB685B8B43F032
:1027280080039AB2FB685A833B687A68B968F8688C
:10273800FFF7E2FD0346012B08D1FB685B8B23F012
:1027480080039AB2FB685A83402337E0FB689B7C7E
:10275800002B28D1FB681868FB681A6AFB689B6B1A
:1027680013441B781946FFF786FDFB689B6B5A1CC0
:10277800FB689B6A9A4203D1FB6800229A6304E0D3
:10278800FB689B6B5A1CFB689A63FB689A6BFB6837
:102798005B6B9A4207D0FB6801229A74FB681B683E
:1027A8001846FFF7DBFBBB697A681A60FB685B8B2E
:1027B80023F080039AB2FB685A8300231846103727
:1027C800BD4680BD80B582B000AF78607B681B686D
:1027D8001846FFF77DFB7B689B7D03F02003002BE9
:1027E8000DD07B689A687B685B7C19461046FFF7BA
:1027F8003FFB7B681B681846FFF70EFD0AE07B6805
:102808009B7D03F00803002B04D07B681B681846E7
:10281800FFF730FC7B689B7D03F01003002B17D07B
:102828007B681B681846FFF76BFC7B681B681846BB
:10283800FFF743FC7B685A687B681B7C1946104687
:10284800FFF716FB7B681B681846FFF79FFC0AE03A
:102858007B689B7D03F00403002B04D07B681B6816
:102868001846FFF7E4FB00BF0837BD4680BD0000EF
:1028780080B483B000AF03463960FB7197F9073025
:10288800002B0ADB3B68DAB20C4997F907301201D2
:10289800D2B20B4483F800230AE03B68DAB2084955
:1028A800FB7903F00F03043B1201D2B20B441A76F2
:1028B80000BF0C37BD465DF8047B704700E100E0BF
:1028C80000ED00E080B584B000AFF860B9607A60D0
:1028D800FB68DBB20F3BDBB25BB279681846FFF7E7
:1028E800C7FF00BF1037BD4680BD80B485B000AFBC
:1028F800EFF310837B607B68FB600123BB60BB68E0
:1029080083F3108800BFFB6818461437BD465DF88E
:10291800047B704780B483B000AF0346FB7197F91E
:102928000730002B0BDBFB7903F01F02074997F9EF
:1029380007305B09012000FA02F241F8232000BFAA
:102948000C37BD465DF8047B704700BF00E100E02E
:1029580080B483B000AF0346FB7197F90730002BB2
:1029680012DBFB7903F01F020A4997F907305B096C
:10297800012000FA02F2203341F82320BFF34F8FE1
:1029880000BFBFF36F8F00BF00BF0C37BD465DF8B7
:10299800047B704700E100E080B483B000AF78604A
:1029A8007B686FF004021A6000BF0C37BD465DF803
:1029B800047B704780B483B000AF78607B685B6845
:1029C80003F08003802B0CBF01230023DBB21846E1
:1029D8000C37BD465DF8047B7047000080B483B0B7
:1029E80000AF7860074B1A687B6813407A689A4290
:1029F8000CBF01230023DBB218460C37BD465DF837
:102A0800047B7047003C014080B483B000AF78601D
:102A1800074B5A697B6813407A689A420CBF0123B6
:102A28000023DBB218460C37BD465DF8047B7047BF
:102A3800003C014080B483B000AF7860044A7B68F2
:102A4800536100BF0C37BD465DF8047B704700BF7B
:102A5800003C014080B483B000AF78607B681B689D
:102A680043F001027B681A6000BF0C37BD465DF871
:102A7800047B704780B483B000AF78607B681B68C4
:102A880023F001027B681A6000BF0C37BD465DF871
:102A9800047B704780B483B000AF786039607B688E
:102AA8001B6823F004023B681A437B681A6000BF66
:102AB8000C37BD465DF8047B704780B483B000AF27
:102AC80078607B681B6803F0040318460C37BD4622
:102AD8005DF8047B704780B483B000AF78607B6892
:102AE800DB6A18460C37BD465DF8047B704780B436
:102AF80083B000AF786039607B683A681A6300BFBA
:102B08000C37BD465DF8047B704780B483B000AFD6
:102B1800786039607B683A685A6300BF0C37BD46F5
:102B28005DF8047B704780B483B000AF786039608B
:102B38007B683A689A6300BF0C37BD465DF8047B32
:102B4800704780B483B000AF786039607B683A68BA
:102B5800DA6300BF0C37BD465DF8047B704780B46C
:102B680083B000AF78607B685B6B18460C37BD4656
:102B78005DF8047B704780B483B000AF78607B68F1
:102B88009B6B18460C37BD465DF8047B704780B4D4
:102B980083B000AF78607B68DB6B18460C37BD46A6
:102BA8005DF8047B704780B483B000AF78607B68C1
:102BB8005B6943F001027B685A6100BF0C37BD4670
:102BC8005DF8047B704780B483B000AF78607B68A1
:102BD8001B6918460C37BD465DF8047B704700003A
:102BE80080B584B000AF786087ED000AD7ED007A31
:102BF800F5EEC07AF1EE10FA03D54FF000033B6012
:102C08000AE0D7ED007A9FED167AF4EEC77AF1EE76
:102C180010FA01DD134B3B607B681B681846FFF711
:102C28005AFFF8607B681B79002B0CBF0123002337
:102C3800DBB21A46FB68134407EE903AB8EE677A9F
:102C4800D7ED007A27EE277ADFED056AC7EE267AF8
:102C5800FCEEE77A17EE903A18461037BD4680BD6D
:102C68000000C8420000C84280B582B000AF78605A
:102C780039607B681B681846FFF771FF02463B689E
:102C8800934205D07B681B6839681846FFF73DFFFB
:102C980000BF0837BD4680BD80B582B000AF786000
:102CA80039607B681B681846FFF765FF02463B687A
:102CB800934205D07B681B6839681846FFF733FFD5
:102CC80000BF0837BD4680BD80B582B000AF7860D0
:102CD80039607B681B681846FFF759FF02463B6856
:102CE800934205D07B681B6839681846FFF729FFAF
:102CF80000BF0837BD4680BD80B584B000AF78609E
:102D080087ED000A97ED000A7868FFF769FFF86019
:102D1800F9687868FFF7A8FF00BF1037BD4680BD87
:102D280080B584B000AF786087ED000A97ED000A9F
:102D38007868FFF755FFF860F9687868FFF7ACFF27
:102D480000BF1037BD4680BD80B584B000AF786045
:102D580087ED000A97ED000A7868FFF741FFF860F1
:102D6800F9687868FFF7B0FF00BF1037BD4680BD2F
:102D780080B485B000AF78607B681B689B6803F0FF
:102D88000703FB60FB68062B0CBF01230023DBB2A3
:102D980018461437BD465DF8047B704780B584B08B
:102DA80000AF78600B46FB707B681B681846FFF71E
:102DB80084FEF860FB78002B0AD07B681B681E4AEB
:102DC800934205D17B681B6800211846FFF78FFEE8
:102DD800FB68042B11D07B681B6804211846FFF799
:102DE80059FE7B681B681846FFF7DDFE7B681B6889
:102DF800F9681846FFF74EFE04E07B681B68184622
:102E0800FFF7D1FE7B681B681846FFF723FEFB78A7
:102E1800002B0CD07B681B68074A934207D17B685C
:102E28001A687B685B7919461046FFF760FE00BF99
:102E38001037BD4680BD00BF0000014080B582B09C
:102E480000AF78607B681B681846FFF713FE00BF69
:102E58000837BD4680BD80B485B000AFF860B96062
:102E68007A607B68B3F90020FB681A807B685A880F
:102E7800BB681A8000BF1437BD465DF8047B7047F5
:102E880080B485B000AFF860B9607A607B681A8852
:102E9800FB681A807B685A88BB681A8000BF1437A1
:102EA800BD465DF8047B704780B483B000AF78609E
:102EB80039603B689A887B681A803B68DA887B6847
:102EC8005A803B68B3F900207B68DA803B681A892E
:102ED8007B689A8000BF0C37BD465DF8047B70475D
:102EE80080B584B000AF7B600346FB810B46BB8195
:102EF80013467B81FB89013B052B45D801A252F87B
:102F080023F000BF7F2F00085B2F00086D2F0008FB
:102F1800372F0008252F0008492F0008386A3B6A18
:102F2800991C7B6A20331A46FFF7AAFF2CE0386AFF
:102F38003B6A991C7B6A1C331A46FFF7A1FF23E002
:102F4800386A3B6A991C7B6A18331A46FFF798FF60
:102F58001AE0386A3B6A991C7B6A14331A46FFF7F1
:102F68008FFF11E0386A3B6A991C7B6A10331A4656
:102F7800FFF786FF08E0386A3B6A991C7B6A0C33C6
:102F88001A46FFF77DFF00BF3B6A1B88BA899A4241
:102F980009D13B6A981D3B6A191D7B6A28331A467A
:102FA800FFF759FF12E03B6A5B88BA899A4209D158
:102FB8003B6A981D3B6A191D7B6A24331A46FFF742
:102FC8004AFF03E07B6A5A883B6A9A803B6A9A8880
:102FD800FB691A803B6AB3F90620BB691A803B6A11
:102FE8009B88002B04D07B6A9A7A7B681A700CE065
:102FF8003B6AB3F90630B7F90A209A420CBF01239D
:103008000023DBB21A467B681A7000BF1037BD4632
:1030180080BD00BF80B485B000AFB9607A603B6006
:103028000346FB81BB691A88BB681A807B68FA89EA
:103038001A80BB699A783B681A7000BF1437BD467E
:103048005DF8047B704780B5A6B000AF78607B68F8
:1030580001225A604FF08043BB6000233B7300237A
:103068007B7307F108031846FEF73EFA02467B68B1
:10307800DA607B68DB6800211846FDF7C0FF7B68D3
:10308800DB681846FFF774FE034687F8973097F811
:103098009730002B05D17B68DB6800211846FFF7C5
:1030A8007DFE7B6801221A7200BF9837BD4680BD3D
:1030B80080B5A6B000AF78607B6801225A604FF0F7
:1030C8008043BB6000233B7300237B7307F1080335
:1030D8001846FEF709FA02467B68DA607B68DB6807
:1030E80000211846FDF78BFF7B68DB681846FFF761
:1030F8003FFE034687F8973097F89730002B05D1A5
:103108007B68DB6800211846FFF748FE7B680122D0
:103118001A7200BF9837BD4680BD80B5A6B000AF13
:1031280078607B6801225A604FF08043BB600023BF
:103138003B7300237B7307F108031846FEF7D4F9A5
:1031480002467B68DA607B68DB6800211846FDF779
:1031580056FF7B68DB681846FFF70AFE034687F8C8
:10316800973097F89730002B05D17B68DB680021F2
:103178001846FFF713FE7B6801221A7200BF9837C2
:10318800BD4680BD80B483B000AF786039603B68CD
:103198001A687B681A6000BF0C37BD465DF8047B6F
:1031A8007047000080B58CB002AF78607B68002261
:1031B8001A727B6801225A600023BB6100233B74AA
:1031C800174BFB6100233B620023BB74002387F885
:1031D8002430012387F825300323FB6003237B7405
:1031E80007F10C004FF40013009302230022022180
:1031F800FEF79AFB02467B68DA607B68DB68184654
:10320800FEF722FC7B68DB6800211846FEF780FB8E
:103218007B6801221A7200BF2837BD4680BD00BFF7
:103228000020014080B5A6B000AF78601D4BBB60A0
:1032380000233B7300237B7307F108031846FEF74E
:1032480053F902467B68DA607B68DB680021184620
:10325800FDF7D5FE7B68DB6804211846FEF704F805
:103268007B68DB6804211846FEF766F87B68DB6834
:1032780004211846FEF7C8F87B68DB681846FFF794
:1032880077FD034687F8973097F89730002B05D1DC
:103298007B68DB6801211846FFF780FD00BF98377F
:1032A800BD4680BD0000014080B592B000AF786097
:1032B8007B681033BB6202237B770823BB770A4BFA
:1032C800BB6000233B6100237B7680233B6307F1CF
:1032D80008031846FFF740F902467B68DA6000BF2A
:1032E8004837BD4680BD00BF0044004090B52DED75
:1032F800028B97B002AFC44B5B693B61C24BDB6882
:103308007B63C14B93F8233087F82F3097F82F3021
:10331800002B61D0BD4B93F85F31002B09D1BC4B1A
:10332800D3F84031B94AC2F81831B84B012283F8B2
:103338005F21B74B93ED007AD7ED047AB4EEE77AC4
:10334800F1EE10FA43DBB14B93ED467AB04BD3ED77
:10335800017AB4EEE77AF1EE10FA38DBAC4B93ED74
:103368004D7AAB4BD3ED4E7AB4EEE77AF1EE10FA24
:103378000EDDA74BD3F82031FB60A54B93ED497ABE
:10338800A34BD3ED487A77EE677AC7ED0C7A07E05E
:103398009F4BD3F82831FB609D4BD3F82C313B630E
:1033A80097ED037AD7ED0D7A27EE277A974BD3ED71
:1033B800476AD7ED0C7A66EEA77A77EE277A924BB2
:1033C800C3ED027A904B9B68904AC2F81C313B6966
:1033D8008E4AC2F8183103E08C4B002283F85F2133
:1033E800894BD3ED027AB0EE670A05F0CDFC87ED84
:1033F8000D0A97ED0D0A01F072FF0346002B06D166
:1034080097ED0D0A01F030FF0346002B03D04FF073
:1034180000037B6307E0DFED7F0A97ED0D0A05F0F7
:1034280057FB87ED0D0AD7ED0D7AF5EEC07AF1EE70
:1034380010FA0BD5D7ED0D7AF1EE677AFCEEE77A44
:1034480017EE903A9BB25B429BB206E0D7ED0D7A3D
:10345800FCEEE77A17EE903A9BB2FB806B4BD8688C
:10346800B91D07F10803009300230222FFF740F972
:10347800674B03F5805393ED477AD7ED047A67EEEF
:10348800277AC7ED047A624B93ED5A7AD7ED047A1E
:10349800B4EEE77AF1EE10FA45DDD7ED047AB0EE36
:1034A800670A05F071FC87ED0D0A97ED0D0A01F02A
:1034B800DBFE0346002B03D04FF000037B6307E0DD
:1034C800DFED540A97ED0D0A05F002FB87ED0D0AB2
:1034D80097ED047AD7ED0D7AF5EEC07AF1EE10FA91
:1034E80010D5D7ED0D7AF1EE677AFCEEE77A17EE94
:1034F800903A9BB25B429BB21BB207EE903AF8EE51
:10350800E77A0BE0D7ED0D7AFCEEE77A17EE903A02
:103518009BB21BB207EE903AF8EEE77A77EE677A3D
:10352800C7ED047A4BE0D7ED047AB0EE670A05F0F0
:1035380073FC87ED0D0A97ED0D0A01F0D0FE0346E6
:10354800002B06D197ED0D0A01F08EFE0346002BE5
:1035580003D04FF000037B6307E0DFED2E0A97ED01
:103568000D0A05F0B5FA87ED0D0A97ED047AD7ED47
:103578000D7AF5EEC07AF1EE10FA10D5D7ED0D7A86
:10358800F1EE677AFCEEE77A17EE903A9BB25B426F
:103598009BB21BB207EE903AF8EEE77A0BE0D7ED54
:1035A8000D7AFCEEE77A17EE903A9BB21BB207EE63
:1035B800903AF8EEE77A77EE677AC7ED047A144B1B
:1035C80003F5805393ED487AD7ED047A67EE277AAE
:1035D800C7ED047AD7ED047AB0EE670A05F01CFC53
:1035E80087ED0D0A97ED0D0A01F079FE0346002BD1
:1035F80006D197ED0D0A01F037FE0346002B0BD0DC
:103608004FF000037B630FE078140020B81400200B
:1036180000000020000080475FED020A97ED0D0AC8
:1036280005F056FA87ED0D0AD7ED0D7AF5EEC07A5A
:10363800F1EE10FA0BD5D7ED0D7AF1EE677AFCEEC4
:10364800E77A17EE903A9BB25B429BB206E0D7ED61
:103658000D7AFCEEE77A17EE903A9BB2FB8097ED75
:10366800047AFB8807EE903AF8EE677A77EE677A85
:10367800C7ED0D7ABE4BD3F86C21BD4BD3F8703132
:10368800BB4901F58051B1F954110846F988014444
:10369800B7485C3189000144043191ED007AB4499E
:1036A80001F58051B1F956110846F9880144B0482E
:1036B8005C31890001440431D1ED007A37EE677A34
:1036C800D7ED0D7A27EE277AA94901F58051B1F98E
:1036D80056110846F9880144A5485C31890001441F
:1036E8000431D1ED007A37EE277AA14901F58051EE
:1036F800B1F958110846F98801449D485C318900A0
:1037080001440431D1ED006A994901F58051B1F9BC
:103718005A110846F988014495485C3189000144EA
:103728000431D1ED007A76EEE76AD7ED0D7A66EED0
:10373800A76A8F4901F58051B1F95A110846F988ED
:1037480001448B485C31890001440431D1ED007A91
:1037580076EEA77ABA627B6207F110033B6207F143
:103768000C03FB6187ED067AC7ED057A97ED0A7AB7
:10377800D7ED057A27EE277AD7ED096AD7ED067ACD
:1037880066EEA77A77EE677A3B6AC3ED007A97ED23
:103798000A7AD7ED067A27EE277AD7ED096AD7EDA8
:1037A800057A66EEA77A77EE277AFB69C3ED007A89
:1037B80000BF97F82F30002B00F0DE806C4B93EDA4
:1037C800517AD7ED037A67EE277AC7ED037A684B0B
:1037D80093ED527AD7ED047A67EE277AC7ED0C7A23
:1037E8009FED647AD7ED0C7A37EE677AD7ED037AD6
:1037F80037EE677A5E4BD3ED537A67EE277AC7EDDB
:103808000D7A97ED037AD7ED0C7A37EE677A584B35
:10381800D3ED547A67EE277AC7ED0C7A544B93EDC3
:10382800557AD7ED047A67EE277AC7ED037AD7ED94
:10383800037AD7ED0C0AB0EE670A05F0BFF9F0EE8F
:10384800407AD7ED0D0AB0EE670A05F0B7F9B0EE89
:10385800408AD7ED037AD7ED0C0AB0EE670A05F077
:10386800CBF9F0EE407AD7ED0D0AB0EE670A05F015
:10387800C3F9F0EE407A38EE277A3D4BD3ED567A0D
:1038880067EE277AC7ED047A97ED037AD7ED047AC5
:1038980037EE277A364BD3ED577A27EE277A344B13
:1038A800D3ED587A67EE277A17EE900AFCF7D4FD25
:1038B8002F4BD3E91623FCF771FC02460B46104642
:1038C80019462B4BD3E91823FCF71EFE02460B467C
:1038D800C7E9122397ED047AD7ED0C7A37EE277AE9
:1038E800234BD3ED577A27EE277A214BD3ED587A1D
:1038F80067EE277A17EE900AFCF7AEFD1C4BD3E96A
:103908001623FCF74BFC02460B4610461946184B8B
:10391800D3E91823FCF7F8FD02460B46C7E9102344
:1039280097ED047AD7ED0D7A37EE277A104BD3ED61
:10393800577A27EE277A0E4BD3ED587A67EE277A17
:1039480017EE900AFCF788FD094BD3E91623FCF71C
:1039580025FC02460B4610461946054BD3E91823A9
:10396800FCF7D2FD02460B46C7E90E2328E000BF4C
:1039780000000020000000002A4B03F58053B3F834
:1039880078311846FCF746FD02460B46C7E9122374
:10399800244B03F58053B3F878311846FCF73AFD09
:1039A80002460B46C7E910231E4B03F58053B3F8B4
:1039B80078311846FCF72EFD02460B46C7E90E2360
:1039C800194BD3F8DC40D7E91201FDF76DF803462F
:1039D80000EE103A2046FFF78FF9134BD3F8DC407E
:1039E800D7E91001FDF760F8034600EE103A2046CB
:1039F800FFF796F90C4BD3F8DC40D7E90E01FDF739
:103A080053F8034600EE103A2046FFF79DF9074B9E
:103A18005A6801325A6000BF5437BD46BDEC028B6C
:103A280090BD00BF00000020B81400202016002020
:103A380098B500AFB84B03F5805393F88D21B74B79
:103A480083F85C21B44B03F58053D3F84C31B34A67
:103A5800C2F84431B04BD3E91A23B049C1E93C2339
:103A6800AD4BD3E92823AD49C1E94423AA4B03F55B
:103A78008053B3F95C21A94BA3F85221A64B03F557
:103A88008053D3F85031A54AC2F84831A24B03F508
:103A98008053B3F87A21A14BA3F854219E4B03F528
:103AA8008053B3F87C219D4BA3F856219A4BD3E958
:103AB8001C239A49C1E93E23974BD3E91E23974912
:103AC800C1E94023944BD3E920239449C1E9422317
:103AD800934B934A5B6893608F4BD3F80C318F4AB2
:103AE800C2F820318D4B022283F85B218A4B03F503
:103AF800805393F88221894B83F85821864B03F52C
:103B0800805393F88321854B83F85921824B1A8A75
:103B1800824BA3F85021804B03F58053D3F84831EA
:103B28007E4AC2F82C317C4BD3F8FC307D4A1361B5
:103B3800794BD3F8DC30794AC2F82431764BD3F884
:103B4800BC30764AC2F82831734B03F5805393F89A
:103B58007E21724B83F85A216F4BD3F8CC30714ACF
:103B6800D3616D4BD3F8D0306E4A93616A4B03F53D
:103B78008053D3F83831694AC2F83031664B03F5BF
:103B88008053D3F83031674A5360634BD3F8D4304D
:103B9800644A5361604B03F5805393F88021614B6D
:103BA80083F823205D4B0022C3F894205B4B00224E
:103BB80083F890205C48FFF7F5FA574BD3F80831A3
:103BC800584AD360544BD3F84031544AC2F818319C
:103BD800514BD3F83C31514AC2F81C314E4BD3F803
:103BE8003031504A93604C4B03F58053D3F824315D
:103BF8004A4AC2F83C314D494D48FFF755F9474B01
:103C08000022C3F8C420454B002283F8C02049484D
:103C1800FFF719FA404B03F58053D3F828313F4A90
:103C2800C2F8383144494548FFF73EF93B4B00227A
:103C3800C3F8B420394B002283F8B0204048FFF77E
:103C480037FA354B03F58053D3F82C31334AC2F891
:103C580034313C493C48FFF727F9304B0022C3F880
:103C6800A4202E4B002283F8A0203848FFF755FAED
:103C78002A4B002283F8E020284B002283F8E82012
:103C8800264B0122C3F8E4203148FFF7CBFA234B37
:103C9800012283F8E820214B00221A701F4B0022D2
:103CA8001A721E4B01225A601C48FFF7FDFA1B4B83
:103CB80001221A72194B002283F8D020174B0022D8
:103CC80083F8D820154B0122C3F8D4202148FFF7E8
:103CD800A9FA124B012283F8D820104BD3F8EC40F4
:103CE8000D4BD3E9142310461946FCF7DDFE0346B5
:103CF80000EE103A2046FEF7FFFF084BD3F8EC40E1
:103D0800054BD3E9142310461946FCF7CDFE0346AC
:103D180000EE103A20461FE000000020B8140020F2
:103D28002016002078140020481500204812002092
:103D3800AC1400207815002018120020A4140020CC
:103D480068150020E81100209C1400205815002058
:103D58009815002088150020FEF7E2FF0E4BD3F8D7
:103D6800EC400E4BD3E9142310461946FCF79CFE91
:103D7800034600EE103A2046FEF7E6FF084B084AD5
:103D88005B689360044B012283F85E21024B012299
:103D980083F85D2100BF98BDB81400200000002002
:103DA8002016002080B500AF7D4B93F89030002B93
:103DB80015D17B4B012283F89020794BD3F89430AE
:103DC800012B0CD1764B93F89830002B07D0744B0D
:103DD800D3F89C30002202211846FDF7A8FE704B4C
:103DE8001B78002B0FD16E4B01221A706C4B5B684D
:103DF800012B08D16A4B1B7A002B04D0684BDB6877
:103E08001846FEF7DFFC664B93F8D030002B2FD115
:103E1800634B012283F8D020614BD3F8D430012BB7
:103E280026D15F4B93F8D830002B21D05C4BD3F8C8
:103E3800DC301846FFF702F8594BD3F8DC30002184
:103E48001846FDF776F9564BD3F8DC3004211846AE
:103E5800FDF73EFA524BD3F8DC3004211846FDF743
:103E68009FFA4F4BD3F8DC3004211846FDF704FBCA
:103E78004B4B93F8C030002B1AD1494B012283F8E1
:103E8800C020474BD3F8C430012B11D1444B93F8D1
:103E9800C830002B0CD0424BD3F8CC301846FEF774
:103EA800CDFF3F4BD3F8CC3000211846FDF741F940
:103EB8003B4B93F8B030002B1AD1394B012283F8D1
:103EC800B020374BD3F8B430012B11D1344B93F8D1
:103ED800B830002B0CD0324BD3F8BC301846FEF764
:103EE800ADFF2F4BD3F8BC3000211846FDF721F960
:103EF8002B4B93F8A030002B1AD1294B012283F8C1
:103F0800A020274BD3F8A430012B11D1244B93F8D0
:103F1800A830002B0CD0224BD3F8AC301846FEF753
:103F28008DFF1F4BD3F8AC3000211846FDF701F97F
:103F38001B4B93F8E030002B2FD1194B012283F84B
:103F4800E020174BD3F8E430012B26D1144B93F81B
:103F5800E830002B21D0124BD3F8EC301846FEF78E
:103F68006DFF0F4BD3F8EC3000211846FDF7E1F850
:103F78000B4BD3F8EC3004211846FDF7A9F9084B90
:103F8800D3F8EC3004211846FDF70AFA044BD3F8AD
:103F9800EC3004211846FDF76FFA00BF80BD00BF62
:103FA800B814002080B500AF022208492120FEF78E
:103FB80089FC1220FEF7AEFC022205493720FEF7E5
:103FC80081FC2820FEF7A6FC00BF80BDC145000883
:103FD800DD3F00082DE9F04FA3B004AFFEF785FCE4
:103FE80078674FF48050FEF7F9FC0346002B08D0A1
:103FF8004FF48050FEF708FD0346002B01D0012343
:1040080000E00023002B00F0C9804FF48050FEF739
:1040180011FDA44B1B78DBB2012B40F0BF80A24BF3
:10402800D3F8CC301846FDF7AFFA02469E4BC3F8DA
:1040380044219E48FEF7C7FD38679C48FEF7C3FD3C
:10404800F8669A48FEF7BFFDB8663B6F03F48063D5
:10405800002B07D0964B03F5805393F884315B0906
:10406800DAB200E00022FB6E03F40063002B07D0F5
:104078008F4B03F5805393F887319B09DBB200E03F
:1040880000231344DAB2BB6E03F48053002B07D02D
:10409800874B03F5805393F88A31DB09DBB200E0E4
:1040A8000023134487F8673097F86730013B052BE6
:1040B8001BD897F867309CB27B4B93F85C3198B269
:1040C800794BB3F9521107F13D027A4B03937A4BBE
:1040D800029307F13E030193784B009313460A4677
:1040E80001462046FEF7FCFE0DE06F4BB3F9520186
:1040F80007F13D0207F13E01714B009313466F4AE9
:10410800FEF788FF00BF684BD3F844311A46664B68
:10411800D3F83C31D31ADA171D461646644BD3F848
:10412800A830DA179A4693460AFB06F205FB0BF30A
:104138001344A5FB0A894B4499465B4BC3E9448960
:10414800594BD3E944234FF000004FF00001900F82
:1041580040EA830099170246534BC3F8482197F861
:104168003D309BB2504AA2F85431514B03F580536D
:10417800B3F85E314C4AA2F856314B4A97F867308B
:1041880082F85C314A4BD3E906234749C1E93C230D
:10419800454BD3F84431444AC2F83C314FF40060EF
:1041A800FEF71CFC0346002B08D04FF40060FEF716
:1041B8002BFC0346002B01D0012300E00023002B39
:1041C80000F0EC804FF40060FEF734FC354B1B78B0
:1041D800DBB2012B40F0E280334BD3F8BC301846F9
:1041E800FDF7D2F90346304AC2F844312F48FEF7AA
:1041F800EAFC38662D48FEF7E6FCF8652B48FEF722
:10420800E2FCB8653B6E03F48063002B07D0284BB3
:1042180003F5805393F885315B09DAB200E0002298
:10422800FB6D03F40063002B07D0214B03F580538B
:1042380093F888319B09DBB200E000231344DAB21B
:10424800BB6D03F48053002B07D0194B03F5805343
:1042580093F88B31DB09DBB200E00023134487F8C5
:10426800573097F85730013B052B2FD897F8573020
:104278009CB20D4B93F85C3198B20B4BB3F95211C9
:1042880007F139020F4B03930F4B029307F13A03DF
:1042980001930A4B009313460A4601462046FEF74F
:1042A8001FFE21E032160020B8140020000802404A
:1042B8000000002048120020AC1400200A1600203C
:1042C8004412002018120020A4140020B04BB3F9A7
:1042D800520107F1390207F13A01AE4B0093134638
:1042E800AD4AFEF797FE00BFA94BD3F844311A46F2
:1042F800A74BD3F83831D31ADA17BB61FA61A74B49
:10430800D3F8AC30DA173B617A61D7E906452B461A
:10431800D7E90489424602FB03F24B46214601FBDA
:1043280003F3134422464146A2FB0112FA620A46ED
:10433800BA62FA6A1344FB62954BD7E90A12C3E9D9
:104348004412934BD3E944014FF000024FF00003AD
:10435800820F42EA81028B178D4BC3F8482197F8E8
:1043680039309AB28A4BA3F854218C4B03F5805309
:10437800B3F86021864BA3F85621854A97F8573041
:1043880082F85C31854BD3E908238149C1E93E2392
:104398007F4BD3F844317E4AC2F838314FF48060FD
:1043A800FEF71CFB0346002B08D04FF48060FEF795
:1043B8002BFB0346002B01D0012300E00023002B38
:1043C80000F0D4804FF48060FEF734FB744B1B7808
:1043D800DBB2012B40F0CA806D4BD3F8AC301846E5
:1043E800FDF7D2F803466A4AC2F844316D48FEF731
:1043F800EAFB38656B48FEF7E6FBF8646948FEF7A8
:10440800E2FBB8643B6D03F48063002B07D0634B79
:1044180003F5805393F886315B09DAB200E0002295
:10442800FB6C03F40063002B07D05C4B03F580534F
:1044380093F889319B09DBB200E000231344DAB218
:10444800BB6C03F48053002B07D0544B03F5805307
:1044580093F88C31DB09DBB200E00023134487F8C2
:10446800473097F84730013B052B18D897F8473065
:1044780098B2474B93F85C3199B2454BB3F9522146
:1044880007F13504484B0393484B029307F1360371
:104498000193414B00932346FEF722FD0CE03C4B71
:1044A800B3F9520107F1350307F13601404A00928A
:1044B800394AFEF7AFFD00BF354BD3F844311A46F1
:1044C800334BD3F83431D31ADA17BB60FA60334B65
:1044D800D3F8B030DA173B607A60D7E902452B464B
:1044E800D7E90089424602FB03F24B46214601FB0D
:1044F80003F3134422464146A2FB01127A620A469C
:104508003A627A6A13447B62214BD7E90812C3E9FD
:1045180044121F4BD3E944014FF000024FF000034F
:10452800820F42EA81028B17194BC3F8482197F88A
:1045380035309AB2164BA3F85421184B03F5805323
:10454800B3F86221124BA3F85621114A97F8473065
:1045580082F85C31114BD3E90A230D49C1E94023A4
:104568000B4BD3F844310A4AC2F83431BFF36F8F8A
:1045780000BFBFF34F8F00BF7B6F3B643B6C83F37F
:10458800108800BF00BF7C37BD46BDE8F08F00BF74
:10459800B8140020141200200A1600200000002081
:1045A8003216002000080240E81100209C14002068
:1045B800E4110020000000002DE9B04F2DED028B22
:1045C80094B000AFFEF791F9F8629F48FEF7F2F950
:1045D8000346002B07D09D48FDF77FF90346002BC3
:1045E80001D0012300E00023002B00F05B859648F2
:1045F800FEF7D2F9964B1B78DBB2012B40F05285BF
:10460800944B944A5B689360934B93F85E31002B0C
:1046180002D00023BB6306E08E4B9A688E4BD3F81A
:104628004C31D31ABB638B4B9B688B4AC2F84C3115
:10463800894B002283F85E21874BB3F856317B857E
:10464800854BB3F85631002B07D0844B03F58053C4
:10465800B3F86621804BA3F856217F4B93F85D3160
:10466800002B3AD17B8D002B0BD07B4B93F95B3120
:10467800002B06DC794BD3F80C31774AC2F820318D
:104688002BE0754B93ED488A744BD3E91045B86B12
:10469800FBF7C0FE02460B4620462946FBF734FFCF
:1046A80002460B4614461D466B4BD3F8403118465C
:1046B800FBF7D2FE02460B4620462946FBF724FFAD
:1046C80002460B4610461946FCF7EEF907EE900A2B
:1046D80078EE277A604BC3ED487A5F4B93ED487AC2
:1046E8005E4BD3ED447AB4EEE77AF1EE10FA06DDCC
:1046F8005A4BD3F81031584AC2F8203110E0564BC3
:1047080093ED487A554BD3ED457AB4EEE77AF1EE5E
:1047180010FA05D5514BD3F814314F4AC2F820315D
:104728004D4B93ED407B4C4B93ED3E6BB0EE461AF0
:10473800F0EE661AB0EE470AF0EE670A04F0ECF9FC
:10474800B0EE406AF0EE606A434B93ED3C7BB0EE0E
:10475800471AF0EE671AB0EE460AF0EE660A04F061
:10476800DBF9B0EE407AF0EE607AB0EE470AF0EE90
:10477800670A04F07DFA87ED120B97ED120B00F033
:1047880099FD0346002B06D197ED120B00F048FD6A
:104798000346002B06D04FF000024FF00003C7E994
:1047A800122307E09FED261B97ED120B04F05AF930
:1047B80087ED120B4FF000024FF00003D7E912010A
:1047C800FCF714F90346002B0CD0BB6CBB60FB6CE8
:1047D80083F00043FB60D7E90201FCF745F9034683
:1047E8005B4204E0D7E91201FCF73EF90346BB63DC
:1047F8001A4B03F58053B3F86E21184B03F5805319
:10480800B3F870319A4202D97B8D7B8605E0134B51
:1048180003F58053B3F86E317B867B8E002B05D071
:104828000D4B93F858210E4B83F822200A4B93F82E
:104838005931002B02D17B8D002B13D0012312E0BC
:10484800000000000000F041002001401C1400207E
:104858003216002020160020B81400200000002086
:1048680078140020002387F8293097F82930002B86
:104878000CD07B8D002B04D0BD4B1A8ABD4BA3F8FE
:104888005021BC4BB3F85021BB4B1A84BA4B1A8C3D
:10489800B74B03F58053B3F86A319A428CBF0123B2
:1048A8000023DBB21A46B34B83F85921B14B93F876
:1048B8005931002B2AD0AF4BD3F84831BA6B9A4202
:1048C80004D8AC4BD3F848317B6301E0BB6B7B6306
:1048D800A74B03F58053D3F844317A6B9A4206D339
:1048E800A34B03F58053B3F86C313B8614E0A14B1E
:1048F800B3F85431002B04D19F4B93F82230002B8E
:1049080001D0012300E000233B8605E0984B03F526
:104918008053B3F86C313B867B8E002B04D0954BCB
:10492800D3F82C31944A13603B8E002B00F074812D
:10493800904BB3F95231002B19DD8D4B03F58053A1
:10494800D3F8403107EE903AF8EE676A894BD3F80E
:10495800483107EE903AF8EE677A86EEA77A844BEC
:10496800D3ED407A67EE277AC7ED0F7A1AE0804BCD
:1049780003F58053D3F8403107EE903AF8EE676AB2
:104988007C4BD3F8483107EE903AF8EE677A86EE1A
:10499800A77A774BD3ED407A67EE277AF1EE677AFC
:1049A800C7ED0F7A724B03F58053B3F86431002BCF
:1049B80000F02E816E4BD3E90E014FF000026F4BD1
:1049C800FCF732F80346002B36D0BB6B07EE903A63
:1049D800F8EE676A674BD3F8483107EE903AB8EEBD
:1049E800677AC6EE877AC7ED077A97ED077ABB6BC9
:1049F80007EE903AB8EE676A5F4B1B6807EE903A8D
:104A0800F8EE676AC6EE267A37EE677A584BD3ED2A
:104A18003A7A27EE277A564BD3ED397A37EE277A4A
:104A2800D7ED077A27EE277A514BD3ED3B7A67EE1D
:104A3800277AC7ED077A14E0BB6B07EE903AF8EED9
:104A4800676A4C4BD3F8483107EE903AF8EE677A2C
:104A580086EEA77A464BD3ED3C7A67EE277AC7ED08
:104A6800077A434B93ED3D7AD7ED077AB4EEE77AB0
:104A7800F1EE10FA04D53E4BD3F8F430FB610DE0AB
:104A88003B4B93ED3E7AD7ED077AB4EEE77AF1EE39
:104A980010FA03DD364BD3F8F830FB61354BB3F928
:104AA8005231012B4FD0334B93F85C31013B052B2E
:104AB80038D801A252F823F01F4B0008034B000816
:104AC800114B0008E74A0008D94A0008F54A0008CF
:104AD80007F120032A491846FEF754FB29E007F19D
:104AE800200328491846FEF74DFB22E007F1200372
:104AF80025491846FEF746FB1BE007F1200323492A
:104B08001846FEF73FFB14E007F12003204918463A
:104B1800FEF738FB0DE007F120031E491846FEF7A3
:104B280031FB06E007F120031B491846FEF72AFB74
:104B380000BF97ED087AD7ED077A77EE677A0E4BC4
:104B4800C3ED047A64E00B4B93F85C31013B052B11
:104B58004ED801A252F823F0EB4B0008CF4B0008C7
:104B6800DD4B0008B34B0008A54B0008C14B0008FB
:104B780000000020B8140020781400200000F03F46
:104B8800E0110020DC110020D8110020D4110020F1
:104B9800D0110020CC110020C811002007F12003FB
:104BA800A6491846FEF7EEFA29E007F12003A449C2
:104BB8001846FEF7E7FA22E007F12003A149184654
:104BC800FEF7E0FA1BE007F120039F491846FEF7BD
:104BD800D9FA14E007F120039C491846FEF7D2FAE7
:104BE8000DE007F120039A491846FEF7CBFA06E0D4
:104BF80007F1200397491846FEF7C4FA00BF97ED5E
:104C0800087AD7ED077A77EE277A934BC3ED047AC3
:104C1800914B1B69FB614AE0904B93F85C31013B77
:104C2800052B39D801A252F823F000BF934C000895
:104C3800774C0008854C00085B4C00084D4C000878
:104C4800694C000807F11C0385491846FEF79AFAD3
:104C580029E007F11C0383491846FEF793FA22E07E
:104C680007F11C0380491846FEF78CFA1BE007F190
:104C78001C037E491846FEF785FA14E007F11C0369
:104C88007B491846FEF77EFA0DE007F11C037949C7
:104C98001846FEF777FA06E007F11C03764918462E
:104CA800FEF770FA00BF754BD3F80431FB63734B02
:104CB80093ED477AD7ED077A27EE277A674BD3ED3E
:104CC800487A77EE277A644BC3ED037A6B4BD3E9C6
:104CD80012014FF000024FF00003FBF7A5FE034658
:104CE800002B00F078815D4B93F86031002B09D1DF
:104CF800624BD3F8DC30594AC2F82431574B0122B1
:104D080083F860215D4BD3E912014FF000024FF0A8
:104D18000003FBF789FE0346002B3BD04F4B93F86B
:104D28006131002B0BD1554B03F58053D3F8383143
:104D38004A4AC2F83031494B012283F861214F4B6E
:104D480003F58053D3F8343100229A469346434BF7
:104D5800D3F830310022984691461AEB08033B609D
:104D68004BEB09037B60D7E90034C7E91034D7E976
:104D78001023012B05D34FF0FF324FF00003C7E992
:104D880010233B6C344A5360334B5B68334AC2F898
:104D980030310FE0314B93F86131002B0AD0374B9B
:104DA80003F58053D3F830312B4A53602B4B002244
:104DB80083F86121284B5A68304B9B689A4205D981
:104DC8002E4BD3E90C232549C1E94223224B5A68CB
:104DD8002A4BDB689A4294BF01230023DBB21A46B0
:104DE8001D4B83F823201C4B5A68244B03F5805332
:104DF800D3F83C319A4204D2204BD3F8B430FB614B
:104E080059E0164B93ED4A7A1C4BD3ED2E7A77EE88
:104E1800277A124BC3ED4A7A104B93ED4A7A174B17
:104E2800D3ED307AB4EEE77AF1EE10FA28DD134BC1
:104E3800D3F8C030094AC2F8283132E0C411002042
:104E4800C0110020BC110020B8110020B4110020AE
:104E5800B0110020AC11002078140020B8140020F4
:104E6800A8110020A4110020A01100209C110020EE
:104E780098110020941100209011002000000020BB
:104E8800924B93ED4A7A924BD3ED317AB4EEE77AAE
:104E9800F1EE10FA05D58E4BD3F8C4308B4AC2F820
:104EA80028318B4B93ED327A884BD3ED4A7A67EEF3
:104EB800277AC7ED077A864B03F5805393F881313B
:104EC800002B77D1814B93F85A31002B09D0804BB6
:104ED80093ED367AD7ED077A67EE277A7D4BC3EDE7
:104EE800077A7C4B93ED077A784BD3ED497A77EEC6
:104EF800277AC7ED077AD7ED077AB0EE670A03F08D
:104F080043FFF0EE407AC7ED087AD7ED087AB0EEA5
:104F1800670A00F0E4F90346002B08D1D7ED087AB8
:104F2800B0EE670A00F0A0F90346002B03D04FF05B
:104F380000033B620BE0D7ED087ADFED670AB0EEBD
:104F4800670A03F0C5FDF0EE407AC7ED087A97EDE1
:104F5800077AD7ED087AF5EEC07AF1EE10FA10D597
:104F6800D7ED087AF1EE677AFCEEE77A17EE903A19
:104F78009BB25B429BB21BB207EE903AF8EEE77A1F
:104F88000BE0D7ED087AFCEEE77A17EE903A9BB281
:104F98001BB207EE903AF8EEE77A77EE677A4D4B58
:104FA800C3ED067A4A4B03F5805393F87F21474BAC
:104FB80083F85A21464B93ED387A464BD3ED067A5F
:104FC80067EE277A434BC3ED057A424B9B693F4A0C
:104FD800C2F8243120E03D4B93F86031002B1BD000
:104FE8003A4B93F86131002B0AD0394B03F58053C3
:104FF800D3F83031374A5360344B002283F86121AB
:10500800334B03F5805393F88021324B83F82320E8
:105018002E4B002283F860212C4BD3F89C3007F1EB
:10502800140202211846FCF724FD284B002283F8BD
:105038005D217B8D002B14BF01230023DBB25AB204
:10504800224B83F85B21224B93ED467AD7ED0F7AFA
:1050580067EE277A1D4BC3ED507A7B8E002B11D05B
:105068001A4BB3F85431002B14BF01230023DBB2D1
:105078001A46164B83F85821144BD3F84831134A73
:10508800C2F82C3197F82930002B0BD0114B1A8C11
:105098000F4B03F58053B3F87231D31A9AB20B4B06
:1050A800A3F85021BFF36F8F00BFBFF34F8F00BF2E
:1050B800FB6A7B627B6A83F3108800BF00BF5037AE
:1050C800BD46BDEC028BBDE8B08F00BFB814002010
:1050D80000000020781400200000804780B500AF51
:1050E8001220FDF735FC2820FDF732FC00BF80BDFB
:1050F80080B500AF0F4B1B785A1CD1B20D4A117006
:10510800002B09D00C4B01221A600A4B1B78013B7B
:10511800DAB2084B1A700BE062B600BFFEF7E6F889
:1051280072B600BF034B1B78013BDAB2014B1A7011
:1051380080BD00BF301600202C16002080B584B03A
:1051480000AF78603960304BFB60304BBB60304B50
:1051580000221A702F4B00221A7001DF02F0B6FBF2
:1051680001F090F800F0D2F801F0B6FB01F088FBEE
:1051780001F006FB01F006FA01F0D4F801F0CEFACE
:10518800254B1B6800221A60FEF70CFFFEF750FC47
:1051980072B600BF97ED030A00F076F91E4B1B6844
:1051A8001B68002B0CBF01230023DBB21A46194BE6
:1051B8001A7062B600BF62B600BF15E0164B1B68D6
:1051C8001B68002B14BF01230023DBB21A46104BC7
:1051D8001A700F4B1B78DBB2002B05D00F4B1B68E6
:1051E8000E4A23F0010313600A4B1B78DBB2002B35
:1051F800E4D1FEF7D7FDFFF771FF72B600BF0023B9
:1052080018461037BD4680BD6F12833A0000A84289
:1052180031160020321600206095000810E000E0EA
:1052280080B582B000AF87ED000B0D4BD3E90023AA
:10523800D7E90001FBF7D0FB0346002B09D1094B46
:10524800D3E90023D7E90001FBF7C6FB0346002B8F
:1052580001D0012300E0002318460837BD4680BD71
:10526800781200208012002080B483B000AF87ED50
:10527800010A0E4BD3ED007A97ED017AB4EE677A06
:10528800F1EE10FA09D00A4BD3ED007A97ED017AC6
:10529800B4EE677AF1EE10FA01D1012300E00023A1
:1052A80018460C37BD465DF8047B7047881200200D
:1052B8008C12002080B582B000AF87ED000BD7E9D3
:1052C8000023D7E90001FBF7B9FB0346002B01D007
:1052D800012300E0002318460837BD4680BD80B48E
:1052E80083B000AF87ED010A97ED017AD7ED017A17
:1052F800B4EE677AF1EE10FA01D7012300E000233B
:1053080018460C37BD465DF8047B704780B400AF83
:1053180000BFBD465DF8047B704700BF10B50E4C5A
:1053280082B0636A019302F007FB0090626A019BF6
:105338009A4207D3009B01984FF47A7202FB03004C
:1053480002B010BD02F0F8FA636A4FF47A7202FBF9
:10535800003002B010BD00BF000C004010B504467C
:1053680041B9FFF7DBFFA042A0EB040038BF00F112
:10537800FF3010BD02F0E0FAA042A0EB040038BFF5
:1053880000F1FF3010BD00BF80B483B000AF03460A
:105398003960FB7197F90730002B0ADB3B68DAB2FA
:1053A8000C4997F907301201D2B20B4483F8002355
:1053B8000AE03B68DAB20849FB7903F00F03043BC3
:1053C8001201D2B20B441A7600BF0C37BD465DF805
:1053D800047B704700E100E000ED00E080B582B09A
:1053E80000AF78607B68013BB3F1807F01D3012374
:1053F8000FE00A4A7B68013B53600F214FF0FF30F2
:10540800FFF7C2FF054B00229A60044B07221A607F
:10541800002318460837BD4680BD00BF10E000E0F5
:1054280080B500AFBFF34F8F00BFBFF36F8F00BFD2
:105438000B4B1A680B4B1B689A4202D3084B00228D
:105448001A60074B1B685A1C05490A60002B05D1D6
:1054580072B600BFFFF74CFE62B600BF00BF80BD4A
:10546800341600203816002080B400AF054B5B6866
:10547800044A43F08053536000BFBD465DF8047B87
:10548800704700BF00ED00E080B584B000AF87ED45
:10549800010A254B1B6807EE903AB8EE677AD7EDFC
:1054A800017A67EE277AFCEEE77A17EE903AFB600E
:1054B800FB68B3F1807F18D3FB6807EE903AB8EE2B
:1054C800677ADFED1A6AC7EE267AFCEEE77A17EEFE
:1054D800903A0133164A1360154B1B68FA68B2FB01
:1054E800F3F31846FFF77AFF05E0114B00221A6024
:1054F800F868FFF773FF0F4B00221A6003214FF083
:10550800FF30FFF741FF0C4A0C4B1A600F216FF078
:105518000400FFF739FF0F216FF00100FFF734FF98
:1055280000BF1037BD4680BD94120020FFFF7F4B9F
:105538003816002034160020295400083C16002094
:10554800EFF3008001B5EFF3118003B41EF0100FE4
:1055580008BFB0EE400A0A48006803B488B004A047
:1055680006904FF0807007906FF0060086467047EF
:1055780003BC8047BFF36F8F00DFFEE700BF00006A
:105588003C1600201EF0100F08BFB0EE400A1EF0B7
:10559800040F0CBFEFF30880EFF30980816911F85D
:1055A800020C10B101280DD00BE01EF0100F0CBF3B
:1055B8001AB008B003BC80F3118803BC80F30088DC
:1055C8000847FEE74EF61451CEF200010A6842F091
:1055D80001020A607047F4E700BF00BF80B400AF63
:1055E800044BDB681B0A03F007031846BD465DF849
:1055F800047B704700ED00E080B483B000AF034641
:10560800FB7197F90730002B0BDBFB7903F01F02C6
:10561800074997F907305B09012000FA02F241F8BF
:10562800232000BF0C37BD465DF8047B704700BFE0
:1056380000E100E080B483B000AF03463960FB713D
:1056480097F90730002B0ADB3B68DAB20C4997F967
:1056580007301201D2B20B4483F800230AE03B68FA
:10566800DAB20849FB7903F00F03043B1201D2B206
:105678000B441A7600BF0C37BD465DF8047B7047B3
:1056880000E100E000ED00E080B489B000AFF86010
:10569800B9607A60FB6803F00703FB61FB69C3F13B
:1056A8000703042B28BF0423BB61FB690433062BC3
:1056B80002D9FB69033B00E000237B614FF0FF3216
:1056C800BB6902FA03F3DA43BB681A407B699A4064
:1056D8004FF0FF317B6901FA03F3D9437B680B4034
:1056E800134318462437BD465DF8047B704780B4E1
:1056F80089B000AFF860B9607A60FB682C3319464E
:10570800BB6803F440734FF440727A617A6992FA85
:10571800A2F23A613A69BA61BA69002A01D1202233
:1057280003E0BA69B2FA82F2D2B2D3409B000B44CA
:10573800FB61FB691A68BB6803F01F031F2101FAAC
:1057480003F3DB431A407B6803F01F01BB6803F0D7
:105758001F0301FA03F31A43FB691A6000BF2437D9
:10576800BD465DF8047B704780B483B000AF7860B5
:1057780039607B689B6823F480623B681A437B68C6
:105788009A6000BF0C37BD465DF8047B704780B453
:1057980087B000AFF860B9607A60FB689B6B1B0D3F
:1057A80003F0030301337B61FB689A6BBB68D9B2D2
:1057B8007B69DBB2CB1ADBB20333DBB219460B468B
:1057C8009B000B441F2101FA03F3DB431A407B685B
:1057D80003F01F01BB68D8B27B69DBB2C31ADBB226
:1057E8000333DBB2184603469B00034401FA03F374
:1057F8001A43FB689A6300BF1C37BD465DF8047BFB
:10580800704780B489B000AFF860B9607A60FB680F
:1058180014331946BB6803F440534FF440527A617D
:105828007A6992FAA2F23A613A69BA61BA69002AC7
:1058380001D1202203E0BA69B2FA82F2D2B2D3408F
:105848009B000B44FB61FB691B6823F47F6323F017
:105858000F037A681A43FB691A6000BF2437BD46F4
:105868005DF8047B704780B48FB000AFF860B96012
:105878007A60FB680C331946BB6803F000734FF07D
:1058880000727A617A6992FAA2F23A613A69BA6167
:10589800BA69002A01D1202203E0BA69B2FA82F279
:1058A800D2B2D3409B000B447B637B6B1A68BB6806
:1058B80003F0F8734FF0F8713962396A91FAA1F17F
:1058C800F961F9697962796A002901D1202103E037
:1058D800796AB1FA81F1C9B2CB40072101FA03F321
:1058E800DB431A40BB6803F0F8734FF0F871F962B4
:1058F800F96A91FAA1F1B962B96A3963396B002979
:1059080001D1202103E0396BB1FA81F1C9B2CB4052
:10591800796801FA03F31A437B6B1A6000BF3C37BE
:10592800BD465DF8047B704780B483B000AF7860F3
:1059380039607B689A683B681A437B689A6000BF45
:105948000C37BD465DF8047B704780B483B000AF68
:1059580078607B685B6823F080027B685A6000BFD0
:105968000C37BD465DF8047B7047000080B485B0F5
:1059780000AFF860B9607A600D4ABB6813441B78C1
:105988001A46FB6813441B6823F0C0020849BB6829
:105998000B441B781946FB680B4419467B68134374
:1059A8000B6000BF1437BD465DF8047B704700BF2D
:1059B8006495000880B485B000AFF860B9607A607B
:1059C8000D4ABB6813441B781A46FB6813441B68CE
:1059D80023F490720849BB680B441B781946FB688E
:1059E8000B4419467B6813430B6000BF1437BD4650
:1059F8005DF8047B704700BF6495000880B485B0EB
:105A080000AFF860B9607A600D4ABB6813441B7830
:105A18001A46FB6813441B6823F400720849BB68E4
:105A28000B441B781946FB680B4419467B681343E3
:105A38000B6000BF1437BD465DF8047B704700BF9C
:105A48006495000880B485B000AFF860B9607A60EA
:105A58000D4ABB6813441B781A46FB6813441B683D
:105A680023F480620849BB680B441B781946FB681D
:105A78000B4419467B6813430B6000BF1437BD46BF
:105A88005DF8047B704700BF6495000880B485B05A
:105A980000AFF860B9607A600D4ABB6813441B78A0
:105AA8001A46FB6813441B6823F4C0520849BB68B4
:105AB8000B441B781946FB680B4419467B68134353
:105AC8000B6000BF1437BD465DF8047B704700BF0C
