:020000040800F2
:1000000000800120E1FA000853DB000859DB0008FA
:100010005FDB000865DB00086BDB00080000000008
:1000200000000000000000000000000021B30008F4
:1000300071DB000800000000DDB2000805B2000816
:1000400031FB000831FB000831FB000831FB0008E0
:1000500031FB000831FB000831FB000831FB0008D0
:1000600031FB000831FB000831FB000831FB0008C0
:1000700031FB000831FB000831FB000831FB0008B0
:100080008DC0000831FB0008A13E00080000000000
:1000900000000000000000000000000031FB00082C
:1000A00031FB000831FB000831FB000831FB000880
:1000B00031FB000831FB000831FB000831FB000870
:1000C00031FB000831FB000831FB000831FB000860
:1000D00031FB000831FB000879C000080000000077
:1000E0004134000831FB000831FB0008000000002B
:1000F00000000000000000000000000031FB0008CC
:100100000000000031FB000881DB000831FB000823
:1001100000000000000000000000000000000000DF
:1001200095DB000831FB000831FB000831FB0008BB
:1001300031FB00080000000000000000000000008B
:1001400000000000000000000000000031FB00087B
:1001500031FB000831FB000831FB000831FB0008CF
:1001600031FB000831FB0008000000000000000027
:10017000000000000000000000000000000000007F
:100180000000000031FB000800000000000000003B
:0401900031FB000837
:1001980081F0004102E000BF83F0004330B54FEA30
:1001A80041044FEA430594EA050F08BF90EA020F9D
:1001B8001FBF54EA000C55EA020C7FEA645C7FEA30
:1001C800655C00F0E2804FEA5454D4EB5555B8BF53
:1001D8006D420CDD2C4480EA020281EA030382EAC4
:1001E800000083EA010180EA020281EA0303362D56
:1001F80088BF30BD11F0004F4FEA01314FF4801C29
:100208004CEA113102D0404261EB410113F0004F3A
:100218004FEA03334CEA133302D0524263EB4303F1
:1002280094EA050F00F0A780A4F10104D5F1200E8F
:100238000DDB02FA0EFC22FA05F2801841F10001EA
:1002480003FA0EF2801843FA05F359410EE0A5F1BE
:1002580020050EF1200E012A03FA0EFC28BF4CF0EF
:10026800020C43FA05F3C01851EBE37101F00045A5
:1002780007D54FF0000EDCF1000C7EEB00006EEBB2
:100288000101B1F5801F1BD3B1F5001F0CD349083C
:100298005FEA30004FEA3C0C04F101044FEA445293
:1002A80012F5800F80F09A80BCF1004F08BF5FEA1A
:1002B800500C50F1000041EB045141EA050130BDFA
:1002C8005FEA4C0C404141EB0101013C28BFB1F50C
:1002D800801FE9D291F0000F04BF01460020B1FA57
:1002E80081F308BF2033A3F10B03B3F120020CDA2A
:1002F8000C3208DD02F1140CC2F10C0201FA0CF008
:1003080021FA02F10CE002F11402D8BFC2F1200C6C
:1003180001FA02F120FA0CFCDCBF41EA0C01904022
:10032800E41AA2BF01EB0451294330BD6FEA04046B
:100338001F3C1CDA0C340EDC04F11404C4F1200256
:1003480020FA04F001FA02F340EA030021FA04F368
:1003580045EA030130BDC4F10C04C4F1200220FABF
:1003680002F001FA04F340EA0300294630BD21FAFD
:1003780004F0294630BD94F0000F83F4801306BFC3
:1003880081F480110134013D4EE77FEA645C18BFB7
:100398007FEA655C29D094EA050F08BF90EA020F4E
:1003A80005D054EA000C04BF1946104630BD91EA46
:1003B800030F1EBF0021002030BD5FEA545C05D149
:1003C8004000494128BF41F0004130BD14F5800488
:1003D8003CBF01F5801130BD01F0004545F0FE41FC
:1003E80041F470014FF0000030BD7FEA645C1ABF31
:1003F800194610467FEA655C1CBF0B46024650EA68
:10040800013406BF52EA033591EA030F41F4002193
:1004180030BD00BF90F0000F04BF0021704730B519
:100428004FF4806404F132044FF000054FF00001EE
:1004380050E700BF90F0000F04BF0021704730B5AF
:100448004FF4806404F1320410F0004548BF404284
:100458004FF000013EE700BF42004FEAE2014FEAD9
:1004680031014FEA02701FBF12F07F4393F07F4FB4
:1004780081F06051704732F07F4208BF704793F0B7
:100488007F4F04BF41F40021704730B54FF46074CA
:1004980001F0004521F000411CE700BF50EA0102CD
:1004A80008BF704730B54FF000050AE050EA010276
:1004B80008BF704730B511F0004502D5404261EBE6
:1004C80041014FF4806404F132045FEA915C3FF427
:1004D800D8AE4FF003025FEADC0C18BF03325FEAC4
:1004E800DC0C18BF033202EBDC02C2F1200300FA75
:1004F80003FC20FA02F001FA03FE40EA0E0021FA9A
:1005080002F11444BDE600BF70B54FF0FF0C4CF487
:10051800E06C1CEA11541DBF1CEA135594EA0C0F39
:1005280095EA0C0F00F0DEF82C4481EA030621EA74
:100538004C5123EA4C5350EA013518BF52EA0335AF
:1005480041F4801143F4801338D0A0FB02CE4FF061
:100558000005E1FB02E506F00042E0FB03E54FF091
:100568000006E1FB03569CF0000F18BF4EF0010E89
:10057800A4F1FF04B6F5007F64F5407404D25FEA85
:100588004E0E6D4146EB060642EAC62141EA555138
:100598004FEAC52040EA5E504FEACE2EB4F1FD0C7A
:1005A80088BFBCF5E06F1ED8BEF1004F08BF5FEAF8
:1005B800500E50F1000041EB045170BD06F00046AA
:1005C80046EA010140EA020081EA0301B4EB5C0457
:1005D800C2BFD4EB0C0541EA045170BD41F480114F
:1005E8004FF0000E013C00F3AB8014F1360FDEBF74
:1005F800002001F0004170BDC4F10004203C35DA50
:100608000C341BDC04F11404C4F1200500FA05F3D2
:1006180020FA04F001FA05F240EA020001F0004273
:1006280021F0004110EBD37021FA04F642EB0601E9
:100638005EEA430E08BF20EAD37070BDC4F10C0413
:10064800C4F1200500FA04F320FA05F001FA04F2D7
:1006580040EA020001F0004110EBD37041F10001C3
:100668005EEA430E08BF20EAD37070BDC4F12005CE
:1006780000FA05F24EEA020E20FA04F301FA05F236
:1006880043EA020321FA04F001F0004121FA04F2DE
:1006980020EA020000EBD3705EEA430E08BF20EAAE
:1006A800D37070BD94F0000F0FD101F000464000E8
:1006B80041EB010111F4801F08BF013CF7D041EA6A
:1006C800060195F0000F18BF704703F0004652006E
:1006D80043EB030313F4801F08BF013DF7D043EA3F
:1006E8000603704794EA0C0F0CEA135518BF95EAF5
:1006F8000C0F0CD050EA410618BF52EA4306D1D17C
:1007080081EA030101F000414FF0000070BD50EA9A
:10071800410606BF1046194652EA430619D094EA24
:100728000C0F02D150EA013613D195EA0C0F05D10E
:1007380052EA03361CBF104619460AD181EA030162
:1007480001F0004141F0FE4141F470014FF000001A
:1007580070BD41F0FE4141F4780170BD70B54FF0B5
:10076800FF0C4CF4E06C1CEA11541DBF1CEA135535
:1007780094EA0C0F95EA0C0F00F0A7F8A4EB050417
:1007880081EA030E52EA03354FEA013100F088800E
:100798004FEA03334FF0805545EA131343EA1263D7
:1007A8004FEA022245EA111545EA10654FEA00268C
:1007B8000EF000419D4208BF964244F1FD0404F545
:1007C800407402D25B084FEA3202B61A65EB0305A1
:1007D8005B084FEA32024FF480104FF4002CB6EB5E
:1007E800020E75EB030E22BFB61A754640EA0C00DE
:1007F8005B084FEA3202B6EB020E75EB030E22BF1E
:10080800B61A754640EA5C005B084FEA3202B6EB5E
:10081800020E75EB030E22BFB61A754640EA9C001D
:100828005B084FEA3202B6EB020E75EB030E22BFED
:10083800B61A754640EADC0055EA060E18D04FEAAB
:10084800051545EA16754FEA06164FEAC30343EA4B
:1008580052734FEAC2025FEA1C1CC0D111F4801F18
:100868000BD141EA00014FF000004FF0004CB6E711
:1008780011F4801F04BF01430020B4F1FD0C88BFB0
:10088800BCF5E06F3FF6AFAEB5EB030C04BFB6EBBB
:10089800020C5FEA500C50F1000041EB045170BDAE
:1008A8000EF0004E4EEA113114EB5C04C2BFD4EBDB
:1008B8000C0541EA045170BD41F480114FF0000E5F
:1008C800013C90E645EA060E8DE60CEA135594EADB
:1008D8000C0F08BF95EA0C0F3FF43BAF94EA0C0FDE
:1008E8000AD150EA01347FF434AF95EA0C0F7FF453
:1008F80025AF104619462CE795EA0C0F06D152EAA7
:1009080003353FF4FDAE1046194622E750EA41068A
:1009180018BF52EA43067FF4C5AE50EA41047FF49B
:100928000DAF52EA43057FF4EBAE12E74FF0FF3C00
:1009380006E000BF4FF0010C02E000BF4FF0010CD1
:100948004DF804CD4FEA410C7FEA6C5C4FEA430C4A
:1009580018BF7FEA6C5C1BD001B050EA410C0CBF99
:1009680052EA430C91EA030F02BF90EA020F0020FB
:10097800704710F1000F91EA030F58BF994208BF62
:1009880090422CBFD8176FEAE37040F0010070471F
:100998004FEA410C7FEA6C5C02D150EA013C07D176
:1009A8004FEA430C7FEA6C5CD6D152EA033CD3D0C1
:1009B8005DF8040B704700BF8446104662468C46BB
:1009C8001946634600E000BF01B5FFF7B7FF0028EE
:1009D80048BF10F1000F01BD4DF808EDFFF7F4FF17
:1009E8000CBF012000205DF808FB00BF4DF808EDA2
:1009F800FFF7EAFF34BF012000205DF808FB00BFC5
:100A08004DF808EDFFF7E0FF94BF012000205DF8E6
:100A180008FB00BF4DF808EDFFF7CEFF94BF01209B
:100A280000205DF808FB00BF4DF808EDFFF7C4FF94
:100A380034BF012000205DF808FB00BF4FEA410CDD
:100A48007FEA6C5C02D150EA013C0AD14FEA430CC0
:100A58007FEA6C5C02D152EA033C02D14FF00000FD
:100A680070474FF0010070474A0011D212F500128A
:100A780011D20DD56FF47873B3EB62520ED44FEAEE
:100A8800C12343F0004343EA505323FA02F070476E
:100A98004FF00000704750EA013002D14FF0FF30AC
:100AA80070474FF0000070474FEA4102B2F1E0434F
:100AB80024BFB3F5001CDCF1FE5C0DD901F0004C3D
:100AC8004FEAC0024CEA5070B2F1004F40EB83008D
:100AD80008BF20F00100704711F0804F21D113F1B9
:100AE8003872BCBF01F00040704741F480114FEAF2
:100AF8005252C2F11802C2F1200C10FA0CF320FA7B
:100B080002F018BF40F001004FEAC1234FEAD32397
:100B180003FA0CFC40EA0C0023FA02F34FEA430301
:100B2800CCE77FEA625307D150EA01331EBF4FF08A
:100B3800FE4040F44000704701F0004040F0FE40A5
:100B480040F40000704700BF53B94AB9002908BFF4
:100B580000281CBF4FF0FF314FF0FF3000F00CB8F9
:100B6800ADF1080C6DE904CE0FF034FADDF804E0BD
:100B7800DDE9022304B07047704700BF0348044B07
:100B8800834202D0034B03B1184770470803002083
:100B980008030020000000000548064B1B1AD90F67
:100BA80001EBA301491002D0034B03B1184770476A
:100BB80008030020080300200000000010B5064CC0
:100BC800237843B9FFF7DAFF044B13B10448AFF3B6
:100BD80000800123237010BD0803002000000000DE
:100BE8002403010808B5054B1BB105490548AFF3B7
:100BF8000080BDE80840FFF7CFBF00BF000000003D
:100C08000C0300202403010880B485B000AF78608D
:100C18007B681B6803F06003FB60FB68002B04D152
:100C28007B681B6803F01003FB60FB6818461437E9
:100C3800BD465DF8047B704780B483B000AF786030
:100C48007B685B6A18460C37BD465DF8047B7047C5
:100C580080B483B000AF78607B681B6B18460C3794
:100C6800BD465DF8047B704780B483B000AF786000
:100C780039607B681A6A3B681A437B681A6200BF4E
:100C88000C37BD465DF8047B704780B483B000AF75
:100C9800786039607B681A6A3B68DB431A407B6876
:100CA8001A6200BF0C37BD465DF8047B704780B4FC
:100CB80083B000AF78607B685B6C43F400427B686C
:100CC8005A6400BF0C37BD465DF8047B704780B49A
:100CD80083B000AF78607B68DB6843F001027B6813
:100CE800DA6000BF0C37BD465DF8047B704780B4FE
:100CF80083B000AF78607B68DB6823F001027B6813
:100D0800DA6000BF0C37BD465DF8047B704780B4DD
:100D180083B000AF78607B68DB6803F00103012BC8
:100D280001D1012300E0002318460C37BD465DF8C9
:100D3800047B704780B483B000AF78607B68DB6861
:100D480043F002027B68DA6000BF0C37BD465DF8ED
:100D5800047B704780B483B000AF78607B68DB6841
:100D680023F002027B68DA6000BF0C37BD465DF8ED
:100D7800047B704780B483B000AF78607B68DB6821
:100D880003F00203022B01D1012300E000231846DF
:100D98000C37BD465DF8047B704780B483B000AF64
:100DA80078607B68DB6843F004027B68DA6000BF28
:100DB8000C37BD465DF8047B704780B483B000AF44
:100DC80078607B68DB6823F004027B68DA6000BF28
:100DD8000C37BD465DF8047B704780B483B000AF24
:100DE80078607B68DB6803F00403042B01D10123DE
:100DF80000E0002318460C37BD465DF8047B7047B9
:100E080080B483B000AF78607B68DB6843F0080289
:100E18007B68DA6000BF0C37BD465DF8047B70471D
:100E280080B483B000AF78607B68DB6823F0080289
:100E38007B68DA6000BF0C37BD465DF8047B7047FD
:100E480080B483B000AF78607B68DB6803F0080388
:100E5800082B01D1012300E0002318460C37BD46BA
:100E68005DF8047B704780B483B000AF78607B681E
:100E7800DB6843F010027B68DA6000BF0C37BD46C0
:100E88005DF8047B704780B483B000AF78607B68FE
:100E9800DB6823F010027B68DA6000BF0C37BD46C0
:100EA8005DF8047B704780B483B000AF78607B68DE
:100EB800DB6803F01003102B01D1012300E00023AD
:100EC80018460C37BD465DF8047B704780B483B084
:100ED80000AF78607B68DB6843F020027B68DA60EB
:100EE80000BF0C37BD465DF8047B704780B483B003
:100EF80000AF78607B68DB6823F020027B68DA60EB
:100F080000BF0C37BD465DF8047B704780B483B0E2
:100F180000AF78607B68DB6803F02003202B01D1E9
:100F2800012300E0002318460C37BD465DF8047B1A
:100F3800704780B483B000AF78607B68DB6843F0AB
:100F480040027B68DA6000BF0C37BD465DF8047B61
:100F5800704780B483B000AF78607B68DB6823F0AB
:100F680040027B68DA6000BF0C37BD465DF8047B41
:100F7800704780B483B000AF78607B68DB6803F0AB
:100F88004003402B01D1012300E0002318460C3711
:100F9800BD465DF8047B704780B483B000AF7860CD
:100FA8007B68DB6843F080027B68DA6000BF0C373F
:100FB800BD465DF8047B704780B483B000AF7860AD
:100FC8007B68DB6823F080027B68DA6000BF0C373F
:100FD800BD465DF8047B704780B483B000AF78608D
:100FE8007B68DB6803F08003802B01D1012300E0DC
:100FF800002318460C37BD465DF8047B704780B562
:1010080082B000AF78600B467B807B8803F00103D9
:10101800002B0CD07B681B681846FFF7AAFF034615
:10102800012B04D07B681B681846FFF782FF7B887A
:1010380003F00203002B0CD07B681B681846FFF7EF
:1010480099FE0346012B04D07B681B681846FFF7FE
:1010580071FE7B8803F00403002B0CD07B681B68AF
:101068001846FFF7BAFE0346012B04D07B681B68BD
:101078001846FFF792FE7B8803F00803002B0CD07C
:101088007B681B681846FFF7DBFE0346012B04D07C
:101098007B681B681846FFF7B3FE7B8803F01003D4
:1010A800002B0CD07B681B681846FFF7FCFE034634
:1010B800012B04D07B681B681846FFF7D4FE7B8899
:1010C80003F02003002B0CD07B681B681846FFF741
:1010D8001EFE0346012B04D07B681B681846FFF7E9
:1010E800F6FD7B8803F04003002B0CD07B681B685F
:1010F8001846FFF771FF0346012B04D07B681B6875
:101108001846FFF749FF7B8803F08003002B0CD0BB
:101118007B681B681846FFF7F9FE0346012B04D0CD
:101128007B681B681846FFF7D1FE00BF0837BD462D
:1011380080BD80B582B000AF78600B467B807B882D
:1011480003F00103002B0CD07B681B681846FFF7DF
:1011580010FF0346012B04D17B681B681846FFF774
:10116800F8FE7B8803F00203002B0CD07B681B6819
:101178001846FFF7FFFD0346012B04D17B681B6867
:101188001846FFF7E7FD7B8803F00403002B0CD01B
:101198007B681B681846FFF720FE0346012B04D125
:1011A8007B681B681846FFF708FE7B8803F0080376
:1011B800002B0CD07B681B681846FFF741FE0346DE
:1011C800012B04D17B681B681846FFF729FE7B8832
:1011D80003F01003002B0CD07B681B681846FFF740
:1011E80062FE0346012B04D17B681B681846FFF793
:1011F8004AFE7B8803F02003002B0CD07B681B6819
:101208001846FFF784FD0346012B04D07B681B6852
:101218001846FFF76CFD7B8803F04003002B0CD0C9
:101228007B681B681846FFF7D7FE0346012B04D1DD
:101238007B681B681846FFF7BFFE7B8803F08003B6
:10124800002B0CD07B681B681846FFF75FFE03462F
:10125800012B04D17B681B681846FFF747FE00BFC7
:101268000837BD4680BD000080B582B000AF786009
:101278000B46FB70FB78022B06D17B681B680121AB
:101288001846FFF7F1FC1DE07B681B680F4A934284
:1012980018D1FB78032B06D17B681B6804211846FC
:1012A800FFF7E2FC0EE0FB78042B0BD17B681B6890
:1012B80001211846FFF7D8FC7B681B6804211846F3
:1012C800FFF7D2FC00BF0837BD4680BD00000140D3
:1012D80080B582B000AF78600B46FB70FB78022BBC
:1012E80006D17B681B6801211846FFF7CEFC1DE07C
:1012F8007B681B680F4A934218D1FB78032B06D1F1
:101308007B681B6804211846FFF7BFFC0EE0FB78DA
:10131800042B0BD17B681B6801211846FFF7B5FC2D
:101328007B681B6804211846FFF7AFFC00BF08372D
:10133800BD4680BD0000014080B582B000AF786036
:101348000B46FB70FB78022B06D17B681B681021CB
:101358001846FFF789FC1DE07B681B680F4A93421B
:1013680018D1FB78032B06D17B681B6840211846EF
:10137800FFF77AFC0EE0FB78042B0BD17B681B6827
:1013880010211846FFF770FC7B681B68402118463F
:10139800FFF76AFC00BF0837BD4680BD000001406A
:1013A80080B582B000AF78600B46FB70FB78022BEB
:1013B80006D17B681B6810211846FFF766FC1DE004
:1013C8007B681B680F4A934218D1FB78032B06D120
:1013D8007B681B6840211846FFF757FC0EE0FB7836
:1013E800042B0BD17B681B6810211846FFF74DFCB6
:1013F8007B681B6840211846FFF747FC00BF083789
:10140800BD4680BD0000014080B582B000AF786065
:101418000B46FB70FB78022B07D17B681B684FF4E7
:1014280080711846FFF720FC20E07B681B68114A92
:1014380093421BD1FB78032B07D17B681B684FF4C1
:1014480080611846FFF710FC10E0FB78042B0DD1E3
:101458007B681B684FF480711846FFF705FC7B68B2
:101468001B684FF480611846FFF7FEFB00BF083782
:10147800BD4680BD0000014080B582B000AF7860F5
:101488000B46FB70FB78022B07D17B681B684FF477
:1014980080711846FFF7F9FB20E07B681B68114A4A
:1014A80093421BD1FB78032B07D17B681B684FF451
:1014B80080611846FFF7E9FB10E0FB78042B0DD19B
:1014C8007B681B684FF480711846FFF7DEFB7B686A
:1014D8001B684FF480611846FFF7D7FB00BF083739
:1014E800BD4680BD0000014080B584B000AF786083
:1014F8000023FB607B681B68204A934202D1204B83
:10150800FB6006E07B681B68B3F1804F01D11D4B7F
:10151800FB607B681A68FB681A60FB681B681846E2
:10152800FFF772FBB860BB68002B06D0BB68102BB6
:1015380003D0FB6801221A7102E0FB6800221A71CD
:10154800FB681B680D4A934204D1FB681B68184668
:10155800FFF7ADFBFB681B68084A934208D17B681C
:101568001B681846FFF774FB0346DAB2FB685A712A
:10157800FB6818461037BD4680BD00BF000001401B
:1015880024030020B003002080B582B000AF78604B
:101598007B681B681846FFF74FFB03461846083759
:1015A800BD4680BD80B483B000AF786039607B6889
:1015B800DB6A23F470023B681A437B68DA6200BF77
:1015C8000C37BD465DF8047B704780B483B000AF2C
:1015D800786039607B689B6823F440723B681A43E3
:1015E8007B689A6000BF0C37BD465DF8047B704786
:1015F80080B483B000AF78607B689B6803F44013C5
:10160800002B0CBF01230023DBB218460C37BD4664
:101618005DF8047B704780B483B000AF78607B6866
:101628009B6843F001027B689A6000BF0C37BD4697
:101638005DF8047B704780B483B000AF78607B6846
:101648009B6823F001027B689A6000BF0C37BD4697
:101658005DF8047B704780B483B000AF78607B6826
:101668009B6803F00103012B0CBF01230023DBB2AD
:1016780018460C37BD465DF8047B704780B483B0CC
:1016880000AF78607B689B6843F480027B689A604F
:1016980000BF0C37BD465DF8047B704780B483B04B
:1016A80000AF78607B681B6803F00403042B0CBF51
:1016B80001230023DBB218460C37BD465DF8047BD6
:1016C800704780B483B000AF78607B686FF0040225
:1016D8001A6000BF0C37BD465DF8047B704780B4C4
:1016E80083B000AF78607B685B6843F020027B685A
:1016F8005A6000BF0C37BD465DF8047B704780B464
:1017080083B000AF78607B685B6843F080027B68D9
:101718005A6000BF0C37BD465DF8047B704780B443
:1017280083B000AF78607B685B6823F020027B6839
:101738005A6000BF0C37BD465DF8047B704780B423
:1017480083B000AF78607B685B6823F080627B6859
:101758005A6000BF0C37BD465DF8047B704780B403
:1017680083B000AF78607B685B6823F080027B6899
:101778005A6000BF0C37BD465DF8047B704780B4E3
:1017880083B000AF78607B685B6823F040027B68B9
:101798005A6000BF0C37BD465DF8047B704780B4C3
:1017A80083B000AF78607B685B6803F08063B3F157
:1017B800806F0CBF01230023DBB218460C37BD46EF
:1017C8005DF8047B704780B483B000AF78607B68B5
:1017D8005B6803F04003402B0CBF01230023DBB2FE
:1017E80018460C37BD465DF8047B704780B584B059
:1017F80000AF78600123FB817B681B691846FFF7FF
:10180800F7FE0346002B24D07B689B7ADBB2022BC1
:101818000CD07B689B7ADBB2082B07D07B681B69EE
:101828001846FFF73BFF0346012B12D17B689B7AD2
:10183800DBB2082B03D17B6801229A7202E07B6835
:1018480020229A727B681B691846FFF717FF00234E
:10185800FB81FB8918461037BD4680BD80B487B030
:1018680000AFF8600B467A607B81FB683C333B61D4
:1018780000237B610DE07B699B003A69134419687A
:101888007B695B007A6813448AB21A807B690133EA
:101898007B617B897A699A42EDDB00BF00BF1C3708
:1018A800BD465DF8047B704780B485B000AFF86032
:1018B800B9607A603B6000BF1437BD465DF8047BB1
:1018C800704780B485B000AFF860B9607A6000BF37
:1018D8001437BD465DF8047B704780B584B000AF0F
:1018E80078607B681B691846FFF7D8FE0346FB73D0
:1018F800FB7B012B07D17B681B691846FFF7E1FECC
:101908007B6802229A72FB7B18461037BD4680BD61
:1019180080B483B000AF78600B46FB7000BF0C3713
:10192800BD465DF8047B704790B589B002AFF8609A
:10193800084611461A4603467B810B463B811346EF
:10194800FB8000237B61FB681B693D4A934201D100
:101958003C4B7B617B69002B6CD0FB681A697B6907
:101968001A617B690022DA71FB88012B62D03B89FE
:10197800002B48D07B695B7ADBB2082B43D0FB682D
:10198800DA687B69DA60FB681A687B691A60FB6849
:101998005A697B695A61FB689A797B699A71FB6815
:1019A8001A797B691A717B691B69B96A1846FFF74E
:1019B800F9FD7B89012B22D07B89042B17D17B6908
:1019C8001B694FF440711846FFF7FFFD7B691869E2
:1019D8007B6959697B699B791C467B69DA687B69F5
:1019E8001B68009313462246FFF75EFF07E07B89DA
:1019F800022B04D17B691B691846FFF770FE7B69CF
:101A080008225A7216E03B89002B13D17B699B7A16
:101A1800DBB2082B0ED0FB685A797B695A717B8937
:101A2800022B04D17B691B691846FFF768FE7B69A6
:101A380008229A727B6918461C37BD4690BD00BFC4
:101A4800002001403C04002080B582B000AF7860DF
:101A58007B681B691846FFF7FEFD0346002B04D17F
:101A68007B681B691846FFF7D6FD00BF0837BD46DF
:101A780080BD80B586B000AFF8600B467A607B8188
:101A88000123FB82FB681B69002B4BD07B89012B50
:101A980005D1F868FFF7AAFE0346FB8242E07B897E
:101AA800042B24D1FB681B691846FFF7A1FD0346E8
:101AB800002B37D0FB6801229A72FB681B69184615
:101AC800FFF7DCFD00BFFB689B7ADBB2022BFAD183
:101AD800FB681869FB685B799BB27A681946FFF75F
:101AE800BDFEFB6808229A720023FB821AE07B89FC
:101AF800022B17D1FB689B7ADBB2202B04D0FB6842
:101B08009B7ADBB2022B0DD1FB6808229A72FB6824
:101B18001869FB685B799BB27A681946FFF79EFEE5
:101B28000023FB82FB8A18461837BD4680BD80B566
:101B380082B000AF78600B467B8013463B807B68A1
:101B48001B691846FFF787FD0346002B04D07B6806
:101B58001B691846FFF76FFD7B681B691846FFF77E
:101B680032FE0346002B04D07B681B691846FFF73A
:101B780006FE7B681B691846FFF711FE0346002B1B
:101B880004D07B681B691846FFF7D9FD3B88002BFA
:101B980035D07B88012B1AD07B88022B05D17B6836
:101BA8001B691846FFF7BBFD11E07B88042B0ED19B
:101BB8007B6818697B6859697B689B791A46FFF7C7
:101BC80080FE7B681B6900211846FFF7FEFC7B68D6
:101BD8000022DA607B6800221A607B6800225A6162
:101BE8007B6800229A717B6800221A717B681A69E7
:101BF8007B681B7919461046FFF7D4FC0AE07B681E
:101C080000225A717B88022B04D17B681B69184615
:101C1800FFF7A5FD00BF0837BD4680BD80B485B07D
:101C280000AF786039600023FB7397F90F301846CE
:101C38001437BD465DF8047B7047000080B584B05A
:101C480000AF786039600023FB727B68002B05D1F8
:101C5800374803F024F94FF0FF3365E03B68002B69
:101C680005D1344803F01BF94FF0FF335CE0324BE9
:101C7800D3E900014FF000024FF04043FEF7ACFEFD
:101C88000346002B06D03B68D3E900232A49C1E963
:101C9800002305E0284BD3E900233968C1E9002374
:101CA800254BD3E900014FF00002244BFEF794FEC8
:101CB8000346002B02D0224803F0F1F87B685B68EA
:101CC8001B68204A13607B685B685B681E4A136068
:101CD8007B685B689B681D4A13607B685B68DB6890
:101CE8001B4A13601B4B00221A6003F049FD0023B6
:101CF800FB600023FB6007E0174AFB68174942F8BE
:101D08002310FB680133FB60FB68012BF4D903F057
:101D180081F90346FB7297F90B30002B02D1104B67
:101D280001221A7097F90B3018461037BD4680BD4E
:101D38004003010864030108280200200000F0BFE6
:101D4800900301089C070020A0070020A40700209A
:101D5800A8070020AC07002058040020F15700080D
:101D68009A07002080B586B000AF78600023FB7525
:101D780000233B610023FB732A4B1B78DBB2002B4B
:101D88000CBF01230023DBB2BB73274B02221A705E
:101D98007B68002B0BD1234B1B78DBB2002B06D1C1
:101DA800224B1B78DBB2002B01D1012300E000237A
:101DB800FB7316E00A2009F025F93B6903F51C536B
:101DC80010333B617B68B3F1FF3F05D03A697B680C
:101DD8009A4201D9012300E00023FB73002003F09D
:101DE80067F9104B1B78DBB2002B07D10F4B1B7820
:101DF800DBB2002B02D1FB7B002BDBD00A4B03228A
:101E08001A70FB7B002B01D09C23FB75BB7B002B3E
:101E180001D003F0E3FD97F9173018461837BD468F
:101E280080BD00BF980700209A070020990700206E
:101E380080B586B000AF034687ED000BFB81002319
:101E4800FB750123BB754FF000024FF00003D7E983
:101E58000001FEF7CBFD0346002B05D02E4803F00A
:101E68001EF84FF0FF3353E0FB89FF2B08D9FB899D
:101E7800FF221946294803F012F84FF0FF3347E0D4
:101E8800274B1B78DBB2032B04D0254B1B78DBB226
:101E9800012B02D1224B04221A70FB89012B15D881
:101EA800FB89204A52F82330002B0FD004F060F948
:101EB80003467B757B7D022B08D1FB89194A52F8B2
:101EC8002330FA89104698470346BB75FB897B8205
:101ED800FB89184697ED000B02F0FEFFBB7D002B37
:101EE80006D07B8A184604F01BF90346FB7503E00D
:101EF8007B8A184604F077F997F91730002B05D03C
:101F080097F917301946084802F0C9FF97F91730B2
:101F180018461837BD4680BDFC0301084004010877
:101F28009A070020580400208004010880B582B078
:101F380000AF0023FB71002003F0BAF80346FB71E1
:101F480097F9073018460837BD4680BD80B582B07E
:101F580000AF0023FB710B4B06221A7003F046F901
:101F68000346FB710822002107480EF097F903F099
:101F7800BBFC044B00221A7097F907301846083743
:101F8800BD4680BD9A0700205804002080B400AFE9
:101F9800034B1B78DBB21846BD465DF8047B7047DF
:101FA8009907002080B400AF034B1B78DBB21846BA
:101FB800BD465DF8047B7047B007002080B483B04D
:101FC80000AF03463960FB7197F90730002B0ADB35
:101FD8003B68DAB20C4997F907301201D2B20B44C8
:101FE80083F800230AE03B68DAB20849FB7903F07A
:101FF8000F03043B1201D2B20B441A7600BF0C3710
:10200800BD465DF8047B704700E100E000ED00E0AC
:1020180080B584B000AFF860B9607A60FB68DBB265
:102028000F3BDBB25BB279681846FFF7C7FF00BF0A
:102038001037BD4680BD80B485B000AFEFF3108384
:102048007B607B68FB600123BB60BB6883F31088FF
:1020580000BFFB6818461437BD465DF8047B70471F
:1020680080B483B000AF0346FB7197F90730002BAB
:102078000BDBFB7903F01F02074997F907305B096F
:10208800012000FA02F241F8232000BF0C37BD46B8
:102098005DF8047B704700BF00E100E080B483B0C6
:1020A80000AF0346FB7197F90730002B12DBFB7971
:1020B80003F01F020A4997F907305B09012000FA6B
:1020C80002F2203341F82320BFF34F8F00BFBFF344
:1020D8006F8F00BF00BF0C37BD465DF8047B7047AB
:1020E80000E100E080B483B000AF78607B686FF0F7
:1020F80004021A6000BF0C37BD465DF8047B7047C8
:1021080080B483B000AF78607B685B6803F08003BD
:10211800802B0CBF01230023DBB218460C37BD46C9
:102128005DF8047B7047000080B483B000AF78602E
:10213800074B1A687B6813407A689A420CBF0123E0
:102148000023DBB218460C37BD465DF8047B7047A8
:10215800003C014080B483B000AF7860074B5A69F7
:102168007B6813407A689A420CBF01230023DBB2D4
:1021780018460C37BD465DF8047B7047003C0140AB
:1021880080B483B000AF7860044A7B68536100BFB5
:102198000C37BD465DF8047B704700BF003C01402A
:1021A80080B483B000AF78607B681B6843F001029D
:1021B8007B681A6000BF0C37BD465DF8047B70472A
:1021C80080B483B000AF78607B681B6823F001029D
:1021D8007B681A6000BF0C37BD465DF8047B70470A
:1021E80080B483B000AF786039607B681B6823F0E7
:1021F80004023B681A437B681A6000BF0C37BD466F
:102208005DF8047B704780B483B000AF78607B686A
:102218001B6803F0040318460C37BD465DF8047BC1
:10222800704780B483B000AF78607B68DB6A18467B
:102238000C37BD465DF8047B704780B483B000AFAF
:10224800786039607B683A681A6300BF0C37BD460E
:102258005DF8047B704780B483B000AF7860396064
:102268007B683A685A6300BF0C37BD465DF8047B4B
:10227800704780B483B000AF786039607B683A6893
:102288009A6300BF0C37BD465DF8047B704780B485
:1022980083B000AF786039607B683A68DA6300BF62
:1022A8000C37BD465DF8047B704780B483B000AF3F
:1022B80078607B685B6B18460C37BD465DF8047B1D
:1022C800704780B483B000AF78607B689B6B18461A
:1022D8000C37BD465DF8047B704780B483B000AF0F
:1022E80078607B68DB6B18460C37BD465DF8047B6D
:1022F800704780B483B000AF78607B685B6943F057
:1023080001027B685A6100BF0C37BD465DF8047B4B
:10231800704780B483B000AF78607B681B6918464B
:102328000C37BD465DF8047B704780B483B000AFBE
:10233800786039607B683A689A6100BF0C37BD469F
:102348005DF8047B704780B483B000AF7860396073
:102358003B681A047B689A6100BF0C37BD465DF87C
:10236800047B704780B584B000AF786087ED000AC1
:10237800D7ED007AF5EEC07AF1EE10FA03D54FF0FA
:1023880000033B600AE0D7ED007A9FED167AF4EE81
:10239800C77AF1EE10FA01DD134B3B607B681B68CE
:1023A8001846FFF73EFFF8607B681B79002B0CBFCF
:1023B80001230023DBB21A46FB68134407EE903A68
:1023C800B8EE677AD7ED007A27EE277ADFED056A4F
:1023D800C7EE267AFCEEE77A17EE903A18461037E1
:1023E800BD4680BD0000C8420000C84280B582B02A
:1023F80000AF786039607B681B681846FFF755FFA7
:1024080002463B68934205D07B681B6839681846CA
:10241800FFF721FF00BF0837BD4680BD80B582B0F9
:1024280000AF786039607B681B681846FFF749FF82
:1024380002463B68934205D07B681B68396818469A
:10244800FFF717FF00BF0837BD4680BD80B582B0D3
:1024580000AF786039607B681B681846FFF73DFF5E
:1024680002463B68934205D07B681B68396818466A
:10247800FFF70DFF00BF0837BD4680BD80B584B0AB
:1024880000AF786087ED000A97ED000A7868FFF7DB
:1024980069FFF860F9687868FFF7A8FF00BF103790
:1024A800BD4680BD80B584B000AF786087ED000A76
:1024B80097ED000A7868FFF755FFF860F9687868C3
:1024C800FFF7ACFF00BF1037BD4680BD80B584B0B4
:1024D80000AF786087ED000A97ED000A7868FFF78B
:1024E80041FFF860F9687868FFF7B0FF00BF103760
:1024F800BD4680BD80B485B000AF78607B681B683E
:102508009B6803F00703FB60FB68062B0CBF0123E5
:102518000023DBB218461437BD465DF8047B7047CC
:1025280080B584B000AF78600B46FB707B681B6891
:102538001846FFF768FEF860FB78002B0AD07B6826
:102548001B681E4A934205D17B681B680021184608
:10255800FFF773FEFB68042B11D07B681B6804210E
:102568001846FFF73DFE7B681B681846FFF7C1FE5B
:102578007B681B68F9681846FFF732FE04E07B6841
:102588001B681846FFF7B5FE7B681B681846FFF7FF
:1025980007FEFB78002B0CD07B681B68074A934228
:1025A80007D17B681A687B685B7919461046FFF784
:1025B80044FE00BF1037BD4680BD00BF000001408B
:1025C80080B582B000AF78607B681B681846FFF75B
:1025D800F7FD00BF0837BD4680BD000080B483B05A
:1025E80000AF7860084B93F85130002B0CBF0123E3
:1025F8000023DAB27B6801331A7000BF0C37BD467E
:102608005DF8047B704700BF8805002080B400AFE8
:102618000A4B93F851200132D2B283F85120074B6C
:1026280093F85130632B03D9044B002283F85120CF
:1026380000BFBD465DF8047B704700BF88050020D9
:1026480080B485B000AFF860B9607A607B68B3F990
:102658000020FB681A807B685A88BB681A8000BF14
:102668001437BD465DF8047B704780B485B000AF71
:10267800F860B9607A607B681A88FB681A807B68A2
:102688005A88BB681A8000BF1437BD465DF8047BC2
:10269800704780B483B000AF786039603B689A882F
:1026A8007B681A803B68DA887B685A803B68B3F994
:1026B80000207B68DA803B681A897B689A8000BFB3
:1026C8000C37BD465DF8047B7047000080B584B0C8
:1026D80000AF7B600346FB810B46BB8113467B81C1
:1026E800FB89013B052B45D801A252F823F000BF16
:1026F8006B270008472700085927000823270008E8
:102708001127000835270008386A3B6A991CBB6AFC
:1027180020331A46FFF7A9FF30E0386A3B6A991C54
:10272800BB6A1C331A46FFF7A0FF27E0386A3B6AEA
:10273800991CBB6A18331A46FFF797FF1EE0386AE0
:102748003B6A991CBB6A14331A46FFF78EFF15E0E3
:10275800386A3B6A991CBB6A10331A46FFF785FF33
:102768000CE0386A3B6A991CBB6A0C331A46FFF7BF
:102778007CFF03E07B6A04225A7000BF3B6A1B8817
:10278800BA899A4209D13B6A981D3B6A191DBB6AEE
:1027980028331A46FFF754FF15E03B6A5B88BA896D
:1027A8009A4209D13B6A981D3B6A191DBB6A2433BA
:1027B8001A46FFF745FF06E0BB6A5A883B6A9A80CB
:1027C8007B6A04229A703B6A9A88FB691A803B6A82
:1027D800B3F90620BB691A803B6A9B88002B04D09A
:1027E800BB6A9A7A7B681A700CE03B6AB3F90630C8
:1027F800B7F90A209A420CBF01230023DBB21A461C
:102808007B681A7000BF1037BD4680BD80B485B0A4
:1028180000AFB9607A603B600346FB81BB691A88E8
:10282800BB681A807B68FA891A80BB699A783B680A
:102838001A7000BF1437BD465DF8047B704780B539
:10284800A6B000AF78607B6801225A604FF08043E1
:10285800BB6000233B7300237B7307F10803184612
:10286800FEF742FE02467B68DA607B68DB6800217F
:102878001846FEF7C4FB7B68DB681846FFF73AFE8C
:10288800034687F8973097F89730002B05D17B6877
:10289800DB6800211846FFF743FE7B6801221A72A5
:1028A80000BF9837BD4680BD80B5A6B000AF786040
:1028B8007B6801225A604FF08043BB6000233B7362
:1028C80000237B7307F108031846FEF70DFE024646
:1028D8007B68DA607B68DB6800211846FEF78FFBAF
:1028E8007B68DB681846FFF705FE034687F89730D4
:1028F80097F89730002B05D17B68DB6800211846D4
:10290800FFF70EFE7B6801221A7200BF9837BD469A
:1029180080BD80B5A6B000AF78607B6801225A60A0
:102928004FF08043BB6000233B7300237B7307F1A8
:1029380008031846FEF7D8FD02467B68DA607B6814
:10294800DB6800211846FEF75AFB7B68DB681846EF
:10295800FFF7D0FD034687F8973097F89730002B9C
:1029680005D17B68DB6800211846FFF7D9FD7B6835
:1029780001221A7200BF9837BD4680BD80B483B06B
:1029880000AF786039603B681A687B681A6000BFDE
:102998000C37BD465DF8047B7047000080B58CB0ED
:1029A80002AF78607B6800221A727B6801225A6045
:1029B8000023BB6100233B74174BFB6100233B6280
:1029C8000023BB74002387F82430012387F82530BF
:1029D8000323FB6003237B7407F10C004FF40013FF
:1029E8000093022300220221FEF79EFF02467B6825
:1029F800DA607B68DB681846FFF726F87B68DB68D7
:102A080000211846FEF784FF7B6801221A7200BF76
:102A18002837BD4680BD00BF0020014080B5A6B064
:102A280000AF78601D4BBB6000233B7300237B73B2
:102A380007F108031846FEF757FD02467B68DA607F
:102A48007B68DB6800211846FEF7D9FA7B68DB68EB
:102A580004211846FEF708FC7B68DB680421184649
:102A6800FEF76AFC7B68DB6804211846FEF7CCFC9D
:102A78007B68DB681846FFF73DFD034687F897300B
:102A880097F89730002B05D17B68DB680121184641
:102A9800FFF746FD00BF9837BD4680BD00000140E6
:102AA80098B500AFFFF7B2FD0D4B9B680C4A536019
:102AB8000B4B9A8A0A4B1A820A4B9A6A01329A621B
:102AC8009B6A1846FDF7A6FC064BD3E90C23054C78
:102AD800FDF71AFD02460B46C4E9082300BF98BD5E
:102AE8006804002088050020B0B586B000AF344BDC
:102AF800D3F888301846FDF79DFC324BD3E91423F0
:102B0800FDF774FF0346002B08D02D4BD3F888300F
:102B1800002B03DB2B4BD3E9102303E04FF000021B
:102B28004FF00003C7E90223254BD3F88830184635
:102B3800FDF780FC04460D46224BD3E912014FF005
:102B48000002214BFDF728FB02460B46204629468A
:102B5800FDF760FF0346002B04D0194B0022C3F891
:102B6800882006E0164BD3F888300133144AC2F89F
:102B78008830164B7B604FF000024FF00003D7E916
:102B88000201FDF729FF0346002B02D120237B61B8
:102B980001E000237B617B6919467868FFF7C5FB74
:102BA8007B69DB4303F0200319467868FFF7CBFB0A
:102BB800074B9A6B01329A6300BF1837BD46B0BD08
:102BC80098040020000000200000F03F00000240B0
:102BD800880500200000000098B500AF96494FF026
:102BE8000002964BC1E91623934991A3D3E9002328
:102BF800C1E90C23904B924A9A608F4B914ADA6054
:102C08008D4B914A1A618C4B904A5A618A4B904A73
:102C18005A608F4B8F4A1A608E4B8F4A1A608D4BC1
:102C28008E4A5A608B4B8D4A9A608A4B8B4ADA607F
:102C3800884B8B4A1A61874B8A4A5A61854B8A4A64
:102C48009A61844B894ADA61824B894A1A62814BBC
:102C5800884A5A627F4B884A9A627E4B874ADA6270
:102C68007C4B874A1A637B4B864A5A63794B864A60
:102C78009A63784B854ADA63764B854A1A64754BB2
:102C8800844A5A64734B844A9A64724B834ADA645E
:102C9800704B834A1A656F4B824A5A656D4B824A5C
:102CA8009A656C4B814ADA656A4B814A1A66694BA8
:102CB800804A5A66674B804A9A66664B7F4ADA664C
:102CC800644B7F4A1A67634B7E4A5A67614B7E4A58
:102CD8009A67604B7D4ADA675E4B7D4AC3F880206D
:102CE8005C4B7C4AC3F884205A4B5C4AC3F8882062
:102CF800584B5A4AC3F88C20564B584AC3F8902070
:102D0800544B564AC3F89420524B734AC3F8982040
:102D1800504B724AC3F89C204E4B714AC3F8A0200E
:102D28004C4B704AC3F8A4204A4B6F4AC3F8A820FA
:102D3800484B6E4AC3F8AC20464B6D4AC3F8B020E6
:102D4800444B6C4AC3F8B420424B6B4AC3F8B820D2
:102D5800404B6A4AC3F8BC203E4B694AC3F8C020BE
:102D68003C4B684AC3F8C4203A4B664AC3F8C820AB
:102D7800384B644AC3F8CC20364B634AC3F8D0209A
:102D8800344B614AC3F8D420324B5F4AC3F8D82089
:102D9800304B5D4AC3F8DC202E4B5B4AC3F8E02079
:102DA8002C4B5A4AC3F8E4202A4B594AC3F8E82066
:102DB800284B584AC3F8EC20264B574AC3F8F02052
:102DC800244B564AC3F8F420224B554AC3F8F8203E
:102DD800204B544AC3F8FC201E4B534AC3F8002129
:102DE8001C4B524AC3F804211A4B514AC3F8082114
:102DF800184B504AC3F80C21164B4F4AC3F8102100
:102E0800144B4D4AC3F81421124B4B4AC3F81821EE
:102E1800104B4A4AC3F81C210E4B484AC3F82021DC
:102E28000C4B464AC3F824218AE000BFAFF3008068
:102E3800FCA9F1D24D62503F880500200000F0BF88
:102E48003A35F1C4ADEB5E63CBD49978343DAD87A8
:102E5800F005002004060020CC2B01083C050020CA
:102E68005305002052050020510500205005002080
:102E78004F0500204E0500204D0500203E0500208E
:102E880046050020450500205A0500205905002068
:102E9800580500205705002056050020550500203C
:102EA800540500204305002061050020600500202E
:102EB8005F0500205E0500205D0500205C05002000
:102EC8005B05002044050020410500204205002044
:102ED800400500203F050020620500206B0500200A
:102EE8006A050020690500206805002067050020A4
:102EF800660500206D0500206C0500206505002092
:102F08006405002063050020470500206E050020A9
:102F1800770500207605002075050020740500203F
:102F2800730500207205002079050020780500202F
:102F380071050020700500206F050020480500205D
:102F4800A64BA74AC3F82821A44BA54AC3F82C21AD
:102F5800A24BA44AC3F83021A04BA34AC3F834219A
:102F68009E4BA24AC3F838219C4BA14AC3F83C2186
:102F78009A4BA04AC3F84021984B9F4AC3F8442172
:102F8800964B9E4AC3F84821944B9D4AC3F84C215E
:102F9800924B9C4AC3F85021904B9B4AC3F854214A
:102FA8008E4B9A4AC3F858218C4B994AC3F85C2136
:102FB8008A4B974AC3F86021884B954AC3F8642125
:102FC800864B944AC3F86821844B924AC3F86C2113
:102FD800824B904AC3F87021804B8E4AC3F8742103
:102FE8007E4B8C4AC3F878217C4B8B4AC3F87C21F2
:102FF8007A4B894AC3F88021784B874AC3F88421E1
:10300800864A864B5B6818329A60844A834B5B68B1
:1030180008325A60814A814B5B682032DA60804B03
:1030280093F82D217F4B83F8B2207D4BD3F8F830ED
:103038007C4AC2F88C307A4BD3E918237949C1E924
:103048001423774BD3E924237649C1E91A23744B17
:10305800B3F90021734BA3F89C20714BD3F8FC30D3
:10306800704AC2F890306E4BB3F81E216D4BA3F82E
:103078009E206B4BB3F820216A4BA3F8A020684B25
:10308800D3E91A236749C1E91623654BD3E91C2301
:103098006449C1E91823614B604A9B6A9364604B99
:1030A800D3F8CC305F4A13675E4B022283F8A52021
:1030B8005B4B93F822215B4B83F8A220584B93F883
:1030C8002321584B83F8A320554B5A88554BA3F816
:1030D8009820534BD3F8F430524A5367504BB3F807
:1030E8001C21504BA3F89A204D4BD3F8BC304E4AC4
:1030F800D3604C4B00225A604A4B00221A70494850
:10310800FFF74CFC464BB3F80E21474B9A82444BD1
:10311800D3F8C830444A9360404B404A9B6AD36313
:103128003F4BD3F8E0303F4AC2F880303F4940482F
:10313800FFF7AFFA3B4B00225A633A4B002283F861
:1031480030203C48FFF77BFB344B344A9B6A1364BE
:10315800334BD3F8E430334AD36737493748FFF75E
:1031680098FA304B00225A622E4B002283F8202016
:103178003348FFF799FB294B284A9B6A5364284B2D
:10318800D3F8E830274A93672E492F48FFF781FA8A
:10319800244B00225A61234B00221A742B48FFF754
:1031A800B8FB204B002283F840201E4B002283F8F6
:1031B80048201C4B01225A642548FFF72FFC194B65
:1031C800012283F84820174BDC6C154BD3E90C23FC
:1031D80010461946FDF768FC3CE000BF04060020D5
:1031E800480500207A05002083050020820500207C
:1031F80081050020800500207F0500207E05002035
:1032080085050020840500207D0500207C05002020
:103218007B05002049050020CC2B010888050020EB
:10322800000000209804002068040020E801002025
:1032380090040020C8040020B80100208804002061
:10324800B80400208801002080040020A804002081
:10325800D8040020034600EE103A2046FFF70EF986
:10326800154BDC6C154BD3E90C2310461946FDF7BA
:103278001BFC034600EE103A2046FFF713F90E4BED
:10328800DC6C0E4BD3E90C2310461946FDF70CFCF9
:10329800034600EE103A2046FFF718F9084B084A93
:1032A8009B6A9364044B012283F8B420024B0122E9
:1032B80083F8B32000BF98BD9804002000000020C8
:1032C8008805002080B500AF4D4B1B78002B11D12D
:1032D8004B4B01221A704A4B5B68012B0AD1484BB1
:1032E8001B7A002B06D0464BDB68002202211846C9
:1032F800FEF71DFC424B93F83030002B17D1404BA2
:10330800012283F830203E4B5B6B012B0FD13C4BE5
:1033180093F83830002B0AD0394BDB6B1846FFF78F
:103328004FF9374BDB6B00211846FDF702FF344B92
:1033380093F82030002B17D1314B012283F820203D
:103348002F4B5B6A012B0FD12D4B93F82830002BA4
:103358000AD02B4BDB6A1846FFF732F9284BDB6A99
:1033680000211846FDF7E5FE254B1B7C002B15D1E7
:10337800234B01221A74224B5B69012B0ED1204B7F
:103388001B7E002B0AD01E4BDB691846FFF718F985
:103398001B4BDB6900211846FDF7CBFE184B93F851
:1033A8004030002B29D1164B012283F84020144BC2
:1033B8005B6C012B21D1124B93F84830002B1CD0A9
:1033C8000F4BDB6C1846FFF7FBF80D4BDB6C00214D
:1033D8001846FDF7AEFE0A4BDB6C04211846FDF7D4
:1033E80077FF074BDB6C04211846FDF7D9FF044B28
:1033F800DB6C04211846FEF73FF800BF80BD00BF14
:103408009804002080B500AF022208492120FEF769
:10341800FFFD1220FEF724FE022205493720FEF7A1
:10342800F7FD2820FEF71CFE00BF80BDA13E000866
:1034380041340008000000002DE9F04FA9B006AFA4
:10344800FEF7F9FDB8674FF48050FEF76DFE0346AE
:10345800002B08D04FF48050FEF77CFE0346002B6B
:1034680001D0012300E00023002B00F056824FF426
:103478008050FEF785FEC94B1B78DBB2012B40F06C
:103488004C82C74B93F9ED3087F87730002387F8E3
:10349800873097F87730042B1FD801A252F823F011
:1034A800BD340008C5340008CD340008D534000800
:1034B800DD340008002387F887300EE0032387F8FF
:1034C80087300AE0032387F8873006E0002387F86F
:1034D800873002E0002387F8873097F98730B04AB1
:1034E80082F8ED30AE4B93F9E53087F8763000235B
:1034F80087F8863097F87630042B20D801A252F846
:1035080023F000BF213500082935000831350008AF
:103518003935000841350008002387F886300EE069
:10352800032387F886300AE0032387F8863006E00D
:10353800002387F8863002E0002387F8863097F961
:103548008630974A82F8E530954B93F9EB3087F847
:103558007530002387F8853097F87530042B20D80C
:1035680001A252F823F000BF853500088D35000808
:10357800953500089D350008A5350008002387F813
:1035880085300EE0032387F885300AE0032387F8A7
:10359800853006E0002387F8853002E0002387F8AD
:1035A800853097F985307E4A82F8EB307C4B93F969
:1035B800E43087F87430002387F8843097F8743043
:1035C800042B20D801A252F823F000BFE9350008E7
:1035D800F1350008F93500080136000809360008F9
:1035E800002387F884300EE0032387F884300AE04C
:1035F800032387F8843006E0002387F8843002E04C
:10360800002387F8843097F98430654A82F8E430DB
:10361800634B93F9E33087F87330002387F88330DE
:1036280097F87330042B20D801A252F823F000BF7A
:103638004D360008553600085D3600086536000826
:103648006D360008002387F883300EE0032387F8DF
:1036580083300AE0032387F8833006E0002387F8E5
:10366800833002E0002387F8833097F983304C4A8F
:1036780082F8E3304A4B93F9E23087F8723000233E
:1036880087F8823097F87230042B20D801A252F8BC
:1036980023F000BFB1360008B9360008C13600086B
:1036A800C9360008D1360008002387F882300EE0BA
:1036B800032387F882300AE0032387F8823006E084
:1036C800002387F8823002E0002387F8823097F9D8
:1036D8008230334A82F8E230314B93F9B13087F8BF
:1036E8007130002387F8813097F87130042B20D887
:1036F80001A252F823F000BF153700081D37000853
:10370800253700082D37000835370008002387F8CB
:1037180081300EE0032387F881300AE0032387F81D
:10372800813006E0002387F8813002E0002387F823
:10373800813097F981301A4A82F8B130194B194A09
:103748009B6AD363164BDB6B1846FDF71DFF0246D9
:10375800134BC3F88C201448FEF7DBFDF8661248BB
:10376800FEF7D7FDB8661048FEF7D3FD7866FB6E06
:1037780003F48063002B05D00C4B93F824315B09CC
:10378800DAB200E00022BB6E03F40063002B0FD016
:10379800064B93F827319B09DBB20AE09707002014
:1037A800980400208805002000080240000000203E
:1037B80000231344DAB27B6E03F48053002B05D048
:1037C800B34B93F82A31DB09DBB200E00023134442
:1037D80087F8633097F86330013B052B1DD897F8BD
:1037E80063309CB2AB4B93F8B23098B2A94BB3F9A3
:1037F8009C1007F13902A84B0493A84B0393A84BDC
:10380800029307F13A030193A64B009313460A4625
:1038180001462046FEF75AFF0DE09E4BB3F99C0087
:1038280007F1390207F13A019F4B009313469D4A6D
:10383800FEF7ECFF00BF974BD3F88C301A46954B38
:10384800D3F88030D31ADA17BB62FA62904BD3F8F8
:103858009830DA173B627A62D7E90A010B463A6A6E
:1038680002FB03F27B6AC7E90A01014601FB03F385
:103878001344BA6A396AA2FB01894B449946854BBD
:10388800C3E91A89834BD3E91A234FF000004FF09C
:103898000001900F40EA8300991702467D4BC3F858
:1038A800902097F839309BB27A4AA2F89E30784B2C
:1038B800B3F80231774AA2F8A030764A97F8633015
:1038C80082F8B230724BD3E902237249C1E914235A
:1038D800704BD3F88C306F4AC2F880306D4A04239D
:1038E80082F8B130714BDB6B1846FCF793FD66A389
:1038F800D3E90023FCF708FE02460B46104619469A
:103908006B4BC3E900016A4B93ED007BB0EE470AAD
:10391800F0EE670A0220FEF78BFA4FF40060FEF71C
:1039280003FC0346002B08D04FF40060FEF712FC9E
:103938000346002B01D0012300E00023002B00F0F8
:1039480042814FF40060FEF71BFC5A4B1B78DBB238
:10395800012B40F038814F4B93F9B03087F8623033
:10396800002387F8803097F86230042B1FD801A213
:1039780052F823F09139000899390008A139000854
:10398800A9390008B1390008002387F880300EE013
:10399800032387F880300AE0032387F8803006E0A5
:1039A800002387F8803002E0002387F8803097F9F9
:1039B8008030384A82F8B0303C4B3C4A9B6A1364EA
:1039C800344BDB6A1846FDF7DFFD0346314AC2F87F
:1039D8008C303948FEF79DFCF8653748FEF799FCAE
:1039E800B8653548FEF795FC7865FB6D03F4806390
:1039F800002B05D0264B93F825315B09DAB200E09D
:103A08000022BB6D03F40063002B05D0204B93F814
:103A180028319B09DBB200E000231344DAB27B6D46
:103A280003F48053002B05D0194B93F82B31DB0995
:103A3800DBB200E00023134487F8533097F8533083
:103A4800013B052B40D897F853309CB2114B93F8A3
:103A5800B23098B20F4BB3F99C1007F13502174BEF
:103A68000493174B0393174B029307F13603019303
:103A78000C4B009313460A4601462046FEF726FEE5
:103A880030E000BFAFF30080FCA9F1D24D62503F97
:103A98000000002098040020E80100207B05002099
:103AA8009004002034050020E4010020880500204F
:103AB800600400209707002000080240B801002099
:103AC8006F05002088040020994BB3F99C0007F18A
:103AD800350207F13601974B00931346964AFEF7D5
:103AE80095FE00BF924BD3F88C301A46904BDB6F93
:103AF800D31ADA173B617A61904BD3F89C30DA1706
:103B0800BB61FA61D7E904010B46D7E90689424649
:103B180002FB03F2C7E906894B46804689464146BF
:103B280001FB03F313444246B969A2FB015633442F
:103B38001E467F4BC3E91A567D4BD3E91A014FF055
:103B480000024FF00003820F42EA81028B17784B84
:103B5800C3F8902097F835309AB2754BA3F89E2099
:103B6800764BB3F80421724BA3F8A020704A97F85B
:103B7800533082F8B230714BD3E904236C49C1E960
:103B880016236B4BD3F88C30694AD367684B0422F1
:103B980083F8B0206A4B1B6C1846FCF73BFC62A309
:103BA800D3E90023FCF7B0FC02460B466549C1E99E
:103BB8000023644B93ED007BB0EE470AF0EE670AF2
:103BC8000320FEF735F94FF48060FEF7ADFA03469F
:103BD800002B08D04FF48060FEF7BCFA0346002B98
:103BE80001D0012300E00023002B00F031814FF4C5
:103BF8008060FEF7C5FA544B1B78DBB2012B40F00E
:103C080027814B4B93F9AF3087F85230002387F860
:103C18007F3097F85230042B1FD801A252F823F0B6
:103C28003D3C0008453C00084D3C0008553C000858
:103C38005D3C0008002387F87F300EE0032387F8F7
:103C48007F300AE0032387F87F3006E0002387F8F7
:103C58007F3002E0002387F87F3097F97F20344BCC
:103C680083F8AF20364B364A9B6A5364304BDB6986
:103C78001846FDF789FC03462D4AC2F88C303348B4
:103C8800FEF747FBF8643148FEF743FBB8642F485A
:103C9800FEF73FFB7864FB6C03F48063002B05D0D0
:103CA800264B93F826315B09DAB200E00022BB6CA0
:103CB80003F40063002B05D0204B93F829319B09AE
:103CC800DBB200E000231344DAB27B6C03F48053C8
:103CD800002B05D0194B93F82C31DB09DBB200E03F
:103CE8000023134487F8433097F84330013B052BF2
:103CF80034D897F8433098B20D4B93F8B23099B254
:103D08000B4BB3F99C2007F13104114B0493114B71
:103D18000393114B029307F132030193064B00936F
:103D28002346FEF7D3FC26E0FCA9F1D24D62503FB2
:103D380098040020B4010020340500200000002071
:103D48008805002060040020970700200008024032
:103D5800880100206305002080040020484BB3F947
:103D68009C0007F1310307F13201464A0092464AA6
:103D7800FEF74CFD00BF424BD3F88C301A46404B3F
:103D88009B6FD31ADA17BB60FA60404BD3F8A030A8
:103D9800DA173B607A60D7E902452B46D7E90089F4
:103DA800424602FB03F24B46214601FB03F3134450
:103DB80022464146A2FB01AB5B449B46304BC3E91C
:103DC8001AAB2F4BD3E91A014FF000024FF0000352
:103DD800820F42EA81028B17294BC3F8902097F88B
:103DE80031309AB2264BA3F89E20284BB3F806210F
:103DF800234BA3F8A020224A97F8433082F8B23028
:103E0800224BD3E906231E49C1E918231C4BD3F8DA
:103E18008C301B4A93671A4B042283F8AF201C4B43
:103E28005B6C1846FCF7F6FA13A3D3E90023FCF7FA
:103E38006BFB02460B461749C1E90023154B93ED6E
:103E4800007BB0EE470AF0EE670A0420FDF7F0FFAA
:103E5800BFF36F8F00BFBFF34F8F00BFBB6FFB6314
:103E6800FB6B83F3108800BF00BF8C37BD46BDE8ED
:103E7800F08F00BFAFF30080FCA9F1D24D62503F34
:103E88009804002084010020340500200000002050
:103E980088050020600400202DE9B0432DED028B39
:103EA80094B000AFFEF7C7F87862CD48FEF728F95E
:103EB8000346002B07D0CB48FDF70FFD0346002B28
:103EC80001D0012300E00023002B00F00086C44845
:103ED800FEF708F9C44B1B78DBB2012B40F0F785DD
:103EE800C24B93F9AE3087F82330002387F84F3060
:103EF80097F82330042B20D801A252F823F000BFF2
:103F08001D3F0008253F00082D3F0008353F0008E9
:103F18003D3F0008002387F84F300EE0032387F861
:103F28004F300AE0032387F84F3006E0002387F874
:103F38004F3002E0002387F84F3097F94F20AB4B02
:103F480083F8AE20A94B93F9AD3087F822300023CF
:103F580087F84E3097F82230042B20D801A252F867
:103F680023F000BF813F0008893F0008913F000807
:103F7800993F0008A13F0008002387F84E300EE063
:103F8800032387F84E300AE0032387F84E3006E013
:103F9800002387F84E3002E0002387F84E3097F967
:103FA8004E20924B83F8AD20904B93F9C93087F897
:103FB8002130002387F84D3097F82130042B20D882
:103FC80001A252F823F000BFE53F0008ED3F0008CA
:103FD800F53F0008FD3F000805400008002387F86A
:103FE8004D300EE0032387F84D300AE0032387F8AD
:103FF8004D3006E0002387F84D3002E0002387F8B3
:104008004D3097F94D20794B83F8C920774B93F9B8
:10401800AC3087F82030002387F84C3097F82030F0
:10402800042B20D801A252F823F000BF4940000811
:1040380051400008594000086140000869400008E4
:10404800002387F84C300EE0032387F84C300AE051
:10405800032387F84C3006E0002387F84C3002E051
:10406800002387F84C3097F94C20604B83F8AC203C
:104078005E4B93F9AB30FB77002387F84B30FB7F1F
:10408800042B20D801A252F823F000BFA940000851
:10409800B1400008B9400008C1400008C940000804
:1040A800002387F84B300EE0032387F84B300AE0F3
:1040B800032387F84B3006E0002387F84B3002E0F3
:1040C800002387F84B3097F94B20484B83F8AB20F7
:1040D800464B93F9AA30BB77002387F84A30BB7F59
:1040E800042B20D801A252F823F000BF0941000890
:1040F8001141000819410008214100082941000820
:10410800002387F84A300EE0032387F84A300AE094
:10411800032387F84A3006E0002387F84A3002E094
:10412800002387F84A3097F94A20304B83F8AA20B1
:104138002E4B93F9A9307B77002387F849307B7F92
:10414800042B20D801A252F823F000BF69410008CF
:10415800714100087941000881410008894100083F
:10416800002387F849300EE0032387F849300AE036
:10417800032387F8493006E0002387F8493002E036
:10418800002387F8493097F94920184B83F8A9206C
:10419800164B93F9A8303B77002387F848303B7FCC
:1041A800042B28D801A252F823F000BFC941000807
:1041B800D1410008D9410008E1410008F94100084F
:1041C800002387F8483016E0032387F8483012E0C8
:1041D800032387F848300EE0002387F848300AE0C8
:1041E800002001403C04002097070020980400208C
:1041F800002387F8483097F94820C14B83F8A82056
:10420800BF4B93F9A730FB76002387F84730FB7E36
:10421800042B20D801A252F823F000BF394200082D
:10422800414200084942000851420008594200082A
:10423800002387F847300EE0032387F847300AE069
:10424800032387F8473006E0002387F8473002E069
:10425800002387F8473097F94720A94B83F8A72010
:10426800A74B93F9A630BB76002387F84630BB7E70
:10427800042B20D801A252F823F000BF994200086D
:10428800A1420008A9420008B1420008B94200084A
:10429800002387F846300EE0032387F846300AE00B
:1042A800032387F8463006E0002387F8463002E00B
:1042B800002387F8463097F94620914B83F8A620CB
:1042C8008F4B93F9A4307B76002387F845307B7EAB
:1042D800042B20D801A252F823F000BFF9420008AD
:1042E8000143000809430008114300081943000866
:1042F800002387F845300EE0032387F845300AE0AD
:10430800032387F8453006E0002387F8453002E0AC
:10431800002387F8453097F94520794B83F8A42086
:10432800784B784A9B6A9364754B93F8B430002BAA
:1043380002D000233B6306E0724B9A6C704BD3F8B3
:104348009430D31A3B636F4B9B6C6D4AC2F8943020
:104358006B4B002283F8B420694BB3F8A030FB8282
:10436800674BB3F8A030002B05D0674BB3F80C218E
:10437800634BA3F8A020624B93F8B330002B39D1DC
:10438800FB8A002B0AD05E4B93F9A530002B05DC85
:104398005D4BD3F8CC305A4A13672BE0584B93ED5A
:1043A8001C8A594BD3E90A89386BFCF733F8024663
:1043B8000B4640464946FCF7A7F802460B4690468E
:1043C80099464F4BD3F884301846FCF745F8024617
:1043D8000B4640464946FCF797F802460B461046FE
:1043E8001946FCF761FB07EE900A78EE277A444BF2
:1043F800C3ED1C7A424B93ED1C7A434BD3ED347AD0
:10440800B4EEE77AF1EE10FA05DD3F4BD3F8D03081
:104418003B4A13670FE03A4B93ED1C7A3A4BD3EDC6
:10442800357AB4EEE77AF1EE10FA04D5364BD3F8C4
:10443800D430334A1367324B93ED187B304B93EDEE
:10444800166BB0EE461AF0EE661AB0EE470AF0EEBA
:10445800670A0BF0A1FBB0EE406AF0EE606A284BE9
:1044680093ED147BB0EE471AF0EE671AB0EE460AE9
:10447800F0EE660A0BF090FBB0EE407AF0EE607A50
:10448800B0EE470AF0EE670A0BF0DAFB87ED0E0B89
:1044980097ED0E0B00F0EEFC0346002B06D197EDCE
:1044A8000E0B00F0C3FC0346002B06D04FF00002B1
:1044B8004FF00003C7E90E2307E09FED0F1B97EDB0
:1044C8000E0B0BF033FB87ED0E0B4FF000024FF095
:1044D8000003D7E90E01FCF789FA0346002B15D033
:1044E800BC6BFB6B83F0004520462946FCF7BCFA01
:1044F80003465B420FE000BF000000000000F041EF
:10450800980400208805002000000020D7E90E014B
:10451800FCF7AAFA03463B63B54BB3F81421B44B36
:10452800B3F816319A4202D9FB8A7B8503E0B04B77
:10453800B3F814317B857B8D002B04D0AD4B93F8F9
:10454800A220AD4B9A75AB4B93F8A330002B02D148
:10455800FB8A002B01D0012300E000237B757B7DC3
:10456800002B0CD0FB8A002B04D0A14B5A88A14BFE
:10457800A3F898209F4BB3F898209F4B5A829E4BE4
:104588005A8A9B4BB3F810319A428CBF01230023FF
:10459800DBB21A46974B83F8A320964B93F8A330C7
:1045A800002B25D0934BD3F890303A6B9A4204D81D
:1045B800904BD3F89030FB6201E03B6BFB628C4B75
:1045C800D3F8F030FA6A9A4204D3894BB3F812311F
:1045D8003B8511E0874BB3F89E30002B03D1864B07
:1045E8009B7D002B01D0012300E000233B8503E0E5
:1045F8007F4BB3F812313B857B8D002B03D07D4B6D
:104608005B6F7D4A13603B8D002B00F08981794BED
:10461800B3F99C30002B1BDD754BD3F8EC3007EE5B
:10462800903AF8EE676A734BD3F8903007EE903AF9
:10463800F8EE677A86EEA77A6D4BD3ED307A67EE9F
:10464800277AC7ED0D7A6B4B042283F8AE201CE065
:10465800674BD3F8EC3007EE903AF8EE676A654B93
:10466800D3F8903007EE903AF8EE677A86EEA77A9C
:104678005F4BD3ED307A67EE277AF1EE677AC7EDB4
:104688000D7A5C4B042283F8AD20594BB3F80A31FC
:10469800002B00F03D81564BD3E908014FF0000292
:1046A800564BFCF7C1F90346002B3AD03B6B07EE9B
:1046B800903AF8EE676A4F4BD3F8903007EE903A8D
:1046C800B8EE677AC6EE877AC7ED037A97ED037A74
:1046D8003B6B07EE903AB8EE676A474B1B6807EEEC
:1046E800903AF8EE676AC6EE267A37EE677A404B5C
:1046F800D3ED2A7A27EE277A3D4BD3ED297A37EE88
:10470800277AD7ED037A27EE277A394BD3ED2B7A20
:1047180067EE277AC7ED037A364B042283F8AA207E
:1047280018E03B6B07EE903AF8EE676A314BD3F826
:10473800903007EE903AF8EE677A86EEA77A2C4B1F
:10474800D3ED2C7A67EE277AC7ED037A294B04223A
:1047580083F8A920264B93ED2D7AD7ED037AB4EE92
:10476800E77AF1EE10FA04D5214BD3F8B430FB60A8
:104778000DE01F4B93ED2E7AD7ED037AB4EEE77A6E
:10478800F1EE10FA03DD1A4BD3F8B830FB60194B81
:10479800B3F99C30012B63D0164B93F8B230013B30
:1047A800052B48D801A252F823F000BF3148000871
:1047B8001548000823480008DB470008CD470008D3
:1047C800E947000807F108030D491846FEF7D6F82F
:1047D80038E007F108030B491846FEF7CFF831E037
:1047E80007F1080308491846FEF7C8F82AE000BF91
:1047F8000000002098040020680400200000F03F1A
:10480800800100207C0100207801002007F10803C6
:10481800BB491846FEF7B2F814E007F10803B94996
:104828001846FEF7ABF80DE007F10803B64918463D
:10483800FEF7A4F806E007F10803B4491846FEF7A6
:104848009DF800BF97ED027AD7ED037A77EE677A85
:10485800AF4BC3ED037AAF4B042283F8AC2053E08F
:10486800AC4B93F8B230013B052B39D801A252F872
:1048780023F000BFDB480008BF480008CD48000807
:10488800A348000895480008B148000807F1080344
:10489800A1491846FEF772F829E007F108039F4975
:1048A8001846FEF76BF822E007F108039C49184602
:1048B800FEF764F81BE007F108039A491846FEF76B
:1048C8005DF814E007F1080397491846FEF756F813
:1048D8000DE007F1080395491846FEF74FF806E082
:1048E80007F1080392491846FEF748F800BF97ED0C
:1048F800027AD7ED037A77EE277A854BC3ED037AF0
:10490800844B042283F8AB20824B042283F8A8202E
:104918007F4BDB68FB607F4B042283F8A7204EE0C7
:104928007C4B93F8B230013B052B39D801A252F8E1
:1049380023F000BF9B4900087F4900088D49000803
:1049480063490008554900087149000807F10C033C
:1049580078491846FEF712F829E007F10C03764962
:104968001846FEF70BF822E007F10C0373491846C6
:10497800FEF704F81BE007F10C0371491846FDF730
:10498800FDFF14E007F10C036E491846FDF7F6FF2A
:104998000DE007F10C036C491846FDF7EFFF06E040
:1049A80007F10C0369491846FDF7E8FF00BF684B9B
:1049B800D3F8C4307B63574B042283F8A620644B9A
:1049C80093ED377AD7ED037A27EE277A514BD3ED5B
:1049D8001C7A77EE277A4E4BC3ED027A4D4BDB6893
:1049E8003A4602211846FDF744F84A4BB3F89A2094
:1049F800474B9A82464B9A8A554BB3F81A3113445F
:104A08003B85444B002283F8B320FB8A002B14BF5C
:104A180001230023DBB25AB23E4B83F8A5204C4B4E
:104A280093ED367AD7ED0D7A67EE277A394BC3EDD9
:104A3800217A7B8D002B10D0364BB3F89E30002B9B
:104A480014BF01230023DBB21A46324B83F8A2209D
:104A5800304BD3F890302F4A53677B7D002B09D019
:104A68002B4B5A8A3A4BB3F81831D31A9AB2294BBE
:104A7800A3F89820364B1B883A8D9A4206D9344BB6
:104A8800B3F80821234BA3F89A2003E0214A3B8D71
:104A9800A2F89A301F4B042283F8A4202D4B9B6C5C
:104AA8001846FBF7B7FC14A3D3E90023FBF72CFD4A
:104AB80002460B462849C1E90023274B93ED007BAA
:104AC800B0EE470AF0EE670A0520FDF7B1F9BFF32B
:104AD8006F8F00BFBFF34F8F00BF7B6A3B613B699D
:104AE80083F3108800BF00BF5037BD46BDEC028B72
:104AF800BDE8B083AFF30080FCA9F1D24D62503F0E
:104B080074010020700100206C0100206801002061
:104B1800680400209804002064010020600100203F
:104B28005C010020580100205401002050010020A1
:104B38004C010020480100204401002040010020D1
:104B48003C01002038010020340100203001002001
:104B580000000020880500206004002080B500AF18
:104B68001220FDF79BFA2820FDF798FA00BF80BDB8
:104B780080B584B000AF4FF000024FF00003C7E9E2
:104B88000223414B1B785A1CD1B23F4A1170002BAB
:104B980009D03E4B01221A603B4B1B78013BDAB22D
:104BA800394B1A7066E03B1D1846FDF717FD62B6D3
:104BB80000BF374B1B68D3E90823C7E90223FDF779
:104BC8006FFF97ED020B0020FDF732F972B600BFB8
:104BD8002D4B1B78013BDAB22B4B1A707B79002BDB
:104BE80011D02C4B5B785A1CD1B22A4A5170002B39
:104BF80009D0264B01221A60264B5B78013BDAB2BA
:104C0800244B5A7036E0234B5B78002B32D01E4B76
:104C18005B78002B2DD11C4B5B780133DAB21A4B31
:104C28005A7062B600BF1A4B1B689B6B1846FBF79D
:104C3800F1FB13A3D3E90023FBF766FC02460B46FE
:104C4800C7E90223FDF750FF97ED020B0120FDF79E
:104C5800EFF800BF72B600BF0E4B5B78013BDAB2CB
:104C68000C4B5A70084B5B78013BDAB2064B5A7012
:104C780000E000BF1037BD4680BD00BFAFF3008025
:104C88009A9999999999B93F900700208C07002023
:104C9800C82B01089407002080B586B000AF786063
:104CA80039605C4B7B615C4B3B610023FB735B4B66
:104CB80000221A705A4B00221A7001DF09F06AFEAE
:104CC80008F048FB06F0B6F908F070FE08F042FE5E
:104CD80008F0BEFD08F0BEFC08F08CFB08F086FD6D
:104CE800504B1B6800221A6000210020FCF796FF39
:104CF8000346FB7397F90F30002B02D097F90F305A
:104D080084E0FEF77FFBFDF767FF72B600BF62B66F
:104D180000BF444B1B685A68424B1B6858331946FE
:104D28001046FCF78BFF0346FB7397F90F30002BF7
:104D38000DD14FF0FF30FDF715F8FDF727F90346C1
:104D4800002B04D0374B1B68012283F8602072B611
:104D580000BF97ED050A06F061FAFDF723F903464F
:104D6800002B0CD1FDF712F90346002B07D12D4B70
:104D78001B6893F86030002B01D1012300E0002369
:104D8800DAB2274B1A7062B600BF62B600BF2FE0D6
:104D9800FDF7CCF80346FB73FDF704F90346002B37
:104DA8000AD1FDF7F3F80346002B05D11D4B1B680C
:104DB80093F86030002B01D0012300E00023DAB221
:104DC800164B1A70154B1B78DBB2002B0CBF012356
:104DD8000023DBB21A46124B1A70104B1B78DBB259
:104DE800002B05D0104B1B680F4A23F001031360FA
:104DF8000B4B1B78DBB2002BCAD1FEF763FAFDF729
:104E0800A5F8FFF7ABFE72B600BF002318461837A7
:104E1800BD4680BD6F12833A0000A8429607002065
:104E280097070020C82B010810E000E080B582B089
:104E380000AF87ED000B0D4BD3E90023D7E9000144
:104E4800FBF7CAFD0346002B09D1094BD3E9002320
:104E5800D7E90001FBF7C0FD0346002B01D0012371
:104E680000E0002318460837BD4680BD1802002020
:104E78002002002080B582B000AF87ED000BD7E993
:104E88000023D7E90001FBF7D9FD0346002B01D029
:104E9800012300E0002318460837BD4680BD0FB443
:104EA80080B400AF00BFBD465DF8047B04B0704716
:104EB80080B485B000AFF860B9607A60FB68BA6802
:104EC8001A60FB6804337A681A6000BF1437BD465D
:104ED8005DF8047B70470000F0B58BB000AF87ED3C
:104EE800020B0346FB80FB88002B77D14FF00002B2
:104EF800414BD7E90201FBF707FB02460B46C7E91E
:104F080006239FED391B97ED060B0AF00FFE53ECB5
:104F1800102B10461946FBF7A7FD03467B610023BB
:104F28007B6233A3D3E90023D7E90601FBF77CFDB5
:104F38000346002B0ED02EA3D3E90023D7E90601A0
:104F4800FBF70CFC02460B4610461946FBF78CFD96
:104F580003467B627A6A79692848FFF7A9FF284BDC
:104F6800D3E900014FF00002264BFBF735FD03465D
:104F7800002B2ED1224BD3E900014FF000024FF055
:104F88004043FBF729FD0346002B22D11C4BD3E9F4
:104F98000001D7E90223FBF7FFF802460B46144647
:104FA8001D464FF00002184BD7E90201FBF7ACFA97
:104FB80002460B4601210E4620462946FBF716FD00
:104FC8000346002B01D100231E46F3B21A460F4BAD
:104FD8001A700F49D7E90223C1E9002300BF2C3713
:104FE800BD46F0BDAFF30080000000000000F041B6
:104FF8000000E0FFFFFFEF4100408F40C0070020A6
:10500800280200200000F0BF0000B03CB0070020DC
:10501800C807002080B584B000AF0023BB60002320
:105028007B600023FB731F494FF000024FF0000321
:10503800C1E900233A1D07F108031146184605F097
:10504800B3FFBB687A681146184604F0D3F80346E4
:10505800FB7397F90F30002B05D01348FFF71FFF9C
:1050680097F90F301AE03A1D07F108031146184660
:1050780005F0B1FFBB687A681146184600F054FF86
:105088000346FB7397F90F30002B05D097F90F30C3
:1050980019460648FFF703FF97F90F3018461037EF
:1050A800BD4680BDB8070020FC050108240601089C
:1050B80080B584B000AF0346FB710023FB73002367
:1050C800BB73002005F09EFF00237B7304F060FA99
:1050D8000346FB7397F90F30002B0DD097F90F306B
:1050E80013F1020F08D097F90F3019463C48FFF723
:1050F800D6FE0123BB730BE07B7B002B04D197F911
:105108000F3013F1020F01D0012300E000237B735D
:10511800BB7B002B21D100F039FF0346FB7397F9C5
:105128000F30002B0DD097F90F3013F1020F08D074
:1051380097F90F3019462B48FFF7B1FE0123BB73CF
:105148000BE07B7B002B04D197F90F3013F1020F92
:1051580001D0012300E000237B73BB7B002B21D10E
:1051680004F0A0F90346FB7397F90F30002B0DD01C
:1051780097F90F3013F1020F08D097F90F3019463D
:105188001948FFF78CFE0123BB730BE07B7B002BD8
:1051980004D197F90F3013F1020F01D0012300E079
:1051A80000237B73FB79002B0DD0002005F02AFF2C
:1051B800BB7B002B02D17B7B002B01D1012300E0BC
:1051C8000023BB7301E00123BB73BB7B002B3FF4BF
:1051D8007BAF97F90F3018461037BD4680BD00BF2A
:1051E8004C06010884060108B406010880B582B09F
:1051F80000AF0023BB70394B1B78DBB2002B02D009
:10520800002000F0E1FF00F0B3FF0346FB7000232D
:105218007B600EE00A2005F0F5FE7B6803F51C5361
:1052280010337B600120FFF743FF00F0A1FF034626
:10523800FB707B682A4A934202D8FB78002BE9D19D
:1052480000F0A2FF0346BB7097F90230002B05D08F
:1052580097F9023019462348FFF721FE04F012FBA4
:105268000346BB7097F90230002B05D097F902303E
:1052780019461D48FFF713FE1C4B00221A701C4BE1
:1052880000221A701B4B00221A601B4B00221A6066
:105298001A4B00221A601A4B00221A60194B00227E
:1052A8001A6019494FF000024FF04043C1E900234A
:1052B8000A4B00221A700822002114480AF0EEFF57
:1052C80013494FF000024FF00003C1E9002397F99A
:1052D800023018460837BD4680BD00BFB007002021
:1052E800FF2C3101EC060108080701089807002087
:1052F800990700209C070020A0070020A407002091
:10530800A8070020AC07002028020020C0070020C2
:10531800C807002080B586B000AF614B1B687B6171
:105328007B69002B00F0B8805E4B1B78DBB2002B4A
:1053380004D15B4B1B68002B00F0AE805A4B1B78E6
:10534800DBB2022B40F0A880584B1B78002B40F0B2
:10535800A3807B69D3E90023C7E90223544B1B7858
:10536800002B00F08A80534B1B78DBB2002B04D053
:10537800504B1B78DBB2022B01D1012300E0002344
:10538800FB714C4B1B78DBB2012B04D0494B1B78CB
:10539800DBB2022B01D1012300E00023BB71FB79B2
:1053A800002B33D0444BD3E90023D7E90201FBF7A4
:1053B80031FB0346002B0AD0404BD3E900013E4B9A
:1053C800D3E90023FBF712FB0346002B14D13A4B19
:1053D800D3E90023D7E90201FBF726FB0346002B9C
:1053E80014D0364BD3E90001334BD3E90023FBF744
:1053F800F3FA0346002B09D0314B1B68002B02D16E
:10540800304B01221A70294B01221A70BB79002BEC
:1054180033D0294BD3E90023D7E90201FBF7E6FA99
:105428000346002B0AD0254BD3E90001224BD3E9D0
:105438000023FBF7EFFA0346002B14D11E4BD3E9E8
:105448000023D7E90201FBF7C7FA0346002B14D063
:105458001A4BD3E90001184BD3E90023FBF7E4FA10
:105468000346002B09D0164B1B68002B02D1154BA5
:1054780001221A700D4B01221A700C4B1B78002B5D
:105488000CBF01230023DBB21A46094B1A700B49E3
:10549800D7E90223C1E9002300BF1837BD4680BD04
:1054A800D4070020D8070020F407002003080020B4
:1054B80000080020F0070020E0070020F80700207F
:1054C800EC0700200208002080B582B000AF00235E
:1054D800FB719E4B1B78DBB2002B18D19C4B002232
:1054E8001A709C4B00221A709B4B1B78DBB2002B66
:1054F8002DD0964B02221A70974B00221A70974BA8
:105508001B78DBB2002B22D10123FB711FE0924BE9
:1055180000221A708E4B1B78DBB2002B09D0904BFF
:1055280000221A70894B00221A70894B00221A70C7
:105538000DE08A4B1B78DBB2002B02D10123FB71F3
:1055480005E0844B1B78FB71824B00221A707F4B5D
:105558001B78DBB2042B00F2D78001A252F823F0AB
:105568007D550008B7560008975500086B56000887
:10557800F5550008784B1B78DBB2002B00F0D8807B
:10558800724B02221A70744B00221A70D0E0FB7919
:10559800002B00F0CF80734B1B68002B0DDD6F4B89
:1055A8001B78DBB2012B08D16E4B1B681A466E4B79
:1055B8001A60664B03221A70BCE06C4B1B68002B08
:1055C8000AD0674B01221A70684B1B68664A136041
:1055D8005E4B04221A70ADE06548FFF760FC604B33
:1055E80000221A70594B00221A70A3E05E4B1B6808
:1055F800002B04D05C4B1B68013B5B4A13605A4B81
:105608001B68002B40F098805A4B1B78DBB2012BAB
:1056180006D1534B00221A704C4B00221A708BE0B3
:10562800554B1B68002B0AD04D4B00221A70524B69
:105638001B684D4A1360454B01221A707CE0FB79C8
:10564800002B07D0494B1B68474A13603F4B042285
:105658001A7071E0424B00221A703C4B02221A70F9
:105668006AE0414B1B68002B04D03F4B1B68013B91
:105678003D4A13603C4B1B68002B5FD13B4B1B68BA
:10568800002B0AD0364B01221A70384B1B68364A59
:1056980013602E4B04221A7050E03548FFF7FFFBC9
:1056A8002F4B00221A70294B00221A7046E02E4B0D
:1056B8001B68002B04D02C4B1B68013B2A4A136043
:1056C800294B1B68002B3BD1FB79002B18D0274BAB
:1056D8001B68002B0AD0224B01221A70234B1B682F
:1056E800214A1360194B04221A7029E02048FFF759
:1056F800D6FB1B4B00221A70144B00221A701FE0B5
:10570800124B02221A701BE0104B1B78DBB21946B1
:105718001A48FFF7C4FB124B00221A700D4B0022E7
:105728001A700B4B00221A70084B00221A7008E0FE
:1057380000BF06E000BF04E000BF02E000BF00E0D9
:1057480000BF00BF0837BD4680BD00BFF40700207A
:10575800F10700200308002034020020F20700208F
:1057680002080020EC070020040800203002002076
:105778002C070108F3070020E80700205407010858
:1057880080B400AF10494FF000024FF00003C1E9A8
:1057980000230E4B00221A700D4B1B78DAB20D4B0A
:1057A8001A700D4B00221A700C4B00221A700C4B09
:1057B80000221A600B4B00221A7000231846BD46BF
:1057C8005DF8047B704700BFF80700200008002040
:1057D800F20700200108002002080020030800202A
:1057E80004080020F407002080B584B000AF034609
:1057F800FB80FB88002B3FD1314B1B78DAB2314B51
:105808001B789A4214BF01230023DBB2FB732C4B95
:105818001B78DAB22B4B1A70FB7B002B0BD02A4B70
:1058280000221A70294B00221A70294B00221A6094
:10583800284B00221A70224B1B78DBB2012B1BD19C
:10584800244B1B78DBB2002B04D1234B1B78DBB233
:10585800002B08D11F4B1B78DBB2012B0CD11C4B42
:105868001B68012B08D11A4B00221A601A4B002220
:105878001A70184B02221A70114B1B78DBB2012BDD
:1058880007D1164B1B889BB2FA889A4201D1FFF7C1
:1058980041FDFB88002B05D1FFF716FE104B0022B7
:1058A8001A7006E00E4B1B78002B02D00D4B1B78AC
:1058B80001E0054B1B7818461037BD4680BD00BF78
:1058C800F207002001080020020800200308002039
:1058D80004080020F407002034020020D00700202C
:1058E800090800200808002080B400AF26494FF0BE
:1058F80000024FF00003C1E90023244B00221A7074
:10590800234B00221A70234B00221A70224B0022CC
:105918001A80224B00221A70214B00221A70214B48
:1059280000221A60204B00221A70204B00221A70A5
:105938001F4B00221A601F4B00221A701E494FF09D
:1059480000024FF00003C1E900231C4B4FF47A72A8
:105958001A601B4B00221A601A4B00221A601A4B5D
:1059680000221A70194B01221A70194B00221A7062
:10597800184B00221A70184B00221A700023184680
:10598800BD465DF8047B7047F8070020000800203A
:10599800F407002001080020D0070020020800209A
:1059A8000308002004080020080800200908002037
:1059B800D4070020D8070020E0070020300200208C
:1059C800E8070020EC070020F00700203402002040
:1059D800F1070020F2070020F307002080B400AF91
:1059E800194B1B78DBB2002B29D1184B1B78DBB283
:1059F800002B0BD0164B1B78DBB2002B06D1154BB6
:105A080001221A70144B01221A7018E0104B1B78EF
:105A1800DBB21A460D4B1B78DBB2002B0CBF0123FF
:105A28000023DBB21340002B06D00A4B00221A7069
:105A3800094B01221A7002E0074B00221A7000BFBE
:105A4800BD465DF8047B7047F20700203402002051
:105A5800F1070020080800200908002080B586B05A
:105A680000AFF860B9607A603B600023FB7503F013
:105A7800FDFE3861FB681B68184604F00DF900212B
:105A8800386803F06BFE0246BB681A6003F056FEE6
:105A980002467B681A60BB681B68002B0FD0BB6886
:105AA8001B681946386904F0FDFB0246FB681A605A
:105AB800FB681B68002B04D1F623FB7501E0F82373
:105AC800FB7597F9173018461837BD4680BD00009A
