:020000040800F2
:100000000080012001ED000873CD000879CD0008C3
:100010007FCD000885CD00088BCD000800000000D2
:1000200000000000000000000000000061A50008C2
:1000300091CD0008000000001DA5000845A400089F
:1000400051ED000851ED000851ED000851ED000898
:1000500051ED000851ED000851ED000851ED000888
:1000600051ED000851ED000851ED000851ED000878
:1000700051ED000851ED000851ED000851ED000868
:10008000CDB2000851ED0008A93C000800000000B6
:1000900000000000000000000000000051ED00081A
:1000A00051ED000851ED000851ED000851ED000838
:1000B00051ED000851ED000851ED000851ED000828
:1000C00051ED000851ED000851ED000851ED000818
:1000D00051ED000851ED0008B9B200080000000021
:1000E0002933000851ED000851ED00080000000020
:1000F00000000000000000000000000051ED0008BA
:100100000000000051ED0008A1CD000851ED0008ED
:1001100000000000000000000000000000000000DF
:10012000B5CD000851ED000851ED000851ED000873
:1001300051ED000800000000000000000000000079
:1001400000000000000000000000000051ED000869
:1001500051ED000851ED000851ED000851ED000887
:1001600051ED000851ED0008000000000000000003
:10017000000000000000000000000000000000007F
:100180000000000051ED0008000000000000000029
:0401900051ED000825
:1001980081F0004102E000BF83F0004330B54FEA30
:1001A80041044FEA430594EA050F08BF90EA020F9D
:1001B8001FBF54EA000C55EA020C7FEA645C7FEA30
:1001C800655C00F0E2804FEA5454D4EB5555B8BF53
:1001D8006D420CDD2C4480EA020281EA030382EAC4
:1001E800000083EA010180EA020281EA0303362D56
:1001F80088BF30BD11F0004F4FEA01314FF4801C29
:100208004CEA113102D0404261EB410113F0004F3A
:100218004FEA03334CEA133302D0524263EB4303F1
:1002280094EA050F00F0A780A4F10104D5F1200E8F
:100238000DDB02FA0EFC22FA05F2801841F10001EA
:1002480003FA0EF2801843FA05F359410EE0A5F1BE
:1002580020050EF1200E012A03FA0EFC28BF4CF0EF
:10026800020C43FA05F3C01851EBE37101F00045A5
:1002780007D54FF0000EDCF1000C7EEB00006EEBB2
:100288000101B1F5801F1BD3B1F5001F0CD349083C
:100298005FEA30004FEA3C0C04F101044FEA445293
:1002A80012F5800F80F09A80BCF1004F08BF5FEA1A
:1002B800500C50F1000041EB045141EA050130BDFA
:1002C8005FEA4C0C404141EB0101013C28BFB1F50C
:1002D800801FE9D291F0000F04BF01460020B1FA57
:1002E80081F308BF2033A3F10B03B3F120020CDA2A
:1002F8000C3208DD02F1140CC2F10C0201FA0CF008
:1003080021FA02F10CE002F11402D8BFC2F1200C6C
:1003180001FA02F120FA0CFCDCBF41EA0C01904022
:10032800E41AA2BF01EB0451294330BD6FEA04046B
:100338001F3C1CDA0C340EDC04F11404C4F1200256
:1003480020FA04F001FA02F340EA030021FA04F368
:1003580045EA030130BDC4F10C04C4F1200220FABF
:1003680002F001FA04F340EA0300294630BD21FAFD
:1003780004F0294630BD94F0000F83F4801306BFC3
:1003880081F480110134013D4EE77FEA645C18BFB7
:100398007FEA655C29D094EA050F08BF90EA020F4E
:1003A80005D054EA000C04BF1946104630BD91EA46
:1003B800030F1EBF0021002030BD5FEA545C05D149
:1003C8004000494128BF41F0004130BD14F5800488
:1003D8003CBF01F5801130BD01F0004545F0FE41FC
:1003E80041F470014FF0000030BD7FEA645C1ABF31
:1003F800194610467FEA655C1CBF0B46024650EA68
:10040800013406BF52EA033591EA030F41F4002193
:1004180030BD00BF90F0000F04BF0021704730B519
:100428004FF4806404F132044FF000054FF00001EE
:1004380050E700BF90F0000F04BF0021704730B5AF
:100448004FF4806404F1320410F0004548BF404284
:100458004FF000013EE700BF42004FEAE2014FEAD9
:1004680031014FEA02701FBF12F07F4393F07F4FB4
:1004780081F06051704732F07F4208BF704793F0B7
:100488007F4F04BF41F40021704730B54FF46074CA
:1004980001F0004521F000411CE700BF50EA0102CD
:1004A80008BF704730B54FF000050AE050EA010276
:1004B80008BF704730B511F0004502D5404261EBE6
:1004C80041014FF4806404F132045FEA915C3FF427
:1004D800D8AE4FF003025FEADC0C18BF03325FEAC4
:1004E800DC0C18BF033202EBDC02C2F1200300FA75
:1004F80003FC20FA02F001FA03FE40EA0E0021FA9A
:1005080002F11444BDE600BF70B54FF0FF0C4CF487
:10051800E06C1CEA11541DBF1CEA135594EA0C0F39
:1005280095EA0C0F00F0DEF82C4481EA030621EA74
:100538004C5123EA4C5350EA013518BF52EA0335AF
:1005480041F4801143F4801338D0A0FB02CE4FF061
:100558000005E1FB02E506F00042E0FB03E54FF091
:100568000006E1FB03569CF0000F18BF4EF0010E89
:10057800A4F1FF04B6F5007F64F5407404D25FEA85
:100588004E0E6D4146EB060642EAC62141EA555138
:100598004FEAC52040EA5E504FEACE2EB4F1FD0C7A
:1005A80088BFBCF5E06F1ED8BEF1004F08BF5FEAF8
:1005B800500E50F1000041EB045170BD06F00046AA
:1005C80046EA010140EA020081EA0301B4EB5C0457
:1005D800C2BFD4EB0C0541EA045170BD41F480114F
:1005E8004FF0000E013C00F3AB8014F1360FDEBF74
:1005F800002001F0004170BDC4F10004203C35DA50
:100608000C341BDC04F11404C4F1200500FA05F3D2
:1006180020FA04F001FA05F240EA020001F0004273
:1006280021F0004110EBD37021FA04F642EB0601E9
:100638005EEA430E08BF20EAD37070BDC4F10C0413
:10064800C4F1200500FA04F320FA05F001FA04F2D7
:1006580040EA020001F0004110EBD37041F10001C3
:100668005EEA430E08BF20EAD37070BDC4F12005CE
:1006780000FA05F24EEA020E20FA04F301FA05F236
:1006880043EA020321FA04F001F0004121FA04F2DE
:1006980020EA020000EBD3705EEA430E08BF20EAAE
:1006A800D37070BD94F0000F0FD101F000464000E8
:1006B80041EB010111F4801F08BF013CF7D041EA6A
:1006C800060195F0000F18BF704703F0004652006E
:1006D80043EB030313F4801F08BF013DF7D043EA3F
:1006E8000603704794EA0C0F0CEA135518BF95EAF5
:1006F8000C0F0CD050EA410618BF52EA4306D1D17C
:1007080081EA030101F000414FF0000070BD50EA9A
:10071800410606BF1046194652EA430619D094EA24
:100728000C0F02D150EA013613D195EA0C0F05D10E
:1007380052EA03361CBF104619460AD181EA030162
:1007480001F0004141F0FE4141F470014FF000001A
:1007580070BD41F0FE4141F4780170BD70B54FF0B5
:10076800FF0C4CF4E06C1CEA11541DBF1CEA135535
:1007780094EA0C0F95EA0C0F00F0A7F8A4EB050417
:1007880081EA030E52EA03354FEA013100F088800E
:100798004FEA03334FF0805545EA131343EA1263D7
:1007A8004FEA022245EA111545EA10654FEA00268C
:1007B8000EF000419D4208BF964244F1FD0404F545
:1007C800407402D25B084FEA3202B61A65EB0305A1
:1007D8005B084FEA32024FF480104FF4002CB6EB5E
:1007E800020E75EB030E22BFB61A754640EA0C00DE
:1007F8005B084FEA3202B6EB020E75EB030E22BF1E
:10080800B61A754640EA5C005B084FEA3202B6EB5E
:10081800020E75EB030E22BFB61A754640EA9C001D
:100828005B084FEA3202B6EB020E75EB030E22BFED
:10083800B61A754640EADC0055EA060E18D04FEAAB
:10084800051545EA16754FEA06164FEAC30343EA4B
:1008580052734FEAC2025FEA1C1CC0D111F4801F18
:100868000BD141EA00014FF000004FF0004CB6E711
:1008780011F4801F04BF01430020B4F1FD0C88BFB0
:10088800BCF5E06F3FF6AFAEB5EB030C04BFB6EBBB
:10089800020C5FEA500C50F1000041EB045170BDAE
:1008A8000EF0004E4EEA113114EB5C04C2BFD4EBDB
:1008B8000C0541EA045170BD41F480114FF0000E5F
:1008C800013C90E645EA060E8DE60CEA135594EADB
:1008D8000C0F08BF95EA0C0F3FF43BAF94EA0C0FDE
:1008E8000AD150EA01347FF434AF95EA0C0F7FF453
:1008F80025AF104619462CE795EA0C0F06D152EAA7
:1009080003353FF4FDAE1046194622E750EA41068A
:1009180018BF52EA43067FF4C5AE50EA41047FF49B
:100928000DAF52EA43057FF4EBAE12E74FF0FF3C00
:1009380006E000BF4FF0010C02E000BF4FF0010CD1
:100948004DF804CD4FEA410C7FEA6C5C4FEA430C4A
:1009580018BF7FEA6C5C1BD001B050EA410C0CBF99
:1009680052EA430C91EA030F02BF90EA020F0020FB
:10097800704710F1000F91EA030F58BF994208BF62
:1009880090422CBFD8176FEAE37040F0010070471F
:100998004FEA410C7FEA6C5C02D150EA013C07D176
:1009A8004FEA430C7FEA6C5CD6D152EA033CD3D0C1
:1009B8005DF8040B704700BF8446104662468C46BB
:1009C8001946634600E000BF01B5FFF7B7FF0028EE
:1009D80048BF10F1000F01BD4DF808EDFFF7F4FF17
:1009E8000CBF012000205DF808FB00BF4DF808EDA2
:1009F800FFF7EAFF34BF012000205DF808FB00BFC5
:100A08004DF808EDFFF7E0FF94BF012000205DF8E6
:100A180008FB00BF4DF808EDFFF7CEFF94BF01209B
:100A280000205DF808FB00BF4DF808EDFFF7C4FF94
:100A380034BF012000205DF808FB00BF4FEA410CDD
:100A48007FEA6C5C02D150EA013C0AD14FEA430CC0
:100A58007FEA6C5C02D152EA033C02D14FF00000FD
:100A680070474FF0010070474FEA410212F500123B
:100A780015D211D56FF47873B3EB625212D94FEADD
:100A8800C12343F0004343EA505311F0004F23FAC7
:100A980002F018BF404270474FF00000704750EA1C
:100AA800013005D111F0004008BF6FF000407047D9
:100AB8004FF00000704700BF4A0011D212F5001233
:100AC80011D20DD56FF47873B3EB62520ED44FEA9E
:100AD800C12343F0004343EA505323FA02F070471E
:100AE8004FF00000704750EA013002D14FF0FF305C
:100AF80070474FF0000070474FEA4102B2F1E043FF
:100B080024BFB3F5001CDCF1FE5C0DD901F0004CEC
:100B18004FEAC0024CEA5070B2F1004F40EB83003C
:100B280008BF20F00100704711F0804F21D113F168
:100B38003872BCBF01F00040704741F480114FEAA1
:100B48005252C2F11802C2F1200C10FA0CF320FA2A
:100B580002F018BF40F001004FEAC1234FEAD32347
:100B680003FA0CFC40EA0C0023FA02F34FEA4303B1
:100B7800CCE77FEA625307D150EA01331EBF4FF03A
:100B8800FE4040F44000704701F0004040F0FE4055
:100B980040F40000704700BF53B94AB9002908BFA4
:100BA80000281CBF4FF0FF314FF0FF3000F00CB8A9
:100BB800ADF1080C6DE904CE0EF03CFADDF804E066
:100BC800DDE9022304B07047704700BF0348044BB7
:100BD800834202D0034B03B11847704778020020C4
:100BE80078020020000000000548064B1B1AD90FA8
:100BF80001EBA301491002D0034B03B1184770471A
:100C080078020020780200200000000010B5064C91
:100C1800237843B9FFF7DAFF044B13B10448AFF365
:100C280000800123237010BD78020020000000001E
:100C380084F3000808B5054B1BB105490548AFF317
:100C48000080BDE80840FFF7CFBF00BF00000000EC
:100C58007C02002084F3000880B483B000AF786081
:100C680039607B68DB6A23F470023B681A437B684F
:100C7800DA6200BF0C37BD465DF8047B704780B46C
:100C880083B000AF786039607B689B6823F440725A
:100C98003B681A437B689A6000BF0C37BD465DF815
:100CA800047B704780B483B000AF78607B689B6832
:100CB80003F44013002B0CBF01230023DBB21846BA
:100CC8000C37BD465DF8047B704780B483B000AF35
:100CD80078607B689B6843F001027B689A6000BF7C
:100CE8000C37BD465DF8047B704780B483B000AF15
:100CF80078607B689B6823F001027B689A6000BF7C
:100D08000C37BD465DF8047B704780B483B000AFF4
:100D180078607B689B6803F00103012B0CBF0123FB
:100D28000023DBB218460C37BD465DF8047B7047DC
:100D380080B483B000AF78607B689B6843F480021E
:100D48007B689A6000BF0C37BD465DF8047B70472E
:100D580080B483B000AF78607B681B6803F004033D
:100D6800042B0CBF01230023DBB218460C37BD4609
:100D78005DF8047B704780B483B000AF78607B680F
:100D88006FF004021A6000BF0C37BD465DF8047BA3
:100D9800704780B483B000AF78607B685B6843F0CD
:100DA80020027B685A6000BF0C37BD465DF8047BA3
:100DB800704780B483B000AF78607B685B6843F0AD
:100DC80080027B685A6000BF0C37BD465DF8047B23
:100DD800704780B483B000AF78607B685B6823F0AD
:100DE80020027B685A6000BF0C37BD465DF8047B63
:100DF800704780B483B000AF78607B685B6823F08D
:100E080080627B685A6000BF0C37BD465DF8047B82
:100E1800704780B483B000AF78607B685B6823F06C
:100E280080027B685A6000BF0C37BD465DF8047BC2
:100E3800704780B483B000AF78607B685B6823F04C
:100E480040027B685A6000BF0C37BD465DF8047BE2
:100E5800704780B483B000AF78607B685B6803F04C
:100E68008063B3F1806F0CBF01230023DBB2184607
:100E78000C37BD465DF8047B704780B483B000AF83
:100E880078607B685B6803F04003402B0CBF01234C
:100E98000023DBB218460C37BD465DF8047B70476B
:100EA80080B584B000AF78600123FB817B681B6943
:100EB8001846FFF7F7FE0346002B24D07B689B7A81
:100EC800DBB2022B0CD07B689B7ADBB2082B07D0F5
:100ED8007B681B691846FFF73BFF0346012B12D1BD
:100EE8007B689B7ADBB2082B03D17B6801229A725C
:100EF80002E07B6820229A727B681B691846FFF71C
:100F080017FF0023FB81FB8918461037BD4680BDBB
:100F180080B487B000AFF8600B467A607B81FB68CD
:100F28003C333B6100237B610DE07B699B003A69A0
:100F3800134419687B695B007A6813448AB21A8083
:100F48007B6901337B617B897A699A42EDDB00BF5B
:100F580000BF1C37BD465DF8047B704780B485B080
:100F680000AFF860B9607A603B6000BF1437BD46D7
:100F78005DF8047B704780B485B000AFF860B96055
:100F88007A6000BF1437BD465DF8047B704780B5B2
:100F980084B000AF78607B681B691846FFF7D8FEFD
:100FA8000346FB73FB7B012B07D17B681B69184643
:100FB800FFF7E1FE7B6802229A72FB7B1846103726
:100FC800BD4680BD80B483B000AF78600B46FB702F
:100FD80000BF0C37BD465DF8047B704790B589B0FB
:100FE80002AFF860084611461A4603467B810B4655
:100FF8003B811346FB8000237B61FB681B693D4AEC
:10100800934201D13C4B7B617B69002B6CD0FB6820
:101018001A697B691A617B690022DA71FB88012BE6
:1010280062D03B89002B48D07B695B7ADBB2082B06
:1010380043D0FB68DA687B69DA60FB681A687B6909
:101048001A60FB685A697B695A61FB689A797B69FF
:101058009A71FB681A797B691A717B691B69B96A8D
:101068001846FFF7F9FD7B89012B22D07B89042BD9
:1010780017D17B691B694FF440711846FFF7FFFDD4
:101088007B6918697B6959697B699B791C467B690F
:10109800DA687B691B68009313462246FFF75EFFF8
:1010A80007E07B89022B04D17B691B691846FFF78F
:1010B80070FE7B6908225A7216E03B89002B13D117
:1010C8007B699B7ADBB2082B0ED0FB685A797B6967
:1010D8005A717B89022B04D17B691B691846FFF77B
:1010E80068FE7B6908229A727B6918461C37BD46E0
:1010F80090BD00BF002001409402002080B582B05E
:1011080000AF78607B681B691846FFF7FEFD034651
:10111800002B04D17B681B691846FFF7D6FD00BF7A
:101128000837BD4680BD80B586B000AFF8600B4675
:101138007A607B810123FB82FB681B69002B4BD003
:101148007B89012B05D1F868FFF7AAFE0346FB82CD
:1011580042E07B89042B24D1FB681B691846FFF702
:10116800A1FD0346002B37D0FB6801229A72FB6869
:101178001B691846FFF7DCFD00BFFB689B7ADBB2F2
:10118800022BFAD1FB681869FB685B799BB27A6815
:101198001946FFF7BDFEFB6808229A720023FB82FE
:1011A8001AE07B89022B17D1FB689B7ADBB2202BD4
:1011B80004D0FB689B7ADBB2022B0DD1FB680822B6
:1011C8009A72FB681869FB685B799BB27A68194662
:1011D800FFF79EFE0023FB82FB8A18461837BD46A0
:1011E80080BD80B582B000AF78600B467B80134627
:1011F8003B807B681B691846FFF787FD0346002B79
:1012080004D07B681B691846FFF76FFD7B681B6974
:101218001846FFF732FE0346002B04D07B681B6993
:101228001846FFF706FE7B681B691846FFF711FE94
:101238000346002B04D07B681B691846FFF7D9FDCD
:101248003B88002B35D07B88012B1AD07B88022B5A
:1012580005D17B681B691846FFF7BBFD11E07B8849
:10126800042B0ED17B6818697B6859697B689B7968
:101278001A46FFF780FE7B681B6900211846FFF7B6
:10128800FEFC7B680022DA607B6800221A607B68BB
:1012980000225A617B6800229A717B6800221A71C9
:1012A8007B681A697B681B7919461046FFF7D4FCDE
:1012B8000AE07B6800225A717B88022B04D17B6884
:1012C8001B691846FFF7A5FD00BF0837BD4680BD5E
:1012D80080B485B000AF78607B681B6803F060035A
:1012E800FB60FB68002B04D17B681B6803F01003CC
:1012F800FB60FB6818461437BD465DF8047B7047F1
:1013080080B483B000AF78607B685B6A18460C379E
:10131800BD465DF8047B704780B483B000AF786049
:101328007B681B6B18460C37BD465DF8047B70471D
:1013380080B483B000AF786039607B681A6A3B6814
:101348001A437B681A6200BF0C37BD465DF8047B00
:10135800704780B483B000AF786039607B681A6AE0
:101368003B68DB431A407B681A6200BF0C37BD46F6
:101378005DF8047B704780B483B000AF78607B6809
:101388005B6C43F400427B685A6400BF0C37BD466F
:101398005DF8047B704780B483B000AF78607B68E9
:1013A800DB6843F001027B68DA6000BF0C37BD469A
:1013B8005DF8047B704780B483B000AF78607B68C9
:1013C800DB6823F001027B68DA6000BF0C37BD469A
:1013D8005DF8047B704780B483B000AF78607B68A9
:1013E800DB6803F00103012B01D1012300E0002396
:1013F80018460C37BD465DF8047B704780B483B04F
:1014080000AF78607B68DB6843F002027B68DA60D3
:1014180000BF0C37BD465DF8047B704780B483B0CD
:1014280000AF78607B68DB6823F002027B68DA60D3
:1014380000BF0C37BD465DF8047B704780B483B0AD
:1014480000AF78607B68DB6803F00203022B01D1F0
:10145800012300E0002318460C37BD465DF8047BE5
:10146800704780B483B000AF78607B68DB6843F076
:1014780004027B68DA6000BF0C37BD465DF8047B68
:10148800704780B483B000AF78607B68DB6823F076
:1014980004027B68DA6000BF0C37BD465DF8047B48
:1014A800704780B483B000AF78607B68DB6803F076
:1014B8000403042B01D1012300E0002318460C3754
:1014C800BD465DF8047B704780B483B000AF786098
:1014D8007B68DB6843F008027B68DA6000BF0C3782
:1014E800BD465DF8047B704780B483B000AF786078
:1014F8007B68DB6823F008027B68DA6000BF0C3782
:10150800BD465DF8047B704780B483B000AF786057
:101518007B68DB6803F00803082B01D1012300E096
:10152800002318460C37BD465DF8047B704780B42D
:1015380083B000AF78607B68DB6843F010027B689B
:10154800DA6000BF0C37BD465DF8047B704780B495
:1015580083B000AF78607B68DB6823F010027B689B
:10156800DA6000BF0C37BD465DF8047B704780B475
:1015780083B000AF78607B68DB6803F01003102B42
:1015880001D1012300E0002318460C37BD465DF861
:10159800047B704780B483B000AF78607B68DB68F9
:1015A80043F020027B68DA6000BF0C37BD465DF867
:1015B800047B704780B483B000AF78607B68DB68D9
:1015C80023F020027B68DA6000BF0C37BD465DF867
:1015D800047B704780B483B000AF78607B68DB68B9
:1015E80003F02003202B01D1012300E0002318463B
:1015F8000C37BD465DF8047B704780B483B000AFFC
:1016080078607B68DB6843F040027B68DA6000BF83
:101618000C37BD465DF8047B704780B483B000AFDB
:1016280078607B68DB6823F040027B68DA6000BF83
:101638000C37BD465DF8047B704780B483B000AFBB
:1016480078607B68DB6803F04003402B01D10123FD
:1016580000E0002318460C37BD465DF8047B704750
:1016680080B483B000AF78607B68DB6843F08002A9
:101678007B68DA6000BF0C37BD465DF8047B7047B5
:1016880080B483B000AF78607B68DB6823F08002A9
:101698007B68DA6000BF0C37BD465DF8047B704795
:1016A80080B483B000AF78607B68DB6803F08003A8
:1016B800802B01D1012300E0002318460C37BD46DA
:1016C8005DF8047B704780B582B000AF78600B4648
:1016D8007B807B8803F00103002B0CD07B681B68A0
:1016E8001846FFF7AAFF0346012B04D07B681B6846
:1016F8001846FFF782FF7B8803F00203002B0CD00B
:101708007B681B681846FFF799FE0346012B04D037
:101718007B681B681846FFF771FE7B8803F004039B
:10172800002B0CD07B681B681846FFF7BAFE0346EF
:10173800012B04D07B681B681846FFF792FE7B8854
:1017480003F00803002B0CD07B681B681846FFF7D2
:10175800DBFE0346012B04D07B681B681846FFF7A5
:10176800B3FE7B8803F01003002B0CD07B681B684A
:101778001846FFF7FCFE0346012B04D07B681B6864
:101788001846FFF7D4FE7B8803F02003002B0CD00B
:101798007B681B681846FFF71EFE0346012B04D022
:1017A8007B681B681846FFF7F6FD7B8803F040034B
:1017B800002B0CD07B681B681846FFF771FF0346A7
:1017C800012B04D07B681B681846FFF749FF7B880C
:1017D80003F08003002B0CD07B681B681846FFF7CA
:1017E800F9FE0346012B04D07B681B681846FFF7F7
:1017F800D1FE00BF0837BD4680BD80B582B000AFBE
:1018080078600B467B807B8803F00103002B0CD0AB
:101818007B681B681846FFF710FF0346012B04D1AD
:101828007B681B681846FFF7F8FE7B8803F0020305
:10183800002B0CD07B681B681846FFF7FFFD03469A
:10184800012B04D17B681B681846FFF7E7FD7B88EE
:1018580003F00403002B0CD07B681B681846FFF7C5
:1018680020FE0346012B04D17B681B681846FFF74E
:1018780008FE7B8803F00803002B0CD07B681B68EC
:101888001846FFF741FE0346012B04D17B681B680D
:101898001846FFF729FE7B8803F01003002B0CD0B5
:1018A8007B681B681846FFF762FE0346012B04D1CC
:1018B8007B681B681846FFF74AFE7B8803F0200305
:1018C800002B0CD07B681B681846FFF784FD034685
:1018D800012B04D07B681B681846FFF76CFD7B88DA
:1018E80003F04003002B0CD07B681B681846FFF7F9
:1018F800D7FE0346012B04D17B681B681846FFF707
:10190800BFFE7B8803F08003002B0CD07B681B682C
:101918001846FFF75FFE0346012B04D17B681B685E
:101928001846FFF747FE00BF0837BD4680BD0000D8
:1019380080B582B000AF78600B46FB70FB78022B55
:1019480006D17B681B6801211846FFF7F1FC1DE0F2
:101958007B681B680F4A934218D1FB78032B06D18A
:101968007B681B6804211846FFF7E2FC0EE0FB7851
:10197800042B0BD17B681B6801211846FFF7D8FCA4
:101988007B681B6804211846FFF7D2FC00BF0837A4
:10199800BD4680BD0000014080B582B000AF7860D0
:1019A8000B46FB70FB78022B06D17B681B68012174
:1019B8001846FFF7CEFC1DE07B681B680F4A934270
:1019C80018D1FB78032B06D17B681B6804211846C5
:1019D800FFF7BFFC0EE0FB78042B0BD17B681B687C
:1019E80001211846FFF7B5FC7B681B6804211846DF
:1019F800FFF7AFFC00BF0837BD4680BD00000140BF
:101A080080B582B000AF78600B46FB70FB78022B84
:101A180006D17B681B6810211846FFF789FC1DE07A
:101A28007B681B680F4A934218D1FB78032B06D1B9
:101A38007B681B6840211846FFF77AFC0EE0FB78AC
:101A4800042B0BD17B681B6810211846FFF770FC2C
:101A58007B681B6840211846FFF76AFC00BF0837FF
:101A6800BD4680BD0000014080B582B000AF7860FF
:101A78000B46FB70FB78022B06D17B681B68102194
:101A88001846FFF766FC1DE07B681B680F4A934207
:101A980018D1FB78032B06D17B681B6840211846B8
:101AA800FFF757FC0EE0FB78042B0BD17B681B6813
:101AB80010211846FFF74DFC7B681B68402118462B
:101AC800FFF747FC00BF0837BD4680BD0000014056
:101AD80080B582B000AF78600B46FB70FB78022BB4
:101AE80007D17B681B684FF480711846FFF720FC0C
:101AF80020E07B681B68114A93421BD1FB78032BBB
:101B080007D17B681B684FF480611846FFF710FC0B
:101B180010E0FB78042B0DD17B681B684FF48071B3
:101B28001846FFF705FC7B681B684FF48061184670
:101B3800FFF7FEFB00BF0837BD4680BD000001402F
:101B480080B582B000AF78600B46FB70FB78022B43
:101B580007D17B681B684FF480711846FFF7F9FBC3
:101B680020E07B681B68114A93421BD1FB78032B4A
:101B780007D17B681B684FF480611846FFF7E9FBC3
:101B880010E0FB78042B0DD17B681B684FF4807143
:101B98001846FFF7DEFB7B681B684FF48061184628
:101BA800FFF7D7FB00BF0837BD4680BD00000140E6
:101BB80080B584B000AF78600023FB607B681B6849
:101BC800204A934202D1204BFB6006E07B681B68E9
:101BD8001E4A934201D11E4BFB607B681A68FB6862
:101BE8001A60FB681B681846FFF772FBB860BB6891
:101BF800002B06D0BB68102B03D0FB6801221A719A
:101C080002E0FB6800221A71FB681B680D4A9342C8
:101C180004D1FB681B681846FFF7ADFBFB681B681F
:101C2800084A934208D17B681B681846FFF774FB83
:101C38000346DAB2FB685A71FB6818461037BD468E
:101C480080BD00BF00000140B00200200004004039
:101C58003C03002080B582B000AF78607B681B68C9
:101C68001846FFF74DFB034618460837BD4680BDAA
:101C780080B485B000AF786039600023FB7397F9B2
:101C88000F3018461437BD465DF8047B70470000D6
:101C980080B584B000AF786039600023FB727B6840
:101CA800002B05D1374802F019FA4FF0FF3365E0F1
:101CB8003B68002B05D1344802F010FA4FF0FF338F
:101CC8005CE0324BD3E900014FF000024FF0404393
:101CD800FEF782FE0346002B06D03B68D3E90023BB
:101CE8002A49C1E9002305E0284BD3E900233968D4
:101CF800C1E90023254BD3E900014FF00002244B32
:101D0800FEF76AFE0346002B02D0224802F0E6F9ED
:101D18007B685B681B68204A13607B685B685B684C
:101D28001E4A13607B685B689B681D4A13607B686A
:101D38005B68DB681B4A13601B4B00221A6002F0C9
:101D48003FFE0023FB600023FB6007E0174AFB68A7
:101D5800174942F82310FB680133FB60FB68012B2D
:101D6800F4D902F077FA0346FB7297F90B30002B8F
:101D780002D1104B01221A7097F90B301846103710
:101D8800BD4680BDA0F30008C4F3000898010020F8
:101D98000000F0BFF0F30008740600207806002069
:101DA8007C0600208006002084060020C80300204E
:101DB800314A00087206002080B586B000AF78600E
:101DC8000023FB7500233B610023FB732A4B1B7820
:101DD800DBB2002B0CBF01230023DBB2BB73274B04
:101DE80002221A707B68002B0BD1234B1B78DBB2C5
:101DF800002B06D1224B1B78DBB2002B01D101232B
:101E080000E00023FB7316E00A2008F01BFA3B6988
:101E180003F51C5310333B617B68B3F1FF3F05D0DA
:101E28003A697B689A4201D9012300E00023FB73D9
:101E3800002002F05DFA104B1B78DBB2002B07D1B3
:101E48000F4B1B78DBB2002B02D1FB7B002BDBD0C6
:101E58000A4B03221A70FB7B002B01D09C23FB75D5
:101E6800BB7B002B01D002F0D9FE97F9173018463A
:101E78001837BD4680BD00BF7006002072060020DE
:101E88007106002080B586B000AF034687ED000BD1
:101E9800FB810023FB750123BB754FF000024FF057
:101EA8000003D7E90001FEF7A1FD0346002B05D08A
:101EB8002E4802F013F94FF0FF3353E0FB89FF2B54
:101EC80008D9FB89FF221946294802F007F94FF083
:101ED800FF3347E0274B1B78DBB2032B04D0254B9D
:101EE8001B78DBB2012B02D1224B04221A70FB892A
:101EF800012B15D8FB89204A52F82330002B0FD02C
:101F080003F056FA03467B757B7D022B08D1FB89CB
:101F1800194A52F82330FA89104698470346BB7588
:101F2800FB897B82FB89184697ED000B02F0F4F8D9
:101F3800BB7D002B06D07B8A184603F011FA0346B6
:101F4800FB7503E07B8A184603F06DFA97F91730A2
:101F5800002B05D097F917301946084802F0BEF84B
:101F680097F9173018461837BD4680BD5CF400084D
:101F7800A0F4000872060020C8030020E0F400085E
:101F880080B582B000AF0023FB71002002F0B0F9E9
:101F98000346FB7197F9073018460837BD4680BDE0
:101FA80080B582B000AF0023FB710B4B06221A707C
:101FB80002F03CFA0346FB710822002107480DF0A5
:101FC8009DF902F0B1FD044B00221A7097F9073011
:101FD80018460837BD4680BD72060020C803002099
:101FE80080B400AF034B1B78DBB21846BD465DF8E2
:101FF800047B70477106002080B400AF034B1B7848
:10200800DBB21846BD465DF8047B704788060020A1
:1020180080B483B000AF03463960FB7197F907308D
:10202800002B0ADB3B68DAB20C4997F9073012013A
:10203800D2B20B4483F800230AE03B68DAB20849BD
:10204800FB7903F00F03043B1201D2B20B441A765A
:1020580000BF0C37BD465DF8047B704700E100E027
:1020680000ED00E080B584B000AFF860B9607A6038
:10207800FB68DBB20F3BDBB25BB279681846FFF74F
:10208800C7FF00BF1037BD4680BD80B485B000AF24
:10209800EFF310837B607B68FB600123BB60BB6848
:1020A80083F3108800BFFB6818461437BD465DF8F7
:1020B800047B704780B483B000AF0346FB7197F987
:1020C8000730002B0BDBFB7903F01F02074997F958
:1020D80007305B09012000FA02F241F8232000BF13
:1020E8000C37BD465DF8047B704700BF00E100E097
:1020F80080B483B000AF0346FB7197F90730002B1B
:1021080012DBFB7903F01F020A4997F907305B09D4
:10211800012000FA02F2203341F82320BFF34F8F49
:1021280000BFBFF36F8F00BF00BF0C37BD465DF81F
:10213800047B704700E100E080B483B000AF7860B2
:102148007B686FF004021A6000BF0C37BD465DF86B
:10215800047B704780B483B000AF78607B685B68AD
:1021680003F08003802B0CBF01230023DBB2184649
:102178000C37BD465DF8047B7047000080B483B01F
:1021880000AF7860074B1A687B6813407A689A42F8
:102198000CBF01230023DBB218460C37BD465DF89F
:1021A800047B7047003C014080B483B000AF786086
:1021B800074B5A697B6813407A689A420CBF01231F
:1021C8000023DBB218460C37BD465DF8047B704728
:1021D800003C014080B483B000AF7860044A7B685B
:1021E800536100BF0C37BD465DF8047B704700BFE4
:1021F800003C014080B483B000AF78607B681B6806
:1022080043F001027B681A6000BF0C37BD465DF8D9
:10221800047B704780B483B000AF78607B681B682C
:1022280023F001027B681A6000BF0C37BD465DF8D9
:10223800047B704780B483B000AF786039607B68F6
:102248001B6823F004023B681A437B681A6000BFCE
:102258000C37BD465DF8047B704780B483B000AF8F
:1022680078607B681B6803F0040318460C37BD468A
:102278005DF8047B704780B483B000AF78607B68FA
:10228800DB6A18460C37BD465DF8047B704780B49E
:1022980083B000AF786039607B683A681A6300BF22
:1022A8000C37BD465DF8047B704780B483B000AF3F
:1022B800786039607B683A685A6300BF0C37BD465E
:1022C8005DF8047B704780B483B000AF78603960F4
:1022D8007B683A689A6300BF0C37BD465DF8047B9B
:1022E800704780B483B000AF786039607B683A6823
:1022F800DA6300BF0C37BD465DF8047B704780B4D5
:1023080083B000AF78607B685B6B18460C37BD46BE
:102318005DF8047B704780B483B000AF78607B6859
:102328009B6B18460C37BD465DF8047B704780B43C
:1023380083B000AF78607B68DB6B18460C37BD460E
:102348005DF8047B704780B483B000AF78607B6829
:102358005B6943F001027B685A6100BF0C37BD46D8
:102368005DF8047B704780B483B000AF78607B6809
:102378001B6918460C37BD465DF8047B704780B46E
:1023880083B000AF786039607B683A689A6100BFB3
:102398000C37BD465DF8047B704780B483B000AF4E
:1023A800786039603B681A047B689A6100BF0C3713
:1023B800BD465DF8047B704780B584B000AF786097
:1023C80087ED000AD7ED007AF5EEC07AF1EE10FA43
:1023D80003D54FF000033B600AE0D7ED007A9FED8C
:1023E800167AF4EEC77AF1EE10FA01DD134B3B6072
:1023F8007B681B681846FFF73EFFF8607B681B790F
:10240800002B0CBF01230023DBB21A46FB681344E0
:1024180007EE903AB8EE677AD7ED007A27EE277A7A
:10242800DFED056AC7EE267AFCEEE77A17EE903AFA
:1024380018461037BD4680BD0000C8420000C8429B
:1024480080B582B000AF786039607B681B68184639
:10245800FFF755FF02463B68934205D07B681B682F
:1024680039681846FFF721FF00BF0837BD4680BD11
:1024780080B582B000AF786039607B681B68184609
:10248800FFF749FF02463B68934205D07B681B680B
:1024980039681846FFF717FF00BF0837BD4680BDEB
:1024A80080B582B000AF786039607B681B681846D9
:1024B800FFF73DFF02463B68934205D07B681B68E7
:1024C80039681846FFF70DFF00BF0837BD4680BDC5
:1024D80080B584B000AF786087ED000A97ED000AF8
:1024E8007868FFF769FFF860F9687868FFF7A8FF70
:1024F80000BF1037BD4680BD80B584B000AF78609E
:1025080087ED000A97ED000A7868FFF755FFF86035
:10251800F9687868FFF7ACFF00BF1037BD4680BD8B
:1025280080B584B000AF786087ED000A97ED000AA7
:102538007868FFF741FFF860F9687868FFF7B0FF3F
:1025480000BF1037BD4680BD80B485B000AF78604D
:102558007B681B689B6803F00703FB60FB68062B1E
:102568000CBF01230023DBB218461437BD465DF8C3
:10257800047B704780B584B000AF78600B46FB7071
:102588007B681B681846FFF768FEF860FB78002B2D
:102598000AD07B681B681E4A934205D17B681B687A
:1025A80000211846FFF773FEFB68042B11D07B68E7
:1025B8001B6804211846FFF73DFE7B681B68184618
:1025C800FFF7C1FE7B681B68F9681846FFF732FE03
:1025D80004E07B681B681846FFF7B5FE7B681B683C
:1025E8001846FFF707FEFB78002B0CD07B681B68AA
:1025F800074A934207D17B681A687B685B7919465A
:102608001046FFF744FE00BF1037BD4680BD00BF2F
:102618000000014080B582B000AF78607B681B681D
:102628001846FFF7F7FD00BF0837BD4680BD00001C
:1026380080B483B000AF7860084BB3F85230002BF9
:102648000CBF01230023DAB27B6801331A7000BF84
:102658000C37BD465DF8047B704700BFC8040020F6
:1026680080B400AF0A4BB3F85220013292B2A3F8FB
:102678005220074BB3F85230B3F5FA6F03D3044B2B
:102688000022A3F8522000BFBD465DF8047B7047C6
:10269800C804002080B485B000AFF860B9607A60E3
:1026A8007B68B3F90020FB681A807B685A88BB688E
:1026B8001A8000BF1437BD465DF8047B704780B4AC
:1026C80085B000AFF860B9607A607B681A88FB68EB
:1026D8001A807B685A88BB681A8000BF1437BD46C9
:1026E8005DF8047B704780B483B000AF78603960D0
:1026F8003B689A887B681A803B68DA887B685A80CE
:102708003B68B3F900207B68DA803B681A897B68EC
:102718009A8000BF0C37BD465DF8047B7047000007
:1027280080B584B000AF7B600346FB810B46BB815C
:1027380013467B81FB89013B052B45D801A252F842
:1027480023F000BFBF2700089B270008AD2700081B
:10275800772700086527000889270008386A3B6A38
:10276800991CBB6A20331A46FFF7A9FF30E0386A84
:102778003B6A991CBB6A1C331A46FFF7A0FF27E087
:10278800386A3B6A991CBB6A18331A46FFF797FFE9
:102798001EE0386A3B6A991CBB6A14331A46FFF775
:1027A8008EFF15E0386A3B6A991CBB6A10331A46DB
:1027B800FFF785FF0CE0386A3B6A991CBB6A0C334B
:1027C8001A46FFF77CFF03E07B6A04225A7000BFB9
:1027D8003B6A1B88BA899A4209D13B6A981D3B6AB1
:1027E800191DBB6A28331A46FFF754FF15E03B6AE8
:1027F8005B88BA899A4209D13B6A981D3B6A191DC0
:10280800BB6A24331A46FFF745FF06E0BB6A5A88BD
:102818003B6A9A807B6A04229A703B6A9A88FB69B1
:102828001A803B6AB3F90620BB691A803B6A9B8809
:10283800002B04D0BB6A9A7A7B681A700CE03B6A5A
:10284800B3F90630B7F90A209A420CBF01230023D6
:10285800DBB21A467B681A7000BF1037BD4680BDD0
:1028680080B485B000AFB9607A603B600346FB81F5
:10287800BB691A88BB681A807B68FA891A80BB69A9
:102888009A783B681A7000BF1437BD465DF8047B20
:102898007047000080B58CB002AF78607B6800227A
:1028A8001A727B6801225A600023BB6100233B74C3
:1028B800174BFB6100233B620023BB74002387F89E
:1028C8002430012387F825300223FB6002237B7420
:1028D80007F10C004FF48013009302230022022119
:1028E800FEF77CFB02467B68DA607B68DB6818468B
:1028F800FEF704FC7B68DB6800211846FEF762FBE4
:102908007B6801221A7200BF2837BD4680BD00BF10
:102918000020014080B5A6B000AF78601D4BBB60B9
:1029280000233B7300237B7307F108031846FFF766
:102938003FF902467B68DA607B68DB68002118464D
:10294800FEF7C1FE7B68DB6804211846FEF7F0FF3E
:102958007B68DB6804211846FFF752F87B68DB6860
:1029680004211846FFF7B4F87B68DB681846FFF7C0
:10297800EBFD034687F8973097F89730002B05D181
:102988007B68DB6801211846FFF7F4FD00BF983724
:10299800BD4680BD0000014080B5A6B000AF78609C
:1029A8007B6801225A60164BBB6000233B730023EF
:1029B8007B7307F108031846FFF7FAF802467B68AD
:1029C800DA607B68DB6800211846FEF77CFE7B68CE
:1029D800DB681846FFF7B8FD034687F8973097F885
:1029E8009730002B05D17B68DB6800211846FFF77C
:1029F800C1FD7B6801221A7200BF9837BD4680BDB1
:102A08000004004090B583B000AFFFF729FE7F4B6C
:102A180093F854207E4B83F844207D4B93F8443040
:102A2800013B052B5CD801A252F823F04D2A00087F
:102A3800672A0008812A00089B2A0008B52A00088E
:102A4800CF2A0008734BD3E90A237149C1E900234F
:102A5800704BD3E90C236E49C1E902234DE06D4B5D
:102A6800D3E90E236A49C1E900236A4BD3E910234D
:102A78006749C1E9022340E0664BD3E91223644960
:102A8800C1E90023634BD3E914236149C1E9022357
:102A980033E0604BD3E916235D49C1E900235D4B60
:102AA800D3E918235A49C1E9022326E0594BD3E94F
:102AB8001A235749C1E90023564BD3E92423544923
:102AC800C1E9022319E0534BD3E91C235049C1E95A
:102AD8000023504BD3E91E234D49C1E902230CE0E2
:102AE8004C4BD3E920234A49C1E90023494BD3E998
:102AF80024234749C1E9022300BF454BD3E90023FA
:102B08004549C1E90023424BD3E902234249C1E9BF
:102B180002233E4BDC693F4BD3E926231046194676
:102B2800FDF7EAFF034600EE103A2046FFF7D0FC17
:102B3800364BDC69374BD3E9262310461946FDF797
:102B4800DBFF034600EE103A2046FFF7D5FC2F4B7B
:102B5800DC69304BD3E9262310461946FDF7CCFF34
:102B6800034600EE103A2046FFF7DAFC284BDB8FCD
:102B7800FB80274BB3F84030BB80254BB3F942208C
:102B8800234B9A87224BD3E9082310461946FDF7B1
:102B98006BFF0346012B02D0022B04D007E01C4A2E
:102BA800FB88938703E01A4ABB88938700BF174BBB
:102BB800DB6A1846FFF74EF80346154A5363144B71
:102BC8005B6B124A5363124B5B6B104A9363104B57
:102BD8005B6B0E4AD3630E4B5A8F0D4B1A870F4B04
:102BE8009A6A01329A629B6A1846FDF713FC0B4BEE
:102BF800D3E90C23094CFDF787FC02460B46C4E9D0
:102C0800082300BF0C37BD4690BD00BF3804002024
:102C1800D803002000000020B8040020C8040020C9
:102C2800B0B586B000AF314B1B6B1846FDF702FC00
:102C38002F4BD3E92E23FDF7D9FE0346002B07D0EF
:102C48002A4B1B6B002B03DB294BD3E92A2303E018
:102C58004FF000024FF00003C7E90223234B1B6B20
:102C68001846FDF7E7FB04460D46214BD3E92C0136
:102C78004FF000021F4BFDF78FFA02460B46204625
:102C88002946FDF7C7FE0346002B03D0174B002249
:102C98001A6304E0154B1B6B0133144A1363164B7C
:102CA8007B604FF000024FF00003D7E90201FDF707
:102CB80093FE0346002B02D120237B6101E0002311
:102CC8007B617B6919467868FFF759FB7B69DB43B1
:102CD80003F0200319467868FFF75FFB074B9A6BF0
:102CE80001329A6300BF1837BD46B0BD38040020D2
:102CF800000000200000F03F00000240C80400204F
:102D080080B584B000AF94494FF00002934BC1E9FD
:102D1800162391498EA3D3E90023C1E90C238E4BD6
:102D28008F4A9A608C4B8F4ADA608B4B8E4A1A61B5
:102D3800894B8E4A5A61884B8D4A5A608C4B8D4A12
:102D48001A608C4B8C4A1A608A4B8B4A5A60894BA2
:102D58008A4A9A60874B8A4ADA60864B894A1A619E
:102D6800844B894A5A61834B884A9A61814B884AC5
:102D7800DA61804B874A1A627E4B874A5A627D4BDA
:102D8800864A9A627B4B864ADA627A4B854A1A638C
:102D9800784B854A5A63774B834A9A63754B824AC4
:102DA800DA63744B814A1A64724B804A5A64714BD5
:102DB8007E4A9A646F4B7D4ADA646E4B7C4A1A6588
:102DC8006C4B7C4A5A656B4B7B4A9A65694B7B4ACC
:102DD800DA65684B7A4A1A66664B7A4A5A66654BD0
:102DE800794A9A66634B794ADA66624B784A1A6777
:102DF800604B784A5A675F4B774A9A675D4B774AC8
:102E0800DA675C4B754AC3F880205A4B734AC3F89B
:102E18008420584B724AC3F88820564B704AC3F82E
:102E28008C20544B6E4AC3F89020524B6C4AC3F81E
:102E38009420504B6B4AC3F898204E4B6A4AC3F80B
:102E48009C204C4B694AC3F8A0204A4B684AC3F8F7
:102E5800A420484B674AC3F8A820464B664AC3F8E3
:102E6800AC20444B654AC3F8B020424B644AC3F8CF
:102E7800B420404B634AC3F8B8203E4B624AC3F8BB
:102E8800BC203C4B614AC3F8C0203A4B604AC3F8A7
:102E9800C420384B5E4AC3F8C820364B5C4AC3F896
:102EA800CC20344B5B4AC3F8D020324B594AC3F884
:102EB800D420304B574AC3F8D8202E4B554AC3F874
:102EC800DC202C4B544AC3F8E0202A4B524AC3F862
:102ED800E420284B504AC3F8E820264B264AC3F87A
:102EE800EC20244B244AC3F8F020224B224AC3F892
:102EF800F420204B204AC3F8F8201E4B1E4AC3F882
:102F0800FC201C4B1C4AC3F800211A4B1A4AC3F870
:102F18000421184B184AC3F80821164B164AC3F85F
:102F28000C21144B144AC3F81021124B124AC3F84F
:102F38001421104B104AC3F818210E4B0E4AC3F83F
:102F48001C21054A044B5B6818329A60024A65E006
:102F58002D431CEBE2360A3FC80400200000F0BFF6
:102F68009D30448BD417E6FA6D5F1926E25DBF7574
:102F780030050020440500202C1C01088D04002089
:102F88009604002095040020940400209304002057
:102F98009204002091040020980400209704002047
:102FA800900400208F0400208E0400208904002053
:102FB80099040020A2040020A1040020A0040020FD
:102FC8009F0400209E0400209D040020A4040020EB
:102FD800A30400209C0400209B0400209A040020E5
:102FE8008A040020A5040020AE040020AD040020BF
:102FF800AC040020AB040020AA040020A90400208F
:10300800B0040020AF040020A8040020A70400207A
:10301800A60400208B04002088040020734B5B6802
:1030280008325A60714A714B5B682032DA60704B23
:1030380093F802216F4B83F854206D4BB3F9DE20CF
:103048006C4BA3F846206A4BD3F8D430694A136412
:10305800674BB3F9E020674BA3F84820644BB3F8FB
:10306800F020644BA3F84A20614BB3F8F220614B7F
:10307800A3F84C205E4BB3F8F4205E4BA3F84E2027
:103088005B4BD3F8C8305B4A5363594BD3F8CC3009
:10309800584A9363564BD3F8D030564AD363534BB0
:1030A800524A9B6AD36354495448FFF71CFB504B60
:1030B800D3E902235249C1E908234D4BB3F9D8207B
:1030C8004F4BA3F84220494B484A9B6A13644D4929
:1030D8004D48FFF708FB464BD3E904234849C1E9AB
:1030E8000623434BB3F9DA20454BA3F840203F4B66
:1030F8003E4A9B6A536445494548FFF7F4FA3C4BFE
:10310800D3E906233E49C1E90423394BB3F9DC204E
:103118003B4BDA87354B354A9B6A9364344BB3F89B
:10312800EE20344BA3F84420324B00225A60314B36
:1031380000221A702F48FFF7ADFB2D4BB3F8EA2099
:103148002F4B5A872B4B00221A742A4B00221A76CF
:10315800284B01225A612F48FFF7DCFB254B01223F
:103168001A76244B00225A62224B002283F8202030
:103178002948FFF711FC2948FFF7F5F8F8602748B8
:10318800FFF7F1F8B8602548FFF7EDF87860FB68BD
:1031980003F48063002B05D0154B93F8F9305B09D5
:1031A800DAB200E00022BB6803F40063002B05D00C
:1031B8000F4B93F8FD309B09DBB200E0002313446A
:1031C800DAB27B6803F48053002B05D0084B93F8E0
:1031D8000131DB09DBB200E000231344DAB2054B0E
:1031E80083F8542000BF1037BD4680BDC8040020B6
:1031F8000000002038040020680100202E04002070
:10320800D8030020380100202604002008010020EF
:103218001E04002048040020580400200008024032
:1032280080B500AF304B1B7C002B27D12E4B0122E1
:103238001A742D4B5B69012B20D12B4B1B7E002B65
:103248001CD0294BDB691846FFF7E4F9264BDB69EC
:1032580000211846FEF7D1FA234BDB6904211846F2
:10326800FEF79AFB204BDB6904211846FEF7FCFBAE
:103278001D4BDB6904211846FEF762FC1A4B93F8D4
:103288002030002B17D1184B012283F82020164B31
:103298005B6A012B0FD1144B93F82830002B0AD00E
:1032A800114BDB6A1846FFF7B5F90F4BDB6A0021B3
:1032B8001846FEF7A2FA0C4B1B78002B11D10A4BCB
:1032C80001221A70084B5B68012B0AD1064B1B7A46
:1032D800002B06D0044BDB68002202211846FDF7BC
:1032E80080FF00BF80BD00BF3804002080B500AF5C
:1032F800022208493720FEF7B5FE2820FEF7DAFE3D
:10330800022205492120FEF7ADFE1220FEF7D2FE6B
:1033180000BF80BD29330008A93C00080000000058
:1033280090B59DB006AFFEF7B0FEB8644FF480507C
:10333800FEF724FF0346002B08D04FF48050FEF719
:1033480033FF0346002B01D0012300E00023002BAC
:1033580000F02E824FF48050FEF73CFFC74B1B78DD
:10336800DBB2012B40F02482C54B93F9783087F803
:103378004730002387F8573097F84730042B20D878
:1033880001A252F823F000BFA5330008AD330008AE
:10339800B5330008BD330008C5330008002387F89B
:1033A80057300EE0032387F857300AE0032387F8E5
:1033B800573006E0002387F8573002E0002387F8EB
:1033C800573097F95720AE4B83F87820AC4B93F9D8
:1033D800703087F84630002387F8563097F8463023
:1033E800042B20D801A252F823F000BF09340008AA
:1033F8001134000819340008213400082934000861
:10340800002387F856300EE0032387F856300AE089
:10341800032387F8563006E0002387F8563002E089
:10342800002387F8563097F95620954B83F870207B
:10343800934B93F9763087F84530002387F8553059
:1034480097F84530042B20D801A252F823F000BF8A
:103458006D340008753400087D3400088534000890
:103468008D340008002387F855300EE0032387F8D1
:1034780055300AE0032387F8553006E0002387F823
:10348800553002E0002387F8553097F955207C4BDA
:1034980083F876207A4B93F96F3087F8443000230D
:1034A80087F8543097F84430042B20D801A252F8FA
:1034B80023F000BFD1340008D9340008E1340008F3
:1034C800E9340008F1340008002387F854300EE08E
:1034D800032387F854300AE0032387F8543006E0C2
:1034E800002387F8543002E0002387F8543097F916
:1034F8005420634B83F86F20614B93F96E3087F843
:103508004330002387F8533097F84330042B20D8F2
:1035180001A252F823F000BF353500083D350008F8
:10352800453500084D35000855350008002387F853
:1035380053300EE0032387F853300AE0032387F85B
:10354800533006E0002387F8533002E0002387F861
:10355800533097F953204A4B83F86E20484B93F920
:103568006D3087F84230002387F8523097F84230A0
:10357800042B20D801A252F823F000BF9935000887
:10358800A1350008A9350008B1350008B93500088B
:10359800002387F852300EE0032387F852300AE000
:1035A800032387F8523006E0002387F8523002E000
:1035B800002387F8523097F95220314B83F86D2059
:1035C8002F4B93F9533087F84130002387F8513057
:1035D80097F84130042B20D801A252F823F000BFFD
:1035E800FD350008053600080D36000815360008B8
:1035F8001D360008002387F851300EE0032387F8B2
:1036080051300AE0032387F8513006E0002387F899
:10361800513002E0002387F8513097F95120184BB8
:1036280083F85320164B9B6B164A9362164B164A27
:103638009B6AD3631548FEF796FEF8631348FEF7B6
:1036480092FEB8631148FEF78EFE7863FB6B03F4B5
:103658008063002B05D00E4B93F8F6305B09DAB285
:1036680000E00022BB6B03F40063002B12D0084B70
:1036780093F8FA309B09DBB20DE000BF6F0600201B
:1036880038040020D8030020C804002000080240A5
:103698000000002000231344DAB27B6B03F480534C
:1036A800002B05D09E4B93F8FE30DB09DBB200E01F
:1036B80000231344DAB29B4B83F85420994B93F8B8
:1036C8005430013B052B1BD8964B93F8543098B2D5
:1036D800944B93F8543099B2924BB3F9482007F1C0
:1036E8000D04914B0493914B0393914B029307F173
:1036F8000E0301938F4B00932346FFF711F80CE05C
:10370800884BB3F9480007F10D0307F10E018A4A07
:103718000092884AFFF7A4F800BF884B9B6A9AB2C8
:10372800804B1B6C9BB2D31A9BB21AB2834BA3F883
:103738004220824BB3F942309AB27A4BA3F84A201E
:103748007B7B9AB2774BA3F84C20754BB3F8E220F9
:10375800744BA3F84E20794BB3F94220714BA3F870
:103768004620764B9B6A6F4A13646D4BD3E902235C
:103778007249C1E908236B4B042283F85320704B2C
:10378800DB6B1846FCF746FE63A3D3E90023FCF77E
:10379800BBFE02460B466B49C1E90023694B93ED1A
:1037A800007BB0EE470AF0EE670A0220FEF76AFBDC
:1037B8004FF40060FEF7E2FC0346002B08D04FF4FC
:1037C8000060FEF7F1FC0346002B01D0012300E066
:1037D8000023002B00F01A814FF40060FEF7FAFC7A
:1037E800594B1B78DBB2012B40F010814D4B93F9FC
:1037F800523087F83330002387F8503097F8333049
:10380800042B20D801A252F823F000BF2938000861
:1038180031380008393800084138000849380008AC
:10382800002387F850300EE0032387F850300AE071
:10383800032387F8503006E0002387F8503002E071
:10384800002387F8503097F95020364B83F85220E0
:10385800344B5B6B394AD362394B394A9B6A1364E0
:103868003A48FEF780FDF8623848FEF77CFDB862FA
:103878003648FEF778FD7862FB6A03F48063002B14
:1038880005D0274B93F8F7305B09DAB200E0002245
:10389800BB6A03F40063002B05D0214B93F8FB307F
:1038A8009B09DBB200E000231344DAB27B6A03F41D
:1038B8008053002B05D01A4B93F8FF30DB09DBB29D
:1038C80000E000231344DAB2164B83F85420154B5A
:1038D80093F85430013B052B40D8124B93F85430E1
:1038E80098B2104B93F8543099B20E4BB3F9482064
:1038F80007F10904164B0493164B0393164B0293D6
:1039080007F10A0301930B4B00932346FEF708FFC8
:1039180031E000BFAFF300802D431CEBE2360A3FD5
:10392800000000203804002068010020A6040020C0
:103938002E0400208004002064010020D803002009
:10394800C8040020D00300206F06002000080240B1
:10395800380100209A04002026040020864BB3F981
:10396800480007F1090307F10A01844A0092844AD2
:10397800FEF776FF00BF834BDB6A9AB27E4B1B6C67
:103988009BB2D31A9BB21AB27E4BA3F840207D4B50
:10399800B3F940309AB2784BA3F84A207B7A9AB2AE
:1039A800754BA3F84C20784BB3F8E420724BA3F87E
:1039B8004E20744BB3F940206F4BA3F84620714B4F
:1039C800DB6A6D4A1364704BD3E904236D49C1E97E
:1039D8000623694B042283F852206C4B1B6C184653
:1039E800FCF718FD62A3D3E90023FCF78DFD02461E
:1039F8000B466749C1E90023654B93ED007BB0EEA8
:103A0800470AF0EE670A0320FEF73CFA4FF480609D
:103A1800FEF7B4FB0346002B08D04FF48060FEF796
:103A2800C3FB0346002B01D0012300E00023002B39
:103A380000F00F814FF48060FEF7CCFB554B1B78EC
:103A4800DBB2012B40F005814B4B93F9513087F8DD
:103A58002330002387F84F3097F82330042B20D8E1
:103A680001A252F823F000BF853A00088D3A0008F9
:103A7800953A00089D3A0008A53A0008002387F8FF
:103A88004F300EE0032387F84F300AE0032387F80E
:103A98004F3006E0002387F84F3002E0002387F814
:103AA8004F3097F94F20344B83F85120324BDB6B62
:103AB800344A1363354B354A9B6A53643648FEF7DC
:103AC80052FCF8613448FEF74EFCB8613248FEF704
:103AD8004AFC7861FB6903F48063002B05D02A4B0C
:103AE80093F8F8305B09DAB200E00022BB6903F40E
:103AF8000063002B05D0244B93F8FC309B09DBB204
:103B080000E000231344DAB27B6903F48053002BEE
:103B180005D01D4B93F80031DB09DBB200E0002330
:103B28001344DAB2144B83F85420134B93F85430EF
:103B3800013B052B38D8104B93F8543098B20E4BF4
:103B480093F8543099B20C4BB3F948207C1D134BB1
:103B58000493134B0393134B0293BB1D0193084B20
:103B680000932346FEF7DCFD29E000BFAFF3008099
:103B78002D431CEBE2360A3F3804002034010020B4
:103B880080040020D803002000000020C804002082
:103B9800D00300206F060020000802400801002022
:103BA8008E0400201E040020354BB3F948007B1D0D
:103BB800B91D344A0092344AFEF752FE00BF334B17
:103BC8001B6B9AB22E4B1B6C9BB2D31A9BB21AB2C8
:103BD8002E4BDA872D4BB3F93E309AB2284BA3F817
:103BE8004A207B799AB2264BA3F84C20284BB3F88D
:103BF800E620234BA3F84E20244BB3F93E20204B5C
:103C0800A3F84620214B1B6B1D4A1364204BD3E9B4
:103C180006231E49C1E90423194B042283F85120C5
:103C28001C4B5B6C1846FCF7F5FB13A3D3E9002388
:103C3800FCF76AFC02460B461749C1E90023164BFC
:103C480093ED007BB0EE470AF0EE670A0420FEF71A
:103C580019F9BFF36F8F00BFBFF34F8F00BFBB6C65
:103C68003B613B6983F3108800BF00BF5C37BD46EA
:103C780090BD00BFAFF300802D431CEBE2360A3F36
:103C8800380400200401002080040020D80300200C
:103C980000000020C8040020D0030020000000001D
:103CA80080B586B000AFFEF7F0F938614E48FEF7F0
:103CB80051FA0346002B07D04C48FDF768F9034634
:103CC800002B01D0012300E00023002B75D04648CB
:103CD800FEF732FA464B1B78DBB2012B6DD1454B10
:103CE80093F95030FB730023FB75FB7B042B1BD827
:103CF80001A252F823F000BF153D00081B3D000843
:103D0800213D0008273D00082D3D00080023FB75D4
:103D18000AE00323FB7507E00323FB7504E0002397
:103D2800FB7501E00023FB7597F91720314B83F8E9
:103D38005020314B304A9B6A93642E4BB3F8442091
:103D48002E4B5A872D4B5A8F2D4BB3F8EC3013441A
:103D58009AB2284BA3F84420264BDB683A1D02216F
:103D68001846FDF7E0F9234BB3F84420244B1B8891
:103D78009A4205D9224BB3F8E8201E4BA3F84420F9
:103D88001C4B042283F850201B4B9B6C1846FCF7F5
:103D980041FB13A3D3E90023FCF7B6FB02460B460D
:103DA8001849C1E90023174B93ED007BB0EE470A91
:103DB800F0EE670A0520FEF765F8BFF36F8F00BFC6
:103DC800BFF34F8F00BF3B69BB60BB6883F31088AC
:103DD80000BF00BF1837BD4680BD00BFAFF30080ED
:103DE8002D431CEBE2360A3F0020014094020020DC
:103DF8006F06002038040020C8040020D8030020E3
:103E080000000020D003002080B500AF2820FEF776
:103E18006FF91220FEF76CF900BF80BD00000000AA
:103E280080B584B000AF4FF000024FF00003C7E93F
:103E38000223414B1B785A1CD1B23F4A1170002B08
:103E480009D03E4B01221A603B4B1B78013BDAB28A
:103E5800394B1A7066E03B1D1846FEF7E9FB62B65F
:103E680000BF374B1B68D3E90823C7E90223FEF7D5
:103E7800C9FD97ED020B0020FEF704F872B600BFEB
:103E88002D4B1B78013BDAB22B4B1A707B79002B38
:103E980011D02C4B5B785A1CD1B22A4A5170002B96
:103EA80009D0264B01221A60264B5B78013BDAB217
:103EB800244B5A7036E0234B5B78002B32D01E4BD4
:103EC8005B78002B2DD11C4B5B780133DAB21A4B8F
:103ED8005A7062B600BF1A4B1B689B6B1846FCF7FA
:103EE80099FA13A3D3E90023FCF70EFB02460B460D
:103EF800C7E90223FEF794FE97ED020B0120FDF7B8
:103F0800C1FF00BF72B600BF0E4B5B78013BDAB24F
:103F18000C4B5A70084B5B78013BDAB2064B5A706F
:103F280000E000BF1037BD4680BD00BFAFF3008082
:103F38009A9999999999B93F6806002064060020D2
:103F4800281C01086C06002080B586B000AF786098
:103F580039605C4B7B615C4B3B610023FB735B4BC3
:103F680000221A705A4B00221A7001DF09F022FE53
:103F780008F000FB06F07EF908F028FE08F0FAFDCC
:103F880008F076FD08F042FD08F044FB08F072FCEA
:103F9800504B1B6800221A6000210020FDF768FEC4
:103FA8000346FB7397F90F30002B02D097F90F30B7
:103FB80084E0FFF79BF9FEF7A3FE72B600BF62B676
:103FC80000BF444B1B685A68424B1B68583319465C
:103FD8001046FDF75DFE0346FB7397F90F30002B83
:103FE8000DD14FF0FF30FDF7E7FEFDF7F9FF03466F
:103FF800002B04D0374B1B68012283F8602072B66F
:1040080000BF97ED050A06F029FAFDF7F5FF03460C
:10401800002B0CD1FDF7E4FF0346002B07D12D4BF5
:104028001B6893F86030002B01D1012300E00023C6
:10403800DAB2274B1A7062B600BF62B600BF2FE033
:10404800FDF79EFF0346FB73FDF7D6FF0346002BE3
:104058000AD1FDF7C5FF0346002B05D11D4B1B6890
:1040680093F86030002B01D0012300E00023DAB27E
:10407800164B1A70154B1B78DBB2002B0CBF0123B3
:104088000023DBB21A46124B1A70104B1B78DBB2B6
:10409800002B05D0104B1B680F4A23F00103136057
:1040A8000B4B1B78DBB2002BCAD1FFF7B9F8FDF731
:1040B80077FFFFF7A9FE72B600BF0023184618372E
:1040C800BD4680BD17B751380000A8426E060020D3
:1040D8006F060020281C010810E000E00FB480B42F
:1040E80000AF00BFBD465DF8047B04B0704780B4E4
:1040F80085B000AFF860B9607A60FB68BA681A608A
:10410800FB6804337A681A6000BF1437BD465DF84F
:10411800047B704700000000F0B58BB000AF87ED5E
:10412800020B0346FB80FB88002B77D14FF000027F
:10413800414BD7E90201FCF7E7F902460B46C7E90C
:1041480006239FED391B97ED060B0AF0FFFD53EC94
:10415800102B10461946FCF7AFFC03467B61002381
:104168007B6233A3D3E90023D7E90601FCF75CFCA3
:104178000346002B0ED02EA3D3E90023D7E906016E
:10418800FCF7ECFA02460B4610461946FCF794FC7D
:1041980003467B627A6A79692848FFF7A8FF284BAB
:1041A800D3E900014FF00002264BFCF715FC03464B
:1041B800002B2ED1224BD3E900014FF000024FF023
:1041C8004043FCF709FC0346002B22D11C4BD3E9E2
:1041D8000001D7E90223FBF7DFFF02460B4614462E
:1041E8001D464FF00002184BD7E90201FCF78CF985
:1041F80002460B4601210E4620462946FCF7F6FBEF
:104208000346002B01D100231E46F3B21A460F4B7A
:104218001A700F49D7E90223C1E9002300BF2C37E0
:10422800BD46F0BDAFF30080000000000000F04183
:104238000000E0FFFFFFEF4100408F40980600209C
:10424800980100200000F0BF0000B03C8806002064
:10425800A006002080B584B000AF0023BB60002317
:104268007B600023FB731F494FF000024FF00003EF
:10427800C1E900233A1D07F108031146184605F065
:10428800B3FFBB687A681146184604F0D3F80346B2
:10429800FB7397F90F30002B05D01348FFF71EFF6B
:1042A80097F90F301AE03A1D07F10803114618462E
:1042B80005F0B1FFBB687A681146184600F054FF54
:1042C8000346FB7397F90F30002B05D097F90F3091
:1042D80019460648FFF702FF97F90F3018461037BE
:1042E800BD4680BD900600205CF6000884F60008F4
:1042F80080B584B000AF0346FB710023FB73002335
:10430800BB73002005F09EFF00237B7304F060FA66
:104318000346FB7397F90F30002B0DD097F90F3038
:1043280013F1020F08D097F90F3019463C48FFF7F0
:10433800D5FE0123BB730BE07B7B002B04D197F9DF
:104348000F3013F1020F01D0012300E000237B732B
:10435800BB7B002B21D100F039FF0346FB7397F993
:104368000F30002B0DD097F90F3013F1020F08D042
:1043780097F90F3019462B48FFF7B0FE0123BB739E
:104388000BE07B7B002B04D197F90F3013F1020F60
:1043980001D0012300E000237B73BB7B002B21D1DC
:1043A80004F0A0F90346FB7397F90F30002B0DD0EA
:1043B80097F90F3013F1020F08D097F90F3019460B
:1043C8001948FFF78BFE0123BB730BE07B7B002BA7
:1043D80004D197F90F3013F1020F01D0012300E047
:1043E80000237B73FB79002B0DD0002005F02AFFFA
:1043F800BB7B002B02D17B7B002B01D1012300E08A
:104408000023BB7301E00123BB73BB7B002B3FF48C
:104418007BAF97F90F3018461037BD4680BD00BFF7
:10442800ACF60008E4F6000814F7000880B582B07E
:1044380000AF0023BB70394B1B78DBB2002B02D0D6
:10444800002000F0E1FF00F0B3FF0346FB700023FB
:104458007B600EE00A2005F0F5FE7B6803F51C532F
:1044680010337B600120FFF743FF00F0A1FF0346F4
:10447800FB707B682A4A934202D8FB78002BE9D16B
:1044880000F0A2FF0346BB7097F90230002B05D05D
:1044980097F9023019462348FFF720FE04F012FB73
:1044A8000346BB7097F90230002B05D097F902300C
:1044B80019461D48FFF712FE1C4B00221A701C4BB0
:1044C80000221A701B4B00221A601B4B00221A6034
:1044D8001A4B00221A601A4B00221A60194B00224C
:1044E8001A6019494FF000024FF04043C1E9002318
:1044F8000A4B00221A700822002114480AF0FEFE16
:1045080013494FF000024FF00003C1E9002397F967
:10451800023018460837BD4680BD00BF8806002017
:10452800FF2C31014CF7000868F7000870060020DE
:104538007106002074060020780600207C06002002
:10454800800600208406002098010020980600209C
:10455800A006002080B586B000AF614B1B687B6168
:104568007B69002B00F0B8805E4B1B78DBB2002B18
:1045780004D15B4B1B68002B00F0AE805A4B1B78B4
:10458800DBB2022B40F0A880584B1B78002B40F080
:10459800A3807B69D3E90023C7E90223544B1B7826
:1045A800002B00F08A80534B1B78DBB2002B04D021
:1045B800504B1B78DBB2022B01D1012300E0002312
:1045C800FB714C4B1B78DBB2012B04D0494B1B7899
:1045D800DBB2022B01D1012300E00023BB71FB7980
:1045E800002B33D0444BD3E90023D7E90201FCF771
:1045F80011FA0346002B0AD0404BD3E900013E4B89
:10460800D3E90023FCF7F2F90346002B14D13A4B07
:10461800D3E90023D7E90201FCF706FA0346002B89
:1046280014D0364BD3E90001334BD3E90023FCF710
:10463800D3F90346002B09D0314B1B68002B02D15C
:10464800304B01221A70294B01221A70BB79002BBA
:1046580033D0294BD3E90023D7E90201FCF7C6F987
:104668000346002B0AD0254BD3E90001224BD3E99E
:104678000023FCF7CFF90346002B14D11E4BD3E9D6
:104688000023D7E90201FCF7A7F90346002B14D051
:104698001A4BD3E90001184BD3E90023FCF7C4F9FE
:1046A8000346002B09D0164B1B68002B02D1154B73
:1046B80001221A700D4B01221A700C4B1B78002B2B
:1046C8000CBF01230023DBB21A46094B1A700B49B1
:1046D800D7E90223C1E9002300BF1837BD4680BDD2
:1046E800AC060020B0060020CC060020DB06002027
:1046F800D8060020C8060020B8060020D0060020F2
:10470800C4060020DA06002080B582B000AF00237E
:10471800FB719E4B1B78DBB2002B18D19C4B0022FF
:104728001A709C4B00221A709B4B1B78DBB2002B33
:104738002DD0964B02221A70974B00221A70974B75
:104748001B78DBB2002B22D10123FB711FE0924BB7
:1047580000221A708E4B1B78DBB2002B09D0904BCD
:1047680000221A70894B00221A70894B00221A7095
:104778000DE08A4B1B78DBB2002B02D10123FB71C1
:1047880005E0844B1B78FB71824B00221A707F4B2B
:104798001B78DBB2042B00F2D78001A252F823F079
:1047A800BD470008F7480008D7470008AB4800088D
:1047B80035480008784B1B78DBB2002B00F0D88016
:1047C800724B02221A70744B00221A70D0E0FB79E7
:1047D800002B00F0CF80734B1B68002B0DDD6F4B57
:1047E8001B78DBB2012B08D16E4B1B681A466E4B47
:1047F8001A60664B03221A70BCE06C4B1B68002BD6
:104808000AD0674B01221A70684B1B68664A13600E
:104818005E4B04221A70ADE06548FFF75FFC604B01
:1048280000221A70594B00221A70A3E05E4B1B68D5
:10483800002B04D05C4B1B68013B5B4A13605A4B4E
:104848001B68002B40F098805A4B1B78DBB2012B79
:1048580006D1534B00221A704C4B00221A708BE081
:10486800554B1B68002B0AD04D4B00221A70524B37
:104878001B684D4A1360454B01221A707CE0FB7996
:10488800002B07D0494B1B68474A13603F4B042253
:104898001A7071E0424B00221A703C4B02221A70C7
:1048A8006AE0414B1B68002B04D03F4B1B68013B5F
:1048B8003D4A13603C4B1B68002B5FD13B4B1B6888
:1048C800002B0AD0364B01221A70384B1B68364A27
:1048D80013602E4B04221A7050E03548FFF7FEFB98
:1048E8002F4B00221A70294B00221A7046E02E4BDB
:1048F8001B68002B04D02C4B1B68013B2A4A136011
:10490800294B1B68002B3BD1FB79002B18D0274B78
:104918001B68002B0AD0224B01221A70234B1B68FC
:10492800214A1360194B04221A7029E02048FFF726
:10493800D5FB1B4B00221A70144B00221A701FE083
:10494800124B02221A701BE0104B1B78DBB219467F
:104958001A48FFF7C3FB124B00221A700D4B0022B6
:104968001A700B4B00221A70084B00221A7008E0CC
:1049780000BF06E000BF04E000BF02E000BF00E0A7
:1049880000BF00BF0837BD4680BD00BFCC06002071
:10499800C9060020DB060020A4010020CA0600206A
:1049A800DA060020C4060020DC060020A001002052
:1049B8008CF70008CB060020C0060020B4F70008DA
:1049C80080B400AF10494FF000024FF00003C1E976
:1049D80000230E4B00221A700D4B1B78DAB20D4BD8
:1049E8001A700D4B00221A700C4B00221A700C4BD7
:1049F80000221A600B4B00221A7000231846BD468D
:104A08005DF8047B704700BFD0060020D806002060
:104A1800CA060020D9060020DA060020DB0600209E
:104A2800DC060020CC06002080B584B000AF034629
:104A3800FB80FB88002B3FD1314B1B78DAB2314B1E
:104A48001B789A4214BF01230023DBB2FB732C4B63
:104A58001B78DAB22B4B1A70FB7B002B0BD02A4B3E
:104A680000221A70294B00221A70294B00221A6062
:104A7800284B00221A70224B1B78DBB2012B1BD16A
:104A8800244B1B78DBB2002B04D1234B1B78DBB201
:104A9800002B08D11F4B1B78DBB2012B0CD11C4B10
:104AA8001B68012B08D11A4B00221A601A4B0022EE
:104AB8001A70184B02221A70114B1B78DBB2012BAB
:104AC80007D1164B1B889BB2FA889A4201D1FFF78F
:104AD80041FDFB88002B05D1FFF716FE104B002285
:104AE8001A7006E00E4B1B78002B02D00D4B1B787A
:104AF80001E0054B1B7818461037BD4680BD00BF46
:104B0800CA060020D9060020DA060020DB060020AD
:104B1800DC060020CC060020A4010020A806002006
:104B2800E1060020E006002080B400AF26494FF0DF
:104B380000024FF00003C1E90023244B00221A7041
:104B4800234B00221A70234B00221A70224B00229A
:104B58001A80224B00221A70214B00221A70214B16
:104B680000221A60204B00221A70204B00221A7073
:104B78001F4B00221A601F4B00221A701E494FF06B
:104B880000024FF00003C1E900231C4B4FF47A7276
:104B98001A601B4B00221A601A4B00221A601A4B2B
:104BA80000221A70194B01221A70194B00221A7030
:104BB800184B00221A70184B00221A70002318464E
:104BC800BD465DF8047B7047D0060020D80600205B
:104BD800CC060020D9060020A8060020DA0600200E
:104BE800DB060020DC060020E0060020E1060020AD
:104BF800AC060020B0060020B8060020A001002066
:104C0800C0060020C4060020C8060020A401002019
:104C1800C9060020CA060020CB06002080B400AFD9
:104C2800194B1B78DBB2002B29D1184B1B78DBB250
:104C3800002B0BD0164B1B78DBB2002B06D1154B83
:104C480001221A70144B01221A7018E0104B1B78BD
:104C5800DBB21A460D4B1B78DBB2002B0CBF0123CD
:104C68000023DBB21340002B06D00A4B00221A7037
:104C7800094B01221A7002E0074B00221A7000BF8C
:104C8800BD465DF8047B7047CA060020A4010020D9
:104C9800C9060020E0060020E106002080B586B0A5
:104CA80000AFF860B9607A603B600023FB7503F0E1
:104CB800FDFE3861FB681B68184604F00DF90021F9
:104CC800386803F06BFE0246BB681A6003F056FEB4
:104CD80002467B681A60BB681B68002B0FD0BB6854
:104CE8001B681946386904F0FDFB0246FB681A6028
:104CF800FB681B68002B04D1F623FB7501E0F82341
:104D0800FB7597F9173018461837BD4680BD000067
:104D180080B584B000AFF860B9607A60FA68BB68A3
:104D280013441B7819460848FFF7D8F9FB68002B8D
:104D380002D0F86804F0D0F87B6800221A600023DB
:104D480018461037BD4680BDD8F7000880B584B036
:104D580000AFF860B9607A60FA68BB6813441B78E2
:104D680019460648FFF7BAF97B6802221A604FF025
:104D7800FF3318461037BD4680BD00BF34F8000821
:104D880080B485B000AF03460A46FB711346BB7179
:104D98000523FB73FB79F02B02D90023FB7322E078
:104DA800FB79E32B05D9FB79F02B02D80123FB73A0
:104DB80019E0FB79D22B02D9FB79E22B08D9FB79D0
:104DC800C02B08D1BB79002B05D0BB79022B02D8A8
:104DD8000223FB7307E0FB79C72B04D9FB79D22B9D
:104DE80001D80323FB73FB7B18461437BD465DF8D7
:104DF800047B704780B58CB000AFF860B9607A600A
:104E08003B60FB68BB62BB6A1B7887F827300023CE
:104E180087F82F3097F82730C02B06D1BB68012BB5
:104E280003D9BB6A5B7887F82F30364B1B78002B89
:104E38003ED097F82F2097F8273011461846FFF7ED
:104E48009FFF0346FB76002387F82E30FB7E052B59
:104E580023D0FB7E2C4A52F823307B6100233B6130
:104E68007B69002B19D097F827207B691046984753
:104E780038613B69002B14BF01230023DBB287F89C
:104E88002E3097F82E30002B07D03B695A687B6884
:104E98001A603B699A683B681A6097F82E30002BB5
:104EA8002CD17B68194A1A603B68194A1A6025E0B8
:104EB80097F82730FF2B1BD1134B1B683B627B688D
:104EC80000221A603B6800221A603B6A002B15D04A
:104ED8003B6AFF209847F861FB69002B0ED0FB69FD
:104EE8005A687B681A60FB699A683B681A6005E033
:104EF8007B68084A1A603B6800221A6000BF303796
:104F0800BD4680BDE3060020E8060020554D000898
:104F1800E54F0008194D000880B483B000AF034680
:104F2800FB71044AFB79137000BF0C37BD465DF86E
:104F3800047B7047E306002080B400AF034B1B7866
:104F48001846BD465DF8047B704700BFE4060020A4
:104F580080B483B000AF0346FB71064B1A78FB7927
:104F68001343DAB2034B1A7000BF0C37BD465DF825
:104F7800047B7047E406002080B483B000AF03468A
:104F8800FB7197F90730DB435AB2074B1B785BB2CA
:104F980013405BB2DAB2044B1A7000BF0C37BD463F
:104FA8005DF8047B704700BFE406002080B400AFC2
:104FB800034B1B781846BD465DF8047B704700BF5D
:104FC800E506002080B400AF034B1B881846BD4699
:104FD8005DF8047B704700BFE606002080B586B008
:104FE80000AF0346B9607A60FB7397F90F30002B66
:104FF80005D1BB683B613B69FF221A7076E0BB684C
:105008007B617B69FE221A7097F90F3010330F2BE2
:1050180062D801A252F823F0D9500008D1500008F4
:10502800C9500008C1500008B9500008B150000824
:10503800A1500008A9500008995000089150000894
:105048008950000881500008695000086150000824
:1050580071500008795000087B6930225A7045E089
:105068007B6929225A7041E07B6922225A703DE00F
:105078007B6920225A7039E07B6900225A7035E03A
:105088007B6923225A7031E07B6921225A702DE016
:105098007B6911225A7029E07B6927225A7025E022
:1050A8007B692A225A7021E07B6910225A701DE020
:1050B8007B6924225A7019E07B6928225A7015E00E
:1050C8007B6926225A7011E07B6931225A700DE003
:1050D8007B6933225A7009E097F90F301946054861
:1050E800FEF7FCFF7B6920225A70FFE700BF1837E4
:1050F800BD4680BD64F8000880B487B000AF0346A1
:10510800B9607A60FB7300237B61BB68002B23D0F6
:1051180000233B6100233B6117E03A6913465B00BB
:1051280013449B001A46BB6813441B78FA7B9A42C7
:1051380008D13A6913465B0013449B001A46BB68C2
:1051480013447B613B6901333B613A697B689A424E
:1051580002D27B69002BE0D07B6918461C37BD461C
:105168005DF8047B7047000080B582B000AF7860BE
:105178003960134B1B78002B05D01248FEF7AEFFA1
:105188006FF00B0318E000F07BFC00F085FC034691
:105198000D4A136002F052FA02F06CFA03460A4A0A
:1051A800936003F045F803F04DF80346064A536050
:1051B800034B01221A70002318460837BD4680BDEC
:1051C800E2060020A8F80008E806002080B58CB0A8
:1051D80002AF002387F82730002387F82630002302
:1051E800FB610023BB6100237B6100233B6100233B
:1051F800FB6000233B620023BB6000237B60554BB0
:105208001B78002B05D15448FEF768FF6FF00803A0
:105218009BE007F1140007F1180207F11C0107F1E0
:10522800100300930346002003F012FB034687F89F
:10523800273097F92730002B09D097F9273013F139
:10524800040F04D097F9273013F1050F71D1FB69CA
:10525800002B05D07A693B691A44BB699A4203D985
:10526800F82387F8273067E0FA697B6913443B62C3
:1052780039693B1D07F10802386AFFF7BBFDBB68B7
:10528800002B09D13B6A1B7819463448FEF726FFE4
:10529800F42387F827304FE0BB68F869796907F18C
:1052A8000C029847034687F826307B68002B3DD0D0
:1052B800FB68002B3AD0002387F827303A69FB684F
:1052C8009A420BD2FB6807F1140207F1180107F1A3
:1052D8001C00FFF7E3FC034687F827303B691A46B2
:1052E8000021386A0AF00AF897F92730002B1DD1F7
:1052F800FA697B6913443B627B68FA6897F9260070
:10530800396A9847F969B8697B69FA680192009324
:1053180003460A464FF6FF71012003F041F90346A0
:1053280087F8273097F92730002B04D197F92730D1
:105338000BE000BF00E000BFFB69002B03D0FB6956
:10534800184603F0C9FD97F9273018462837BD4697
:1053580080BD00BFE2060020D8F8000800F9000868
:1053680080B584B000AF0346FB800023FB730023A5
:10537800BB600D4B1B78002B05D10C48FEF7AEFE29
:105388006FF008030CE004F0C7FFB860FB88002248
:10539800B968184602F06CFB0346FB7397F90F30A7
:1053A80018461037BD4680BDE206002030F90008D7
:1053B80080B400AF034B1B781846BD465DF8047BEC
:1053C800704700BFE306002080B500AF0B4B1B7889
:1053D800002B02D10A48FEF781FE02F04FFF02F0CF
:1053E800F1FD00F075FB10220021064809F086FF48
:1053F800024B00221A700023184680BDE2060020E6
:1054080028FA0008E806002080B584B000AF78606C
:10541800786802F0B1FB0346FB7397F90F30184622
:105428001037BD4680BD80B584B000AF0346FB8011
:105438000123FB73FA7BFB880021184602F018FB56
:105448000346BB7397F90E3018461037BD4680BD2A
:1054580080B584B000AF0346FB710123FB6003F005
:10546800DCFAB860FA79B968FB68B1FBF3F39A42E1
:1054780034BF01230023DBB218461037BD4680BD78
:1054880080B584B000AF78600B46FB7000F02AFB53
:10549800F860F9680648FEF721FE064B1B781A46A5
:1054A800F968786809F05CFF00BF1037BD4680BD19
:1054B80050FA00080007002080B588B000AFF860F7
:1054C800B9607A600023FB77FA68BB681344BB6154
:1054D800BB697B610023FB7402F0A6FC0346FB74E6
:1054E800FB7C002B08D11A48FEF7F8FD7B680222E6
:1054F8001A606FF00A0327E07B695B78002B03D002
:105508007B695B78012B01D1012300E00023FB7448
:10551800FB7C002B0BD17B695B7819460D48FEF7A5
:10552800DDFD7B6802221A606FF001030CE00A4877
:10553800FEF7D4FD0120FFF7EFFC0023FB777B6823
:1055480008221A6097F91F3018462037BD4680BDDB
:1055580068FA0008B4FA0008D8FA000880B586B0DE
:1055680000AF0346B9607A60FB7397F90F30002BE0
:1055780047D1BB687B6108220021786909F0BEFE2B
:105588007B69FF221A7005227B695A7000227B69A9
:105598009A7003F042FA0346DAB27B69DA7003F0D4
:1055A80035FA03469AB27B699A807B6901229A711F
:1055B8007B690122DA717B695B7819461648FEF728
:1055C8008DFD7B699B7819461448FEF787FD7B693A
:1055D800DB7819461248FEF781FD7B699B889BB2F0
:1055E80019461048FEF77AFD7B699B7919460E48E3
:1055F800FEF774FD7B69DB7919460C48FEF76EFDF2
:1056080006E097F90F307A68B9681846FFF7E6FCA4
:1056180000BF1837BD4680BD00FB00081CFB000812
:1056280038FB000854FB000870FB00088CFB0008DE
:1056380080B586B000AFF860B9607A600123FB7569
:1056480002F0F2FB0346FB75FB7D002B08D10B48EB
:10565800FEF744FD7B6802221A606FF00A0309E036
:105668000748FEF73BFD0020FFF756FC7B68012248
:105678001A60002318461837BD4680BDA8FB0008ED
:10568800F8FB000880B584B000AFF860B9607A60B4
:105698000548FEF723FD7B6806221A60002318469A
:1056A8001037BD4680BD00BF28FC000880B586B015
:1056B80000AF0346B9607A60FB73BB687B61062262
:1056C8000021786909F01AFE7B69FF221A70FFF73A
:1056D80033FC03461A467B695A70FFF767FC03469A
:1056E8001A467B699A70FFF76DFC03461A467B6978
:1056F8009A807B695B7819460948FEF7EFFC7B695D
:105708009B7819460748FEF7E9FC7B699B889BB2A2
:1057180019460548FEF7E2FC00BF1837BD4680BDB4
:1057280034FC000858FC00087CFC000880B586B0F2
:1057380000AFF860B9607A600023FB750B48FEF78C
:10574800CDFC02F05BFB0346FB75FB7D002B03D011
:1057580003F08CF902F061FB7B6802221A606FF09B
:10576800040318461837BD4680BD00BFA0FC0008DA
:1057780080B588B000AFF860B9607A600023FB7725
:10578800FA68BB681344BB61BB697B610023FB7487
:105798007B695A687B69DB781946104600F0AEF9D8
:1057A8000346FB74FB7C002B08D10D48FEF796FCE2
:1057B8007B6802221A606FF00B030CE07B69596862
:1057C8007B69DB781A460748FEF788FC7B6801226C
:1057D8001A6097F91F3018462037BD4680BD00BFB4
:1057E800A8FC0008C4FC000880B58AB000AFF860C7
:1057F800B9607A60002387F82730FA68BB681344D9
:105808003B623B6AFB610023FB7600F06BF9786131
:10581800FB695B781846FFF71BFE0346FB76FB7EA9
:10582800002B0BD1FB695B7819461248FEF756FC32
:105838007B6802221A606FF0010316E07B69002B77
:1058480008D10D48FEF74AFC7B6802221A606FF007
:105858000B030AE0FB695A78084B1A70074B1B7850
:105868005A1C7B681A6097F9273018462837BD46B6
:1058780080BD00BFF8FC000828FD000800070020D4
:1058880080B588B000AF0346B9607A60FB7397F9BA
:105898000F30002B30D100F025F9F861BB68BB61EF
:1058A80001220021B86909F029FDBB69FF221A709D
:1058B800FB69002B1CD0164B1B7801337A689A427F
:1058C80016D1BB6801337B610023FB741148FEF7D6
:1058D80005FCFB7C19467869FFF7D2FD0C4B1B7859
:1058E800184600F029F90A4B00221A7000BF0AE096
:1058F8000948FEF7F3FB06E097F90F307A68B968B4
:105908001846FFF76BFB00BF2037BD4680BD00BFC0
:105918000007002044FD000850FD000880B588B04D
:1059280000AFF860B9607A600023FB77FA68BB685B
:105938001344BB61BB697B610023FB747B695B78A3
:105948001846FFF785FD0346FB74FB7C002B0BD143
:105958007B695B7819461748FEF7C0FB7B68022213
:105968001A606FF0010320E07B695A687B69DB7875
:105978001946104600F0C2F80346FB74FB7C002B66
:1059880008D10D48FEF7AAFB7B6802221A606FF067
:105998000B030AE07B695A78084B1A70074B1B788F
:1059A8005A1C7B681A6097F91F3018462037BD4685
:1059B80080BD00BF70FD0008A4FD0008000700209E
:1059C80080B588B000AF0346B9607A60FB7397F979
:1059D8000F30002B30D100F085F8F861BB68BB614F
:1059E80001220021B86909F089FCBB69FF221A70FD
:1059F800FB69002B1CD0164B1B7801337A689A423E
:105A080016D1BB6801337B610023FB741148FEF794
:105A180065FBFB7C19467869FFF732FD0C4B1B7858
:105A2800184600F089F80A4B00221A7000BF0AE0F5
:105A38000948FEF753FB06E097F90F307A68B96812
:105A48001846FFF7CBFA00BF2037BD4680BD00BF20
:105A580000070020C4FD0008D4FD000880B582B00E
:105A680000AF0346FB71FB79072204491846FFF78C
:105A780043FB034618460837BD4680BD301C010865
:105A880080B500AF034800F013F800F069F800BFD4
:105A980080BD00BF655A000880B400AF034B1B6887
:105AA8001846BD465DF8047B704700BF0407002018
:105AB80080B483B000AF7860044A7B68136000BF8D
:105AC8000C37BD465DF8047B704700BF0407002013
