:020000040800F2
:1000000000800020F11401085DF1000863F1000890
:1000100069F100086FF1000875F1000800000000A8
:100020000000000000000000000000009DBF00086C
:100030007BF100080000000059BF000881BE0008E5
:100040004115010841150108411501084115010834
:100050004115010841150108411501084115010824
:1000600041150108411501084115010889F10008F1
:1000700097F10008A1CD0008A5F10008B3F1000830
:100080004115010800000000A93E000841150108C3
:1000900041150108411501084115010841150108E4
:1000A00041150108411501084115010841150108D4
:1000B000C1F10008694E0008411501084115010809
:1000C00041150108411501084115010841150108B4
:1000D00041150108411501084115010841150108A4
:1000E0004115010841150108411501084115010894
:1000F00041150108411501084115010800000000E3
:100100000000000041150108000000004115010831
:1001100041150108000000004115010841150108C2
:100120004115010841150108411501084115010853
:100130004115010800000000000000004115010801
:1001400041150108411501080000000000000000F1
:10015000000000000000000000000000000000009F
:100160000000000000000000000000004115010830
:100170004115010800000000000000000000000020
:100180000000000041150108000000000000000010
:10019000000000000000000000000000000000005F
:1001A0000000000000000000411501088DCD00088E
:1001B0004115010841150108411501080000000022
:1001C00000000000411501080000000000000000D0
:0801D000411501084115010869
:1001D80081F0004102E000BF83F0004330B54FEAF0
:1001E80041044FEA430594EA050F08BF90EA020F5D
:1001F8001FBF54EA000C55EA020C7FEA645C7FEAF0
:10020800655C00F0E2804FEA5454D4EB5555B8BF12
:100218006D420CDD2C4480EA020281EA030382EA83
:10022800000083EA010180EA020281EA0303362D15
:1002380088BF30BD11F0004F4FEA01314FF4801CE8
:100248004CEA113102D0404261EB410113F0004FFA
:100258004FEA03334CEA133302D0524263EB4303B1
:1002680094EA050F00F0A780A4F10104D5F1200E4F
:100278000DDB02FA0EFC22FA05F2801841F10001AA
:1002880003FA0EF2801843FA05F359410EE0A5F17E
:1002980020050EF1200E012A03FA0EFC28BF4CF0AF
:1002A800020C43FA05F3C01851EBE37101F0004565
:1002B80007D54FF0000EDCF1000C7EEB00006EEB72
:1002C8000101B1F5801F1BD3B1F5001F0CD34908FC
:1002D8005FEA30004FEA3C0C04F101044FEA445253
:1002E80012F5800F80F09A80BCF1004F08BF5FEADA
:1002F800500C50F1000041EB045141EA050130BDBA
:100308005FEA4C0C404141EB0101013C28BFB1F5CB
:10031800801FE9D291F0000F04BF01460020B1FA16
:1003280081F308BF2033A3F10B03B3F120020CDAE9
:100338000C3208DD02F1140CC2F10C0201FA0CF0C7
:1003480021FA02F10CE002F11402D8BFC2F1200C2C
:1003580001FA02F120FA0CFCDCBF41EA0C019040E2
:10036800E41AA2BF01EB0451294330BD6FEA04042B
:100378001F3C1CDA0C340EDC04F11404C4F1200216
:1003880020FA04F001FA02F340EA030021FA04F328
:1003980045EA030130BDC4F10C04C4F1200220FA7F
:1003A80002F001FA04F340EA0300294630BD21FABD
:1003B80004F0294630BD94F0000F83F4801306BF83
:1003C80081F480110134013D4EE77FEA645C18BF77
:1003D8007FEA655C29D094EA050F08BF90EA020F0E
:1003E80005D054EA000C04BF1946104630BD91EA06
:1003F800030F1EBF0021002030BD5FEA545C05D109
:100408004000494128BF41F0004130BD14F5800447
:100418003CBF01F5801130BD01F0004545F0FE41BB
:1004280041F470014FF0000030BD7FEA645C1ABFF0
:10043800194610467FEA655C1CBF0B46024650EA27
:10044800013406BF52EA033591EA030F41F4002153
:1004580030BD00BF90F0000F04BF0021704730B5D9
:100468004FF4806404F132044FF000054FF00001AE
:1004780050E700BF90F0000F04BF0021704730B56F
:100488004FF4806404F1320410F0004548BF404244
:100498004FF000013EE700BF42004FEAE2014FEA99
:1004A80031014FEA02701FBF12F07F4393F07F4F74
:1004B80081F06051704732F07F4208BF704793F077
:1004C8007F4F04BF41F40021704730B54FF460748A
:1004D80001F0004521F000411CE700BF50EA01028D
:1004E80008BF704730B54FF000050AE050EA010236
:1004F80008BF704730B511F0004502D5404261EBA6
:1005080041014FF4806404F132045FEA915C3FF4E6
:10051800D8AE4FF003025FEADC0C18BF03325FEA83
:10052800DC0C18BF033202EBDC02C2F1200300FA34
:1005380003FC20FA02F001FA03FE40EA0E0021FA59
:1005480002F11444BDE600BF70B54FF0FF0C4CF447
:10055800E06C1CEA11541DBF1CEA135594EA0C0FF9
:1005680095EA0C0F00F0DEF82C4481EA030621EA34
:100578004C5123EA4C5350EA013518BF52EA03356F
:1005880041F4801143F4801338D0A0FB02CE4FF021
:100598000005E1FB02E506F00042E0FB03E54FF051
:1005A8000006E1FB03569CF0000F18BF4EF0010E49
:1005B800A4F1FF04B6F5007F64F5407404D25FEA45
:1005C8004E0E6D4146EB060642EAC62141EA5551F8
:1005D8004FEAC52040EA5E504FEACE2EB4F1FD0C3A
:1005E80088BFBCF5E06F1ED8BEF1004F08BF5FEAB8
:1005F800500E50F1000041EB045170BD06F000466A
:1006080046EA010140EA020081EA0301B4EB5C0416
:10061800C2BFD4EB0C0541EA045170BD41F480110E
:100628004FF0000E013C00F3AB8014F1360FDEBF33
:10063800002001F0004170BDC4F10004203C35DA0F
:100648000C341BDC04F11404C4F1200500FA05F392
:1006580020FA04F001FA05F240EA020001F0004233
:1006680021F0004110EBD37021FA04F642EB0601A9
:100678005EEA430E08BF20EAD37070BDC4F10C04D3
:10068800C4F1200500FA04F320FA05F001FA04F297
:1006980040EA020001F0004110EBD37041F1000183
:1006A8005EEA430E08BF20EAD37070BDC4F120058E
:1006B80000FA05F24EEA020E20FA04F301FA05F2F6
:1006C80043EA020321FA04F001F0004121FA04F29E
:1006D80020EA020000EBD3705EEA430E08BF20EA6E
:1006E800D37070BD94F0000F0FD101F000464000A8
:1006F80041EB010111F4801F08BF013CF7D041EA2A
:10070800060195F0000F18BF704703F0004652002D
:1007180043EB030313F4801F08BF013DF7D043EAFE
:100728000603704794EA0C0F0CEA135518BF95EAB4
:100738000C0F0CD050EA410618BF52EA4306D1D13B
:1007480081EA030101F000414FF0000070BD50EA5A
:10075800410606BF1046194652EA430619D094EAE4
:100768000C0F02D150EA013613D195EA0C0F05D1CE
:1007780052EA03361CBF104619460AD181EA030122
:1007880001F0004141F0FE4141F470014FF00000DA
:1007980070BD41F0FE4141F4780170BD70B54FF075
:1007A800FF0C4CF4E06C1CEA11541DBF1CEA1355F5
:1007B80094EA0C0F95EA0C0F00F0A7F8A4EB0504D7
:1007C80081EA030E52EA03354FEA013100F08880CE
:1007D8004FEA03334FF0805545EA131343EA126397
:1007E8004FEA022245EA111545EA10654FEA00264C
:1007F8000EF000419D4208BF964244F1FD0404F505
:10080800407402D25B084FEA3202B61A65EB030560
:100818005B084FEA32024FF480104FF4002CB6EB1D
:10082800020E75EB030E22BFB61A754640EA0C009D
:100838005B084FEA3202B6EB020E75EB030E22BFDD
:10084800B61A754640EA5C005B084FEA3202B6EB1E
:10085800020E75EB030E22BFB61A754640EA9C00DD
:100868005B084FEA3202B6EB020E75EB030E22BFAD
:10087800B61A754640EADC0055EA060E18D04FEA6B
:10088800051545EA16754FEA06164FEAC30343EA0B
:1008980052734FEAC2025FEA1C1CC0D111F4801FD8
:1008A8000BD141EA00014FF000004FF0004CB6E7D1
:1008B80011F4801F04BF01430020B4F1FD0C88BF70
:1008C800BCF5E06F3FF6AFAEB5EB030C04BFB6EB7B
:1008D800020C5FEA500C50F1000041EB045170BD6E
:1008E8000EF0004E4EEA113114EB5C04C2BFD4EB9B
:1008F8000C0541EA045170BD41F480114FF0000E1F
:10090800013C90E645EA060E8DE60CEA135594EA9A
:100918000C0F08BF95EA0C0F3FF43BAF94EA0C0F9D
:100928000AD150EA01347FF434AF95EA0C0F7FF412
:1009380025AF104619462CE795EA0C0F06D152EA66
:1009480003353FF4FDAE1046194622E750EA41064A
:1009580018BF52EA43067FF4C5AE50EA41047FF45B
:100968000DAF52EA43057FF4EBAE12E74FF0FF3CC0
:1009780006E000BF4FF0010C02E000BF4FF0010C91
:100988004DF804CD4FEA410C7FEA6C5C4FEA430C0A
:1009980018BF7FEA6C5C1BD001B050EA410C0CBF59
:1009A80052EA430C91EA030F02BF90EA020F0020BB
:1009B800704710F1000F91EA030F58BF994208BF22
:1009C80090422CBFD8176FEAE37040F001007047DF
:1009D8004FEA410C7FEA6C5C02D150EA013C07D136
:1009E8004FEA430C7FEA6C5CD6D152EA033CD3D081
:1009F8005DF8040B704700BF8446104662468C467B
:100A08001946634600E000BF01B5FFF7B7FF0028AD
:100A180048BF10F1000F01BD4DF808EDFFF7F4FFD6
:100A28000CBF012000205DF808FB00BF4DF808ED61
:100A3800FFF7EAFF34BF012000205DF808FB00BF84
:100A48004DF808EDFFF7E0FF94BF012000205DF8A6
:100A580008FB00BF4DF808EDFFF7CEFF94BF01205B
:100A680000205DF808FB00BF4DF808EDFFF7C4FF54
:100A780034BF012000205DF808FB00BF4FEA410C9D
:100A88007FEA6C5C02D150EA013C0AD14FEA430C80
:100A98007FEA6C5C02D152EA033C02D14FF00000BD
:100AA80070474FF0010070474A0011D212F500124A
:100AB80011D20DD56FF47873B3EB62520ED44FEAAE
:100AC800C12343F0004343EA505323FA02F070472E
:100AD8004FF00000704750EA013002D14FF0FF306C
:100AE80070474FF0000070474FEA4102B2F1E0430F
:100AF80024BFB3F5001CDCF1FE5C0DD901F0004CFD
:100B08004FEAC0024CEA5070B2F1004F40EB83004C
:100B180008BF20F00100704711F0804F21D113F178
:100B28003872BCBF01F00040704741F480114FEAB1
:100B38005252C2F11802C2F1200C10FA0CF320FA3A
:100B480002F018BF40F001004FEAC1234FEAD32357
:100B580003FA0CFC40EA0C0023FA02F34FEA4303C1
:100B6800CCE77FEA625307D150EA01331EBF4FF04A
:100B7800FE4040F44000704701F0004040F0FE4065
:100B880040F40000704700BF53B94AB9002908BFB4
:100B980000281CBF4FF0FF314FF0FF3000F00CB8B9
:100BA800ADF1080C6DE904CE10F0AEFFDDF804E0FD
:100BB800DDE9022304B07047704700BF0348044BC7
:100BC800834202D0034B03B118477047CC12002070
:100BD800CC120020000000000548064B1B1AD90F54
:100BE80001EBA301491002D0034B03B1184770472A
:100BF800CC120020CC1200200000000010B5064CDA
:100C0800237843B9FFF7DAFF044B13B10448AFF375
:100C180000800123237010BDD012002000000000C6
:100C2800581E010808B5054B1BB105490548AFF327
:100C38000080BDE80840FFF7CFBF00BF00000000FC
:100C4800D4120020581E010880B483B000AF786029
:100C58007B68DB6803F44063002B01D1012300E0CB
:100C6800002318460C37BD465DF8047B704780B4F6
:100C780083B000AF786039607B681B6B23F00F028C
:100C88003B681A437B681A6300BF0C37BD465DF8A2
:100C9800047B704780B483B000AF786039607B68AC
:100CA800DB6823F003023B681A437B68DA6000BF05
:100CB8000C37BD465DF8047B704780B483B000AF45
:100CC80078607B68DB6C03F4C073002B01D10123CF
:100CD80000E0002318460C37BD465DF8047B7047DA
:100CE80080B483B000AF78607B689B6823F00043D2
:100CF80023F03F0343F001027B689A6000BF0C3782
:100D0800BD465DF8047B704780B483B000AF78605F
:100D18007B689B6823F0004323F03F0343F0020203
:100D28007B689A6000BF0C37BD465DF8047B70474E
:100D380080B483B000AF78607B689B6803F00103E0
:100D4800012B01D1012300E0002318460C37BD46D2
:100D58005DF8047B704780B483B000AF78607B682F
:100D68009B6823F0004323F03F0343F004027B68B1
:100D78009A6000BF0C37BD465DF8047B704780B4AD
:100D880083B000AF78607B689B6823F0004323F052
:100D98003F0343F008027B689A6000BF0C37BD46EA
:100DA8005DF8047B704780B483B000AF78607B68DF
:100DB8001B6803F04003402B01D1012300E000230E
:100DC80018460C37BD465DF8047B704780B483B085
:100DD80000AF78607B6840221A6000BF0C37BD46C0
:100DE8005DF8047B704780B483B000AF78607B689F
:100DF8005B6843F008027B685A6000BF0C37BD4649
:100E08005DF8047B704780B483B000AF78607B687E
:100E18005B6843F040027B685A6000BF0C37BD46F0
:100E28005DF8047B704780B483B000AF78607B685E
:100E38005B6823F008027B685A6000BF0C37BD4628
:100E48005DF8047B704780B483B000AF78607B683E
:100E58005B6823F010027B685A6000BF0C37BD4600
:100E68005DF8047B704780B483B000AF78607B681E
:100E78005B6823F040027B685A6000BF0C37BD46B0
:100E88005DF8047B704780B483B000AF78607B68FE
:100E98005B6823F080027B685A6000BF0C37BD4650
:100EA8005DF8047B704780B483B000AF78607B68DE
:100EB8005B6803F01003102B01D1012300E000232D
:100EC80018460C37BD465DF8047B704780B483B084
:100ED80000AF78607B685B6803F08003802B01D1EA
:100EE800012300E0002318460C37BD465DF8047B5B
:100EF800704780B584B000AF78600123FB817B68C0
:100F08001B691846FFF7D9FE0346002B24D07B68DF
:100F18009B7ADBB2022B0CD07B689B7ADBB2082B66
:100F280007D07B681B691846FFF73DFF0346012B76
:100F380012D17B689B7ADBB2082B03D17B68012234
:100F48009A7202E07B6820229A727B681B691846B5
:100F5800FFF715FF0023FB81FB8918461037BD46B4
:100F680080BD80B487B000AFF8600B467A607B81A3
:100F7800FB6880333B6100237B610DE07B699B004C
:100F88003A69134419687B695B007A6813448AB22A
:100F98001A807B6901337B617B897A699A42EDDB30
:100FA80000BF00BF1C37BD465DF8047B704780B4A6
:100FB80085B000AFF860B9607A603B6000BF143755
:100FC800BD465DF8047B704780B485B000AFF8601B
:100FD800B9607A6000BF1437BD465DF8047B70477E
:100FE80080B584B000AF78607B681B691846FFF74E
:100FF800DAFE0346FB73FB7B012B07D17B681B6979
:101008001846FFF7E3FE7B6802229A72FB7B1846BC
:101018001037BD4680BD80B582B000AF78600B4602
:10102800FB70FB78012B0DD17B681B691846FFF715
:101038000BFE0346012B12D07B681B691846FFF78D
:101048008AFE0CE07B681B691846FFF736FE0346EC
:10105800012B04D07B681B691846FFF790FE00BF80
:101068000837BD4680BD000090B589B002AFF86072
:10107800084611461A4603467B810B463B811346B8
:10108800FB8000237B61FB681B69B3F1A04F01D192
:101098003A4B7B617B69002B6BD0FB681A697B69D3
:1010A8001A617B690022DA71FB88012B61D03B89C8
:1010B800002B47D07B695B7ADBB2082B42D0FB68F8
:1010C800DA687B69DA60FB681A687B691A60FB6812
:1010D8005A697B695A61FB689A797B699A71FB68DE
:1010E8001A797B691A717B691B69B96A1846FFF717
:1010F800BEFD7B89012B21D07B89042B16D17B690E
:101108001B6903211846FFF7C5FD7B6918697B69D0
:1011180059697B699B791C467B69DA687B691B681E
:10112800009313462246FFF742FF07E07B89022B14
:1011380004D17B691B691846FFF755FE7B690822B5
:101148005A7216E03B89002B13D17B699B7ADBB27C
:10115800082B0ED0FB685A797B695A717B89022B60
:1011680004D17B691B691846FFF74DFE7B6908228D
:101178009A727B6918461C37BD4690BDEC12002058
:1011880080B582B000AF78607B681B691846FFF7AE
:10119800CFFD0346002B04D17B681B691846FFF777
:1011A8009FFD00BF0837BD4680BD80B586B000AF43
:1011B800F8600B467A607B810123FB82FB681B6920
:1011C800002B4BD07B89012B05D1F868FFF791FEE6
:1011D8000346FB8242E07B89042B24D1FB681B6910
:1011E8001846FFF76AFD0346002B37D0FB6801223B
:1011F8009A72FB681B691846FFF7C1FD00BFFB68C0
:101208009B7ADBB2022BFAD1FB681869FB685B7921
:101218009BB27A681946FFF7A4FEFB6808229A7207
:101228000023FB821AE07B89022B17D1FB689B7A8B
:10123800DBB2202B04D0FB689B7ADBB2022B0DD1EA
:10124800FB6808229A72FB681869FB685B799BB295
:101258007A681946FFF785FE0023FB82FB8A184649
:101268001837BD4680BD80B582B000AF78600B46A8
:101278007B8013463B807B681B691846FFF758FD47
:101288000346002B04D07B681B691846FFF73CFD1A
:101298007B681B691846FFF719FE0346002B04D02C
:1012A8007B681B691846FFF7EEFD7B681B691846CB
:1012B800FFF7F9FD0346002B04D07B681B6918462D
:1012C800FFF7C1FD3B88002B35D07B88012B1AD056
:1012D8007B88022B05D17B681B691846FFF7A3FDA5
:1012E80011E07B88042B0ED17B6818697B685969EB
:1012F8007B689B791A46FFF767FE7B681B690021AC
:101308001846FFF7C7FC7B680022DA607B6800227A
:101318001A607B6800225A617B6800229A717B6898
:1013280000221A717B681A697B681B791946104676
:10133800FFF79DFC0AE07B6800225A717B88022B2C
:1013480004D17B681B691846FFF78DFD00BF08377D
:10135800BD4680BD80B485B000AF78607B681B68EF
:1013680003F06003FB60FB68002B04D17B681B68FB
:1013780003F01003FB60FB6818461437BD465DF8A0
:10138800047B704780B483B000AF78607B681B6BC8
:1013980018460C37BD465DF8047B704780B483B0AF
:1013A80000AF786039607B681A6A3B681A437B68CB
:1013B8001A6200BF0C37BD465DF8047B704780B4E5
:1013C80083B000AF786039607B681A6A3B68DB439A
:1013D8001A407B681A6200BF0C37BD465DF8047B73
:1013E800704780B483B000AF78607B685B6B184649
:1013F8000C37BD465DF8047B704780B483B000AFFE
:1014080078607B68DB6B18460C37BD465DF8047B5B
:10141800704780B483B000AF78607B681B6C184657
:101428000C37BD465DF8047B704780B483B000AFCD
:1014380078607B685B6C43F400427B685A6400BF49
:101448000C37BD465DF8047B704780B483B000AFAD
:1014580078607B686FF002021A6100BF0C37BD46E6
:101468005DF8047B704780B483B000AF78607B6818
:101478001B6903F00203022B01D1012300E00023C2
:1014880018460C37BD465DF8047B704780B483B0BE
:1014980000AF78607B686FF008021A6100BF0C37F4
:1014A800BD465DF8047B704780B483B000AF7860B8
:1014B8007B681B6903F00803082B01D1012300E0B6
:1014C800002318460C37BD465DF8047B704780B48E
:1014D80083B000AF78607B686FF010021A6100BFBC
:1014E8000C37BD465DF8047B704780B483B000AF0D
:1014F80078607B681B6903F01003102B01D101236E
:1015080000E0002318460C37BD465DF8047B7047A1
:1015180080B483B000AF78607B686FF400721A61A2
:1015280000BF0C37BD465DF8047B704780B483B0BC
:1015380000AF78607B681B6903F40073B3F5007F24
:1015480001D1012300E0002318460C37BD465DF8A1
:10155800047B704780B483B000AF78607B686FF419
:1015680000621A6100BF0C37BD465DF8047B704706
:1015780080B483B000AF78607B681B6903F40063B4
:10158800B3F5006F01D1012300E0002318460C37A2
:10159800BD465DF8047B704780B483B000AF7860C7
:1015A8007B686FF480521A6100BF0C37BD465DF846
:1015B800047B704780B483B000AF78607B681B6998
:1015C80003F48053B3F5805F01D1012300E00023C9
:1015D80018460C37BD465DF8047B704780B483B06D
:1015E80000AF78607B68DB6843F001027B68DA60F3
:1015F80000BF0C37BD465DF8047B704780B483B0EC
:1016080000AF78607B68DB6823F001027B68DA60F2
:1016180000BF0C37BD465DF8047B704780B483B0CB
:1016280000AF78607B68DB6803F00103012B01D110
:10163800012300E0002318460C37BD465DF8047B03
:10164800704780B483B000AF78607B68DB6843F094
:1016580002027B68DA6000BF0C37BD465DF8047B88
:10166800704780B483B000AF78607B68DB6823F094
:1016780002027B68DA6000BF0C37BD465DF8047B68
:10168800704780B483B000AF78607B68DB6803F094
:101698000203022B01D1012300E0002318460C3776
:1016A800BD465DF8047B704780B483B000AF7860B6
:1016B8007B68DB6843F004027B68DA6000BF0C37A4
:1016C800BD465DF8047B704780B483B000AF786096
:1016D8007B68DB6823F004027B68DA6000BF0C37A4
:1016E800BD465DF8047B704780B483B000AF786076
:1016F8007B68DB6803F00403042B01D1012300E0BD
:10170800002318460C37BD465DF8047B704780B44B
:1017180083B000AF78607B68DB6843F008027B68C1
:10172800DA6000BF0C37BD465DF8047B704780B4B3
:1017380083B000AF78607B68DB6823F008027B68C1
:10174800DA6000BF0C37BD465DF8047B704780B493
:1017580083B000AF78607B68DB6803F00803082B70
:1017680001D1012300E0002318460C37BD465DF87F
:10177800047B704780B483B000AF78607B68DB6817
:1017880043F010027B68DA6000BF0C37BD465DF895
:10179800047B704780B483B000AF78607B68DB68F7
:1017A80023F010027B68DA6000BF0C37BD465DF895
:1017B800047B704780B483B000AF78607B68DB68D7
:1017C80003F01003102B01D1012300E00023184679
:1017D8000C37BD465DF8047B704780B483B000AF1A
:1017E80078607B68DB6843F020027B68DA6000BFC2
:1017F8000C37BD465DF8047B704780B483B000AFFA
:1018080078607B68DB6823F020027B68DA6000BFC1
:101818000C37BD465DF8047B704780B483B000AFD9
:1018280078607B68DB6803F02003202B01D101235B
:1018380000E0002318460C37BD465DF8047B70476E
:1018480080B483B000AF78607B68DB6843F0400207
:101858007B68DA6000BF0C37BD465DF8047B7047D3
:1018680080B483B000AF78607B68DB6823F0400207
:101878007B68DA6000BF0C37BD465DF8047B7047B3
:1018880080B483B000AF78607B68DB6803F0400306
:10189800402B01D1012300E0002318460C37BD4638
:1018A8005DF8047B704780B483B000AF78607B68D4
:1018B800DB6843F080027B68DA6000BF0C37BD4606
:1018C8005DF8047B704780B483B000AF78607B68B4
:1018D800DB6823F080027B68DA6000BF0C37BD4606
:1018E8005DF8047B704780B483B000AF78607B6894
:1018F800DB6803F08003802B01D1012300E0002383
:1019080018460C37BD465DF8047B704780B483B039
:1019180000AF78607B68DB6843F400027B68DA60BC
:1019280000BF0C37BD465DF8047B704780B483B0B8
:1019380000AF78607B68DB6823F400027B68DA60BC
:1019480000BF0C37BD465DF8047B704780B483B098
:1019580000AF78607B68DB6803F40003B3F5000F21
:1019680001D1012300E0002318460C37BD465DF87D
:10197800047B704780B483B000AF78607B68DB6815
:1019880043F480027B68DA6000BF0C37BD465DF81F
:10199800047B704780B483B000AF78607B68DB68F5
:1019A80023F480027B68DA6000BF0C37BD465DF81F
:1019B800047B704780B483B000AF78607B68DB68D5
:1019C80003F48003B3F5800F01D1012300E0002365
:1019D80018460C37BD465DF8047B704780B483B069
:1019E80000AF78607B68DB6843F400127B68DA60DC
:1019F80000BF0C37BD465DF8047B704780B483B0E8
:101A080000AF78607B68DB6823F400127B68DA60DB
:101A180000BF0C37BD465DF8047B704780B483B0C7
:101A280000AF78607B68DB6803F40013B3F5001F30
:101A380001D1012300E0002318460C37BD465DF8AC
:101A4800047B704780B483B000AF78607B68DB6844
:101A580043F480127B68DA6000BF0C37BD465DF83E
:101A6800047B704780B483B000AF78607B68DB6824
:101A780023F480127B68DA6000BF0C37BD465DF83E
:101A8800047B704780B483B000AF78607B68DB6804
:101A980003F48013B3F5801F01D1012300E0002374
:101AA80018460C37BD465DF8047B704780B582B098
:101AB80000AF78607B681B681846FFF7D4FC0346C4
:101AC800012B03D17B68012283F888207B6893F877
:101AD8008830012B0CBF01230023DBB218460837DE
:101AE800BD4680BD80B582B000AF78607B681B685A
:101AF8001846FFF7D9FC0346012B03D17B68012266
:101B080083F88A207B6893F88A30012B0CBF012365
:101B18000023DBB218460837BD4680BD80B582B0C9
:101B280000AF78607B681B681846FFF7DEFC034649
:101B3800012B03D17B68012283F88B207B6893F803
:101B48008B30012B0CBF01230023DBB2184608376A
:101B5800BD4680BD80B582B000AF78600B467B8003
:101B68007B8803F00103002B0CD07B681B681846A8
:101B7800FFF786FE0346012B04D07B681B681846D6
:101B8800FFF75EFE7B8803F00203002B0CD07B6816
:101B98001B681846FFF775FD0346012B04D07B68C8
:101BA8001B681846FFF74DFD7B8803F00403002BE4
:101BB8000CD07B681B681846FFF796FD0346012B7F
:101BC80004D07B681B681846FFF76EFD7B8803F01E
:101BD8000803002B0CD07B681B681846FFF7B7FD7D
:101BE8000346012B04D07B681B681846FFF78FFD5E
:101BF8007B8803F01003002B0CD07B681B68184609
:101C0800FFF7D8FD0346012B04D07B681B681846F4
:101C1800FFF7B0FD7B8803F02003002B0CD07B6816
:101C28001B681846FFF7FAFC0346012B04D07B68B3
:101C38001B681846FFF7D2FC7B8803F04003002B93
:101C48000CD07B681B681846FFF74DFE0346012B36
:101C580004D07B681B681846FFF725FE7B8803F0D5
:101C68008003002B0CD07B681B681846FFF7D5FD56
:101C78000346012B04D07B681B681846FFF7ADFDAF
:101C88007B8803F48073002B0CD07B681B68184694
:101C9800FFF7F8FE0346012B04D07B681B68184643
:101CA800FFF7D0FE7B8803F40073002B0CD07B6811
:101CB8001B681846FFF7B2FE0346012B04D07B6869
:101CC8001B681846FFF78AFE7B8803F48063002BA5
:101CD8000CD07B681B681846FFF738FE0346012BBB
:101CE80004D07B681B681846FFF710FE7B8803F456
:101CF8000063002B0CD07B681B681846FFF75AFE60
:101D08000346012B04D07B681B681846FFF732FE98
:101D180000BF0837BD4680BD80B582B000AF78608F
:101D28000B467B807B8803F00103002B0CD07B687B
:101D38001B681846FFF7A4FD0346012B04D17B68F6
:101D48001B681846FFF78CFD7B8803F00203002B05
:101D58000CD07B681B681846FFF793FC0346012BE1
:101D680004D17B681B681846FFF77BFC7B8803F06F
:101D78000403002B0CD07B681B681846FFF7B4FCE3
:101D88000346012B04D17B681B681846FFF79CFCAF
:101D98007B8803F00803002B0CD07B681B6818466F
:101DA800FFF7D5FC0346012B04D17B681B68184656
:101DB800FFF7BDFC7B8803F01003002B0CD07B6879
:101DC8001B681846FFF7F6FC0346012B04D17B6815
:101DD8001B681846FFF7DEFC7B8803F02003002B06
:101DE8000CD07B681B681846FFF718FC0346012BCC
:101DF80004D07B681B681846FFF700FC7B8803F05B
:101E08004003002B0CD07B681B681846FFF76BFD5E
:101E18000346012B04D17B681B681846FFF753FD66
:101E28007B8803F08003002B0CD07B681B68184666
:101E3800FFF7F3FC0346012B04D17B681B681846A7
:101E4800FFF7DBFC7B8803F48073002B0CD07B68E6
:101E58001B681846FFF716FE0346012B04D17B6862
:101E68001B681846FFF7FEFD7B8803F40073002B00
:101E78000CD07B681B681846FFF7D0FD0346012B82
:101E880004D17B681B681846FFF7B8FD7B8803F40C
:101E98008063002B0CD07B681B681846FFF756FD43
:101EA8000346012B04D17B681B681846FFF73EFDEB
:101EB8007B8803F40063002B0CD07B681B681846F2
:101EC800FFF778FD0346012B04D17B681B68184691
:101ED800FFF760FD00BF0837BD4680BD80B582B002
:101EE80000AF78600B46FB70FB78022B06D17B684D
:101EF8001B6801211846FFF751FA31E07B681B681F
:101F0800194A934213D07B681B68184A93420ED033
:101F18007B681B68164A934209D07B681B68154A80
:101F2800934204D07B681B68134A934218D1FB780C
:101F3800032B06D17B681B6804211846FFF72EFA8D
:101F48000EE0FB78042B0BD17B681B680121184637
:101F5800FFF724FA7B681B6804211846FFF71EFA6E
:101F680000BF0837BD4680BD002C01400034014049
:101F780000400140004401400048014080B582B063
:101F880000AF78600B46FB70FB78022B06D17B68AC
:101F98001B6801211846FFF712FA31E07B681B68BD
:101FA800194A934213D07B681B68184A93420ED093
:101FB8007B681B68164A934209D07B681B68154AE0
:101FC800934204D07B681B68134A934218D1FB786C
:101FD800032B06D17B681B6804211846FFF7EFF92D
:101FE8000EE0FB78042B0BD17B681B680121184697
:101FF800FFF7E5F97B681B6804211846FFF7DFF94E
:1020080000BF0837BD4680BD002C014000340140A8
:1020180000400140004401400048014080B582B0C2
:1020280000AF78600B46FB70FB78022B06D17B680B
:102038001B6810211846FFF7B1F931E07B681B686F
:10204800194A934213D07B681B68184A93420ED0F2
:102058007B681B68164A934209D07B681B68154A3F
:10206800934204D07B681B68134A934218D1FB78CB
:10207800032B06D17B681B6840211846FFF78EF9B1
:102088000EE0FB78042B0BD17B681B6810211846E7
:10209800FFF784F97B681B6840211846FFF77EF933
:1020A80000BF0837BD4680BD002C01400034014008
:1020B80000400140004401400048014080B582B022
:1020C80000AF78600B46FB70FB78022B06D17B686B
:1020D8001B6810211846FFF772F931E07B681B680E
:1020E800194A934213D07B681B68184A93420ED052
:1020F8007B681B68164A934209D07B681B68154A9F
:10210800934204D07B681B68134A934218D1FB782A
:10211800032B06D17B681B6840211846FFF74FF94F
:102128000EE0FB78042B0BD17B681B681021184646
:10213800FFF745F97B681B6840211846FFF73FF910
:1021480000BF0837BD4680BD002C01400034014067
:1021580000400140004401400048014080B582B081
:1021680000AF78600B46FB70FB78022B07D17B68C9
:102178001B684FF480711846FFF710F934E07B684C
:102188001B681B4A934213D07B681B68194A934209
:102198000ED07B681B68184A934209D07B681B687D
:1021A800164A934204D07B681B68154A93421BD198
:1021B800FB78032B07D17B681B684FF480611846B6
:1021C800FFF7ECF810E0FB78042B0DD17B681B6857
:1021D8004FF480711846FFF7E1F87B681B684FF4ED
:1021E80080611846FFF7DAF800BF0837BD4680BDA2
:1021F800002C0140003401400040014000440140EF
:102208000048014080B582B000AF78600B46FB7093
:10221800FB78022B07D17B681B684FF48071184646
:10222800FFF7CDF834E07B681B681B4A934213D054
:102238007B681B68194A93420ED07B681B68184A52
:10224800934209D07B681B68164A934204D07B6886
:102258001B68154A93421BD1FB78032B07D17B6877
:102268001B684FF480611846FFF7A9F810E0FB7867
:10227800042B0DD17B681B684FF480711846FFF75B
:102288009EF87B681B684FF480611846FFF797F843
:1022980000BF0837BD4680BD002C01400034014016
:1022A80000400140004401400048014080B582B030
:1022B80000AF78600B46FB70FB78022B07D17B6878
:1022C8001B684FF480511846FFF768F834E07B68C4
:1022D8001B681B4A934213D07B681B68194A9342B8
:1022E8000ED07B681B68184A934209D07B681B682C
:1022F800164A934204D07B681B68154A93421BD147
:10230800FB78032B07D17B681B684FF48041184684
:10231800FFF744F810E0FB78042B0DD17B681B68AD
:102328004FF480511846FFF739F87B681B684FF463
:1023380080411846FFF732F800BF0837BD4680BD18
:10234800002C01400034014000400140004401409D
:102358000048014080B582B000AF78600B46FB7042
:10236800FB78022B07D17B681B684FF48051184615
:10237800FFF725F834E07B681B681B4A934213D0AB
:102388007B681B68194A93420ED07B681B68184A01
:10239800934209D07B681B68164A934204D07B6835
:1023A8001B68154A93421BD1FB78032B07D17B6826
:1023B8001B684FF480411846FFF701F810E0FB78DE
:1023C800042B0DD17B681B684FF480511846FEF72B
:1023D800F6FF7B681B684FF480411846FEF7EFFF55
:1023E80000BF0837BD4680BD002C014000340140C5
:1023F80000400140004401400048014080B584B0DD
:1024080000AF78600023FB607B681B68374A934203
:1024180002D1374BFB6006E07B681B68354A934264
:1024280001D1354BFB607B681A68FB681A60FB6852
:102438001B681846FEF78EFFB860BB68002B06D0F5
:10244800BB68102B03D0FB6801221A7102E0FB68FD
:1024580000221A71FB681B68244A934213D0FB6858
:102468001B68264A93420ED0FB681B68244A934295
:1024780009D0FB681B68234A934204D0FB681B6899
:10248800214A934204D1FB681B681846FEF7CDFF2A
:10249800FB681B68154A934213D0FB681B68174AF0
:1024A80093420ED0FB681B68154A934209D0FB681B
:1024B8001B68144A934204D0FB681B68124A934273
:1024C80008D17B681B681846FEF75CFF0346DAB242
:1024D800FB685A71FB6800229A71FB680022DA7166
:1024E800FB6818461037BD4680BD00BF002C014070
:1024F8000813002000040040941300200034014019
:1025080000400140004401400048014080B586B0C9
:1025180000AFF860B9607A600023FB75F868FFF7D0
:10252800C5FA0346002B03D17B6800221A6031E00C
:10253800FB681B68B3F1804F08D1FB681B6818461D
:10254800FEF74FFF0246BB681A6008E0FB681B688D
:102558001846FEF746FF03469AB2BB681A80FB6826
:102568001B681846FEF771FFFB68002283F8882075
:102578007B6801221A60FB681B681846FEF7D6FFC5
:102588000346012B06D1FB681B681846FEF7C0FFFF
:102598000123FB75FB7D18461837BD4680BD80B505
:1025A80086B000AFF860B9607A600023FB75F86800
:1025B800FFF798FA0346002B03D17B6800221A60C4
:1025C80031E0FB681B68B3F1804F08D1FB681B68DA
:1025D8001846FEF712FF0246BB681A6008E0FB685F
:1025E8001B681846FEF709FF03469AB2BB681A80B3
:1025F800FB681B681846FEF749FFFB68002283F852
:102608008A207B6801221A60FB681B681846FEF75F
:10261800AFFF0346012B06D1FB681B681846FEF77F
:1026280099FF0123FB75FB7D18461837BD4680BD11
:1026380080B586B000AFF860B9607A600023FB759A
:10264800F868FFF76BFA0346002B03D17B6800227A
:102658001A6031E0FB681B68B3F1804F08D1FB6852
:102668001B681846FEF7D5FE0246BB681A6008E0EC
:10267800FB681B681846FEF7CCFE03469AB2BB6897
:102688001A80FB681B681846FEF721FFFB680022CA
:1026980083F88B207B6801221A60FB681B68184648
:1026A800FEF788FF0346012B06D1FB681B68184616
:1026B800FEF772FF0123FB75FB7D18461837BD46F0
:1026C80080BD80B485B000AF786039600023FB73AB
:1026D80097F90F3018461437BD465DF8047B7047EC
:1026E80080B584B000AF786039600023FB727B68E6
:1026F800002B05D1374803F012FA4FF0FF3365E09D
:102708003B68002B05D1344803F009FA4FF0FF333A
:102718005CE0324BD3E900014FF000024FF0404338
:10272800FEF77AF90346002B06D03B68D3E900236D
:102738002A49C1E9002305E0284BD3E90023396879
:10274800C1E90023254BD3E900014FF00002244BD7
:10275800FEF762F90346002B02D0224803F0DFF9A6
:102768007B685B681B68204A13607B685B685B68F2
:102778001E4A13607B685B689B681D4A13607B6810
:102788005B68DB681B4A13601B4B00221A6003F06E
:1027980037FE0023FB600023FB6007E0174AFB6855
:1027A800174942F82310FB680133FB60FB68012BD3
:1027B800F4D903F06FFA0346FB7297F90B30002B3C
:1027C80002D1104B01221A7097F90B3018461037B6
:1027D800BD4680BD701E0108941E0108E811002046
:1027E8000000F0BFC01E0108F8160020FC160020EB
:1027F80000170020041700200817002020140020CC
:1028080071640008F616002080B586B000AF7860C5
:102818000023FB7500233B610023FB732A4B1B78C5
:10282800DBB2002B0CBF01230023DBB2BB73274BA9
:1028380002221A707B68002B0BD1234B1B78DBB26A
:10284800002B06D1224B1B78DBB2002B01D10123D0
:1028580000E00023FB7316E00A2009F013FA3B6935
:1028680003F51C5310333B617B68B3F1FF3F05D080
:102878003A697B689A4201D9012300E00023FB737F
:10288800002003F055FA104B1B78DBB2002B07D160
:102898000F4B1B78DBB2002B02D1FB7B002BDBD06C
:1028A8000A4B03221A70FB7B002B01D09C23FB757B
:1028B800BB7B002B01D003F0D1FE97F917301846E7
:1028C8001837BD4680BD00BFF4160020F61600205C
:1028D800F516002080B586B000AF034687ED000BE3
:1028E800FB810023FB750123BB754FF000024FF0FD
:1028F8000003D7E90001FEF799F80346002B05D03D
:102908002E4803F00CF94FF0FF3353E0FB89FF2BFF
:1029180008D9FB89FF221946294803F000F94FF02E
:10292800FF3347E0274B1B78DBB2032B04D0254B42
:102938001B78DBB2012B02D1224B04221A70FB89CF
:10294800012B15D8FB89204A52F82330002B0FD0D1
:1029580004F04EFA03467B757B7D022B08D1FB8978
:10296800194A52F82330FA89104698470346BB752E
:10297800FB897B82FB89184697ED000B03F0ECF886
:10298800BB7D002B06D07B8A184604F009FA034663
:10299800FB7503E07B8A184604F065FA97F917304F
:1029A800002B05D097F917301946084803F0B7F8F7
:1029B80097F9173018461837BD4680BD2C1F0108F7
:1029C800701F0108F616002020140020B01F01080F
:1029D80080B582B000AF0023FB71002003F0A8F996
:1029E8000346FB7197F9073018460837BD4680BD86
:1029F80080B582B000AF0023FB710B4B06221A7022
:102A080003F034FA0346FB710822002107480FF04F
:102A1800DFF903F0A9FD044B00221A7097F907307B
:102A280018460837BD4680BDF61600202014002041
:102A380080B400AF034B1B78DBB21846BD465DF887
:102A4800047B7047F516002080B400AF034B1B7859
:102A5800DBB21846BD465DF8047B70470C170020B2
:102A680080B483B000AF03463960FB7197F9073033
:102A7800002B0ADB3B68DAB20C4997F907301201E0
:102A8800D2B20B4483F800230AE03B68DAB2084963
:102A9800FB7903F00F03043B1201D2B20B441A7600
:102AA80000BF0C37BD465DF8047B704700E100E0CD
:102AB80000ED00E080B584B000AFF860B9607A60DE
:102AC800FB68DBB20F3BDBB25BB279681846FFF7F5
:102AD800C7FF00BF1037BD4680BD80B485B000AFCA
:102AE800EFF310837B607B68FB600123BB60BB68EE
:102AF80083F3108800BFFB6818461437BD465DF89D
:102B0800047B704780B483B000AF0346FB7197F92C
:102B18000730002B0BDBFB7903F01F02074997F9FD
:102B280007305B09012000FA02F241F8232000BFB8
:102B38000C37BD465DF8047B704700BF00E100E03C
:102B480080B483B000AF0346FB7197F90730002BC0
:102B580012DBFB7903F01F020A4997F907305B097A
:102B6800012000FA02F2203341F82320BFF34F8FEF
:102B780000BFBFF36F8F00BF00BF0C37BD465DF8C5
:102B8800047B704700E100E080B483B000AF786058
:102B98007B6840221A6000BF0C37BD465DF8047B95
:102BA800704780B483B000AF78607B685B6803F0DF
:102BB8004003402B01D1012300E0002318460C37C5
:102BC800BD465DF8047B704780B483B000AF786081
:102BD8007B681B6843F001027B681A6000BF0C37F2
:102BE800BD465DF8047B704780B483B000AF786061
:102BF8007B681B6823F001027B681A6000BF0C37F2
:102C0800BD465DF8047B704780B483B000AF786040
:102C180039607B681B6823F004023B681A437B68B1
:102C28001A6000BF0C37BD465DF8047B704780B45E
:102C380083B000AF78607B681B6803F00403184614
:102C48000C37BD465DF8047B704780B483B000AF95
:102C580078607B68DB6A18460C37BD465DF8047BF4
:102C6800704780B483B000AF786039607B683A6899
:102C78001A6300BF0C37BD465DF8047B704780B40B
:102C880083B000AF786039607B683A685A6300BFE8
:102C98000C37BD465DF8047B704780B483B000AF45
:102CA800786039607B683A689A6300BF0C37BD4624
:102CB8005DF8047B704780B483B000AF78603960FA
:102CC8007B683A68DA6300BF0C37BD465DF8047B61
:102CD800704780B483B000AF78607B685B6B184640
:102CE8000C37BD465DF8047B704780B483B000AFF5
:102CF80078607B689B6B18460C37BD465DF8047B93
:102D0800704780B483B000AF78607B68DB6B18468F
:102D18000C37BD465DF8047B704780B483B000AFC4
:102D280078607B686FF002021A6100BF0C37BD46FD
:102D38005DF8047B704780B483B000AF78607B682F
:102D48006FF008021A6100BF0C37BD465DF8047BBE
:102D5800704780B483B000AF78607B686FF0100272
:102D68001A6100BF0C37BD465DF8047B704780B41C
:102D780083B000AF78607B68DB6803F00203022B46
:102D880001D1012300E0002318460C37BD465DF849
:102D9800047B704780B483B000AF78607B68DB68E1
:102DA80003F00803082B01D1012300E00023184693
:102DB8000C37BD465DF8047B704780B483B000AF24
:102DC80078607B68DB6803F01003102B01D10123C6
:102DD80000E0002318460C37BD465DF8047B7047B9
:102DE80080B483B000AF78607B685B6943F0010210
:102DF8007B685A6100BF0C37BD465DF8047B70479D
:102E080080B483B000AF78607B681B6918460C37C4
:102E1800BD465DF8047B704780B483B000AF78602E
:102E280039607B683A689A6100BF0C37BD465DF827
:102E3800047B704780B483B000AF786039607B68EA
:102E48003A689A6200BF0C37BD465DF8047B70474C
:102E580080B584B000AF786087ED000AD7ED007ABE
:102E6800F5EEC07AF1EE10FA03D54FF000033B609F
:102E78000AE0D7ED007A9FED167AF4EEC77AF1EE04
:102E880010FA01DD134B3B607B681B681846FFF79F
:102E9800DCFEF8607B681B79002B0CBF0123002344
:102EA800DBB21A46FB68134407EE903AB8EE677A2D
:102EB800D7ED007A27EE277ADFED056AC7EE267A86
:102EC800FCEEE77A17EE903A18461037BD4680BDFB
:102ED8000000C8420000C84280B582B000AF7860E8
:102EE80039607B681B681846FFF7F3FE02463B68AB
:102EF800934205D07B681B6839681846FFF7BFFE08
:102F080000BF0837BD4680BD80B582B000AF78608D
:102F180039607B681B681846FFF7E7FE02463B6886
:102F2800934205D07B681B6839681846FFF7B5FEE1
:102F380000BF0837BD4680BD80B582B000AF78605D
:102F480039607B681B681846FFF7DBFE02463B6862
:102F5800934205D07B681B6839681846FFF7ABFEBB
:102F680000BF0837BD4680BD80B584B000AF78602B
:102F780087ED000A97ED000A7868FFF769FFF860A7
:102F8800F9687868FFF7A8FF00BF1037BD4680BD15
:102F980080B584B000AF786087ED000A97ED000A2D
:102FA8007868FFF755FFF860F9687868FFF7ACFFB5
:102FB80000BF1037BD4680BD80B584B000AF7860D3
:102FC80087ED000A97ED000A7868FFF741FFF8607F
:102FD800F9687868FFF7B0FF00BF1037BD4680BDBD
:102FE80080B485B000AF78607B681B689A68074B2F
:102FF8001340FB60FB68062B0CBF01230023DBB2E8
:1030080018461437BD465DF8047B70470700010079
:1030180080B584B000AF78600B46FB707B681B6896
:103028001846FFF704FEF860FB78002B1ED07B687B
:103038001B68324A934213D07B681B68304A93421C
:103048000ED07B681B682F4A934209D07B681B68A7
:103058002D4A934204D07B681B682C4A934205D1C1
:103068007B681B6800211846FFF7FBFDFB68042BF3
:1030780011D07B681B6804211846FFF7C5FD7B68E3
:103088001B681846FFF7ACFE7B681B68F968184692
:10309800FFF7BAFD04E07B681B681846FFF7A0FE3F
:1030A8007B681B681846FFF78FFDFB78002B20D044
:1030B8007B681B68114A934213D07B681B68104ACF
:1030C80093420ED07B681B680E4A934209D07B68F6
:1030D8001B680D4A934204D07B681B680B4A9342D5
:1030E80007D17B681A687B685B7919461046FFF739
:1030F800B8FD00BF1037BD4680BD00BF002C0140A1
:1031080000340140004001400044014000480140B3
:1031180080B582B000AF78607B681B681846FFF7FF
:1031280063FD00BF0837BD4680BD000080B483B092
:1031380000AF7860084B93F84D30002B0CBF01238B
:103148000023DAB27B6801331A7000BF0C37BD4622
:103158005DF8047B704700BF3015002080B400AFD5
:103168000A4B93F84D200132D2B283F84D20074B19
:1031780093F84D30632B03D9044B002283F84D207C
:1031880000BFBD465DF8047B704700BF30150020C6
:1031980080B58CB002AF78607B6800221A727B68B9
:1031A80001225A600023BB6100233B744FF0A04307
:1031B800FB6100233B620023BB74002387F82430A3
:1031C800012387F825300323FB6003237B7407F171
:1031D8000C0002230093022300220221FDF744FF82
:1031E80002467B68DA607B68DB681846FDF7C8FF33
:1031F8007B68DB6800211846FDF70DFF7B6801221C
:103208001A7200BF2837BD4680BD000080B5A6B041
:1032180000AF78601D4BBB6000233B7300237B73BA
:1032280007F108031846FFF7E9F802467B68DA60F9
:103238007B68DB6800211846FEF78CFC7B68DB683E
:1032480004211846FEF74AFE7B68DB68042118460D
:10325800FEF7E4FE7B68DB6804211846FEF77EFF74
:103268007B68DB681846FFF7BBFE034687F8973094
:1032780097F89730002B05D17B68DB680121184649
:10328800FFF7C6FE00BF9837BD4680BD002C014041
:1032980080B485B000AFF860B9607A607B68B3F934
:1032A8000020FB681A807B685A88BB681A8000BFB8
:1032B8001437BD465DF8047B704780B485B000AF15
:1032C800F860B9607A607B681A88FB681A807B6846
:1032D8005A88BB681A8000BF1437BD465DF8047B66
:1032E800704780B483B000AF786039603B689A88D3
:1032F8007B681A803B68DA887B685A803B68B3F938
:1033080000207B68DA803B681A897B689A8000BF56
:103318000C37BD465DF8047B7047000080B584B06B
:1033280000AF7B600346FB810B46BB8113467B8164
:10333800FB89013B052B45D801A252F823F000BFB9
:10334800BB33000897330008A9330008733300081B
:103358006133000885330008386A3B6A991CBB6AE8
:1033680020331A46FFF7A9FF30E0386A3B6A991CF8
:10337800BB6A1C331A46FFF7A0FF27E0386A3B6A8E
:10338800991CBB6A18331A46FFF797FF1EE0386A84
:103398003B6A991CBB6A14331A46FFF78EFF15E087
:1033A800386A3B6A991CBB6A10331A46FFF785FFD7
:1033B8000CE0386A3B6A991CBB6A0C331A46FFF763
:1033C8007CFF03E07B6A04225A7000BF3B6A1B88BB
:1033D800BA899A4209D13B6A981D3B6A191DBB6A92
:1033E80028331A46FFF754FF15E03B6A5B88BA8911
:1033F8009A4209D13B6A981D3B6A191DBB6A24335E
:103408001A46FFF745FF06E0BB6A5A883B6A9A806E
:103418007B6A04229A703B6A9A88FB691A803B6A25
:10342800B3F90620BB691A803B6A9B88002B04D03D
:10343800BB6A9A7A7B681A700CE03B6AB3F906306B
:10344800B7F90A209A420CBF01230023DBB21A46BF
:103458007B681A7000BF1037BD4680BD80B485B048
:1034680000AFB9607A603B600346FB81BB691A888C
:10347800BB681A807B68FA891A80BB699A783B68AE
:103488001A7000BF1437BD465DF8047B7047000012
:1034980080B5A6B000AF78607B6801225A60194BEE
:1034A800BB6000233B7300237B7307F108031846B6
:1034B800FEF7A4FF02467B68DA607B68DB681A21A6
:1034C8001846FEF747FB7B68DB6802211846FEF7C3
:1034D80005FD7B68DB681846FFF782FD034687F821
:1034E800973097F89730002B05D17B68DB6800216F
:1034F8001846FFF78DFD7B6801221A7200BF9837C6
:10350800BD4680BD0004004080B5A6B000AF78601D
:103518007B6801225A60194BBB6000233B73002370
:103528007B7307F108031846FEF768FF02467B68BD
:10353800DA607B68DB681A211846FEF70BFB7B68AC
:10354800DB6802211846FEF709FE7B68DB6818462F
:10355800FFF746FD034687F8973097F89730002B1A
:1035680005D17B68DB6800211846FFF751FD7B68B1
:1035780001221A7200BF9837BD4680BD0004004082
:1035880080B5A6B000AF78607B6801225A60194BFD
:10359800BB6000233B7300237B7307F108031846C5
:1035A800FEF72CFF02467B68DA607B68DB681A212D
:1035B8001846FEF7CFFA7B68DB6802211846FEF74B
:1035C80075FE7B68DB681846FFF70AFD034687F837
:1035D800973097F89730002B05D17B68DB6800217E
:1035E8001846FFF715FD7B6801221A7200BF98374D
:1035F800BD4680BD0004004098B500AFFFF7AEFDA2
:103608000D4B5B6F0D4A53600C4BDA8A0B4B9A8259
:103618000B4B9A6A01329A629B6A1846FCF71AFFAA
:10362800074BD3E90C23064CFCF78EFF02460B46EA
:10363800C4E9082300BF98BD681400203014002096
:1036480030150020B0B586B000AF324B1B6F18465E
:10365800FCF710FF304BD3E93023FDF7E7F90346B9
:10366800002B07D02B4B1B6F002B03DB2A4BD3E916
:103678002C2303E04FF000024FF00003C7E90223B8
:10368800244B1B6F1846FCF7F5FE04460D46224BEB
:10369800D3E92E014FF00002204BFCF79DFD0246B6
:1036A8000B4620462946FDF7D5F90346002B03D0E3
:1036B800184B00221A6704E0164B1B6F0133154A9A
:1036C80013674FF090437B604FF000024FF0000308
:1036D800D7E90201FDF7A0F90346002B02D1202308
:1036E8007B6101E000237B617B6919467868FFF7FD
:1036F80093FB7B69DB4303F0200319467868FFF7E7
:1037080099FB074B9A6B01329A6300BF1837BD4685
:10371800B0BD00BF68140020000000200000F03F8A
:10372800301500200000000080B500AF96494FF02A
:103738000002964BC1E91423934991A3D3E90023CE
:10374800C1E90C23904B924A9A608F4B914ADA60F8
:103758008D4B914A1A618C4B904A5A618A4B904A18
:103768005A608F4B8F4A1A608E4B8F4A1A608D4B66
:103778008E4A5A608B4B8D4A9A608A4B8C4ADA6023
:10378800884B8C4A1A61874B8B4A5A61854B8B4A06
:103798009A61844B8A4ADA61824B8A4A1A62814B5F
:1037A800894A5A627F4B894A9A627E4B874ADA6213
:1037B8007C4B864A1A637B4B854A5A63794B854A08
:1037C8009A63784B844ADA63764B784A1A64754B65
:1037D800764A5A64734B754A9A64724B7F4ADA6424
:1037E800704B724A1A656F4B704A5A656D4B6F4A37
:1037F8009A656C4B7A4ADA656A4B794A1A66694B5C
:10380800774A5A66674B774A9A66664B764ADA660B
:10381800644B764A1A67634B754A5A67614B754A17
:103828009A67604B744ADA675E4B744AC3F8802023
:103838005C4B734AC3F884205A4B724AC3F88820F9
:10384800584B714AC3F88C20564B704AC3F89020E5
:10385800544B6F4AC3F89420524B6D4AC3F89820D2
:10386800504B6B4AC3F89C204E4B5D4AC3F8A020CE
:103878004C4B5B4AC3F8A4204A4B664AC3F8A820BD
:10388800484B644AC3F8AC20464B624AC3F8B020A0
:10389800444B614AC3F8B420424B604AC3F8B8208D
:1038A800404B5F4AC3F8BC203E4B5E4AC3F8C02079
:1038B8003C4B5D4AC3F8C4203A4B5C4AC3F8C82065
:1038C800384B5B4AC3F8CC20364B5A4AC3F8D02051
:1038D800344B594AC3F8D420324B584AC3F8D8203D
:1038E800304B574AC3F8DC202E4B564AC3F8E02029
:1038F8002C4B544AC3F8E4202A4B524AC3F8E82018
:10390800284B444AC3F8EC20264B424AC3F8F0201F
:10391800244B4D4AC3F8F420224B4B4AC3F8F820F5
:10392800204B494AC3F8FC201E4B484AC3F80021E3
:103938001C4B474AC3F804211A4B464AC3F80821CE
:10394800184B454AC3F80C21164B444AC3F81021BA
:10395800144B434AC3F81421124B424AC3F81821A6
:10396800104B414AC3F81C210E4B404AC3F8202192
:103978000C4B3F4AC3F824217CE000BFAFF3008022
:10398800FCA9F1D24D62503F301500200000F0BF75
:10399800588ADB5C7DC86DD58D383034BC5A3D8D76
:1039A80090150020A4150020FC460108F6140020FC
:1039B800021500200115002000150020FF1400202A
:1039C800FE140020FD140020FC140020FB1400202D
:1039D800FA140020F9140020F8140020F71400202D
:1039E800F4140020131500201C1500201B150020BE
:1039F8001A15002019150020181500201715002089
:103A08001E1500201D150020161500201515002074
:103A180014150020F51400201F150020281500207B
:103A28002715002026150020251500202415002024
:103A3800231500202A150020291500202215002012
:103A48002115002020150020F31400200715002060
:103A5800101500200F1500200E1500200D15002050
:103A68000C1500200B150020121500201115002040
:103A78000A150020914B924AC3F828218F4B914A8E
:103A8800C3F82C218D4B8F4AC3F830218B4B8D4ABC
:103A9800C3F83421894B8C4AC3F83821874B8A4AAA
:103AA800C3F83C21854B894AC3F84021884A884B92
:103AB8005B6818329A60864A854B5B6808325A60A0
:103AC800834A834B5B682032DA60824B03F580536C
:103AD800D3F8F830804A53677E4B03F5805393F848
:103AE80048217D4B83F89B207A4B03F58053B3F82C
:103AF8003621794BA3F88220764BD3E934237649D3
:103B0800C1E91623734B03F58053B3F91421724BA3
:103B1800A3F880206F4B03F58053B3F838216E4B20
:103B2800A3F884206B4B03F58053B3F83A216A4B12
:103B3800A3F88620674B03F58053B3F83C21664B06
:103B4800A3F88820624B624A9B6AD363614B03F5F2
:103B58008053B3F82821604BA3F87E205D4BD3F83F
:103B680000315D4A53665B4BD3F8E0305A4A93669E
:103B7800584B03F5805393F83E21574B83F88A201E
:103B8800544BD3F8F030554A1361524BD3F8F43004
:103B9800524AD3604F4B03F58053D3F804314E4A51
:103BA800D3664C4B03F58053D3F8FC304B4A136073
:103BB800484BD3F8F830494A9360464B03F5805395
:103BC80093F84021454B1A76424BD3F80831424AC4
:103BD8001366404BD3E914233F49C1E914233E4BF4
:103BE80000225A603C4B00221A703B48FFF7D0FA7B
:103BF800394B00221A74384B00221A76364B0122B0
:103C08005A613748FFF702FB334B01221A76314BD2
:103C180003F58053B3F82421304BDA822C4B2C4A1D
:103C28009B6A13642B4B03F58053B3F82A212A4B64
:103C3800A3F87C202B492C48FFF753FB264B002286
:103C48005A64254B002283F840202848FFF720FCBF
:103C58001F4B1F4A9B6A53641E4B03F58053B3F8EE
:103C68002E211D4BA3F87A2021492248FFF739FB62
:103C7800194B00225A63184B002283F830201E4843
:103C8800FFF742FC124B124A9B6A9364114B03F5EF
:103C98008053B3F83221104BA3F8782017491848FD
:103CA800FFF71FFB0C4B00225A620B4B002283F8D4
:103CB80020201448FFF764FC00BF80BDA415002035
:103CC8000915002008150020F3140020FC460108FF
:103CD8003015002000000020681400203014002057
:103CE80078140020AE1100205A140020A8140020D7
:103CF8007E11002052140020981400204E1100203C
:103D08004A1400208814002080B500AF564B1B7859
:103D1800002B11D1544B01221A70534B5B68012BB5
:103D28000AD1514B1B7A002B06D04F4BDB6800227F
:103D380002211846FDF797FA4B4B1B7C002B27D125
:103D4800494B01221A74484B5B69012B20D1464B21
:103D58001B7E002B1CD0444BDB691846FFF7D8F9B3
:103D6800414BDB6900211846FDF7D6FF3E4BDB6966
:103D780004211846FEF702F93B4BDB69042118467B
:103D8800FEF79CF9384BDB6904211846FEF73AFA2E
:103D9800354B93F84030002B1DD1334B012283F86B
:103DA8004020314B5B6C012B15D12F4B93F84830D9
:103DB800002B10D02C4BDB6C1846FFF7A9F92A4BC7
:103DC800DB6C1A211846FDF7A7FF274BDB6C022195
:103DD8001846FEF7D3F8244B93F83030002B1DD14A
:103DE800214B012283F830201F4B5B6B012B15D12F
:103DF8001D4B93F83830002B10D01B4BDB6B18464B
:103E0800FFF786F9184BDB6B1A211846FDF784FF7C
:103E1800154BDB6B02211846FEF7F4F9124B93F8A9
:103E28002030002B1DD1104B012283F820200E4B8F
:103E38005B6A012B15D10C4B93F82830002B10D05E
:103E4800094BDB6A1846FFF763F9074BDB6A1A214F
:103E58001846FDF761FF044BDB6A02211846FEF79E
:103E680079FA00BF80BD00BF6814002080B500AF9C
:103E7800032208492120FEF71DFE1220FEF742FE0C
:103E8800022205492C20FEF715FE1D20FEF73AFEFA
:103E980000BF80BDA93E0008694E00080000000070
:103EA8002DE9B04F2DED028B9EB000AF4FF0A04032
:103EB800FEF777FE0346002B07D0CE48FDF790F8B3
:103EC8000346002B01D0012300E00023002B00F063
:103ED800A8874FF0A040FEF757FEC74B1B78DBB210
:103EE800012B40F09E87C54B93F99A3087F83F30F5
:103EF800002387F8773097F83F30042B1FD801A2AA
:103F080052F823F0213F0008293F0008313F0008FC
:103F1800393F0008413F0008002387F877300EE05A
:103F2800032387F877300AE0032387F8773006E021
:103F3800002387F8773002E0002387F8773097F975
:103F48007720AE4B83F89A20AC4B93F9993087F8D9
:103F58003E30002387F8763097F83E30042B20D87F
:103F680001A252F823F000BF853F00088D3F0008EA
:103F7800953F00089D3F0008A53F0008002387F8EB
:103F880076300EE0032387F876300AE0032387F8BB
:103F9800763006E0002387F8763002E0002387F8C1
:103FA800763097F97620954B83F89920934B93F9BF
:103FB800983087F83D30002387F8753097F83D3002
:103FC800042B20D801A252F823F000BFE93F0008D3
:103FD800F13F0008F93F00080140000809400008C7
:103FE800002387F875300EE0032387F875300AE060
:103FF800032387F8753006E0002387F8753002E060
:10400800002387F8753097F975207C4B83F8982042
:104018007A4B93F9973087F83C30002387F874304F
:1040280097F83C30042B20D801A252F823F000BFA7
:104038004D400008554000085D40000865400008F4
:104048006D400008002387F874300EE0032387F8DA
:1040580074300AE0032387F8743006E0002387F8F9
:10406800743002E0002387F8743097F97420634BAA
:1040780083F89720614B93F9963087F83B300023FB
:1040880087F8733097F83B30042B20D801A252F8F8
:1040980023F000BFB1400008B9400008C140000843
:1040A800C9400008D1400008002387F873300EE0AB
:1040B800032387F873300AE0032387F8733006E098
:1040C800002387F8733002E0002387F8733097F9EC
:1040D80073204A4B83F89620484B93F9953087F81C
:1040E8003A30002387F8723097F83A30042B20D8FA
:1040F80001A252F823F000BF154100081D41000835
:10410800254100082D41000835410008002387F8A3
:1041180072300EE0032387F872300AE0032387F831
:10412800723006E0002387F8723002E0002387F837
:10413800723097F97220314B83F895202F4B93F901
:10414800943087F83930002387F8713097F8393080
:10415800042B20D801A252F823F000BF79410008AF
:1041680081410008894100089141000899410008EF
:10417800002387F871300EE0032387F871300AE0D6
:10418800032387F8713006E0002387F8713002E0D6
:10419800002387F8713097F97120184B83F8942021
:1041A800164B93F9933087F83830002387F870302E
:1041B80097F83830042B26D801A252F823F000BF14
:1041C800DD410008E5410008ED410008F54100081F
:1041D80009420008002387F8703014E0032387F8A9
:1041E800703010E0032387F870300CE0002387F864
:1041F800703008E0EC120020F3160020681400204C
:10420800002387F8703097F97020C44B83F8932007
:10421800C24B93F9923087F83730002387F86F3014
:1042280097F83730042B20D801A252F823F000BFAA
:104238004D420008554200085D42000865420008EA
:104248006D420008002387F86F300EE0032387F8DB
:104258006F300AE0032387F86F3006E0002387F801
:104268006F3002E0002387F86F3097F96F20AB4B6F
:1042780083F89220A94B93F9913087F836300023C0
:1042880087F86E3097F83630042B20D801A252F800
:1042980023F000BFB1420008B9420008C14200083B
:1042A800C9420008D1420008002387F86E300EE0AA
:1042B800032387F86E300AE0032387F86E3006E0A0
:1042C800002387F86E3002E0002387F86E3097F9F4
:1042D8006E20924B83F89120904B93F9903087F899
:1042E8003530002387F86D3097F83530042B20D807
:1042F80001A252F823F000BF154300081D4300082F
:10430800254300082D43000835430008002387F89B
:104318006D300EE0032387F86D300AE0032387F839
:104328006D3006E0002387F86D3002E0002387F83F
:104338006D3097F96D20794B83F89020774B93F97E
:104348008F3087F83430002387F86C3097F8343092
:10435800042B20D801A252F823F000BF79430008AB
:1043680081430008894300089143000899430008E5
:10437800002387F86C300EE0032387F86C300AE0DE
:10438800032387F86C3006E0002387F86C3002E0DE
:10439800002387F86C3097F96C20604B83F88F20E6
:1043A8005E4B93F98E3087F83330002387F86B30F3
:1043B80097F83330042B20D801A252F823F000BF1D
:1043C800DD430008E5430008ED430008F543000815
:1043D800FD430008002387F86B300EE0032387F8BD
:1043E8006B300AE0032387F86B3006E0002387F878
:1043F8006B3002E0002387F86B3097F96B20474B4E
:1044080083F88E20464B464A9B6AD363434BDB684E
:104418003A4602211846FCF7C8FE404BB3F87E2006
:10442800404BDA823F4BDA8A3F4B03F58053B3F8AF
:10443800263113443B863C4B1B8A3A8E9A4208D954
:10444800394B03F58053B3F81C21344BA3F87E2075
:1044580003E0324A3B8EA2F87E30334BD3E91C018D
:104468004FF000024FF00003FCF7FEFA0346002B62
:1044780000F05581294B93F89D30002B08D12A4B29
:10448800D3F80031254A5366244B012283F89D2036
:10449800254BD3E91C014FF000024FF00003FCF755
:1044A800E3FA0346002B41D01C4B93F89E30002BB7
:1044B8000AD11D4B03F58053D3F80431174AD3664C
:1044C800164B012283F89E20174B03F58053D3F82F
:1044D8000031002298469146104BDB6E00221C46A4
:1044E800154618EB040A49EB050BC7E910ABD7E9E9
:1044F8001023012B05D34FF0FF324FF00003C7E91B
:1045080010233B6C074A1360064B1B68034AD366AB
:10451800024B042283F8952018E000BF681400209D
:10452800301500203014002000000020BC4B93F808
:104538009E30002B0AD0BB4B03F58053D3F8FC30D8
:10454800B94A1360B64B002283F89E20B64B1A680E
:10455800B44BDB689A4294BF01230023DBB21A46AE
:10456800B14B1A76B04B1A68AE4B03F58053D3F8AB
:1045780008319A4208D2AB4BD3F8D830FB64A84B29
:10458800042283F8992039E0A54B93ED1A7AA54BBC
:10459800D3ED377A77EE277AA14BC3ED1A7AA04B81
:1045A80093ED1A7A9F4BD3ED397AB4EEE77AF1EEB0
:1045B80010FA05DD9B4BD3F8E430994A93660FE077
:1045C800974B93ED1A7A974BD3ED3A7AB4EEE77A94
:1045D800F1EE10FA04D5934BD3F8E830904A93667D
:1045E800904B93ED3B7A8E4BD3ED1A7A67EE277A90
:1045F800C7ED137A8A4B042283F89820894B03F578
:10460800805393F84131002B75D1854B93F88A304C
:10461800002B0DD0834B93ED3F7AD7ED137A67EEDD
:10462800277A814BC3ED047A7D4B042283F89720C7
:104638007D4B93ED047A7A4BD3ED197A77EE277A8E
:10464800C7ED037AD7ED037AB0EE670A0DF028F8C4
:1046580087ED130A97ED130A01F04AFA0346002B77
:1046680006D197ED130A01F01DFA0346002B03D07B
:104678004FF00003FB6407E0DFED6C0A97ED130AC7
:104688000CF092FF87ED130A97ED037AD7ED137AB2
:10469800F5EEC07AF1EE10FA10D5D7ED137AF1EEF7
:1046A800677AFCEEE77A17EE903A9BB25B429BB2D0
:1046B8001BB207EE903AF8EEE77A0BE0D7ED137AE3
:1046C800FCEEE77A17EE903A9BB21BB207EE903AEF
:1046D800F8EEE77A77EE677A534BC3ED037A514BDE
:1046E80003F5805393F83F214D4B83F88A204C4BB8
:1046F800042283F896204B4B93ED417A4A4BD3ED35
:10470800037A67EE277A484BC3ED027A464BDB689B
:10471800434A5366424B042283F894201FE0404BDF
:1047280093F89D30002B1AD03D4B93F89E30002B08
:104738000AD03C4B03F58053D3F8FC303A4A136057
:10474800374B002283F89E20364B03F5805393F8AD
:104758004021354B1A76324B002283F89D20314B8D
:1047680003F5805393ED397A2F4BD3ED027A67EE38
:10477800277AC7ED037A2B4B93ED4C7AD7ED037A62
:10478800B4EEE77AF1EE10FA52DDD7ED037AB0EE27
:10479800670A0CF085FF87ED130A97ED130A01F0FD
:1047A80081F90346002B03D04FF00003FB6407E0B8
:1047B800DFED1E0A97ED130A0CF0F6FE87ED130ADB
:1047C80097ED037AD7ED137AF5EEC07AF1EE10FA89
:1047D80010D5D7ED137AF1EE677AFCEEE77A17EE8B
:1047E800903A9BB25B429BB21BB207EE903AF8EE4E
:1047F800E77A0BE0D7ED137AFCEEE77A17EE903AFA
:104808009BB21BB207EE903AF8EEE77A77EE677A3A
:10481800C7ED037A024B042283F8912058E000BFC9
:104828006814002000000020301400200000804799
:10483800D7ED037AB0EE670A0CF07AFF87ED130A1A
:1048480097ED130A01F054F90346002B06D197EDB2
:10485800130A01F027F90346002B03D04FF0000399
:10486800FB6407E05FED0F0A97ED130A0CF09CFE5E
:1048780087ED130A97ED037AD7ED137AF5EEC07A30
:10488800F1EE10FA10D5D7ED137AF1EE677AFCEE57
:10489800E77A17EE903A9BB25B429BB21BB207EEE7
:1048A800903AF8EEE77A0BE0D7ED137AFCEEE77A68
:1048B80017EE903A9BB21BB207EE903AF8EEE77A01
:1048C80077EE677AC7ED037A214B042283F89020AC
:1048D800204B03F5805393ED3A7AD7ED037A67EED0
:1048E800277AC7ED037AD7ED037AB0EE670A0CF0A2
:1048F8001FFF87ED130A97ED130A01F0F9F8034635
:10490800002B06D197ED130A01F0CCF80346002BD3
:1049180003D04FF00003FB6407E0DFED0F0A97EDCB
:10492800130A0CF041FE87ED130AD7ED137AF5EE62
:10493800C07AF1EE10FA11D5D7ED137AF1EE677A55
:10494800FCEEE77A17EE903A9BB25B429BB20CE022
:10495800681400200000002000008047D7ED137A7B
:10496800FCEEE77A17EE903A9BB23B8697ED037A16
:104978003B8E07EE903AF8EE677A77EE677AC7EDE6
:104988000B7AB14B03F58053B3F90E311A463B8EBF
:104998001344AD4A4E339B00134404331B68FB6435
:1049A800A94B03F58053B3F912311A463B8E1344D1
:1049B800A54A4E339B00134404331B68BB62A24BC9
:1049C800D3F83421A04BD3F838319F4901F58051F1
:1049D800B1F90C110846398E01449B484E318900C3
:1049E8000144043191ED007AD7ED137A37EE677AF6
:1049F800D7ED0B7A27EE277AD7ED137A37EE277A99
:104A0800914901F58051B1F910110846398E0144D8
:104A18008D484E31890001440431D1ED006AD7ED4B
:104A28000A7A76EEE76AD7ED0B7A66EEA76AD7EDD3
:104A38000A7A76EEA77A7A623B6207F10C03FB6189
:104A480007F10803BB6187ED057AC7ED047A97ED96
:104A5800097AD7ED047A27EE277AD7ED086AD7EDD9
:104A6800057A66EEA77A77EE677AFB69C3ED007A76
:104A780097ED097AD7ED057A27EE277AD7ED086AF8
:104A8800D7ED047A66EEA77A77EE277ABB69C3ED8D
:104A9800007A00BF6D4B1B7E002B00F0DB806A4B59
:104AA80093ED437AD7ED027A67EE277AC7ED0B7A52
:104AB800654B93ED447AD7ED037A67EE277AC7ED15
:104AC8000A7A9FED637AD7ED0A7A37EE677AD7EDDF
:104AD8000B7A37EE677A5C4BD3ED457A67EE277A27
:104AE800C7ED137A97ED0B7AD7ED0A7A37EE677A26
:104AF800554BD3ED467A67EE277AC7ED0A7A524BC3
:104B080093ED477AD7ED037A67EE277AC7ED0B7AEC
:104B1800D7ED0A0A97ED0B0A0CF06AFDF0EE407A21
:104B2800D7ED130AB0EE670A0CF062FDB0EE408ACA
:104B3800D7ED0A0A97ED0B0A0CF078FDF0EE407AF3
:104B4800D7ED130AB0EE670A0CF070FDF0EE407A6C
:104B580038EE277A3C4BD3ED487A67EE277AC7EDD3
:104B6800037A97ED037AD7ED0B7A37EE277A364B2F
:104B7800D3ED497A27EE277A334BD3ED4A7A67EE9D
:104B8800277A17EE900AFBF787FC2F4BD3E91623F9
:104B9800FBF724FB02460B46104619462A4BD3E97D
:104BA8001823FBF7D1FC02460B46C7E9182397EDFB
:104BB800037AD7ED0A7A37EE277A234BD3ED497A71
:104BC80027EE277A204BD3ED4A7A67EE277A17EE3D
:104BD800900AFBF761FC1C4BD3E91623FBF7FEFA9E
:104BE80002460B4610461946174BD3E91823FBF724
:104BF800ABFC02460B46C7E9162397ED037AD7EDBF
:104C0800137A37EE277A104BD3ED497A27EE277AB5
:104C18000D4BD3ED4A7A67EE277A17EE900AFBF729
:104C28003BFC094BD3E91623FBF7D8FA02460B469F
:104C380010461946044BD3E91823FBF785FC0246B6
:104C48000B46C7E9142329E0000000203014002097
:104C5800000000007C4B03F58053B3F81E31184662
:104C6800FBF7F8FB02460B46C7E91823764B03F51A
:104C78008053B3F81E311846FBF7ECFB02460B468F
:104C8800C7E91623704B03F58053B3F81E31184655
:104C9800FBF7E0FB02460B46C7E914236B4BDC69C4
:104CA800D7E91801FBF720FF034600EE103A20462B
:104CB800FEF75AF9654BDC69D7E91601FBF714FFD3
:104CC800034600EE103A2046FEF762F95F4BDC69B6
:104CD800D7E91401FBF708FF034600EE103A204617
:104CE800FEF76AF95A4B1B7E002B75D0574B93F889
:104CF8009C30002B08D1544BD3F80831534A136623
:104D0800524B012283F89C20514B93ED027A4E4B73
:104D1800D3ED007AB4EEE77AF1EE10FA53D84B4BA4
:104D280093ED187A484BD3ED017AB4EEE77AF1EEB9
:104D380010FA48DB444BD3E91001434BD3E9122363
:104D4800FBF792FE0346002B11D03F4BD3E9062315
:104D5800C7E918233C4BD3E908013B4BD3E90623A9
:104D6800FBF73AFA02460B46C7E9162309E0364B29
:104D7800D3E90A23C7E91823334BD3E90C23C7E93E
:104D880016234FF000024FF00003D7E91801FBF794
:104D9800DBFB02460B4614461D462C4BD3E9140197
:104DA800D7E91623FBF7D0FB02460B4620462946D7
:104DB800FBF714FA02460B462449C1E91423234B96
:104DC800042283F89320224B9B68204A13661F4BCA
:104DD800042283F8922007E01C4B002283F89C20D1
:104DE8001A4B042283F88F20184B042283F88E2054
:104DF800184BDB6B1846FBF72DFB11A3D3E90023F7
:104E0800FBF7A2FB02460B461349C1E90023124BEC
:104E180093ED007BB0EE470AF0EE670A0220FDF73B
:104E280059FDBFF36F8F00BFBFF34F8F00BF00BFA7
:104E38007837BD46BDEC028BBDE8B08FAFF300807C
:104E4800FCA9F1D24D62503F0000002068140020F8
:104E58003014002030150020281400200000000025
:104E680090B59DB006AFFDF738FEB864B748FDF7BA
:104E78007EFF0346002B07D0B548FCF717FE034614
:104E8800002B01D0012300E00023002B00F02A8230
:104E9800AE48FDF742FFAF4B1B78DBB2012B40F069
:104EA8002182AD4B93F9C23087F84730002387F849
:104EB800573097F84730042B1FD801A252F823F037
:104EC800DD4E0008E54E0008ED4E0008F54E0008DE
:104ED800FD4E0008002387F857300EE0032387F8BB
:104EE80057300AE0032387F8573006E0002387F895
:104EF800573002E0002387F8573097F95720964B30
:104F080083F8C220944B93F9BA3087F846300023CF
:104F180087F8563097F84630042B20D801A252F86B
:104F280023F000BF414F0008494F0008514F0008C7
:104F3800594F0008614F0008002387F856300EE0EB
:104F4800032387F856300AE0032387F8563006E033
:104F5800002387F8563002E0002387F8563097F987
:104F680056207D4B83F8BA207B4B93F9C03087F8E5
:104F78004530002387F8553097F84530042B20D862
:104F880001A252F823F000BFA54F0008AD4F00085A
:104F9800B54F0008BD4F0008C54F0008002387F82B
:104FA80055300EE0032387F855300AE0032387F8CD
:104FB800553006E0002387F8553002E0002387F8D3
:104FC800553097F95520644B83F8C020624B93F90C
:104FD800B93087F84430002387F8543097F84430C4
:104FE800042B20D801A252F823F000BF0950000872
:104FF80011500008195000082150000829500008D5
:10500800002387F854300EE0032387F854300AE071
:10501800032387F8543006E0002387F8543002E071
:10502800002387F8543097F954204B4B83F8B92064
:10503800494B93F9B83087F84330002387F8533049
:1050480097F84330042B20D801A252F823F000BF70
:105058006D500008755000087D5000088550000804
:105068008D500008002387F853300EE0032387F89B
:1050780053300AE0032387F8533006E0002387F80B
:10508800533002E0002387F8533097F95320324B0E
:1050980083F8B820304B93F9B73087F842300023B3
:1050A80087F8523097F84230042B20D801A252F8E2
:1050B80023F000BFD1500008D9500008E150000883
:1050C800E9500008F1500008002387F852300EE03C
:1050D800032387F852300AE0032387F8523006E0AA
:1050E800002387F8523002E0002387F8523097F9FE
:1050F8005220194B83F8B720174B93F98D3087F856
:105108004130002387F8513097F84130042B28D8D4
:1051180001A252F823F000BF355100083D510008A4
:10512800455100084D51000865510008002387F8D3
:10513800513016E0032387F8513012E0032387F833
:1051480051300EE0002387F851300AE00004004097
:1051580094130020F316002068140020002387F819
:10516800513097F95120B64B83F88D20B54BB54A8D
:105178009B6A1364B24BDB6C07F11402B249184600
:10518800FDF7C4F9B148FDF73BFE03467B61AF4824
:10519800FDF736FEF863AD48FDF732FEB8637B696C
:1051A80003F48073002B06D0A94B03F5805393F8C2
:1051B80042315B0000E00023FA6B02F04002002A53
:1051C80005D0A34A02F5805292F8452100E000225A
:1051D8001A44BB6BDB0803F0400313449B0987F8B0
:1051E800373097F83730013B052B1AD897F8373006
:1051F80098B2934B93F89B3099B2914BB3F98020B6
:1052080007F11104934B0493934B0393934B02932D
:1052180007F112030193924B00932346FEF77EF8A1
:105228000CE0874BB3F9800007F1110307F1120175
:105238008C4A00928A4AFEF711F900BF804BB3F8F6
:1052480082207F4BB3F87C30D31A9BB21A46804B2E
:1052580003F58053B3F8163102FB03F3784A53671A
:10526800774B5B6FDB0B9AB2754BA3F884207B7C82
:105278009AB2734BA3F88620754B03F58053B3F8A5
:105288002C216F4BA3F888206D4A97F8373082F8A5
:105298009B306F4BD3E91E236949C1E91623684B3C
:1052A800B3F88220664BA3F87C20654B042283F870
:1052B8008D20644B1B6C1846FBF7CCF85EA3D3E932
:1052C8000023FBF741F902460B466749C1E9002371
:1052D800654B93ED007BB0EE470AF0EE670A0320BA
:1052E800FDF7F8FA6148FDF755FD0346002B07D096
:1052F8005F48FCF7F7FB0346002B01D0012300E0D1
:105308000023002B00F01F815848FDF714FD594B6E
:105318001B78DBB2012B40F01681494B93F98C3096
:1053280087F83630002387F8503097F83630042B4A
:105338001FD801A252F823F0555300085D53000806
:10534800655300086D53000875530008002387F85B
:1053580050300EE0032387F850300AE0032387F823
:10536800503006E0002387F8503002E0002387F829
:10537800503097F95020324B83F88C20314B314A0A
:105388009B6A53642E4BDB6B07F10C022E491846BF
:10539800FDF705F92D48FDF733FD0346FB602B4863
:1053A800FDF72EFD38632948FDF72AFDF862FB68F2
:1053B80003F48073002B06D0254B03F5805393F834
:1053C80043315B0000E000233A6B02F04002002A00
:1053D80005D01F4A02F5805292F8462100E00022CB
:1053E8001A44FB6ADB0803F0400313449B0987F85F
:1053F8002B3097F82B30013B052B43D897F82B30EF
:1054080098B20F4B93F89B3099B20D4BB3F98020AB
:1054180007F10904184B0493184B0393184B029394
:1054280007F10A0301930E4B00932346FDF776FF1D
:1054380035E000BFAFF30080FCA9F1D24D62503FC8
:105448006814002030150020EA14002000080048E5
:1054580000000020AE110020201500205A14002062
:10546800E8140020AA11002028140020000400409D
:1054780094130020F31600207E110020141500203C
:1054880052140020844BB3F9800007F1090307F197
:105498000A01824A0092824AFDF7E0FF00BF7E4B74
:1054A800B3F882207C4BB3F87A30D31A9BB21A46F1
:1054B8007C4B03F58053B3F8183102FB03F3764AAB
:1054C8005367754B5B6FDB0B9AB2734BA3F8842061
:1054D8007B7A9AB2704BA3F88620724B03F58053FF
:1054E800B3F830216C4BA3F888206B4A97F82B301F
:1054F80082F89B306B4BD3E920236749C1E9162317
:10550800654BB3F88220644BA3F87A20624B0422DF
:1055180083F88C20644B5B6C1846FAF79BFF5CA3FE
:10552800D3E90023FBF710F802460B465F49C1E9AF
:1055380000235E4B93ED007BB0EE470AF0EE670A5E
:105548000420FDF7C7F95A48FDF737FC0346002B3E
:1055580007D05848FCF7E2FA0346002B01D0012394
:1055680000E00023002B00F011815148FDF7F1FB0A
:10557800514B1B78DBB2012B40F00881464B93F965
:105588008B3087F82A30002387F84F3097F82A3075
:10559800042B20D801A252F823F000BFB955000807
:1055A800C1550008C9550008D1550008D95500084B
:1055B800002387F84F300EE0032387F84F300AE0C6
:1055C800032387F84F3006E0002387F84F3002E0C6
:1055D800002387F84F3097F94F202F4B83F88B2003
:1055E800314B314A9B6A93642B4BDB6A3A1D334932
:1055F8001846FDF71DF83248FDF702FC03467B60AC
:105608002F48FDF7FDFB78622D48FDF7F9FB38625E
:105618007B6803F48073002B06D0224B03F580537C
:1056280093F844315B0000E000237A6A02F04002FC
:10563800002A05D01B4A02F5805292F8472100E063
:1056480000221A443B6ADB0803F0400313449B0919
:10565800FB77FB7F013B052B3AD8FB7F98B20E4BBB
:1056680093F89B3099B20C4BB3F980207C1C154BF6
:105678000493154B0393154B0293BB1C0193084BE2
:1056880000932346FDF74AFE2DE000BFAFF30080EC
:10569800FCA9F1D24D62503F681400207A11002015
:1056A800E8140020000000203015002028140020F5
:1056B8000004004094130020F3160020EA14002090
:1056C800000800484E110020081500204A14002048
:1056D800394BB3F980007B1CB91C384A0092384A10
:1056E800FDF7BCFE00BF344BB3F88220324BB3F851
:1056F8007830D31A9BB21A46324B03F58053B3F86D
:105708001A3102FB03F32C4A53672B4B5B6FDB0BFD
:105718009AB2294BA3F884207B789AB2264BA3F837
:105728008620284B03F58053B3F83421224BA3F885
:105738008820214AFB7F82F89B30224BD3E9222321
:105748001D49C1E916231C4BB3F882201A4BA3F854
:105758007820194B042283F88B201B4B9B6C18462E
:10576800FAF778FE12A3D3E90023FAF7EDFE024612
:105778000B461649C1E90023144B93ED007BB0EEAC
:10578800470AF0EE670A0520FDF7A4F8BFF36F8F0C
:1057980000BFBFF34F8F00BFBB6CBB61BB6983F316
:1057A800108800BF00BF5C37BD4690BDAFF30080D6
:1057B800FCA9F1D24D62503F681400204A11002024
:1057C800E8140020000000203015002028140020D4
:1057D80080B500AF1220FDF7B3F91D20FDF7B0F931
:1057E80000BF80BD0000000080B584B000AF4FF05E
:1057F80000024FF00003C7E90223414B1B785A1CF3
:10580800D1B23F4A1170002B09D03E4B01221A60D9
:105818003B4B1B78013BDAB2394B1A7066E03B1DF3
:105828001846FDF783FC62B600BF374B1B68D3E907
:105838000823C7E90223FDF7DFFE97ED020B0020DE
:10584800FDF748F872B600BF2D4B1B78013BDAB262
:105858002B4B1A707B79002B11D02C4B5B785A1C80
:10586800D1B22A4A5170002B09D0264B01221A6066
:10587800264B5B78013BDAB2244B5A7036E0234B57
:105888005B78002B32D01E4B5B78002B2DD11C4B44
:105898005B780133DAB21A4B5A7062B600BF1A4B02
:1058A8001B689B6B1846FAF7D5FD13A3D3E90023B1
:1058B800FAF74AFE02460B46C7E90223FDF7C2FE85
:1058C80097ED020B0120FDF705F800BF72B600BF87
:1058D8000E4B5B78013BDAB20C4B5A70084B5B7885
:1058E800013BDAB2064B5A7000E000BF1037BD46E4
:1058F80080BD00BFAFF300809A9999999999B93FF3
:10590800EC160020E8160020F8460108F0160020E2
:1059180080B586B000AF786039605C4B7B615C4BCA
:105928003B610023FB735B4B00221A705A4B002229
:105938001A7001DF0AF0DFF908F03EFE06F0BAF946
:1059480009F078FB09F01CFB08F0ECFF08F098FE62
:1059580009F08CF809F0C8F9504B1B6800221A604E
:1059680000210020FCF7ADFE0346FB7397F90F30CA
:10597800002B02D097F90F3084E0FEF777FAFDF795
:10598800D3FE72B600BF62B600BF444B1B685A68AC
:10599800424B1B68503319461046FCF7A1FE0346DC
:1059A800FB7397F90F30002B0DD14FF0FF30FCF748
:1059B8002BFFFDF73DF80346002B04D0374B1B683F
:1059C800012283F8582072B600BF97ED050A06F049
:1059D80063FAFDF739F80346002B0CD1FDF728F8D8
:1059E8000346002B07D12D4B1B6893F85830002B2A
:1059F80001D1012300E00023DAB2274B1A7062B606
:105A080000BF62B600BF2FE0FCF7E2FF0346FB735E
:105A1800FDF71AF80346002B0AD1FDF709F80346EB
:105A2800002B05D11D4B1B6893F85830002B01D073
:105A3800012300E00023DAB2164B1A70154B1B78CD
:105A4800DBB2002B0CBF01230023DBB21A46124B3A
:105A58001A70104B1B78DBB2002B05D0104B1B685B
:105A68000F4A23F0010313600B4B1B78DBB2002BAA
:105A7800CAD1FEF749F9FCF7BBFFFFF7A9FE72B6DA
:105A880000BF002318461837BD4680BD6F12833A01
:105A980000002A43F2160020F3160020F8460108F9
:105AA80010E000E080B483B000AF87ED010A0E4B30
:105AB800D3ED007A97ED017AB4EE677AF1EE10FA39
:105AC80009D00A4BD3ED007A97ED017AB4EE677AE4
