:020000040800F2
:100000000080012059E80008CBC80008D1C80008CA
:10001000D7C80008DDC80008E3C8000800000000D9
:1000200000000000000000000000000069A10008BE
:10003000E9C800080000000025A100084DA0000844
:10004000A9E80008A9E80008A9E80008A9E800084C
:10005000A9E80008A9E80008A9E80008A9E800083C
:10006000A9E80008A9E80008A9E80008A9E800082C
:10007000A9E80008A9E80008A9E80008A9E800081C
:10008000D5AE0008A9E80008812A00080000000099
:10009000000000000000000000000000A9E80008C7
:1000A000A9E80008A9E80008A9E80008A9E80008EC
:1000B000A9E80008A9E80008A9E80008A9E80008DC
:1000C000A9E80008A9E80008A9E80008A9E80008CC
:1000D000A9E80008A9E80008C1AE00080000000077
:1000E000A9E80008A9E80008A9E800080000000045
:1000F000000000000000000000000000A9E8000867
:1001000000000000A9E80008F9C80008A9E80008F4
:1001100000000000000000000000000000000000DF
:100120000DC90008A9E80008A9E80008A9E8000826
:10013000A9E8000800000000000000000000000026
:10014000000000000000000000000000A9E8000816
:10015000A9E80008A9E80008A9E80008A9E800083B
:10016000A9E80008A9E8000800000000000000005D
:10017000000000000000000000000000000000007F
:1001800000000000A9E800080000000000000000D6
:04019000A9E80008D2
:1001980081F0004102E000BF83F0004330B54FEA30
:1001A80041044FEA430594EA050F08BF90EA020F9D
:1001B8001FBF54EA000C55EA020C7FEA645C7FEA30
:1001C800655C00F0E2804FEA5454D4EB5555B8BF53
:1001D8006D420CDD2C4480EA020281EA030382EAC4
:1001E800000083EA010180EA020281EA0303362D56
:1001F80088BF30BD11F0004F4FEA01314FF4801C29
:100208004CEA113102D0404261EB410113F0004F3A
:100218004FEA03334CEA133302D0524263EB4303F1
:1002280094EA050F00F0A780A4F10104D5F1200E8F
:100238000DDB02FA0EFC22FA05F2801841F10001EA
:1002480003FA0EF2801843FA05F359410EE0A5F1BE
:1002580020050EF1200E012A03FA0EFC28BF4CF0EF
:10026800020C43FA05F3C01851EBE37101F00045A5
:1002780007D54FF0000EDCF1000C7EEB00006EEBB2
:100288000101B1F5801F1BD3B1F5001F0CD349083C
:100298005FEA30004FEA3C0C04F101044FEA445293
:1002A80012F5800F80F09A80BCF1004F08BF5FEA1A
:1002B800500C50F1000041EB045141EA050130BDFA
:1002C8005FEA4C0C404141EB0101013C28BFB1F50C
:1002D800801FE9D291F0000F04BF01460020B1FA57
:1002E80081F308BF2033A3F10B03B3F120020CDA2A
:1002F8000C3208DD02F1140CC2F10C0201FA0CF008
:1003080021FA02F10CE002F11402D8BFC2F1200C6C
:1003180001FA02F120FA0CFCDCBF41EA0C01904022
:10032800E41AA2BF01EB0451294330BD6FEA04046B
:100338001F3C1CDA0C340EDC04F11404C4F1200256
:1003480020FA04F001FA02F340EA030021FA04F368
:1003580045EA030130BDC4F10C04C4F1200220FABF
:1003680002F001FA04F340EA0300294630BD21FAFD
:1003780004F0294630BD94F0000F83F4801306BFC3
:1003880081F480110134013D4EE77FEA645C18BFB7
:100398007FEA655C29D094EA050F08BF90EA020F4E
:1003A80005D054EA000C04BF1946104630BD91EA46
:1003B800030F1EBF0021002030BD5FEA545C05D149
:1003C8004000494128BF41F0004130BD14F5800488
:1003D8003CBF01F5801130BD01F0004545F0FE41FC
:1003E80041F470014FF0000030BD7FEA645C1ABF31
:1003F800194610467FEA655C1CBF0B46024650EA68
:10040800013406BF52EA033591EA030F41F4002193
:1004180030BD00BF90F0000F04BF0021704730B519
:100428004FF4806404F132044FF000054FF00001EE
:1004380050E700BF90F0000F04BF0021704730B5AF
:100448004FF4806404F1320410F0004548BF404284
:100458004FF000013EE700BF42004FEAE2014FEAD9
:1004680031014FEA02701FBF12F07F4393F07F4FB4
:1004780081F06051704732F07F4208BF704793F0B7
:100488007F4F04BF41F40021704730B54FF46074CA
:1004980001F0004521F000411CE700BF50EA0102CD
:1004A80008BF704730B54FF000050AE050EA010276
:1004B80008BF704730B511F0004502D5404261EBE6
:1004C80041014FF4806404F132045FEA915C3FF427
:1004D800D8AE4FF003025FEADC0C18BF03325FEAC4
:1004E800DC0C18BF033202EBDC02C2F1200300FA75
:1004F80003FC20FA02F001FA03FE40EA0E0021FA9A
:1005080002F11444BDE600BF70B54FF0FF0C4CF487
:10051800E06C1CEA11541DBF1CEA135594EA0C0F39
:1005280095EA0C0F00F0DEF82C4481EA030621EA74
:100538004C5123EA4C5350EA013518BF52EA0335AF
:1005480041F4801143F4801338D0A0FB02CE4FF061
:100558000005E1FB02E506F00042E0FB03E54FF091
:100568000006E1FB03569CF0000F18BF4EF0010E89
:10057800A4F1FF04B6F5007F64F5407404D25FEA85
:100588004E0E6D4146EB060642EAC62141EA555138
:100598004FEAC52040EA5E504FEACE2EB4F1FD0C7A
:1005A80088BFBCF5E06F1ED8BEF1004F08BF5FEAF8
:1005B800500E50F1000041EB045170BD06F00046AA
:1005C80046EA010140EA020081EA0301B4EB5C0457
:1005D800C2BFD4EB0C0541EA045170BD41F480114F
:1005E8004FF0000E013C00F3AB8014F1360FDEBF74
:1005F800002001F0004170BDC4F10004203C35DA50
:100608000C341BDC04F11404C4F1200500FA05F3D2
:1006180020FA04F001FA05F240EA020001F0004273
:1006280021F0004110EBD37021FA04F642EB0601E9
:100638005EEA430E08BF20EAD37070BDC4F10C0413
:10064800C4F1200500FA04F320FA05F001FA04F2D7
:1006580040EA020001F0004110EBD37041F10001C3
:100668005EEA430E08BF20EAD37070BDC4F12005CE
:1006780000FA05F24EEA020E20FA04F301FA05F236
:1006880043EA020321FA04F001F0004121FA04F2DE
:1006980020EA020000EBD3705EEA430E08BF20EAAE
:1006A800D37070BD94F0000F0FD101F000464000E8
:1006B80041EB010111F4801F08BF013CF7D041EA6A
:1006C800060195F0000F18BF704703F0004652006E
:1006D80043EB030313F4801F08BF013DF7D043EA3F
:1006E8000603704794EA0C0F0CEA135518BF95EAF5
:1006F8000C0F0CD050EA410618BF52EA4306D1D17C
:1007080081EA030101F000414FF0000070BD50EA9A
:10071800410606BF1046194652EA430619D094EA24
:100728000C0F02D150EA013613D195EA0C0F05D10E
:1007380052EA03361CBF104619460AD181EA030162
:1007480001F0004141F0FE4141F470014FF000001A
:1007580070BD41F0FE4141F4780170BD70B54FF0B5
:10076800FF0C4CF4E06C1CEA11541DBF1CEA135535
:1007780094EA0C0F95EA0C0F00F0A7F8A4EB050417
:1007880081EA030E52EA03354FEA013100F088800E
:100798004FEA03334FF0805545EA131343EA1263D7
:1007A8004FEA022245EA111545EA10654FEA00268C
:1007B8000EF000419D4208BF964244F1FD0404F545
:1007C800407402D25B084FEA3202B61A65EB0305A1
:1007D8005B084FEA32024FF480104FF4002CB6EB5E
:1007E800020E75EB030E22BFB61A754640EA0C00DE
:1007F8005B084FEA3202B6EB020E75EB030E22BF1E
:10080800B61A754640EA5C005B084FEA3202B6EB5E
:10081800020E75EB030E22BFB61A754640EA9C001D
:100828005B084FEA3202B6EB020E75EB030E22BFED
:10083800B61A754640EADC0055EA060E18D04FEAAB
:10084800051545EA16754FEA06164FEAC30343EA4B
:1008580052734FEAC2025FEA1C1CC0D111F4801F18
:100868000BD141EA00014FF000004FF0004CB6E711
:1008780011F4801F04BF01430020B4F1FD0C88BFB0
:10088800BCF5E06F3FF6AFAEB5EB030C04BFB6EBBB
:10089800020C5FEA500C50F1000041EB045170BDAE
:1008A8000EF0004E4EEA113114EB5C04C2BFD4EBDB
:1008B8000C0541EA045170BD41F480114FF0000E5F
:1008C800013C90E645EA060E8DE60CEA135594EADB
:1008D8000C0F08BF95EA0C0F3FF43BAF94EA0C0FDE
:1008E8000AD150EA01347FF434AF95EA0C0F7FF453
:1008F80025AF104619462CE795EA0C0F06D152EAA7
:1009080003353FF4FDAE1046194622E750EA41068A
:1009180018BF52EA43067FF4C5AE50EA41047FF49B
:100928000DAF52EA43057FF4EBAE12E74FF0FF3C00
:1009380006E000BF4FF0010C02E000BF4FF0010CD1
:100948004DF804CD4FEA410C7FEA6C5C4FEA430C4A
:1009580018BF7FEA6C5C1BD001B050EA410C0CBF99
:1009680052EA430C91EA030F02BF90EA020F0020FB
:10097800704710F1000F91EA030F58BF994208BF62
:1009880090422CBFD8176FEAE37040F0010070471F
:100998004FEA410C7FEA6C5C02D150EA013C07D176
:1009A8004FEA430C7FEA6C5CD6D152EA033CD3D0C1
:1009B8005DF8040B704700BF8446104662468C46BB
:1009C8001946634600E000BF01B5FFF7B7FF0028EE
:1009D80048BF10F1000F01BD4DF808EDFFF7F4FF17
:1009E8000CBF012000205DF808FB00BF4DF808EDA2
:1009F800FFF7EAFF34BF012000205DF808FB00BFC5
:100A08004DF808EDFFF7E0FF94BF012000205DF8E6
:100A180008FB00BF4DF808EDFFF7CEFF94BF01209B
:100A280000205DF808FB00BF4DF808EDFFF7C4FF94
:100A380034BF012000205DF808FB00BF4FEA410CDD
:100A48007FEA6C5C02D150EA013C0AD14FEA430CC0
:100A58007FEA6C5C02D152EA033C02D14FF00000FD
:100A680070474FF0010070474A0011D212F500128A
:100A780011D20DD56FF47873B3EB62520ED44FEAEE
:100A8800C12343F0004343EA505323FA02F070476E
:100A98004FF00000704750EA013002D14FF0FF30AC
:100AA80070474FF0000070474FEA4102B2F1E0434F
:100AB80024BFB3F5001CDCF1FE5C0DD901F0004C3D
:100AC8004FEAC0024CEA5070B2F1004F40EB83008D
:100AD80008BF20F00100704711F0804F21D113F1B9
:100AE8003872BCBF01F00040704741F480114FEAF2
:100AF8005252C2F11802C2F1200C10FA0CF320FA7B
:100B080002F018BF40F001004FEAC1234FEAD32397
:100B180003FA0CFC40EA0C0023FA02F34FEA430301
:100B2800CCE77FEA625307D150EA01331EBF4FF08A
:100B3800FE4040F44000704701F0004040F0FE40A5
:100B480040F40000704700BF53B94AB9002908BFF4
:100B580000281CBF4FF0FF314FF0FF3000F00CB8F9
:100B6800ADF1080C6DE904CE0EF082F9DDF804E071
:100B7800DDE9022304B07047704700BF0348044B07
:100B8800834202D0034B03B118477047A8110020D5
:100B9800A8110020000000000548064B1B1AD90FB9
:100BA80001EBA301491002D0034B03B1184770476A
:100BB800A8110020A81100200000000010B5064C64
:100BC800237843B9FFF7DAFF044B13B10448AFF3B6
:100BD80000800123237010BDA81100200000000030
:100BE800C0F1000808B5054B1BB105490548AFF32E
:100BF8000080BDE80840FFF7CFBF00BF000000003D
:100C0800AC110020C0F1000880B483B000AF786058
:100C180039607B68DB6A23F470023B681A437B689F
:100C2800DA6200BF0C37BD465DF8047B704780B4BC
:100C380083B000AF786039607B689B6823F44072AA
:100C48003B681A437B689A6000BF0C37BD465DF865
:100C5800047B704780B483B000AF78607B689B6882
:100C680003F44013002B0CBF01230023DBB218460A
:100C78000C37BD465DF8047B704780B483B000AF85
:100C880078607B689B6843F001027B689A6000BFCC
:100C98000C37BD465DF8047B704780B483B000AF65
:100CA80078607B689B6823F001027B689A6000BFCC
:100CB8000C37BD465DF8047B704780B483B000AF45
:100CC80078607B689B6803F00103012B0CBF01234C
:100CD8000023DBB218460C37BD465DF8047B70472D
:100CE80080B483B000AF78607B689B6843F480026F
:100CF8007B689A6000BF0C37BD465DF8047B70477F
:100D080080B483B000AF78607B681B6803F004038D
:100D1800042B0CBF01230023DBB218460C37BD4659
:100D28005DF8047B704780B483B000AF78607B685F
:100D38006FF004021A6000BF0C37BD465DF8047BF3
:100D4800704780B483B000AF78607B685B6843F01D
:100D580020027B685A6000BF0C37BD465DF8047BF3
:100D6800704780B483B000AF78607B685B6843F0FD
:100D780080027B685A6000BF0C37BD465DF8047B73
:100D8800704780B483B000AF78607B685B6823F0FD
:100D980020027B685A6000BF0C37BD465DF8047BB3
:100DA800704780B483B000AF78607B685B6823F0DD
:100DB80080627B685A6000BF0C37BD465DF8047BD3
:100DC800704780B483B000AF78607B685B6823F0BD
:100DD80080027B685A6000BF0C37BD465DF8047B13
:100DE800704780B483B000AF78607B685B6823F09D
:100DF80040027B685A6000BF0C37BD465DF8047B33
:100E0800704780B483B000AF78607B685B6803F09C
:100E18008063B3F1806F0CBF01230023DBB2184657
:100E28000C37BD465DF8047B704780B483B000AFD3
:100E380078607B685B6803F04003402B0CBF01239C
:100E48000023DBB218460C37BD465DF8047B7047BB
:100E580080B584B000AF78600123FB817B681B6993
:100E68001846FFF7F7FE0346002B24D07B689B7AD1
:100E7800DBB2022B0CD07B689B7ADBB2082B07D045
:100E88007B681B691846FFF73BFF0346012B12D10D
:100E98007B689B7ADBB2082B03D17B6801229A72AC
:100EA80002E07B6820229A727B681B691846FFF76C
:100EB80017FF0023FB81FB8918461037BD4680BD0C
:100EC80080B487B000AFF8600B467A607B81FB681E
:100ED8003C333B6100237B610DE07B699B003A69F1
:100EE800134419687B695B007A6813448AB21A80D4
:100EF8007B6901337B617B897A699A42EDDB00BFAC
:100F080000BF1C37BD465DF8047B704780B485B0D0
:100F180000AFF860B9607A603B6000BF1437BD4627
:100F28005DF8047B704780B485B000AFF860B960A5
:100F38007A6000BF1437BD465DF8047B704780B502
:100F480084B000AF78607B681B691846FFF7D8FE4D
:100F58000346FB73FB7B012B07D17B681B69184693
:100F6800FFF7E1FE7B6802229A72FB7B1846103776
:100F7800BD4680BD80B483B000AF78600B46FB707F
:100F880000BF0C37BD465DF8047B704790B589B04B
:100F980002AFF860084611461A4603467B810B46A5
:100FA8003B811346FB8000237B61FB681B693D4A3C
:100FB800934201D13C4B7B617B69002B6CD0FB6871
:100FC8001A697B691A617B690022DA71FB88012B37
:100FD80062D03B89002B48D07B695B7ADBB2082B57
:100FE80043D0FB68DA687B69DA60FB681A687B695A
:100FF8001A60FB685A697B695A61FB689A797B6950
:101008009A71FB681A797B691A717B691B69B96ADD
:101018001846FFF7F9FD7B89012B22D07B89042B29
:1010280017D17B691B694FF440711846FFF7FFFD24
:101038007B6918697B6959697B699B791C467B695F
:10104800DA687B691B68009313462246FFF75EFF48
:1010580007E07B89022B04D17B691B691846FFF7DF
:1010680070FE7B6908225A7216E03B89002B13D167
:101078007B699B7ADBB2082B0ED0FB685A797B69B7
:101088005A717B89022B04D17B691B691846FFF7CB
:1010980068FE7B6908229A727B6918461C37BD4630
:1010A80090BD00BF00200140C411002080B582B06F
:1010B80000AF78607B681B691846FFF7FEFD0346A2
:1010C800002B04D17B681B691846FFF7D6FD00BFCB
:1010D8000837BD4680BD80B586B000AFF8600B46C6
:1010E8007A607B810123FB82FB681B69002B4BD054
:1010F8007B89012B05D1F868FFF7AAFE0346FB821E
:1011080042E07B89042B24D1FB681B691846FFF752
:10111800A1FD0346002B37D0FB6801229A72FB68B9
:101128001B691846FFF7DCFD00BFFB689B7ADBB242
:10113800022BFAD1FB681869FB685B799BB27A6865
:101148001946FFF7BDFEFB6808229A720023FB824E
:101158001AE07B89022B17D1FB689B7ADBB2202B24
:1011680004D0FB689B7ADBB2022B0DD1FB68082206
:101178009A72FB681869FB685B799BB27A681946B2
:10118800FFF79EFE0023FB82FB8A18461837BD46F0
:1011980080BD80B582B000AF78600B467B80134677
:1011A8003B807B681B691846FFF787FD0346002BC9
:1011B80004D07B681B691846FFF76FFD7B681B69C5
:1011C8001846FFF732FE0346002B04D07B681B69E4
:1011D8001846FFF706FE7B681B691846FFF711FEE5
:1011E8000346002B04D07B681B691846FFF7D9FD1E
:1011F8003B88002B35D07B88012B1AD07B88022BAB
:1012080005D17B681B691846FFF7BBFD11E07B8899
:10121800042B0ED17B6818697B6859697B689B79B8
:101228001A46FFF780FE7B681B6900211846FFF706
:10123800FEFC7B680022DA607B6800221A607B680B
:1012480000225A617B6800229A717B6800221A7119
:101258007B681A697B681B7919461046FFF7D4FC2E
:101268000AE07B6800225A717B88022B04D17B68D4
:101278001B691846FFF7A5FD00BF0837BD4680BDAE
:1012880080B485B000AF78607B681B6803F06003AA
:10129800FB60FB68002B04D17B681B6803F010031C
:1012A800FB60FB6818461437BD465DF8047B704741
:1012B80080B483B000AF78607B681B6B18460C372E
:1012C800BD465DF8047B704780B483B000AF78609A
:1012D80039607B681A6A3B681A437B681A6200BFE8
:1012E8000C37BD465DF8047B704780B483B000AF0F
:1012F800786039607B681A6A3B68DB431A407B6810
:101308001A6200BF0C37BD465DF8047B704780B495
:1013180083B000AF78607B685B6C43F400427B6805
:101328005A6400BF0C37BD465DF8047B704780B433
:1013380083B000AF78607B68DB6843F001027B68AC
:10134800DA6000BF0C37BD465DF8047B704780B497
:1013580083B000AF78607B68DB6823F001027B68AC
:10136800DA6000BF0C37BD465DF8047B704780B477
:1013780083B000AF78607B68DB6803F00103012B62
:1013880001D1012300E0002318460C37BD465DF863
:10139800047B704780B483B000AF78607B68DB68FB
:1013A80043F002027B68DA6000BF0C37BD465DF887
:1013B800047B704780B483B000AF78607B68DB68DB
:1013C80023F002027B68DA6000BF0C37BD465DF887
:1013D800047B704780B483B000AF78607B68DB68BB
:1013E80003F00203022B01D1012300E00023184679
:1013F8000C37BD465DF8047B704780B483B000AFFE
:1014080078607B68DB6843F004027B68DA6000BFC1
:101418000C37BD465DF8047B704780B483B000AFDD
:1014280078607B68DB6823F004027B68DA6000BFC1
:101438000C37BD465DF8047B704780B483B000AFBD
:1014480078607B68DB6803F00403042B01D1012377
:1014580000E0002318460C37BD465DF8047B704752
:1014680080B483B000AF78607B68DB6843F0080223
:101478007B68DA6000BF0C37BD465DF8047B7047B7
:1014880080B483B000AF78607B68DB6823F0080223
:101498007B68DA6000BF0C37BD465DF8047B704797
:1014A80080B483B000AF78607B68DB6803F0080322
:1014B800082B01D1012300E0002318460C37BD4654
:1014C8005DF8047B704780B483B000AF78607B68B8
:1014D800DB6843F010027B68DA6000BF0C37BD465A
:1014E8005DF8047B704780B483B000AF78607B6898
:1014F800DB6823F010027B68DA6000BF0C37BD465A
:101508005DF8047B704780B483B000AF78607B6877
:10151800DB6803F01003102B01D1012300E0002346
:1015280018460C37BD465DF8047B704780B483B01D
:1015380000AF78607B68DB6843F020027B68DA6084
:1015480000BF0C37BD465DF8047B704780B483B09C
:1015580000AF78607B68DB6823F020027B68DA6084
:1015680000BF0C37BD465DF8047B704780B483B07C
:1015780000AF78607B68DB6803F02003202B01D183
:10158800012300E0002318460C37BD465DF8047BB4
:10159800704780B483B000AF78607B68DB6843F045
:1015A80040027B68DA6000BF0C37BD465DF8047BFB
:1015B800704780B483B000AF78607B68DB6823F045
:1015C80040027B68DA6000BF0C37BD465DF8047BDB
:1015D800704780B483B000AF78607B68DB6803F045
:1015E8004003402B01D1012300E0002318460C37AB
:1015F800BD465DF8047B704780B483B000AF786067
:101608007B68DB6843F080027B68DA6000BF0C37D8
:10161800BD465DF8047B704780B483B000AF786046
:101628007B68DB6823F080027B68DA6000BF0C37D8
:10163800BD465DF8047B704780B483B000AF786026
:101648007B68DB6803F08003802B01D1012300E075
:10165800002318460C37BD465DF8047B704780B5FB
:1016680082B000AF78600B467B807B8803F0010373
:10167800002B0CD07B681B681846FFF7AAFF0346AF
:10168800012B04D07B681B681846FFF782FF7B8814
:1016980003F00203002B0CD07B681B681846FFF789
:1016A80099FE0346012B04D07B681B681846FFF798
:1016B80071FE7B8803F00403002B0CD07B681B6849
:1016C8001846FFF7BAFE0346012B04D07B681B6857
:1016D8001846FFF792FE7B8803F00803002B0CD016
:1016E8007B681B681846FFF7DBFE0346012B04D016
:1016F8007B681B681846FFF7B3FE7B8803F010036E
:10170800002B0CD07B681B681846FFF7FCFE0346CD
:10171800012B04D07B681B681846FFF7D4FE7B8832
:1017280003F02003002B0CD07B681B681846FFF7DA
:101738001EFE0346012B04D07B681B681846FFF782
:10174800F6FD7B8803F04003002B0CD07B681B68F8
:101758001846FFF771FF0346012B04D07B681B680E
:101768001846FFF749FF7B8803F08003002B0CD055
:101778007B681B681846FFF7F9FE0346012B04D067
:101788007B681B681846FFF7D1FE00BF0837BD46C7
:1017980080BD80B582B000AF78600B467B807B88C7
:1017A80003F00103002B0CD07B681B681846FFF779
:1017B80010FF0346012B04D17B681B681846FFF70E
:1017C800F8FE7B8803F00203002B0CD07B681B68B3
:1017D8001846FFF7FFFD0346012B04D17B681B6801
:1017E8001846FFF7E7FD7B8803F00403002B0CD0B5
:1017F8007B681B681846FFF720FE0346012B04D1BF
:101808007B681B681846FFF708FE7B8803F008030F
:10181800002B0CD07B681B681846FFF741FE034677
:10182800012B04D17B681B681846FFF729FE7B88CB
:1018380003F01003002B0CD07B681B681846FFF7D9
:1018480062FE0346012B04D17B681B681846FFF72C
:101858004AFE7B8803F02003002B0CD07B681B68B2
:101868001846FFF784FD0346012B04D07B681B68EC
:101878001846FFF76CFD7B8803F04003002B0CD063
:101888007B681B681846FFF7D7FE0346012B04D177
:101898007B681B681846FFF7BFFE7B8803F0800350
:1018A800002B0CD07B681B681846FFF75FFE0346C9
:1018B800012B04D17B681B681846FFF747FE00BF61
:1018C8000837BD4680BD000080B582B000AF7860A3
:1018D8000B46FB70FB78022B06D17B681B68012145
:1018E8001846FFF7F1FC1DE07B681B680F4A93421E
:1018F80018D1FB78032B06D17B681B680421184696
:10190800FFF7E2FC0EE0FB78042B0BD17B681B6829
:1019180001211846FFF7D8FC7B681B68042118468C
:10192800FFF7D2FC00BF0837BD4680BD000001406C
:1019380080B582B000AF78600B46FB70FB78022B55
:1019480006D17B681B6801211846FFF7CEFC1DE015
:101958007B681B680F4A934218D1FB78032B06D18A
:101968007B681B6804211846FFF7BFFC0EE0FB7874
:10197800042B0BD17B681B6801211846FFF7B5FCC7
:101988007B681B6804211846FFF7AFFC00BF0837C7
:10199800BD4680BD0000014080B582B000AF7860D0
:1019A8000B46FB70FB78022B06D17B681B68102165
:1019B8001846FFF789FC1DE07B681B680F4A9342B5
:1019C80018D1FB78032B06D17B681B684021184689
:1019D800FFF77AFC0EE0FB78042B0BD17B681B68C1
:1019E80010211846FFF770FC7B681B6840211846D9
:1019F800FFF76AFC00BF0837BD4680BD0000014004
:101A080080B582B000AF78600B46FB70FB78022B84
:101A180006D17B681B6810211846FFF766FC1DE09D
:101A28007B681B680F4A934218D1FB78032B06D1B9
:101A38007B681B6840211846FFF757FC0EE0FB78CF
:101A4800042B0BD17B681B6810211846FFF74DFC4F
:101A58007B681B6840211846FFF747FC00BF083722
:101A6800BD4680BD0000014080B582B000AF7860FF
:101A78000B46FB70FB78022B07D17B681B684FF481
:101A880080711846FFF720FC20E07B681B68114A2C
:101A980093421BD1FB78032B07D17B681B684FF45B
:101AA80080611846FFF710FC10E0FB78042B0DD17D
:101AB8007B681B684FF480711846FFF705FC7B684C
:101AC8001B684FF480611846FFF7FEFB00BF08371C
:101AD800BD4680BD0000014080B582B000AF78608F
:101AE8000B46FB70FB78022B07D17B681B684FF411
:101AF80080711846FFF7F9FB20E07B681B68114AE4
:101B080093421BD1FB78032B07D17B681B684FF4EA
:101B180080611846FFF7E9FB10E0FB78042B0DD134
:101B28007B681B684FF480711846FFF7DEFB7B6803
:101B38001B684FF480611846FFF7D7FB00BF0837D2
:101B4800BD4680BD0000014080B584B000AF78601C
:101B58000023FB607B681B681C4A934201D11C4B25
:101B6800FB607B681A68FB681A60FB681B6818468C
:101B7800FFF786FBB860BB68002B06D0BB68102B4C
:101B880003D0FB6801221A7102E0FB6800221A7177
:101B9800FB681B680D4A934204D1FB681B68184612
:101BA800FFF7B5FBFB681B68084A934208D17B68BE
:101BB8001B681846FFF77CFB0346DAB2FB685A71CC
:101BC800FB6818461037BD4680BD00BF00000140C5
:101BD800E011002080B485B000AF78603960002340
:101BE800FB7397F90F3018461437BD465DF8047B30
:101BF8007047000080B584B000AF7860396000237A
:101C0800FB727B68002B05D1374802F06CF84FF067
:101C1800FF3365E03B68002B05D1344802F063F8D8
:101C28004FF0FF335CE0324BD3E900014FF0000284
:101C38004FF04043FEF7D0FE0346002B06D03B682A
:101C4800D3E900232A49C1E9002305E0284BD3E959
:101C580000233968C1E90023254BD3E900014FF07F
:101C68000002244BFEF7B8FE0346002B02D02248A0
:101C780002F039F87B685B681B68204A13607B6850
:101C88005B685B681E4A13607B685B689B681D4ADB
:101C980013607B685B68DB681B4A13601B4B002280
:101CA8001A6002F091FC0023FB600023FB6007E050
:101CB800174AFB68174942F82310FB680133FB6099
:101CC800FB68012BF4D902F0C9F80346FB7297F9B7
:101CD8000B30002B02D1104B01221A7097F90B30F0
:101CE80018461037BD4680BDD8F10008FCF1000841
:101CF800C81000200000F0BF28F20008D813002008
:101D0800DC130020E0130020E4130020E813002077
:101D18006C12002039460008D513002080B586B023
:101D280000AF78600023FB7500233B610023FB7341
:101D38002A4B1B78DBB2002B0CBF01230023DBB23C
:101D4800BB73274B02221A707B68002B0BD1234BE5
:101D58001B78DBB2002B06D1224B1B78DBB2002BA1
:101D680001D1012300E00023FB7316E00A2008F0EC
:101D78006DF83B6903F51C5310333B617B68B3F185
:101D8800FF3F05D03A697B689A4201D9012300E0F8
:101D98000023FB73002002F0AFF8104B1B78DBB276
:101DA800002B07D10F4B1B78DBB2002B02D1FB7B3A
:101DB800002BDBD00A4B03221A70FB7B002B01D0CF
:101DC8009C23FB75BB7B002B01D002F02BFD97F900
:101DD800173018461837BD4680BD00BFD313002002
:101DE800D5130020D413002080B586B000AF034679
:101DF80087ED000BFB810023FB750123BB754FF0BA
:101E080000024FF00003D7E90001FEF7EFFD03469B
:101E1800002B05D02E4801F066FF4FF0FF3353E04A
:101E2800FB89FF2B08D9FB89FF221946294801F0B5
:101E38005AFF4FF0FF3347E0274B1B78DBB2032BE9
:101E480004D0254B1B78DBB2012B02D1224B042294
:101E58001A70FB89012B15D8FB89204A52F82330C8
:101E6800002B0FD003F0A8F803467B757B7D022B6F
:101E780008D1FB89194A52F82330FA891046984745
:101E88000346BB75FB897B82FB89184697ED000BDF
:101E980001F046FFBB7D002B06D07B8A184603F075
:101EA80063F80346FB7503E07B8A184603F0BFF826
:101EB80097F91730002B05D097F9173019460848BD
:101EC80001F011FF97F9173018461837BD4680BD45
:101ED80094F20008D8F20008D51300206C120020F4
:101EE80018F3000880B582B000AF0023FB71002012
:101EF80002F002F80346FB7197F9073018460837D5
:101F0800BD4680BD80B582B000AF0023FB710B4B8E
:101F180006221A7002F08EF80346FB71082200218F
:101F280007480DF009F902F003FC044B00221A706F
:101F380097F9073018460837BD4680BDD5130020ED
:101F48006C12002080B400AF034B1B78DBB218463C
:101F5800BD465DF8047B7047D413002080B400AF01
:101F6800034B1B78DBB21846BD465DF8047B70470F
:101F7800EC13002080B483B000AF03463960FB71D6
:101F880097F90730002B0ADB3B68DAB20C4997F95E
:101F980007301201D2B20B4483F800230AE03B68F1
:101FA800DAB20849FB7903F00F03043B1201D2B2FD
:101FB8000B441A7600BF0C37BD465DF8047B7047AA
:101FC80000E100E000ED00E080B584B000AFF8600B
:101FD800B9607A60FB68DBB20F3BDBB25BB2796851
:101FE8001846FFF7C7FF00BF1037BD4680BD80B455
:101FF80085B000AFEFF310837B607B68FB60012343
:10200800BB60BB6883F3108800BFFB6818461437B1
:10201800BD465DF8047B704780B483B000AF0346CB
:10202800FB7197F90730002B0BDBFB7903F01F02DC
:10203800074997F907305B09012000FA02F241F8D5
:10204800232000BF0C37BD465DF8047B704700BFF6
:1020580000E100E080B483B000AF0346FB7197F95C
:102068000730002B12DBFB7903F01F020A4997F9AE
:1020780007305B09012000FA02F2203341F82320DF
:10208800BFF34F8F00BFBFF36F8F00BF00BF0C3788
:10209800BD465DF8047B704700E100E080B483B082
:1020A80000AF78607B686FF004021A6000BF0C37DD
:1020B800BD465DF8047B704780B483B000AF78609C
:1020C8007B685B6803F08003802B0CBF012300232F
:1020D800DBB218460C37BD465DF8047B704780B408
:1020E80083B000AF78607B681B6843F001027B68AF
:1020F8001A6000BF0C37BD465DF8047B704780B49A
:1021080083B000AF78607B681B6823F001027B68AE
:102118001A6000BF0C37BD465DF8047B704780B479
:1021280083B000AF786039607B681B6823F00402D5
:102138003B681A437B681A6000BF0C37BD465DF8E0
:10214800047B704780B483B000AF78607B681B68FD
:1021580003F0040318460C37BD465DF8047B70474E
:1021680080B483B000AF78607B68DB6A18460C37B0
:10217800BD465DF8047B704780B483B000AF7860DB
:1021880039607B683A681A6300BF0C37BD465DF852
:10219800047B704780B483B000AF786039607B6897
:1021A8003A685A6300BF0C37BD465DF8047B704738
:1021B80080B483B000AF786039607B683A689A630E
:1021C80000BF0C37BD465DF8047B704780B483B010
:1021D80000AF786039607B683A68DA6300BF0C3713
:1021E800BD465DF8047B704780B483B000AF78606B
:1021F8007B685B6B18460C37BD465DF8047B7047FF
:1022080080B483B000AF78607B689B6B18460C374E
:10221800BD465DF8047B704780B483B000AF78603A
:102228007B68DB6B18460C37BD465DF8047B70474E
:1022380080B483B000AF78607B685B6943F00102CB
:102248007B685A6100BF0C37BD465DF8047B704758
:1022580080B584B000AF786087ED000AD7ED007ACA
:10226800F5EEC07AF1EE10FA03D54FF000033B60AB
:102278000AE0D7ED007A9FED167AF4EEC77AF1EE10
:1022880010FA01DD134B3B607B681B681846FFF7AB
:1022980067FFF8607B681B79002B0CBF01230023C4
:1022A800DBB21A46FB68134407EE903AB8EE677A39
:1022B800D7ED007A27EE277ADFED056AC7EE267A92
:1022C800FCEEE77A17EE903A18461037BD4680BD07
:1022D8000000C8420000C84280B582B000AF7860F4
:1022E80039607B681B681846FFF77EFF02463B682B
:1022F800934205D07B681B6839681846FFF74AFF88
:1023080000BF0837BD4680BD80B582B000AF786099
:1023180039607B681B681846FFF772FF02463B6806
:10232800934205D07B681B6839681846FFF740FF61
:1023380000BF0837BD4680BD80B582B000AF786069
:1023480039607B681B681846FFF766FF02463B68E2
:10235800934205D07B681B6839681846FFF736FF3B
:1023680000BF0837BD4680BD80B584B000AF786037
:1023780087ED000A97ED000A7868FFF769FFF860B3
:10238800F9687868FFF7A8FF00BF1037BD4680BD21
:1023980080B584B000AF786087ED000A97ED000A39
:1023A8007868FFF755FFF860F9687868FFF7ACFFC1
:1023B80000BF1037BD4680BD80B584B000AF7860DF
:1023C80087ED000A97ED000A7868FFF741FFF8608B
:1023D800F9687868FFF7B0FF00BF1037BD4680BDC9
:1023E80080B485B000AF78607B681B689B6803F099
:1023F8000703FB60FB68062B0CBF01230023DBB23D
:1024080018461437BD465DF8047B704780B584B024
:1024180000AF78600B46FB707B681B681846FFF7B7
:1024280091FEF860FB78002B0AD07B681B681E4A77
:10243800934205D17B681B6800211846FFF79CFE74
:10244800FB68042B11D07B681B6804211846FFF732
:1024580066FE7B681B681846FFF7EAFE7B681B6808
:10246800F9681846FFF75BFE04E07B681B681846AE
:10247800FFF7DEFE7B681B681846FFF730FEFB7827
:10248800002B0CD07B681B68074A934207D17B68F6
:102498001A687B685B7919461046FFF76DFE00BF26
:1024A8001037BD4680BD00BF0000014080B582B036
:1024B80000AF78607B681B681846FFF720FE00BFF6
:1024C8000837BD4680BD000080B58CB002AF78608B
:1024D8007B6800221A727B6801225A600023BB6164
:1024E80000233B74174BFB6100233B620023BB7442
:1024F800002387F82430012387F825300323FB6065
:1025080003237B7407F10C004FF40013009302239C
:1025180000220221FEF73AFD02467B68DA607B68FA
:10252800DB681846FEF7C2FD7B68DB6800211846A9
:10253800FEF720FD7B6801221A7200BF2837BD46CE
:1025480080BD00BF0020014080B5A6B000AF786014
:102558001D4BBB6000233B7300237B7307F108030B
:102568001846FFF7F1FA02467B68DA607B68DB6899
:1025780000211846FFF773F87B68DB6804211846CA
:10258800FFF7A2F97B68DB6804211846FFF704FA15
:102598007B68DB6804211846FFF766FA7B68DB680E
:1025A8001846FFF71DFF034687F8973097F89730CE
:1025B800002B05D17B68DB6801211846FFF726FF51
:1025C80000BF9837BD4680BD0000014080B5A6B069
:1025D80000AF78601D4BBB6000233B7300237B7307
:1025E80007F108031846FFF7AFFA02467B68DA607E
:1025F8007B68DB6800211846FFF731F87B68DB68E9
:1026080004211846FFF760F97B68DB680421184647
:10261800FFF7C2F97B68DB6804211846FFF724FA44
:102628007B68DB681846FFF7DBFE034687F89730C0
:1026380097F89730002B05D17B68DB680121184695
:10264800FFF7E4FE00BF9837BD4680BD000001409B
:1026580098B500AF0D4B9B680C4A53600B4B5A8BD7
:102668000A4B1A830A4B9A6A01329A629B6A184685
:10267800FDF7D0FE064BD3E90C23054CFDF744FFCC
:1026880002460B46C4E9082300BF98BD801200200B
:10269800001300200000000098B500AF98494FF0E3
:1026A8000002984BC1E91023954993A3D3E900236D
:1026B800C1E90C23924B944A9A60914B934ADA6091
:1026C8008F4B934A1A618E4B924A5A618C4B924AAD
:1026D8005A60914B914A1A60904B914A1A608F4BFD
:1026E800904A5A608D4B8F4A9A608C4B8D4ADA60BB
:1026F8008A4B8D4A1A61894B8C4A5A61874B8C4A9E
:102708009A61864B8B4ADA61844B8B4A1A62834BF7
:102718008A4A5A62814B8A4A9A62804B894ADA62AB
:102728007E4B884A1A637D4B864A5A637B4B864A9E
:102738009A637A4B854ADA63784B854A1A64774BF1
:10274800784A5A64754B774A9A64744B754ADA64C6
:10275800724B804A1A65714B724A5A656F4B714ABF
:102768009A656E4B6F4ADA656C4B6D4A1A666B4B0D
:102778006B4A5A66624A624B5B6818329A60604AD2
:102788005F4B5B6808325A605D4A5D4B5B6820327C
:10279800DA605B4B5A4A9B6A93636F4B03F580532D
:1027A800B3F8B8206D4BA3F848206B4BD3F8A8308A
:1027B8006A4AD363684BD3F88830684A1364664B17
:1027C80003F5805393F8BA20644B83F84A20624B90
:1027D800D3F89830624A53615F4BD3F89C30604A13
:1027E80013615D4B03F58053D3F89C305B4A536407
:1027F800594B03F58053D3F89430594A1360564B1C
:10280800D3F8A030564AD360534B03F5805393F85E
:10281800BC20534B1A77504BD3F8B0304F4A9363D0
:102828004D4BD3E914234D49C1E90C234B4B0022EE
:102838005A604A4B00221A704848FFF745FE474B3A
:10284800002283F82020454B002283F82820434BA0
:1028580001225A624348FFF777FE404B012283F872
:1028680028203D4B03F58053B3F8B4203C4B5A83E2
:10287800394BD3F8D4303A4A9360384B00221A7453
:10288800364B00221A76354B01225A613648FFF73B
:102898009DFE324B01221A76304BDC692E4BD3E970
:1028A8001E2310461946FEF7FFF8034600EE103ABD
:1028B8002046FFF759FD294BDC69274BD3E91E2336
:1028C80010461946FEF7F0F8034600EE103A204687
:1028D800FFF75EFD214BDC691F4BD3E91E23104631
:1028E8001946FEF7E1F8034600EE103A2046FFF7D6
:1028F80063FD00BF98BD00BF7B14AE47E17A843FFB
:10290800001300200000F0BF2620738DFA45884A86
:10291800C928E76D8611DD8250130020641300205A
:10292800641A0108EB120020F7120020F6120020AA
:10293800F5120020F4120020F3120020F2120020F9
:10294800F1120020F0120020EF120020EE120020F9
:10295800ED120020EC12002000000020A012002040
:1029680080120020C0120020B012002080B500AFF5
:10297800394B1B78002B11D1374B01221A70364B7B
:102988005B68012B0AD1344B1B7A002B06D0324BE3
:10299800DB68002202211846FEF7FBFB2E4B93F85A
:1029A8002030002B29D12C4B012283F820202A4BE0
:1029B8005B6A012B21D1284B93F82830002B1CD0BF
:1029C800254BDB6A1846FFF771FD234BDB6A0021B4
:1029D8001846FEF7DEFE204BDB6A04211846FEF798
:1029E800A7FF1D4BDB6A04211846FFF709F81A4BAD
:1029F800DB6A04211846FFF76FF8174B1B7C002B86
:102A080027D1154B01221A74134B5B69012B20D176
:102A1800114B1B7E002B1CD00F4BDB691846FFF7B0
:102A280045FD0D4BDB6900211846FEF7B2FE0A4B47
:102A3800DB6904211846FEF77BFF074BDB6904219D
:102A48001846FEF7DDFF044BDB6904211846FFF743
:102A580043F800BF80BD00BFA012002080B500AFC2
:102A6800022204492120FFF7AFFA1220FFF7D4FA17
:102A780000BF80BD812A00082DE9B04F2DED028BE3
:102A8800A0B000AFFFF7B3FA7864D148FFF714FBA2
:102A98000346002B07D0CF48FEF751FA0346002B18
:102AA80001D0012300E00023002B00F0B287C848C2
:102AB800FFF7F4FAC84B1B78DBB2012B40F0A9876B
:102AC800C64B93F9573087F84330002387F87F3097
:102AD80097F84330042B20D801A252F823F000BF06
:102AE800FD2A0008052B00080D2B0008152B0008EF
:102AF8001D2B0008002387F87F300EE0032387F89A
:102B08007F300AE0032387F87F3006E0002387F848
:102B18007F3002E0002387F87F3097F97F20AF4BA2
:102B280083F85720AD4B93F9563087F8423000238D
:102B380087F87E3097F84230042B20D801A252F84B
:102B480023F000BF612B0008692B0008712B0008D7
:102B5800792B0008812B0008002387F87E300EE0CF
:102B6800032387F87E300AE0032387F87E3006E0E7
:102B7800002387F87E3002E0002387F87E3097F93B
:102B88007E20964B83F85620944B93F9553087F85E
:102B98004130002387F87D3097F84130042B20D846
:102BA80001A252F823F000BFC52B0008CD2B000866
:102BB800D52B0008DD2B0008E52B0008002387F83B
:102BC8007D300EE0032387F87D300AE0032387F881
:102BD8007D3006E0002387F87D3002E0002387F887
:102BE8007D3097F97D207D4B83F855207B4B93F9F9
:102BF800543087F84030002387F87C3097F840300D
:102C0800042B20D801A252F823F000BF292C000879
:102C1800312C0008392C0008412C0008492C0008E8
:102C2800002387F87C300EE0032387F87C300AE025
:102C3800032387F87C3006E0002387F87C3002E025
:102C4800002387F87C3097F97C20644B83F8542064
:102C5800624B93F9533087F83F30002387F87B3075
:102C680097F83F30042B20D801A252F823F000BF78
:102C78008D2C0008952C00089D2C0008A52C000818
:102C8800AD2C0008002387F87B300EE0032387F87B
:102C98007B300AE0032387F87B3006E0002387F8BF
:102CA8007B3002E0002387F87B3097F97B204B4B81
:102CB80083F85320494B93F9523087F83E3000236C
:102CC80087F87A3097F83E30042B20D801A252F8C2
:102CD80023F000BFF12C0008F92C0008012D000892
:102CE800092D0008112D0008002387F87A300EE01E
:102CF800032387F87A300AE0032387F87A3006E05E
:102D0800002387F87A3002E0002387F87A3097F9B1
:102D18007A20324B83F85220304B93F9513087F8A0
:102D28003D30002387F8793097F83D30042B20D8C0
:102D380001A252F823F000BF552D00085D2D0008B0
:102D4800652D00086D2D0008752D0008002387F8F3
:102D580079300EE0032387F879300AE0032387F8F7
:102D6800793006E0002387F8793002E0002387F8FD
:102D7800793097F97920194B83F85120174B93F93B
:102D8800503087F83C30002387F8783097F83C308B
:102D9800042B28D801A252F823F000BFB92D00084F
:102DA800C12D0008C92D0008D12D0008E92D000803
:102DB800002387F8783016E0032387F8783012E08C
:102DC800032387F878300EE0002387F878300AE08C
:102DD80000200140C4110020D2130020A0120020BE
:102DE800002387F8783097F97820C44B83F850206F
:102DF800C24B93F94F3087F83B30002387F8773080
:102E080097F83B30042B20D801A252F823F000BFDA
:102E18002D2E0008352E00083D2E0008452E0008EE
:102E28004D2E0008002387F877300EE0032387F83B
:102E380077300AE0032387F8773006E0002387F825
:102E4800773002E0002387F8773097F97720AB4B8B
:102E580083F84F20A94B93F94E3087F83A30002376
:102E680087F8763097F83A30042B20D801A252F828
:102E780023F000BF912E0008992E0008A12E00080B
:102E8800A92E0008B12E0008002387F876300EE03E
:102E9800032387F876300AE0032387F8763006E0C4
:102EA800002387F8763002E0002387F8763097F918
:102EB8007620924B83F84E20904B93F94D3087F84B
:102EC8003930002387F8753097F83930042B20D82B
:102ED80001A252F823F000BFF52E0008FD2E0008CD
:102EE800052F00080D2F0008152F0008002387F86C
:102EF80075300EE0032387F875300AE0032387F85E
:102F0800753006E0002387F8753002E0002387F863
:102F1800753097F97520794B83F84D20774B93F9E5
:102F28004C3087F83830002387F8743097F83830F9
:102F3800042B20D801A252F823F000BF592F000813
:102F4800612F0008692F0008712F0008792F0008E9
:102F5800002387F874300EE0032387F874300AE002
:102F6800032387F8743006E0002387F8743002E002
:102F7800002387F8743097F97420604B83F84C204D
:102F88005E4B93F94B3087F83730002387F873305E
:102F980097F83730042B20D801A252F823F000BF4D
:102FA800BD2F0008C52F0008CD2F0008D52F000819
:102FB800DD2F0008002387F873300EE0032387F81D
:102FC80073300AE0032387F8733006E0002387F89C
:102FD800733002E0002387F8733097F97320474B6A
:102FE80083F84B20464B464A9B6A9363434BDB6806
:102FF8003A1D02211846FEF76EF8404BB3F84820F8
:10300800404B5A833F4B5A8B3F4B03F58053B3F8E1
:10301800B6301344BB863C4B1B8ABA8E9A4208D9F9
:10302800394B03F58053B3F8AC20344BA3F8482050
:1030380003E0324ABB8EA2F84830334BD3E91C0177
:103048004FF000024FF00003FDF7EEFC0346002BA3
:1030580000F05581294B93F85930002B08D12A4BA1
:10306800D3F8A830254AD363244B012283F859208A
:10307800254BD3E91C014FF000024FF00003FDF788
:10308800D3FC0346002B41D01C4B93F85A30002B3D
:103098000AD11D4B03F58053D3F89C30174A53646B
:1030A800164B012283F85A20174B03F58053D3F8A7
:1030B8009830002298469146104B5B6C00221C46C3
:1030C800154618EB040A49EB050BC7E912ABD7E91B
:1030D8001223012B05D34FF0FF324FF00003C7E94D
:1030E8001223BB6C074A1360064B1B68034A5364E0
:1030F800024B042283F8522018E000BFA0120020DF
:10310800001300208012002000000020BC4B93F820
:103118005A30002B0AD0BB4B03F58053D3F89430B8
:10312800B94A1360B64B002283F85A20B64B1A6886
:10313800B44BDB689A4294BF01230023DBB21A46E2
:10314800B14B1A77B04B1A68AE4B03F58053D3F8DE
:10315800A0309A4208D2AB4BD3F880307B65A84B9D
:10316800042283F8562039E0A54B93ED107AA54B3D
:10317800D3ED217A77EE277AA14BC3ED107AA04BD5
:1031880093ED107A9F4BD3ED237AB4EEE77AF1EE04
:1031980010FA05DD9B4BD3F88C30994A13640FE085
:1031A800974B93ED107A974BD3ED247AB4EEE77AE8
:1031B800F1EE10FA04D5934BD3F89030904A13648B
:1031C800904B93ED257A8E4BD3ED107A67EE277AE4
:1031D800C7ED157A8A4B042283F85520894B03F5ED
:1031E800805393F8BD30002B75D1854B93F84A3046
:1031F800002B0DD0834B93ED297AD7ED157A67EE26
:10320800277A814BC3ED057A7D4B042283F854203D
:103218007D4B93ED057A7A4BD3ED0F7A77EE277ACB
:10322800C7ED047AD7ED047AB0EE670A0BF0ECFB31
:1032380087ED150A97ED150A00F03EFD0346002BB1
:1032480006D197ED150A00F011FD0346002B03D0B7
:103258004FF000037B6507E0DFED6C0A97ED150A78
:103268000BF056FB87ED150A97ED047AD7ED157A22
:10327800F5EEC07AF1EE10FA10D5D7ED157AF1EE29
:10328800677AFCEEE77A17EE903A9BB25B429BB204
:103298001BB207EE903AF8EEE77A0BE0D7ED157A15
:1032A800FCEEE77A17EE903A9BB21BB207EE903A23
:1032B800F8EEE77A77EE677A534BC3ED047A514B11
:1032C80003F5805393F8BB204D4B83F84A204C4BB1
:1032D800042283F853204B4B93ED2B7A4A4BD3EDC2
:1032E800047A67EE277A484BC3ED037A464B1B698D
:1032F800434AD363424B042283F851201FE0404BDA
:1033080093F85930002B1AD03D4B93F85A30002BC4
:103318000AD03C4B03F58053D3F894303A4A1360F3
:10332800374B002283F85A20364B03F5805393F825
:10333800BC20354B1A77324B002283F85920314B89
:1033480003F5805393ED237A2F4BD3ED037A67EE81
:10335800277AC7ED047A2B4B93ED367AD7ED047AAA
:10336800B4EEE77AF1EE10FA52DDD7ED047AB0EE5A
:10337800670A0BF049FB87ED150A97ED150A00F06F
:1033880075FC0346002B03D04FF000037B6507E074
:10339800DFED1E0A97ED150A0BF0BAFA87ED150A4C
:1033A80097ED047AD7ED157AF5EEC07AF1EE10FABA
:1033B80010D5D7ED157AF1EE677AFCEEE77A17EEBD
:1033C800903A9BB25B429BB21BB207EE903AF8EE82
:1033D800E77A0BE0D7ED157AFCEEE77A17EE903A2C
:1033E8009BB21BB207EE903AF8EEE77A77EE677A6F
:1033F800C7ED047A024B042283F84E2058E000BF40
:10340800A012002000000020801200200000804749
:10341800D7ED047AB0EE670A0BF03EFB87ED150A8C
:1034280097ED150A00F048FC0346002B06D197EDEE
:10343800150A00F01BFC0346002B03D04FF00003D5
:103448007B6507E05FED0F0A97ED150A0BF060FA50
:1034580087ED150A97ED047AD7ED157AF5EEC07A5F
:10346800F1EE10FA10D5D7ED157AF1EE677AFCEE89
:10347800E77A17EE903A9BB25B429BB21BB207EE1B
:10348800903AF8EEE77A0BE0D7ED157AFCEEE77A9A
:1034980017EE903A9BB21BB207EE903AF8EEE77A35
:1034A80077EE677AC7ED047A214B042283F84D2022
:1034B800204B03F5805393ED247AD7ED047A67EE19
:1034C800277AC7ED047AD7ED047AB0EE670A0BF0D5
:1034D800E3FA87ED150A97ED150A00F0EDFB0346B0
:1034E800002B06D197ED150A00F0C0FB0346002B10
:1034F80003D04FF000037B6507E0DFED0F0A97ED7F
:10350800150A0BF005FA87ED150AD7ED157AF5EED1
:10351800C07AF1EE10FA11D5D7ED157AF1EE677A87
:10352800FCEEE77A17EE903A9BB25B429BB20CE056
:10353800A01200200000002000008047D7ED157A77
:10354800FCEEE77A17EE903A9BB2BB8697ED047AC9
:10355800BB8E07EE903AF8EE677A77EE677AC7ED9A
:103568000C7AB54B03F58053B3F9AA301A46BB8ED3
:103578001344B14A38339B00134404331B687B65FA
:10358800AD4B03F58053B3F9A8301A46BB8E1344EC
:10359800A94A38339B001344043393ED007AD7EDDE
:1035A800157A37EE677AD7ED0C7A27EE277AD7EDBA
:1035B800157A77EE277AA14BC3ED027A9E4B03F575
:1035C8008053B3F9A6301A46BB8E13449A4A38334F
:1035D8009B00134404331B687B65974BD3F8DC10BE
:1035E800954BD3F8E020944B03F58053B3F9A430FE
:1035F8001846BB8E0344904838339B000344043379
:1036080093ED007AD7ED157A37EE677AD7ED0C7A15
:1036180027EE277AD7ED157A77EE277A874B9B68BE
:10362800F962BA6207F110027A6207F10C023A6293
:10363800C7ED077ABB6197ED0B7AD7ED067A27EECF
:10364800277AD7ED0A6AD7ED077A66EEA77A77EE7A
:10365800677A7B6AC3ED007A97ED0B7AD7ED077A24
:1036680027EE277AD7ED0A6AD7ED067A66EEA77AAB
:1036780077EE277A3B6AC3ED007A00BF6F4B1B7F5A
:10368800002B00F0DF806C4B93ED2D7AD7ED037A99
:1036980067EE277AC7ED0C7A674B93ED2E7AD7ED54
:1036A800047A67EE277AC7ED037AD7ED037A9FEDA0
:1036B800647A37EE677AD7ED0C7A37EE677A5E4B25
:1036C800D3ED2F7A67EE277AC7ED157AD7ED037A0F
:1036D80097ED0C7A37EE677A574BD3ED307A67EE71
:1036E800277AC7ED037A544B93ED317AD7ED047AF4
:1036F80067EE277AC7ED0C7AD7ED037AF0EE670A02
:1037080097ED0C0A0BF028F9F0EE407AD7ED150A80
:10371800B0EE670A0BF020F9B0EE408AD7ED037AD5
:10372800F0EE670A97ED0C0A0BF034F9F0EE407AE8
:10373800D7ED150AB0EE670A0BF02CF9F0EE407AD7
:1037480038EE277A3C4BD3ED327A67EE277AC7ED0D
:10375800047A97ED047AD7ED0C7A37EE277A364B50
:10376800D3ED337A27EE277A334BD3ED347A67EEED
:10377800277A17EE900AFCF76FFE2F4BD3E9162332
:10378800FCF70CFD02460B46104619462A4BD3E9B6
:103798001823FCF7B9FE02460B46C7E91A2397ED32
:1037A800037AD7ED047A37EE277A234BD3ED337AB1
:1037B80027EE277A204BD3ED347A67EE277A17EE77
:1037C800900AFCF749FE1C4BD3E91623FCF7E6FCEC
:1037D80002460B4610461946174BD3E91823FCF747
:1037E80093FE02460B46C7E9182397ED047AD7EDF6
:1037F800157A37EE277A104BD3ED337A27EE277AEE
:103808000D4BD3ED347A67EE277A17EE900AFCF762
:1038180023FE094BD3E91623FCF7C0FC02460B46EE
:1038280010461946044BD3E91823FCF76DFE0246EF
:103838000B46C7E9162329E000000020801200206B
:10384800000000007E4B03F58053B3F8AE301846F5
:10385800FCF7E0FD02460B46C7E91A23784B03F54F
:103868008053B3F8AE301846FCF7D4FD02460B4639
:10387800C7E91823724B03F58053B3F8AE301846E6
:10388800FCF7C8FD02460B46C7E916236D4BDC6AF8
:10389800D7E91A01FDF708F9034600EE103A204669
:1038A800FEF762FD674BDC6AD7E91801FDF7FCF803
:1038B800034600EE103A2046FEF76AFD614BDC6ACB
:1038C800D7E91601FDF7F0F8034600EE103A204656
:1038D800FEF772FD5C4B1B7F002B75D0594B93F89C
:1038E8005830002B08D1564BD3F8B030554A936363
:1038F800544B012283F85820534B93ED037A504BD5
:10390800D3ED007AB4EEE77AF1EE10FA53D84D4BC6
:1039180093ED0E7A4A4BD3ED017AB4EEE77AF1EEE5
:1039280010FA48DB464BD3E91001454BD3E9122383
:10393800FDF77AF80346002B11D0414BD3E9062353
:10394800C7E91A233E4BD3E908013D4BD3E90623C7
:10395800FCF722FC02460B46C7E9182309E0384B5E
:10396800D3E90A23C7E91A23354BD3E90C23C7E95E
:1039780018234FF000024FF00003D7E91A01FCF7B3
:10398800C3FD02460B4614461D462E4BD3E90C01D7
:10399800D7E91823FCF7B8FD02460B46204629460E
:1039A800FCF7FCFB02460B462649C1E90C23254BD4
:1039B800042283F85020244BDB68224A9363214B6E
:1039C800042283F84F2007E01E4B002283F858207A
:1039D8001C4B042283F84C201A4B042283F84B20FA
:1039E8001A4B9B6B1846FCF715FD13A3D3E900236C
:1039F800FCF78AFD02460B461549C1E90023144B22
:103A080093ED007BB0EE470AF0EE670A0120FEF75F
:103A1800EBF9BFF36F8F00BFBFF34F8F00BF7B6C15
:103A28007B617B6983F3108800BF00BF8037BD4688
:103A3800BDEC028BBDE8B08F7B14AE47E17A843FC2
:103A480000000020A0120020801200200013002097
:103A58007812002080B500AF1220FEF7FBFA00BFF5
:103A680080BD000080B582B000AF4FF000024FF07B
:103A78000003C7E90023164B1B785A1CD1B2144A1D
:103A88001170002B09D0134B01221A60104B1B78C0
:103A9800013BDAB20E4B1A7016E062B600BF0E4B4D
:103AA8001B68D3E90823C7E90023FEF7D1FD97ED8A
:103AB800000B0020FEF798F972B600BF044B1B7884
:103AC800013BDAB2024B1A700837BD4680BD00BF11
:103AD800D0130020CC130020601A010880B586B0EE
:103AE80000AF786039605B4B7B615B4B3B610023C7
:103AF800FB735A4B00221A70594B00221A7001DFCF
:103B080009F004FE08F014FB06F0B8F908F00AFE04
:103B180008F0DCFD08F058FD08F08AFC08F058FBB6
:103B2800504B1B6800221A6000210020FEF752F853
:103B38000346FB7397F90F30002B02D097F90F302B
:103B480084E0FEF78BFFFEF7A7FD72B600BF62B6F2
:103B580000BF444B1B685A68424B1B6840331946E8
:103B68001046FEF747F80346FB7397F90F30002B12
:103B78000DD14FF0FF30FEF7D1F8FEF7E3F9034619
:103B8800002B04D0374B1B68012283F8482072B6FB
:103B980000BF97ED050A06F065FAFEF7DFF9034660
:103BA800002B0CD1FEF7CEF90346002B07D12D4B85
:103BB8001B6893F84830002B01D1012300E0002353
:103BC800DAB2274B1A7062B600BF62B600BF2FE0A8
:103BD800FEF788F90346FB73FEF7C0F90346002B8E
:103BE8000AD1FEF7AFF90346002B05D11D4B1B6820
:103BF80093F84830002B01D0012300E00023DAB20B
:103C0800164B1A70154B1B78DBB2002B0CBF012327
:103C18000023DBB21A46124B1A70104B1B78DBB22A
:103C2800002B05D0104B1B680F4A23F001031360CB
:103C38000B4B1B78DBB2002BCAD1FEF797FEFEF7C1
:103C480061F9FFF707FF72B600BF0023184618375F
:103C5800BD4680BD0AD7233C0000A842D1130020EE
:103C6800D2130020601A010810E000E080B483B08D
:103C780000AF87ED010A0E4BD3ED007A97ED017A7C
:103C8800B4EE677AF1EE10FA09D00A4BD3ED007A58
:103C980097ED017AB4EE677AF1EE10FA01D10123BB
:103CA80000E0002318460C37BD465DF8047B7047DA
:103CB800C0100020C410002080B483B000AF87ED8E
:103CC800010A97ED017AD7ED017AB4EE677AF1EE41
:103CD80010FA01D7012300E0002318460C37BD462F
:103CE8005DF8047B70470FB480B400AF00BFBD46D9
:103CF8005DF8047B04B0704780B485B000AFF8600D
:103D0800B9607A60FB68BA681A60FB6804337A683D
:103D18001A6000BF1437BD465DF8047B7047000089
:103D2800F0B58BB000AF87ED020B0346FB80FB8834
:103D3800002B77D14FF00002414BD7E90201FCF785
:103D4800E3FB02460B46C7E906239FED391B97EDB7
:103D5800060B0AF0A7FD53EC102B10461946FCF78A
:103D680083FE03467B6100237B6233A3D3E90023F0
:103D7800D7E90601FCF758FE0346002B0ED02EA308
:103D8800D3E90023D7E90601FCF7E8FC02460B4615
:103D980010461946FCF768FE03467B627A6A796921
:103DA8002848FFF7A9FF284BD3E900014FF000028C
:103DB800264BFCF711FE0346002B2ED1224BD3E9EC
:103DC80000014FF000024FF04043FCF705FE0346A8
:103DD800002B22D11C4BD3E90001D7E90223FCF7C1
:103DE800DBF902460B4614461D464FF00002184BFD
:103DF800D7E90201FCF788FB02460B4601210E4673
:103E080020462946FCF7F2FD0346002B01D100238A
:103E18001E46F3B21A460F4B1A700F49D7E9022310
:103E2800C1E9002300BF2C37BD46F0BDAFF30080C9
:103E3800000000000000F0410000E0FFFFFFEF413C
:103E480000408F40F8130020C81000200000F0BF89
:103E58000000B03CEC1300200014002080B584B0B2
:103E680000AF0023BB6000237B600023FB731F4966
:103E78004FF000024FF00003C1E900233A1D07F19B
:103E880008031146184605F0B3FFBB687A68114667
:103E9800184604F0D3F80346FB7397F90F30002B4C
:103EA80005D01348FFF71FFF97F90F301AE03A1DA6
:103EB80007F108031146184605F0B1FFBB687A6898
:103EC8001146184600F054FF0346FB7397F90F306C
:103ED800002B05D097F90F3019460648FFF703FF66
:103EE80097F90F3018461037BD4680BDF0130020F3
:103EF80094F40008BCF4000880B584B000AF034611
:103F0800FB710023FB730023BB73002005F09EFFA9
:103F180000237B7304F060FA0346FB7397F90F30B4
:103F2800002B0DD097F90F3013F1020F08D097F935
:103F38000F3019463C48FFF7D6FE0123BB730BE050
:103F48007B7B002B04D197F90F3013F1020F01D0BE
:103F5800012300E000237B73BB7B002B21D100F001
:103F680039FF0346FB7397F90F30002B0DD097F9F3
:103F78000F3013F1020F08D097F90F3019462B486C
:103F8800FFF7B1FE0123BB730BE07B7B002B04D151
:103F980097F90F3013F1020F01D0012300E000233D
:103FA8007B73BB7B002B21D104F0A0F90346FB7384
:103FB80097F90F30002B0DD097F90F3013F1020F3E
:103FC80008D097F90F3019461948FFF78CFE0123DE
:103FD800BB730BE07B7B002B04D197F90F3013F1F7
:103FE800020F01D0012300E000237B73FB79002B33
:103FF8000DD0002005F02AFFBB7B002B02D17B7B74
:10400800002B01D1012300E00023BB7301E0012351
:10401800BB73BB7B002B3FF47BAF97F90F3018467F
:104028001037BD4680BD00BFE4F400081CF5000849
:104038004CF5000880B582B000AF0023BB70394B47
:104048001B78DBB2002B02D0002000F0E1FF00F06B
:10405800B3FF0346FB7000237B600EE00A2005F0E7
:10406800F5FE7B6803F51C5310337B600120FFF7D6
:1040780043FF00F0A1FF0346FB707B682A4A934286
:1040880002D8FB78002BE9D100F0A2FF0346BB70F1
:1040980097F90230002B05D097F9023019462348CA
:1040A800FFF721FE04F012FB0346BB7097F90230BC
:1040B800002B05D097F9023019461D48FFF713FE6B
:1040C8001C4B00221A701C4B00221A701B4B00223A
:1040D8001A601B4B00221A601A4B00221A601A4BF6
:1040E80000221A60194B00221A6019494FF0000289
:1040F8004FF04043C1E900230A4B00221A700822FE
:10410800002114480BF018F813494FF000024FF043
:104118000003C1E9002397F9023018460837BD4665
:1041280080BD00BFEC130020FF2C310184F500088E
:10413800A0F50008D3130020D4130020D8130020C2
:10414800DC130020E0130020E4130020E813002013
:10415800C8100020F81300200014002080B586B095
:1041680000AF614B1B687B617B69002B00F0B88056
:104178005E4B1B78DBB2002B04D15B4B1B68002B1A
:1041880000F0AE805A4B1B78DBB2022B40F0A880BF
:10419800584B1B78002B40F0A3807B69D3E90023A0
:1041A800C7E90223544B1B78002B00F08A80534B3D
:1041B8001B78DBB2002B04D0504B1B78DBB2022BF0
:1041C80001D1012300E00023FB714C4B1B78DBB2CB
:1041D800012B04D0494B1B78DBB2022B01D1012300
:1041E80000E00023BB71FB79002B33D0444BD3E9AB
:1041F8000023D7E90201FCF70DFC0346002B0AD087
:10420800404BD3E900013E4BD3E90023FCF7EEFB1A
:104218000346002B14D13A4BD3E90023D7E9020116
:10422800FCF702FC0346002B14D0364BD3E90001FF
:10423800334BD3E90023FCF7CFFB0346002B09D00F
:10424800314B1B68002B02D1304B01221A70294BCD
:1042580001221A70BB79002B33D0294BD3E90023F4
:10426800D7E90201FCF7C2FB0346002B0AD0254B15
:10427800D3E90001224BD3E90023FCF7CBFB03462B
:10428800002B14D11E4BD3E90023D7E90201FCF718
:10429800A3FB0346002B14D01A4BD3E90001184B9B
:1042A800D3E90023FCF7C0FB0346002B09D0164BCB
:1042B8001B68002B02D1154B01221A700D4B0122ED
:1042C8001A700C4B1B78002B0CBF01230023DBB2A8
:1042D8001A46094B1A700B49D7E90223C1E9002392
:1042E80000BF1837BD4680BD0C14002010140020F4
:1042F8002C1400203B14002038140020281400201F
:104308001814002030140020241400203A1400202F
:1043180080B582B000AF0023FB719E4B1B78DBB2E7
:10432800002B18D19C4B00221A709C4B00221A704B
:104338009B4B1B78DBB2002B2DD0964B02221A70B8
:10434800974B00221A70974B1B78DBB2002B22D1B7
:104358000123FB711FE0924B00221A708E4B1B78D1
:10436800DBB2002B09D0904B00221A70894B002237
:104378001A70894B00221A700DE08A4B1B78DBB249
:10438800002B02D10123FB7105E0844B1B78FB71E4
:10439800824B00221A707F4B1B78DBB2042B00F291
:1043A800D78001A252F823F0C5430008FF44000853
:1043B800DF430008B34400083D440008784B1B78ED
:1043C800DBB2002B00F0D880724B02221A70744BBB
:1043D80000221A70D0E0FB79002B00F0CF80734BDD
:1043E8001B68002B0DDD6F4B1B78DBB2012B08D14E
:1043F8006E4B1B681A466E4B1A60664B03221A7086
:10440800BCE06C4B1B68002B0AD0674B01221A706A
:10441800684B1B68664A13605E4B04221A70ADE055
:104428006548FFF760FC604B00221A70594B002268
:104438001A70A3E05E4B1B68002B04D05C4B1B6812
:10444800013B5B4A13605A4B1B68002B40F0988075
:104458005A4B1B78DBB2012B06D1534B00221A7042
:104468004C4B00221A708BE0554B1B68002B0AD06E
:104478004D4B00221A70524B1B684D4A1360454B36
:1044880001221A707CE0FB79002B07D0494B1B688E
:10449800474A13603F4B04221A7071E0424B0022D6
:1044A8001A703C4B02221A706AE0414B1B68002BC1
:1044B80004D03F4B1B68013B3D4A13603C4B1B68D3
:1044C800002B5FD13B4B1B68002B0AD0364B0122D7
:1044D8001A70384B1B68364A13602E4B04221A7028
:1044E80050E03548FFF7FFFB2F4B00221A70294B8D
:1044F80000221A7046E02E4B1B68002B04D02C4B70
:104508001B68013B2A4A1360294B1B68002B3BD1CF
:10451800FB79002B18D0274B1B68002B0AD0224BA5
:1045280001221A70234B1B68214A1360194B04227D
:104538001A7029E02048FFF7D6FB1B4B00221A709F
:10454800144B00221A701FE0124B02221A701BE053
:10455800104B1B78DBB219461A48FFF7C4FB124B05
:1045680000221A700D4B00221A700B4B00221A7091
:10457800084B00221A7008E000BF06E000BF04E004
:1045880000BF02E000BF00E000BF00BF0837BD4623
:1045980080BD00BF2C140020291400203B140020EB
:1045A800D41000202A1400203A14002024140020DB
:1045B8003C140020D0100020C4F500082B14002063
:1045C80020140020ECF5000880B400AF10494FF02B
:1045D80000024FF00003C1E900230E4B00221A70BD
:1045E8000D4B1B78DAB20D4B1A700D4B00221A7066
:1045F8000C4B00221A700C4B00221A600B4B002245
:104608001A7000231846BD465DF8047B704700BF4A
:1046180030140020381400202A14002039140020F7
:104628003A1400203B1400203C1400202C140020D5
:1046380080B584B000AF0346FB80FB88002B3FD1D8
:10464800314B1B78DAB2314B1B789A4214BF0123E5
:104658000023DBB2FB732C4B1B78DAB22B4B1A709E
:10466800FB7B002B0BD02A4B00221A70294B00220F
:104678001A70294B00221A60284B00221A70224B0C
:104688001B78DBB2012B1BD1244B1B78DBB2002B30
:1046980004D1234B1B78DBB2002B08D11F4B1B78AE
:1046A800DBB2012B0CD11C4B1B68012B08D11A4B18
:1046B80000221A601A4B00221A70184B02221A7034
:1046C800114B1B78DBB2012B07D1164B1B889BB211
:1046D800FA889A4201D1FFF741FDFB88002B05D1EA
:1046E800FFF716FE104B00221A7006E00E4B1B78DF
:1046F800002B02D00D4B1B7801E0054B1B781846A8
:104708001037BD4680BD00BF2A1400203914002090
:104718003A1400203B1400203C1400202C140020E4
:10472800D410002008140020411400204014002058
:1047380080B400AF26494FF000024FF00003C1E9F2
:104748000023244B00221A70234B00221A70234B9B
:1047580000221A70224B00221A80224B00221A7063
:10476800214B00221A70214B00221A60204B002294
:104778001A70204B00221A701F4B00221A601F4B20
:1047880000221A701E494FF000024FF00003C1E9E1
:1047980000231C4B4FF47A721A601B4B00221A60DC
:1047A8001A4B00221A601A4B00221A70194B012268
:1047B8001A70194B00221A70184B00221A70184BE5
:1047C80000221A7000231846BD465DF8047B704726
:1047D80030140020381400202C1400203914002034
:1047E800081400203A1400203B1400203C14002038
:1047F80040140020411400200C1400201014002044
:1048080018140020D01000202014002024140020A8
:1048180028140020D4100020291400202A14002075
:104828002B14002080B400AF194B1B78DBB2002B8F
:1048380029D1184B1B78DBB2002B0BD0164B1B78F9
:10484800DBB2002B06D1154B01221A70144B012242
:104858001A7018E0104B1B78DBB21A460D4B1B7808
:10486800DBB2002B0CBF01230023DBB21340002B6B
:1048780006D00A4B00221A70094B01221A7002E076
:10488800074B00221A7000BFBD465DF8047B7047D5
:104898002A140020D41000202914002040140020DD
:1048A8004114002080B586B000AFF860B9607A6026
:1048B8003B600023FB7503F0FDFE3861FB681B6855
:1048C800184604F00DF90021386803F06BFE024623
:1048D800BB681A6003F056FE02467B681A60BB6824
:1048E8001B68002B0FD0BB681B681946386904F099
:1048F800FDFB0246FB681A60FB681B68002B04D1AD
:10490800F623FB7501E0F823FB7597F91730184675
:104918001837BD4680BD000080B584B000AFF86090
:10492800B9607A60FA68BB6813441B78194608486E
:10493800FFF7D9F9FB68002B02D0F86804F0D0F82B
:104948007B6800221A60002318461037BD4680BDD8
:1049580010F6000880B584B000AFF860B9607A60DE
:10496800FA68BB6813441B7819460648FFF7BBF979
:104978007B6802221A604FF0FF3318461037BD4695
:1049880080BD00BF6CF6000880B485B000AF034658
:104998000A46FB711346BB710523FB73FB79F02BA9
:1049A80002D90023FB7322E0FB79E32B05D9FB79BD
:1049B800F02B02D80123FB7319E0FB79D22B02D923
:1049C800FB79E22B08D9FB79C02B08D1BB79002BE6
:1049D80005D0BB79022B02D80223FB7307E0FB79D1
:1049E800C72B04D9FB79D22B01D80323FB73FB7B9C
:1049F80018461437BD465DF8047B704780B58CB007
:104A080000AFF860B9607A603B60FB68BB62BB6A64
:104A18001B7887F82730002387F82F3097F827303E
:104A2800C02B06D1BB68012B03D9BB6A5B7887F81A
:104A38002F30364B1B78002B3ED097F82F2097F855
:104A4800273011461846FFF79FFF0346FB760023E1
:104A580087F82E30FB7E052B23D0FB7E2C4A52F89C
:104A680023307B6100233B617B69002B19D097F8C9
:104A780027207B691046984738613B69002B14BF93
:104A880001230023DBB287F82E3097F82E30002B55
:104A980007D03B695A687B681A603B699A683B682B
:104AA8001A6097F82E30002B2CD17B68194A1A60AF
:104AB8003B68194A1A6025E097F82730FF2B1BD16D
:104AC800134B1B683B627B6800221A603B6800221C
:104AD8001A603B6A002B15D03B6AFF209847F861A3
:104AE800FB69002B0ED0FB695A687B681A60FB696A
:104AF8009A683B681A6005E07B68084A1A603B6858
:104B080000221A6000BF3037BD4680BD4314002024
:104B1800481400205D490008ED4B000821490008B1
:104B280080B483B000AF0346FB71044AFB7913706D
:104B380000BF0C37BD465DF8047B70474314002066
:104B480080B400AF034B1B781846BD465DF8047B64
:104B5800704700BF4414002080B483B000AF034600
:104B6800FB71064B1A78FB791343DAB2034B1A70C0
:104B780000BF0C37BD465DF8047B70474414002025
:104B880080B483B000AF0346FB7197F90730DB436D
:104B98005AB2074B1B785BB213405BB2DAB2044BD4
:104BA8001A7000BF0C37BD465DF8047B704700BF24
:104BB8004414002080B400AF034B1B781846BD4650
:104BC8005DF8047B704700BF4514002080B400AF37
:104BD800034B1B881846BD465DF8047B704700BF31
:104BE8004614002080B586B000AF0346B9607A60ED
:104BF800FB7397F90F30002B05D1BB683B613B690C
:104C0800FF221A7076E0BB687B617B69FE221A700E
:104C180097F90F3010330F2B62D801A252F823F006
:104C2800E14C0008D94C0008D14C0008C94C0008D8
:104C3800C14C0008B94C0008A94C0008B14C000848
:104C4800A14C0008994C0008914C0008894C0008B8
:104C5800714C0008694C0008794C0008814C000828
:104C68007B6930225A7045E07B6929225A7041E0FD
:104C78007B6922225A703DE07B6920225A7039E014
:104C88007B6900225A7035E07B6923225A7031E033
:104C98007B6921225A702DE07B6911225A7029E024
:104CA8007B6927225A7025E07B692A225A7021E005
:104CB8007B6910225A701DE07B6924225A7019E022
:104CC8007B6928225A7015E07B6926225A7011E008
:104CD8007B6931225A700DE07B6933225A7009E0F2
:104CE80097F90F3019460548FEF7FDFF7B6920222A
:104CF8005A70FFE700BF1837BD4680BD9CF6000814
:104D080080B487B000AF0346B9607A60FB730023B4
:104D18007B61BB68002B23D000233B6100233B61F0
:104D280017E03A6913465B0013449B001A46BB68B8
:104D380013441B78FA7B9A4208D13A6913465B0000
:104D480013449B001A46BB6813447B613B690133DB
:104D58003B613A697B689A4202D27B69002BE0D0BA
:104D68007B6918461C37BD465DF8047B7047000018
:104D780080B582B000AF78603960134B1B78002B88
:104D880005D01248FEF7AFFF6FF00B0318E000F0F4
:104D98007BFC00F085FC03460D4A136002F052FAD2
:104DA80002F06CFA03460A4A936003F045F803F0F0
:104DB8004DF80346064A5360034B01221A7000233C
:104DC80018460837BD4680BD42140020E0F60008AA
:104DD8004814002080B58CB002AF002387F8273034
:104DE800002387F826300023FB610023BB610023E2
:104DF8007B6100233B610023FB6000233B620023AF
:104E0800BB6000237B60554B1B78002B05D15448B1
:104E1800FEF769FF6FF008039BE007F1140007F144
:104E2800180207F11C0107F1100300930346002044
:104E380003F012FB034687F8273097F92730002B39
:104E480009D097F9273013F1040F04D097F92730C8
:104E580013F1050F71D1FB69002B05D07A693B6905
:104E68001A44BB699A4203D9F82387F8273067E0C8
:104E7800FA697B6913443B6239693B1D07F10802F3
:104E8800386AFFF7BBFDBB68002B09D13B6A1B786A
:104E980019463448FEF727FFF42387F827304FE0F8
:104EA800BB68F869796907F10C029847034687F8E7
:104EB80026307B68002B3DD0FB68002B3AD00023BE
:104EC80087F827303A69FB689A420BD2FB6807F1EA
:104ED800140207F1180107F11C00FFF7E3FC034671
:104EE80087F827303B691A460021386A0AF024F906
:104EF80097F92730002B1DD1FA697B6913443B626F
:104F08007B68FA6897F92600396A9847F969B86999
:104F18007B69FA680192009303460A464FF6FF71CF
:104F2800012003F041F9034687F8273097F9273025
:104F3800002B04D197F927300BE000BF00E000BF39
:104F4800FB69002B03D0FB69184603F0C9FD97F9EC
:104F5800273018462837BD4680BD00BF42140020C0
:104F680010F7000838F7000880B584B000AF034692
:104F7800FB800023FB730023BB600D4B1B78002BC9
:104F880005D10C48FEF7AFFE6FF008030CE004F003
:104F9800C7FFB860FB880022B968184602F06CFBAE
:104FA8000346FB7397F90F3018461037BD4680BD8E
:104FB8004214002068F7000880B400AF034B1B7848
:104FC8001846BD465DF8047B704700BF43140020B7
:104FD80080B500AF0B4B1B78002B02D10A48FEF7B7
:104FE80082FE02F04FFF02F0F1FD00F075FB102287
:104FF800002106480AF0A0F8024B00221A7000238C
:10500800184680BD4214002060F8000848140020AB
:1050180080B584B000AF7860786802F0B1FB0346D1
:10502800FB7397F90F3018461037BD4680BD80B521
:1050380084B000AF0346FB800123FB73FA7BFB8837
:105048000021184602F018FB0346BB7397F90E308F
:1050580018461037BD4680BD80B584B000AF034602
:10506800FB710123FB6003F0DCFAB860FA79B968D8
:10507800FB68B1FBF3F39A4234BF01230023DBB290
:1050880018461037BD4680BD80B584B000AF786043
:105098000B46FB7000F02AFBF860F9680648FEF73B
:1050A80022FE064B1B781A46F96878680AF076F8EB
:1050B80000BF1037BD4680BD88F800086014002086
:1050C80080B588B000AFF860B9607A600023FB77DC
:1050D800FA68BB681344BB61BB697B610023FB743E
:1050E80002F0A6FC0346FB74FB7C002B08D11A488F
:1050F800FEF7F9FD7B6802221A606FF00A0327E0C9
:105108007B695B78002B03D07B695B78012B01D12D
:10511800012300E00023FB74FB7C002B0BD17B698F
:105128005B7819460D48FEF7DEFD7B6802221A609F
:105138006FF001030CE00A48FEF7D5FD0120FFF7E8
:10514800EFFC0023FB777B6808221A6097F91F3071
:1051580018462037BD4680BDA0F80008ECF80008C6
:1051680010F9000880B586B000AF0346B9607A60D0
:10517800FB7397F90F30002B47D1BB687B6108227E
:105188000021786909F0D8FF7B69FF221A7005228F
:105198007B695A7000227B699A7003F042FA0346D1
:1051A800DAB27B69DA7003F035FA03469AB27B69A2
:1051B8009A807B6901229A717B690122DA717B6985
:1051C8005B7819461648FEF78EFD7B699B78194671
:1051D8001448FEF788FD7B69DB7819461248FEF70C
:1051E80082FD7B699B889BB219461048FEF77BFDC0
:1051F8007B699B7919460E48FEF775FD7B69DB795B
:1052080019460C48FEF76FFD06E097F90F307A68EB
:10521800B9681846FFF7E6FC00BF1837BD4680BDE1
:1052280038F9000854F9000870F900088CF90008EA
:10523800A8F90008C4F9000880B586B000AFF86086
:10524800B9607A600123FB7502F0F2FB0346FB7537
:10525800FB7D002B08D10B48FEF745FD7B68022239
:105268001A606FF00A0309E00748FEF73CFD0020CA
:10527800FFF756FC7B6801221A600023184618378E
:10528800BD4680BDE0F9000830FA000880B584B05A
:1052980000AFF860B9607A600548FEF724FD7B68C6
:1052A80006221A60002318461037BD4680BD00BF8D
:1052B80060FA000880B586B000AF0346B9607A602E
:1052C800FB73BB687B6106220021786909F034FF13
:1052D8007B69FF221A70FFF733FC03461A467B6985
:1052E8005A70FFF767FC03461A467B699A70FFF706
:1052F8006DFC03461A467B699A807B695B78194680
:105308000948FEF7F0FC7B699B7819460748FEF7C9
:10531800EAFC7B699B889BB219460548FEF7E3FCCB
:1053280000BF1837BD4680BD6CFA000890FA000827
:10533800B4FA000880B586B000AFF860B9607A604A
:105348000023FB750B48FEF7CEFC02F05BFB03461F
:10535800FB75FB7D002B03D003F08CF902F061FB99
:105368007B6802221A606FF0040318461837BD469E
:1053780080BD00BFD8FA000880B588B000AFF860DB
:10538800B9607A600023FB77FA68BB681344BB6195
:10539800BB697B610023FB747B695A687B69DB7896
:1053A8001946104600F0AEF90346FB74FB7C002B4F
:1053B80008D10D48FEF797FC7B6802221A606FF04F
:1053C8000B030CE07B6959687B69DB781A46074850
:1053D800FEF789FC7B6801221A6097F91F3018468E
:1053E8002037BD4680BD00BFE0FA0008FCFA00087F
:1053F80080B58AB000AFF860B9607A60002387F89A
:105408002730FA68BB6813443B623B6AFB610023A0
:10541800FB7600F06BF97861FB695B781846FFF75B
:105428001BFE0346FB76FB7E002B0BD1FB695B78EA
:1054380019461248FEF757FC7B6802221A606FF083
:10544800010316E07B69002B08D10D48FEF74BFCE1
:105458007B6802221A606FF00B030AE0FB695A7836
:10546800084B1A70074B1B785A1C7B681A6097F90F
:10547800273018462837BD4680BD00BF30FB0008DE
:1054880060FB00086014002080B588B000AF0346B8
:10549800B9607A60FB7397F90F30002B30D100F0B8
:1054A80025F9F861BB68BB6101220021B86909F0E0
:1054B80043FEBB69FF221A70FB69002B1CD0164BF8
:1054C8001B7801337A689A4216D1BB6801337B6135
:1054D8000023FB741148FEF706FCFB7C194678692B
:1054E800FFF7D2FD0C4B1B78184600F029F90A4B40
:1054F80000221A7000BF0AE00948FEF7F4FB06E034
:1055080097F90F307A68B9681846FFF76BFB00BF48
:105518002037BD4680BD00BF601400207CFB00081A
:1055280088FB000880B588B000AFF860B9607A6081
:105538000023FB77FA68BB681344BB61BB697B61D6
:105548000023FB747B695B781846FFF785FD0346EB
:10555800FB74FB7C002B0BD17B695B7819461748E1
:10556800FEF7C1FB7B6802221A606FF0010320E09E
:105578007B695A687B69DB781946104600F0C2F8E7
:105588000346FB74FB7C002B08D10D48FEF7ABFBF0
:105598007B6802221A606FF00B030AE07B695A7875
:1055A800084B1A70074B1B785A1C7B681A6097F9CE
:1055B8001F3018462037BD4680BD00BFA8FB000835
:1055C800DCFB00086014002080B588B000AF0346FB
:1055D800B9607A60FB7397F90F30002B30D100F077
:1055E80085F8F861BB68BB6101220021B86909F040
:1055F800A3FDBB69FF221A70FB69002B1CD0164B58
:105608001B7801337A689A4216D1BB6801337B61F3
:105618000023FB741148FEF766FBFB7C194678698A
:10562800FFF732FD0C4B1B78184600F089F80A4B3F
:1056380000221A7000BF0AE00948FEF754FB06E092
:1056480097F90F307A68B9681846FFF7CBFA00BFA8
:105658002037BD4680BD00BF60140020FCFB000859
:105668000CFC000880B582B000AF0346FB71FB79E3
:10567800072204491846FFF743FB03461846083734
:10568800BD4680BD681A010880B500AF034800F028
:1056980013F800F069F800BF80BD00BF6D56000820
:1056A80080B400AF034B1B681846BD465DF8047B09
:1056B800704700BF6414002080B483B000AF7860E6
:1056C800044A7B68136000BF0C37BD465DF8047B55
:1056D800704700BF6414002080B500AF00F04BF89D
:1056E8000020FFF7E9FF00BF80BD000080B400AFD5
:1056F800034B1B681846BD465DF8047B704700BF26
:105708005814002080B483B000AF78600B46FB705B
:10571800FB78002B04D17B68002B01D1002306E025
:10572800064A7B681360054AFB7813710123184603
:105738000C37BD465DF8047B704700BF5814002045
:1057480080B483B000AF0346FB71064B1A68FB793F
:105758001344044A136000BF0C37BD465DF8047B50
:10576800704700BF5814002080B400AF00BFBD468A
:105778005DF8047B704780B400AF00BFBD465DF89C
:10578800047B704780B584B000AF0346FB800023DC
:10579800FB7305F08EFE03460B4A13600B4B1B6828
:1057A800002B0CBF01230023DBB2FB73FB7B002B18
:1057B80004D1054B1B68184605F08CFEFB7B184688
:1057C8001037BD4680BD00BF74140020701400203F
:1057D80080B582B000AF0346FB80044B1B681846B7
:1057E80005F078FE00BF0837BD4680BD7414002060
:1057F80080B582B000AF0346FB8005F05AFE034631
:10580800074A1360074B1B680133064A1360044BB1
:105818001B68184605F05EFE00BF0837BD4680BD10
:10582800741400207014002080B582B000AF0346C5
:10583800FB8005F03EFE0346074A1360074B1B68D2
:10584800013B064A1360044B1B68184605F042FEEC
:1058580000BF0837BD4680BD7414002070140020B6
:1058680080B483B000AF0346FB80104B1968FA88F8
:1058780013465B001344DB000B445B79022B0AD010
:105888000A4B1968FA8813465B001344DB000B4483
:105898005B79032B01D1012300E00023DBB218461A
:1058A8000C37BD465DF8047B704700BF68140020C4
:1058B80080B582B000AF0023FB710023BB800023BA
:1058C800BB8008E0BB881846FFF7CAFF0346FB7198
:1058D800BB880133BB80094B9B88BA889A4202D2A5
:1058E800FB79002BEED0FB79002B0CBF01230023A2
:1058F800DBB218460837BD4680BD00BF68140020DB
:1059080080B485B000AF0346FB800B467B7113461D
:105918003B71284B1B68002B42D0264B9B88FA888A
:105928009A423DD2234B1968FA8813465B00134408
:10593800DB000B441B68002B32D01E4B1968FA8819
:1059480013465B001344DB000B441B797A799A42B7
:1059580026D2184B1968FA8813465B001344DB00FB
:105968000B4419687A791346DB009B1A9B000B4499
:105978001B68002B14D00F4B1968FA8813465B007C
:105988001344DB000B4419687A791346DB009B1A31
:105998009B000B441B793A799A4201D2012300E01B
:1059A8000023FB73FB7B18461437BD465DF8047B68
:1059B800704700BF6814002080B485B000AF03466C
:1059C8003A60FB710B46BB710023FB73BB79BB814B
:1059D800FB79FF2B04D1BB89FF2B01D80123FB7373
:1059E800FB7B18461437BD465DF8047B704780B4CE
:1059F80083B000AF0346FB71FB7923F01003002B43
:105A08000CBF01230023DBB218460C37BD465DF8F6
:105A1800047B704780B485B000AF0346FB71002358
:105A2800FB73FB79002B05D0FB79012B02D0FB79A6
:105A3800022B01D10123FB73FB7B18461437BD46AB
:105A48005DF8047B704780B485B000AF0346FB71F6
:105A58000023FB73FB79002B05D0FB79012B02D0C7
:105A6800FB79022B01D10123FB73FB7B184614370A
:105A7800BD465DF8047B704780B400AF012318462B
:105A8800BD465DF8047B704780B485B000AF03461F
:105A9800FB80164B1968FA8813465B001344DB0039
:105AA8000B441B7B022B0ED1104B1968FA88134646
:105AB8005B001344DB000B44DA880D4B1B889A42C9
:105AC80001D0012300E00023FB73FB7B002B04D0F3
