:020000040800F2
:10000000008000208D4E0008ED3D0008F13D000805
:10001000F53D0008F93D0008FD3D00080000000026
:100020000000000000000000000000008D35000806
:10003000013E000800000000493500087D3400083A
:10004000DD4E0008DD4E0008DD4E0008DD4E0008E4
:10005000DD4E0008DD4E0008DD4E0008DD4E0008D4
:10006000DD4E0008DD4E0008DD4E0008053E0008AC
:10007000093E0008DD4E0008DD4E0008DD4E000898
:10008000DD4E000800000000F9180008DD4E0008F1
:10009000DD4E0008DD4E0008DD4E0008DD4E000894
:1000A000DD4E0008DD4E0008DD4E0008DD4E000884
:1000B0000D3E0008DD4E0008DD4E0008DD4E000854
:1000C000DD4E0008DD4E0008DD4E0008DD4E000864
:1000D000DD4E0008DD4E0008DD4E0008DD4E000854
:1000E000DD4E0008DD4E0008DD4E0008DD4E000844
:1000F000DD4E0008DD4E0008DD4E00080000000067
:1001000000000000DD4E000800000000DD4E000889
:10011000DD4E000800000000DD4E0008DD4E000846
:10012000DD4E0008DD4E0008DD4E0008DD4E000803
:10013000DD4E00080000000000000000DD4E000859
:10014000DD4E0008DD4E0008000000000000000049
:10015000000000000000000000000000000000009F
:10016000000000000000000000000000DD4E00085C
:10017000DD4E00080000000000000000000000004C
:1001800000000000DD4E000800000000000000003C
:10019000000000000000000000000000000000005F
:1001A0000000000000000000DD4E0008A11400085F
:1001B000DD4E0008DD4E0008DD4E000800000000A6
:1001C00000000000DD4E00080000000000000000FC
:0801D000DD4E0008DD4E0008C1
:1001D80081F0004102E000BF83F0004330B54FEAF0
:1001E80041044FEA430594EA050F08BF90EA020F5D
:1001F8001FBF54EA000C55EA020C7FEA645C7FEAF0
:10020800655C00F0E2804FEA5454D4EB5555B8BF12
:100218006D420CDD2C4480EA020281EA030382EA83
:10022800000083EA010180EA020281EA0303362D15
:1002380088BF30BD11F0004F4FEA01314FF4801CE8
:100248004CEA113102D0404261EB410113F0004FFA
:100258004FEA03334CEA133302D0524263EB4303B1
:1002680094EA050F00F0A780A4F10104D5F1200E4F
:100278000DDB02FA0EFC22FA05F2801841F10001AA
:1002880003FA0EF2801843FA05F359410EE0A5F17E
:1002980020050EF1200E012A03FA0EFC28BF4CF0AF
:1002A800020C43FA05F3C01851EBE37101F0004565
:1002B80007D54FF0000EDCF1000C7EEB00006EEB72
:1002C8000101B1F5801F1BD3B1F5001F0CD34908FC
:1002D8005FEA30004FEA3C0C04F101044FEA445253
:1002E80012F5800F80F09A80BCF1004F08BF5FEADA
:1002F800500C50F1000041EB045141EA050130BDBA
:100308005FEA4C0C404141EB0101013C28BFB1F5CB
:10031800801FE9D291F0000F04BF01460020B1FA16
:1003280081F308BF2033A3F10B03B3F120020CDAE9
:100338000C3208DD02F1140CC2F10C0201FA0CF0C7
:1003480021FA02F10CE002F11402D8BFC2F1200C2C
:1003580001FA02F120FA0CFCDCBF41EA0C019040E2
:10036800E41AA2BF01EB0451294330BD6FEA04042B
:100378001F3C1CDA0C340EDC04F11404C4F1200216
:1003880020FA04F001FA02F340EA030021FA04F328
:1003980045EA030130BDC4F10C04C4F1200220FA7F
:1003A80002F001FA04F340EA0300294630BD21FABD
:1003B80004F0294630BD94F0000F83F4801306BF83
:1003C80081F480110134013D4EE77FEA645C18BF77
:1003D8007FEA655C29D094EA050F08BF90EA020F0E
:1003E80005D054EA000C04BF1946104630BD91EA06
:1003F800030F1EBF0021002030BD5FEA545C05D109
:100408004000494128BF41F0004130BD14F5800447
:100418003CBF01F5801130BD01F0004545F0FE41BB
:1004280041F470014FF0000030BD7FEA645C1ABFF0
:10043800194610467FEA655C1CBF0B46024650EA27
:10044800013406BF52EA033591EA030F41F4002153
:1004580030BD00BF90F0000F04BF0021704730B5D9
:100468004FF4806404F132044FF000054FF00001AE
:1004780050E700BF90F0000F04BF0021704730B56F
:100488004FF4806404F1320410F0004548BF404244
:100498004FF000013EE700BF42004FEAE2014FEA99
:1004A80031014FEA02701FBF12F07F4393F07F4F74
:1004B80081F06051704732F07F4208BF704793F077
:1004C8007F4F04BF41F40021704730B54FF460748A
:1004D80001F0004521F000411CE700BF50EA01028D
:1004E80008BF704730B54FF000050AE050EA010236
:1004F80008BF704730B511F0004502D5404261EBA6
:1005080041014FF4806404F132045FEA915C3FF4E6
:10051800D8AE4FF003025FEADC0C18BF03325FEA83
:10052800DC0C18BF033202EBDC02C2F1200300FA34
:1005380003FC20FA02F001FA03FE40EA0E0021FA59
:1005480002F11444BDE600BF70B54FF0FF0C4CF447
:10055800E06C1CEA11541DBF1CEA135594EA0C0FF9
:1005680095EA0C0F00F0DEF82C4481EA030621EA34
:100578004C5123EA4C5350EA013518BF52EA03356F
:1005880041F4801143F4801338D0A0FB02CE4FF021
:100598000005E1FB02E506F00042E0FB03E54FF051
:1005A8000006E1FB03569CF0000F18BF4EF0010E49
:1005B800A4F1FF04B6F5007F64F5407404D25FEA45
:1005C8004E0E6D4146EB060642EAC62141EA5551F8
:1005D8004FEAC52040EA5E504FEACE2EB4F1FD0C3A
:1005E80088BFBCF5E06F1ED8BEF1004F08BF5FEAB8
:1005F800500E50F1000041EB045170BD06F000466A
:1006080046EA010140EA020081EA0301B4EB5C0416
:10061800C2BFD4EB0C0541EA045170BD41F480110E
:100628004FF0000E013C00F3AB8014F1360FDEBF33
:10063800002001F0004170BDC4F10004203C35DA0F
:100648000C341BDC04F11404C4F1200500FA05F392
:1006580020FA04F001FA05F240EA020001F0004233
:1006680021F0004110EBD37021FA04F642EB0601A9
:100678005EEA430E08BF20EAD37070BDC4F10C04D3
:10068800C4F1200500FA04F320FA05F001FA04F297
:1006980040EA020001F0004110EBD37041F1000183
:1006A8005EEA430E08BF20EAD37070BDC4F120058E
:1006B80000FA05F24EEA020E20FA04F301FA05F2F6
:1006C80043EA020321FA04F001F0004121FA04F29E
:1006D80020EA020000EBD3705EEA430E08BF20EA6E
:1006E800D37070BD94F0000F0FD101F000464000A8
:1006F80041EB010111F4801F08BF013CF7D041EA2A
:10070800060195F0000F18BF704703F0004652002D
:1007180043EB030313F4801F08BF013DF7D043EAFE
:100728000603704794EA0C0F0CEA135518BF95EAB4
:100738000C0F0CD050EA410618BF52EA4306D1D13B
:1007480081EA030101F000414FF0000070BD50EA5A
:10075800410606BF1046194652EA430619D094EAE4
:100768000C0F02D150EA013613D195EA0C0F05D1CE
:1007780052EA03361CBF104619460AD181EA030122
:1007880001F0004141F0FE4141F470014FF00000DA
:1007980070BD41F0FE4141F4780170BD70B54FF075
:1007A800FF0C4CF4E06C1CEA11541DBF1CEA1355F5
:1007B80094EA0C0F95EA0C0F00F0A7F8A4EB0504D7
:1007C80081EA030E52EA03354FEA013100F08880CE
:1007D8004FEA03334FF0805545EA131343EA126397
:1007E8004FEA022245EA111545EA10654FEA00264C
:1007F8000EF000419D4208BF964244F1FD0404F505
:10080800407402D25B084FEA3202B61A65EB030560
:100818005B084FEA32024FF480104FF4002CB6EB1D
:10082800020E75EB030E22BFB61A754640EA0C009D
:100838005B084FEA3202B6EB020E75EB030E22BFDD
:10084800B61A754640EA5C005B084FEA3202B6EB1E
:10085800020E75EB030E22BFB61A754640EA9C00DD
:100868005B084FEA3202B6EB020E75EB030E22BFAD
:10087800B61A754640EADC0055EA060E18D04FEA6B
:10088800051545EA16754FEA06164FEAC30343EA0B
:1008980052734FEAC2025FEA1C1CC0D111F4801FD8
:1008A8000BD141EA00014FF000004FF0004CB6E7D1
:1008B80011F4801F04BF01430020B4F1FD0C88BF70
:1008C800BCF5E06F3FF6AFAEB5EB030C04BFB6EB7B
:1008D800020C5FEA500C50F1000041EB045170BD6E
:1008E8000EF0004E4EEA113114EB5C04C2BFD4EB9B
:1008F8000C0541EA045170BD41F480114FF0000E1F
:10090800013C90E645EA060E8DE60CEA135594EA9A
:100918000C0F08BF95EA0C0F3FF43BAF94EA0C0F9D
:100928000AD150EA01347FF434AF95EA0C0F7FF412
:1009380025AF104619462CE795EA0C0F06D152EA66
:1009480003353FF4FDAE1046194622E750EA41064A
:1009580018BF52EA43067FF4C5AE50EA41047FF45B
:100968000DAF52EA43057FF4EBAE12E74FF0FF3CC0
:1009780006E000BF4FF0010C02E000BF4FF0010C91
:100988004DF804CD4FEA410C7FEA6C5C4FEA430C0A
:1009980018BF7FEA6C5C1BD001B050EA410C0CBF59
:1009A80052EA430C91EA030F02BF90EA020F0020BB
:1009B800704710F1000F91EA030F58BF994208BF22
:1009C80090422CBFD8176FEAE37040F001007047DF
:1009D8004FEA410C7FEA6C5C02D150EA013C07D136
:1009E8004FEA430C7FEA6C5CD6D152EA033CD3D081
:1009F8005DF8040B704700BF8446104662468C467B
:100A08001946634600E000BF01B5FFF7B7FF0028AD
:100A180048BF10F1000F01BD4DF808EDFFF7F4FFD6
:100A28000CBF012000205DF808FB00BF4DF808ED61
:100A3800FFF7EAFF34BF012000205DF808FB00BF84
:100A48004DF808EDFFF7E0FF94BF012000205DF8A6
:100A580008FB00BF4DF808EDFFF7CEFF94BF01205B
:100A680000205DF808FB00BF4DF808EDFFF7C4FF54
:100A780034BF012000205DF808FB00BF4FEA4102A7
:100A880012F5001215D211D56FF47873B3EB6252D8
:100A980012D94FEAC12343F0004343EA505311F0FF
:100AA800004F23FA02F018BF404270474FF0000091
:100AB800704750EA013005D111F0004008BF6FF0CF
:100AC800004070474FF00000704700BF4FEA4102F6
:100AD800B2F1E04324BFB3F5001CDCF1FE5C0DD994
:100AE80001F0004C4FEAC0024CEA5070B2F1004FDE
:100AF80040EB830008BF20F00100704711F0804FE1
:100B080021D113F13872BCBF01F00040704741F4A5
:100B180080114FEA5252C2F11802C2F1200C10FAA9
:100B28000CF320FA02F018BF40F001004FEAC1238D
:100B38004FEAD32303FA0CFC40EA0C0023FA02F331
:100B48004FEA4303CCE77FEA625307D150EA013307
:100B58001EBF4FF0FE4040F44000704701F00040D7
:100B680040F0FE4040F40000704700BF53B94AB956
:100B7800002908BF00281CBF4FF0FF314FF0FF309D
:100B880000F00CB8ADF1080C6DE904CE04F05EFC81
:100B9800DDF804E0DDE9022304B07047704700BFC8
:100BA8000348044B834202D0034B03B118477047F4
:100BB8003812002038120020000000000548064BBB
:100BC8001B1AD90F01EBA301491002D0034B03B143
:100BD8001847704738120020381200200000000023
:100BE80010B5064C237843B9FFF7DAFF044B13B16D
:100BF8000448AFF300800123237010BD3812002091
:100C0800000000009057000808B5054B1BB10549C6
:100C18000548AFF30080BDE80840FFF7CFBF00BF2D
:100C2800000000003C1200209057000801690B6882
:100C380013F04003024605D040200223086001203B
:100C48009372704718467047012902690DD0D36C1A
:100C580013F4C07F00D17047936823F0004323F05A
:100C68003F0343F0080393607047D36813F4406F61
:100C7800F1D0936823F0004323F03F0343F00403CB
:100C88009360704730B40569B5F1A04F2DD1234C5E
:100C98004FF0000C012B256184F807C022D03AB32D
:100CA800637A082B1ED0C368E36003682360436936
:100CB80063618379A371037923712B6B029A23F003
:100CC8000F03134301292B6307D0042920D00229DD
:100CD80003D16B6843F008036B6008230F48637205
:100CE80030BC7047204630BC7047002030BC70478D
:100CF800A37A082BF6D043796371022903D008231D
:100D08000648A372EFE76B6843F040036B60F6E7B1
:100D1800EB6843F00303EB60DFE700BF54120020E9
:100D280002699368DB0707D4936823F0004323F034
:100D38003F0343F001039360704700BF03692BB181
:100D480001293ED0042903D0022923D0012070476D
:100D5800D96C11F4C07FF9D101218172996821F011
:100D6800004121F03F0141F008019960817A022990
:100D78005FFA81FCFAD1417941B17C331CFB012C2B
:100D880053F8041F22F8021B9445F9D108238372F3
:100D980000207047817A202902D0817A0229D5D192
:100DA80041794FF0080C80F80AC041B17C3302EB5E
:100DB800410053F8041F22F8021B8242F9D1002097
:100DC8007047DA6C12F4C07FC0D1827A022A05D04B
:100DD800827A082A02D01A685206B7D5827A082A77
:100DE8000CBF0122202282729A6822F0004222F06F
:100DF8003F0242F0080200209A607047036910B46D
:100E08009C68E40707D59C6824F0004C2CF03F0C44
:100E18004CF002049C605C68240603D55C6824F0EE
:100E280080045C605C68E40603D55C6824F0100408
:100E38005C6092B1012903D002291DD0042916D083
:100E4800002282710271196BC26021F00F010260E9
:100E5800426119635DF8044B704702294271F9D168
:100E68005A685DF8044B22F040025A607047DA680D
:100E780022F00302DA60E3E75A6822F008025A60B7
:100E8800DEE700BF10B403699A6812F0010283B06C
:100E980007D09C6824F0004C2CF03F0C4CF0020466
:100EA8009C6031BB996821F0404121F03F0141F03D
:100EB8000041996099680029FCDB002304E000BF29
:100EC800BDF8063001331BB2ADF80630BDF8063068
:100ED8009BB2032BF3D942B10269936823F0004314
:100EE80023F03F0343F00103936003B05DF8044B24
:100EF80070470129996821F0404121F03F0126D02F
:100F080041F00041996099680029FCDB0021ADF8A7
:100F18000610BDF8061089B203290CD800BFBDF829
:100F2800063001331BB2ADF80630BDF806309BB26F
:100F3800032BF3D90369996821F0404121F03F015F
:100F480041F04041996099680029B6DAFBE741F021
:100F58004041996099680029AFDAFBE7CB0703D5D0
:100F68000368DA68520679D58B0703D50368DA680F
:100F780092076ED54B0703D50368DA68520763D525
:100F88000B0703D50368DA68120758D5CB0603D5D3
:100F98000368DA68D2064DD58B0603D50368DA688C
:100FA800D20742D54B0603D50368DA68120637D54F
:100FB8000B0603D50368DA6892062CD5CB0503D552
:100FC8000368DA68D20221D58B0503D50368DA688D
:100FD800920216D54B0503D50368DA6812020BD5C1
:100FE800090503D50368DA68520200D57047DA6844
:100FF80042F48002DA607047DA6842F40002DA608C
:10100800EEE7DA6842F40012DA60E3E7DA6842F4FD
:101018008012DA60D8E7DA6842F02002DA60CDE7B9
:10102800DA6842F08002DA60C2E7DA6842F0010268
:10103800DA60B7E7DA6842F01002DA60ACE7DA683B
:1010480042F00802DA60A1E7DA6842F00402DA60E6
:1010580096E7DA6842F00202DA608BE7DA6842F073
:101068004002DA6080E700BFCB0703D50368DA687F
:10107800520678D48B0703D50368DA6892076DD4D3
:101088004B0703D50368DA68520762D40B0703D508
:101098000368DA68120757D4CB0603D50368DA6801
:1010A800D2064CD48B0603D50368DA68D20741D53B
:1010B8004B0603D50368DA68120636D40B0603D547
:1010C8000368DA6892062BD4CB0503D50368DA687F
:1010D800D20220D48B0503D50368DA68920215D4AE
:1010E8004B0503D50368DA6812020AD4090507D547
:1010F8000368DA68520203D5DA6822F48002DA60FB
:101108007047DA6822F40002DA60EFE7DA6822F45E
:101118000012DA60E4E7DA6822F48012DA60D9E7CC
:10112800DA6822F02002DA60CEE7DA6822F080027C
:10113800DA60C3E7DA6822F00102DA60B8E7DA6851
:1011480022F01002DA60ADE7DA6822F00802DA600D
:10115800A2E7DA6822F00402DA6097E7DA6822F098
:101168000202DA608CE7DA6822F04002DA6081E78E
:10117800022921D00368134A93420FD002F5006276
:1011880093420BD002F54062934207D002F5806289
:10119800934203D002F58062934203D1032906D01B
:1011A800042900D070471A6A42F001021A621A6ACA
:1011B80042F004021A6270470268136A43F001039E
:1011C80013627047002C0140022921D00368134A9A
:1011D80093420FD002F5006293420BD002F54062B1
:1011E800934207D002F58062934203D002F58062F1
:1011F800934203D1032906D0042900D070471A6A04
:1012080022F001021A621A6A22F004021A62704776
:101218000268136A23F0010313627047002C01402F
:10122800022921D00368134A93420FD002F50062C5
:1012380093420BD002F54062934207D002F58062D8
:10124800934203D002F58062934203D1032906D06A
:10125800042900D070471A6A42F010021A621A6A0A
:1012680042F040021A6270470268136A43F01003A2
:1012780013627047002C0140022921D00368134AE9
:1012880093420FD002F5006293420BD002F5406200
:10129800934207D002F58062934203D002F5806240
:1012A800934203D1032906D0042900D070471A6A53
:1012B80022F010021A621A6A22F040021A6270477B
:1012C8000268136A23F0100313627047002C014070
:1012D800022921D00368134A93420FD002F5006215
:1012E80093420BD002F54062934207D002F5806228
:1012F800934203D002F58062934203D1032906D0BA
:10130800042900D070471A6A42F480721A621A6A75
:1013180042F480621A6270470268136A43F4807369
:1013280013627047002C0140022921D00368134A38
:1013380093420FD002F5006293420BD002F540624F
:10134800934207D002F58062934203D002F580628F
:10135800934203D1032906D0042900D070471A6AA2
:1013680022F480721A621A6A22F480621A62704742
:101378000268136A23F4807313627047002C0140DB
:101388000E4B0168994216D10B680D4A13F06003A1
:10139800116008BF09680949486C18BF012340F467
:1013A8000040137148640B6B054853714FF0000CF3
:1013B800A2F806C0704700231960FFDE002C014028
:1013C800701200202DE9F04104460F46406BA16BD6
:1013D80088421E46154602EB000346D3A26A934292
:1013E8001ED3A3EB020C61451AD8002E51D002F08F
:1013F800BFFF8046D4E90D32934205EB030C3AD384
:10140800A36A9C45ACEB030101D38A4235D901217B
:10141800404601F0EBFFB0423BD8606BA26A2B1844
:101428009A4210D3236A394618442A4604F09EF992
:10143800636B2B446363A26A9A424FF0000000D1A9
:101448006063BDE8F081236A161A324618443946AB
:1014580004F08CF9626BA36A206A2A44D21AB9197B
:10146800626304F083F9636BE5E78B42BDD2A26A3D
:101478009A42D7D2E7E79445C9D30121404601F003
:10148800B5FFB042B6D90121404601F0AFFFB042E6
:10149800C3D90120BDE8F08110490A68D3691B0649
:1014A8001AD5D1E90D0383420CD010B40C6A886AAE
:1014B800E45C94620133834208BF00235DF8044B67
:1014C8008B63704752E8003F23F0800342E8003006
:1014D8000028F7D188747047704700BFFC120020BD
:1014E800F0B404682368DB0731D52268194E4568D3
:1014F800D0F81CC0476A234622F0010243F8242B87
:10150800027CB15C6A189360C2F80CC053681B0C6B
:101518001B043B4353606B5843F002036B5004F1C8
:10152800080252E8003F43F0400342E80031002936
:10153800F7D1A36843F04003A360037CF25CAB5887
:1015480043F00103AB50236843F001032360F0BC70
:10155800704700BFA8570008444B02689A4242D11E
:10156800434B444A002170B5D26883F85B130446A4
:101578004FF000629A604048657D437DA27D2B4311
:101588004375837D1343837525688161627D05609A
:10159800D60718D5666A4662E669C661C0E90B11C6
:1015A80094F814C080F83C10D90680F814C01CD4F4
:1015B8005B0708D555E8003F43F0200345E80032B3
:1015C800002AF7D1627D96070BD5827DA36A216A2E
:1015D800836295064FF00003C0E90D330162438230
:1015E8001CD4254870BD002070476268237C426087
:1015F8000374FFF775FF083555E8003F43F0010312
:1016080045E80032002AF7D1026852E8003F43F467
:10161800807342E800310029F7D1D3E7A568026852
:10162800C360637C437414688560E407D9D5134CA0
:101638001668E35C144626F0010644F8286BEE1899
:101648000832F160B460E95841F00201E95052E80B
:10165800003F43F0800342E800310029F7D10268D7
:101668000548136843F00103136070BD0080004013
:1016780000E100E000ED00E0FC120020A85700089F
:10168800F8B5B0F81AC0069F00263E601CF0800628
:101698002DD115460AB93046F8BD4CF0800CA0F89B
:1016A8001AC00446FFF78EFE012823D0A37CBBB9DD
:1016B800A36B216A2268C95C9162A16A01338B42DB
:1016C80008BF0023616BA363994209D00123A37467
:1016D80052E8003F43F0800342E800310029F7D187
:1016E800638B3D6023F0800363833046F8BD80261A
:1016F8003046F8BD638B23F0800340266383CAE736
:10170800036830B41A6822F001021A60827D9506D7
:101718004CD5427C2F4985688C5C2A5922F00202FC
:101728002A5103F1080151E8002F22F0800241E814
:101738000024002CF7D1827DD10624D503F10801BD
:1017480051E8002F22F0010241E80024002CF7D1D3
:1017580053E8002F22F4807243E800210029F7D1D2
:10176800027C1C494068895C425822F002024250BF
:10177800083353E8002F22F0400243E800210029F3
:10178800F7D130BC70475207FBD553E8002F22F041
:10179800200243E800210029F3D053E8002F22F06B
:1017A800200243E800210029EFD1EAE71407C3D556
:1017B80053E8002F22F0800243E800210029BAD024
:1017C80053E8002F22F0800243E800210029EFD1DE
:1017D800B1E700BFA85700080F3843B2002BC0B2CA
:1017E80008DB03F16043120103F56143D2B283F8C9
:1017F80000237047034B00F00F0012010344D2B2DC
:101808001A767047FCEC00E0EFF31080012383F3B5
:1018180010887047034B5B79B3FA83F35B09437015
:10182800704700BF201B002008B52DED028BF0EE9D
:10183800408AB0EE608A01F0CFFD28B1274B93EDC6
:10184800000ABDEC028B08BDB0EE480A01F0C4FDE9
:101858000028F3D1B0EE680A01F0A4FD80B9B5EE16
:10186800408AF1EE10FA2BD1F5EEC08AF1EE10FAAB
:1018780002DD9FED1B0AE4E72CD49FED1A0AE0E78E
:10188800B0EE480A01F08EFD0028E8D0B5EEC08A17
:10189800F1EE10FAF5EEC08ABDEC028BB7EE000A45
:1018A800FFEE007AD4BFF0EE670AF0EE400AF1EEE0
:1018B80010FABDE80840D8BFB0EE670A03F00CBBC9
:1018C800F0EE480AB0EE680ABDEC028BBDE80840AD
:1018D80003F002BB9FED040AB3E700BF2812002003
:1018E800DB0FC93F00000000DB0FC9BF000000008C
:1018F8002DE9F04F2DED068B4FF0A04485B0FFF792
:1019080083FF63685B0680460BD50B48FFF78EF9AB
:1019180038B14022094B22601B78DAB2012B0092C1
:101928000ED0BFF36F8FBFF34F8F88F3108805B0C9
:10193800BDEC068BBDE8F08F541200203A1B002046
:10194800CF4EB6F80032002B40F06487B6F8FA3173
:10195800CC4CCD4DA4F8D23395F8BF3384F8F4338A
:10196800002B01F06580D5F8A823D6F8C83162624B
:101978009B184FF000025241002A4FF0FF3218BF67
:101988001346A362C14FA360B96AC5F8A833994248
:101998002CBF012300234FF0000263F3070234BF7A
:1019A8000123002363F30F2234BFD7F8F430D7F8AC
:1019B800FC30A4F8F523E36534BFD7F8F820D7F84E
:1019C8000021D5F8B4332266C4F8E03303AAD5F869
:1019D8002C01DFF8C4A20221FFF7B0F9BDF80E30E0
:1019E800B4F9E223D5ED535A96ED435AC4F8C033FF
:1019F8009B1A25EE855AC4ED225A05EE903AD7ED8A
:101A0800523A97ED536A97ED547AB4F9E023C4F843
:101A1800C833F8EEE55ABDF80C30DFED9D6AC4F81E
:101A2800BC3365EEA35A9B1A26EE253AC4ED1A5A22
:101A380067EE035ADFED972AC4ED1E5A65EEA66AD3
:101A480005EE903AF8EEE55A97ED554AD7ED564A25
:101A5800D5ED527A039AC4F8C43365EEA35AD5F883
:101A68005031C4F8DC2326EE256AC4ED217A27EE2E
:101A7800067A84ED1B6AE7EE226A24EE076A84ED93
:101A88001D7A84EDD37A24EEA67A84ED235A84ED68
:101A9800207A84ED1C3AC4ED195AC4EDD46A84ED59
:101AA8001F6AC4F890309AF8003095F8BFB3D5F89B
:101AB8005421C4F89420A3F10102BBFA8BF9B2FABD
:101AC80082F24FEA591995ED567AD5ED578A84ED89
:101AD800267A52094A45C4ED278A84F8F7B384F870
:101AE800F89300F04687032B00F04387D6ED456A4C
:101AF8008AF8009036EEC77A77EEC57A84ED297AAF
:101B080037EE878AC4ED286A59A3D3E90023D7E9B9
:101B1800040184ED2A8AC5ED586AFEF715FD56A31F
:101B2800D3E90023FEF73AFEFEF7D0FF9AF801301A
:101B380007EE100AA3F10102B2FA82F268EE077A00
:101B480052099145C4ED2B7A00F07687032B00F0FB
:101B58007387D6ED466AC5ED596AD6ED475A96EDB4
:101B6800486A8AF8019077EEA67AF4EEC65AF1EE42
:101B780010FAC4ED2C6AC4ED2D7A40F3538797ED23
:101B88001A6AD7ED1B6A76EEC66AC4EDEE6A95ED61
:101B98005A5AD6ED4A4AC4ED2F6A67EE867A65EE40
:101BA800265A84ED2E6A37EEA59AC4ED307AB4EE43
:101BB800E49AF1EE10FA84ED315AC4ED325A84ED0C
:101BC800339A0CDAD6ED4B7AB4EEE79AF1EE10FAC6
:101BD80040F2528695F8C333002B00F04D8696F8F4
:101BE8000832012285F8C3239AF8022095ED5C6A31
:101BF800D6ED4E6AD5ED5B7A84F8F933A2F101018E
:101C0800B1FA81F166EE266A49098945C4ED347A4C
:101C180084ED356AC4ED366A00F0DD86032A00F0EB
:101C2800DA8696ED4F6A9AF8032085ED5D6A77EEBD
:101C3800E67A76EE685AA2F1010177EEA56AB1FA62
:101C480081F166EE877A490989458AF8029084ED20
:101C5800376AC4ED385AC4ED396AC4ED3A7A00F0EF
:101C6800F086032A00F0ED8618E000BFAFF300808D
:101C780099999999999901401087339B0B18B43F0A
:101C880000100020401300205817002000000020FA
:101C98003ACD933F3ACD133F281B002096ED507A5A
:101CA80085ED5E7A96ED516AD6ED526A8AF8039010
:101CB80077EE877AB4EEE66AF1EE10FA84ED3B7AB5
:101CC800C4ED3C7A40F3DD85D7ED1E6A97ED1F7AA7
:101CD80037EE667A84EDED7AD5ED5F5A96ED545A73
:101CE80084ED3E7A67EEA67A25EE876AC4ED3D6AF2
:101CF80037EE868AC4ED3F7AB4EEC58AF1EE10FA63
:101D0800C4ED405A84ED416A84ED428A0CDAD6ED7E
:101D1800557AB4EEE78AF1EE10FA40F27E8695F82D
:101D2800C423002A00F0798696F80A22012185F852
:101D3800C41384F8FA23002B00F07E859AF8051066
:101D4800012900F07985002A00F0F78697ED0E0B3F
:101D58000122019384F8122403F01AF951EC100BB4
:101D6800FEF78CFE019B00B2A4F8EA038AF805305E
:101D78009AF80430A3F10102B2FA82F200284FEA7D
:101D88005212CCBFB1EE499AB1EE488A914584ED22
:101D9800448A84ED439A00F0A885032B00F0A585BA
:101DA800D6ED568AC5ED608A0FF2D073D3E90023C9
:101DB800D7E90201C4ED458A8AF80490FEF7EEFCE3
:101DC800FEF784FE07EE900A28EE287A67EE896A05
:101DD80027EE888A69EE288A36EE870A78EE680A3E
:101DE80084EDE18AC4F81801C4EDDE6A84EDDF7A77
:101DF80084EDE00AC4EDE28AC4EDE30AFFF714FDBE
:101E08003A8EB6F8EE3184EDE50A9A42B0EE408A91
:101E180014D997ED287AD7ED297A20EE078AB4EEFF
:101E2800E78AF1EE10FA84EDE88A05DAD7ED277A29
:101E380038EE278A84EDEA8A84EDE98AD7ED2A7A92
:101E480084EDE68AF4EEC87AF1EE10FA84EDE78ABA
:101E580005D4D7ED267A38EE278A84EDEB8AA26876
:101E6800D6F8D03184EDE48A9A4280F01A85D7ED0D
:101E78002D6AC5EDE06A96F80C3296ED577AD5EDE5
:101E8800617AC4ED476A002B26EE877A0CBF0123DE
:101E9800002384ED487AC4ED497A84F8FB3325D1D0
:101EA80095F8B93384F81134002B40F04D8694ED41
:101EB800D87A77EE878AB0EE680AC4EDD58A03F03F
:101EC800F3F8BDEEC00A96F8073285F8B93310EE7C
:101ED800103A1BB207EE903AB8EEE77AA4F8E83366
:101EE80078EEC77A84EDD67AC4EDD77A94F8F633CB
:101EF800002B00F0CC84D7ED2B7A28EE278A84EDCE
:101F0800DD8AD6ED598AD7ED4F7A84ED4A8A68EE94
:101F1800288AF4EEE78AF1EE10FA4CBF0123002379
:101F2800C4ED4B8A84F8FC33A4F8D43340F1E5843B
:101F3800B0EE680A03F0B8F8BDEEC00A10EE103A29
:101F48001BB207EE903AF8EEE77AA4F8E63378EE9B
:101F5800E78AC4EDBA7AD6ED5A7AB6F9DE01B6F94F
:101F6800E011B6F9E221B6F9E4C194ED207A94EDD6
:101F78001F3AC4ED4C8A68EEA77AFCEEE76AC4ED16
:101F88004D7A16EE903A9BB206EE903A18441944F0
:101F98001A449C44E060216107EB800007EB810153
:101FA80091ED576A90ED575AA4F8D633F8EE662AA1
:101FB800626107EB8C0307EB8202D3ED575AD2ED2F
:101FC800576A84ED4E5A77EEE27A35EE465AC4EDFA
:101FD800506A76EEE56A65EE273A27EEA64A84ED62
:101FE8004F6A36EE236AC4ED515A75EE845A66EE8E
:101FF800074AC4ED547A65EE877A84ED525AB0EEFA
:10200800645AE3EE467AC4F818C0A5EE835AC4EDC4
:10201800576AC4EDC47AC4ED532AC4ED553A84ED29
:10202800566A84ED584AC4ED595A84EDC35A94ED62
:10203800187AD6ED5B6AD6ED5C4A95F8BF3384F81A
:10204800FE9377EE677AC4ED5C4A27EEA67AC4ED74
:102058005A7A84ED5B7A84F8FD33BBF1000F00F007
:10206800E08395F9BD23002A40F0DB83D5ED624A71
:10207800D7ED087AC4ED5D4A37EE247AB4EEE77AF4
:10208800F1EE10FA84ED5E7A08DCD7ED067AB4EE4C
:10209800E77AF1EE10FA58BFF0EE477A94ED177A26
:1020A800D6ED5E4A84F8FF9337EE457AC4ED5F7A41
:1020B80066EE876A84ED607AC4ED616AC4ED624AAF
:1020C800BBF1000F00F0AA8395F9BE23002A40F067
:1020D800A583D5ED634A97ED097AC4ED634A76EE98
:1020E800A46AF4EEC76AF1EE10FAC4ED646A08DC7B
:1020F80097ED077AF4EEC76AF1EE10FA58BFB0EE22
:10210800667AB6F80222D7ED3C6A97ED3B5A84ED21
:10211800657A002A67EE074A27EEA74AB4F8D22361
:10212800C4ED684A08BFB0EE665A74EE843A65EEAC
:10213800056A511E012984ED694AC4ED6A3A84EDA5
:10214800665AC4ED676A40F28184F4EEE36AF1EE00
:1021580010FA4CBF0122002284F80B24A4F8D823DB
:1021680040F1E58425EE077AF5EEC03A25EE275AC8
:10217800F1EE10FA84EDA97A84EDAA5A4FF0000323
:10218800C0F23985F1EEE33AF5EE403AF1EE10FA95
:10219800F0EE636AC4EDAB3A01D1D7ED3A6AD4EDFB
:1021A800A97A94EDAA6AD4ED595A95F8BF33C4EDCB
:1021B800AC6A87EEA67AC6EE267A94ED566A84ED66
:1021C8006B7AC4ED6C7A66EE676A67EEA57AE7EE1D
:1021D800256A84F80034E7EE067AC4EDCE6AC4EDC9
:1021E800CF7A002B00F02C8397ED437A97ED426A63
:1021F8009FEDE5AA97ED465AD7ED458A97ED449AA3
:1022080026EE877A67EE867A3AEE476A77EEC75AFD
:1022180036EE676A65EEA88A26EE858A26EE099A62
:10222800F0EE680AB0EE480AC4ED8F7A84ED907A31
:1022380084ED916AC4ED935A84ED929AC4ED948A20
:1022480084ED958A02F068FEF0EE490A02F064FE19
:10225800F0EE680AF0EE409AB0EE480AC4ED969A9D
:1022680002F03CFEF0EE490A02F038FE97ED475ABC
:10227800D7ED487A97ED497A84ED970A79EE809AF6
:1022880029EE855AC4ED989A78EE056A39EE059AD2
:1022980066EEA71A78EE858A69EE275A28EEA72AED
:1022A80061EE872AD7ED417A84ED995A65EE874A1F
:1022B80062EE073A37EEA23A97ED4A7AC4EDA24A9F
:1022C80037EEA34A37EEA46A67EE037A67EE064A4A
:1022D800F4EECA7A27EE047AF1EE10FA84ED9A9AAF
:1022E800C4ED9B8AC4ED9C6AC4ED9D1A84ED9E2AB8
:1022F800C4ED9F5AC4EDA02A84EDA33AC4EDA67A92
:10230800C4ED6D7AC4EDA13A84EDA44A84EDA77AB0
:1023180084ED6E7A84EDA56AD5F83C21C4EDA84A0F
:10232800C4ED6F4A40F19E82F0EE4A7A1368117943
:10233800DA6A9FED946A586BB1FA81F149090A4447
:1023480006EE902AF8EE666AB5EEC07A66EEA77ACF
:10235800C7EE866AFCEEE67A17EE902A824218BF2C
:102368005A63F1EE10FA00F1DF83DFED867AB4EEFE
:10237800677AF1EE10FAC8BFB0EE677ADA6ADFED75
:10238800816A986B0A4407EE902AF8EE677AF5EEB0
:10239800C04A67EE877A87EEA67AFCEEC77A17EE10
:1023A800902A824218BF9A63F1EE10FA00F1B983BD
:1023B800DFED747AF4EE674AF1EE10FAC8BFF0EE7A
:1023C800674ADA6ADFED6F6A94ED298A0A4407EEF4
:1023D800902AF8EE677AD96B67EEA47AB0EE480ACD
:1023E80087EEA67AFCEEC77A17EE902A8A4218BFC3
:1023F800DA6300F0F1FF002800F0AF825E4BD3ED06
:10240800008AC4ED708A5AA3D3E90023D7E90001F2
:10241800FEF7C4F9FEF75AFBD4ED2D7A94ED246A41
:10242800D6ED606A96ED617A94ED285A36EE676AC1
:1024380008EE100A66EE266A68EE287A27EE057A14
:1024480076EEE75AD4ED388AC4ED717A75EE875A7C
:10245800B0EE680A84ED726AC4ED736A84ED747A2A
:10246800C4ED755A00F0B8FF002800F06882424BAE
:1024780093ED005A28EE058AD4ED3C4A94ED256A7E
:10248800D4EDE47AD6ED645AD6ED626A96ED637AB5
:10249800D5F8A413D6ED663A96ED674A84ED765AD8
:1024A80036EE646A65EEA75A66EE266AD4ED377A88
:1024B80084ED778A27EE277A36EEC83A01F1640070
:1024C80033EE073A84ED7A7A05EB8003BCEEE57AC1
:1024D8005B68236217EE102AD31A84ED077A07EE99
:1024E800103AD6ED657A84ED786AB8EEC77AF4EEDC
:1024F800C43A67EE277AF1EE10FAC4ED796A84EDF2
:102508007B3AC4F8CC3384ED7C7AC4ED7D7A40F311
:102518001182D7ED225AD7ED236A76EEE56AC4ED2B
:10252800EC6A95ED644A96ED696A94ED647AD7EDA4
:10253800093AC4ED7F6A67EEA57A24EE265AB4EE0E
:10254800E37A77EE852AF1EE10FA26EE226AC4EDD8
:102558007E5AC4ED807A84ED814A84ED825AC4EDB6
:10256800832A84ED846A40F3D98137EE637A0DE0DB
:1025780099999999999901402812002055555555CE
:1025880055D554400000C8420000000096ED6C6A22
:10259800D6ED6B7AD4ED606A84ED857AB4EE476A3D
:1025A800F1EE10FAB4EEC76A14BF4FF0010C4FF009
:1025B800000C67EEA66AF1EE10FA4FF000036CF318
:1025C80007034CBF4FF0010C4FF0000C6CF30F23C6
:1025D800B4EEE66AA4F801344CBF96F90F3296F9C6
:1025E800103284F8EC33F1EE10FA4CBF4FF0010CC6
:1025F8004FF0000C84F803C44CBF96F911C296F949
:1026080012C2C4ED866AACEB030EBEFA8EFEB4EEBF
:10261800476A4FEA5E1EF1EE10FA84F8EDC384F8BB
:1026280004E400F007819C4540F00481D7ED506A2E
:10263800012394ED5E7A97ED086A84F80534B4EEC8
:10264800C67AF1EE10FAC4ED876A00F3F08097EDD0
:10265800066AB4EEC67AF1EE10FAC0F2E8801FED11
:10266800367A96ED6D6AD4ED5A5A84ED887AB4EECE
:10267800476AF1EE10FAB4EEC76A14BF4FF0010CC6
:102688004FF0000C67EEA57AF1EE10FA4FF0000358
:102698006CF307034CBF4FF0010C4FF0000C6CF3C8
:1026A8000F23B4EEE76AA4F806344CBF96F9133248
:1026B80096F9143284F8EE33F1EE10FA4CBF4FF06D
:1026C800010C4FF0000C84F808C44CBF96F915C2F1
:1026D80096F916C2C4ED897AACEB030EBEFA8EFEEB
:1026E800B4EE476A4FEA5E1EF1EE10FA84F8EFC3C3
:1026F80084F809E400F098809C4540F09580D7ED77
:10270800517A009B84F80A34D4F83833C4F82C3250
:10271800C5F85031D4F83C33C4F83032C5F85431D8
:10272800E36FC4F83432C5F85831D4F88030C4F8AF
:102738003832C5F85C31D4F8C431C5F84831D4F81A
:10274800A430C5F84C31D4F8D431C5F86031D4F888
:10275800B430C5F86431D4F8CC30C5F8683105EB2D
:102768008000D4F8E030C5F87031D4F80831C4EDF1
:102778008A7A85ED5B8A85ED5D3AC5ED5E4AC5EDE1
:10278800602AC5F87C31D4F85C33426094F9FE23A2
:10279800C5F884314FF0000362F3070362F30F2397
:1027A800A5F8BD3395F8BC33626F95ED626A95ED77
:1027B800637A96ED5D5AD6ED5F5AC5ED642AB3FA91
:1027C80083F35B0905EBC3037529C3F8702395F8F8
:1027D800BC33A26F94BF01310021002B0CBF03232F
:1027E8000123DC3305EB8303A5EE276A1A6095F80D
:1027F800BC33C5F8A413F0EE477AE5EEA67AB3FA2F
:1028080083F35B0985ED626AC5ED637A85F8BB33AE
:10281800FFF787B8B6F8F831FFF79AB8C5ED634AFD
:1028280059E4C5ED624A23E40023009369E737EED3
:10283800467A16E70023FCE6B4F9EA03FFF796BAEE
:10284800B6F8FC31D5F83C2107EE903AF8EE677AF5
:10285800F0EE674AB0EE677AC4ED6D7AC4ED6E7A31
:10286800C4ED6F7A5FEDB96AF4EE667AF1EE10FAAC
:10287800C8BFF0EE667A59E596F809320022FFF7EC
:10288800B1B9D7ED206A97ED217AFFF725BA97ED10
:102898002C8AD4EDD77A28EE278A84EDDC8AFFF7D4
:1028A80030BBD5EDE06A97ED2E7AD7ED2F7AC4EDDF
:1028B800D96A36EE877AB4EEE77AF1EE10FA84ED4B
:1028C800DA7A08DCD7ED307AB4EEE77AF1EE10FA6E
:1028D80058BFF0EE477AD7ED316AC4EDDB7A67EE80
:1028E800A66AC5EDE07AFFF7C6BABBF1000F3FF460
:1028F80057AAD5ED608AFFF757BAFDEEE87A17EECA
:10290800903A1BB207EE903AF8EEE77AA4F8E4336F
:1029180078EEE78AC4EDB97AFFF71DBBD7ED077AE1
:10292800B4EEE77AF1EE10FAB4BF37EE677A1FED2E
:10293800EA7A2BE6D7ED245AD7ED256AF1E59FED23
:10294800B45AF4EEC58AF1EE10FA00F13D81D4BF15
:1029580028EE058AB7EE005A8EE5B5EEC08AF1EE8C
:1029680010FA00F12E81D4BFDFEDA98AF7EE008AB4
:1029780047E5BBF1000F3FF4B9A8D5ED586A77EEEB
:10298800C57A36EEC77A002337EE878A84ED297A2E
:10299800C4ED286A8AF80030D7E9040198A3D3E97E
:1029A800002384ED2A8AFDF7CFFD97A3D3E90023FE
:1029B800FDF7F4FEFEF78AF807EE100A9AF80130E0
:1029C80068EE077A012BC4ED2B7A3FF4C2A8D5ED47
:1029D800596AFFF7C2B8BBF1000F3FF422A995ED81
:1029E8005D6A9AF8032084ED376A77EEE67A76EE28
:1029F800685A002177EEA56A012A66EE877AC4ED47
:102A0800385AC4ED396AC4ED3A7A8AF802103FF4AC
:102A180045A995ED5E7AFFF745B996F80B22002196
:102A2800FFF785B997ED1C6AD7ED1D6AFFF7AFB8B8
:102A3800D6F8CC31FEF7A6BFBBF1000F3FF489A84A
:102A4800C5E7BBF1000F3FF429A9E2E7B98DFB8D7B
:102A5800501A9B1AB3FA83F3B0FA80F05B09400965
:102A68008A4284F80D3484F80C040BD0F0EE445AF2
:102A7800B0EE476AB0EE644AB0EE677AF0EE654AA7
:102A8800F0EE467AB4EEC75AF1EE10FA4CBF0122C6
:102A98000022C4EDAE7A84EDAD7A84F80E247FD49A
:102AA80097ED396A25EE065AB4EEC75AF1EE10FAD8
:102AB80084EDB45ACDBF01220022B0EE475A65EE2C
:102AC800054A84F8102484EDB55A36EEE47A84ED8C
:102AD800AF5AB4EEC47AF1EE10FAACBF012200226C
:102AE800C4EDB04A84EDB17A84EDB24A84F80F247B
:102AF800A4F8DA232CDBB0EE677AC4EDB37A002BA6
:102B080051D0F0EE477A84ED6C7A94ED566AD4EDA4
:102B1800595A95F8BF3384ED6B5AB0EE457AFFF7F2
:102B280052BBDFED3B4A4CE49FED397A26E484ED55
:102B38006B7AC4ED6C7AFFF746BB97ED100B0193E7
:102B480084F81224FFF708B984EDD87AFFF7B1B9F1
:102B5800D7ED376AB4EEE67AF1EE10FA01DC97EDBC
:102B6800357ADFED2B6A84EDB67AB4EEE67AF1EECB
:102B780010FA3BDBF1EEC76AD4EDAE7AC4EDB76A62
:102B8800B0EE667AD7ED386AF4EEE76AF1EE10FA3D
:102B98001FD894EDAF5A94F80D3484EDB37AAEE7AC
:102BA800F0EE664A91E794ED566AD4ED595A95F8D5
:102BB800BF3384ED6B7AF0EE457A84ED6C5AFFF7FB
:102BC80002BBFFEE008A1CE4B1EE488ABFEE005A51
:102BD80052E4D7ED367A94EDAF5A94F80D3427EED7
:102BE800277A84EDB87A84EDB37A88E7B0EE667A0E
:102BF800C4EDB76AC6E7C4F8AC32FFF7CEBA00BF77
:102C080099999999999901401087339B0B18B43F6A
:102C180000000000F0B55149514A4B791269514CF6
:102C2800514D0133DBB202F40050C2F34032642B41
:102C380084F8152495F8B82384F8F02328BF0023D6
:102C48004B71B2FA82F35B0989B084F8F13308B1A9
:102C5800002A75D094F813340021444E85F8BF3308
:102C6800D6F8B8312363D6F8BC316363D6F8C031DF
:102C7800A36396F81C32D4F81022E26204EB8303B3
:102C880084F8F2131A6395F8BB33206B60645BB267
:102C980085F8BC3395F8BC33606BA0645BB25B000D
:102CA80003F1DC02DD3305EB820205EB83031168D7
:102CB8001A6896F81D32A06BE06404EB8303E163A5
:102CC8005964636C2365A36C6365E36C2264A36534
:102CD80096F81E32E86804EB830303AF1A65236D88
:102CE80096F81F220593636D0693022AA36D079336
:102CF80098BF92004FF0000388BF0C22009705A9E7
:102D0800FEF7BEFC00280CBF01230023A4F8D00363
:102D180084F8F3330ED196F81B22D6F817120491D3
:102D2800042A03460097D5F89C0028BF042204A96A
:102D3800FEF7A6FC94F8153485F8B83309B0F0BD51
:102D480095F8BA3384F81334B3FA83F2520984F845
:102D5800142485F8BA2301217FE700BF201B002037
:102D680000080048401300205817002000100020D9
:102D78002DE9F04FDFF8A4B0DFF8A4A0DBF8845306
:102D880083B02846FDF776FBDAE9162306460F4698
:102D9800FDF74CFE88B1002D33DBDAE912890023F8
:102DA800002240464946FDF737FEB0FA80F0400958
:102DB800440184F02003019306E020230446019394
:102DC8004FF000084FF00009124B0022C3E90089B8
:102DD800DAE91401104BFDF7FFF902460B463046BD
:102DE8003946FDF737FE50B901354FF09043019A47
:102DF800CBF884539C619A6203B0BDE8F08F00253C
:102E0800F3E72023019300244FF000084FF0000956
:102E1800DAE700BF401300200000F03F58170020F9
:102E2800000000202DE9F043CE4BCF4FCF4CD04DC2
:102E38000026A7B0C3E900664FF4836231463846DE
:102E480002F068FC31464FF47272204602F062FCD0
:102E5800D5F8C421C4F87023C4F8742395F80D225A
:102E680095F80E3284F8B82395F8052284F8BF3314
:102E780084F8BA23D5F8EA3195F80422C4F8B433B3
:102E880087F81324BB4BBC4A03924FF003321A60F5
:102E980040F203129A8040F60203ADF821308023F5
:102EA8004FF001080D9303A804F1A0030B930596B6
:102EB8008DF81D6084F8C183C4F89480FEF74CFB3C
:102EC800D5F8A811C4F88013D5F80411C4F848112E
:102ED800D5F80811C4F84C11D5F81411C4F86011CC
:102EE800D5F81811C4F86411D5F82411C4F868117C
:102EF800D5F83011C4F86C11D5F83411D5F8103163
:102F0800C4F87011D5F83C11D5F87021C4F89C00AC
:102F1800C4F85031D5F8D801C4F85431C4F8583140
:102F2800C4F85C31C4F87411D5F87831D5F840117B
:102F3800C7F87021C7F8883184F89880C4F8A803C6
:102F4800C4F87811C4F88C31D5F84C31C4F87C3108
:102F5800D5F85831C4F88821C4F88031D5F8D4217F
:102F6800D5F86031C4F88431A4F8BD63C4F894215D
:102F780004F5CC7304F55C71C3E9002208338B4275
:102F8800FAD1B5F8DC01DFF80492A7F8EA0395F85E
:102F98000602D5F8A03184F8B9034FF0A040C4F870
:102FA80090310790D9F8C830C7F860334FF4807073
:102FB80000264FF001080221D9F8CC30ADF82400E2
:102FC8004FF400703246CDF80080C7F85C33ADF896
:102FD80010000B4603A884F8C683C4F82481039123
:102FE800C4F8A46384F8206184F8286106960896DA
:102FF8008DF81260FDF746FE0221C4F82C01FDF79A
:1030080041FFD4F82C01FDF78BFE3146D4F82C0192
:10301800FDF71AFE84F8288184F8C583C4F8348142
:1030280003A8DFF8648184F8306184F83861ADF86A
:103038001060CDF80C80FEF7A3F93146C4F83C01C6
:10304800FDF78CFFD4F83C010421FEF791F8D4F881
:103058003C010421FEF7E4F8D4F83C010421FEF712
:1030680037F9D4F83C11454A0B6898680240062A9B
:1030780033D1D9F830317B67BB67D9F82C31C7F821
:10308800743340F60202D9F83831C7F81032ADF877
:1030980021200023384A23700126237203920593C6
:1030A80080228DF81D3003A8354B0B930D9284F8C0
:1030B800386184F8C763C4F8AC6384F8C063666099
:1030C800FEF74AFAD5F8E631E060C4E9EC63267207
:1030D80084F8C26327B0BDE8F0831A68434502F05C
:1030E800040235D02748834232D000F5406083423D
:1030F8002ED000F5806083422AD000F5806083429C
:1031080026D04ABB1A6842F004021A605A6942F093
:1031180001025A611A6822F004021A601A6842F021
:1031280001021A60184A93420FD002F500629342D6
:103138000BD002F54062934207D002F580629342B9
:1031480003D002F58062934293D14A791A6390E7DB
:1031580000201863002AD5D05A6942F001025A614A
:10316800DCE700BF201B0020401300205817002078
:1031780000100020281B00200080004007000100EC
:103188006817002000340140002C01400000002096
:1031980010B52F4C94F8202132B9D4F824310121EC
:1031A8008B4284F8201125D094F8301131B9D4F825
:1031B80034310122934284F8302125D0237823B971
:1031C80063680122934222703BD094F8903033B95F
:1031D800D4F894300122934284F8902000D010BD96
:1031E80094F89830002BFAD0D4F89C00BDE8104031
:1031F800FEF786BA94F82831002BD5D0D4F82C01E4
:103208000221FDF7FBFDCFE794F83831002BD5D02C
:10321800D4F83C010268136823F001031360FDF73A
:1032280023FFD4F83C010421FDF7CEFFD4F83C017C
:103238000421FEF721F8D4F83C010421FEF774F8C4
:10324800BCE7237A002BC0D0E068FEF759FABCE748
:103258005817002008B5054902222120FEF7BCFABC
:10326800034B4FF480221A6008BD00BFF91800080C
:1032780000E100E0044B4FF48022C3F88020BFF344
:103288004F8FBFF36F8F704700E100E030B51B4CE4
:1032980023785A1C83B022702BB1194A237001215C
:1032A800116003B030BD01A8FEF7B4FA62B6FFF7AB
:1032B800B1FC72B62378134D9DF80520013B2370AD
:1032C8006B7892B15A1C6A709BB96378002BE8D16D
:1032D8000123637062B6FFF74BFD72B66A786378B4
:1032E800013A013B6A706370DBE7002BEDD103B054
:1032F80030BD034A6B7001211160D2E7341B0020F6
:10330800301B0020381B0020F8B5224C224D002726
:1033180027702F7001DF01F00FF800F05FF900F05F
:1033280063F800F0B5FC00F085FC00F0D5FA00F079
:10333800CBF900F077FB194B1E683760FFF78AFF5F
:10334800FFF770FD72B69FED160A00F09BF8336820
:10335800B3FA83F35B092B7062B662B64FF0E022D2
:1033680006E03368003B18BF0123237023785BB95C
:103378002B7803F0FF07002BF3D1FFF709FFFFF7C6
:1033880079FF72B63846F8BD136923F0010313615B
:10339800EEE700BF3B1B00203A1B0020B057000897
:1033A8006F12833A0A4BD3ED007AF4EE407AF1EECD
:1033B80010FA0AD0074BD3ED007AF4EE407AF1EE1A
:1033C80010FA0CBF0120002070470120704700BF91
:1033D8002012002024120020B4EE400AF1EE10FA68
:1033E8006CBF012000207047704700BF30B504460D
:1033F80083B089B94FF080456B6A019300F0B8FF3C
:1034080000906A6A019B9A4210D3009A019B4FF47C
:103418007A7101FB023302E000F0AAFF0346181B91
:10342800A34238BF00F1FF3003B030BD00F0A0FF69
:103438006B6A4FF47A7202FB0033F0E708B5BFF30A
:103448004F8FBFF36F8F094A0949136809688B4288
:1034580006D30123136072B6FFF718FF62B608BDE2
:10346800591C1160002BF6D008BD00BF3C1B002082
:10347800401B0020024A536843F080535360704752
:1034880000ED00E0274BD3ED007AF8EE677A30B410
:1034980027EE800AFCEEC07A17EE903AB3F1807FEF
:1034A8002ED3F8EE676A9FED207A2049C6EE877A18
:1034B800FCEEE77A17EE902A0132B3FBF2F3013BF8
:1034C800B3F1807F0A600AD24FF0E02218485361B6
:1034D800F0240021072380F8234091611361144BE5
:1034E800144C15491548F02200254FF0300C256082
:1034F80083F823C00860DA7783F8222030BC70474D
:103508000A49013B0022B3F1807F0A60E7D24FF0FD
:10351800E02107484B61F024072380F823408A61A3
:103528000B61DCE734120020FFFF7F4B401B0020BB
:1035380000ED00E03C1B0020441B0020453400083F
:10354800EFF3008001B5EFF3118003B41EF0100F04
:1035580008BFB0EE400A0A48006803B488B004A067
:1035680006904FF0807007906FF00600864670470F
:1035780003BC8047BFF36F8F00DFFEE700BF00008A
:10358800441B00201EF0100F08BFB0EE400A1EF0CA
:10359800040F0CBFEFF30880EFF30980816911F87D
:1035A800020C10B101280DD00BE01EF0100F0CBF5B
:1035B8001AB008B003BC80F3118803BC80F30088FC
:1035C8000847FEE74EF61451CEF200010A6842F0B1
:1035D80001020A607047F4E700BF00BF334A08B52C
:1035E800136823F00F0343F004031360136803F018
:1035F8000F03042BFAD12E492E4BD1F8802022F448
:103608008072C1F880201A6842F480321A601A6801
:103618009203FCD5D868284A2649024042F4AA42B7
:1036280042F05302DA60DA6842F08072DA601A68AF
:1036380042F080721A600B689B01FCD58B681D4AAA
:1036480043F003038B608B6823F0F00343F080039F
:103658008B60936803F00C030C2BFAD11749184AB6
:10366800D1F8FC3043F08073C1F8FC3013680020B7
:1036780043F00103136050605368632BFCD90D4B72
:1036880010489A6822F0F0029A609A6822F4E06280
:103698009A609A6822F460529A6000F01BFC0F202E
:1036A80000F0D0FB08B172B6FEE708BD002002406A
:1036B80000700040001002400C80FFF900ED00E0AF
:1036C800001000E080FE210A2DE9F04300249DB09F
:1036D800CDE91344CDE90444CDE91644CDE91844B5
:1036E800CDE91A44CDE90844CDE90A44CDE90C44B2
:1036F800CDE90E44744B159406941294D3F888209F
:10370800724F22F0405242F00052C3F88820DA6C1F
:1037180042F40052DA64DA6C02F400520392039A1B
:10372800DA6C42F00402DA64DA6C02F00402029203
:10373800029ADA6C42F00102DA64DB6C03F00103EE
:10374800019310A94FF001084FF003093846019B77
:10375800CDE9108900F080FC0222032310A9384625
:10376800CDE91023149400F077FC10A94FF0904095
:10377800CDE91089149400F06FFC554BD3F8042858
:1037880022F0FF0242F00502C3F80428DA6922F4A5
:10379800804222F01002DA61DA6922F44052DA61DA
:1037A800DA6922F02002DA61DA6922F04002DA618D
:1037B800DA6942F08002DA61DA6922F4407242F48E
:1037C8008072DA61DA6922F440624FF0A04542F46F
:1037D8008062DA6104A9002200232846CDE9042387
:1037E8000126069400F04AFD16A92846CDE917449B
:1037F800CDE919461B9400F05BFDD5F8C03035487B
:1038080023F47F5323F03F03C5F8C0302B6923F41A
:1038180080332B612B6923F4806323F003032B612E
:103828004FF4403208A90023CDE9082300F0F6FC44
:1038380080230CA928460C93CDE90E440D9600F080
:1038480059FDEB6823F0004323F4001343F00043D1
:10385800EB60EB6C23F4C07343F08003EB64AB685C
:1038680023F0204323F03F03AB60AB6823F0104301
:1038780023F03F0343F08053AB60EB6C23F47853A1
:1038880043F40073EB646B6923F0380343F01003CF
:103898006B61D5F8B03023F00203C5F8B030EB6C9B
:1038A80023F4782343F46033EB646B6923F46003F7
:1038B80043F480036B61D5F8B03023F08003C5F87A
:1038C800B0301DB0BDE8F083001002400008004889
:1038D8000000024000030050D0B5002490B0CDE9AC
:1038E8000844CDE90A44CDE90C44CDE90444494BE8
:1038F8000E940694D3F8882022F44062C3F88820F6
:10390800DA6D42F00102DA65DA6D02F00102019225
:10391800019ADA6C42F00102DA64DB6C03F001030D
:10392800009304220223CDE9022302A90C234FF0BD
:103938009040009A0793002600F08EFB0C2708227F
:10394800022302A94FF09040CDE90223CDE9066792
:10395800CDE9044400F080FB2F4B3048D3F8002811
:1039680022F0FF0242F02202C3F800289A6822F4EB
:10397800804222F010029A609A6822F440529A60BB
:103988009A6822F020029A609A6822F040029A60AF
:103998009A6842F080029A609A6822F440729A60AB
:1039A8009A6822F440629A601D4B0E9408A9CDE9EA
:1039B8000C67CDE90843CDE90A4400F079FD174AC0
:1039C80002F1080353E8003F23F0604302F10800C6
:1039D80040E800310029F3D1104A02F1080353E806
:1039E800003F23F0606302F1080040E8003100293D
:1039F800F3D11368094923F000531360136843F0A7
:103A080001031360CB699A02FCD5CB695B02F9D537
:103A180010B0D0BD001002400000024000800040FD
:103A280080841E002DE9F0430024A3B02146202203
:103A38000EA8CDE90344CDE9054401F06BFE21460B
:103A4800302216A801F066FECDE90844CDE90A4403
:103A5800CDE90C44734F744D3B6E744E43F40063D0
:103A68003B663B6E03F4006302934FF00109029B2F
:103A7800CDF81C9003A9402241F29A032846CDE9CB
:103A8800042300F0B7FF2B6843F080032B60D6F8BF
:103A9800183C43F008034FF00208C6F8183C0EAA79
:103AA8004946602328460E93CDE90F44CDE91148D5
:103AB800CDE91344159400F0F1FFD6F8183C23F033
:103AC8000403C6F8183CD6F8183C43F40063C6F85B
:103AD800183C0EAA1021284600F0E0FFD6F8183C42
:103AE80023F48063C6F8183CD6F81C3C43F008035E
:103AF8000EAAC6F81C3C4FF48071284600F0CEFF91
:103B0800D6F81C3C23F00403C6F81C3C6B6823F071
:103B1800007323F0700343F020036B606B6823F499
:103B280070036B60AB6843F08003AB604FF40053E5
:103B38001A934FF00073002216A91E9328460023FB
:103B4800CDE91623CDE91B44CDE91F4418948DF81F
:103B58006440ADF866401D94219401F045F9FB6C72
:103B6800334D43EA0903FB64FB6C03EA0903019341
:103B7800019BFB6C43EA0803FB64FB6CCDF82480D3
:103B880003EA0803009300260627009B08A9802360
:103B98004FF090400893CDE90A44CDE90C6700F056
:103BA8005BFA08A92846CDE90C67CDE90984CDF868
:103BB80020900B9400F050FA08A92846CDE90C672C
:103BC800CDE90888CDE90A4400F046FA08A94FF47F
:103BD80080734FF090400893CDE90C67CDE90984D4
:103BE8000B9400F039FA08A94FF400734FF0904095
:103BF8000893CDE90C67CDE909840B9400F02CFA01
:103C08004FF4806308A94FF09040CDE90C67CDE9E7
:103C18000A44CDF82480089300F01EFA23B0BDE8CA
:103C2800F08300BF00100240002C0140002001403A
:103C380000040048134B144A996C10B441F0040175
:103C48009964996C114C83B001F0040101910199B8
:103C5800996C41F0010199649B6C03F00103009396
:103C68000020009BE36882F80B034FF400631360A5
:103C7800E36882F80C034FF48053136003B05DF8D7
:103C8800044B70470010024000E100E000ED00E046
:103C98002DE9F04300228FB0CDE90622CDE90822B4
:103CA800CDE90A22CDE90C22474BDA6C42F0040236
:103CB800DA64DA6C02F004020492049ADA6C2020C6
:103CC8000243DA64DA6C02400392039ADA6C42F037
:103CD8000102DA64DA6C02F001020292029ADA6CEA
:103CE80042F00202DA64DB6C4FF0904103F0020309
:103CF8000193364B019A88625A69F02322F0F00248
:103D080093FAA3F3002B5CD0B3FA83F3022101FAF0
:103D180003F32E4913434B614FF40054012305A8C4
:103D280005948DF81C308DF81E3000F0D9F894FAFF
:103D3800A4F4274BDA6834B1B4FA84F4640003239A
:103D4800A34022EA03022249CA604FF400530A68DA
:103D580093FAA3F33BB1B3FA83F35B00032101FAAF
:103D680003F322EA03021A4E00243260012508A94F
:103D780020234FF09040CDE9083502274FF0000886
:103D88004FF00209CDE90A440C9400F065F940238C
:103D980008A93046CDE90837CDE90A45CDE90C89AF
:103DA80000F05AF94FF4007308A93046CDE90C89A0
:103DB800CDE90A450997089300F04EF90FB0BDE820
:103DC800F0830223A5E700BF001002400000014075
:103DD800000800480368B3F1804F00D0704700F036
:103DE800BBBA00BFFEE700BFFEE700BFFEE700BFAB
:103DF800FEE700BFFEE700BF704700BF704700BF87
:103E0800704700BF014800F0EDBC00BF481B002010
:103E18000B4B1A6E42F001021A661A6E82B002F05B
:103E280001020092009A9A6D42F080529A659B6D49
:103E380003F080530193019B02B000F0D3BA00BF96
:103E4800001002401F4B70B59A6D1F4C42F00102E2
:103E58009A659B6D88B003F0010301A90293064699
:103E680003A8029B00F09CFA00F088FA174AA2FB0C
:103E780000239B0C013B4FF080410022C4E9001352
:103E8800204640F2E7332261A260E36000F0E0FBE5
:103E9800054610B1284608B070BD204600F060FC09
:103EA80005460028F6D11C2000F0F4FA0F2E01D99F
:103EB8000125EFE72A4631461C2000F0ADFA044BF5
:103EC8001E60E7E700100240481B002083DE1B430A
:103ED80030120020014B1860704700BF34120020D8
:103EE80010B40346007A68B31868A0B15A7A012A58
:103EF8006FD0022A50D0002A58D003240122997A80
:103F0800002979D002296FD0032900F09E80012969
:103F180000F0918020465A688AB1597A01294FD019
:103F2800022931D021B340F004009B7A3BB1022B27
:103F380078D0032B6ED0012B63D040F005005DF8DC
:103F4800044B7047434A1C68116821EA0401116058
:103F5800516821EA040151605C68116A21EA040190
:103F68001162536A23EA040353625DF8044B7047F5
:103F780001F1804101F582314C6A24EA02044C6265
:103F88000C6A14430C62D0E732490C6A14430C6281
:103F98004C6A14434C62C8E72E4914460A68024327
:103FA8000A604A6802434A600022A8E729494C6827
:103FB80024EA00044C600C6804430C6002249EE769
:103FC80024490C6A24EA02040C624C6A14434C62C9
:103FD800ABE7204A116821EA0001116051680143EA
:103FE8005160022400228AE71A498C6824EA0004F6
:103FF8008C60CC680443CC6010465A68002A9ED076
:104008008BE7144BD96A21EA0201D962996A0A43FB
:104018009A6294E70F498B6A13438B62CB6A134306
:10402800CB628CE70B4B996A21EA02019962D96A43
:104038000A43DA6283E70749CC6824EA0004CC60C3
:104048008C6804438C60104665E702498C68044319
:10405800CEE700BF000401402DE9F04F0D6895FA46
:10406800A5F2B2FA82F235FA02F300F0A1804FF01D
:10407800010C4FF0030EEE4340E0D1F81090D0F859
:104088000CA093FAA3F8B8F1000F07D0B8FA88F893
:104098004FEA48080EFA08F82AEA080A93FAA3F839
:1040A800B8F1000F00F08980B8FA88F84FEA48089C
:1040B80009FA08F949EA0A09022CC0F80C9053D009
:1040C80093FAA3F9D0F80080B9F1000F07D0B9FA34
:1040D80089F94FEA49090EFA09F928EA090893FA11
:1040E800A3F3002B67D0B3FA83F35B009C4044EA48
:1040F80008040460013235FA02F359D00CFA02F3CD
:104108002B40F7D04C6804F1FF38B8F1010FB4D850
:1041180093FAA3F8D1F80890D0F808A0B8F1000FE6
:1041280007D0B8FA88F84FEA48080EFA08F82AEAD9
:10413800080A93FAA3F8B8F1000F65D0B8FA88F81E
:104148004FEA480809FA08F949EA0A09C0F8089044
:10415800D0F80480CF6806EA080807FB05F948EAA2
:104168000908C0F8048088E7FF2B29D893FAA3F838
:10417800D1F81490D0F820A0B8F1000F08D0B8FA00
:1041880088F84FEA88080F2707FA08F82AEA080A81
:1041980093FAA3F8B8F1000F3CD0B8FA88F84FEAC0
:1041A800880809FA08F949EA0A09C0F8209087E757
:1041B8000020BDE8F08F402398E74FF0400877E7EC
:1041C8004FEA1328D1F81490D0F824A098FAA8FB45
:1041D800BBF1000F08D0BBFA8BFB4FEA8B0B0F2704
:1041E80007FA0BFB2AEA0B0A98FAA8F8B8F1000FAD
:1041F8000DD0B8FA88F84FEA880809FA08F949EAA8
:104208000A09C0F824905BE74FF040089AE74FF09E
:104218008008F2E74FF08008C3E700BF4FF0A043E3
:104228009B6813F0010F134B10D19B6813F0010327
:104238001DD130B44C6802465CB980680E4B0968E1
:1042480003400B432046936030BC70479B680120B5
:10425800704785681846084B2B4023430C68234356
:10426800D1E9024123430B4330BC936070470120DE
:10427800704700BF00010050E030C0FF836813F0B2
:10428800010312D10246C06810B420F4404C18460D
:10429800D1E90043896823432CF0180C0B4343EA07
:1042A8000C035DF8044BD36070470120704700BFD2
:1042B8008268D3071AD40E4A0346C06810B4024075
:1042C8004C68086802430CB188680243C868024316
:1042D800D1E9040102430A43DA601A6B22F00F02A3
:1042E800224300205DF8044B1A6370470120704791
:1042F8001CC0F0FF8368DB0715D4C3684A6810B494
:1043080023F004738AB9CC682343C360C36C09687B
:104318005DF8044B23F4FF7323F0010313430B43AD
:10432800C36400207047012070478C682343CC6821
:104338002343C360EAE700BF10B5032000F05AF832
:104348000F20FFF77FFD10B10124204610BD044661
:10435800FFF75EFD204610BD034A0449136809684B
:104368000B441360704700BF941B00202C120020E0
:10437800014B1868704700BF941B0020054B064A84
:104388009B680649C3F302230868D35C03F01F0344
:10439800D840704700100240DC5700083412002053
:1043A8000E4B0F2202609A6802F0030242609A687C
:1043B80002F0F00282609A6802F4E062C2609B68D0
:1043C800DB0810B403F4E063054C036123685DF86F
:1043D800044B03F00F030B60704700BF001002404E
:1043E80000200240024A936843F480439360704778
:1043F800007000400749CA6803024FF6FF0003F443
:10440800E0630240134343F0BF6343F40033CB60DF
:10441800704700BF00ED00E01C4BDB68C3F30223CC
:1044280000B5C3F1070EBEF1040F03F1040C28BF59
:104438004FF0040EBCF1060F1BD9033B4FF0FF3CB5
:104448000CFA03FC22EA0C024FF0FF3C0CFA0EFCBB
:1044580021EA0C019940002841EA02010CDB00F135
:104468006040090100F56140C9B280F800135DF8A9
:1044780004FB00221346E7E7054B00F00F00090193
:104488000344C9B219765DF804FB00BF00ED00E0F3
:10449800FCEC00E0002807DB044A4109012300F096
:1044A8001F00834042F82130704700BF00E100E060
:1044B800F8B5066816F0010624D10B698A680D461E
:1044C8001A436B6901681A431D4B0B401A4302607B
:1044D8004368EA6823F44053134343608368AA6936
:1044E80023F440731343044683604FF4406000F0A4
:1044F8002BF848B92D880120E36A23F00F032B43DA
:10450800E362F8BD0120F8BD6F68002FF2D02D8856
:104518000C4B314633F815203346FCF727FB0902CC
:1045280041EA10617B080002C0183A4641F10001D7
:104538003346FCF71BFBC0F31300E0603046DBE7B3
:10454800F3E9FFEFB45700083B4BD3F8882010403D
:10455800B0F5006F21D0B0F5406F2CD09A68B0F557
:10456800806F30B402F00C021ED0082A62D00C2AE8
:1045780042D03248304B32499A689B68C2F30312E2
:10458800C3F302238A5C2F49CB5C02F01F02D040A0
:1045980003F01F03D84030BC70471868274B10F44D
:1045A800806018BF18467047082A41D00C2A08D0E6
:1045B800224830BC7047D3F89000C0F34000C003D5
:1045C8007047DC68D868DA68DB681C491E4D04F05F
:1045D8000304C3F34163C0F30620C2F3031201339B
:1045E800032C08BF294601325B0001FB00F0B0FB39
:1045F800F2F0B0FBF3F0DCE7DC68D868DA68DB6877
:104608000E4904F0030C104CC3F34163C0F30620B9
:10461800C2F303120133BCF1030F08BF2146013274
:104628005B0001FB00F0B0FBF2F0B0FBF3F0A1E798
:104638000548BEE704489DE7001002400024F40046
:10464800CC570008DC57000800366E01704700BFE1
:10465800002800F0818010B590F83D30044603F042
:10466800FF02002B6DD022683C49022384F83D30BC
:104678008A42136851D0B2F1804F21D0A1F594310C
:104688008A421DD001F580618A4219D001F5963120
:104698008A4242D001F540618A4257D001F58061D3
:1046A8008A4253D001F580618A424FD0A069E168FF
:1046B80023F08003034313606368D162936210E0C0
:1046C800A168206923F070030B4323F44073A169A8
:1046D800034323F08003E0680B4361681360D062F2
:1046E80091620123536184F8483084F83E3084F89D
:1046F8003F3084F8403084F8413084F8423084F800
:10470800433084F8443084F8453084F8463084F8DF
:10471800473084F83D30002010BDA068216923F09F
:104728007003034323F440730B43A16923F0800310
:104738000B431360E368D36263689362636913632E
:10474800CFE780F83C20FFF781FF8CE72069A1695B
:1047580023F440730343E9E701207047002C01402C
:1047680090F83D30012B22D103681749022280F8C6
:104778003D20DA688B4242F00102DA6019D0B3F1C9
:10478800804F16D0114A934213D002F580629342AB
:104798000FD002F5963293420BD002F54062934255
:1047A80007D01A6842F0010200201A607047012001
:1047B80070479968064A0A40062A02D0B2F5803F37
:1047C800EFD10020704700BF002C014000040040DA
:1047D80007000100704700BF704700BF704700BF67
:1047E800704700BF03681A69910710B5044603D5DE
:1047F800DA68920700F18A801A69520702D5DA68E6
:10480800500770D41A69110702D5DA68120758D40C
:104818001A69D10602D5DA68D2063ED41A69D007D9
:1048280003D5DA68D10700F18A801A69120603D520
:10483800DA68100600F18B801A69D10503D5DA68A9
:10484800120600F18C801A69500603D5DA68510601
:1048580000F18D801A69920603D5DA68900600F196
:104868008E801A69D10203D5DA68D20200F18F80EE
:104878001A69900203D5DA68910200F190801A69EA
:10488800520203D5DA68500200F191801A691102C8
:1048980002D5DA6812024AD410BD6FF0100108225E
:1048A80019612277DB6913F4407F204640F090803D
:1048B800FFF790FF2046FFF791FF00222368227739
:1048C800ACE76FF00801042219612277DB699B07C6
:1048D80020467AD1FFF77EFF2046FFF77FFF0022B0
:1048E8002368227794E76FF0040102221961227786
:1048F8009B6913F4407F204664D1FFF76BFF204685
:10490800FFF76CFF0022236822777BE76FF0020134
:104918000122196102779B69990750D1FFF75AFF65
:104928002046FFF75BFF00222368227764E76FF4D5
:10493800000220461A61BDE8104000F059B86FF037
:1049480001021A612046FFF745FA23686DE76FF008
:1049580080021A61204600F041F823686CE76FF482
:1049680080721A61204600F03BF823686BE76FF00D
:1049780040021A612046FFF733FF23686AE76FF0A9
:1049880020021A61204600F027F8236869E76FF4CF
:1049980080121A61204600F025F8236868E76FF452
:1049A80000121A61204600F01FF8236867E76FF4C9
:1049B80080021A61204600F019F8236866E7FFF7BD
:1049C8000BFFB0E7FFF708FF9CE7FFF705FF86E757
:1049D800FFF702FF71E700BF704700BF704700BFD5
:1049E800704700BF704700BF704700BF704700BFE7
:1049F800704700BF284A0368904230B434D0B0F101
:104A0800804F1DD0A2F59432904219D002F58062F1
:104A1800904215D002F59632904235D002F54062A8
:104A2800904237D002F58062904233D002F580621E
:104A380090422FD08C680A880360C46282620CE0BE
:104A48004A68CD688C6823F07003134323F44073DD
:104A58000A882B430360C4628262436943F00103FE
:104A6800436130BC002070474C68CA6823F070036B
:104A7800234323F44073134303608A680B88C2629C
:104A880083620B690363E8E74C68CA6823F0700324
:104A98002343EEE7CA68ECE7002C0140B1F5805FDC
:104AA80030B4034600F00D814CD8102900F0528133
:104AB800B1F5807F40F08580016A156921F4807125
:104AC8000162016A4068DC6921F4007141EA05214C
:104AD80024F48034156824F073042C43556821F4B9
:104AE800807141EA05219A4DAB420FD005F500656A
:104AF800AB420BD005F54065AB4207D005F58065A4
:104B0800AB4203D005F58065AB4213D1556921F45A
:104B1800006141EA8521956920F4805040EA05103A
:104B2800956821F4806141EA8521D56920F4005017
:104B380040EA4510D2685860DC610020DA6330BC76
:104B480019627047B1F5803F00F08380B1F5801F8E
:104B58007CD1016A146821F480110162016A006D38
:104B680020F0807020F4E04040EA0420146921F429
:104B7800001141EA0451546821F4801141EA0451BA
:104B8800734CA3420FD004F50064A3420BD004F584
:104B98004064A34207D004F58064A34203D004F51F
:104BA8008064A34206D15C68956924F4802444EAB1
:104BB80085245C60D268186530BC0020DA6419620C
:104BC8007047012942D1016A156921F0010101628A
:104BD800016A40689C6921F00201294324F4803469
:104BE800156824F073042C43556821F0010129430A
:104BF800574DAB420FD005F50065AB420BD005F51C
:104C08004065AB4207D005F58065AB4203D005F59A
:104C18008065AB4212D1556921F0080141EA85014E
:104C2800956920F480702843956821F0040141EAD1
:104C38008501D56920F4007040EA4500D2685860C3
:104C48009C6100205A6330BC19627047012030BC57
:104C58007047016A146821F480310162016A006DAD
:104C680020F4803020F070002043146921F40031D2
:104C780041EA0441546821F4803141EA0441344C4A
:104C8800A3420FD004F50064A3420BD004F540649E
:104C9800A34207D004F58064A34203D004F58064DE
:104CA800A34206D15C68956924F4803444EA05245B
:104CB8005C601865D268986C9A64002030BC1962F0
:104CC8007047016A556821F480510162016A4068A1
:104CD800DC6924F0807C146921F4005141EA043134
:104CE80021F4805141EA0531194D14682CF4E64C41
:104CF800AB424CEA04240FD005F50065AB420BD05B
:104D080005F54065AB4207D005F58065AB4203D099
:104D180005F58065AB4213D1556921F4004141EA9C
:104D28008531956920F4804040EA8510956821F422
:104D3800804141EA8531D56920F4004040EAC51038
:104D4800D2685860DC6100201A6430BC1962704770
:104D5800002C0140016A156921F010010162016A05
:104D680040689C6921F0200141EA051124F0807413
:104D7800156824F4E64444EA0524556821F0100136
:104D880041EA0511174DAB420FD005F50065AB425E
:104D98000BD005F54065AB4207D005F58065AB4201
:104DA80003D005F58065AB4213D1556921F0800128
:104DB80041EA8511956920F4806040EA850095688C
:104DC80021F0400141EA8511D56920F4006040EAEC
:104DD800C500D26858609C6100209A6330BC196293
:104DE800704700BF002C014010B4D1E901340A7BA0
:104DF800224322F480620C681A4322F400622243A0
:104E0800CB890C6922F48052134323F40053CA6AF5
:104E1800234323F440431343144A904208D002F535
:104E28000062904204D043645DF8044B0020704750
:104E38004C698A6923F47023234323F080534C6A16
:104E4800134323F47003CA69234323F080730C6A65
:104E5800134323F000738A6A234323F00053134358
:104E680043645DF8044B0020704700BF002C0140EC
:104E7800034AD2F8883043F47003C2F88830704788
:104E880000ED00E00D4885460D480E490E4A002306
:104E980002E0D458C4500433C4188C42F9D30B4AE6
:104EA8000B4C002301E013600432A242FBD3FFF74E
:104EB800DFFF00F037FCFEF727FAFEE7008000204E
:104EC80000000020381200202C580008381200205A
:104ED800981B0020FEE7000000F02EB908B52DED64
:104EE800028BF0EE408AB0EE608A00F033F820B909
:104EF800B0EE480ABDEC028B08BDB0EE480A00F0DF
:104F080029F820B1F4EEC88AF1EE10FAF0DDB0EE1F
:104F1800680ABDEC028B08BD08B52DED028BF0EEDA
:104F2800408AB0EE608A00F015F820B9B0EE480A61
:104F3800BDEC028B08BDB0EE480A00F00BF820B1BA
:104F4800F4EEC88AF1EE10FAF0D5B0EE680ABDECBE
:104F5800028B08BD10EE103A33F000400ED0A0F5D9
:104F68000003B3F1FE4F0DD3074B421E9A4207D9F7
:104F7800A0F1FF40B0FA80F0400970470220704766
:104F88000320704704207047FEFF7F0000000000E8
:104F980051EC100B2DE9F843C1F30A53A3F2FF3586
:104FA800132D10EE106A10EE107A0C4632DC002D2C
:104FB80020DB3B4B43FA05F901EA09030343884622
:104FC8002DD035A3D3E90023FBF708F900220023ED
:104FD800FBF74AFD40B1002C03DA4FF480132B4154
:104FE800984428EA090400262346324643EC102B4D
:104FF800BDE8F88328A3D3E90023FBF7EFF80022E4
:105008000023FBF731FD0028EED0002C2CDB002616
:105018003446E9E7332D06DDB5F5806F1CD041EC49
:10502800100BBDE8F883A3F213434FF0FF3828FABA
:1050380003F810EA080FF2D017A3D3E90023FBF70F
:10504800CDF800220023FBF70FFD0028CCD0002C60
:1050580016DB27EA0806C7E710EE102A0B46FBF70F
:10506800BDF841EC100BDCE724F0004434430D4B51
:10507800002C4FF000060CBF4FF000441C46B3E76D
:10508800142D06D0C5F134050123AB401F44BE42A0
:10509800DFD90134DDE700BF9C7500883CE4377E2A
:1050A800FFFF0F000000F0BF10EE102AC2F3C75335
:1050B8007F3B162B22F000412ADC002B10EE100A51
:1050C80018DB1A4919410A4221D0DFED197A70EE2E
:1050D800277AF5EEC07AF1EE10FA18DD002A04DA24
:1050E8004FF4000242FA03F3184420EA010300EEE9
:1050F800103A7047DFED0E7A70EE277AF5EEC07A37
:10510800F1EE10FA03DD002A08DB9FED0A0A70476A
:10511800B1F1FF4FFBD330EE000A7047FFEE007A83
:10512800002918BFB0EE670A704700BFFFFF7F0075
:10513800CAF249710000000010B582B0CDED010A35
:10514800019B23F00042B2F1FF4FF0EE407A30DCD1
:1051580010EE100A20F00041B1F1FF4F29DCB3F145
:105168007E5F42D09C1704F0020444EAD07431B345
:105178007AB3B2F1FF4F40D0B1F1FF4F29D0891A6D
:10518800B1F1F45F4FEAE15234DA002B42DA3C32F3
:1051980040DA9FED340A012C4ED0022C43D064B182
:1051A8009FED317ADFED317A30EE070A30EE670A8B
:1051B80003E09DED017A37EE270A02B010BD022CFC
:1051C80010D09FED2B7A032C08BFB0EE470A02B02F
:1051D80010BD9FED280ADFED287A0028B8BFB0EE91
:1051E800670AEAE79FED210AE7E702B0BDE8104049
:1051F80000F04AB89FED1F0ACDE7B1F1FF4F04F167
:10520800FF3420D0022C26D81C4B03EB840393EDEB
:10521800000AD2E79DED017A87EE870A00F00EF9C1
:1052280000F032F8B7E79FED107ADFED107A30EE34
:10523800070A37EEC00AC0E710EE103A03F1004340
:1052480000EE103AB9E7022C08D80D4B03EB8403A3
:1052580093ED000AB1E79FED030AAEE79FED090A57
:10526800ABE700BF000000002EBDBB33DB0F494099
:10527800DB0F49C0DB0FC93FDB0FC9BFF057000880
:10528800E4570008DB0F493F38B510EE105A25F0F7
:105298000044B4F1A14FF0EE407A0DDBB4F1FF4FBA
:1052A8005BDCDFED537A9FED537A002DD4BFB0EE6F
:1052B800470AB0EE670A38BD4F4B9C425CDCB4F13C
:1052C800445F4DDB4FF0FF3327EEA76ADFED4B6AF3
:1052D800DFED4B5ADFED4B4A9FED4B5A9FED4B4AA2
:1052E80026EE067A5A1CE7EE265ADFED496AA5EE45
:1052F800875AE7EE246ADFED475ADFED474AE6EEC4
:10530800875AA5EE074A9FED455ADFED456AA5EE97
:10531800875AE4EE074ADFED435AE4EE876AE5EE82
:10532800075A66EE866A65EE875A3AD03E4A02EB1D
:10533800830276EEA56A92ED007A3C4A96EEA77A49
:1053480002EB8303002DD3ED006A77EE677A36EE21
:10535800E70AB0DAB1EE400A38BD30EE000A38BDCF
:105368009FED337A30EE077AF7EE006AB4EEE67A0C
:10537800F1EE10FAA6DD38BD00F060F82D4B9C4226
:1053880016DCA3F5D0039C4227DCF0EE007ABFEED2
:10539800007AA0EE277A002330EE270AC7EE007ABB
:1053A80092E776EEA56AE6EEE77AB0EE670A38BDD0
:1053B800214B9C420BDCF7EE087AB7EE007AA0EEA0
:1053C800277A022330EE670AC0EE077A7CE7BFEE41
:1053D800007AC7EE007A032376E7F7EE007A30EE1C
:1053E800677A30EE270A0123C7EE007A6CE700BF20
:1053F800DB0FC93FDB0FC9BFFFFFDF3ED769853C25
:1054080059DA4B3D21A215BD356B883D6E2EBA3D4C
:105418006BF16EBD95879DBD2549123E388EE3BD63
:10542800ABAAAA3ECDCC4CBE0C580008FC570008CD
:10543800CAF24971FFFF973FFFFF1B4010EE103A79
:1054480023F0004300EE103A704700BF2DE9F04703
:10545800089E0D4604460F46002B4AD18A429446C0
:1054680065D9B2FA82F343B102FA03FCC3F1200210
:105478009F4020FA02F217439C404FEA1C4E1FFA45
:105488008CF5B7FBFEF1220C0EFB117742EA0742BE
:1054980001FB05F090420AD91CEB020201F1FF372B
:1054A80080F01C81904240F2198102396244121A3C
:1054B800A4B2B2FBFEF00EFB102244EA024400FB49
:1054C80005F5A5420AD91CEB040400F1FF3280F06F
:1054D8000781A54240F204816444023840EA014051
:1054E800641B00211EB1DC400023C6E90043BDE86F
:1054F800F0878B4208D9002E00F0ED800021C6E924
:1055080000050846BDE8F087B3FA83F1002949D1C0
:10551800AB4202D3824200F2F880841A65EB0302A0
:1055280001201746002EE2D0C6E90047DFE702B99E
:10553800FFDEB2FA82F3002B40F090808A1A4FEA1D
:105548001C471FFA8CFE0121B2FBF7F507FB15205B
:10555800220C42EA00420EFB05F0904208D91CEBEF
:10556800020205F1FF3802D2904200F2CB80454694
:10557800121AA4B2B2FBF7F007FB102244EA024465
:105588000EFB00FEA64508D91CEB040400F1FF320F
:1055980002D2A64500F2BB801046A4EB0E0440EAF6
:1055A80005409FE7C1F120078B4022FA07FC4CEA2F
:1055B800030C05FA01F420FA07F3FD404FEA1C49F1
:1055C8002343B5FBF9F81FFA8CFE09FB18551C0C90
:1055D80044EA054408FB0EF5A54202FA01F200FA76
:1055E80001F00BD91CEB040408F1FF3A80F0888025
:1055F800A54240F28580A8F102086444641B9DB26C
:10560800B4FBF9F309FB134445EA044403FB0EFE1B
:10561800A64508D91CEB040403F1FF356CD2A64556
:105628006AD9023B644443EA0843A3FB0295A4EB0E
:105638000E04AC42C846AE4656D353D056B1B0EB72
:10564800080264EB0E0404FA07F7CA40CC4017437B
:10565800C6E9007418460021BDE8F087C3F12001AF
:1056680002FA03FC20FA01F225FA01F19D402A43CF
:105678004FEA1C471FFA8CFEB1FBF7F007FB101529
:10568800110C41EA054100FB0EF58D4204FA03F4C2
:1056980008D91CEB010100F1FF382FD28D422DD91A
:1056A80002386144491B92B2B1FBF7F507FB1511AB
:1056B80042EA014205FB0EF1914208D91CEB0202B5
:1056C80005F1FF3816D2914214D9023D6244521AAC
:1056D80045EA004138E73146304608E73946E6E60C
:1056E8001046FBE64845A9D2B9EB020865EB0C0E5B
:1056F800013BA3E74546EAE72B4694E74046D1E756
:10570800D0467BE7023D624432E708460AE7644434
:10571800023842E702440346934200D1704703F837
:10572800011BF9E770B50D4D0D4C641BA410002644
:10573800A64209D10B4D0C4C00F026F8641BA410AE
:105748000026A64205D170BD55F8043B984701369E
:10575800EEE755F8043B98470136F2E7245800086D
:105768002458000824580008285800080A44914280
:1057780000F1FF3300D1704710B511F8014B03F861
:10578800014F9142F9D110BDF8B500BFF8BC08BC73
:105798009E467047F8B500BFF8BC08BC9E467047E7
:1057A800081C3044586C0000201B00200100020037
:1057B8000400060008000A000C0010002000400049
:1057C8008000000100000000000000000102030446
:1057D800060708090000000001020304DB0F49BFA7
:1057E800E4CB1640E4CB16C000000080DB0F494034
:1057F800DB0F49C03863ED3EDA0F493F5E987B3FC7
:10580800DA0FC93F6937AC3168212233B40F14333A
:045818006821A2332E
:08581C0038FCFF7F01000000D1
:04582400110C00085B
:04582800E90B000880
:10582C00239573733B45683F00000000000059400E
:10583C00CDCCCCCCCCCCEC3F000080BF000080BFEA
:10584C000000803F0000803F007102000100010059
:10585C000100000000000000000000000000F0BF8C
:10586C00000000000000F03F000000000000F03FCE
:10587C000000000000002440000000000000144064
:10588C000000000000000000000000000000803F4D
:10589C003685F93CD633783F000000000000803F8D
:1058AC003685F93CD633783F000000000000803F7D
:1058BC008988883ABCBB7F3FDB0FC9400000803F22
:1058CC0083F9223E000000000000000083F9223E14
:1058DC000000803F0000000017B7D1380000504195
:1058EC000000000017B75138000000000000000055
:1058FC003ACD133F00000000000080BF0000000004
:10590C0000000000000080BF0000803F000000008D
:10591C003333733F000000000000803E00000000A5
:10592C00C3F5A83E0000003FD7B35D3F0000003F29
:10593C000000803F0000803F0000803F000000BF5F
:10594C003ACD933F0000003F0000C8420000000029
:10595C00000000000000000000000000000000003B
:10596C0000000000000000003333533AABAAAA3FFA
:10597C002FBAE8BE0000803F0000803F000000000E
:10598C00A6AD003CA2AC803C6800C13C91A8003D97
:10599C00E7CE203DB2F2403D7113613D5198803D00
:1059AC00E2A4903D2AAFA03DE8B6B03DDCBBC03DC3
:1059BC00C5BDD03D62BCE03D72B7F03D5B57003ECB
:1059CC00F650083E6A48103E963D183E5B30203E2D
:1059DC009920283E2F0E303EFDF8373EE3E03F3E47
:1059EC00C2C5473E79A74F3EE985573EF1605F3E01
:1059FC007338673E4D0C6F3E61DC763E90A87E3E60
:105A0C005C38833E5E1A873E3EFA8A3EECD78E3E69
:105A1C0059B3923E748C963E2F639A3E7A379E3ED3
:105A2C004509A23E81D8A53E1FA5A93E0F6FAD3EEC
:105A3C004136B13EA8FAB43E32BCB83ED27ABC3E36
:105A4C007836C03E15EFC33E9AA4C73EF856CB3EFF
:105A5C002006CF3E03B2D23E925AD63EBEFFD93E6E
:105A6C007AA1DD3EB53FE13E62DAE43E7171E83E7B
:105A7C00D504EC3E7F94EF3E6020F33E6BA8F63EDF
:105A8C00902CFA3EC2ACFD3E7994003F8A50023F06
:105A9C008B0A043F77C2053F4678073FF22B093F3C
:105AAC0073DD0A3FC28C0C3FDA390E3FB2E40F3F74
:105ABC00458D113F8B33133F7FD7143F1879163F19
