:020000040800F2
:100000000080002005410108711D0108771D0108CD
:100010007D1D0108831D0108891D010800000000E5
:1000200000000000000000000000000055ED000886
:100030008F1D01080000000011ED000839EC0008D8
:100040005541010855410108554101085541010834
:100050005541010855410108554101085541010824
:1000600055410108554101085541010855FB00085B
:100070009D1D0108AB1D0108B91D0108C71D010820
:100080005541010800000000A95D00085541010824
:1000900055410108554101085541010855410108E4
:1000A00055410108554101085541010855410108D4
:1000B000D51D0108B17B00085541010855410108D3
:1000C00055410108554101085541010855410108B4
:1000D00055410108554101085541010855410108A4
:1000E0005541010855410108554101085541010894
:1000F0005541010855410108554101080000000023
:1001000000000000554101080000000055410108B1
:100110005541010800000000554101085541010802
:100120005541010855410108554101085541010853
:100130005541010800000000000000005541010881
:100140005541010855410108000000000000000071
:10015000000000000000000000000000000000009F
:1001600000000000000000000000000055410108F0
:1001700055410108000000000000000000000000E0
:1001800000000000554101080000000000000000D0
:10019000000000000000000000000000000000005F
:1001A00000000000000000005541010841FB00086C
:1001B0005541010855410108554101080000000062
:1001C0000000000055410108000000000000000090
:0801D0005541010855410108E9
:1001D80081F0004102E000BF83F0004330B54FEAF0
:1001E80041044FEA430594EA050F08BF90EA020F5D
:1001F8001FBF54EA000C55EA020C7FEA645C7FEAF0
:10020800655C00F0E2804FEA5454D4EB5555B8BF12
:100218006D420CDD2C4480EA020281EA030382EA83
:10022800000083EA010180EA020281EA0303362D15
:1002380088BF30BD11F0004F4FEA01314FF4801CE8
:100248004CEA113102D0404261EB410113F0004FFA
:100258004FEA03334CEA133302D0524263EB4303B1
:1002680094EA050F00F0A780A4F10104D5F1200E4F
:100278000DDB02FA0EFC22FA05F2801841F10001AA
:1002880003FA0EF2801843FA05F359410EE0A5F17E
:1002980020050EF1200E012A03FA0EFC28BF4CF0AF
:1002A800020C43FA05F3C01851EBE37101F0004565
:1002B80007D54FF0000EDCF1000C7EEB00006EEB72
:1002C8000101B1F5801F1BD3B1F5001F0CD34908FC
:1002D8005FEA30004FEA3C0C04F101044FEA445253
:1002E80012F5800F80F09A80BCF1004F08BF5FEADA
:1002F800500C50F1000041EB045141EA050130BDBA
:100308005FEA4C0C404141EB0101013C28BFB1F5CB
:10031800801FE9D291F0000F04BF01460020B1FA16
:1003280081F308BF2033A3F10B03B3F120020CDAE9
:100338000C3208DD02F1140CC2F10C0201FA0CF0C7
:1003480021FA02F10CE002F11402D8BFC2F1200C2C
:1003580001FA02F120FA0CFCDCBF41EA0C019040E2
:10036800E41AA2BF01EB0451294330BD6FEA04042B
:100378001F3C1CDA0C340EDC04F11404C4F1200216
:1003880020FA04F001FA02F340EA030021FA04F328
:1003980045EA030130BDC4F10C04C4F1200220FA7F
:1003A80002F001FA04F340EA0300294630BD21FABD
:1003B80004F0294630BD94F0000F83F4801306BF83
:1003C80081F480110134013D4EE77FEA645C18BF77
:1003D8007FEA655C29D094EA050F08BF90EA020F0E
:1003E80005D054EA000C04BF1946104630BD91EA06
:1003F800030F1EBF0021002030BD5FEA545C05D109
:100408004000494128BF41F0004130BD14F5800447
:100418003CBF01F5801130BD01F0004545F0FE41BB
:1004280041F470014FF0000030BD7FEA645C1ABFF0
:10043800194610467FEA655C1CBF0B46024650EA27
:10044800013406BF52EA033591EA030F41F4002153
:1004580030BD00BF90F0000F04BF0021704730B5D9
:100468004FF4806404F132044FF000054FF00001AE
:1004780050E700BF90F0000F04BF0021704730B56F
:100488004FF4806404F1320410F0004548BF404244
:100498004FF000013EE700BF42004FEAE2014FEA99
:1004A80031014FEA02701FBF12F07F4393F07F4F74
:1004B80081F06051704732F07F4208BF704793F077
:1004C8007F4F04BF41F40021704730B54FF460748A
:1004D80001F0004521F000411CE700BF50EA01028D
:1004E80008BF704730B54FF000050AE050EA010236
:1004F80008BF704730B511F0004502D5404261EBA6
:1005080041014FF4806404F132045FEA915C3FF4E6
:10051800D8AE4FF003025FEADC0C18BF03325FEA83
:10052800DC0C18BF033202EBDC02C2F1200300FA34
:1005380003FC20FA02F001FA03FE40EA0E0021FA59
:1005480002F11444BDE600BF70B54FF0FF0C4CF447
:10055800E06C1CEA11541DBF1CEA135594EA0C0FF9
:1005680095EA0C0F00F0DEF82C4481EA030621EA34
:100578004C5123EA4C5350EA013518BF52EA03356F
:1005880041F4801143F4801338D0A0FB02CE4FF021
:100598000005E1FB02E506F00042E0FB03E54FF051
:1005A8000006E1FB03569CF0000F18BF4EF0010E49
:1005B800A4F1FF04B6F5007F64F5407404D25FEA45
:1005C8004E0E6D4146EB060642EAC62141EA5551F8
:1005D8004FEAC52040EA5E504FEACE2EB4F1FD0C3A
:1005E80088BFBCF5E06F1ED8BEF1004F08BF5FEAB8
:1005F800500E50F1000041EB045170BD06F000466A
:1006080046EA010140EA020081EA0301B4EB5C0416
:10061800C2BFD4EB0C0541EA045170BD41F480110E
:100628004FF0000E013C00F3AB8014F1360FDEBF33
:10063800002001F0004170BDC4F10004203C35DA0F
:100648000C341BDC04F11404C4F1200500FA05F392
:1006580020FA04F001FA05F240EA020001F0004233
:1006680021F0004110EBD37021FA04F642EB0601A9
:100678005EEA430E08BF20EAD37070BDC4F10C04D3
:10068800C4F1200500FA04F320FA05F001FA04F297
:1006980040EA020001F0004110EBD37041F1000183
:1006A8005EEA430E08BF20EAD37070BDC4F120058E
:1006B80000FA05F24EEA020E20FA04F301FA05F2F6
:1006C80043EA020321FA04F001F0004121FA04F29E
:1006D80020EA020000EBD3705EEA430E08BF20EA6E
:1006E800D37070BD94F0000F0FD101F000464000A8
:1006F80041EB010111F4801F08BF013CF7D041EA2A
:10070800060195F0000F18BF704703F0004652002D
:1007180043EB030313F4801F08BF013DF7D043EAFE
:100728000603704794EA0C0F0CEA135518BF95EAB4
:100738000C0F0CD050EA410618BF52EA4306D1D13B
:1007480081EA030101F000414FF0000070BD50EA5A
:10075800410606BF1046194652EA430619D094EAE4
:100768000C0F02D150EA013613D195EA0C0F05D1CE
:1007780052EA03361CBF104619460AD181EA030122
:1007880001F0004141F0FE4141F470014FF00000DA
:1007980070BD41F0FE4141F4780170BD70B54FF075
:1007A800FF0C4CF4E06C1CEA11541DBF1CEA1355F5
:1007B80094EA0C0F95EA0C0F00F0A7F8A4EB0504D7
:1007C80081EA030E52EA03354FEA013100F08880CE
:1007D8004FEA03334FF0805545EA131343EA126397
:1007E8004FEA022245EA111545EA10654FEA00264C
:1007F8000EF000419D4208BF964244F1FD0404F505
:10080800407402D25B084FEA3202B61A65EB030560
:100818005B084FEA32024FF480104FF4002CB6EB1D
:10082800020E75EB030E22BFB61A754640EA0C009D
:100838005B084FEA3202B6EB020E75EB030E22BFDD
:10084800B61A754640EA5C005B084FEA3202B6EB1E
:10085800020E75EB030E22BFB61A754640EA9C00DD
:100868005B084FEA3202B6EB020E75EB030E22BFAD
:10087800B61A754640EADC0055EA060E18D04FEA6B
:10088800051545EA16754FEA06164FEAC30343EA0B
:1008980052734FEAC2025FEA1C1CC0D111F4801FD8
:1008A8000BD141EA00014FF000004FF0004CB6E7D1
:1008B80011F4801F04BF01430020B4F1FD0C88BF70
:1008C800BCF5E06F3FF6AFAEB5EB030C04BFB6EB7B
:1008D800020C5FEA500C50F1000041EB045170BD6E
:1008E8000EF0004E4EEA113114EB5C04C2BFD4EB9B
:1008F8000C0541EA045170BD41F480114FF0000E1F
:10090800013C90E645EA060E8DE60CEA135594EA9A
:100918000C0F08BF95EA0C0F3FF43BAF94EA0C0F9D
:100928000AD150EA01347FF434AF95EA0C0F7FF412
:1009380025AF104619462CE795EA0C0F06D152EA66
:1009480003353FF4FDAE1046194622E750EA41064A
:1009580018BF52EA43067FF4C5AE50EA41047FF45B
:100968000DAF52EA43057FF4EBAE12E74FF0FF3CC0
:1009780006E000BF4FF0010C02E000BF4FF0010C91
:100988004DF804CD4FEA410C7FEA6C5C4FEA430C0A
:1009980018BF7FEA6C5C1BD001B050EA410C0CBF59
:1009A80052EA430C91EA030F02BF90EA020F0020BB
:1009B800704710F1000F91EA030F58BF994208BF22
:1009C80090422CBFD8176FEAE37040F001007047DF
:1009D8004FEA410C7FEA6C5C02D150EA013C07D136
:1009E8004FEA430C7FEA6C5CD6D152EA033CD3D081
:1009F8005DF8040B704700BF8446104662468C467B
:100A08001946634600E000BF01B5FFF7B7FF0028AD
:100A180048BF10F1000F01BD4DF808EDFFF7F4FFD6
:100A28000CBF012000205DF808FB00BF4DF808ED61
:100A3800FFF7EAFF34BF012000205DF808FB00BF84
:100A48004DF808EDFFF7E0FF94BF012000205DF8A6
:100A580008FB00BF4DF808EDFFF7CEFF94BF01205B
:100A680000205DF808FB00BF4DF808EDFFF7C4FF54
:100A780034BF012000205DF808FB00BF4FEA410C9D
:100A88007FEA6C5C02D150EA013C0AD14FEA430C80
:100A98007FEA6C5C02D152EA033C02D14FF00000BD
:100AA80070474FF0010070474A0011D212F500124A
:100AB80011D20DD56FF47873B3EB62520ED44FEAAE
:100AC800C12343F0004343EA505323FA02F070472E
:100AD8004FF00000704750EA013002D14FF0FF306C
:100AE80070474FF0000070474FEA4102B2F1E0430F
:100AF80024BFB3F5001CDCF1FE5C0DD901F0004CFD
:100B08004FEAC0024CEA5070B2F1004F40EB83004C
:100B180008BF20F00100704711F0804F21D113F178
:100B28003872BCBF01F00040704741F480114FEAB1
:100B38005252C2F11802C2F1200C10FA0CF320FA3A
:100B480002F018BF40F001004FEAC1234FEAD32357
:100B580003FA0CFC40EA0C0023FA02F34FEA4303C1
:100B6800CCE77FEA625307D150EA01331EBF4FF04A
:100B7800FE4040F44000704701F0004040F0FE4065
:100B880040F40000704700BF53B94AB9002908BFB4
:100B980000281CBF4FF0FF314FF0FF3000F00CB8B9
:100BA800ADF1080C6DE904CE13F0BAFFDDF804E0EE
:100BB800DDE9022304B07047704700BF0348044BC7
:100BC800834202D0034B03B11847704788260020A0
:100BD80088260020000000000548064B1B1AD90F84
:100BE80001EBA301491002D0034B03B1184770472A
:100BF80088260020882600200000000010B5064C3A
:100C0800237843B9FFF7DAFF044B13B10448AFF375
:100C180000800123237010BD8826002000000000FA
:100C2800704E010808B5054B1BB105490548AFF3DF
:100C38000080BDE80840FFF7CFBF00BF00000000FC
:100C48008C260020704E010880B483B000AF786015
:100C58007B68DB6803F44063002B01D1012300E0CB
:100C6800002318460C37BD465DF8047B704780B4F6
:100C780083B000AF786039607B681B6B23F00F028C
:100C88003B681A437B681A6300BF0C37BD465DF8A2
:100C9800047B704780B483B000AF786039607B68AC
:100CA800DB6823F003023B681A437B68DA6000BF05
:100CB8000C37BD465DF8047B704780B483B000AF45
:100CC80078607B68DB6C03F4C073002B01D10123CF
:100CD80000E0002318460C37BD465DF8047B7047DA
:100CE80080B483B000AF78607B689B6823F00043D2
:100CF80023F03F0343F001027B689A6000BF0C3782
:100D0800BD465DF8047B704780B483B000AF78605F
:100D18007B689B6823F0004323F03F0343F0020203
:100D28007B689A6000BF0C37BD465DF8047B70474E
:100D380080B483B000AF78607B689B6803F00103E0
:100D4800012B01D1012300E0002318460C37BD46D2
:100D58005DF8047B704780B483B000AF78607B682F
:100D68009B6823F0004323F03F0343F004027B68B1
:100D78009A6000BF0C37BD465DF8047B704780B4AD
:100D880083B000AF78607B689B6823F0004323F052
:100D98003F0343F008027B689A6000BF0C37BD46EA
:100DA8005DF8047B704780B483B000AF78607B68DF
:100DB8001B6803F04003402B01D1012300E000230E
:100DC80018460C37BD465DF8047B704780B483B085
:100DD80000AF78607B6840221A6000BF0C37BD46C0
:100DE8005DF8047B704780B483B000AF78607B689F
:100DF8005B6843F008027B685A6000BF0C37BD4649
:100E08005DF8047B704780B483B000AF78607B687E
:100E18005B6843F040027B685A6000BF0C37BD46F0
:100E28005DF8047B704780B483B000AF78607B685E
:100E38005B6823F008027B685A6000BF0C37BD4628
:100E48005DF8047B704780B483B000AF78607B683E
:100E58005B6823F010027B685A6000BF0C37BD4600
:100E68005DF8047B704780B483B000AF78607B681E
:100E78005B6823F040027B685A6000BF0C37BD46B0
:100E88005DF8047B704780B483B000AF78607B68FE
:100E98005B6823F080027B685A6000BF0C37BD4650
:100EA8005DF8047B704780B483B000AF78607B68DE
:100EB8005B6803F01003102B01D1012300E000232D
:100EC80018460C37BD465DF8047B704780B483B084
:100ED80000AF78607B685B6803F08003802B01D1EA
:100EE800012300E0002318460C37BD465DF8047B5B
:100EF800704780B584B000AF78600123FB817B68C0
:100F08001B691846FFF7D9FE0346002B24D07B68DF
:100F18009B7ADBB2022B0CD07B689B7ADBB2082B66
:100F280007D07B681B691846FFF73DFF0346012B76
:100F380012D17B689B7ADBB2082B03D17B68012234
:100F48009A7202E07B6820229A727B681B691846B5
:100F5800FFF715FF0023FB81FB8918461037BD46B4
:100F680080BD80B487B000AFF8600B467A607B81A3
:100F7800FB6880333B6100237B610DE07B699B004C
:100F88003A69134419687B695B007A6813448AB22A
:100F98001A807B6901337B617B897A699A42EDDB30
:100FA80000BF00BF1C37BD465DF8047B704780B4A6
:100FB80085B000AFF860B9607A603B6000BF143755
:100FC800BD465DF8047B704780B485B000AFF8601B
:100FD800B9607A6000BF1437BD465DF8047B70477E
:100FE80080B584B000AF78607B681B691846FFF74E
:100FF800DAFE0346FB73FB7B012B07D17B681B6979
:101008001846FFF7E3FE7B6802229A72FB7B1846BC
:101018001037BD4680BD80B582B000AF78600B4602
:10102800FB70FB78012B0DD17B681B691846FFF715
:101038000BFE0346012B12D07B681B691846FFF78D
:101048008AFE0CE07B681B691846FFF736FE0346EC
:10105800012B04D07B681B691846FFF790FE00BF80
:101068000837BD4680BD000090B589B002AFF86072
:10107800084611461A4603467B810B463B811346B8
:10108800FB8000237B61FB681B69B3F1A04F01D192
:101098003A4B7B617B69002B6BD0FB681A697B69D3
:1010A8001A617B690022DA71FB88012B61D03B89C8
:1010B800002B47D07B695B7ADBB2082B42D0FB68F8
:1010C800DA687B69DA60FB681A687B691A60FB6812
:1010D8005A697B695A61FB689A797B699A71FB68DE
:1010E8001A797B691A717B691B69B96A1846FFF717
:1010F800BEFD7B89012B21D07B89042B16D17B690E
:101108001B6903211846FFF7C5FD7B6918697B69D0
:1011180059697B699B791C467B69DA687B691B681E
:10112800009313462246FFF742FF07E07B89022B14
:1011380004D17B691B691846FFF755FE7B690822B5
:101148005A7216E03B89002B13D17B699B7ADBB27C
:10115800082B0ED0FB685A797B695A717B89022B60
:1011680004D17B691B691846FFF74DFE7B6908228D
:101178009A727B6918461C37BD4690BDA42600208C
:1011880080B582B000AF78607B681B691846FFF7AE
:10119800CFFD0346002B04D17B681B691846FFF777
:1011A8009FFD00BF0837BD4680BD80B586B000AF43
:1011B800F8600B467A607B810123FB82FB681B6920
:1011C800002B4BD07B89012B05D1F868FFF791FEE6
:1011D8000346FB8242E07B89042B24D1FB681B6910
:1011E8001846FFF76AFD0346002B37D0FB6801223B
:1011F8009A72FB681B691846FFF7C1FD00BFFB68C0
:101208009B7ADBB2022BFAD1FB681869FB685B7921
:101218009BB27A681946FFF7A4FEFB6808229A7207
:101228000023FB821AE07B89022B17D1FB689B7A8B
:10123800DBB2202B04D0FB689B7ADBB2022B0DD1EA
:10124800FB6808229A72FB681869FB685B799BB295
:101258007A681946FFF785FE0023FB82FB8A184649
:101268001837BD4680BD80B582B000AF78600B46A8
:101278007B8013463B807B681B691846FFF758FD47
:101288000346002B04D07B681B691846FFF73CFD1A
:101298007B681B691846FFF719FE0346002B04D02C
:1012A8007B681B691846FFF7EEFD7B681B691846CB
:1012B800FFF7F9FD0346002B04D07B681B6918462D
:1012C800FFF7C1FD3B88002B35D07B88012B1AD056
:1012D8007B88022B05D17B681B691846FFF7A3FDA5
:1012E80011E07B88042B0ED17B6818697B685969EB
:1012F8007B689B791A46FFF767FE7B681B690021AC
:101308001846FFF7C7FC7B680022DA607B6800227A
:101318001A607B6800225A617B6800229A717B6898
:1013280000221A717B681A697B681B791946104676
:10133800FFF79DFC0AE07B6800225A717B88022B2C
:1013480004D17B681B691846FFF78DFD00BF08377D
:10135800BD4680BD80B485B000AF78607B681B68EF
:1013680003F06003FB60FB68002B04D17B681B68FB
:1013780003F01003FB60FB6818461437BD465DF8A0
:10138800047B704780B483B000AF78607B681B6BC8
:1013980018460C37BD465DF8047B704780B483B0AF
:1013A80000AF786039607B681A6A3B681A437B68CB
:1013B8001A6200BF0C37BD465DF8047B704780B4E5
:1013C80083B000AF786039607B681A6A3B68DB439A
:1013D8001A407B681A6200BF0C37BD465DF8047B73
:1013E800704780B483B000AF78607B685B6B184649
:1013F8000C37BD465DF8047B704780B483B000AFFE
:1014080078607B68DB6B18460C37BD465DF8047B5B
:10141800704780B483B000AF78607B681B6C184657
:101428000C37BD465DF8047B704780B483B000AFCD
:1014380078607B685B6C43F400427B685A6400BF49
:101448000C37BD465DF8047B704780B483B000AFAD
:1014580078607B686FF002021A6100BF0C37BD46E6
:101468005DF8047B704780B483B000AF78607B6818
:101478001B6903F00203022B01D1012300E00023C2
:1014880018460C37BD465DF8047B704780B483B0BE
:1014980000AF78607B686FF008021A6100BF0C37F4
:1014A800BD465DF8047B704780B483B000AF7860B8
:1014B8007B681B6903F00803082B01D1012300E0B6
:1014C800002318460C37BD465DF8047B704780B48E
:1014D80083B000AF78607B686FF010021A6100BFBC
:1014E8000C37BD465DF8047B704780B483B000AF0D
:1014F80078607B681B6903F01003102B01D101236E
:1015080000E0002318460C37BD465DF8047B7047A1
:1015180080B483B000AF78607B686FF400721A61A2
:1015280000BF0C37BD465DF8047B704780B483B0BC
:1015380000AF78607B681B6903F40073B3F5007F24
:1015480001D1012300E0002318460C37BD465DF8A1
:10155800047B704780B483B000AF78607B686FF419
:1015680000621A6100BF0C37BD465DF8047B704706
:1015780080B483B000AF78607B681B6903F40063B4
:10158800B3F5006F01D1012300E0002318460C37A2
:10159800BD465DF8047B704780B483B000AF7860C7
:1015A8007B686FF480521A6100BF0C37BD465DF846
:1015B800047B704780B483B000AF78607B681B6998
:1015C80003F48053B3F5805F01D1012300E00023C9
:1015D80018460C37BD465DF8047B704780B483B06D
:1015E80000AF78607B68DB6843F001027B68DA60F3
:1015F80000BF0C37BD465DF8047B704780B483B0EC
:1016080000AF78607B68DB6823F001027B68DA60F2
:1016180000BF0C37BD465DF8047B704780B483B0CB
:1016280000AF78607B68DB6803F00103012B01D110
:10163800012300E0002318460C37BD465DF8047B03
:10164800704780B483B000AF78607B68DB6843F094
:1016580002027B68DA6000BF0C37BD465DF8047B88
:10166800704780B483B000AF78607B68DB6823F094
:1016780002027B68DA6000BF0C37BD465DF8047B68
:10168800704780B483B000AF78607B68DB6803F094
:101698000203022B01D1012300E0002318460C3776
:1016A800BD465DF8047B704780B483B000AF7860B6
:1016B8007B68DB6843F004027B68DA6000BF0C37A4
:1016C800BD465DF8047B704780B483B000AF786096
:1016D8007B68DB6823F004027B68DA6000BF0C37A4
:1016E800BD465DF8047B704780B483B000AF786076
:1016F8007B68DB6803F00403042B01D1012300E0BD
:10170800002318460C37BD465DF8047B704780B44B
:1017180083B000AF78607B68DB6843F008027B68C1
:10172800DA6000BF0C37BD465DF8047B704780B4B3
:1017380083B000AF78607B68DB6823F008027B68C1
:10174800DA6000BF0C37BD465DF8047B704780B493
:1017580083B000AF78607B68DB6803F00803082B70
:1017680001D1012300E0002318460C37BD465DF87F
:10177800047B704780B483B000AF78607B68DB6817
:1017880043F010027B68DA6000BF0C37BD465DF895
:10179800047B704780B483B000AF78607B68DB68F7
:1017A80023F010027B68DA6000BF0C37BD465DF895
:1017B800047B704780B483B000AF78607B68DB68D7
:1017C80003F01003102B01D1012300E00023184679
:1017D8000C37BD465DF8047B704780B483B000AF1A
:1017E80078607B68DB6843F020027B68DA6000BFC2
:1017F8000C37BD465DF8047B704780B483B000AFFA
:1018080078607B68DB6823F020027B68DA6000BFC1
:101818000C37BD465DF8047B704780B483B000AFD9
:1018280078607B68DB6803F02003202B01D101235B
:1018380000E0002318460C37BD465DF8047B70476E
:1018480080B483B000AF78607B68DB6843F0400207
:101858007B68DA6000BF0C37BD465DF8047B7047D3
:1018680080B483B000AF78607B68DB6823F0400207
:101878007B68DA6000BF0C37BD465DF8047B7047B3
:1018880080B483B000AF78607B68DB6803F0400306
:10189800402B01D1012300E0002318460C37BD4638
:1018A8005DF8047B704780B483B000AF78607B68D4
:1018B800DB6843F080027B68DA6000BF0C37BD4606
:1018C8005DF8047B704780B483B000AF78607B68B4
:1018D800DB6823F080027B68DA6000BF0C37BD4606
:1018E8005DF8047B704780B483B000AF78607B6894
:1018F800DB6803F08003802B01D1012300E0002383
:1019080018460C37BD465DF8047B704780B483B039
:1019180000AF78607B68DB6843F400027B68DA60BC
:1019280000BF0C37BD465DF8047B704780B483B0B8
:1019380000AF78607B68DB6823F400027B68DA60BC
:1019480000BF0C37BD465DF8047B704780B483B098
:1019580000AF78607B68DB6803F40003B3F5000F21
:1019680001D1012300E0002318460C37BD465DF87D
:10197800047B704780B483B000AF78607B68DB6815
:1019880043F480027B68DA6000BF0C37BD465DF81F
:10199800047B704780B483B000AF78607B68DB68F5
:1019A80023F480027B68DA6000BF0C37BD465DF81F
:1019B800047B704780B483B000AF78607B68DB68D5
:1019C80003F48003B3F5800F01D1012300E0002365
:1019D80018460C37BD465DF8047B704780B483B069
:1019E80000AF78607B68DB6843F400127B68DA60DC
:1019F80000BF0C37BD465DF8047B704780B483B0E8
:101A080000AF78607B68DB6823F400127B68DA60DB
:101A180000BF0C37BD465DF8047B704780B483B0C7
:101A280000AF78607B68DB6803F40013B3F5001F30
:101A380001D1012300E0002318460C37BD465DF8AC
:101A4800047B704780B483B000AF78607B68DB6844
:101A580043F480127B68DA6000BF0C37BD465DF83E
:101A6800047B704780B483B000AF78607B68DB6824
:101A780023F480127B68DA6000BF0C37BD465DF83E
:101A8800047B704780B483B000AF78607B68DB6804
:101A980003F48013B3F5801F01D1012300E0002374
:101AA80018460C37BD465DF8047B704780B582B098
:101AB80000AF78607B681B681846FFF7D4FC0346C4
:101AC800012B03D17B68012283F888207B6893F877
:101AD8008830012B0CBF01230023DBB218460837DE
:101AE800BD4680BD80B582B000AF78607B681B685A
:101AF8001846FFF7D9FC0346012B03D17B68012266
:101B080083F88A207B6893F88A30012B0CBF012365
:101B18000023DBB218460837BD4680BD80B582B0C9
:101B280000AF78607B681B681846FFF7DEFC034649
:101B3800012B03D17B68012283F88B207B6893F803
:101B48008B30012B0CBF01230023DBB2184608376A
:101B5800BD4680BD80B582B000AF78600B467B8003
:101B68007B8803F00103002B0CD07B681B681846A8
:101B7800FFF786FE0346012B04D07B681B681846D6
:101B8800FFF75EFE7B8803F00203002B0CD07B6816
:101B98001B681846FFF775FD0346012B04D07B68C8
:101BA8001B681846FFF74DFD7B8803F00403002BE4
:101BB8000CD07B681B681846FFF796FD0346012B7F
:101BC80004D07B681B681846FFF76EFD7B8803F01E
:101BD8000803002B0CD07B681B681846FFF7B7FD7D
:101BE8000346012B04D07B681B681846FFF78FFD5E
:101BF8007B8803F01003002B0CD07B681B68184609
:101C0800FFF7D8FD0346012B04D07B681B681846F4
:101C1800FFF7B0FD7B8803F02003002B0CD07B6816
:101C28001B681846FFF7FAFC0346012B04D07B68B3
:101C38001B681846FFF7D2FC7B8803F04003002B93
:101C48000CD07B681B681846FFF74DFE0346012B36
:101C580004D07B681B681846FFF725FE7B8803F0D5
:101C68008003002B0CD07B681B681846FFF7D5FD56
:101C78000346012B04D07B681B681846FFF7ADFDAF
:101C88007B8803F48073002B0CD07B681B68184694
:101C9800FFF7F8FE0346012B04D07B681B68184643
:101CA800FFF7D0FE7B8803F40073002B0CD07B6811
:101CB8001B681846FFF7B2FE0346012B04D07B6869
:101CC8001B681846FFF78AFE7B8803F48063002BA5
:101CD8000CD07B681B681846FFF738FE0346012BBB
:101CE80004D07B681B681846FFF710FE7B8803F456
:101CF8000063002B0CD07B681B681846FFF75AFE60
:101D08000346012B04D07B681B681846FFF732FE98
:101D180000BF0837BD4680BD80B582B000AF78608F
:101D28000B467B807B8803F00103002B0CD07B687B
:101D38001B681846FFF7A4FD0346012B04D17B68F6
:101D48001B681846FFF78CFD7B8803F00203002B05
:101D58000CD07B681B681846FFF793FC0346012BE1
:101D680004D17B681B681846FFF77BFC7B8803F06F
:101D78000403002B0CD07B681B681846FFF7B4FCE3
:101D88000346012B04D17B681B681846FFF79CFCAF
:101D98007B8803F00803002B0CD07B681B6818466F
:101DA800FFF7D5FC0346012B04D17B681B68184656
:101DB800FFF7BDFC7B8803F01003002B0CD07B6879
:101DC8001B681846FFF7F6FC0346012B04D17B6815
:101DD8001B681846FFF7DEFC7B8803F02003002B06
:101DE8000CD07B681B681846FFF718FC0346012BCC
:101DF80004D07B681B681846FFF700FC7B8803F05B
:101E08004003002B0CD07B681B681846FFF76BFD5E
:101E18000346012B04D17B681B681846FFF753FD66
:101E28007B8803F08003002B0CD07B681B68184666
:101E3800FFF7F3FC0346012B04D17B681B681846A7
:101E4800FFF7DBFC7B8803F48073002B0CD07B68E6
:101E58001B681846FFF716FE0346012B04D17B6862
:101E68001B681846FFF7FEFD7B8803F40073002B00
:101E78000CD07B681B681846FFF7D0FD0346012B82
:101E880004D17B681B681846FFF7B8FD7B8803F40C
:101E98008063002B0CD07B681B681846FFF756FD43
:101EA8000346012B04D17B681B681846FFF73EFDEB
:101EB8007B8803F40063002B0CD07B681B681846F2
:101EC800FFF778FD0346012B04D17B681B68184691
:101ED800FFF760FD00BF0837BD4680BD80B582B002
:101EE80000AF78600B46FB70FB78022B06D17B684D
:101EF8001B6801211846FFF751FA31E07B681B681F
:101F0800194A934213D07B681B68184A93420ED033
:101F18007B681B68164A934209D07B681B68154A80
:101F2800934204D07B681B68134A934218D1FB780C
:101F3800032B06D17B681B6804211846FFF72EFA8D
:101F48000EE0FB78042B0BD17B681B680121184637
:101F5800FFF724FA7B681B6804211846FFF71EFA6E
:101F680000BF0837BD4680BD002C01400034014049
:101F780000400140004401400048014080B582B063
:101F880000AF78600B46FB70FB78022B06D17B68AC
:101F98001B6801211846FFF712FA31E07B681B68BD
:101FA800194A934213D07B681B68184A93420ED093
:101FB8007B681B68164A934209D07B681B68154AE0
:101FC800934204D07B681B68134A934218D1FB786C
:101FD800032B06D17B681B6804211846FFF7EFF92D
:101FE8000EE0FB78042B0BD17B681B680121184697
:101FF800FFF7E5F97B681B6804211846FFF7DFF94E
:1020080000BF0837BD4680BD002C014000340140A8
:1020180000400140004401400048014080B582B0C2
:1020280000AF78600B46FB70FB78022B06D17B680B
:102038001B6810211846FFF7B1F931E07B681B686F
:10204800194A934213D07B681B68184A93420ED0F2
:102058007B681B68164A934209D07B681B68154A3F
:10206800934204D07B681B68134A934218D1FB78CB
:10207800032B06D17B681B6840211846FFF78EF9B1
:102088000EE0FB78042B0BD17B681B6810211846E7
:10209800FFF784F97B681B6840211846FFF77EF933
:1020A80000BF0837BD4680BD002C01400034014008
:1020B80000400140004401400048014080B582B022
:1020C80000AF78600B46FB70FB78022B06D17B686B
:1020D8001B6810211846FFF772F931E07B681B680E
:1020E800194A934213D07B681B68184A93420ED052
:1020F8007B681B68164A934209D07B681B68154A9F
:10210800934204D07B681B68134A934218D1FB782A
:10211800032B06D17B681B6840211846FFF74FF94F
:102128000EE0FB78042B0BD17B681B681021184646
:10213800FFF745F97B681B6840211846FFF73FF910
:1021480000BF0837BD4680BD002C01400034014067
:1021580000400140004401400048014080B582B081
:1021680000AF78600B46FB70FB78022B07D17B68C9
:102178001B684FF480711846FFF710F934E07B684C
:102188001B681B4A934213D07B681B68194A934209
:102198000ED07B681B68184A934209D07B681B687D
:1021A800164A934204D07B681B68154A93421BD198
:1021B800FB78032B07D17B681B684FF480611846B6
:1021C800FFF7ECF810E0FB78042B0DD17B681B6857
:1021D8004FF480711846FFF7E1F87B681B684FF4ED
:1021E80080611846FFF7DAF800BF0837BD4680BDA2
:1021F800002C0140003401400040014000440140EF
:102208000048014080B582B000AF78600B46FB7093
:10221800FB78022B07D17B681B684FF48071184646
:10222800FFF7CDF834E07B681B681B4A934213D054
:102238007B681B68194A93420ED07B681B68184A52
:10224800934209D07B681B68164A934204D07B6886
:102258001B68154A93421BD1FB78032B07D17B6877
:102268001B684FF480611846FFF7A9F810E0FB7867
:10227800042B0DD17B681B684FF480711846FFF75B
:102288009EF87B681B684FF480611846FFF797F843
:1022980000BF0837BD4680BD002C01400034014016
:1022A80000400140004401400048014080B582B030
:1022B80000AF78600B46FB70FB78022B07D17B6878
:1022C8001B684FF480511846FFF768F834E07B68C4
:1022D8001B681B4A934213D07B681B68194A9342B8
:1022E8000ED07B681B68184A934209D07B681B682C
:1022F800164A934204D07B681B68154A93421BD147
:10230800FB78032B07D17B681B684FF48041184684
:10231800FFF744F810E0FB78042B0DD17B681B68AD
:102328004FF480511846FFF739F87B681B684FF463
:1023380080411846FFF732F800BF0837BD4680BD18
:10234800002C01400034014000400140004401409D
:102358000048014080B582B000AF78600B46FB7042
:10236800FB78022B07D17B681B684FF48051184615
:10237800FFF725F834E07B681B681B4A934213D0AB
:102388007B681B68194A93420ED07B681B68184A01
:10239800934209D07B681B68164A934204D07B6835
:1023A8001B68154A93421BD1FB78032B07D17B6826
:1023B8001B684FF480411846FFF701F810E0FB78DE
:1023C800042B0DD17B681B684FF480511846FEF72B
:1023D800F6FF7B681B684FF480411846FEF7EFFF55
:1023E80000BF0837BD4680BD002C014000340140C5
:1023F80000400140004401400048014080B584B0DD
:1024080000AF78600023FB607B681B68374A934203
:1024180002D1374BFB6006E07B681B68354A934264
:1024280001D1354BFB607B681A68FB681A60FB6852
:102438001B681846FEF78EFFB860BB68002B06D0F5
:10244800BB68102B03D0FB6801221A7102E0FB68FD
:1024580000221A71FB681B68244A934213D0FB6858
:102468001B68264A93420ED0FB681B68244A934295
:1024780009D0FB681B68234A934204D0FB681B6899
:10248800214A934204D1FB681B681846FEF7CDFF2A
:10249800FB681B68154A934213D0FB681B68174AF0
:1024A80093420ED0FB681B68154A934209D0FB681B
:1024B8001B68144A934204D0FB681B68124A934273
:1024C80008D17B681B681846FEF75CFF0346DAB242
:1024D800FB685A71FB6800229A71FB680022DA7166
:1024E800FB6818461037BD4680BD00BF002C014070
:1024F800C0260020000400404C2700200034014082
:1025080000400140004401400048014080B586B0C9
:1025180000AFF860B9607A600023FB75F868FFF7D0
:10252800C5FA0346002B03D17B6800221A6031E00C
:10253800FB681B68B3F1804F08D1FB681B6818461D
:10254800FEF74FFF0246BB681A6008E0FB681B688D
:102558001846FEF746FF03469AB2BB681A80FB6826
:102568001B681846FEF771FFFB68002283F8882075
:102578007B6801221A60FB681B681846FEF7D6FFC5
:102588000346012B06D1FB681B681846FEF7C0FFFF
:102598000123FB75FB7D18461837BD4680BD80B505
:1025A80086B000AFF860B9607A600023FB75F86800
:1025B800FFF798FA0346002B03D17B6800221A60C4
:1025C80031E0FB681B68B3F1804F08D1FB681B68DA
:1025D8001846FEF712FF0246BB681A6008E0FB685F
:1025E8001B681846FEF709FF03469AB2BB681A80B3
:1025F800FB681B681846FEF749FFFB68002283F852
:102608008A207B6801221A60FB681B681846FEF75F
:10261800AFFF0346012B06D1FB681B681846FEF77F
:1026280099FF0123FB75FB7D18461837BD4680BD11
:1026380080B586B000AFF860B9607A600023FB759A
:10264800F868FFF76BFA0346002B03D17B6800227A
:102658001A6031E0FB681B68B3F1804F08D1FB6852
:102668001B681846FEF7D5FE0246BB681A6008E0EC
:10267800FB681B681846FEF7CCFE03469AB2BB6897
:102688001A80FB681B681846FEF721FFFB680022CA
:1026980083F88B207B6801221A60FB681B68184648
:1026A800FEF788FF0346012B06D1FB681B68184616
:1026B800FEF772FF0123FB75FB7D18461837BD46F0
:1026C80080BD80B485B000AF786039600023FB73AB
:1026D80097F90F3018461437BD465DF8047B7047EC
:1026E80080B584B000AF786039600023FB727B68E6
:1026F800002B05D1374806F0EFF84FF0FF3365E0BF
:102708003B68002B05D1344806F0E6F84FF0FF335C
:102718005CE0324BD3E900014FF000024FF0404338
:10272800FEF77AF90346002B06D03B68D3E900236D
:102738002A49C1E9002305E0284BD3E90023396879
:10274800C1E90023254BD3E900014FF00002244BD7
:10275800FEF762F90346002B02D0224806F0BCF8C7
:102768007B685B681B68204A13607B685B685B68F2
:102778001E4A13607B685B689B681D4A13607B6810
:102788005B68DB681B4A13601B4B00221A6006F06B
:1027980013FD0023FB600023FB6007E0174AFB687A
:1027A800174942F82310FB680133FB60FB68012BD3
:1027B800F4D906F04BF90346FB7297F90B30002B5E
:1027C80002D1104B01221A7097F90B3018461037B6
:1027D800BD4680BD884E0108AC4E010890250020FA
:1027E8000000F0BFD84E0108542D0020582D0020BD
:1027F8005C2D0020602D0020642D0020D8270020AB
:1028080029920008522D002080B586B000AF78606C
:102818000023FB7500233B610023FB732A4B1B78C5
:10282800DBB2002B0CBF01230023DBB2BB73274BA9
:1028380002221A707B68002B0BD1234B1B78DBB26A
:10284800002B06D1224B1B78DBB2002B01D10123D0
:1028580000E00023FB7316E00A200CF0EFF83B6958
:1028680003F51C5310333B617B68B3F1FF3F05D080
:102878003A697B689A4201D9012300E00023FB737F
:10288800002006F031F9104B1B78DBB2002B07D182
:102898000F4B1B78DBB2002B02D1FB7B002BDBD06C
:1028A8000A4B03221A70FB7B002B01D09C23FB757B
:1028B800BB7B002B01D006F0ADFD97F91730184609
:1028C8001837BD4680BD00BF502D0020522D002076
:1028D800512D002080B586B000AF034687ED000B70
:1028E800FB810023FB750123BB754FF000024FF0FD
:1028F8000003D7E90001FEF799F80346002B05D03D
:102908002E4805F0E9FF4FF0FF3353E0FB89FF2B1A
:1029180008D9FB89FF221946294805F0DDFF4FF049
:10292800FF3347E0274B1B78DBB2032B04D0254B42
:102938001B78DBB2012B02D1224B04221A70FB89CF
:10294800012B15D8FB89204A52F82330002B0FD0D1
:1029580007F02AF903467B757B7D022B08D1FB899A
:10296800194A52F82330FA89104698470346BB752E
:10297800FB897B82FB89184697ED000B05F0C8FFA1
:10298800BB7D002B06D07B8A184607F0E5F8034686
:10299800FB7503E07B8A184607F041F997F9173071
:1029A800002B05D097F917301946084805F094FF11
:1029B80097F9173018461837BD4680BD444F0108AF
:1029C800884F0108522D0020D8270020C84F010841
:1029D80080B582B000AF0023FB71002006F084F8B8
:1029E8000346FB7197F9073018460837BD4680BD86
:1029F80080B582B000AF0023FB710B4B06221A7022
:102A080006F010F90346FB7108220021074812F06E
:102A1800EBF906F085FC044B00221A7097F9073091
:102A280018460837BD4680BD522D0020D827002003
:102A380080B400AF034B1B78DBB21846BD465DF887
:102A4800047B7047512D002080B400AF034B1B78E6
:102A5800DBB21846BD465DF8047B7047682D002040
:102A680080B483B000AF03463960FB7197F9073033
:102A7800002B0ADB3B68DAB20C4997F907301201E0
:102A8800D2B20B4483F800230AE03B68DAB2084963
:102A9800FB7903F00F03043B1201D2B20B441A7600
:102AA80000BF0C37BD465DF8047B704700E100E0CD
:102AB80000ED00E080B584B000AFF860B9607A60DE
:102AC800FB68DBB20F3BDBB25BB279681846FFF7F5
:102AD800C7FF00BF1037BD4680BD80B485B000AFCA
:102AE800EFF310837B607B68FB600123BB60BB68EE
:102AF80083F3108800BFFB6818461437BD465DF89D
:102B0800047B704780B483B000AF0346FB7197F92C
:102B18000730002B0BDBFB7903F01F02074997F9FD
:102B280007305B09012000FA02F241F8232000BFB8
:102B38000C37BD465DF8047B704700BF00E100E03C
:102B480080B483B000AF0346FB7197F90730002BC0
:102B580012DBFB7903F01F020A4997F907305B097A
:102B6800012000FA02F2203341F82320BFF34F8FEF
:102B780000BFBFF36F8F00BF00BF0C37BD465DF8C5
:102B8800047B704700E100E080B483B000AF786058
:102B98007B6840221A6000BF0C37BD465DF8047B95
:102BA800704780B483B000AF78607B685B6803F0DF
:102BB8004003402B01D1012300E0002318460C37C5
:102BC800BD465DF8047B704780B483B000AF786081
:102BD8007B681B6843F001027B681A6000BF0C37F2
:102BE800BD465DF8047B704780B483B000AF786061
:102BF8007B681B6823F001027B681A6000BF0C37F2
:102C0800BD465DF8047B704780B483B000AF786040
:102C180039607B681B6823F004023B681A437B68B1
:102C28001A6000BF0C37BD465DF8047B704780B45E
:102C380083B000AF78607B681B6803F00403184614
:102C48000C37BD465DF8047B704780B483B000AF95
:102C580078607B68DB6A18460C37BD465DF8047BF4
:102C6800704780B483B000AF786039607B683A6899
:102C78001A6300BF0C37BD465DF8047B704780B40B
:102C880083B000AF786039607B683A685A6300BFE8
:102C98000C37BD465DF8047B704780B483B000AF45
:102CA800786039607B683A689A6300BF0C37BD4624
:102CB8005DF8047B704780B483B000AF78603960FA
:102CC8007B683A68DA6300BF0C37BD465DF8047B61
:102CD800704780B483B000AF78607B685B6B184640
:102CE8000C37BD465DF8047B704780B483B000AFF5
:102CF80078607B689B6B18460C37BD465DF8047B93
:102D0800704780B483B000AF78607B68DB6B18468F
:102D18000C37BD465DF8047B704780B483B000AFC4
:102D280078607B686FF002021A6100BF0C37BD46FD
:102D38005DF8047B704780B483B000AF78607B682F
:102D48006FF008021A6100BF0C37BD465DF8047BBE
:102D5800704780B483B000AF78607B686FF0100272
:102D68001A6100BF0C37BD465DF8047B704780B41C
:102D780083B000AF78607B68DB6803F00203022B46
:102D880001D1012300E0002318460C37BD465DF849
:102D9800047B704780B483B000AF78607B68DB68E1
:102DA80003F00803082B01D1012300E00023184693
:102DB8000C37BD465DF8047B704780B483B000AF24
:102DC80078607B68DB6803F01003102B01D10123C6
:102DD80000E0002318460C37BD465DF8047B7047B9
:102DE80080B483B000AF78607B685B6943F0010210
:102DF8007B685A6100BF0C37BD465DF8047B70479D
:102E080080B483B000AF78607B681B6918460C37C4
:102E1800BD465DF8047B704780B483B000AF78602E
:102E280039607B683A689A6100BF0C37BD465DF827
:102E3800047B704780B483B000AF786039607B68EA
:102E48003A689A6200BF0C37BD465DF8047B70474C
:102E580080B584B000AF786087ED000AD7ED007ABE
:102E6800F5EEC07AF1EE10FA03D54FF000033B609F
:102E78000AE0D7ED007A9FED167AF4EEC77AF1EE04
:102E880010FA01DD134B3B607B681B681846FFF79F
:102E9800DCFEF8607B681B79002B0CBF0123002344
:102EA800DBB21A46FB68134407EE903AB8EE677A2D
:102EB800D7ED007A27EE277ADFED056AC7EE267A86
:102EC800FCEEE77A17EE903A18461037BD4680BDFB
:102ED8000000C8420000C84280B582B000AF7860E8
:102EE80039607B681B681846FFF7F3FE02463B68AB
:102EF800934205D07B681B6839681846FFF7BFFE08
:102F080000BF0837BD4680BD80B582B000AF78608D
:102F180039607B681B681846FFF7E7FE02463B6886
:102F2800934205D07B681B6839681846FFF7B5FEE1
:102F380000BF0837BD4680BD80B582B000AF78605D
:102F480039607B681B681846FFF7DBFE02463B6862
:102F5800934205D07B681B6839681846FFF7ABFEBB
:102F680000BF0837BD4680BD80B584B000AF78602B
:102F780087ED000A97ED000A7868FFF769FFF860A7
:102F8800F9687868FFF7A8FF00BF1037BD4680BD15
:102F980080B584B000AF786087ED000A97ED000A2D
:102FA8007868FFF755FFF860F9687868FFF7ACFFB5
:102FB80000BF1037BD4680BD80B584B000AF7860D3
:102FC80087ED000A97ED000A7868FFF741FFF8607F
:102FD800F9687868FFF7B0FF00BF1037BD4680BDBD
:102FE80080B485B000AF78607B681B689A68074B2F
:102FF8001340FB60FB68062B0CBF01230023DBB2E8
:1030080018461437BD465DF8047B70470700010079
:1030180080B584B000AF78600B46FB707B681B6896
:103028001846FFF704FEF860FB78002B1ED07B687B
:103038001B68324A934213D07B681B68304A93421C
:103048000ED07B681B682F4A934209D07B681B68A7
:103058002D4A934204D07B681B682C4A934205D1C1
:103068007B681B6800211846FFF7FBFDFB68042BF3
:1030780011D07B681B6804211846FFF7C5FD7B68E3
:103088001B681846FFF7ACFE7B681B68F968184692
:10309800FFF7BAFD04E07B681B681846FFF7A0FE3F
:1030A8007B681B681846FFF78FFDFB78002B20D044
:1030B8007B681B68114A934213D07B681B68104ACF
:1030C80093420ED07B681B680E4A934209D07B68F6
:1030D8001B680D4A934204D07B681B680B4A9342D5
:1030E80007D17B681A687B685B7919461046FFF739
:1030F800B8FD00BF1037BD4680BD00BF002C0140A1
:1031080000340140004001400044014000480140B3
:1031180080B582B000AF78607B681B681846FFF7FF
:1031280063FD00BF0837BD4680BD000080B483B092
:1031380000AF7860084B93F84D30002B0CBF01238B
:103148000023DAB27B6801331A7000BF0C37BD4622
:103158005DF8047B704700BF782A002080B400AF78
:103168000A4B93F84D200132D2B283F84D20074B19
:1031780093F84D30632B03D9044B002283F84D207C
:1031880000BFBD465DF8047B704700BF782A002069
:1031980080B483B000AF786039603B681A687B6898
:1031A8001A6000BF0C37BD465DF8047B704700000D
:1031B80080B584B000AF87ED010A386097ED010A49
:1031C80011F07AFA87ED030A97ED030A05F06DFB13
:1031D8000346002B06D197ED030A05F02BFB0346A7
:1031E800002B03D04FF00003FB6007E0DFED1B0A64
:1031F80097ED030A11F016F887ED030AD7ED037A65
:10320800F5EEC07AF1EE10FA10D5D7ED037AF1EEAB
:10321800677AFCEEE77A17EE903A9BB25B429BB274
:103228001BB207EE903AF8EEE77A0BE0D7ED037A97
:10323800FCEEE77A17EE903A9BB21BB207EE903A93
:10324800F8EEE77A97ED017A77EE677A3B68C3ED97
:10325800007A00BF1037BD4680BD00BF0000804720
:1032680080B584B000AF87ED010A386097ED010A98
:1032780011F06AFA87ED030A97ED030A05F015FBCA
:103288000346002B06D197ED030A05F0D3FA03464F
:10329800002B03D04FF00003FB6007E0DFED1B0AB3
:1032A80097ED030A10F0BEFF87ED030AD7ED037A06
:1032B800F5EEC07AF1EE10FA10D5D7ED037AF1EEFB
:1032C800677AFCEEE77A17EE903A9BB25B429BB2C4
:1032D8001BB207EE903AF8EEE77A0BE0D7ED037AE7
:1032E800FCEEE77A17EE903A9BB21BB207EE903AE3
:1032F800F8EEE77A97ED017A77EE677A3B68C3EDE7
:10330800007A00BF1037BD4680BD00BF000080476F
:1033180080B58CB002AF78607B6800221A727B6837
:1033280001225A600023BB6100233B744FF0A04385
:10333800FB6100233B620023BB74002387F8243021
:10334800012387F825300323FB6003237B7407F1EF
:103358000C0002230093022300220221FDF784FEC1
:1033680002467B68DA607B68DB681846FDF708FF71
:103378007B68DB6800211846FDF74DFE7B6801225B
:103388001A7200BF2837BD4680BD000080B5A6B0C0
:1033980000AF78601D4BBB6000233B7300237B7339
:1033A80007F108031846FFF729F802467B68DA6038
:1033B8007B68DB6800211846FEF7CCFB7B68DB687E
:1033C80004211846FEF78AFD7B68DB68042118464D
:1033D800FEF724FE7B68DB6804211846FEF7BEFE74
:1033E8007B68DB681846FFF7FBFD034687F89730D4
:1033F80097F89730002B05D17B68DB6801211846C8
:10340800FFF706FE00BF9837BD4680BD002C01407F
:1034180080B485B000AFF860B9607A607B68B3F9B2
:103428000020FB681A807B685A88BB681A8000BF36
:103438001437BD465DF8047B704780B485B000AF93
:10344800F860B9607A607B681A88FB681A807B68C4
:103458005A88BB681A8000BF1437BD465DF8047BE4
:10346800704780B483B000AF786039603B689A8851
:103478007B681A803B68DA887B685A803B68B3F9B6
:1034880000207B68DA803B681A897B689A8000BFD5
:103498000C37BD465DF8047B7047000080B584B0EA
:1034A80000AF7B600346FB810B46BB8113467B81E3
:1034B800FB89013B052B45D801A252F823F000BF38
:1034C8003B3500081735000829350008F334000893
:1034D800E134000805350008386A3B6A991CBB6A64
:1034E80020331A46FFF7A9FF30E0386A3B6A991C77
:1034F800BB6A1C331A46FFF7A0FF27E0386A3B6A0D
:10350800991CBB6A18331A46FFF797FF1EE0386A02
:103518003B6A991CBB6A14331A46FFF78EFF15E005
:10352800386A3B6A991CBB6A10331A46FFF785FF55
:103538000CE0386A3B6A991CBB6A0C331A46FFF7E1
:103548007CFF03E07B6A04225A7000BF3B6A1B8839
:10355800BA899A4209D13B6A981D3B6A191DBB6A10
:1035680028331A46FFF754FF15E03B6A5B88BA898F
:103578009A4209D13B6A981D3B6A191DBB6A2433DC
:103588001A46FFF745FF06E0BB6A5A883B6A9A80ED
:103598007B6A04229A703B6A9A88FB691A803B6AA4
:1035A800B3F90620BB691A803B6A9B88002B04D0BC
:1035B800BB6A9A7A7B681A700CE03B6AB3F90630EA
:1035C800B7F90A209A420CBF01230023DBB21A463E
:1035D8007B681A7000BF1037BD4680BD80B485B0C7
:1035E80000AFB9607A603B600346FB81BB691A880B
:1035F800BB681A807B68FA891A80BB699A783B682D
:103608001A7000BF1437BD465DF8047B7047000090
:1036180080B5A6B000AF78607B6801225A60194B6C
:10362800BB6000233B7300237B7307F10803184634
:10363800FEF7E4FE02467B68DA607B68DB681A21E5
:103648001846FEF787FA7B68DB6802211846FEF702
:1036580045FC7B68DB681846FFF7C2FC034687F821
:10366800973097F89730002B05D17B68DB680021ED
:103678001846FFF7CDFC7B6801221A7200BF983705
:10368800BD4680BD0004004080B5A6B000AF78609C
:103698007B6801225A60194BBB6000233B730023EF
:1036A8007B7307F108031846FEF7A8FE02467B68FD
:1036B800DA607B68DB681A211846FEF74BFA7B68EC
:1036C800DB6802211846FEF749FD7B68DB6818466F
:1036D800FFF786FC034687F8973097F89730002B5A
:1036E80005D17B68DB6800211846FFF791FC7B68F1
:1036F80001221A7200BF9837BD4680BD0004004001
:1037080080B5A6B000AF78607B6801225A60194B7B
:10371800BB6000233B7300237B7307F10803184643
:10372800FEF76CFE02467B68DA607B68DB681A216C
:103738001846FEF70FFA7B68DB6802211846FEF789
:10374800B5FD7B68DB681846FFF74AFC034687F837
:10375800973097F89730002B05D17B68DB680021FC
:103768001846FFF755FC7B6801221A7200BF98378C
:10377800BD4680BD000400402DE9B04F2DED028B01
:103788009CB000AFFFF7EAFCD44B93F9B43187F84B
:103798003A30002387F84B3097F83A30042B20D87A
:1037A80001A252F823F000BFC5370008CD37000842
:1037B800D5370008DD370008E5370008002387F80B
:1037C8004B300EE0032387F84B300AE0032387F8D9
:1037D8004B3006E0002387F84B3002E0002387F8DF
:1037E8004B3097F94B20BD4B83F8B421BB4B93F971
:1037F800B33187F83930002387F84A3097F83930E1
:10380800042B20D801A252F823F000BF2938000861
:1038180031380008393800084138000849380008AC
:10382800002387F84A300EE0032387F84A300AE07D
:10383800032387F84A3006E0002387F84A3002E07D
:10384800002387F84A3097F94A20A44B83F8B3211C
:10385800A24B93F9B23187F83830002387F8493002
:1038680097F83830042B20D801A252F823F000BF73
:103878008D380008953800089D380008A5380008DC
:10388800AD380008002387F849300EE0032387F895
:1038980049300AE0032387F8493006E0002387F817
:1038A800493002E0002387F8493097F949208B4BCB
:1038B80083F8B221894B93F9B13187F83730002367
:1038C80087F8483097F83730042B20D801A252F8EF
:1038D80023F000BFF1380008F93800080139000862
:1038E8000939000811390008002387F848300EE02C
:1038F800032387F848300AE0032387F8483006E0B6
:10390800002387F8483002E0002387F8483097F909
:103918004820724B83F8B121704B93F9B03187F886
:103928003630002387F8473097F83630042B20D8F4
:1039380001A252F823F000BF553900085D3900088C
:10394800653900086D39000875390008002387F8C3
:1039580047300EE0032387F847300AE0032387F84F
:10396800473006E0002387F8473002E0002387F855
:10397800473097F94720594B83F8B021574B93F9B3
:10398800AF3187F83530002387F8463097F835305F
:10399800042B20D801A252F823F000BFB93900083F
:1039A800C1390008C9390008D1390008D9390008D7
:1039B800002387F846300EE0032387F846300AE0F4
:1039C800032387F8463006E0002387F8463002E0F4
:1039D800002387F8463097F94620404B83F8AF21FB
:1039E8003E4B93F9AE3187F83430002387F84530E1
:1039F80097F83430042B20D801A252F823F000BFE6
:103A08001D3A0008253A00082D3A0008353A000802
:103A18003D3A0008002387F845300EE0032387F875
:103A280045300AE0032387F8453006E0002387F88D
:103A3800453002E0002387F8453097F94520274BA9
:103A480083F8AE21254B93F9AD3187F83330002345
:103A580087F8443097F83330042B20D801A252F865
:103A680023F000BF813A0008893A0008913A00081B
:103A7800993A0008A13A0008002387F844300EE07C
:103A8800032387F844300AE0032387F8443006E02C
:103A9800002387F8443002E0002387F8443097F980
:103AA80044200E4B83F8AD210C4B93F9AC3187F8C9
:103AB8003230002387F8433097F83230042B22D86D
:103AC80001A252F823F000BFE93A0008F13A0008D1
:103AD800F93A0008013B0008093B0008502800207B
:103AE800002387F843300EE0032387F843300AE0C9
:103AF800032387F8433006E0002387F8433002E0C9
:103B0800002387F8433097F94320AC4B83F8AC2166
:103B1800AA4BD3F89431AA4A5362A84B93F8CE2102
:103B2800A74B83F84C20A64B1B6BA54A9362A34B6B
:103B3800D3F83831A24AD362A04B93F9AE3187F853
:103B4800313097F8313087F8423097F83130042B0C
:103B580013D801A252F823F0753B0008833B0008F4
:103B6800833B00087D3B0008833B0008022387F85D
:103B7800423002E0012387F8423097F942208F4B08
:103B880083F8AE214FF000024FF00003C7E9142379
:103B98004FF000024FF00003D7E91401FCF73CFF97
:103BA8000346002B4DD197ED140B10F007FB87ED62
:103BB800140BD7E914234FF000004FF00001FCF775
:103BC800EDFD02460B46C7E91A23D7E914234FF047
:103BD80000007C49FCF7E2FD02460B4610461946F8
:103BE8004FF000024FF00003FCF7AEFC02460B4614
:103BF800C7E91423714B93F9B43187F82F3097F83C
:103C08002F3087F8413097F82F30042B13D801A2B2
:103C180052F823F0313C00083F3C00083F3C0008C4
:103C2800393C00083F3C0008022387F8413002E095
:103C3800012387F8413097F94120604B83F8B4217C
:103C480032E04FF000024FF00003C7E91A234FF0AB
:103C580000024FF00003C7E91423584B93F9B3311E
:103C680087F8303097F8303087F8403097F83030A0
:103C7800042B14D801A252F823F000BF993C000885
:103C8800A73C0008A73C0008A13C0008A73C000886
:103C9800022387F8403002E0012387F8403097F983
:103CA8004020464B83F8B321474B1B78012B05D1A5
:103CB800464BD3E9C6234149C1E91423424B0022AC
:103CC8001A703E4BD3E9142310461946FCF70CFF33
:103CD8000346FB603D4B03F5005303F2144393ED99
:103CE800008A364BD3E9142310461946FCF7FCFE2C
:103CF80007EE900A68EE277AC7ED137A334B03F57F
:103D0800805303F58D63D3ED007A97ED137AB4EE03
:103D1800E77AF1EE10FA07D507F10C03184697ED8C
:103D2800130AFFF745FA06E007F10C03184697ED6A
:103D3800130AFFF795FA254B03F5005303F5836340
:103D480093ED007AD7ED037A67EE277AC7ED037A09
:103D5800D7ED037AB0EE670A10F0F6FC87ED130A88
:103D680097ED130A04F0A1FD0346002B06D197ED49
:103D7800130A04F05FFD0346002B03D04FF0000345
:103D8800FB6407E0DFED120A97ED130A10F04AFA18
:103D980087ED130AD7ED137AF5EEC07AF1EE10FA33
:103DA80018D5D7ED137AF1EE677AFCEEE77A17EEBD
:103DB800903A9BB25B429BB213E000BF50280020B0
:103DC800E82700200000F03F682A002000000020BB
:103DD80000008047D7ED137AFCEEE77A17EE903AA9
:103DE8009BB2BB8597ED037ABB8D07EE903AF8EE50
:103DF800677A77EE677AC7ED037A804B03F500534D
:103E0800B3F94A341A46BB8D13447C4A03F21A5359
:103E18009B00134404331B68FB64784B03F5005381
:103E2800B3F948341A46BB8D1344744A03F21A5343
:103E38009B001344043393ED007AD7ED137A37EEE1
:103E4800677AD7ED037A27EE277AD7ED137A77EEDC
:103E5800277A17EE900AFCF71FFBD7E91A23FCF71D
:103E680073FB02460B4614461D46644B03F500538C
:103E7800B3F944341A46BB8D1344604A03F21A530B
:103E88009B001344043393ED007A5C4B03F5005315
:103E9800B3F946341A46BB8D1344584A03F21A53F1
:103EA8009B0013440433D3ED007A37EE677AD7EDDD
:103EB800037A27EE277A514B03F50053B3F94634BA
:103EC8001A46BB8D13444D4A03F21A539B00134400
:103ED8000433D3ED007A77EE277A17EE900AFCF7D1
:103EE800DBFAD7E91423FCF72FFB02460B462046E2
:103EF8002946FCF771F902460B464149C1E90623F8
:103F0800404B93F9AB31002B05D03C4BD3E904234C
:103F18003C49C1E916233B4BD3E91645374BD3E956
:103F28000601364BD3E90023FCF70EFB02460B468D
:103F380010461946324BD3E90623FCF705FB024627
:103F48000B46104619462D4BD3E9C823FCF7FCFA5B
:103F580002460B4620462946FCF740F902460B4626
:103F68002849C1E91623254B5B6E032B00F0B78463
:103F7800032B00F36486012B04D0022B00F0C182CE
:103F880000F05DBE204B5B7A012B05D11B4BD3E9BA
:103F980052231C49C1E934231B4B00225A72194B86
:103FA800D3E93423C7E90623174B9B7A012B05D1A4
:103FB800124BD3E954231349C1E93623124B00228B
:103FC8009A720E4BD3E956010C4BD3E95823FCF7F0
:103FD8004BFD0346002B19D0084BD3E94623C7E90C
:103FE8001823064BD3E94801044BD3E94623FCF7D1
:103FF800F3F802460B46C7E9162311E0000000203B
:10400800E827002050280020682A00205E4BD3E9CA
:104018004A23C7E918235C4BD3E94C23C7E9162385
:10402800D7E91823D7E91A01FCF78EFA02460B469E
:1040380014461D46554BD3E93801D7E91623FCF73A
:1040480083FA02460B4620462946FCF7C7F8024683
:104058000B464E49C1E938234B4BD3E90A0148A323
:10406800D3E90023FCF770FA02460B4610461946BE
:10407800464BD3E93823FCF767FA02460B46434917
:10408800C1E93423404BD3E90A013DA3D3E9002316
:10409800FCF75AFA02460B46104619463A4BD3E942
:1040A8000023FCF751FA02460B46104619464FF01A
:1040B8000002374BFCF792F802460B464FF000001F
:1040C8003349FCF76BFB02460B46C7E91A232F4B13
:1040D800D3E936012D4BD3E93423FCF77FF80246A8
:1040E8000B4610461946D7E90623FCF775F8024631
:1040F8000B4610461946D7E91A23FCF725FA02465B
:104108000B462249C1E93623224BDB7A012B05D124
:104118001D4BD3E95C231D49C1E93A231D4B0022FD
:10412800DA721A4BD3E93A23C7E90623194B1B7BEA
:10413800012B05D1144BD3E95E231449C1E93C2373
:10414800144B00221A73104BD3E960010E4BD3E9CC
:104158006223FCF789FC0346002B1DD00A4BD3E9E8
:104168003623C7E91823084BD3E93801064BD3E9AE
:104178003623FCF731F802460B46C7E9162315E04B
:104188003B43D5598CA273400000002050280020E2
:104198000000F03F682A00207D4BD3E93A23C7E9A5
:1041A80018237B4BD3E93C23C7E91623D7E9182307
:1041B800D7E91401FCF7C8F902460B4614461D4618
:1041C800744BD3E93E01D7E91623FCF7BDF9024643
:1041D8000B4620462946FCF701F802460B466D4976
:1041E800C1E93E236A4BD3E90A0167A3D3E9002357
:1041F800FCF7AAF902460B4610461946654BD3E967
:104208003E23FCF7A1F902460B466249C1E93A236D
:10421800604BD3E93C015F4BD3E93A23FBF7DEFF60
:1042280002460B4610461946D7E90623FBF7D4FF8A
:1042380002460B4610461946D7E91A23FCF784F9BB
:1042480002460B465349C1E93C23524BD3E93E0190
:104258004F4BD3E90E230124FCF706FC0346002B41
:1042680001D100231C46E3B27B754A4BD3E94001D8
:10427800474BD3E910230124FCF7F6FB0346002B38
:1042880001D100231C46E3B283F00103DCB2414BA9
:10429800D3E938013E4BD3E912230125FCF7E4FBAF
:1042A8000346002B01D100231D46EBB26340DBB26D
:1042B800002B35D0374BD3E94201354BD3E91423D2
:1042C8000124FCF7D1FB0346002B01D100231C4637
:1042D800E3B21A467B7D9A4222D12E4BD3E93801AC
:1042E8002C4BD3E94023FBF777FF02460B461046D9
:1042F8001946274BD3E90C230124FCF7B5FB0346E9
:10430800002B01D100231C46E3B21A467B7D9A425A
:104318000CBF01230023DBB21A461E4B83F8A721EA
:104328001B4BD3E96A011A4BD3E96C23FCF79CFBBE
:104338000346002B11D0164BD3E93E23C7E91823B7
:10434800134BD3E94001124BD3E93E23FBF744FF5B
:1043580002460B46C7E9162309E00D4BD3E9422371
:10436800C7E918230A4BD3E94423C7E91623094BA5
:1043780093F8A731002B0FD0054BD3E94E23C7E99B
:1043880014230EE0AFF300803B43D5598CA2734051
:104398000000002050280020684BD3E95023C7E9CB
:1043A8001423D7E91823D7E91401FCF7CDF80246FE
:1043B8000B4614461D46624BD3E94401D7E9162340
:1043C800FCF7C2F802460B4620462946FBF706FFD3
:1043D80002460B465A49C1E94423594BD3E94401E3
:1043E800564BD3E97023FCF73FFB0346002B2BD039
:1043F800534BD3E93601524BD3E93623FCF7A4F8E3
:1044080002460B4614461D464D4BD3E93C014C4B26
:10441800D3E93C23FCF798F802460B462046294688
:10442800FBF7DCFE02460B4643EC172BB0EE470ABF
:10443800F0EE670A0FF0C2FEB0EE407AF0EE607A56
:10444800404B83ED007B2BE03D4BD3E936013C4BE1
:10445800D3E93623FCF778F802460B4614461D4686
:10446800374BD3E93C01364BD3E93C23FCF76CF8D6
:1044780002460B4620462946FBF7B0FE02460B468D
:1044880043EC172BB0EE470AF0EE670A0FF096FEE2
:1044980053EC102B904683F000492A4BC3E900895E
:1044A800274BD3E938232649C1E94023244BD3E9D4
:1044B8003E232349C1E94223214B93F9B2313B758D
:1044C8003B7D87F83F303B7D042B14D801A252F87E
:1044D80023F000BFF1440008FF440008FF4400082F
:1044E800F9440008FF440008022387F83F3002E03F
:1044F800012387F83F3097F93F20114B83F8B22109
:104508009DE30E4BD3E984010C4BD3E98623FCF7DA
:10451800ABFA0346002B17D0084BD3E97A23C7E937
:104528001823064BD3E97C01044BD3E97A23FBF724
:1045380053FE02460B46C7E916230FE00000002091
:1045480050280020E8270020714BD3E97E23C7E9D3
:1045580018236F4BD3E98023C7E91623D7E918231B
:10456800D7E91A01FBF7F0FF02460B4614461D4631
:10457800684BD3E92801D7E91623FBF7E5FF024684
:104588000B4620462946FBF729FE02460B466149A1
:10459800C1E92823604B5B79012B05D15C4BD3E93A
:1045A8008A235C49C1E92A235B4B00225A715A4B82
:1045B8009B79012B05D1564BD3E98C235549C1E989
:1045C8002C23554B00229A71514BD3E90A014CA375
:1045D800D3E90023FBF7B8FF02460B4610461946FD
:1045E80049A3D3E90023FBF7AFFF02460B46104669
:1045F8001946474BD3E90023FBF7A6FF02460B46B3
:10460800C7E90623424BD3E900014FF000024FF0FF
:104618008043FCF7C3F802460B4614461D464FF08C
:1046280000023E4BD7E90601FBF7D8FD02460B46D0
:1046380020462946FCF7B2F802460B46C7E908238C
:10464800D7E906234FF000003449FBF7C5FD0246C1
:104658000B4614461D464FF00002304BD7E90601C1
:10466800FBF7BCFD02460B4620462946FCF796F8A8
:1046780002460B46C7E90623264BD3E92801254BFA
:10468800D3E92A23FBF7AAFD02460B461046194632
:10469800D7E90823FBF758FF02460B4614461D4688
:1046A8001C4BD3E92C01D7E90623FBF74DFF024643
:1046B8000B4620462946FBF791FD02460B46154955
:1046C800C1E92C23124BD3E98E01114BD3E9902376
:1046D800FCF7CAF90346002B22D00D4BD3E972230D
:1046E800C7E918230A4BD3E97401094BD3E97223AC
:1046F800FBF772FD02460B46C7E916231AE000BF16
:10470800182D4454FB210940FCA9F1D24D62603FA9
:104718000000002050280020682A00200000F03FF8
:104728008F4BD3E97623C7E918238D4BD3E9782338
:10473800C7E91623D7E91823D7E91401FBF704FFC3
:1047480002460B4614461D46864BD3E92E01D7E98F
:104758001623FBF7F9FE02460B4620462946FBF7CF
:104768003DFD02460B467F49C1E92E237E4BDB798E
:10477800012B05D17A4BD3E994237A49C1E9302337
:10478800794B0022DA71784B1B7A012B05D1744BD7
:10479800D3E996237349C1E93223734B00221A7275
:1047A800704BD3E92E016F4BD3E93023FBF716FD8D
:1047B80002460B4610461946D7E90823FBF7C4FE04
:1047C80002460B4614461D46664BD3E93201D7E92B
:1047D8000623FBF7B9FE02460B4620462946FBF79F
:1047E800FDFC02460B465F49C1E932235D4BD3E924
:1047F8003201D7E91A23FBF7A7FE02460B461446F7
:104808001D46584BD3E92C01D7E91423FBF79CFE2E
:1048180002460B4620462946FBF7DEFC02460B46BD
:104828004FF000005149FBF7B9FF02460B465049CB
:10483800C1E900234E4BD3E90023924623F0004BF5
:10484800474BD3E90A0144A3D3E90023FBF77CFED5
:1048580002460B461046194602460B46FBF7BEFCBD
:1048680002460B4650465946FCF7FEF80346002B15
:1048780005D03B4BD3E982233D49C1E90023394B9D
:10488800D3E928233749C1E92A23364BD3E92E2314
:104898003449C1E93023334B93F9B131BB75BB7D42
:1048A80087F83E30BB7D042B13D801A252F823F0C1
:1048B800CD480008DB480008DB480008D548000858
:1048C800DB480008022387F83E3002E0012387F81E
:1048D8003E3097F93E20234B83F8B121AFE1224BBC
:1048E8005B78012B05D11E4BD3E9A8231D49C1E9EB
:1048F8001C231D4B00225A701A4BD3E91C23C7E90D
:104908000823194B9B78012B05D1154BD3E9AA2312
:104918001449C1E91E23144B00229A70104BD3E9A5
:10492800AC010F4BD3E9AE23FCF79EF80346002BEE
:1049380020D00B4BD3E9A023C7E91823084BD3E9B0
:10494800A201074BD3E9A023FBF746FC02460B461E
:10495800C7E9162318E000BF182D4454FB2119405D
:104968000000002050280020682A00200000F03FA6
:10497800E8270020A84BD3E9A423C7E91823A64BAE
:10498800D3E9A623C7E91623D7E91823D7E91A01DB
:10499800FBF7DAFD02460B4614461D469F4BD3E94A
:1049A8002001D7E91623FBF7CFFD02460B46204628
:1049B8002946FBF713FC02460B469849C1E9202318
:1049C800954BD3E90A0192A3D3E90023FBF7BCFD79
:1049D80002460B4610461946904BD3E92023FBF7B5
:1049E800B3FD02460B468D49C1E91C238A4BD3E926
:1049F8000A0187A3D3E90023FBF7A6FD02460B466D
:104A080010461946844BD3E90023FBF79DFD024667
:104A18000B46104619464FF00002814BFBF7DEFBB0
:104A280002460B464FF000007D49FBF7B7FE0246F1
:104A38000B46C7E90623794BD3E91E01774BD3E927
:104A48001C23FBF7CBFB02460B4610461946D7E959
:104A58000823FBF7C1FB02460B4610461946D7E967
:104A68000623FBF771FD02460B466C49C1E91E237C
:104A78006C4BDB78012B05D1674BD3E9B22367492F
:104A8800C1E92223674B0022DA70644BD3E9222361
:104A9800C7E90823634B1B79012B05D15E4BD3E98A
:104AA800B4235E49C1E924235E4B00221A715A4B94
:104AB800D3E9B601584BD3E9B823FBF7D5FF034632
:104AC800002B11D0544BD3E99823C7E91823524B34
:104AD800D3E99A01504BD3E99823FBF77DFB0246B3
:104AE8000B46C7E9162309E04B4BD3E99C23C7E9DA
:104AF8001823494BD3E99E23C7E91623D7E918237E
:104B0800D7E91401FBF720FD02460B4614461D4663
:104B1800424BD3E92601D7E91623FBF715FD0246D8
:104B28000B4620462946FBF759FB02460B463B49F4
:104B3800C1E92623384BD3E90A0135A3D3E9002379
:104B4800FBF702FD02460B4610461946334BD3E9E4
:104B58002623FBF7F9FC02460B463049C1E922231C
:104B68002E4BD3E924012D4BD3E92223FBF736FB47
:104B780002460B4610461946D7E90823FBF72CFBDB
:104B880002460B4610461946D7E90623FBF7DCFC1C
:104B980002460B462149C1E92423204BD3E91E01D3
:104BA800D7E91423FBF7D0FC02460B4614461D46F2
:104BB8001A4BD3E92401D7E91A23FBF7C5FC0246AF
:104BC8000B4620462946FBF707FB02460B461649CB
:104BD800C1E90023114B93F9B031FB75FB7D87F8D0
:104BE8003D30FB7D042B24D801A252F823F000BFEE
:104BF8000D4C00083B4C00083B4C0008354C0008A5
:104C08003B4C0008022387F83D3012E0AFF30080E8
:104C18003B43D5598CA27340000000205028002047
:104C28000000F03F682A0020E8270020012387F8C9
:104C38003D3097F93D20AA4B83F8B02100BFA94B1E
:104C4800D3E9CC01A74BD3E9CE23FBF70DFF0346ED
:104C5800002B11D0A34BD3E92E23C7E91823A14B6E
:104C6800D3E930019F4BD3E92E23FBF7B5FA02466F
:104C78000B46C7E9162309E09A4BD3E93223C7E963
:104C88001823984BD3E93423C7E91623964BD3E965
:104C98000001D7E91823FBF757FC02460B461446D8
:104CA8001D468F4BD3E91801D7E91623FBF74CFCB7
:104CB80002460B4620462946FBF790FA02460B4669
:104CC8008749C1E91823874B03F5005393F88734C4
:104CD800002B40F01381824B93F8A631002B65D04E
:104CE800804BD3E90801804BD3E90623FBF72CFC62
:104CF80002460B4610461946794BD3E91623FBF7B3
:104D08006DFA02460B4610461946754BD3E918232F
:104D1800FBF764FA02460B4614461D46714BD3E96D
:104D28000001704BD3E90223FBF70EFC02460B4649
:104D38001046194666A3D3E90023FBF72FFD024668
:104D48000B4620462946FBF7FFFB02460B4610465A
:104D58001946644BD3E9D223FBF7F6FB02460B4610
:104D68006149C1E902235E4B93F9AD31FB74FB7CC9
:104D780087F83C30FB7C042B13D801A252F823F0AF
:104D88009D4D0008AB4D0008AB4D0008A54D00082F
:104D9800AB4D0008022387F83C3002E0012387F876
:104DA8003C3097F93C204E4B83F8AD214E4BD3E96C
:104DB80002014B4BD3E91A23FBF710FA02460B46C4
:104DC8004949C1E90623484B93ED067BB0EE470AF3
:104DD800F0EE670A0FF0E4FB87ED140B97ED140B68
:104DE80003F04EFD0346002B06D197ED140B03F09C
:104DF800FDFC0346002B06D04FF000024FF00003E5
:104E0800C7E9142307E09FED341B97ED140B0FF04F
:104E18009FF987ED140B344BD3E906454FF0000298
:104E28004FF00003D7E91401FBF700FE0346002BFF
:104E380014D03B6D3B607B6D83F000437B60D7E90A
:104E48000001FBF731FE03469BB25B429BB21BB2EB
:104E58001846FBF70FFB02460B460BE0D7E9140197
:104E6800FBF722FE03469BB21BB21846FBF702FB78
:104E780002460B4620462946FBF7AEF902460B468A
:104E88001749C1E91A23174B03F5005393F88624F1
:104E9800134B83F8A621124B93F9AC31BB74BB7C3E
:104EA80087F83B30BB7C042B23D801A252F823F0AF
:104EB800CD4E0008FB4E0008FB4E0008F54E0008DA
:104EC800FB4E0008022387F83B3012E0AFF3008066
:104ED800182D4454FB211940000000000000F04048
:104EE8005028002000000020E8270020012387F830
:104EF8003B3097F93B20164B83F8AC21154BD3E98F
:104F0800D601134BD3E91A23FBF71EFB02460B46C7
:104F18000F49C1E914230E4B002283F8AB210E4B35
:104F28009A6A01329A629B6A1846FBF793FA0A4B0F
:104F3800D3E90C23084CFBF707FB02460B46C4E9F0
:104F4800082300BF7037BD46BDEC028BBDE8B08FAB
:104F58005028002000000020782A0020B0B586B034
:104F680000AF354BD3F88C311846FBF783FA334B37
:104F7800D3E9DC23FBF75AFD0346002B08D02E4B60
:104F8800D3F88C31002B03DB2C4BD3E9D82303E077
:104F98004FF000024FF00003C7E90223264BD3F875
:104FA8008C311846FBF766FA04460D46234BD3E9C5
:104FB800DA014FF00002224BFBF70EF902460B46CE
:104FC80020462946FBF746FD0346002B04D01A4B22
:104FD8000022C3F88C2106E0174BD3F88C3101333B
:104FE800154AC2F88C314FF090437B604FF00002B5
:104FF8004FF00003D7E90201FBF70EFD0346002B33
:1050080002D120237B6101E000237B617B69194683
:105018007868FDF701FF7B69DB4303F0200319463D
:105028007868FDF707FF074B9A6B01329A6300BF58
:105038001837BD46B0BD00BF502800200000002032
:105048000000F03F782A002080B582B000AF964972
:105058004FF00002954BC1E91423934990A3D3E97B
:105068000023C1E90C23904B914A9A608E4B914AD8
:10507800DA608D4B904A1A618B4B904A5A618A4B81
:105088008F4A5A608E4B8F4A1A608E4B8E4A1A602E
:105098008C4B8E4A5A608B4B8D4A9A60894B8D4A4D
:1050A800DA60884B8C4A1A61864B8C4A5A61854B68
:1050B8008B4A9A61834B8B4ADA61824B8A4A1A621D
:1050C800804B8A4A5A627F4B894A9A627D4B894A49
:1050D800DA627C4B884A1A637A4B884A5A63794B5E
:1050E800874A9A63774B874ADA63764B864A1A640B
:1050F800744B864A5A64734B854A9A64714B854A45
:10510800DA64704B844A1A656E4B844A5A656D4B53
:10511800834A9A656B4B834ADA656A4B824A1A66F8
:10512800684B824A5A66674B814A9A66654B814A40
:10513800DA66644B804A1A67624B804A5A67614B49
:105148007F4A9A675F4B7F4ADA675E4B7E4AC3F8AD
:1051580080205C4B7D4AC3F884205A4B7C4AC3F8B4
:105168008820584B7B4AC3F88C20564B7A4AC3F8A0
:105178009020544B794AC3F89420524B784AC3F88C
:105188009820504B514AC3F89C204E4B4F4AC3F8C5
:10519800A0204C4B4D4AC3F8A4204A4B714AC3F88F
:1051A800A820484B6F4AC3F8AC20464B6D4AC3F859
:1051B800B020444B6C4AC3F8B420424B6B4AC3F846
:1051C800B820404B6A4AC3F8BC203E4B3F4AC3F85C
:1051D800C0203C4B3D4AC3F8C4203A4B3B4AC3F875
:1051E800C820384B634AC3F8CC20364B374AC3F83B
:1051F800D020344B354AC3F8D420324B5E4AC3F82A
:10520800D820304B314AC3F8DC202E4B2F4AC3F844
:10521800E0202C4B2D4AC3F8E4202A4B2B4AC3F834
:10522800E820284B294AC3F8EC20264B534AC3F8F8
:10523800F020244B514AC3F8F420224B4F4AC3F8BC
:10524800F820204B4E4AC3F8FC201E4B4D4AC3F8A9
:1052580000211C4B4C4AC3F804211A4B4B4AC3F893
:105268000821184B4A4AC3F80C21164B494AC3F87F
:105278001021144B484AC3F81421124B474AC3F86B
:105288001821104B464AC3F81C210E4B454AC3F857
:1052980020210C4B444AC3F8242187E0AFF3008057
:1052A800FCA9F1D24D62503F782A00200000F0BFDF
:1052B800BD787A60FCE52BBD3BCAEE6F91BCF50367
:1052C800D82A0020EC2A002014770108082A002098
:1052D8001D2A00201C2A00201B2A00201A2A002030
:1052E800192A0020182A0020172A0020522A0020F4
:1052F800512A0020502A00204F2A00204E2A002040
:105308004D2A00204C2A00200E2A0020162A0020B0
:10531800152A0020592A0020582A0020572A002040
:10532800562A0020552A0020542A0020532A0020FB
:10533800132A0020602A00205F2A00205E2A00200D
:105348005D2A00205C2A00205B2A00205A2A0020BF
:10535800142A0020112A0020122A0020102A0020D6
:105368000F2A00200D2A00200C2A00204B2A00209A
:105378004A2A00200B2A00200A2A0020062A002098
:10538800322A00203B2A00203A2A0020392A00200D
:10539800382A0020372A0020362A00203D2A0020FB
:1053A8003C2A0020352A0020342A0020A74BA84A8E
:1053B800C3F82821A54BA64AC3F82C21A34BA44A1D
:1053C800C3F83021A14BA34AC3F834219F4BA14A0B
:1053D800C3F838219D4BA04AC3F83C219B4B9E4AF9
:1053E800C3F84021994B9C4AC3F84421974B9B4AE8
:1053F800C3F84821954B9A4AC3F84C21934B994AD4
:10540800C3F85021914B984AC3F854218F4B974ABF
:10541800C3F858218D4B964AC3F85C218B4B954AAB
:10542800C3F86021894B944AC3F86421874B934A97
:10543800C3F86821854B924AC3F86C21834B914A83
:10544800C3F87021814B904AC3F874217F4B8E4A70
:10545800C3F878217D4B8C4AC3F87C217B4B7E4A6C
:10546800C3F88021794B7C4AC3F88421774B874A5B
:10547800C3F88821754B854AC3F88C21734B834A3E
:10548800C3F89021714B824AC3F894216F4B814A2B
:10549800C3F898216D4B804AC3F89C216B4B7F4A17
:1054A800C3F8A021694B7E4AC3F8A421674B7D4A03
:1054B800C3F8A821654B7C4AC3F8AC21634B7B4AEF
:1054C800C3F8B021614B7A4AC3F8B4215F4B794ADB
:1054D800C3F8B8215D4B784AC3F8BC215B4B774AC7
:1054E800C3F8C021594B754AC3F8C421574B734AB6
:1054F800C3F8C821554B654AC3F8CC21534B634ABE
:10550800C3F8D021514B6E4AC3F8D4214F4B6D4A92
:10551800C3F8D8214D4B6C4AC3F8DC214B4B6B4A7E
:10552800C3F8E021494B694AC3F8E421474B674A6D
:10553800C3F8E821454B654AC3F8EC21434B634A5D
:10554800C3F8F021414B614AC3F8F4213F4B5F4A4D
:10555800C3F8F8213D4B5D4AC3F8FC213B4B5B4A3D
:10556800C3F80022394B594AC3F80422374B574A2B
:10557800C3F80822354B524AC3F80C22334B504A21
:10558800C3F81022314B524AC3F814222F4B504A09
:10559800C3F818222D4B4E4AC3F81C222B4B4C4AF9
:1055A800C3F82022294B4A4AC3F82422274B484AE9
:1055B800C3F82822254B474AC3F82C22234B454AD7
:1055C800C3F83022214B434AC3F834221F4B414AC7
:1055D800C3F838221D4B3F4AC3F83C221B4B3E4AB6
:1055E800C3F84022194B3D4AC3F84422174B3C4AA2
:1055F800C3F84822154B3B4AC3F84C22134B3A4A8E
:10560800C3F85022114B394AC3F85422384A384B50
:105618005B6818329A60364A354B5B6808325A60C4
:10562800334A334B5B682032DA60324B03F5005360
:1056380093F88E24304B83F8CE212E4B03F500537C
:10564800D3F828342C4AC2F8943157E0EC2A0020C9
:10565800332A0020062A0020072A00203E2A00209C
:10566800472A0020462A0020452A0020442A0020F4
:10567800432A0020422A0020492A0020482A0020E4
:10568800412A0020402A00203F2A0020052A002025
:10569800262A00202F2A00202E2A00202D2A00202A
:1056A8002C2A00202B2A00202A2A0020312A002018
:1056B800302A0020292A0020282A0020272A002012
:1056C80014770108032A0020042A0020022A002057
:1056D800012A0020002A0020FF290020FE2900209E
:1056E800FD290020FC290020252A0020242A00204A
:1056F800782A002000000020502800209E4BD3E983
:10570800E0239E49C1E946239B4BD3E9E2239B4909
:10571800C1E94823984BD3E9E4239849C1E94A23CE
:10572800954B03F50053B3F94C24944BA3F89C21F3
:10573800914B03F50053B3F87824904BA3F8A021BC
:105748008D4B03F50053B3F87A248C4BA3F8A221B0
:10575800894B03F50053B3F87C24884BA3F8A421A4
:10576800854B03F50053B3F94E24844BA3F89E21CF
:10577800834B03221A70824B03225A72804B0322F6
:105788009A727F4B0322DA727D4B03221A737C4B89
:1057980003225A717A4B03229A71794B0322DA71E8
:1057A800774B03221A72764B03225A70744B0322EA
:1057B8009A70734B0322DA70714B03221A716E4B85
:1057C800D3E9C6236D49C1E914236B4BD3E90423FC
:1057D8006A49C1E91623684BD3E9D0236749C1E96F
:1057E8001823654BD3E9D4236449C1E91A23654BCF
:1057F800644A9B6AD363604B03F284431B685F4A25
:10580800C2F830315D4B022283F8B9215A4B03F5B7
:10581800005393F88224594B83F8A821564B03F57B
:105828000053B3F86C24554BA3F89821524B03F559
:10583800005393F88324514B83F8A9214E4BB3F8B6
:1058480070204E4BA3F89A214B4B03F5805303F578
:105858008B631B68494AC2F83431474BD3F8E033AD
:10586800494A9363444BD3F8C033444AC2F87C3165
:10587800414BD3F8A033414AC2F880313E4B03F57F
:10588800005393F87E243D4B83F8AA213A4BD3F872
:10589800B0333D4A5364384BD3F8B4333A4A1364AF
:1058A800354B03F50053D3F83434344AC2F8843105
:1058B800314B03F50053D3F82C34334A13622E4B83
:1058C800D3F8B833304AD3632B4B03F5005393F81E
:1058D80080242D4B83F84E20274B03F20C431B6882
:1058E800264AC2F87431244B03F581631B68234AA6
:1058F800C2F87831204B03F587631B681F4AC2F84A
:105908003C311D4B03F23C431B681C4AC2F8403132
:10591800194B03F23C431B68184AC2F84431164B32
:1059280003F588631B68154AC2F84831124B03F225
:1059380044431B68114AC2F854310F4B03F588637E
:105948001B680E4AC2F84C310B4B03F244431B68E8
:105958000A4AC2F85831084B03F588631B68074A9E
:10596800C2F85031044B03F244431B68034AC2F89F
:105978005C3100237B6016E00000002050280020E6
:10598800682A0020782A0020E8270020904B03F599
:1059980089631A688F497B6858339B000B441A60E7
:1059A8007B6801337B607B68042BEFDD884B03F257
:1059B80034431B68884A5363864B00225A60854BE0
:1059C80000221A708348FDF7A3FC824B00221A7448
:1059D800804B00221A767F4B01225A617F48FDF7DF
:1059E800D5FC7C4B01221A76794B03F58F631B6833
:1059F800794A1363764B03F27C431B68754AC2F8F5
:105A08003831774B764A9B6A136476497648FDF7B6
:105A180028FD704B00225A646E4B002283F8402008
:105A28007248FDF7F5FD6E4B6D4A9B6A53647049E9
:105A38007048FDF716FD674B00225A63654B00223C
:105A480083F830206C48FDF71FFE654B644A9B6A5B
:105A580093646A496A48FDF704FD5E4B00225A6266
:105A68005C4B002283F820206648FDF749FE584B1E
:105A7800D3E952235749C1E93423554BD3E9542379
:105A88005449C1E93623524BD3E95A235149C1E954
:105A980038234F4BD3E95C234E49C1E93A234C4B99
:105AA800D3E95E234B49C1E93C23494BD3E964233D
:105AB8004849C1E93E23464BD3E966234549C1E934
:105AC8004023434BD3E968234249C1E94223404B71
