:020000040800F2
:100000000080012049EA0008BBCA0008C1CA0008F4
:10001000C7CA0008CDCA0008D3CA00080000000003
:1000200000000000000000000000000059A40008CB
:10003000D9CA00080000000015A400083DA300086C
:1000400099EA000899EA000899EA000899EA000884
:1000500099EA000899EA000899EA000899EA000874
:1000600099EA000899EA000899EA000899EA000864
:1000700099EA000899EA000899EA000899EA000854
:10008000C5B1000899EA0008013C00080000000022
:1000900000000000000000000000000099EA0008D5
:1000A00099EA000899EA000899EA000899EA000824
:1000B00099EA000899EA000899EA000899EA000814
:1000C00099EA000899EA000899EA000899EA000804
:1000D00099EA000899EA0008B1B1000800000000A0
:1000E00099EA000899EA000899EA0008000000006F
:1000F00000000000000000000000000099EA000875
:100100000000000099EA0008E9CA000899EA00081E
:1001100000000000000000000000000000000000DF
:10012000FDCA000899EA000899EA000899EA00085F
:1001300099EA000800000000000000000000000034
:1001400000000000000000000000000099EA000824
:1001500099EA000899EA000899EA000899EA000873
:1001600099EA000899EA0008000000000000000079
:10017000000000000000000000000000000000007F
:100180000000000099EA00080000000000000000E4
:0401900099EA0008E0
:1001980081F0004102E000BF83F0004330B54FEA30
:1001A80041044FEA430594EA050F08BF90EA020F9D
:1001B8001FBF54EA000C55EA020C7FEA645C7FEA30
:1001C800655C00F0E2804FEA5454D4EB5555B8BF53
:1001D8006D420CDD2C4480EA020281EA030382EAC4
:1001E800000083EA010180EA020281EA0303362D56
:1001F80088BF30BD11F0004F4FEA01314FF4801C29
:100208004CEA113102D0404261EB410113F0004F3A
:100218004FEA03334CEA133302D0524263EB4303F1
:1002280094EA050F00F0A780A4F10104D5F1200E8F
:100238000DDB02FA0EFC22FA05F2801841F10001EA
:1002480003FA0EF2801843FA05F359410EE0A5F1BE
:1002580020050EF1200E012A03FA0EFC28BF4CF0EF
:10026800020C43FA05F3C01851EBE37101F00045A5
:1002780007D54FF0000EDCF1000C7EEB00006EEBB2
:100288000101B1F5801F1BD3B1F5001F0CD349083C
:100298005FEA30004FEA3C0C04F101044FEA445293
:1002A80012F5800F80F09A80BCF1004F08BF5FEA1A
:1002B800500C50F1000041EB045141EA050130BDFA
:1002C8005FEA4C0C404141EB0101013C28BFB1F50C
:1002D800801FE9D291F0000F04BF01460020B1FA57
:1002E80081F308BF2033A3F10B03B3F120020CDA2A
:1002F8000C3208DD02F1140CC2F10C0201FA0CF008
:1003080021FA02F10CE002F11402D8BFC2F1200C6C
:1003180001FA02F120FA0CFCDCBF41EA0C01904022
:10032800E41AA2BF01EB0451294330BD6FEA04046B
:100338001F3C1CDA0C340EDC04F11404C4F1200256
:1003480020FA04F001FA02F340EA030021FA04F368
:1003580045EA030130BDC4F10C04C4F1200220FABF
:1003680002F001FA04F340EA0300294630BD21FAFD
:1003780004F0294630BD94F0000F83F4801306BFC3
:1003880081F480110134013D4EE77FEA645C18BFB7
:100398007FEA655C29D094EA050F08BF90EA020F4E
:1003A80005D054EA000C04BF1946104630BD91EA46
:1003B800030F1EBF0021002030BD5FEA545C05D149
:1003C8004000494128BF41F0004130BD14F5800488
:1003D8003CBF01F5801130BD01F0004545F0FE41FC
:1003E80041F470014FF0000030BD7FEA645C1ABF31
:1003F800194610467FEA655C1CBF0B46024650EA68
:10040800013406BF52EA033591EA030F41F4002193
:1004180030BD00BF90F0000F04BF0021704730B519
:100428004FF4806404F132044FF000054FF00001EE
:1004380050E700BF90F0000F04BF0021704730B5AF
:100448004FF4806404F1320410F0004548BF404284
:100458004FF000013EE700BF42004FEAE2014FEAD9
:1004680031014FEA02701FBF12F07F4393F07F4FB4
:1004780081F06051704732F07F4208BF704793F0B7
:100488007F4F04BF41F40021704730B54FF46074CA
:1004980001F0004521F000411CE700BF50EA0102CD
:1004A80008BF704730B54FF000050AE050EA010276
:1004B80008BF704730B511F0004502D5404261EBE6
:1004C80041014FF4806404F132045FEA915C3FF427
:1004D800D8AE4FF003025FEADC0C18BF03325FEAC4
:1004E800DC0C18BF033202EBDC02C2F1200300FA75
:1004F80003FC20FA02F001FA03FE40EA0E0021FA9A
:1005080002F11444BDE600BF70B54FF0FF0C4CF487
:10051800E06C1CEA11541DBF1CEA135594EA0C0F39
:1005280095EA0C0F00F0DEF82C4481EA030621EA74
:100538004C5123EA4C5350EA013518BF52EA0335AF
:1005480041F4801143F4801338D0A0FB02CE4FF061
:100558000005E1FB02E506F00042E0FB03E54FF091
:100568000006E1FB03569CF0000F18BF4EF0010E89
:10057800A4F1FF04B6F5007F64F5407404D25FEA85
:100588004E0E6D4146EB060642EAC62141EA555138
:100598004FEAC52040EA5E504FEACE2EB4F1FD0C7A
:1005A80088BFBCF5E06F1ED8BEF1004F08BF5FEAF8
:1005B800500E50F1000041EB045170BD06F00046AA
:1005C80046EA010140EA020081EA0301B4EB5C0457
:1005D800C2BFD4EB0C0541EA045170BD41F480114F
:1005E8004FF0000E013C00F3AB8014F1360FDEBF74
:1005F800002001F0004170BDC4F10004203C35DA50
:100608000C341BDC04F11404C4F1200500FA05F3D2
:1006180020FA04F001FA05F240EA020001F0004273
:1006280021F0004110EBD37021FA04F642EB0601E9
:100638005EEA430E08BF20EAD37070BDC4F10C0413
:10064800C4F1200500FA04F320FA05F001FA04F2D7
:1006580040EA020001F0004110EBD37041F10001C3
:100668005EEA430E08BF20EAD37070BDC4F12005CE
:1006780000FA05F24EEA020E20FA04F301FA05F236
:1006880043EA020321FA04F001F0004121FA04F2DE
:1006980020EA020000EBD3705EEA430E08BF20EAAE
:1006A800D37070BD94F0000F0FD101F000464000E8
:1006B80041EB010111F4801F08BF013CF7D041EA6A
:1006C800060195F0000F18BF704703F0004652006E
:1006D80043EB030313F4801F08BF013DF7D043EA3F
:1006E8000603704794EA0C0F0CEA135518BF95EAF5
:1006F8000C0F0CD050EA410618BF52EA4306D1D17C
:1007080081EA030101F000414FF0000070BD50EA9A
:10071800410606BF1046194652EA430619D094EA24
:100728000C0F02D150EA013613D195EA0C0F05D10E
:1007380052EA03361CBF104619460AD181EA030162
:1007480001F0004141F0FE4141F470014FF000001A
:1007580070BD41F0FE4141F4780170BD70B54FF0B5
:10076800FF0C4CF4E06C1CEA11541DBF1CEA135535
:1007780094EA0C0F95EA0C0F00F0A7F8A4EB050417
:1007880081EA030E52EA03354FEA013100F088800E
:100798004FEA03334FF0805545EA131343EA1263D7
:1007A8004FEA022245EA111545EA10654FEA00268C
:1007B8000EF000419D4208BF964244F1FD0404F545
:1007C800407402D25B084FEA3202B61A65EB0305A1
:1007D8005B084FEA32024FF480104FF4002CB6EB5E
:1007E800020E75EB030E22BFB61A754640EA0C00DE
:1007F8005B084FEA3202B6EB020E75EB030E22BF1E
:10080800B61A754640EA5C005B084FEA3202B6EB5E
:10081800020E75EB030E22BFB61A754640EA9C001D
:100828005B084FEA3202B6EB020E75EB030E22BFED
:10083800B61A754640EADC0055EA060E18D04FEAAB
:10084800051545EA16754FEA06164FEAC30343EA4B
:1008580052734FEAC2025FEA1C1CC0D111F4801F18
:100868000BD141EA00014FF000004FF0004CB6E711
:1008780011F4801F04BF01430020B4F1FD0C88BFB0
:10088800BCF5E06F3FF6AFAEB5EB030C04BFB6EBBB
:10089800020C5FEA500C50F1000041EB045170BDAE
:1008A8000EF0004E4EEA113114EB5C04C2BFD4EBDB
:1008B8000C0541EA045170BD41F480114FF0000E5F
:1008C800013C90E645EA060E8DE60CEA135594EADB
:1008D8000C0F08BF95EA0C0F3FF43BAF94EA0C0FDE
:1008E8000AD150EA01347FF434AF95EA0C0F7FF453
:1008F80025AF104619462CE795EA0C0F06D152EAA7
:1009080003353FF4FDAE1046194622E750EA41068A
:1009180018BF52EA43067FF4C5AE50EA41047FF49B
:100928000DAF52EA43057FF4EBAE12E74FF0FF3C00
:1009380006E000BF4FF0010C02E000BF4FF0010CD1
:100948004DF804CD4FEA410C7FEA6C5C4FEA430C4A
:1009580018BF7FEA6C5C1BD001B050EA410C0CBF99
:1009680052EA430C91EA030F02BF90EA020F0020FB
:10097800704710F1000F91EA030F58BF994208BF62
:1009880090422CBFD8176FEAE37040F0010070471F
:100998004FEA410C7FEA6C5C02D150EA013C07D176
:1009A8004FEA430C7FEA6C5CD6D152EA033CD3D0C1
:1009B8005DF8040B704700BF8446104662468C46BB
:1009C8001946634600E000BF01B5FFF7B7FF0028EE
:1009D80048BF10F1000F01BD4DF808EDFFF7F4FF17
:1009E8000CBF012000205DF808FB00BF4DF808EDA2
:1009F800FFF7EAFF34BF012000205DF808FB00BFC5
:100A08004DF808EDFFF7E0FF94BF012000205DF8E6
:100A180008FB00BF4DF808EDFFF7CEFF94BF01209B
:100A280000205DF808FB00BF4DF808EDFFF7C4FF94
:100A380034BF012000205DF808FB00BF4FEA410CDD
:100A48007FEA6C5C02D150EA013C0AD14FEA430CC0
:100A58007FEA6C5C02D152EA033C02D14FF00000FD
:100A680070474FF0010070474FEA410212F500123B
:100A780015D211D56FF47873B3EB625212D94FEADD
:100A8800C12343F0004343EA505311F0004F23FAC7
:100A980002F018BF404270474FF00000704750EA1C
:100AA800013005D111F0004008BF6FF000407047D9
:100AB8004FF00000704700BF4A0011D212F5001233
:100AC80011D20DD56FF47873B3EB62520ED44FEA9E
:100AD800C12343F0004343EA505323FA02F070471E
:100AE8004FF00000704750EA013002D14FF0FF305C
:100AF80070474FF0000070474FEA4102B2F1E043FF
:100B080024BFB3F5001CDCF1FE5C0DD901F0004CEC
:100B18004FEAC0024CEA5070B2F1004F40EB83003C
:100B280008BF20F00100704711F0804F21D113F168
:100B38003872BCBF01F00040704741F480114FEAA1
:100B48005252C2F11802C2F1200C10FA0CF320FA2A
:100B580002F018BF40F001004FEAC1234FEAD32347
:100B680003FA0CFC40EA0C0023FA02F34FEA4303B1
:100B7800CCE77FEA625307D150EA01331EBF4FF03A
:100B8800FE4040F44000704701F0004040F0FE4055
:100B980040F40000704700BF53B94AB9002908BFA4
:100BA80000281CBF4FF0FF314FF0FF3000F00CB8A9
:100BB800ADF1080C6DE904CE0FF018FCDDF804E087
:100BC800DDE9022304B07047704700BF0348044BB7
:100BD800834202D0034B03B11847704720410020DD
:100BE80020410020000000000548064B1B1AD90FC1
:100BF80001EBA301491002D0034B03B1184770471A
:100C080020410020204100200000000010B5064CC3
:100C1800237843B9FFF7DAFF044B13B10448AFF365
:100C280000800123237010BD204100200000000037
:100C38003C07010808B5054B1BB105490548AFF34A
:100C48000080BDE80840FFF7CFBF00BF00000000EC
:100C5800244100203C07010880B483B000AF7860CD
:100C680039607B68DB6A23F470023B681A437B684F
:100C7800DA6200BF0C37BD465DF8047B704780B46C
:100C880083B000AF786039607B689B6823F440725A
:100C98003B681A437B689A6000BF0C37BD465DF815
:100CA800047B704780B483B000AF78607B689B6832
:100CB80003F44013002B0CBF01230023DBB21846BA
:100CC8000C37BD465DF8047B704780B483B000AF35
:100CD80078607B689B6843F001027B689A6000BF7C
:100CE8000C37BD465DF8047B704780B483B000AF15
:100CF80078607B689B6823F001027B689A6000BF7C
:100D08000C37BD465DF8047B704780B483B000AFF4
:100D180078607B689B6803F00103012B0CBF0123FB
:100D28000023DBB218460C37BD465DF8047B7047DC
:100D380080B483B000AF78607B689B6843F480021E
:100D48007B689A6000BF0C37BD465DF8047B70472E
:100D580080B483B000AF78607B681B6803F004033D
:100D6800042B0CBF01230023DBB218460C37BD4609
:100D78005DF8047B704780B483B000AF78607B680F
:100D88006FF004021A6000BF0C37BD465DF8047BA3
:100D9800704780B483B000AF78607B685B6843F0CD
:100DA80020027B685A6000BF0C37BD465DF8047BA3
:100DB800704780B483B000AF78607B685B6843F0AD
:100DC80080027B685A6000BF0C37BD465DF8047B23
:100DD800704780B483B000AF78607B685B6823F0AD
:100DE80020027B685A6000BF0C37BD465DF8047B63
:100DF800704780B483B000AF78607B685B6823F08D
:100E080080627B685A6000BF0C37BD465DF8047B82
:100E1800704780B483B000AF78607B685B6823F06C
:100E280080027B685A6000BF0C37BD465DF8047BC2
:100E3800704780B483B000AF78607B685B6823F04C
:100E480040027B685A6000BF0C37BD465DF8047BE2
:100E5800704780B483B000AF78607B685B6803F04C
:100E68008063B3F1806F0CBF01230023DBB2184607
:100E78000C37BD465DF8047B704780B483B000AF83
:100E880078607B685B6803F04003402B0CBF01234C
:100E98000023DBB218460C37BD465DF8047B70476B
:100EA80080B584B000AF78600123FB817B681B6943
:100EB8001846FFF7F7FE0346002B24D07B689B7A81
:100EC800DBB2022B0CD07B689B7ADBB2082B07D0F5
:100ED8007B681B691846FFF73BFF0346012B12D1BD
:100EE8007B689B7ADBB2082B03D17B6801229A725C
:100EF80002E07B6820229A727B681B691846FFF71C
:100F080017FF0023FB81FB8918461037BD4680BDBB
:100F180080B487B000AFF8600B467A607B81FB68CD
:100F28003C333B6100237B610DE07B699B003A69A0
:100F3800134419687B695B007A6813448AB21A8083
:100F48007B6901337B617B897A699A42EDDB00BF5B
:100F580000BF1C37BD465DF8047B704780B485B080
:100F680000AFF860B9607A603B6000BF1437BD46D7
:100F78005DF8047B704780B485B000AFF860B96055
:100F88007A6000BF1437BD465DF8047B704780B5B2
:100F980084B000AF78607B681B691846FFF7D8FEFD
:100FA8000346FB73FB7B012B07D17B681B69184643
:100FB800FFF7E1FE7B6802229A72FB7B1846103726
:100FC800BD4680BD80B483B000AF78600B46FB702F
:100FD80000BF0C37BD465DF8047B704790B589B0FB
:100FE80002AFF860084611461A4603467B810B4655
:100FF8003B811346FB8000237B61FB681B693D4AEC
:10100800934201D13C4B7B617B69002B6CD0FB6820
:101018001A697B691A617B690022DA71FB88012BE6
:1010280062D03B89002B48D07B695B7ADBB2082B06
:1010380043D0FB68DA687B69DA60FB681A687B6909
:101048001A60FB685A697B695A61FB689A797B69FF
:101058009A71FB681A797B691A717B691B69B96A8D
:101068001846FFF7F9FD7B89012B22D07B89042BD9
:1010780017D17B691B694FF440711846FFF7FFFDD4
:101088007B6918697B6959697B699B791C467B690F
:10109800DA687B691B68009313462246FFF75EFFF8
:1010A80007E07B89022B04D17B691B691846FFF78F
:1010B80070FE7B6908225A7216E03B89002B13D117
:1010C8007B699B7ADBB2082B0ED0FB685A797B6967
:1010D8005A717B89022B04D17B691B691846FFF77B
:1010E80068FE7B6908229A727B6918461C37BD46E0
:1010F80090BD00BF002001403C41002080B582B077
:1011080000AF78607B681B691846FFF7FEFD034651
:10111800002B04D17B681B691846FFF7D6FD00BF7A
:101128000837BD4680BD80B586B000AFF8600B4675
:101138007A607B810123FB82FB681B69002B4BD003
:101148007B89012B05D1F868FFF7AAFE0346FB82CD
:1011580042E07B89042B24D1FB681B691846FFF702
:10116800A1FD0346002B37D0FB6801229A72FB6869
:101178001B691846FFF7DCFD00BFFB689B7ADBB2F2
:10118800022BFAD1FB681869FB685B799BB27A6815
:101198001946FFF7BDFEFB6808229A720023FB82FE
:1011A8001AE07B89022B17D1FB689B7ADBB2202BD4
:1011B80004D0FB689B7ADBB2022B0DD1FB680822B6
:1011C8009A72FB681869FB685B799BB27A68194662
:1011D800FFF79EFE0023FB82FB8A18461837BD46A0
:1011E80080BD80B582B000AF78600B467B80134627
:1011F8003B807B681B691846FFF787FD0346002B79
:1012080004D07B681B691846FFF76FFD7B681B6974
:101218001846FFF732FE0346002B04D07B681B6993
:101228001846FFF706FE7B681B691846FFF711FE94
:101238000346002B04D07B681B691846FFF7D9FDCD
:101248003B88002B35D07B88012B1AD07B88022B5A
:1012580005D17B681B691846FFF7BBFD11E07B8849
:10126800042B0ED17B6818697B6859697B689B7968
:101278001A46FFF780FE7B681B6900211846FFF7B6
:10128800FEFC7B680022DA607B6800221A607B68BB
:1012980000225A617B6800229A717B6800221A71C9
:1012A8007B681A697B681B7919461046FFF7D4FCDE
:1012B8000AE07B6800225A717B88022B04D17B6884
:1012C8001B691846FFF7A5FD00BF0837BD4680BD5E
:1012D80080B485B000AF78607B681B6803F060035A
:1012E800FB60FB68002B04D17B681B6803F01003CC
:1012F800FB60FB6818461437BD465DF8047B7047F1
:1013080080B483B000AF78607B681B6B18460C37DD
:10131800BD465DF8047B704780B483B000AF786049
:1013280039607B681A6A3B681A437B681A6200BF97
:101338000C37BD465DF8047B704780B483B000AFBE
:10134800786039607B681A6A3B68DB431A407B68BF
:101358001A6200BF0C37BD465DF8047B704780B445
:1013680083B000AF78607B685B6C43F400427B68B5
:101378005A6400BF0C37BD465DF8047B704780B4E3
:1013880083B000AF78607B68DB6843F001027B685C
:10139800DA6000BF0C37BD465DF8047B704780B447
:1013A80083B000AF78607B68DB6823F001027B685C
:1013B800DA6000BF0C37BD465DF8047B704780B427
:1013C80083B000AF78607B68DB6803F00103012B12
:1013D80001D1012300E0002318460C37BD465DF813
:1013E800047B704780B483B000AF78607B68DB68AB
:1013F80043F002027B68DA6000BF0C37BD465DF837
:10140800047B704780B483B000AF78607B68DB688A
:1014180023F002027B68DA6000BF0C37BD465DF836
:10142800047B704780B483B000AF78607B68DB686A
:1014380003F00203022B01D1012300E00023184628
:101448000C37BD465DF8047B704780B483B000AFAD
:1014580078607B68DB6843F004027B68DA6000BF71
:101468000C37BD465DF8047B704780B483B000AF8D
:1014780078607B68DB6823F004027B68DA6000BF71
:101488000C37BD465DF8047B704780B483B000AF6D
:1014980078607B68DB6803F00403042B01D1012327
:1014A80000E0002318460C37BD465DF8047B704702
:1014B80080B483B000AF78607B68DB6843F00802D3
:1014C8007B68DA6000BF0C37BD465DF8047B704767
:1014D80080B483B000AF78607B68DB6823F00802D3
:1014E8007B68DA6000BF0C37BD465DF8047B704747
:1014F80080B483B000AF78607B68DB6803F00803D2
:10150800082B01D1012300E0002318460C37BD4603
:101518005DF8047B704780B483B000AF78607B6867
:10152800DB6843F010027B68DA6000BF0C37BD4609
:101538005DF8047B704780B483B000AF78607B6847
:10154800DB6823F010027B68DA6000BF0C37BD4609
:101558005DF8047B704780B483B000AF78607B6827
:10156800DB6803F01003102B01D1012300E00023F6
:1015780018460C37BD465DF8047B704780B483B0CD
:1015880000AF78607B68DB6843F020027B68DA6034
:1015980000BF0C37BD465DF8047B704780B483B04C
:1015A80000AF78607B68DB6823F020027B68DA6034
:1015B80000BF0C37BD465DF8047B704780B483B02C
:1015C80000AF78607B68DB6803F02003202B01D133
:1015D800012300E0002318460C37BD465DF8047B64
:1015E800704780B483B000AF78607B68DB6843F0F5
:1015F80040027B68DA6000BF0C37BD465DF8047BAB
:10160800704780B483B000AF78607B68DB6823F0F4
:1016180040027B68DA6000BF0C37BD465DF8047B8A
:10162800704780B483B000AF78607B68DB6803F0F4
:101638004003402B01D1012300E0002318460C375A
:10164800BD465DF8047B704780B483B000AF786016
:101658007B68DB6843F080027B68DA6000BF0C3788
:10166800BD465DF8047B704780B483B000AF7860F6
:101678007B68DB6823F080027B68DA6000BF0C3788
:10168800BD465DF8047B704780B483B000AF7860D6
:101698007B68DB6803F08003802B01D1012300E025
:1016A800002318460C37BD465DF8047B704780B5AB
:1016B80082B000AF78600B467B807B8803F0010323
:1016C800002B0CD07B681B681846FFF7AAFF03465F
:1016D800012B04D07B681B681846FFF782FF7B88C4
:1016E80003F00203002B0CD07B681B681846FFF739
:1016F80099FE0346012B04D07B681B681846FFF748
:1017080071FE7B8803F00403002B0CD07B681B68F8
:101718001846FFF7BAFE0346012B04D07B681B6806
:101728001846FFF792FE7B8803F00803002B0CD0C5
:101738007B681B681846FFF7DBFE0346012B04D0C5
:101748007B681B681846FFF7B3FE7B8803F010031D
:10175800002B0CD07B681B681846FFF7FCFE03467D
:10176800012B04D07B681B681846FFF7D4FE7B88E2
:1017780003F02003002B0CD07B681B681846FFF78A
:101788001EFE0346012B04D07B681B681846FFF732
:10179800F6FD7B8803F04003002B0CD07B681B68A8
:1017A8001846FFF771FF0346012B04D07B681B68BE
:1017B8001846FFF749FF7B8803F08003002B0CD005
:1017C8007B681B681846FFF7F9FE0346012B04D017
:1017D8007B681B681846FFF7D1FE00BF0837BD4677
:1017E80080BD80B582B000AF78600B467B807B8877
:1017F80003F00103002B0CD07B681B681846FFF729
:1018080010FF0346012B04D17B681B681846FFF7BD
:10181800F8FE7B8803F00203002B0CD07B681B6862
:101828001846FFF7FFFD0346012B04D17B681B68B0
:101838001846FFF7E7FD7B8803F00403002B0CD064
:101848007B681B681846FFF720FE0346012B04D16E
:101858007B681B681846FFF708FE7B8803F00803BF
:10186800002B0CD07B681B681846FFF741FE034627
:10187800012B04D17B681B681846FFF729FE7B887B
:1018880003F01003002B0CD07B681B681846FFF789
:1018980062FE0346012B04D17B681B681846FFF7DC
:1018A8004AFE7B8803F02003002B0CD07B681B6862
:1018B8001846FFF784FD0346012B04D07B681B689C
:1018C8001846FFF76CFD7B8803F04003002B0CD013
:1018D8007B681B681846FFF7D7FE0346012B04D127
:1018E8007B681B681846FFF7BFFE7B8803F0800300
:1018F800002B0CD07B681B681846FFF75FFE034679
:10190800012B04D17B681B681846FFF747FE00BF10
:101918000837BD4680BD000080B582B000AF786052
:101928000B46FB70FB78022B06D17B681B680121F4
:101938001846FFF7F1FC1DE07B681B680F4A9342CD
:1019480018D1FB78032B06D17B681B680421184645
:10195800FFF7E2FC0EE0FB78042B0BD17B681B68D9
:1019680001211846FFF7D8FC7B681B68042118463C
:10197800FFF7D2FC00BF0837BD4680BD000001401C
:1019880080B582B000AF78600B46FB70FB78022B05
:1019980006D17B681B6801211846FFF7CEFC1DE0C5
:1019A8007B681B680F4A934218D1FB78032B06D13A
:1019B8007B681B6804211846FFF7BFFC0EE0FB7824
:1019C800042B0BD17B681B6801211846FFF7B5FC77
:1019D8007B681B6804211846FFF7AFFC00BF083777
:1019E800BD4680BD0000014080B582B000AF786080
:1019F8000B46FB70FB78022B06D17B681B68102115
:101A08001846FFF789FC1DE07B681B680F4A934264
:101A180018D1FB78032B06D17B681B684021184638
:101A2800FFF77AFC0EE0FB78042B0BD17B681B6870
:101A380010211846FFF770FC7B681B684021184688
:101A4800FFF76AFC00BF0837BD4680BD00000140B3
:101A580080B582B000AF78600B46FB70FB78022B34
:101A680006D17B681B6810211846FFF766FC1DE04D
:101A78007B681B680F4A934218D1FB78032B06D169
:101A88007B681B6840211846FFF757FC0EE0FB787F
:101A9800042B0BD17B681B6810211846FFF74DFCFF
:101AA8007B681B6840211846FFF747FC00BF0837D2
:101AB800BD4680BD0000014080B582B000AF7860AF
:101AC8000B46FB70FB78022B07D17B681B684FF431
:101AD80080711846FFF720FC20E07B681B68114ADC
:101AE80093421BD1FB78032B07D17B681B684FF40B
:101AF80080611846FFF710FC10E0FB78042B0DD12D
:101B08007B681B684FF480711846FFF705FC7B68FB
:101B18001B684FF480611846FFF7FEFB00BF0837CB
:101B2800BD4680BD0000014080B582B000AF78603E
:101B38000B46FB70FB78022B07D17B681B684FF4C0
:101B480080711846FFF7F9FB20E07B681B68114A93
:101B580093421BD1FB78032B07D17B681B684FF49A
:101B680080611846FFF7E9FB10E0FB78042B0DD1E4
:101B78007B681B684FF480711846FFF7DEFB7B68B3
:101B88001B684FF480611846FFF7D7FB00BF083782
:101B9800BD4680BD0000014080B584B000AF7860CC
:101BA8000023FB607B681B681C4A934201D11C4BD5
:101BB800FB607B681A68FB681A60FB681B6818463C
:101BC800FFF786FBB860BB68002B06D0BB68102BFC
:101BD80003D0FB6801221A7102E0FB6800221A7127
:101BE800FB681B680D4A934204D1FB681B681846C2
:101BF800FFF7B5FBFB681B68084A934208D17B686E
:101C08001B681846FFF77CFB0346DAB2FB685A717B
:101C1800FB6818461037BD4680BD00BF0000014074
:101C28005841002080B485B000AF786039603B68C7
:101C3800FB603B68B3F5803F0CD37B681B68B3F14E
:101C4800804F07D07B681B68064A934202D04FF644
:101C5800FF73FB60FB6818461437BD465DF8047BCC
:101C6800704700BF000C004080B485B000AF7860BA
:101C780039600023FB7397F90F3018461437BD46B7
:101C88005DF8047B7047000080B584B000AF7860D1
:101C980039600023FB727B68002B05D1374802F0BE
:101CA80098F94FF0FF3365E03B68002B05D13448C5
:101CB80002F08FF94FF0FF335CE0324BD3E90001BB
:101CC8004FF000024FF04043FEF786FE0346002B1C
:101CD80006D03B68D3E900232A49C1E9002305E07F
:101CE800284BD3E900233968C1E90023254BD3E900
:101CF80000014FF00002244BFEF76EFE0346002B56
:101D080002D0224802F065F97B685B681B68204AAC
:101D180013607B685B685B681E4A13607B685B685E
:101D28009B681D4A13607B685B68DB681B4A13600D
:101D38001B4B00221A6002F0BFFD0023FB6000234A
:101D4800FB6007E0174AFB68174942F82310FB6855
:101D58000133FB60FB68022BF4D902F0F7F9034664
:101D6800FB7297F90B30002B02D1104B01221A702D
:101D780097F90B3018461037BD4680BD5807010843
:101D88007C070108404000200000F0BFA8070108B8
:101D9800984300209C430020A0430020A443002037
:101DA800A8430020E4410020294900089543002069
:101DB80080B586B000AF78600023FB7500233B61D7
:101DC8000023FB732A4B1B78DBB2002B0CBF0123CB
:101DD8000023DBB2BB73274B02221A707B68002BEF
:101DE8000BD1234B1B78DBB2002B06D1224B1B787F
:101DF800DBB2002B01D1012300E00023FB7316E0C6
:101E08000A2008F09BF93B6903F51C5310333B612A
:101E18007B68B3F1FF3F05D03A697B689A4201D9E4
:101E2800012300E00023FB73002002F0DDF9104BD2
:101E38001B78DBB2002B07D10F4B1B78DBB2002BD2
:101E480002D1FB7B002BDBD00A4B03221A70FB7BF1
:101E5800002B01D09C23FB75BB7B002B01D002F02B
:101E680059FE97F9173018461837BD4680BD00BF90
:101E780093430020954300209443002080B586B00A
:101E880000AF034687ED000BFB810023FB750123A0
:101E9800BB754FF000024FF00003D7E90001FEF7D1
:101EA800A5FD0346002B05D02E4802F092F84FF00E
:101EB800FF3353E0FB89FF2B08D9FB89FF22194622
:101EC800294802F086F84FF0FF3347E0274B1B788C
:101ED800DBB2032B04D0254B1B78DBB2012B02D1DC
:101EE800224B04221A70FB89022B15D8FB89204A41
:101EF80052F82330002B0FD003F0D6F903467B7538
:101F08007B7D022B08D1FB89194A52F82330FA89C4
:101F1800104698470346BB75FB897B82FB891846A8
:101F280097ED000B02F074F8BB7D002B06D07B8A7E
:101F3800184603F091F90346FB7503E07B8A1846BF
:101F480003F0EDF997F91730002B05D097F9173002
:101F58001946084802F03DF897F91730184618371F
:101F6800BD4680BD140801085808010895430020A3
:101F7800E44100209808010880B582B000AF002332
:101F8800FB71002002F030F90346FB7197F9073026
:101F980018460837BD4680BD80B582B000AF002323
:101FA800FB710B4B06221A7002F0BCF90346FB7159
:101FB8000C22002107480EF07DFB02F031FD044B96
:101FC80000221A7097F9073018460837BD4680BDB9
:101FD80095430020E441002080B400AF034B1B78F8
:101FE800DBB21846BD465DF8047B70479443002079
:101FF80080B400AF034B1B78DBB21846BD465DF8D2
:10200800047B7047AC43002080B483B000AF034624
:102018003960FB7197F90730002B0ADB3B68DAB2AD
:102028000C4997F907301201D2B20B4483F8002308
:102038000AE03B68DAB20849FB7903F00F03043B76
:102048001201D2B20B441A7600BF0C37BD465DF8B8
:10205800047B704700E100E000ED00E080B584B04B
:1020680000AFF860B9607A60FB68DBB20F3BDBB2A7
:102078005BB279681846FFF7C7FF00BF1037BD4647
:1020880080BD000080B483B000AF0346FB7197F9B0
:102098000730002B0BDBFB7903F01F02074997F988
:1020A80007305B09012000FA02F241F8232000BF43
:1020B8000C37BD465DF8047B704700BF00E100E0C7
:1020C80080B483B000AF0346FB7197F90730002B4B
:1020D80012DBFB7903F01F020A4997F907305B0905
:1020E800012000FA02F2203341F82320BFF34F8F7A
:1020F80000BFBFF36F8F00BF00BF0C37BD465DF850
:10210800047B704700E100E080B483B000AF7860E2
:102118007B686FF004021A6000BF0C37BD465DF89B
:10212800047B704780B483B000AF78607B685B68DD
:1021380003F08003802B0CBF01230023DBB2184679
:102148000C37BD465DF8047B704780B483B000AFA0
:1021580078607B681B6843F001027B681A6000BFE7
:102168000C37BD465DF8047B704780B483B000AF80
:1021780078607B681B6823F001027B681A6000BFE7
:102188000C37BD465DF8047B704780B483B000AF60
:10219800786039607B681B6823F004023B681A4347
:1021A8007B681A6000BF0C37BD465DF8047B70473A
:1021B80080B483B000AF78607B681B6803F00403C9
:1021C80018460C37BD465DF8047B704780B483B071
:1021D80000AF786039607B683A68DA6200BF0C3714
:1021E800BD465DF8047B704780B483B000AF78606B
:1021F8007B68DB6A18460C37BD465DF8047B704780
:1022080080B483B000AF786039607B683A681A633D
:1022180000BF0C37BD465DF8047B704780B483B0BF
:1022280000AF786039607B683A685A6300BF0C3742
:10223800BD465DF8047B704780B483B000AF78601A
:1022480039607B683A689A6300BF0C37BD465DF811
:10225800047B704780B483B000AF786039607B68D6
:102268003A68DA6300BF0C37BD465DF8047B7047F7
:1022780080B483B000AF78607B685B6B18460C371E
:10228800BD465DF8047B704780B483B000AF7860CA
:102298007B689B6B18460C37BD465DF8047B70471E
:1022A80080B483B000AF78607B68DB6B18460C376E
:1022B800BD465DF8047B704780B483B000AF78609A
:1022C8007B685B6943F001027B685A6100BF0C3789
:1022D800BD465DF8047B704780B483B000AF78607A
:1022E80039607B683A689A6100BF0C37BD465DF873
:1022F800047B704780B483B000AF786039603B6876
:102308001A047B689A6100BF0C37BD465DF8047BF0
:102318007047000080B584B000AF786087ED000A90
:10232800D7ED007AF5EEC07AF1EE10FA03D54FF04A
:1023380000033B600AE0D7ED007A9FED167AF4EED1
:10234800C77AF1EE10FA01DD134B3B607B681B681E
:102358001846FFF749FFF8607B681B79002B0CBF14
:1023680001230023DBB21A46FB68134407EE903AB8
:10237800B8EE677AD7ED007A27EE277ADFED056A9F
:10238800C7EE267AFCEEE77A17EE903A1846103731
:10239800BD4680BD0000C8420000C84280B582B07A
:1023A80000AF786039607B681B681846FFF71CFF30
:1023B80002463B68934205D07B681B68396818461B
:1023C800FFF704FF00BF0837BD4680BD80B582B067
:1023D80000AF786039607B681B681846FFF748FFD4
:1023E80002463B68934205D07B681B6839681846EB
:1023F800FFF714FF00BF0837BD4680BD80B582B027
:1024080000AF786039607B681B681846FFF73CFFAF
:1024180002463B68934205D07B681B6839681846BA
:10242800FFF70AFF00BF0837BD4680BD80B582B000
:1024380000AF786039607B681B681846FFF730FF8B
:1024480002463B68934205D07B681B68396818468A
:10245800FFF700FF00BF0837BD4680BD80B584B0D8
:1024680000AF786087ED000A97ED000A7868FFF7FB
:1024780051FFF860F9687868FFF7A8FF00BF1037C8
:10248800BD4680BD80B584B000AF786087ED000A96
:1024980097ED000A7868FFF73DFFF860F9687868FB
:1024A800FFF7ACFF00BF1037BD4680BD80B584B0D4
:1024B80000AF786087ED000A97ED000A7868FFF7AB
:1024C80029FFF860F9687868FFF7B0FF00BF103798
:1024D800BD4680BD80B485B000AF78607B681B685E
:1024E8009B6803F00703FB60FB68062B0CBF012306
:1024F8000023DBB218461437BD465DF8047B7047ED
:1025080080B584B000AF78600B46FB707B681B68B1
:102518001846FFF74DFEF860FB78002B0AD07B6861
:102528001B681E4A934205D17B681B680021184628
:10253800FFF766FEFB68042B11D07B681B6804213B
:102548001846FFF722FE7B681B681846FFF7B4FEA3
:102558007B681B68F9681846FFF717FE04E07B687C
:102568001B681846FFF7A8FE7B681B681846FFF72C
:10257800ECFDFB78002B0CD07B681B68074A934264
:1025880007D17B681A687B685B7919461046FFF7A4
:1025980037FE00BF1037BD4680BD00BF00000140B8
:1025A80080B582B000AF78607B681B681846FFF77B
:1025B800DCFD00BF0837BD4680BD000080B58CB08B
:1025C80002AF78607B6800221A727B6801225A6029
:1025D8000023BB6100233B74174BFB6100233B6264
:1025E8000023BB74002387F82430012387F82530A3
:1025F8000223FB6002237B7407F10C004FF4801365
:102608000093022300220221FEF7E8FC02467B68C1
:10261800DA607B68DB681846FEF770FD7B68DB686C
:1026280000211846FEF7CEFC7B6801221A7200BF13
:102638002837BD4680BD00BF0020014000000000D3
:10264800B0B586B000AF87ED020B786097ED020B4E
:102658000CF0EAFB87ED040B97ED040B01F0A4FCEA
:102668000346002B06D197ED040B01F079FC0346D5
:10267800002B06D04FF000024FF00003C7E90423F7
:1026880007E09FED1F1B97ED040B0CF003FA87ED95
:10269800040B4FF000024FF00003D7E90401FEF7E6
:1026A800A5F90346002B12D03C697B6983F00045ED
:1026B80020462946FEF700FA03469BB25B429BB2CE
:1026C8001BB21846FDF7B6FE02460B460BE0D7E9EB
:1026D8000401FEF7F1F903469BB21BB21846FDF759
:1026E800A9FE02460B46D7E90201FDF755FD024651
:1026F8000B467968C1E9002300BF1837BD46B0BD55
:10270800000000000000F040B0B586B000AF87EDD3
:10271800020B786097ED020B0CF012FC87ED040BAE
:1027280097ED040B01F040FC0346002B06D197ED12
:10273800040B01F015FC0346002B06D04FF00002F5
:102748004FF00003C7E9042307E09FED1F1B97ED37
:10275800040B0CF09FF987ED040B4FF000024FF0CB
:102768000003D7E90401FEF741F90346002B12D014
:102778003C697B6983F0004520462946FEF79CF9B1
:1027880003469BB25B429BB21BB21846FDF752FE52
:1027980002460B460BE0D7E90401FEF78DF9034624
:1027A8009BB21BB21846FDF745FE02460B46D7E919
:1027B8000201FDF7F1FC02460B467968C1E90023E6
:1027C80000BF1837BD46B0BD000000000000F04053
:1027D80080B584B000AF87ED000B38687B6823F0C4
:1027E80000414FF000022F4BFEF700F90346002B83
:1027F80048D04FF000022C4BD7E90001FEF70AF948
:102808000346002B13D04FF00002274BD7E90001F5
:10281800FDF7C4FC02460B4643EC172BB0EE470A03
:10282800F0EE670A0CF000FB87ED020B2EE04FF08C
:1028380000021E4BD7E90001FEF7F6F80346002B0D
:102848000CD04FF000024FF00003D7E90001FDF76C
:102858005BFE02460B46C7E9022317E04FF0000271
:10286800114BD7E90001FDF797FC02460B4643ECF4
:10287800172BB0EE470AF0EE670A0CF04DFA87ED19
:10288800020B03E0D7E90023C7E90223D7E90223B3
:1028980043EC172BB0EE470AF0EE670A1037BD4637
:1028A80080BD00BF000030430000E03F0000E0BFF3
:1028B80080B5A6B000AF78601D4BBB6000233B73AA
:1028C80000237B7307F108031846FFF765F90246F2
:1028D8007B68DA607B68DB6800211846FEF7E7FE54
:1028E8007B68DB6804211846FFF716F87B68DB680D
:1028F80004211846FFF778F87B68DB68042118463E
:10290800FFF7DAF87B68DB681846FFF7E3FD034654
:1029180087F8973097F89730002B05D17B68DB68EC
:1029280001211846FFF7ECFD00BF9837BD4680BD72
:1029380000000140000000002DE9B04F96B000AF44
:10294800BB4B93F9383087F84530002387F8473078
:1029580097F84530042B20D801A252F823F000BF85
:102968007D290008852900088D2900089529000877
:102978009D290008002387F847300EE0032387F8D5
:1029880047300AE0032387F8473006E0002387F83A
:10299800473002E0002387F8473097F94730A44AC8
:1029A80082F83830A24B93F9373087F84430002347
:1029B80087F8463097F84430042B20D801A252F803
:1029C80023F000BFE1290008E9290008F1290008DF
:1029D800F9290008012A0008002387F846300EE08C
:1029E800032387F846300AE0032387F8463006E0D9
:1029F800002387F8463002E0002387F8463097F92D
:102A080046308B4A82F837308A4BD3F8B030BB64F3
:102A1800894B03F580431B6800221C461546BB6C96
:102A280000229846914608FB05F204FB09F313447B
:102A3800A4FB08010B441946FDF730FD4FF00002D6
:102A48007E4BFDF761FD02460B46C7E90E237A4B24
:102A580003F57B5353E90201D7E90E23FDF754FD33
:102A680002460B467349C1E92A23734B03F57B538E
:102A7800D3E900016F4BD3E92A23FDF745FD024650
:102A88000B46C7E906236C4B03F57B53103353E918
:102A98000201D7E90623FDF737FD02460B46C7E9D1
:102AA8001423654BD3E90223D7E91401FDF79EFFF0
:102AB8000346002B07D007F12003184697ED140BA7
:102AC800FFF7BEFD06E007F12003184697ED140B4B
:102AD800FFF71AFE584B03F57B531033D3E9000177
:102AE800D7E90823FDF710FD02460B46C7E908237E
:102AF80097ED087BB0EE470AF0EE670A0CF020FA73
:102B080087ED140B97ED140B01F04EFA0346002BDA
:102B180006D197ED140B01F023FA0346002B06D0DB
:102B28004FF000024FF00003C7E9142307E09FEDC0
:102B38003E1B97ED140B0BF0ADFF87ED140B4FF018
:102B480000024FF00003D7E91401FDF74FFF0346D9
:102B5800002B0ED03B6D3B617B6D83F000437B61A6
:102B6800D7E90401FDF7A8FF03469BB25B429BB27D
:102B780005E0D7E91401FDF79FFF03469BB2FB86EA
:102B88002D4B03F57B53203353E90201D7E9062384
:102B9800FDF7BAFC02460B46C7E91423264BD3E9D6
:102BA8000423D7E91401FDF721FF0346002B07D0C2
:102BB80007F11803184697ED140BFFF741FD06E0DF
:102BC80007F11803184697ED140BFFF79DFD1A4BF4
:102BD80003F57B532033D3E90001D7E90623FDF73A
:102BE80093FC02460B46C7E9062397ED067BB0EE39
:102BF800470AF0EE670A0CF0A3F987ED140B97ED7E
:102C0800140B01F0D1F90346002B06D197ED140BF4
:102C180001F0A6F90346002B12D04FF000024FF046
:102C28000003C7E9142313E0000000000000F0408F
:102C3800B0420020F8410020000000200000103DB4
:102C48009FED111B97ED140B0BF024FF87ED140B70
:102C58004FF000024FF00003D7E91401FDF7C6FE5C
:102C68000346002B14D03B6DBB607B6D83F00043A3
:102C7800FB60D7E90201FDF71FFF03469BB25B42E9
:102C88009BB20BE0AFF30080000000000000F040B2
:102C9800D7E91401FDF710FF03469BB2BB86C84B6A
:102CA80003F57C5353E90201D7E90E23FDF72CFC09
:102CB80002460B4610461946C14B03F57C53D3E92F
:102CC8000023FDF76BFA02460B4643EC172BB0EED8
:102CD800470AF0EE670A0BF05BFF51EC100BB84B9C
:102CE80003F57B53303353E90223FDF70DFC02460D
:102CF8000B4610461946B24B03F57B533033D3E9E4
:102D08000023FDF74BFA02460B46AE49C1E90E23F4
:102D1800AB4B03F57C53203353E90201D7E90E236B
:102D2800FDF7F2FB02460B4610461946A44B03F585
:102D38007C532033D3E90023FDF730FA02460B46D3
:102D480043EC172BB0EE470AF0EE670A0BF020FFB2
:102D580051EC100B9A4B03F57C53103353E90223C3
:102D6800FDF7D2FB02460B4610461946944B03F575
:102D78007C531033D3E90023FDF710FA02460B46C3
:102D88009049C1E910238E4B03F57D5353E90201A5
:102D9800D7E90E23FDF7B8FB02460B461046194645
:102DA800874B03F57D53D3E90023FDF7F7F9024676
:102DB8000B4643EC172BB0EE470AF0EE670A0BF010
:102DC800E7FE51EC100B7E4B03F57C53303353E98F
:102DD8000223FDF799FB02460B4610461946784B2D
:102DE80003F57C533033D3E90023FDF7D7F90246C6
:102DF8000B467449C1E91223724BD3E92A016EA329
:102E0800D3E90023FDF7C8F902460B4643EC172B1C
:102E1800B0EE470AF0EE670A0BF0BAFE51EC100B61
:102E2800684BD3E91023FDF76FFB02460B461446A7
:102E38001D46644B93ED2A7BB0EE470AF0EE670A15
:102E48000BF0A6FE51EC100B5E4BD3E90E23FDF7F9
:102E58005BFB02460B4620462946FDF79FF90246D2
:102E68000B4614461D46574BD3E92A0152A3D3E912
:102E78000023FDF793F902460B4643EC172BB0EEFF
:102E8800470AF0EE670A0BF083FE51EC100B4D4B2E
:102E9800D3E91223FDF738FB02460B4620462946A4
:102EA800FDF77CF902460B4610461946444B03F5DC
:102EB8007D53103353E90223FDF726FB02460B46E8
:102EC8004049C1E914233F4BD3E92A013AA3D3E986
:102ED8000023FDF761F902460B4643EC172BB0EED1
:102EE800470AF0EE670A0BF00BFE51EC100B354B5E
:102EF800D3E91023FDF708FB02460B4614461D468E
:102F0800304B93ED2A7BB0EE470AF0EE670A0BF0E0
:102F1800F7FD51EC100B2B4BD3E90E23FDF7F4FA18
:102F280002460B4620462946FDF738F902460B466D
:102F380014461D46234BD3E92A011FA3D3E90023D6
:102F4800FDF72CF902460B4643EC172BB0EE470A67
:102F5800F0EE670A0BF0D4FD51EC100B194BD3E9D6
:102F68001223FDF7D1FA02460B4620462946FDF703
:102F780015F902460B4610461946114B03F57D53C9
:102F8800103353E90223FDF7BFFA02460B460D49F9
:102F9800C1E916230B4BD3E90E010A4BD3E91023E1
:102FA800FDF7FCF802460B4610461946054BD3E9D7
:102FB800122309E0AFF3008065732D3852C1004039
:102FC80000000020F8410020FDF7E8F802460B4613
:102FD800C7E914234FF00002904BD7E91401FDF71D
:102FE80093FA02460B46104619468D4B03F57D535E
:102FF800103353E90223FDF787FA02460B46894945
:10300800C1E91823874BD3E90E45854B03F57D535A
:103018001033D3E90001D7E91423FDF775FA024606
:103028000B4620462946FDF7B7F802460B461046E0
:1030380019467B4B03F57D532033D3E90023FDF775
:1030480063FA02460B46C7E91423764BD3E910010D
:10305800744BD3E91223FDF79FF802460B4610463E
:1030680019466F4B03F57D53203353E90223FDF7CF
:103078004BFA02460B4610461946694B03F57D5339
:10308800303353E90223FDF73FFA02460B46654900
:10309800C1E92A23D7E90645BB8E1846FDF7BAF9D8
:1030A80002460B4620462946FDF776F802460B46AF
:1030B800C7E906235A4B03F58043B3F91E301A4675
:1030C800BB8E1344564A0333DB001344D3E9002371
:1030D800C7E90E23524B03F58043B3F91C301A4657
:1030E800BB8E13444E4A0333DB001344D3E900017B
:1030F800D7E90E23FDF750F802460B46104619464D
:10310800D7E90623FDF700FA02460B46D7E90E0178
:10311800FDF744F802460B46C7E90E23404B03F57A
:103128008043B3F922301A46BB8E13443C4A03331A
:10313800DB001344D3E90023C7E90A23384B03F51E
:103148008043B3F920301A46BB8E1344344A033304
:10315800DB001344D3E90001D7E90A23FDF71CF883
:1031680002460B4610461946D7E90623FDF7CCF967
:1031780002460B4610461946D7E90A23FDF70EF812
:1031880002460B46C7E90623254B03F580435A8DB3
:10319800234B03F580439B8D9A4245D9214BD3E9B4
:1031A8002A01D7E90623FDF7AFF902460B46144674
:1031B8001D46D7E90E23D7E91401FDF7A5F9024604
:1031C8000B4620462946FCF7E7FF02460B463A60C5
:1031D80083F000437B60134B97ED007B83ED227BEC
:1031E800D7E90601D7E91423FDF78EF902460B4605
:1031F80014461D460B4BD3E92A01D7E90E23FDF7E8
:1032080083F902460B4620462946FCF7C7FF0246CB
:103218000B460449C1E924233EE000BF0000E03F1B
:1032280000000020F8410020D7E90601D7E914235F
:10323800FDF76AF902460B4614461D46874BD3E94B
:103248002A01D7E90E23FDF75FF902460B4620460F
:103258002946FCF7A3FF02460B468049C1E9222311
:103268007E4BD3E92A01D7E90623FDF74DF902463B
:103278000B4614461D46D7E90E23D7E91401FDF77E
:1032880043F902460B4620462946FCF785FF0246CD
:103298000B467249C1E92423714B03F57E5353E968
:1032A80002236E49C1E91A236C4BD3E922236B49E7
:1032B800C1E91C23694BD3E924236849C1E91E23CA
:1032C800664BD3E91A236549C1E92023D7E90845A4
:1032D800FB8E1846FDF79EF802460B462046294607
:1032E800FCF75AFF02460B46C7E906235C4B03F579
:1032F8008043B3F916301A46FB8E1344584A03F23A
:10330800ED33DB001344D3E90023C7E90823544B0A
:1033180003F58043B3F914301A46FB8E1344504A20
:1033280003F2ED33DB001344D3E90001D7E90823A6
:10333800FCF732FF02460B4610461946D7E906232A
:10334800FDF7E2F802460B4610461946D7E908236E
:10335800FCF724FF02460B46C7E90823404B03F558
:103368008043B3F91A301A46FB8E13443C4A03F2E1
:10337800ED33DB001344D3E90023C7E91423384BAA
:1033880003F58043B3F918301A46FB8E1344344AC8
:1033980003F2ED33DB001344D3E90001D7E914232A
:1033A800FCF7FAFE02460B4610461946D7E90623F3
:1033B800FDF7AAF802460B4610461946D7E914232A
:1033C800FCF7ECFE02460B46C7E90623244B03F53F
:1033D8008043DA8C224B03F580431B8D9A4241D9F6
:1033E8001E4BD3E92401D7E90623FDF78DF80246E1
:1033F8000B4614461D46194BD3E92201D7E9082389
:10340800FDF782F802460B4620462946FCF7C6FE21
:1034180002460B461149C1E92623104BD3E9220184
:10342800D7E90623FDF770F802460B4614461D46F9
:103438000A4BD3E92401D7E90823FDF765F80246CA
:103448000B4620462946FCF7A7FE02460B46924645
:1034580083F0004B014BC3E928AB3DE0F841002065
:1034680000000020BA4BD3E92201D7E90623FDF773
:103478004BF802460B4614461D46B54BD3E92401CA
:10348800D7E90823FDF740F802460B4620462946AF
:10349800FCF782FE02460B46AD49C1E92623AC4B38
:1034A800D3E92401D7E90623FDF72EF802460B4697
:1034B80014461D46A64BD3E92201D7E90823FDF798
:1034C80023F802460B4620462946FCF767FE0246CB
:1034D8000B469F49C1E928239D4BD3E926239C49E4
:1034E800C1E900239A4BD3E928239949C1E902236A
:1034F800974BD3E91A239649C1E90423954B03F561
:103508007E53D3E90001924BD3E90023FCF7FCFF7B
:1035180002460B46C7E914238E4B03F57E5310333E
:1035280053E90201D7E91423FCF7EEFF02460B46E4
:103538008749C1E92A23874B03F57E531033D3E922
:103548000001D7E91423FCF7DFFF02460B46C7E961
:103558000623804B03F57E53D3E900017C4BD3E966
:103568000223FCF7D1FF02460B4610461946794B59
:1035780003F57E53203353E90223FCF7C5FF0246C7
:103588000B46C7E91423D7E90623D7E91401FCF74A
:1035980003FE02460B46104619466E4B03F57E5352
:1035A8002033D3E90023FCF7AFFF02460B46C7E9F7
:1035B8000823D7E906234FF000004FF00001FCF77D
:1035C800EBFD02460B4610461946D7E91423FCF7D3
:1035D800E3FD02460B46104619465E4B03F57E5343
:1035E800303353E90223FCF78FFF02460B46C7E945
:1035F8000623574B93ED2A7B97ED086BB0EE461ADE
:10360800F0EE661AB0EE470AF0EE670A0BF008FB18
:10361800B0EE406AF0EE606A97ED067BB0EE471AAE
:10362800F0EE671AB0EE460AF0EE660A0BF0F8FA0A
:1036380055EC104B464B93ED2A7B97ED086BB0EE9B
:10364800461AF0EE661AB0EE470AF0EE670A0BF07B
:103658000FFBB0EE406AF0EE606A97ED067BB0EEC5
:10366800471AF0EE671AB0EE460AF0EE660A0BF05B
:10367800FFFA53EC102B20462946FCF78FFD024633
:103688000B4610461946334B03F57E533033D3E9C6
:103698000023FCF739FF02460B46C7E914232C4BDD
:1036A800D3E92A01D7E91423FCF778FD02460B4633
:1036B80010461946274B03F57F5353E90223FCF7BD
:1036C80023FF02460B4610461946224B03F57F534B
:1036D800D3E90023FCF718FF02460B4610461946AB
:1036E8001C4B03F57F53103353E90223FCF756FDB7
:1036F80002460B4610461946164B03F57F53103306
:10370800D3E90023FCF700FF02460B461049C1E944
:103718000623D7E90801D7E91423FCF73FFD024641
:103728000B46104619460B4B03F57F5353E902230A
:10373800FCF7EAFE02460B4610461946054B03F510
:103748007F53D3E90023FCF7DFFE02460B4603E074
:10375800F841002000000020104619469D4B03F553
:103768007F53103353E90223FCF718FD02460B463A
:1037780010461946974B03F57F531033D3E90023BE
:10378800FCF7C2FE02460B469349C1E90823D7E974
:103798000601D7E91423FCF701FD02460B46104643
:1037A80019468C4B03F57F5353E90223FCF7ACFE13
:1037B80002460B4610461946864B03F57F53D3E95C
:1037C8000023FCF7A1FE02460B4610461946814B22
:1037D80003F57F53103353E90223FCF7DFFC02465D
:1037E8000B46104619467B4B03F57F531033D3E93C
:1037F8000023FCF789FE02460B467749C1E90A23F4
:10380800744B03F57F53203313ED027BB0EE470A68
:10381800F0EE670AFEF7DCFF87ED140B4FF00002AD
:103828006E4BD7E91401FDF7E1F80346002B14D0DD
:103838004FF000024FF00003D7E91401FDF7EAF852
:103848000346002B06D0D7E91401FDF735F90346E6
:10385800BB6405E00023BB6402E04FF0FF33BB64A8
:103868005F4BDB69B96C1846FEF7DCF9B8645C4B52
:10387800DB69B96C1846FEF791FD594BDC69564B6C
:10388800D3E9062310461946FDF736F9034600EE3C
:10389800103A2046FEF7E2FD514BDC694E4BD3E966
:1038A800082310461946FDF727F9034600EE103A9B
:1038B8002046FEF7E7FD4A4BDC69474BD3E90A236C
:1038C80010461946FDF718F9034600EE103A20464F
:1038D800FEF7ECFD424B1B6B1846FCF7ABFD3D4B6E
:1038E80003F57F533033D3E90023FDF77FF8034610
:1038F800002B0AD03A4B1B6B002B06DB354B03F52C
:103908007F532033D3E9002303E04FF000024FF048
:103918000003C7E90823324B1B6B1846FCF78AFDE6
:1039280004460D462B4B03F57F53303353E9020110
:103938004FF000022B4BFCF72FFC02460B462046AB
:103948002946FDF767F80346002B03D0244B0022D5
:103958001A6304E0224B1B6B0133214A13631E4B8D
:10396800214A1A63D7E908014FF000024FF000031B
:10397800FDF732F80346002B02D12023FB6401E057
:103988000023FB64144B1B6BFA6C11461846FEF7B8
:10399800A3FC114B1A6BFB6CDB4303F020031946A5
:1039A8001046FEF7A7FC114B9A6A01329A629B6A8D
:1039B8001846FCF72FFD0D4BD3E90C230B4CFCF7F5
:1039C800A3FD02460B46C4E9082300BF5837BD468D
:1039D800BDE8B08F00000020F84100200000F04151
:1039E800B04200200000F03F00000240F0420020FA
:1039F80080B500AF42494FF00002424BC1E91023A5
:103A08003F493DA3D3E90023C1E90C233C4B3E4A7F
:103A18009A603B4B3D4ADA60394B3D4A1A61384B54
:103A28003C4A5A61364B3C4A5A603B4B3B4A1A6007
:103A38003A4B3B4A1A60394B394A5A60374B394A34
:103A48009A60364B374ADA60344B364A1A61334B40
:103A5800354A5A61314B354A9A61304B304ADA61FE
:103A68002E4B2F4A1A622D4B2D4A5A622B4B304A45
:103A78009A622A4B2F4ADA62284B294A1A63274B43
:103A8800274A5A631E4A1E4B5B6818329A601C4AC2
:103A98001B4B5B6808325A60194A194B5B68203225
:103AA800DA60174B164A9B6A9363234B03F58043EE
:103AB8001B69224AD362214B00225A601F4B002205
:103AC8001A701E48FEF77AFD1B4B03F580439B686E
:103AD8001B4AC2F8B030194B00221A74174B002247
:103AE8001A76164B01225A611648FEF7E1FE134B6F
:103AF80001221A7600BF80BD9A9999999999B93F80
:103B0800F04200200000F0BFCF12346036DFEC3402
:103B1800E3C895C9F6B7BF4B404300205443002083
:103B2800E42F0108E4420020E8420020E742002098
:103B3800E6420020E542002000000020B0420020BC
:103B4800F8410020C042002080B500AF214B1B780F
:103B5800002B11D11F4B01221A701E4B5B68012BE1
:103B68000AD11C4B1B7A002B06D01A4BDB680022AB
:103B780002211846FDF735FB164B1B7C002B27D17D
:103B8800144B01221A74134B5B69012B20D1114B82
:103B98001B7E002B1CD00F4BDB691846FEF700FD7F
:103BA8000C4BDB6900211846FDF71BFE094BDB694E
:103BB80004211846FDF7E4FE064BDB69042118468C
:103BC800FDF746FF034BDB6904211846FDF7ACFF00
:103BD80000BF80BDB042002080B500AF022204497A
:103BE8002120FEF73BFA1220FEF74CFA00BF80BDF9
:103BF800013C00080000000080B582B000AF4A48D0
:103C0800FEF790FA0346002B07D04848FDF7BFF9A6
:103C18000346002B01D0012300E00023002B73D0C2
:103C28004148FEF771FA424B1B78DBB2012B6BD18E
:103C3800404B93F93430BB710023FB71BB79042BE3
:103C48001AD801A252F823F0653C00086B3C000822
:103C5800713C0008773C00087D3C00080023FB719C
:103C68000AE00323FB7107E00323FB7104E0002350
:103C7800FB7101E00023FB7197F907202D4B83F8B6
:103C880034202D4B2C4A9B6A93632A4BDB683A46B7
:103C980002211846FDF747FA264BDB6A274AC2F885
:103CA800B030264BD3F8B020254B03F58043DB68B2
:103CB8001344204AD3621F4BDA6A214B1B689A428D
:103CC80005D91F4B03F580435B681A4AD362194B29
:103CD800042283F83420184B9B6B1846FCF79AFB98
:103CE8000FA3D3E90023FCF70FFC02460B46154946
:103CF800C1E90023134B93ED007BB0EE470AF0EEC9
:103D0800670A0120FEF7BAF8BFF36F8F00BFBFF351
:103D18004F8F00BF00BF0837BD4680BDAFF300809E
:103D28009A9999999999B93F002001403C410020FE
:103D380092430020B0420020F0420020F8410020C9
:103D480000000020F041002080B500AF1220FEF7EF
:103D5800B7F900BF80BD000080B582B000AF4FF05A
:103D680000024FF00003C7E90023164B1B785A1CCA
:103D7800D1B2144A1170002B09D0134B01221A60DA
:103D8800104B1B78013BDAB20E4B1A7016E062B684
:103D980000BF0E4B1B68D3E90823C7E90023FEF7D1
:103DA800CBFD97ED000B0020FEF768F872B600BF58
:103DB800044B1B78013BDAB2024B1A700837BD4638
:103DC80080BD00BF904300208C430020E02F0108F5
:103DD80080B586B000AF786039605B4B7B615B4B28
:103DE8003B610023FB735A4B00221A70594B002287
:103DF8001A7001DF09F082FD08F002FB06F0B6F93F
:103E080008F0D4FD08F0A6FD08F022FD08F054FCE7
:103E180008F046FB504B1B6800221A600021002066
:103E2800FDF722FF0346FB7397F90F30002B02D0F2
:103E380097F90F3084E0FFF7CFFEFFF7D9FD72B690
:103E480000BF62B600BF444B1B685A68424B1B68F0
:103E5800403319461046FDF717FF0346FB7397F9E1
:103E68000F30002B0DD14FF0FF30FDF7A1FFFEF70B
:103E7800B3F80346002B04D0374B1B68012283F8A4
:103E8800482072B600BF97ED050A06F063FAFEF700
:103E9800AFF80346002B0CD1FEF79EF80346002B23
:103EA80007D12D4B1B6893F84830002B01D1012313
:103EB80000E00023DAB2274B1A7062B600BF62B680
:103EC80000BF2FE0FEF758F80346FB73FEF790F8A3
:103ED8000346002B0AD1FEF77FF80346002B05D1D5
:103EE8001D4B1B6893F84830002B01D0012300E0DC
:103EF8000023DAB2164B1A70154B1B78DBB2002B75
:103F08000CBF01230023DBB21A46124B1A70104B68
:103F18001B78DBB2002B05D0104B1B680F4A23F02F
:103F2800010313600B4B1B78DBB2002BCAD1FFF7E0
:103F38000BFEFEF731F8FFF707FF72B600BF00234C
:103F480018461837BD4680BDCDCCCC3D0000A842F0
:103F58009143002092430020E02F010810E000E088
:103F680080B582B000AF87ED000B0D4BD3E900237D
:103F7800D7E90001FCF730FD0346002B09D1094BB6
:103F8800D3E90023D7E90001FCF726FD0346002BFF
:103F980001D0012300E0002318460837BD4680BD44
:103FA800304000203840002080B582B000AF87ED57
:103FB800000BD7E90023D7E90001FCF73FFD0346D2
:103FC800002B01D0012300E0002318460837BD4626
:103FD80080BD0FB480B400AF00BFBD465DF8047B60
:103FE80004B0704780B485B000AFF860B9607A60FB
:103FF800FB68BA681A60FB6804337A681A6000BF05
:104008001437BD465DF8047B7047000000000000CF
:10401800F0B58BB000AF87ED020B0346FB80FB8841
:10402800002B77D14FF00002414BD7E90201FCF792
:104038006BFA02460B46C7E906239FED391B97ED3D
:10404800060B0AF027FD53EC102B10461946FCF717
:1040580033FD03467B6100237B6233A3D3E900234E
:10406800D7E90601FCF7E0FC0346002B0ED02EA38F
:10407800D3E90023D7E90601FCF770FB02460B469B
:1040880010461946FCF718FD03467B627A6A79697F
:104098002848FFF7A7FF284BD3E900014FF000029B
:1040A800264BFCF799FC0346002B2ED1224BD3E973
:1040B80000014FF000024FF04043FCF78DFC03462F
:1040C800002B22D11C4BD3E90001D7E90223FCF7CE
:1040D80063F802460B4614461D464FF00002184B83
:1040E800D7E90201FCF710FA02460B4601210E46F9
:1040F80020462946FCF77AFC0346002B01D1002311
:104108001E46F3B21A460F4B1A700F49D7E902231D
:10411800C1E9002300BF2C37BD46F0BDAFF30080D6
:10412800000000000000F0410000E0FFFFFFEF4149
:1041380000408F40B8430020404000200000F0BFFE
:104148000000B03CAC430020C043002080B584B0E0
:1041580000AF0023BB6000237B600023FB731F4973
:104168004FF000024FF00003C1E900233A1D07F1A8
:1041780008031146184605F0B3FFBB687A68114674
:10418800184604F0D3F80346FB7397F90F30002B59
:1041980005D01348FFF71DFF97F90F301AE03A1DB5
:1041A80007F108031146184605F0B1FFBB687A68A5
:1041B8001146184600F054FF0346FB7397F90F3079
:1041C800002B05D097F90F3019460648FFF701FF75
:1041D80097F90F3018461037BD4680BDB043002010
:1041E800140A01083C0A010880B584B000AF0346F0
:1041F800FB710023FB730023BB73002005F09EFFB7
:1042080000237B7304F060FA0346FB7397F90F30C1
:10421800002B0DD097F90F3013F1020F08D097F942
:104228000F3019463C48FFF7D4FE0123BB730BE05F
:104238007B7B002B04D197F90F3013F1020F01D0CB
:10424800012300E000237B73BB7B002B21D100F00E
:1042580039FF0346FB7397F90F30002B0DD097F900
:104268000F3013F1020F08D097F90F3019462B4879
:10427800FFF7AFFE0123BB730BE07B7B002B04D160
:1042880097F90F3013F1020F01D0012300E000234A
:104298007B73BB7B002B21D104F0A0F90346FB7391
:1042A80097F90F30002B0DD097F90F3013F1020F4B
:1042B80008D097F90F3019461948FFF78AFE0123ED
:1042C800BB730BE07B7B002B04D197F90F3013F104
:1042D800020F01D0012300E000237B73FB79002B40
:1042E8000DD0002005F02AFFBB7B002B02D17B7B81
:1042F800002B01D1012300E00023BB7301E001235F
:10430800BB73BB7B002B3FF47BAF97F90F3018468C
:104318001037BD4680BD00BF640A01089C0A010829
:10432800CC0A010880B582B000AF0023BB70394BBE
:104338001B78DBB2002B02D0002000F0E1FF00F078
:10434800B3FF0346FB7000237B600EE00A2005F0F4
:10435800F5FE7B6803F51C5310337B600120FFF7E3
:1043680043FF00F0A1FF0346FB707B682A4A934293
:1043780002D8FB78002BE9D100F0A2FF0346BB70FE
:1043880097F90230002B05D097F9023019462348D7
:10439800FFF71FFE04F012FB0346BB7097F90230CB
:1043A800002B05D097F9023019461D48FFF711FE7A
:1043B8001C4B00221A701C4B00221A701B4B002247
:1043C8001A601B4B00221A601A4B00221A601A4B03
:1043D80000221A60194B00221A6019494FF0000296
:1043E8004FF04043C1E900230A4B00221A7008220B
:1043F800002114480CF05EF913494FF000024FF009
:104408000003C1E9002397F9023018460837BD4672
:1044180080BD00BFAC430020FF2C3101040B010814
:10442800200B010893430020944300209843002068
:104438009C430020A0430020A4430020A843002060
:1044480040400020B8430020C043002080B586B01B
:1044580000AF614B1B687B617B69002B00F0B88063
:104468005E4B1B78DBB2002B04D15B4B1B68002B27
:1044780000F0AE805A4B1B78DBB2022B40F0A880CC
:10448800584B1B78002B40F0A3807B69D3E90023AD
:10449800C7E90223544B1B78002B00F08A80534B4A
:1044A8001B78DBB2002B04D0504B1B78DBB2022BFD
:1044B80001D1012300E00023FB714C4B1B78DBB2D8
:1044C800012B04D0494B1B78DBB2022B01D101230D
:1044D80000E00023BB71FB79002B33D0444BD3E9B8
:1044E8000023D7E90201FCF795FA0346002B0AD00E
:1044F800404BD3E900013E4BD3E90023FCF776FAA1
:104508000346002B14D13A4BD3E90023D7E9020123
:10451800FCF78AFA0346002B14D0364BD3E9000186
:10452800334BD3E90023FCF757FA0346002B09D095
:10453800314B1B68002B02D1304B01221A70294BDA
:1045480001221A70BB79002B33D0294BD3E9002301
:10455800D7E90201FCF74AFA0346002B0AD0254B9B
:10456800D3E90001224BD3E90023FCF753FA0346B1
:10457800002B14D11E4BD3E90023D7E90201FCF725
:104588002BFA0346002B14D01A4BD3E90001184B21
:10459800D3E90023FCF748FA0346002B09D0164B51
:1045A8001B68002B02D1154B01221A700D4B0122FA
:1045B8001A700C4B1B78002B0CBF01230023DBB2B5
:1045C8001A46094B1A700B49D7E90223C1E900239F
:1045D80000BF1837BD4680BDCC430020D043002023
:1045E800EC430020FB430020F8430020E843002070
:1045F800D8430020F0430020E4430020FA43002081
:1046080080B582B000AF0023FB719E4B1B78DBB2F4
:10461800002B18D19C4B00221A709C4B00221A7058
:104628009B4B1B78DBB2002B2DD0964B02221A70C5
:10463800974B00221A70974B1B78DBB2002B22D1C4
:104648000123FB711FE0924B00221A708E4B1B78DE
:10465800DBB2002B09D0904B00221A70894B002244
:104668001A70894B00221A700DE08A4B1B78DBB256
:10467800002B02D10123FB7105E0844B1B78FB71F1
:10468800824B00221A707F4B1B78DBB2042B00F29E
:10469800D78001A252F823F0B5460008EF4700087A
:1046A800CF460008A34700082D470008784B1B7821
:1046B800DBB2002B00F0D880724B02221A70744BC8
:1046C80000221A70D0E0FB79002B00F0CF80734BEA
:1046D8001B68002B0DDD6F4B1B78DBB2012B08D15B
:1046E8006E4B1B681A466E4B1A60664B03221A7093
:1046F800BCE06C4B1B68002B0AD0674B01221A7078
:10470800684B1B68664A13605E4B04221A70ADE062
:104718006548FFF75EFC604B00221A70594B002277
:104728001A70A3E05E4B1B68002B04D05C4B1B681F
:10473800013B5B4A13605A4B1B68002B40F0988082
:104748005A4B1B78DBB2012B06D1534B00221A704F
:104758004C4B00221A708BE0554B1B68002B0AD07B
:104768004D4B00221A70524B1B684D4A1360454B43
:1047780001221A707CE0FB79002B07D0494B1B689B
:10478800474A13603F4B04221A7071E0424B0022E3
:104798001A703C4B02221A706AE0414B1B68002BCE
:1047A80004D03F4B1B68013B3D4A13603C4B1B68E0
:1047B800002B5FD13B4B1B68002B0AD0364B0122E4
:1047C8001A70384B1B68364A13602E4B04221A7035
:1047D80050E03548FFF7FDFB2F4B00221A70294B9C
:1047E80000221A7046E02E4B1B68002B04D02C4B7D
:1047F8001B68013B2A4A1360294B1B68002B3BD1DD
:10480800FB79002B18D0274B1B68002B0AD0224BB2
:1048180001221A70234B1B68214A1360194B04228A
:104828001A7029E02048FFF7D4FB1B4B00221A70AE
:10483800144B00221A701FE0124B02221A701BE060
:10484800104B1B78DBB219461A48FFF7C2FB124B14
:1048580000221A700D4B00221A700B4B00221A709E
:10486800084B00221A7008E000BF06E000BF04E011
:1048780000BF02E000BF00E000BF00BF0837BD4630
:1048880080BD00BFEC430020E9430020FB4300202B
:104898004C400020EA430020FA430020E443002073
:1048A800FC43002048400020440B0108EB43002053
:1048B800E04300206C0B010880B400AF10494FF0B2
:1048C80000024FF00003C1E900230E4B00221A70CA
:1048D8000D4B1B78DAB20D4B1A700D4B00221A7073
:1048E8000C4B00221A700C4B00221A600B4B002252
:1048F8001A7000231846BD465DF8047B704700BF58
:10490800F0430020F8430020EA430020F943002048
:10491800FA430020FB430020FC430020EC43002026
:1049280080B584B000AF0346FB80FB88002B3FD1E5
:10493800314B1B78DAB2314B1B789A4214BF0123F2
:104948000023DBB2FB732C4B1B78DAB22B4B1A70AB
:10495800FB7B002B0BD02A4B00221A70294B00221C
:104968001A70294B00221A60284B00221A70224B19
:104978001B78DBB2012B1BD1244B1B78DBB2002B3D
:1049880004D1234B1B78DBB2002B08D11F4B1B78BB
:10499800DBB2012B0CD11C4B1B68012B08D11A4B25
:1049A80000221A601A4B00221A70184B02221A7041
:1049B800114B1B78DBB2012B07D1164B1B889BB21E
:1049C800FA889A4201D1FFF741FDFB88002B05D1F7
:1049D800FFF716FE104B00221A7006E00E4B1B78EC
:1049E800002B02D00D4B1B7801E0054B1B781846B5
:1049F8001037BD4680BD00BFEA430020F9430020C0
:104A0800FA430020FB430020FC430020EC43002035
:104A18004C400020C84300200144002000440020EE
:104A280080B400AF26494FF000024FF00003C1E9FF
:104A38000023244B00221A70234B00221A70234BA8
:104A480000221A70224B00221A80224B00221A7070
:104A5800214B00221A70214B00221A60204B0022A1
:104A68001A70204B00221A701F4B00221A601F4B2D
:104A780000221A701E494FF000024FF00003C1E9EE
:104A880000231C4B4FF47A721A601B4B00221A60E9
:104A98001A4B00221A601A4B00221A70194B012275
:104AA8001A70194B00221A70184B00221A70184BF2
:104AB80000221A7000231846BD465DF8047B704733
:104AC800F0430020F8430020EC430020F943002085
:104AD800C8430020FA430020FB430020FC43002089
:104AE8000044002001440020CC430020D043002093
:104AF800D843002048400020E0430020E443002041
:104B0800E84300204C400020E9430020EA4300200D
:104B1800EB43002080B400AF194B1B78DBB2002BAD
:104B280029D1184B1B78DBB2002B0BD0164B1B7806
:104B3800DBB2002B06D1154B01221A70144B01224F
:104B48001A7018E0104B1B78DBB21A460D4B1B7815
:104B5800DBB2002B0CBF01230023DBB21340002B78
:104B680006D00A4B00221A70094B01221A7002E083
:104B7800074B00221A7000BFBD465DF8047B7047E2
:104B8800EA4300204C400020E94300200044002074
:104B98000144002080B586B000AFF860B9607A6043
:104BA8003B600023FB7503F0FDFE3861FB681B6862
:104BB800184604F00DF90021386803F06BFE024630
:104BC800BB681A6003F056FE02467B681A60BB6831
:104BD8001B68002B0FD0BB681B681946386904F0A6
:104BE800FDFB0246FB681A60FB681B68002B04D1BA
:104BF800F623FB7501E0F823FB7597F91730184683
:104C08001837BD4680BD000080B584B000AFF8609D
:104C1800B9607A60FA68BB6813441B78194608487B
:104C2800FFF7D7F9FB68002B02D0F86804F0D0F83A
:104C38007B6800221A60002318461037BD4680BDE5
:104C4800900B010880B584B000AFF860B9607A6055
:104C5800FA68BB6813441B7819460648FFF7B9F988
:104C68007B6802221A604FF0FF3318461037BD46A2
:104C780080BD00BFEC0B010880B485B000AF0346CF
:104C88000A46FB711346BB710523FB73FB79F02BB6
:104C980002D90023FB7322E0FB79E32B05D9FB79CA
:104CA800F02B02D80123FB7319E0FB79D22B02D930
:104CB800FB79E22B08D9FB79C02B08D1BB79002BF3
:104CC80005D0BB79022B02D80223FB7307E0FB79DE
:104CD800C72B04D9FB79D22B01D80323FB73FB7BA9
:104CE80018461437BD465DF8047B704780B58CB014
:104CF80000AFF860B9607A603B60FB68BB62BB6A72
:104D08001B7887F82730002387F82F3097F827304B
:104D1800C02B06D1BB68012B03D9BB6A5B7887F827
:104D28002F30364B1B78002B3ED097F82F2097F862
:104D3800273011461846FFF79FFF0346FB760023EE
:104D480087F82E30FB7E052B23D0FB7E2C4A52F8A9
:104D580023307B6100233B617B69002B19D097F8D6
:104D680027207B691046984738613B69002B14BFA0
:104D780001230023DBB287F82E3097F82E30002B62
:104D880007D03B695A687B681A603B699A683B6838
:104D98001A6097F82E30002B2CD17B68194A1A60BC
:104DA8003B68194A1A6025E097F82730FF2B1BD17A
:104DB800134B1B683B627B6800221A603B68002229
:104DC8001A603B6A002B15D03B6AFF209847F861B0
:104DD800FB69002B0ED0FB695A687B681A60FB6977
:104DE8009A683B681A6005E07B68084A1A603B6865
:104DF80000221A6000BF3037BD4680BD0344002042
:104E0800084400204D4C0008DD4E0008114C0008F5
:104E180080B483B000AF0346FB71044AFB7913707A
:104E280000BF0C37BD465DF8047B70470344002083
:104E380080B400AF034B1B781846BD465DF8047B71
:104E4800704700BF0444002080B483B000AF03461D
:104E5800FB71064B1A78FB791343DAB2034B1A70CD
:104E680000BF0C37BD465DF8047B70470444002042
:104E780080B483B000AF0346FB7197F90730DB437A
:104E88005AB2074B1B785BB213405BB2DAB2044BE1
:104E98001A7000BF0C37BD465DF8047B704700BF31
:104EA8000444002080B400AF034B1B781846BD466D
:104EB8005DF8047B704700BF0544002080B400AF54
:104EC800034B1B881846BD465DF8047B704700BF3E
:104ED8000644002080B586B000AF0346B9607A600A
:104EE800FB7397F90F30002B05D1BB683B613B6919
:104EF800FF221A7076E0BB687B617B69FE221A701C
:104F080097F90F3010330F2B62D801A252F823F013
:104F1800D14F0008C94F0008C14F0008B94F000819
:104F2800B14F0008A94F0008994F0008A14F000889
:104F3800914F0008894F0008814F0008794F0008F9
:104F4800614F0008594F0008694F0008714F000869
:104F58007B6930225A7045E07B6929225A7041E00A
:104F68007B6922225A703DE07B6920225A7039E021
:104F78007B6900225A7035E07B6923225A7031E040
:104F88007B6921225A702DE07B6911225A7029E031
:104F98007B6927225A7025E07B692A225A7021E012
:104FA8007B6910225A701DE07B6924225A7019E02F
:104FB8007B6928225A7015E07B6926225A7011E015
:104FC8007B6931225A700DE07B6933225A7009E0FF
:104FD80097F90F3019460548FEF7FBFF7B69202239
:104FE8005A70FFE700BF1837BD4680BD1C0C01088A
:104FF80080B487B000AF0346B9607A60FB730023C2
:105008007B61BB68002B23D000233B6100233B61FD
:1050180017E03A6913465B0013449B001A46BB68C5
:1050280013441B78FA7B9A4208D13A6913465B000D
:1050380013449B001A46BB6813447B613B690133E8
:105048003B613A697B689A4202D27B69002BE0D0C7
:105058007B6918461C37BD465DF8047B7047000025
:1050680080B582B000AF78603960134B1B78002B95
:1050780005D01248FEF7ADFF6FF00B0318E000F003
:105088007BFC00F085FC03460D4A136002F052FADF
:1050980002F06CFA03460A4A936003F045F803F0FD
:1050A8004DF80346064A5360034B01221A70002349
:1050B80018460837BD4680BD02440020600C010830
:1050C8000844002080B58CB002AF002387F8273051
:1050D800002387F826300023FB610023BB610023EF
:1050E8007B6100233B610023FB6000233B620023BC
:1050F800BB6000237B60554B1B78002B05D15448BF
:10510800FEF767FF6FF008039BE007F1140007F153
:10511800180207F11C0107F1100300930346002051
:1051280003F012FB034687F8273097F92730002B46
:1051380009D097F9273013F1040F04D097F92730D5
:1051480013F1050F71D1FB69002B05D07A693B6912
:105158001A44BB699A4203D9F82387F8273067E0D5
:10516800FA697B6913443B6239693B1D07F1080200
:10517800386AFFF7BBFDBB68002B09D13B6A1B7877
:1051880019463448FEF725FFF42387F827304FE007
:10519800BB68F869796907F10C029847034687F8F4
:1051A80026307B68002B3DD0FB68002B3AD00023CB
:1051B80087F827303A69FB689A420BD2FB6807F1F7
:1051C800140207F1180107F11C00FFF7E3FC03467E
:1051D80087F827303B691A460021386A0BF06AFACB
:1051E80097F92730002B1DD1FA697B6913443B627C
:1051F8007B68FA6897F92600396A9847F969B869A7
:105208007B69FA680192009303460A464FF6FF71DC
:10521800012003F041F9034687F8273097F9273032
:10522800002B04D197F927300BE000BF00E000BF46
:10523800FB69002B03D0FB69184603F0C9FD97F9F9
:10524800273018462837BD4680BD00BF02440020DD
:10525800900C0108B80C010880B584B000AF034673
:10526800FB800023FB730023BB600D4B1B78002BD6
:1052780005D10C48FEF7ADFE6FF008030CE004F012
:10528800C7FFB860FB880022B968184602F06CFBBB
:105298000346FB7397F90F3018461037BD4680BD9B
:1052A80002440020E80C010880B400AF034B1B78CF
:1052B8001846BD465DF8047B704700BF03440020D4
:1052C80080B500AF0B4B1B78002B02D10A48FEF7C4
:1052D80080FE02F04FFF02F0F1FD00F075FB102296
:1052E800002106480BF0E6F9024B00221A70002351
:1052F800184680BD02440020E00D01080844002043
:1053080080B584B000AF7860786802F0B1FB0346DE
:10531800FB7397F90F3018461037BD4680BD80B52E
:1053280084B000AF0346FB800123FB73FA7BFB8844
:105338000021184602F018FB0346BB7397F90E309C
:1053480018461037BD4680BD80B584B000AF03460F
:10535800FB710123FB6003F0DCFAB860FA79B968E5
:10536800FB68B1FBF3F39A4234BF01230023DBB29D
:1053780018461037BD4680BD80B584B000AF786050
:105388000B46FB7000F02AFBF860F9680648FEF748
:1053980020FE064B1B781A46F96878680BF0BCF9B2
:1053A80000BF1037BD4680BD080E0108204400200C
:1053B80080B588B000AFF860B9607A600023FB77E9
:1053C800FA68BB681344BB61BB697B610023FB744B
:1053D80002F0A6FC0346FB74FB7C002B08D11A489C
:1053E800FEF7F7FD7B6802221A606FF00A0327E0D8
:1053F8007B695B78002B03D07B695B78012B01D13B
:10540800012300E00023FB74FB7C002B0BD17B699C
:105418005B7819460D48FEF7DCFD7B6802221A60AE
:105428006FF001030CE00A48FEF7D3FD0120FFF7F7
:10543800EFFC0023FB777B6808221A6097F91F307E
:1054480018462037BD4680BD200E01086C0E0108A5
:10545800900E010880B586B000AF0346B9607A6047
:10546800FB7397F90F30002B47D1BB687B6108228B
:10547800002178690BF01EF97B69FF221A7005225A
:105488007B695A7000227B699A7003F042FA0346DE
:10549800DAB27B69DA7003F035FA03469AB27B69AF
:1054A8009A807B6901229A717B690122DA717B6992
:1054B8005B7819461648FEF78CFD7B699B78194680
:1054C8001448FEF786FD7B69DB7819461248FEF71B
:1054D80080FD7B699B889BB219461048FEF779FDD1
:1054E8007B699B7919460E48FEF773FD7B69DB796A
:1054F80019460C48FEF76DFD06E097F90F307A68FB
:10550800B9681846FFF7E6FC00BF1837BD4680BDEE
:10551800B80E0108D40E0108F00E01080C0F01089E
:10552800280F0108440F010880B586B000AFF86065
:10553800B9607A600123FB7502F0F2FB0346FB7544
:10554800FB7D002B08D10B48FEF743FD7B68022248
:105558001A606FF00A0309E00748FEF73AFD0020D9
:10556800FFF756FC7B6801221A600023184618379B
:10557800BD4680BD600F0108B00F010880B584B03A
:1055880000AFF860B9607A600548FEF722FD7B68D5
:1055980006221A60002318461037BD4680BD00BF9A
:1055A800E00F010880B586B000AF0346B9607A60A5
:1055B800FB73BB687B610622002178690BF07AF8DF
:1055C8007B69FF221A70FFF733FC03461A467B6992
:1055D8005A70FFF767FC03461A467B699A70FFF713
:1055E8006DFC03461A467B699A807B695B7819468D
:1055F8000948FEF7EEFC7B699B7819460748FEF7D9
:10560800E8FC7B699B889BB219460548FEF7E1FCDC
:1056180000BF1837BD4680BDEC0F01081010010807
:105628003410010880B586B000AFF860B9607A60C0
:105638000023FB750B48FEF7CCFC02F05BFB03462E
:10564800FB75FB7D002B03D003F08CF902F061FBA6
:105658007B6802221A606FF0040318461837BD46AB
:1056680080BD00BF5810010880B588B000AFF86051
:10567800B9607A600023FB77FA68BB681344BB61A2
:10568800BB697B610023FB747B695A687B69DB78A3
:105698001946104600F0AEF90346FB74FB7C002B5C
:1056A80008D10D48FEF795FC7B6802221A606FF05E
:1056B8000B030CE07B6959687B69DB781A4607485D
:1056C800FEF787FC7B6801221A6097F91F3018469D
:1056D8002037BD4680BD00BF601001087C1001085E
:1056E80080B58AB000AFF860B9607A60002387F8A7
:1056F8002730FA68BB6813443B623B6AFB610023AE
:10570800FB7600F06BF97861FB695B781846FFF768
:105718001BFE0346FB76FB7E002B0BD1FB695B78F7
:1057280019461248FEF755FC7B6802221A606FF092
:10573800010316E07B69002B08D10D48FEF749FCF0
:105748007B6802221A606FF00B030AE0FB695A7843
:10575800084B1A70074B1B785A1C7B681A6097F91C
:10576800273018462837BD4680BD00BFB010010855
:10577800E01001082044002080B588B000AF03463F
:10578800B9607A60FB7397F90F30002B30D100F0C5
:1057980025F9F861BB68BB6101220021B8690AF0EC
:1057A80089FFBB69FF221A70FB69002B1CD0164BBE
:1057B8001B7801337A689A4216D1BB6801337B6142
:1057C8000023FB741148FEF704FCFB7C194678693A
:1057D800FFF7D2FD0C4B1B78184600F029F90A4B4D
:1057E80000221A7000BF0AE00948FEF7F2FB06E043
:1057F80097F90F307A68B9681846FFF76BFB00BF56
:105808002037BD4680BD00BF20440020FC100108A1
:105818000811010880B588B000AFF860B9607A60F7
:105828000023FB77FA68BB681344BB61BB697B61E3
:105838000023FB747B695B781846FFF785FD0346F8
:10584800FB74FB7C002B0BD17B695B7819461748EE
:10585800FEF7BFFB7B6802221A606FF0010320E0AD
:105868007B695A687B69DB781946104600F0C2F8F4
:105878000346FB74FB7C002B08D10D48FEF7A9FBFF
:105888007B6802221A606FF00B030AE07B695A7882
:10589800084B1A70074B1B785A1C7B681A6097F9DB
:1058A8001F3018462037BD4680BD00BF28110108AB
:1058B8005C1101082044002080B588B000AF034681
:1058C800B9607A60FB7397F90F30002B30D100F084
:1058D80085F8F861BB68BB6101220021B8690AF04C
:1058E800E9FEBB69FF221A70FB69002B1CD0164B1E
:1058F8001B7801337A689A4216D1BB6801337B6101
:105908000023FB741148FEF764FBFB7C1946786999
:10591800FFF732FD0C4B1B78184600F089F80A4B4C
:1059280000221A7000BF0AE00948FEF752FB06E0A1
:1059380097F90F307A68B9681846FFF7CBFA00BFB5
:105948002037BD4680BD00BF204400207C110108DF
:105958008C11010880B582B000AF0346FB71FB795A
:10596800072204491846FFF743FB03461846083741
:10597800BD4680BDE82F010880B500AF034800F0A0
:1059880013F800F069F800BF80BD00BF5D5900083A
:1059980080B400AF034B1B681846BD465DF8047B16
:1059A800704700BF2444002080B483B000AF786003
:1059B800044A7B68136000BF0C37BD465DF8047B62
:1059C800704700BF2444002080B500AF00F04BF8BA
:1059D8000020FFF7E9FF00BF80BD000080B400AFE2
:1059E800034B1B681846BD465DF8047B704700BF33
:1059F8001844002080B483B000AF78600B46FB7079
:105A0800FB78002B04D17B68002B01D1002306E032
:105A1800064A7B681360054AFB7813710123184610
:105A28000C37BD465DF8047B704700BF1844002062
:105A380080B483B000AF0346FB71064B1A68FB794C
:105A48001344044A136000BF0C37BD465DF8047B5D
:105A5800704700BF1844002080B400AF00BFBD46A7
:105A68005DF8047B704780B400AF00BFBD465DF8A9
:105A7800047B704780B584B000AF0346FB800023E9
:105A8800FB7305F08EFE03460B4A13600B4B1B6835
:105A9800002B0CBF01230023DBB2FB73FB7B002B25
:105AA80004D1054B1B68184605F08CFEFB7B184695
:105AB8001037BD4680BD00BF34440020304400206C
:105AC80080B582B000AF0346FB80044B1B681846C4
