:020000040800F2
:100000000080012001F9000873D9000879D900089F
:100010007FD9000885D900088BD9000800000000AE
:1000200000000000000000000000000061B10008B6
:1000300091D90008000000001DB1000845B000087B
:1000400051F9000851F9000851F9000851F9000868
:1000500051F9000851F9000851F9000851F9000858
:1000600051F9000851F9000851F9000851F9000848
:1000700051F9000851F9000851F9000851F9000838
:10008000CDBE000851F90008B13D00080000000095
:1000900000000000000000000000000051F900080E
:1000A00051F9000851F9000851F9000851F9000808
:1000B00051F9000851F9000851F9000851F90008F8
:1000C00051F9000851F9000851F9000851F90008E8
:1000D00051F9000851F90008B9BE000800000000FD
:1000E0006933000851F9000851F9000800000000C8
:1000F00000000000000000000000000051F90008AE
:100100000000000051F90008A1D9000851F90008C9
:1001100000000000000000000000000000000000DF
:10012000B5D9000851F9000851F9000851F9000843
:1001300051F900080000000000000000000000006D
:1001400000000000000000000000000051F900085D
:1001500051F9000851F9000851F9000851F9000857
:1001600051F9000851F900080000000000000000EB
:10017000000000000000000000000000000000007F
:100180000000000051F9000800000000000000001D
:0401900051F9000819
:1001980081F0004102E000BF83F0004330B54FEA30
:1001A80041044FEA430594EA050F08BF90EA020F9D
:1001B8001FBF54EA000C55EA020C7FEA645C7FEA30
:1001C800655C00F0E2804FEA5454D4EB5555B8BF53
:1001D8006D420CDD2C4480EA020281EA030382EAC4
:1001E800000083EA010180EA020281EA0303362D56
:1001F80088BF30BD11F0004F4FEA01314FF4801C29
:100208004CEA113102D0404261EB410113F0004F3A
:100218004FEA03334CEA133302D0524263EB4303F1
:1002280094EA050F00F0A780A4F10104D5F1200E8F
:100238000DDB02FA0EFC22FA05F2801841F10001EA
:1002480003FA0EF2801843FA05F359410EE0A5F1BE
:1002580020050EF1200E012A03FA0EFC28BF4CF0EF
:10026800020C43FA05F3C01851EBE37101F00045A5
:1002780007D54FF0000EDCF1000C7EEB00006EEBB2
:100288000101B1F5801F1BD3B1F5001F0CD349083C
:100298005FEA30004FEA3C0C04F101044FEA445293
:1002A80012F5800F80F09A80BCF1004F08BF5FEA1A
:1002B800500C50F1000041EB045141EA050130BDFA
:1002C8005FEA4C0C404141EB0101013C28BFB1F50C
:1002D800801FE9D291F0000F04BF01460020B1FA57
:1002E80081F308BF2033A3F10B03B3F120020CDA2A
:1002F8000C3208DD02F1140CC2F10C0201FA0CF008
:1003080021FA02F10CE002F11402D8BFC2F1200C6C
:1003180001FA02F120FA0CFCDCBF41EA0C01904022
:10032800E41AA2BF01EB0451294330BD6FEA04046B
:100338001F3C1CDA0C340EDC04F11404C4F1200256
:1003480020FA04F001FA02F340EA030021FA04F368
:1003580045EA030130BDC4F10C04C4F1200220FABF
:1003680002F001FA04F340EA0300294630BD21FAFD
:1003780004F0294630BD94F0000F83F4801306BFC3
:1003880081F480110134013D4EE77FEA645C18BFB7
:100398007FEA655C29D094EA050F08BF90EA020F4E
:1003A80005D054EA000C04BF1946104630BD91EA46
:1003B800030F1EBF0021002030BD5FEA545C05D149
:1003C8004000494128BF41F0004130BD14F5800488
:1003D8003CBF01F5801130BD01F0004545F0FE41FC
:1003E80041F470014FF0000030BD7FEA645C1ABF31
:1003F800194610467FEA655C1CBF0B46024650EA68
:10040800013406BF52EA033591EA030F41F4002193
:1004180030BD00BF90F0000F04BF0021704730B519
:100428004FF4806404F132044FF000054FF00001EE
:1004380050E700BF90F0000F04BF0021704730B5AF
:100448004FF4806404F1320410F0004548BF404284
:100458004FF000013EE700BF42004FEAE2014FEAD9
:1004680031014FEA02701FBF12F07F4393F07F4FB4
:1004780081F06051704732F07F4208BF704793F0B7
:100488007F4F04BF41F40021704730B54FF46074CA
:1004980001F0004521F000411CE700BF50EA0102CD
:1004A80008BF704730B54FF000050AE050EA010276
:1004B80008BF704730B511F0004502D5404261EBE6
:1004C80041014FF4806404F132045FEA915C3FF427
:1004D800D8AE4FF003025FEADC0C18BF03325FEAC4
:1004E800DC0C18BF033202EBDC02C2F1200300FA75
:1004F80003FC20FA02F001FA03FE40EA0E0021FA9A
:1005080002F11444BDE600BF70B54FF0FF0C4CF487
:10051800E06C1CEA11541DBF1CEA135594EA0C0F39
:1005280095EA0C0F00F0DEF82C4481EA030621EA74
:100538004C5123EA4C5350EA013518BF52EA0335AF
:1005480041F4801143F4801338D0A0FB02CE4FF061
:100558000005E1FB02E506F00042E0FB03E54FF091
:100568000006E1FB03569CF0000F18BF4EF0010E89
:10057800A4F1FF04B6F5007F64F5407404D25FEA85
:100588004E0E6D4146EB060642EAC62141EA555138
:100598004FEAC52040EA5E504FEACE2EB4F1FD0C7A
:1005A80088BFBCF5E06F1ED8BEF1004F08BF5FEAF8
:1005B800500E50F1000041EB045170BD06F00046AA
:1005C80046EA010140EA020081EA0301B4EB5C0457
:1005D800C2BFD4EB0C0541EA045170BD41F480114F
:1005E8004FF0000E013C00F3AB8014F1360FDEBF74
:1005F800002001F0004170BDC4F10004203C35DA50
:100608000C341BDC04F11404C4F1200500FA05F3D2
:1006180020FA04F001FA05F240EA020001F0004273
:1006280021F0004110EBD37021FA04F642EB0601E9
:100638005EEA430E08BF20EAD37070BDC4F10C0413
:10064800C4F1200500FA04F320FA05F001FA04F2D7
:1006580040EA020001F0004110EBD37041F10001C3
:100668005EEA430E08BF20EAD37070BDC4F12005CE
:1006780000FA05F24EEA020E20FA04F301FA05F236
:1006880043EA020321FA04F001F0004121FA04F2DE
:1006980020EA020000EBD3705EEA430E08BF20EAAE
:1006A800D37070BD94F0000F0FD101F000464000E8
:1006B80041EB010111F4801F08BF013CF7D041EA6A
:1006C800060195F0000F18BF704703F0004652006E
:1006D80043EB030313F4801F08BF013DF7D043EA3F
:1006E8000603704794EA0C0F0CEA135518BF95EAF5
:1006F8000C0F0CD050EA410618BF52EA4306D1D17C
:1007080081EA030101F000414FF0000070BD50EA9A
:10071800410606BF1046194652EA430619D094EA24
:100728000C0F02D150EA013613D195EA0C0F05D10E
:1007380052EA03361CBF104619460AD181EA030162
:1007480001F0004141F0FE4141F470014FF000001A
:1007580070BD41F0FE4141F4780170BD70B54FF0B5
:10076800FF0C4CF4E06C1CEA11541DBF1CEA135535
:1007780094EA0C0F95EA0C0F00F0A7F8A4EB050417
:1007880081EA030E52EA03354FEA013100F088800E
:100798004FEA03334FF0805545EA131343EA1263D7
:1007A8004FEA022245EA111545EA10654FEA00268C
:1007B8000EF000419D4208BF964244F1FD0404F545
:1007C800407402D25B084FEA3202B61A65EB0305A1
:1007D8005B084FEA32024FF480104FF4002CB6EB5E
:1007E800020E75EB030E22BFB61A754640EA0C00DE
:1007F8005B084FEA3202B6EB020E75EB030E22BF1E
:10080800B61A754640EA5C005B084FEA3202B6EB5E
:10081800020E75EB030E22BFB61A754640EA9C001D
:100828005B084FEA3202B6EB020E75EB030E22BFED
:10083800B61A754640EADC0055EA060E18D04FEAAB
:10084800051545EA16754FEA06164FEAC30343EA4B
:1008580052734FEAC2025FEA1C1CC0D111F4801F18
:100868000BD141EA00014FF000004FF0004CB6E711
:1008780011F4801F04BF01430020B4F1FD0C88BFB0
:10088800BCF5E06F3FF6AFAEB5EB030C04BFB6EBBB
:10089800020C5FEA500C50F1000041EB045170BDAE
:1008A8000EF0004E4EEA113114EB5C04C2BFD4EBDB
:1008B8000C0541EA045170BD41F480114FF0000E5F
:1008C800013C90E645EA060E8DE60CEA135594EADB
:1008D8000C0F08BF95EA0C0F3FF43BAF94EA0C0FDE
:1008E8000AD150EA01347FF434AF95EA0C0F7FF453
:1008F80025AF104619462CE795EA0C0F06D152EAA7
:1009080003353FF4FDAE1046194622E750EA41068A
:1009180018BF52EA43067FF4C5AE50EA41047FF49B
:100928000DAF52EA43057FF4EBAE12E74FF0FF3C00
:1009380006E000BF4FF0010C02E000BF4FF0010CD1
:100948004DF804CD4FEA410C7FEA6C5C4FEA430C4A
:1009580018BF7FEA6C5C1BD001B050EA410C0CBF99
:1009680052EA430C91EA030F02BF90EA020F0020FB
:10097800704710F1000F91EA030F58BF994208BF62
:1009880090422CBFD8176FEAE37040F0010070471F
:100998004FEA410C7FEA6C5C02D150EA013C07D176
:1009A8004FEA430C7FEA6C5CD6D152EA033CD3D0C1
:1009B8005DF8040B704700BF8446104662468C46BB
:1009C8001946634600E000BF01B5FFF7B7FF0028EE
:1009D80048BF10F1000F01BD4DF808EDFFF7F4FF17
:1009E8000CBF012000205DF808FB00BF4DF808EDA2
:1009F800FFF7EAFF34BF012000205DF808FB00BFC5
:100A08004DF808EDFFF7E0FF94BF012000205DF8E6
:100A180008FB00BF4DF808EDFFF7CEFF94BF01209B
:100A280000205DF808FB00BF4DF808EDFFF7C4FF94
:100A380034BF012000205DF808FB00BF4FEA410CDD
:100A48007FEA6C5C02D150EA013C0AD14FEA430CC0
:100A58007FEA6C5C02D152EA033C02D14FF00000FD
:100A680070474FF0010070474A0011D212F500128A
:100A780011D20DD56FF47873B3EB62520ED44FEAEE
:100A8800C12343F0004343EA505323FA02F070476E
:100A98004FF00000704750EA013002D14FF0FF30AC
:100AA80070474FF0000070474FEA4102B2F1E0434F
:100AB80024BFB3F5001CDCF1FE5C0DD901F0004C3D
:100AC8004FEAC0024CEA5070B2F1004F40EB83008D
:100AD80008BF20F00100704711F0804F21D113F1B9
:100AE8003872BCBF01F00040704741F480114FEAF2
:100AF8005252C2F11802C2F1200C10FA0CF320FA7B
:100B080002F018BF40F001004FEAC1234FEAD32397
:100B180003FA0CFC40EA0C0023FA02F34FEA430301
:100B2800CCE77FEA625307D150EA01331EBF4FF08A
:100B3800FE4040F44000704701F0004040F0FE40A5
:100B480040F40000704700BF53B94AB9002908BFF4
:100B580000281CBF4FF0FF314FF0FF3000F00CB8F9
:100B6800ADF1080C6DE904CE0FF044F9DDF804E0AE
:100B7800DDE9022304B07047704700BF0348044B07
:100B8800834202D0034B03B1184770472803002063
:100B980028030020000000000548064B1B1AD90F47
:100BA80001EBA301491002D0034B03B1184770476A
:100BB80028030020280300200000000010B5064C80
:100BC800237843B9FFF7DAFF044B13B10448AFF3B6
:100BD80000800123237010BD2803002000000000BE
:100BE8004401010808B5054B1BB105490548AFF399
:100BF8000080BDE80840FFF7CFBF00BF000000003D
:100C08002C0300204401010880B483B000AF786051
:100C180039607B68DB6A23F470023B681A437B689F
:100C2800DA6200BF0C37BD465DF8047B704780B4BC
:100C380083B000AF786039607B689B6823F44072AA
:100C48003B681A437B689A6000BF0C37BD465DF865
:100C5800047B704780B483B000AF78607B689B6882
:100C680003F44013002B0CBF01230023DBB218460A
:100C78000C37BD465DF8047B704780B483B000AF85
:100C880078607B689B6843F001027B689A6000BFCC
:100C98000C37BD465DF8047B704780B483B000AF65
:100CA80078607B689B6823F001027B689A6000BFCC
:100CB8000C37BD465DF8047B704780B483B000AF45
:100CC80078607B689B6803F00103012B0CBF01234C
:100CD8000023DBB218460C37BD465DF8047B70472D
:100CE80080B483B000AF78607B689B6843F480026F
:100CF8007B689A6000BF0C37BD465DF8047B70477F
:100D080080B483B000AF78607B681B6803F004038D
:100D1800042B0CBF01230023DBB218460C37BD4659
:100D28005DF8047B704780B483B000AF78607B685F
:100D38006FF004021A6000BF0C37BD465DF8047BF3
:100D4800704780B483B000AF78607B685B6843F01D
:100D580020027B685A6000BF0C37BD465DF8047BF3
:100D6800704780B483B000AF78607B685B6843F0FD
:100D780080027B685A6000BF0C37BD465DF8047B73
:100D8800704780B483B000AF78607B685B6823F0FD
:100D980020027B685A6000BF0C37BD465DF8047BB3
:100DA800704780B483B000AF78607B685B6823F0DD
:100DB80080627B685A6000BF0C37BD465DF8047BD3
:100DC800704780B483B000AF78607B685B6823F0BD
:100DD80080027B685A6000BF0C37BD465DF8047B13
:100DE800704780B483B000AF78607B685B6823F09D
:100DF80040027B685A6000BF0C37BD465DF8047B33
:100E0800704780B483B000AF78607B685B6803F09C
:100E18008063B3F1806F0CBF01230023DBB2184657
:100E28000C37BD465DF8047B704780B483B000AFD3
:100E380078607B685B6803F04003402B0CBF01239C
:100E48000023DBB218460C37BD465DF8047B7047BB
:100E580080B584B000AF78600123FB817B681B6993
:100E68001846FFF7F7FE0346002B24D07B689B7AD1
:100E7800DBB2022B0CD07B689B7ADBB2082B07D045
:100E88007B681B691846FFF73BFF0346012B12D10D
:100E98007B689B7ADBB2082B03D17B6801229A72AC
:100EA80002E07B6820229A727B681B691846FFF76C
:100EB80017FF0023FB81FB8918461037BD4680BD0C
:100EC80080B487B000AFF8600B467A607B81FB681E
:100ED8003C333B6100237B610DE07B699B003A69F1
:100EE800134419687B695B007A6813448AB21A80D4
:100EF8007B6901337B617B897A699A42EDDB00BFAC
:100F080000BF1C37BD465DF8047B704780B485B0D0
:100F180000AFF860B9607A603B6000BF1437BD4627
:100F28005DF8047B704780B485B000AFF860B960A5
:100F38007A6000BF1437BD465DF8047B704780B502
:100F480084B000AF78607B681B691846FFF7D8FE4D
:100F58000346FB73FB7B012B07D17B681B69184693
:100F6800FFF7E1FE7B6802229A72FB7B1846103776
:100F7800BD4680BD80B483B000AF78600B46FB707F
:100F880000BF0C37BD465DF8047B704790B589B04B
:100F980002AFF860084611461A4603467B810B46A5
:100FA8003B811346FB8000237B61FB681B693D4A3C
:100FB800934201D13C4B7B617B69002B6CD0FB6871
:100FC8001A697B691A617B690022DA71FB88012B37
:100FD80062D03B89002B48D07B695B7ADBB2082B57
:100FE80043D0FB68DA687B69DA60FB681A687B695A
:100FF8001A60FB685A697B695A61FB689A797B6950
:101008009A71FB681A797B691A717B691B69B96ADD
:101018001846FFF7F9FD7B89012B22D07B89042B29
:1010280017D17B691B694FF440711846FFF7FFFD24
:101038007B6918697B6959697B699B791C467B695F
:10104800DA687B691B68009313462246FFF75EFF48
:1010580007E07B89022B04D17B691B691846FFF7DF
:1010680070FE7B6908225A7216E03B89002B13D167
:101078007B699B7ADBB2082B0ED0FB685A797B69B7
:101088005A717B89022B04D17B691B691846FFF7CB
:1010980068FE7B6908229A727B6918461C37BD4630
:1010A80090BD00BF002001404403002080B582B0FD
:1010B80000AF78607B681B691846FFF7FEFD0346A2
:1010C800002B04D17B681B691846FFF7D6FD00BFCB
:1010D8000837BD4680BD80B586B000AFF8600B46C6
:1010E8007A607B810123FB82FB681B69002B4BD054
:1010F8007B89012B05D1F868FFF7AAFE0346FB821E
:1011080042E07B89042B24D1FB681B691846FFF752
:10111800A1FD0346002B37D0FB6801229A72FB68B9
:101128001B691846FFF7DCFD00BFFB689B7ADBB242
:10113800022BFAD1FB681869FB685B799BB27A6865
:101148001946FFF7BDFEFB6808229A720023FB824E
:101158001AE07B89022B17D1FB689B7ADBB2202B24
:1011680004D0FB689B7ADBB2022B0DD1FB68082206
:101178009A72FB681869FB685B799BB27A681946B2
:10118800FFF79EFE0023FB82FB8A18461837BD46F0
:1011980080BD80B582B000AF78600B467B80134677
:1011A8003B807B681B691846FFF787FD0346002BC9
:1011B80004D07B681B691846FFF76FFD7B681B69C5
:1011C8001846FFF732FE0346002B04D07B681B69E4
:1011D8001846FFF706FE7B681B691846FFF711FEE5
:1011E8000346002B04D07B681B691846FFF7D9FD1E
:1011F8003B88002B35D07B88012B1AD07B88022BAB
:1012080005D17B681B691846FFF7BBFD11E07B8899
:10121800042B0ED17B6818697B6859697B689B79B8
:101228001A46FFF780FE7B681B6900211846FFF706
:10123800FEFC7B680022DA607B6800221A607B680B
:1012480000225A617B6800229A717B6800221A7119
:101258007B681A697B681B7919461046FFF7D4FC2E
:101268000AE07B6800225A717B88022B04D17B68D4
:101278001B691846FFF7A5FD00BF0837BD4680BDAE
:1012880080B485B000AF78607B681B6803F06003AA
:10129800FB60FB68002B04D17B681B6803F010031C
:1012A800FB60FB6818461437BD465DF8047B704741
:1012B80080B483B000AF78607B685B6A18460C37EF
:1012C800BD465DF8047B704780B483B000AF78609A
:1012D8007B681B6B18460C37BD465DF8047B70476E
:1012E80080B483B000AF786039607B681A6A3B6865
:1012F8001A437B681A6200BF0C37BD465DF8047B51
:10130800704780B483B000AF786039607B681A6A30
:101318003B68DB431A407B681A6200BF0C37BD4646
:101328005DF8047B704780B483B000AF78607B6859
:101338005B6C43F400427B685A6400BF0C37BD46BF
:101348005DF8047B704780B483B000AF78607B6839
:10135800DB6843F001027B68DA6000BF0C37BD46EA
:101368005DF8047B704780B483B000AF78607B6819
:10137800DB6823F001027B68DA6000BF0C37BD46EA
:101388005DF8047B704780B483B000AF78607B68F9
:10139800DB6803F00103012B01D1012300E00023E6
:1013A80018460C37BD465DF8047B704780B483B09F
:1013B80000AF78607B68DB6843F002027B68DA6024
:1013C80000BF0C37BD465DF8047B704780B483B01E
:1013D80000AF78607B68DB6823F002027B68DA6024
:1013E80000BF0C37BD465DF8047B704780B483B0FE
:1013F80000AF78607B68DB6803F00203022B01D141
:10140800012300E0002318460C37BD465DF8047B35
:10141800704780B483B000AF78607B68DB6843F0C6
:1014280004027B68DA6000BF0C37BD465DF8047BB8
:10143800704780B483B000AF78607B68DB6823F0C6
:1014480004027B68DA6000BF0C37BD465DF8047B98
:10145800704780B483B000AF78607B68DB6803F0C6
:101468000403042B01D1012300E0002318460C37A4
:10147800BD465DF8047B704780B483B000AF7860E8
:101488007B68DB6843F008027B68DA6000BF0C37D2
:10149800BD465DF8047B704780B483B000AF7860C8
:1014A8007B68DB6823F008027B68DA6000BF0C37D2
:1014B800BD465DF8047B704780B483B000AF7860A8
:1014C8007B68DB6803F00803082B01D1012300E0E7
:1014D800002318460C37BD465DF8047B704780B47E
:1014E80083B000AF78607B68DB6843F010027B68EC
:1014F800DA6000BF0C37BD465DF8047B704780B4E6
:1015080083B000AF78607B68DB6823F010027B68EB
:10151800DA6000BF0C37BD465DF8047B704780B4C5
:1015280083B000AF78607B68DB6803F01003102B92
:1015380001D1012300E0002318460C37BD465DF8B1
:10154800047B704780B483B000AF78607B68DB6849
:1015580043F020027B68DA6000BF0C37BD465DF8B7
:10156800047B704780B483B000AF78607B68DB6829
:1015780023F020027B68DA6000BF0C37BD465DF8B7
:10158800047B704780B483B000AF78607B68DB6809
:1015980003F02003202B01D1012300E0002318468B
:1015A8000C37BD465DF8047B704780B483B000AF4C
:1015B80078607B68DB6843F040027B68DA6000BFD4
:1015C8000C37BD465DF8047B704780B483B000AF2C
:1015D80078607B68DB6823F040027B68DA6000BFD4
:1015E8000C37BD465DF8047B704780B483B000AF0C
:1015F80078607B68DB6803F04003402B01D101234E
:1016080000E0002318460C37BD465DF8047B7047A0
:1016180080B483B000AF78607B68DB6843F08002F9
:101628007B68DA6000BF0C37BD465DF8047B704705
:1016380080B483B000AF78607B68DB6823F08002F9
:101648007B68DA6000BF0C37BD465DF8047B7047E5
:1016580080B483B000AF78607B68DB6803F08003F8
:10166800802B01D1012300E0002318460C37BD462A
:101678005DF8047B704780B582B000AF78600B4698
:101688007B807B8803F00103002B0CD07B681B68F0
:101698001846FFF7AAFF0346012B04D07B681B6896
:1016A8001846FFF782FF7B8803F00203002B0CD05B
:1016B8007B681B681846FFF799FE0346012B04D088
:1016C8007B681B681846FFF771FE7B8803F00403EC
:1016D800002B0CD07B681B681846FFF7BAFE034640
:1016E800012B04D07B681B681846FFF792FE7B88A5
:1016F80003F00803002B0CD07B681B681846FFF723
:10170800DBFE0346012B04D07B681B681846FFF7F5
:10171800B3FE7B8803F01003002B0CD07B681B689A
:101728001846FFF7FCFE0346012B04D07B681B68B4
:101738001846FFF7D4FE7B8803F02003002B0CD05B
:101748007B681B681846FFF71EFE0346012B04D072
:101758007B681B681846FFF7F6FD7B8803F040039B
:10176800002B0CD07B681B681846FFF771FF0346F7
:10177800012B04D07B681B681846FFF749FF7B885C
:1017880003F08003002B0CD07B681B681846FFF71A
:10179800F9FE0346012B04D07B681B681846FFF747
:1017A800D1FE00BF0837BD4680BD80B582B000AF0E
:1017B80078600B467B807B8803F00103002B0CD0FC
:1017C8007B681B681846FFF710FF0346012B04D1FE
:1017D8007B681B681846FFF7F8FE7B8803F0020356
:1017E800002B0CD07B681B681846FFF7FFFD0346EB
:1017F800012B04D17B681B681846FFF7E7FD7B883F
:1018080003F00403002B0CD07B681B681846FFF715
:1018180020FE0346012B04D17B681B681846FFF79E
:1018280008FE7B8803F00803002B0CD07B681B683C
:101838001846FFF741FE0346012B04D17B681B685D
:101848001846FFF729FE7B8803F01003002B0CD005
:101858007B681B681846FFF762FE0346012B04D11C
:101868007B681B681846FFF74AFE7B8803F0200355
:10187800002B0CD07B681B681846FFF784FD0346D5
:10188800012B04D07B681B681846FFF76CFD7B882A
:1018980003F04003002B0CD07B681B681846FFF749
:1018A800D7FE0346012B04D17B681B681846FFF757
:1018B800BFFE7B8803F08003002B0CD07B681B687D
:1018C8001846FFF75FFE0346012B04D17B681B68AF
:1018D8001846FFF747FE00BF0837BD4680BD000029
:1018E80080B582B000AF78600B46FB70FB78022BA6
:1018F80006D17B681B6801211846FFF7F1FC1DE043
:101908007B681B680F4A934218D1FB78032B06D1DA
:101918007B681B6804211846FFF7E2FC0EE0FB78A1
:10192800042B0BD17B681B6801211846FFF7D8FCF4
:101938007B681B6804211846FFF7D2FC00BF0837F4
:10194800BD4680BD0000014080B582B000AF786020
:101958000B46FB70FB78022B06D17B681B680121C4
:101968001846FFF7CEFC1DE07B681B680F4A9342C0
:1019780018D1FB78032B06D17B681B680421184615
:10198800FFF7BFFC0EE0FB78042B0BD17B681B68CC
:1019980001211846FFF7B5FC7B681B68042118462F
:1019A800FFF7AFFC00BF0837BD4680BD000001400F
:1019B80080B582B000AF78600B46FB70FB78022BD5
:1019C80006D17B681B6810211846FFF789FC1DE0CB
:1019D8007B681B680F4A934218D1FB78032B06D10A
:1019E8007B681B6840211846FFF77AFC0EE0FB78FD
:1019F800042B0BD17B681B6810211846FFF770FC7D
:101A08007B681B6840211846FFF76AFC00BF08374F
:101A1800BD4680BD0000014080B582B000AF78604F
:101A28000B46FB70FB78022B06D17B681B681021E4
:101A38001846FFF766FC1DE07B681B680F4A934257
:101A480018D1FB78032B06D17B681B684021184608
:101A5800FFF757FC0EE0FB78042B0BD17B681B6863
:101A680010211846FFF74DFC7B681B68402118467B
:101A7800FFF747FC00BF0837BD4680BD00000140A6
:101A880080B582B000AF78600B46FB70FB78022B04
:101A980007D17B681B684FF480711846FFF720FC5C
:101AA80020E07B681B68114A93421BD1FB78032B0B
:101AB80007D17B681B684FF480611846FFF710FC5C
:101AC80010E0FB78042B0DD17B681B684FF4807104
:101AD8001846FFF705FC7B681B684FF480611846C1
:101AE800FFF7FEFB00BF0837BD4680BD0000014080
:101AF80080B582B000AF78600B46FB70FB78022B94
:101B080007D17B681B684FF480711846FFF7F9FB13
:101B180020E07B681B68114A93421BD1FB78032B9A
:101B280007D17B681B684FF480611846FFF7E9FB13
:101B380010E0FB78042B0DD17B681B684FF4807193
:101B48001846FFF7DEFB7B681B684FF48061184678
:101B5800FFF7D7FB00BF0837BD4680BD0000014036
:101B680080B584B000AF78600023FB607B681B6899
:101B7800204A934202D1204BFB6006E07B681B6839
:101B8800B3F1804F01D11D4BFB607B681A68FB687D
:101B98001A60FB681B681846FFF772FBB860BB68E1
:101BA800002B06D0BB68102B03D0FB6801221A71EA
:101BB80002E0FB6800221A71FB681B680D4A934219
:101BC80004D1FB681B681846FFF7ADFBFB681B6870
:101BD800084A934208D17B681B681846FFF774FBD4
:101BE8000346DAB2FB685A71FB6818461037BD46DF
:101BF80080BD00BF0000014060030020EC0300200E
:101C080080B582B000AF78607B681B681846FFF724
:101C18004FFB034618460837BD4680BD80B485B0E3
:101C280000AF786039600023FB7397F90F301846CE
:101C38001437BD465DF8047B7047000080B584B05A
:101C480000AF786039600023FB727B68002B05D1F8
:101C5800374803F044F84FF0FF3365E03B68002B4A
:101C680005D1344803F03BF84FF0FF335CE0324BCA
:101C7800D3E900014FF000024FF04043FEF7ACFEFD
:101C88000346002B06D03B68D3E900232A49C1E963
:101C9800002305E0284BD3E900233968C1E9002374
:101CA800254BD3E900014FF00002244BFEF794FEC8
:101CB8000346002B02D0224803F011F87B685B68CA
:101CC8001B68204A13607B685B685B681E4A136068
:101CD8007B685B689B681D4A13607B685B68DB6890
:101CE8001B4A13601B4B00221A6003F069FC002397
:101CF800FB600023FB6007E0174AFB68174942F8BE
:101D08002310FB680133FB60FB68012BF4D903F057
:101D1800A1F80346FB7297F90B30002B02D1104B48
:101D280001221A7097F90B3018461037BD4680BD4E
:101D38006001010884010108480200200000F0BF8A
:101D4800B0010108B0070020B4070020B807002040
:101D5800BC070020C0070020780400203156000886
:101D6800AE07002080B586B000AF78600023FB7511
:101D780000233B610023FB732A4B1B78DBB2002B4B
:101D88000CBF01230023DBB2BB73274B02221A705E
:101D98007B68002B0BD1234B1B78DBB2002B06D1C1
:101DA800224B1B78DBB2002B01D1012300E000237A
:101DB800FB7316E00A2009F045F83B6903F51C534C
:101DC80010333B617B68B3F1FF3F05D03A697B680C
:101DD8009A4201D9012300E00023FB73002003F09D
:101DE80087F8104B1B78DBB2002B07D10F4B1B7801
:101DF800DBB2002B02D1FB7B002BDBD00A4B03228A
:101E08001A70FB7B002B01D09C23FB75BB7B002B3E
:101E180001D003F003FD97F9173018461837BD466F
:101E280080BD00BFAC070020AE070020AD07002032
:101E380080B586B000AF034687ED000BFB81002319
:101E4800FB750123BB754FF000024FF00003D7E983
:101E58000001FEF7CBFD0346002B05D02E4802F00B
:101E68003EFF4FF0FF3353E0FB89FF2B08D9FB8976
:101E7800FF221946294802F032FF4FF0FF3347E0AE
:101E8800274B1B78DBB2032B04D0254B1B78DBB226
:101E9800012B02D1224B04221A70FB89012B15D881
:101EA800FB89204A52F82330002B0FD004F080F829
:101EB80003467B757B7D022B08D1FB89194A52F8B2
:101EC8002330FA89104698470346BB75FB897B8205
:101ED800FB89184697ED000B02F01EFFBB7D002B17
:101EE80006D07B8A184604F03BF80346FB7503E0EE
:101EF8007B8A184604F097F897F91730002B05D01D
:101F080097F917301946084802F0E9FE97F9173093
:101F180018461837BD4680BD1C020108600201083A
:101F2800AE07002078040020A002010880B582B026
:101F380000AF0023FB71002002F0DAFF0346FB71BB
:101F480097F9073018460837BD4680BD80B582B07E
:101F580000AF0023FB710B4B06221A7003F066F8E2
:101F68000346FB710822002107480EF0A7F803F08A
:101F7800DBFB044B00221A7097F907301846083724
:101F8800BD4680BDAE0700207804002080B400AFB5
:101F9800034B1B78DBB21846BD465DF8047B7047DF
:101FA800AD07002080B400AF034B1B78DBB21846A6
:101FB800BD465DF8047B7047C407002080B483B039
:101FC80000AF03463960FB7197F90730002B0ADB35
:101FD8003B68DAB20C4997F907301201D2B20B44C8
:101FE80083F800230AE03B68DAB20849FB7903F07A
:101FF8000F03043B1201D2B20B441A7600BF0C3710
:10200800BD465DF8047B704700E100E000ED00E0AC
:1020180080B584B000AFF860B9607A60FB68DBB265
:102028000F3BDBB25BB279681846FFF7C7FF00BF0A
:102038001037BD4680BD80B485B000AFEFF3108384
:102048007B607B68FB600123BB60BB6883F31088FF
:1020580000BFFB6818461437BD465DF8047B70471F
:1020680080B483B000AF0346FB7197F90730002BAB
:102078000BDBFB7903F01F02074997F907305B096F
:10208800012000FA02F241F8232000BF0C37BD46B8
:102098005DF8047B704700BF00E100E080B483B0C6
:1020A80000AF0346FB7197F90730002B12DBFB7971
:1020B80003F01F020A4997F907305B09012000FA6B
:1020C80002F2203341F82320BFF34F8F00BFBFF344
:1020D8006F8F00BF00BF0C37BD465DF8047B7047AB
:1020E80000E100E080B483B000AF78607B686FF0F7
:1020F80004021A6000BF0C37BD465DF8047B7047C8
:1021080080B483B000AF78607B685B6803F08003BD
:10211800802B0CBF01230023DBB218460C37BD46C9
:102128005DF8047B7047000080B483B000AF78602E
:10213800074B1A687B6813407A689A420CBF0123E0
:102148000023DBB218460C37BD465DF8047B7047A8
:10215800003C014080B483B000AF7860074B5A69F7
:102168007B6813407A689A420CBF01230023DBB2D4
:1021780018460C37BD465DF8047B7047003C0140AB
:1021880080B483B000AF7860044A7B68536100BFB5
:102198000C37BD465DF8047B704700BF003C01402A
:1021A80080B483B000AF78607B681B6843F001029D
:1021B8007B681A6000BF0C37BD465DF8047B70472A
:1021C80080B483B000AF78607B681B6823F001029D
:1021D8007B681A6000BF0C37BD465DF8047B70470A
:1021E80080B483B000AF786039607B681B6823F0E7
:1021F80004023B681A437B681A6000BF0C37BD466F
:102208005DF8047B704780B483B000AF78607B686A
:102218001B6803F0040318460C37BD465DF8047BC1
:10222800704780B483B000AF78607B68DB6A18467B
:102238000C37BD465DF8047B704780B483B000AFAF
:10224800786039607B683A681A6300BF0C37BD460E
:102258005DF8047B704780B483B000AF7860396064
:102268007B683A685A6300BF0C37BD465DF8047B4B
:10227800704780B483B000AF786039607B683A6893
:102288009A6300BF0C37BD465DF8047B704780B485
:1022980083B000AF786039607B683A68DA6300BF62
:1022A8000C37BD465DF8047B704780B483B000AF3F
:1022B80078607B685B6B18460C37BD465DF8047B1D
:1022C800704780B483B000AF78607B689B6B18461A
:1022D8000C37BD465DF8047B704780B483B000AF0F
:1022E80078607B68DB6B18460C37BD465DF8047B6D
:1022F800704780B483B000AF78607B685B6943F057
:1023080001027B685A6100BF0C37BD465DF8047B4B
:10231800704780B483B000AF78607B681B6918464B
:102328000C37BD465DF8047B704780B483B000AFBE
:10233800786039607B683A689A6100BF0C37BD469F
:102348005DF8047B704780B483B000AF7860396073
:102358003B681A047B689A6100BF0C37BD465DF87C
:10236800047B704780B584B000AF786087ED000AC1
:10237800D7ED007AF5EEC07AF1EE10FA03D54FF0FA
:1023880000033B600AE0D7ED007A9FED167AF4EE81
:10239800C77AF1EE10FA01DD134B3B607B681B68CE
:1023A8001846FFF73EFFF8607B681B79002B0CBFCF
:1023B80001230023DBB21A46FB68134407EE903A68
:1023C800B8EE677AD7ED007A27EE277ADFED056A4F
:1023D800C7EE267AFCEEE77A17EE903A18461037E1
:1023E800BD4680BD0000C8420000C84280B582B02A
:1023F80000AF786039607B681B681846FFF755FFA7
:1024080002463B68934205D07B681B6839681846CA
:10241800FFF721FF00BF0837BD4680BD80B582B0F9
:1024280000AF786039607B681B681846FFF749FF82
:1024380002463B68934205D07B681B68396818469A
:10244800FFF717FF00BF0837BD4680BD80B582B0D3
:1024580000AF786039607B681B681846FFF73DFF5E
:1024680002463B68934205D07B681B68396818466A
:10247800FFF70DFF00BF0837BD4680BD80B584B0AB
:1024880000AF786087ED000A97ED000A7868FFF7DB
:1024980069FFF860F9687868FFF7A8FF00BF103790
:1024A800BD4680BD80B584B000AF786087ED000A76
:1024B80097ED000A7868FFF755FFF860F9687868C3
:1024C800FFF7ACFF00BF1037BD4680BD80B584B0B4
:1024D80000AF786087ED000A97ED000A7868FFF78B
:1024E80041FFF860F9687868FFF7B0FF00BF103760
:1024F800BD4680BD80B485B000AF78607B681B683E
:102508009B6803F00703FB60FB68062B0CBF0123E5
:102518000023DBB218461437BD465DF8047B7047CC
:1025280080B584B000AF78600B46FB707B681B6891
:102538001846FFF768FEF860FB78002B0AD07B6826
:102548001B681E4A934205D17B681B680021184608
:10255800FFF773FEFB68042B11D07B681B6804210E
:102568001846FFF73DFE7B681B681846FFF7C1FE5B
:102578007B681B68F9681846FFF732FE04E07B6841
:102588001B681846FFF7B5FE7B681B681846FFF7FF
:1025980007FEFB78002B0CD07B681B68074A934228
:1025A80007D17B681A687B685B7919461046FFF784
:1025B80044FE00BF1037BD4680BD00BF000001408B
:1025C80080B582B000AF78607B681B681846FFF75B
:1025D800F7FD00BF0837BD4680BD000080B483B05A
:1025E80000AF7860084BB3F85230002B0CBF0123C2
:1025F8000023DAB27B6801331A7000BF0C37BD467E
:102608005DF8047B704700BF9005002080B400AFE0
:102618000A4BB3F85220013292B2A3F85220074B6A
:10262800B3F85230B3F5FA6F03D3044B0022A3F882
:10263800522000BFBD465DF8047B7047900500201E
:1026480080B485B000AFF860B9607A607B68B3F990
:102658000020FB681A807B685A88BB681A8000BF14
:102668001437BD465DF8047B704780B485B000AF71
:10267800F860B9607A607B681A88FB681A807B68A2
:102688005A88BB681A8000BF1437BD465DF8047BC2
:10269800704780B483B000AF786039603B689A882F
:1026A8007B681A803B68DA887B685A803B68B3F994
:1026B80000207B68DA803B681A897B689A8000BFB3
:1026C8000C37BD465DF8047B7047000080B584B0C8
:1026D80000AF7B600346FB810B46BB8113467B81C1
:1026E800FB89013B052B45D801A252F823F000BF16
:1026F8006B270008472700085927000823270008E8
:102708001127000835270008386A3B6A991CBB6AFC
:1027180020331A46FFF7A9FF30E0386A3B6A991C54
:10272800BB6A1C331A46FFF7A0FF27E0386A3B6AEA
:10273800991CBB6A18331A46FFF797FF1EE0386AE0
:102748003B6A991CBB6A14331A46FFF78EFF15E0E3
:10275800386A3B6A991CBB6A10331A46FFF785FF33
:102768000CE0386A3B6A991CBB6A0C331A46FFF7BF
:102778007CFF03E07B6A04225A7000BF3B6A1B8817
:10278800BA899A4209D13B6A981D3B6A191DBB6AEE
:1027980028331A46FFF754FF15E03B6A5B88BA896D
:1027A8009A4209D13B6A981D3B6A191DBB6A2433BA
:1027B8001A46FFF745FF06E0BB6A5A883B6A9A80CB
:1027C8007B6A04229A703B6A9A88FB691A803B6A82
:1027D800B3F90620BB691A803B6A9B88002B04D09A
:1027E800BB6A9A7A7B681A700CE03B6AB3F90630C8
:1027F800B7F90A209A420CBF01230023DBB21A461C
:102808007B681A7000BF1037BD4680BD80B485B0A4
:1028180000AFB9607A603B600346FB81BB691A88E8
:10282800BB681A807B68FA891A80BB699A783B680A
:102838001A7000BF1437BD465DF8047B704780B43A
:1028480083B000AF786039603B681A687B681A60AB
:1028580000BF0C37BD465DF8047B704780B58CB06F
:1028680002AF78607B6800221A727B6801225A6086
:102878000023BB6100233B74174BFB6100233B62C1
:102888000023BB74002387F82430012387F8253000
:102898000323FB6003237B7407F10C004FF4001340
:1028A8000093022300220221FEF770FB02467B6898
:1028B800DA607B68DB681846FEF7F8FB7B68DB6844
:1028C80000211846FEF756FB7B6801221A7200BFEA
:1028D8002837BD4680BD00BF0020014080B5A6B0A6
:1028E80000AF78601D4BBB6000233B7300237B73F4
:1028F80007F108031846FFF733F902467B68DA60E8
:102908007B68DB6800211846FEF7B5FE7B68DB684C
:1029180004211846FEF7E4FF7B68DB6804211846AB
:10292800FFF746F87B68DB6804211846FFF7A8F82C
:102938007B68DB681846FFF7DDFD034687F89730AC
:1029480097F89730002B05D17B68DB680121184682
:10295800FFF7E6FD00BF9837BD4680BD0000014087
:1029680080B5A6B000AF78607B6801225A604FF04E
:102978008043BB6000233B7300237B7307F108038C
:102988001846FFF7EDF802467B68DA607B68DB687B
:1029980000211846FEF76FFE7B68DB681846FFF7D4
:1029A800A9FD034687F8973097F89730002B05D193
:1029B8007B68DB6800211846FFF7B2FD7B680122BF
:1029C8001A7200BF9837BD4680BD000090B583B02D
:1029D80000AFFFF71BFE344B9B69334A1361334B3F
:1029E8009B6C314A5361304BDA8C2F4B1A842F4B36
:1029F800DC692F4BD3E9122310461946FEF754F829
:102A0800034600EE103A2046FFF738FD274BDC69F5
:102A1800274BD3E9122310461946FEF745F803461B
:102A280000EE103A2046FFF73DFD204BDC69204BB5
:102A3800D3E9122310461946FEF736F8034600EE8E
:102A4800103A2046FFF742FD184BB3F87220164B98
:102A58005A84164BD3E90C231349C1E90023134BBD
:102A6800B3F97020104B1A85104BDB6A1846FFF734
:102A7800C7F878600D4A7B6813660E4B9A6A013274
:102A88009A629B6A1846FDF7C5FC0A4BD3E90C23EA
:102A9800084CFDF739FD02460B46C4E9082300BF80
:102AA8000C37BD4690BD00BF88040020D00400202C
:102AB8000000002090050020B0B586B000AF314B73
:102AC800DB6D1846FDF7B6FC2F4BD3E91A23FDF74B
:102AD8008DFF0346002B07D02A4BDB6D002B03DB51
:102AE800294BD3E9162303E04FF000024FF000030F
:102AF800C7E90223234BDB6D1846FDF79BFC044610
:102B08000D46214BD3E918014FF000021F4BFDF78A
:102B180043FB02460B4620462946FDF77BFF03464A
:102B2800002B03D0174B0022DA6504E0154BDB6D50
:102B38000133144AD365164B7B604FF000024FF007
:102B48000003D7E90201FDF747FF0346002B02D136
:102B580020237B6101E000237B617B69194678684B
:102B6800FFF7E3FB7B69DB4303F020031946786832
:102B7800FFF7E9FB074B9A6B01329A6300BF1837DE
:102B8800BD46B0BDD0040020000000200000F03F8A
:102B9800000002409005002080B584B000AF96493F
:102BA8004FF00002954BC1E91623934990A3D3E94E
:102BB8000023C1E90C23904B914A9A608E4B914AAD
:102BC800DA608D4B904A1A618B4B904A5A618A4B56
:102BD8008F4A5A608E4B8F4A1A608E4B8E4A1A6003
:102BE8008C4B8E4A5A608B4B8C4A9A60894B8B4A25
:102BF800DA60884B894A1A61864B884A5A61854B44
:102C0800874A9A61834B874ADA61824B864A1A62FD
:102C1800804B864A5A627F4B854A9A627D4B854A29
:102C2800DA627C4B844A1A637A4B844A5A63794B3A
:102C3800834A9A63774B834ADA63764B824A1A64EB
:102C4800744B824A5A64734B814A9A64714B814A25
:102C5800DA64704B804A1A656E4B804A5A656D4B30
:102C68007F4A9A656B4B7F4ADA656A4B7E4A1A66D9
:102C7800684B7E4A5A66674B7D4A9A66654B7D4A21
:102C8800DA66644B7C4A1A67624B7C4A5A67614B26
:102C98007B4A9A675F4B7B4ADA675E4B7A4AC3F88E
:102CA80080205C4B794AC3F884205A4B784AC3F891
:102CB8008820584B774AC3F88C20564B574AC3F89C
:102CC8009020544B554AC3F89420524B534AC3F8AA
:102CD8009820504B514AC3F89C204E4B6E4AC3F87B
:102CE800A0204C4B6D4AC3F8A4204A4B6C4AC3F849
:102CF800A820484B6B4AC3F8AC20464B6A4AC3F835
:102D0800B020444B694AC3F8B420424B684AC3F820
:102D1800B820404B674AC3F8BC203E4B664AC3F80C
:102D2800C0203C4B654AC3F8C4203A4B644AC3F8F8
:102D3800C820384B634AC3F8CC20364B614AC3F8E5
:102D4800D020344B5F4AC3F8D420324B5E4AC3F8D4
:102D5800D820304B5C4AC3F8DC202E4B5A4AC3F8C3
:102D6800E0202C4B584AC3F8E4202A4B574AC3F8B2
:102D7800E820284B564AC3F8EC20264B554AC3F89E
:102D8800F020244B544AC3F8F420224B534AC3F88A
:102D9800F820204B524AC3F8FC201E4B514AC3F876
:102DA80000211C4B504AC3F804211A4B4F4AC3F860
:102DB8000821184B4E4AC3F80C21164B4D4AC3F84C
:102DC8001021144B4C4AC3F81421124B4A4AC3F839
:102DD8001821104B484AC3F81C210E4B474AC3F828
:102DE80020210C4B454AC3F8242189E0AFF3008029
:102DF8002D431CEBE2360A3F900500200000F0BF8F
:102E080014167DC0F4128B924289FACD736F16BFE7
:102E1800F80500200C060020EC29010848050020D0
:102E28005C0500205B0500205A050020590500209C
:102E380058050020570500205605002049050020A8
:102E48005105002050050020630500206205002080
:102E580061050020600500205F0500205E05002058
:102E68005D0500204E0500206A0500206905002048
:102E7800680500206705002066050020650500201C
:102E8800640500204F0500204C0500204D0500205A
:102E98004B0500204A0500206B0500207405002022
:102EA80073050020720500207105002070050020C0
:102EB8006F05002076050020750500206E050020AE
:102EC8006D0500206C0500205205002077050020C4
:102ED800800500207F0500207E0500207D0500205C
:102EE8007C0500207B05002082050020810500204C
:102EF8007A05002079050020780500205305002078
:102F0800A34BA44AC3F82821A14BA24AC3F82C21F9
:102F18009F4BA14AC3F830219D4BA04AC3F83421E6
:102F28009B4B9F4AC3F83821994B9E4AC3F83C21D2
:102F3800974B9D4AC3F84021954B9C4AC3F84421BE
:102F4800934B9B4AC3F84821914B9A4AC3F84C21AA
:102F58008F4B994AC3F850218D4B984AC3F8542196
:102F68008B4B974AC3F85821894B964AC3F85C2182
:102F7800874B944AC3F86021854B924AC3F8642171
:102F8800834B914AC3F86821814B8F4AC3F86C215F
:102F98007F4B8D4AC3F870217D4B8B4AC3F874214F
:102FA8007B4B8A4AC3F87821794B884AC3F87C213D
:102FB800774B864AC3F88021754B844AC3F884212D
:102FC800734B824AC3F88821714B804AC3F88C211D
:102FD8006F4B7E4AC3F890217D4A7D4B5B6818325F
:102FE8009A607B4A7A4B5B6808325A60784A784B19
:102FF8005B682032DA60774BD3F81031764A9360F9
:10300800744BD3E914237549C1E90C23714BB3F907
:103018001C21724BA3F870206E4BB3F83A216F4B0A
:10302800A3F872206B4B93F84C216C4B83F88520E6
:10303800684BD3E91E236949C1E90E23654BD3F8D0
:103048001431664A5366634BD3F81831634A936662
:10305800604BB3F83C21614BA3F874205D4BD3E976
:1030680020235E49C1E910235A4BD3F810315B4A3B
:103078001366574B564A9B6A9364564B93F83E2106
:10308800564B83F87620534BD3F80C31534AD3640C
:10309800504B93F83F21514B83F877204D4B5A887A
:1030A8004E4BA3F86C204B4BB3F838214B4BA3F88D
:1030B8006E20484BD3F8C830474AD361474B0022AB
:1030C8005A60464B00221A704448FFF7C7FB414B31
:1030D800D3F8D430404A93613E4BB3F82A213E4B93
:1030E800DA843C4BD3F8D8303C4A9364384B384A9E
:1030F8009B6AD363374BD3F8F830384A936538491D
:103108003848FFF7C6FA324B314A9B6A1364314B91
:10311800D3F8FC30314A536533493448FFF7B9FADC
:103128002B4B2B4A9B6A53642A4BD3F800312B4A0A
:1031380013652F492F48FFF7ACFA284B00221A7461
:10314800264B00221A76254B01225A612A48FFF79E
:10315800C5FB224B01221A76204B00225A621F4BD4
:10316800002283F820202548FFF7FAFB2448FFF7C0
:10317800D0F8F8602248FFF7CCF8B8602048FFF78D
:10318800C8F87860FB6803F48063002B3AE000BF5E
:103198000C06002053050020830500208C05002024
:1031A8008B0500208A05002089050020880500205D
:1031B800870500208E0500208D050020860500204B
:1031C800850500208405002054050020EC2901080D
:1031D800900500200000002088040020D004002072
:1031E80008020020C4040020D8010020BC040020EC
:1031F800A8010020B4040020E0040020F00400200E
:103208000008024005D0154B93F843315B09DAB248
:1032180000E00022BB6803F40063002B05D00F4BCD
:1032280093F847319B09DBB200E000231344DAB27C
:103238007B6803F48053002B05D0084B93F84B317F
:10324800DB09DBB200E000231344DAB2044B83F855
:10325800852000BF1037BD4680BD00BF000000209C
:10326800D004002080B500AF304B1B78002B11D163
:103278002E4B01221A702D4B5B68012B0AD12B4B68
:103288001B7A002B06D0294BDB6800220221184646
:10329800FDF77FFF254B1B7C002B27D1234B0122F9
:1032A8001A74224B5B69012B20D1204B1B7E002B0B
:1032B8001CD01E4BDB691846FFF782F91B4BDB69F4
:1032C80000211846FEF771FA184BDB6904211846ED
:1032D800FEF73AFB154BDB6904211846FEF79CFB09
:1032E800124BDB6904211846FEF702FC0F4B93F8DA
:1032F8002030002B17D10D4B012283F820200B4BD7
:103308005B6A012B0FD1094B93F82830002B0AD0A8
:10331800064BDB6A1846FFF753F9044BDB6A0021BA
:103328001846FEF742FA00BF80BD00BFD004002057
:1033380080B500AF022208492120FEF769FE12205D
:10334800FEF78EFE022205493720FEF761FE28208F
:10335800FEF786FE00BF80BDB13D00086933000856
:103368002DE9F04FA9B006AFFEF765FEB8674FF438
:103378008050FEF7D9FE0346002B08D04FF480504A
:10338800FEF7E8FE0346002B01D0012300E00023EE
:10339800002B00F04F824FF48050FEF7F1FEC94B2E
:1033A8001B78DBB2012B40F04582C74B93F9BE3046
:1033B80087F87730002387F8873097F87730042B21
:1033C8001FD801A252F823F0E5330008ED330008B6
:1033D800F5330008FD33000805340008002387F89A
:1033E80087300EE0032387F887300AE0032387F845
:1033F800873006E0002387F8873002E0002387F84B
:10340800873097F98730B04A82F8BE30AE4B93F9CF
:10341800B63087F87630002387F8863097F876300C
:10342800042B20D801A252F823F000BF4934000829
:103438005134000859340008613400086934000820
:10344800002387F886300EE0032387F886300AE0E9
:10345800032387F8863006E0002387F8863002E0E9
:10346800002387F8863097F98630974A82F8B63075
:10347800954B93F9BC3087F87530002387F8853071
:1034880097F87530042B20D801A252F823F000BF1A
:10349800AD340008B5340008BD340008C534000850
:1034A800CD340008002387F885300EE0032387F821
:1034B80085300AE0032387F8853006E0002387F883
:1034C800853002E0002387F8853097F985307E4AF9
:1034D80082F8BC307C4B93F9B53087F87430002300
:1034E80087F8843097F87430042B20D801A252F85A
:1034F80023F000BF113500081935000821350008F0
:103508002935000831350008002387F884300EE09B
:10351800032387F884300AE0032387F8843006E021
:10352800002387F8843002E0002387F8843097F975
:103538008430654A82F8B530634B93F9B43087F824
:103548007330002387F8833097F87330042B20D822
:1035580001A252F823F000BF753500087D35000838
:10356800853500088D35000895350008002387F853
:1035780083300EE0032387F883300AE0032387F8BB
:10358800833006E0002387F8833002E0002387F8C1
:10359800833097F983304C4A82F8B4304A4B93F918
:1035A800B33087F87230002387F8823097F872308A
:1035B800042B20D801A252F823F000BFD935000807
:1035C800E1350008E9350008F1350008F93500084B
:1035D800002387F882300EE0032387F882300AE060
:1035E800032387F8823006E0002387F8823002E060
:1035F800002387F8823097F98230334A82F8B33053
:10360800314B93F9843087F87130002387F8813083
:1036180097F87130042B20D801A252F823F000BF8C
:103628003D360008453600084D3600085536000876
:103638005D360008002387F881300EE0032387F801
:1036480081300AE0032387F8813006E0002387F8F9
:10365800813002E0002387F8813097F981301A4AD7
:1036680082F88430184B1A6E184B9A60184B184A17
:103678009B6AD363154B9A68134B5A661548FEF735
:1036880048FEF8661348FEF744FEB8661148FEF790
:1036980040FE7866FB6E03F48063002B05D00E4B6A
:1036A80093F840315B09DAB200E00022BB6E03F404
:1036B8000063002B12D0084B93F844319B09DBB20E
:1036C8000DE000BFAB070020D004002088040020D4
:1036D8009005002000080240000000200023134449
:1036E800DAB27B6E03F48053002B05D0AE4B93F80F
:1036F8004831DB09DBB200E00023134487F863306C
:1037080097F86330013B052B1DD897F863309CB2BE
:10371800A64B93F8853098B2A44BB3F9701007F113
:103728003902A34B0493A34B0393A34B029307F1D2
:103738003A030193A14B009313460A4601462046DB
:10374800FEF7C4FF0DE0994BB3F9700007F1390299
:1037580007F13A019A4B00931346984AFFF756F837
:1037680000BF984B9B681A46904B9B6DD31A1A461C
:103778000023BA62FB628C4BD3F8EC3000223B6228
:103788007A62D7E90A010B463A6A02FB03F27B6ABE
:10379800C7E90A01014601FB03F31344BA6A396A0F
:1037A800A2FB01894B4499464FF000024FF00003F9
:1037B8004FEAD87242EA49024FEAD9737B4B9A66BC
:1037C80097F839309BB2794AA2F87230764BB3F841
:1037D8001E31764AA2F87430744A97F8633082F83A
:1037E8008530714BD3E902237049C1E90E236F4B31
:1037F8005B6E6E4A93656D4A042382F88430724B7F
:10380800DB6B1846FCF706FE65A3D3E90023FCF73B
:103818007BFE02460B46104619466C4BC3E9000175
:103828006A4B93ED007BB0EE470AF0EE670A022080
:10383800FEF7FEFA4FF40060FEF776FC0346002B15
:1038480008D04FF40060FEF785FC0346002B01D03A
:10385800012300E00023002B00F03B814FF40060BF
:10386800FEF78EFC5A4B1B78DBB2012B40F03181FE
:103878004E4B93F9833087F86230002387F8803005
:1038880097F86230042B20D801A252F823F000BF29
:10389800AD380008B5380008BD380008C53800083C
:1038A800CD380008002387F880300EE0032387F81E
:1038B80080300AE0032387F8803006E0002387F889
:1038C800803002E0002387F8803097F98030374A4B
:1038D80082F88330354B1B6E3A4A93603A4B3A4A2A
:1038E8009B6A1364374B9B68304A53663948FEF726
:1038F80010FDF8653748FEF70CFDB8653548FEF74A
:1039080008FD7865FB6D03F48063002B05D0264B1A
:1039180093F841315B09DAB200E00022BB6D03F491
:103928000063002B05D0204B93F845319B09DBB28F
:1039380000E000231344DAB27B6D03F48053002BBC
:1039480005D0194B93F84931DB09DBB200E00023BD
:10395800134487F8533097F85330013B052B41D86F
:1039680097F853309CB2114B93F8853098B20F4BAF
:10397800B3F9701007F13502174B0493174B0393F3
:10398800174B029307F1360301930C4B0093134630
:103998000A4601462046FEF799FE31E0AFF3008063
:1039A8002D431CEBE2360A3F00000020D004002023
:1039B8000802002084050020C404002040050020DF
:1039C80004020020880400209005002080040020C4
:1039D800AB07002000080240D8010020780500202D
:1039E800BC040020964BB3F9700007F1350207F1CB
:1039F8003601944B00931346934AFEF707FF00BF26
:103A0800924B9B681A468E4B5B6DD31A1A4600235D
:103A18003A617B618E4BD3F8F0300022BB61FA61CA
:103A2800D7E904010B46D7E90689424602FB03F2AF
:103A3800C7E906894B4680468946414601FB03F3A0
:103A480013444246B969A2FB015633441E464FF05F
:103A580000024FF00003EA0F42EA4602F30F784BE8
:103A68009A6697F835309AB2754BA3F87220784B5E
:103A7800B3F82021724BA3F87420714A97F8533099
:103A880082F88530724BD3E904236D49C1E91023CC
:103A98006B4B5B6E6A4A5365694B042283F883203B
:103AA8006C4B1B6C1846FCF7B5FC63A3D3E90023E9
:103AB800FCF72AFD02460B466749C1E90023664B1D
:103AC80093ED007BB0EE470AF0EE670A0320FEF79D
:103AD800AFF94FF48060FEF727FB0346002B08D0B0
:103AE8004FF48060FEF736FB0346002B01D001231C
:103AF80000E00023002B00F02F814FF48060FEF7D8
:103B08003FFB564B1B78DBB2012B40F025814C4B19
:103B180093F9823087F85230002387F87F3097F87E
:103B28005230042B1FD801A252F823F0493B000859
:103B3800513B0008593B0008613B0008693B0008FD
:103B4800002387F87F300EE0032387F87F300AE0F0
:103B5800032387F87F3006E0002387F87F3002E0F0
:103B6800002387F87F3097F97F20354B83F8822030
:103B7800334B1B6E354A9360364B364A9B6A536407
:103B8800324B9B682E4A53663548FEF7C2FBF864F1
:103B98003348FEF7BEFBB8643148FEF7BAFB7864D9
:103BA800FB6C03F48063002B05D0294B93F842315A
:103BB8005B09DAB200E00022BB6C03F40063002B5F
:103BC80005D0234B93F846319B09DBB200E0002374
:103BD8001344DAB27B6C03F48053002B05D01C4BE2
:103BE80093F84A31DB09DBB200E00023134487F87D
:103BF800433097F84330013B052B39D897F84330C9
:103C080098B20F4B93F8853099B20D4BB3F97020E9
:103C180007F13104134B0493134B0393134B029393
:103C280007F132030193084B00932346FEF74EFD3C
:103C38002BE000BFAFF300802D431CEBE2360A3FB8
:103C4800D0040020D4010020400500208804002072
:103C5800000000209005002080040020AB07002011
:103C680000080240A80100206C050020B4040020D0
:103C7800454BB3F9700007F1310307F13201434AAC
:103C88000092434AFEF7C2FD00BF424B9B681A46AA
:103C98003D4B1B6DD31A1A460023BA60FB603E4B9E
:103CA800D3F8F43000223B607A60D7E902452B460E
:103CB800D7E90089424602FB03F24B46214601FB45
:103CC80003F3134422464146A2FB01AB5B449B46E7
:103CD8004FF000024FF000034FEADA7242EA4B025B
:103CE8004FEADB73284B9A6697F831309AB2264B25
:103CF800A3F87220284BB3F82221234BA3F8742091
:103D0800214A97F8433082F88530234BD3E90623BC
:103D18001D49C1E90C231C4B5B6E1B4A13651A4BEA
:103D2800042283F882201D4B5B6C1846FCF772FB5B
:103D380013A3D3E90023FCF7E7FB02460B46184917
:103D4800C1E90023164B93ED007BB0EE470AF0EE75
:103D5800670A0420FEF76CF8BFF36F8F00BFBFF34C
:103D68004F8F00BFBB6FFB63FB6B83F3108800BFF3
:103D780000BF8C37BD46BDE8F08F00BFAFF30080B1
:103D88002D431CEBE2360A3FD0040020A40100209A
:103D98004005002088040020000000209005002035
:103DA8008004002000000000B0B594B000AFFEF71A
:103DB80042F9B862D048FEF7A3F90346002B07D0B2
:103DC800CE48FDF7BCF80346002B01D0012300E0E4
:103DD8000023002B00F0B385C748FEF783F9C84BD2
:103DE8001B78DBB2012B40F0AA85C64B93F98130D2
:103DF80087F82730002387F84F3097F82730042BAF
:103E08001FD801A252F823F0253E00082D3E0008D5
:103E1800353E00083D3E0008453E0008002387F86F
:103E28004F300EE0032387F84F300AE0032387F86A
:103E38004F3006E0002387F84F3002E0002387F870
:103E48004F3097F94F20AF4B83F88120AD4B93F952
:103E5800803087F82630002387F84E3097F82630D0
:103E6800042B20D801A252F823F000BF893E000895
:103E7800913E0008993E0008A13E0008A93E0008AE
:103E8800002387F84E300EE0032387F84E300AE00F
:103E9800032387F84E3006E0002387F84E3002E00F
:103EA800002387F84E3097F94E20964B83F88020F0
:103EB800944B93F99A3087F82530002387F84D30D2
:103EC80097F82530042B20D801A252F823F000BF20
:103ED800ED3E0008F53E0008FD3E0008053F0008DD
:103EE8000D3F0008002387F84D300EE0032387F8C4
:103EF8004D300AE0032387F84D3006E0002387F8A9
:103F08004D3002E0002387F84D3097F94D207D4B66
:103F180083F89A207B4B93F97F3087F8243000236D
:103F280087F84C3097F82430042B20D801A252F897
:103F380023F000BF513F0008593F0008613F0008C7
:103F4800693F0008713F0008002387F84C300EE0F5
:103F5800032387F84C300AE0032387F84C3006E047
:103F6800002387F84C3002E0002387F84C3097F99B
:103F78004C20644B83F87F20624B93F97E3087F89E
:103F88002330002387F84B3097F82330042B20D8B0
:103F980001A252F823F000BFB53F0008BD3F00085A
:103FA800C53F0008CD3F0008D53F0008002387F82B
:103FB8004B300EE0032387F84B300AE0032387F8E1
:103FC8004B3006E0002387F84B3002E0002387F8E7
:103FD8004B3097F94B204B4B83F87E20494B93F994
:103FE8007D3087F82230002387F84A3097F822304E
:103FF800042B20D801A252F823F000BF1940000872
:1040080021400008294000083140000839400008D4
:10401800002387F84A300EE0032387F84A300AE085
:10402800032387F84A3006E0002387F84A3002E085
:10403800002387F84A3097F94A20324B83F87D20CD
:10404800304B93F97C3087F82130002387F84930CA
:1040580097F82130042B20D801A252F823F000BF92
:104068007D400008854000088D4000089540000804
:104078009D400008002387F849300EE0032387F8A5
:1040880049300AE0032387F8493006E0002387F81F
:10409800493002E0002387F8493097F94920194B45
:1040A80083F87C20174B93F97B3087F82030002366
:1040B80087F8483097F82030042B28D801A252F806
:1040C80023F000BFE1400008E9400008F140000883
:1040D800F940000811410008002387F8483016E02D
:1040E800032387F8483012E0032387F848300EE0AE
:1040F800002387F848300AE00020014044030020EC
:10410800AB070020D0040020002387F8483097F937
:104118004820B94B83F87B20B74B93F97A30FB776B
:10412800002387F84730FB7F042B20D801A252F8E0
:1041380023F000BF514100085941000861410008BF
:104148006941000871410008002387F847300EE0F4
:10415800032387F847300AE0032387F8473006E04F
:10416800002387F8473002E0002387F8473097F9A3
:104178004720A14B83F87A209F4B93F97930BB777E
:10418800002387F84630BB7F042B20D801A252F8C1
:1041980023F000BFB1410008B9410008C14100083F
:1041A800C9410008D1410008002387F846300EE0D5
:1041B800032387F846300AE0032387F8463006E0F1
:1041C800002387F8463002E0002387F8463097F945
:1041D8004620894B83F87920874B93F978307B7791
:1041E800002387F845307B7F042B20D801A252F8A2
:1041F80023F000BF114200081942000821420008BC
:104208002942000831420008002387F845300EE0B3
:10421800032387F845300AE0032387F8453006E092
:10422800002387F8453002E0002387F8453097F9E6
:104238004520714B83F87820704B704A9B6A9364D1
:104248006D4BB3F87430BB856B4BB3F87430002BEF
:1042580005D06B4BB3F82821674BA3F87420684B43
:10426800B3F82E21664BB3F830319A4202D9BB8D90
:10427800FB8503E0624BB3F82E31FB85FB8D002BE9
:1042880009D05D4B93F876205E4B83F82A205A4B71
:10429800DB6C5C4AD360584B93ED0C7B564B93ED2B
:1042A800106BB0EE461AF0EE661AB0EE470AF0EE62
:1042B800670A0BF081FBB0EE406AF0EE606A4E4B85
:1042C80093ED0E7BB0EE471AF0EE671AB0EE460A91
:1042D800F0EE660A0BF070FBB0EE407AF0EE607A12
:1042E800B0EE470AF0EE670A0BF0BAFB87ED0E0B4B
:1042F80097ED0E0B00F0DEFC0346002B06D197ED80
:104308000E0B00F0B3FC0346002B06D04FF0000262
:104318004FF00003C7E90E2307E09FED351B97ED2B
:104328000E0B0BF013FB87ED0E0B4FF000024FF056
:104338000003D7E90E01FCF759FB0346002B0AD00E
:10434800BC6BFB6B83F0004520462946FCF78CFBD1
:1043580003465B4204E0D7E90E01FCF785FB034600
:10436800BB61254B93F87730002B02D1BB8D002B16
:1043780001D0012300E00023FB75FB7D002B0CD04E
:10438800BB8D002B04D01E4B5A881B4BA3F86C2006
:10439800194BB3F86C201B4B9A841A4B9A8C184B08
:1043A800B3F82C319A428CBF01230023DBB21A46A2
:1043B800114B83F87720104B93F87730002B32D0CD
:1043C8000D4B9B6EBA699A4203D80B4B9B6E3B63AD
:1043D80001E0BB693B630A4BD3F808313A6B9A4258
:1043E80012D3074BB3F83231BB8520E0AFF300801E
:1043F800000000000000F041D004002090050020DB
:104408000000002088040020B54BB3F87230002B60
:1044180004D1B44B93F82A30002B01D0012300E0DB
:104428000023BB8503E0B04BB3F83231BB85BB8DAD
:10443800002B00F09781AA4BB3F97030002B1ADDDE
:10444800A94BD3F8043107EE903AF8EE676AA44B0B
:104458009B6E07EE903AF8EE677A86EEA77AA24B43
:10446800D3ED337A67EE277AC7ED0D7A9C4B042299
:1044780083F881201BE09C4BD3F8043107EE903A77
:10448800F8EE676A964B9B6E07EE903AF8EE677AFD
:1044980086EEA77A944BD3ED337A67EE277AF1EE5E
:1044A800677AC7ED0D7A8E4B042283F880208E4BF5
:1044B800B3F82631002B00F04D818B4BD3E908016E
:1044C8004FF00002894BFCF7AFFA0346002B39D0B6
:1044D800BB6907EE903AF8EE676A814B9B6E07EE70
:1044E800903AB8EE677AC6EE877AC7ED027A97ED0A
:1044F800027ABB6907EE903AB8EE676A794BDB68D7
:1045080007EE903AF8EE676AC6EE267A37EE677AD3
:10451800754BD3ED2D7A27EE277A734BD3ED2C7A92
:1045280037EE277AD7ED027A27EE277A6E4BD3ED4E
:104538002E7A67EE277AC7ED027A694B042283F850
:104548007D2017E0BB6907EE903AF8EE676A644B86
:104558009B6E07EE903AF8EE677A86EEA77A624B82
:10456800D3ED2F7A67EE277AC7ED027A5C4B0422E7
:1045780083F87C205C4B93ED307AD7ED027AB4EE69
:10458800E77AF1EE10FA04D5574BD3F8C030BB6088
:104598000DE0554B93ED317AD7ED027AB4EEE77A18
:1045A800F1EE10FA03DD504BD3F8C430BB604C4B2E
:1045B800B3F97030012B54D0494B93F88530013B47
:1045C800052B39D801A252F823F000BF3346000862
:1045D8001746000825460008FB450008ED45000879
:1045E8000946000807F10C0341491846FEF727F968
:1045F80029E007F10C033F491846FEF720F922E0AD
:1046080007F10C033C491846FEF719F91BE007F1BE
:104618000C033A491846FEF712F914E007F10C03A7
:1046280037491846FEF70BF90DE007F10C03354939
:104638001846FEF704F906E007F10C03324918465C
:10464800FEF7FDF800BF97ED037AD7ED027A77EE13
:10465800677A244BC3ED077A214B042283F87F2025
:1046680074E01F4B93F88530013B052B5AD801A203
:1046780052F823F0DB460008BF460008CD46000884
:10468800A346000895460008B146000807F10C0348
:104698001E491846FEF7D3F84BE007F10C031C49F6
:1046A8001846FEF7CCF844E007F10C031949184600
:1046B800FEF7C5F83DE007F10C0317491846FEF769
:1046C800BEF836E007F10C0314491846FEF7B7F8B0
:1046D8002FE007F10C0312491846FEF7B0F828E05E
:1046E800D004002088040020000000200000F03FD3
:1046F800A00100209C0100209801002094010020C6
:10470800900100208C0100208801002084010020F5
:10471800800100207C010020780100207401002025
:104728007001002007F10C038F491846FEF787F83F
:1047380000BF97ED037AD7ED027A77EE277A8B4B95
:10474800C3ED077A8A4B042283F87E20884B042223
:1047580083F87B20854BDB69BB60854B042283F89B
:104768007A204EE0824B93F88530013B052B39D8EF
:1047780001A252F823F000BFDF470008C347000832
:10478800D1470008A747000899470008B54700081F
:1047980007F1080377491846FEF751F829E007F1B1
:1047A800080375491846FEF74AF822E007F108039E
:1047B80072491846FEF743F81BE007F108037049F1
:1047C8001846FEF73CF814E007F108036D4918464F
:1047D800FEF735F80DE007F108036B491846FEF7B8
:1047E8002EF806E007F1080368491846FEF727F88F
:1047F80000BF674BD3F8D0307B635D4B042283F84E
:104808007920634B93ED377AD7ED027A67EE277AF2
:10481800564BC3ED067A5E4B93ED387A5C4BD3ED7D
:10482800397AB4EEE77AF1EE10FA0EDD584BD3F888
:10483800A030BB60564B93ED297A554BD3ED287ABF
:1048480077EE677AC7ED037A07E0514BD3F8A830C3
:10485800BB604F4BD3F8AC30FB6097ED027AD7EDD5
:104868000D7A27EE277A424BD3ED126AD7ED037AF9
:1048780066EEA77A77EE277A3D4BC3ED127A3C4B6A
:10488800B3F86E20394BDA84384BDA8C404BB3F8E6
:1048980036311344BB85364BDB683A46022118464D
:1048A800FCF719FCFB8D002B0FD0314BB3F872309D
:1048B800002B14BF01230023DBB21A462C4B83F8CC
:1048C80076202B4B9B6E2A4AD364FB7D002B09D0A4
:1048D800264B9A8C2E4BB3F83431D31A9AB2244B08
:1048E800A3F86C202A4B1B88BA8D9A4206D9284B0C
:1048F800B3F824211E4BA3F86E2003E01C4ABB8D9D
:10490800A2F86E301A4B042283F87820214B9B6C56
:104918001846FBF77FFD12A3D3E90023FBF7F4FD4C
:1049280002460B461C49C1E900231B4B93ED007B53
:10493800B0EE470AF0EE670A0520FDF779FABFF3F3
:104948006F8F00BFBFF34F8F00BFBB6A3B613B69EE
:1049580083F3108800BF00BF5037BD46B0BD00BF0D
:104968002D431CEBE2360A3F6C010020880400202E
:10497800D0040020680100206401002060010020AC
:104988005C01002058010020540100205001002043
:1049980000000020900500208004002080B500AFB2
:1049A8001220FDF77BFB2820FDF778FB00BF80BDB8
:1049B80080B584B000AF4FF000024FF00003C7E9A4
:1049C8000223414B1B785A1CD1B23F4A1170002B6D
:1049D80009D03E4B01221A603B4B1B78013BDAB2EF
:1049E800394B1A7066E03B1D1846FDF7F7FD62B6B5
:1049F80000BF374B1B68D3E90823C7E90223FDF73B
:104A0800E5FF97ED020B0020FDF712FA72B600BF22
:104A18002D4B1B78013BDAB22B4B1A707B79002B9C
:104A280011D02C4B5B785A1CD1B22A4A5170002BFA
:104A380009D0264B01221A60264B5B78013BDAB27B
:104A4800244B5A7036E0234B5B78002B32D01E4B38
:104A58005B78002B2DD11C4B5B780133DAB21A4BF3
:104A68005A7062B600BF1A4B1B689B6B1846FBF75F
:104A7800D1FC13A3D3E90023FBF746FD02460B46FE
:104A8800C7E90223FEF718F897ED020B0120FDF79E
:104A9800CFF900BF72B600BF0E4B5B78013BDAB2AC
:104AA8000C4B5A70084B5B78013BDAB2064B5A70D4
:104AB80000E000BF1037BD4680BD00BFAFF30080E7
:104AC8009A9999999999B93FA4070020A0070020BD
:104AD800E8290108A807002080B586B000AF7860F3
:104AE80039605C4B7B615C4B3B610023FB735B4B28
:104AF80000221A705A4B00221A7001DF09F05AFE80
:104B080008F038FB06F0B6F908F060FE08F032FE4F
:104B180008F0AEFD08F07EFB08F0ACFC08F076FD6E
:104B2800504B1B6800221A6000210020FDF776F820
:104B38000346FB7397F90F30002B02D097F90F301B
:104B480084E0FEF7F5FBFEF727F872B600BF62B601
:104B580000BF444B1B685A68424B1B6858331946C0
:104B68001046FDF76BF80346FB7397F90F30002BDF
:104B78000DD14FF0FF30FDF7F5F8FDF707FA0346C2
:104B8800002B04D0374B1B68012283F8602072B6D3
:104B980000BF97ED050A06F061FAFDF703FA034630
:104BA800002B0CD1FDF7F2F90346002B07D12D4B52
:104BB8001B6893F86030002B01D1012300E000232B
:104BC800DAB2274B1A7062B600BF62B600BF2FE098
:104BD800FDF7ACF90346FB73FDF7E4F90346002B38
:104BE8000AD1FDF7D3F90346002B05D11D4B1B68ED
:104BF80093F86030002B01D0012300E00023DAB2E3
:104C0800164B1A70154B1B78DBB2002B0CBF012317
:104C18000023DBB21A46124B1A70104B1B78DBB21A
:104C2800002B05D0104B1B680F4A23F001031360BB
:104C38000B4B1B78DBB2002BCAD1FEF713FBFDF739
:104C480085F9FFF7ABFE72B600BF00231846183788
:104C5800BD4680BD17B751380000A842AA070020FA
:104C6800AB070020E829010810E000E080B582B019
:104C780000AF87ED000B0D4BD3E90023D7E9000106
:104C8800FBF7AAFE0346002B09D1094BD3E9002301
:104C9800D7E90001FBF7A0FE0346002B01D0012352
:104CA80000E0002318460837BD4680BD38020020C2
:104CB8004002002080B582B000AF87ED000BD7E935
:104CC8000023D7E90001FBF7B9FE0346002B01D00A
:104CD800012300E0002318460837BD4680BD0FB405
:104CE80080B400AF00BFBD465DF8047B04B07047D8
:104CF80080B485B000AFF860B9607A60FB68BA68C4
:104D08001A60FB6804337A681A6000BF1437BD461E
:104D18005DF8047B70470000F0B58BB000AF87EDFD
:104D2800020B0346FB80FB88002B77D14FF0000273
:104D3800414BD7E90201FBF7E7FB02460B46C7E9FF
:104D480006239FED391B97ED060B0AF0FFFD53EC88
:104D5800102B10461946FBF787FE03467B6100239C
:104D68007B6233A3D3E90023D7E90601FBF75CFE96
:104D78000346002B0ED02EA3D3E90023D7E9060162
:104D8800FBF7ECFC02460B4610461946FBF76CFE97
:104D980003467B627A6A79692848FFF7A9FF284B9E
:104DA800D3E900014FF00002264BFBF715FE03463E
:104DB800002B2ED1224BD3E900014FF000024FF017
:104DC8004043FBF709FE0346002B22D11C4BD3E9D5
:104DD8000001D7E90223FBF7DFF902460B46144628
:104DE8001D464FF00002184BD7E90201FBF78CFB78
:104DF80002460B4601210E4620462946FBF7F6FDE2
:104E08000346002B01D100231E46F3B21A460F4B6E
:104E18001A700F49D7E90223C1E9002300BF2C37D4
:104E2800BD46F0BDAFF30080000000000000F04177
:104E38000000E0FFFFFFEF4100408F40D007002057
:104E4800480200200000F0BF0000B03CC40700206A
:104E5800D807002080B584B000AF0023BB600023D2
:104E68007B600023FB731F494FF000024FF00003E3
:104E7800C1E900233A1D07F108031146184605F059
:104E8800B3FFBB687A681146184604F0D3F80346A6
:104E9800FB7397F90F30002B05D01348FFF71FFF5E
:104EA80097F90F301AE03A1D07F108031146184622
:104EB80005F0B1FFBB687A681146184600F054FF48
:104EC8000346FB7397F90F30002B05D097F90F3085
:104ED80019460648FFF703FF97F90F3018461037B1
:104EE800BD4680BDC80700201C0401084404010811
:104EF80080B584B000AF0346FB710023FB73002329
:104F0800BB73002005F09EFF00237B7304F060FA5A
:104F18000346FB7397F90F30002B0DD097F90F302C
:104F280013F1020F08D097F90F3019463C48FFF7E4
:104F3800D6FE0123BB730BE07B7B002B04D197F9D2
:104F48000F3013F1020F01D0012300E000237B731F
:104F5800BB7B002B21D100F039FF0346FB7397F987
:104F68000F30002B0DD097F90F3013F1020F08D036
:104F780097F90F3019462B48FFF7B1FE0123BB7391
:104F88000BE07B7B002B04D197F90F3013F1020F54
:104F980001D0012300E000237B73BB7B002B21D1D0
:104FA80004F0A0F90346FB7397F90F30002B0DD0DE
:104FB80097F90F3013F1020F08D097F90F301946FF
:104FC8001948FFF78CFE0123BB730BE07B7B002B9A
:104FD80004D197F90F3013F1020F01D0012300E03B
:104FE80000237B73FB79002B0DD0002005F02AFFEE
:104FF800BB7B002B02D17B7B002B01D1012300E07E
:105008000023BB7301E00123BB73BB7B002B3FF480
:105018007BAF97F90F3018461037BD4680BD00BFEB
:105028006C040108A4040108D404010880B582B006
:1050380000AF0023BB70394B1B78DBB2002B02D0CA
:10504800002000F0E1FF00F0B3FF0346FB700023EF
:105058007B600EE00A2005F0F5FE7B6803F51C5323
:1050680010337B600120FFF743FF00F0A1FF0346E8
:10507800FB707B682A4A934202D8FB78002BE9D15F
:1050880000F0A2FF0346BB7097F90230002B05D051
:1050980097F9023019462348FFF721FE04F012FB66
:1050A8000346BB7097F90230002B05D097F9023000
:1050B80019461D48FFF713FE1C4B00221A701C4BA3
:1050C80000221A701B4B00221A601B4B00221A6028
:1050D8001A4B00221A601A4B00221A60194B002240
:1050E8001A6019494FF000024FF04043C1E900230C
:1050F8000A4B00221A700822002114480AF0DEFF29
:1051080013494FF000024FF00003C1E9002397F95B
:10511800023018460837BD4680BD00BFC4070020CE
:10512800FF2C31010C05010828050108AC070020F7
:10513800AD070020B0070020B4070020B807002002
:10514800BC070020C007002048020020D00700202C
:10515800D807002080B586B000AF614B1B687B6123
:105168007B69002B00F0B8805E4B1B78DBB2002B0C
:1051780004D15B4B1B68002B00F0AE805A4B1B78A8
:10518800DBB2022B40F0A880584B1B78002B40F074
:10519800A3807B69D3E90023C7E90223544B1B781A
:1051A800002B00F08A80534B1B78DBB2002B04D015
:1051B800504B1B78DBB2022B01D1012300E0002306
:1051C800FB714C4B1B78DBB2012B04D0494B1B788D
:1051D800DBB2022B01D1012300E00023BB71FB7974
:1051E800002B33D0444BD3E90023D7E90201FBF766
:1051F80011FC0346002B0AD0404BD3E900013E4B7B
:10520800D3E90023FBF7F2FB0346002B14D13A4BFA
:10521800D3E90023D7E90201FBF706FC0346002B7C
:1052280014D0364BD3E90001334BD3E90023FBF705
:10523800D3FB0346002B09D0314B1B68002B02D14E
:10524800304B01221A70294B01221A70BB79002BAE
:1052580033D0294BD3E90023D7E90201FBF7C6FB7A
:105268000346002B0AD0254BD3E90001224BD3E992
:105278000023FBF7CFFB0346002B14D11E4BD3E9C9
:105288000023D7E90201FBF7A7FB0346002B14D044
:105298001A4BD3E90001184BD3E90023FBF7C4FBF1
:1052A8000346002B09D0164B1B68002B02D1154B67
:1052B80001221A700D4B01221A700C4B1B78002B1F
:1052C8000CBF01230023DBB21A46094B1A700B49A5
:1052D800D7E90223C1E9002300BF1837BD4680BDC6
:1052E800E4070020E8070020040800201308002035
:1052F8001008002000080020F007002008080020FF
:10530800FC0700201208002080B582B000AF0023FF
:10531800FB719E4B1B78DBB2002B18D19C4B0022F3
:105328001A709C4B00221A709B4B1B78DBB2002B27
:105338002DD0964B02221A70974B00221A70974B69
:105348001B78DBB2002B22D10123FB711FE0924BAB
:1053580000221A708E4B1B78DBB2002B09D0904BC1
:1053680000221A70894B00221A70894B00221A7089
:105378000DE08A4B1B78DBB2002B02D10123FB71B5
:1053880005E0844B1B78FB71824B00221A707F4B1F
:105398001B78DBB2042B00F2D78001A252F823F06D
:1053A800BD530008F7540008D7530008AB54000851
:1053B80035540008784B1B78DBB2002B00F0D880FE
:1053C800724B02221A70744B00221A70D0E0FB79DB
:1053D800002B00F0CF80734B1B68002B0DDD6F4B4B
:1053E8001B78DBB2012B08D16E4B1B681A466E4B3B
:1053F8001A60664B03221A70BCE06C4B1B68002BCA
:105408000AD0674B01221A70684B1B68664A136002
:105418005E4B04221A70ADE06548FFF760FC604BF4
:1054280000221A70594B00221A70A3E05E4B1B68C9
:10543800002B04D05C4B1B68013B5B4A13605A4B42
:105448001B68002B40F098805A4B1B78DBB2012B6D
:1054580006D1534B00221A704C4B00221A708BE075
:10546800554B1B68002B0AD04D4B00221A70524B2B
:105478001B684D4A1360454B01221A707CE0FB798A
:10548800002B07D0494B1B68474A13603F4B042247
:105498001A7071E0424B00221A703C4B02221A70BB
:1054A8006AE0414B1B68002B04D03F4B1B68013B53
:1054B8003D4A13603C4B1B68002B5FD13B4B1B687C
:1054C800002B0AD0364B01221A70384B1B68364A1B
:1054D80013602E4B04221A7050E03548FFF7FFFB8B
:1054E8002F4B00221A70294B00221A7046E02E4BCF
:1054F8001B68002B04D02C4B1B68013B2A4A136005
:10550800294B1B68002B3BD1FB79002B18D0274B6C
:105518001B68002B0AD0224B01221A70234B1B68F0
:10552800214A1360194B04221A7029E02048FFF71A
:10553800D6FB1B4B00221A70144B00221A701FE076
:10554800124B02221A701BE0104B1B78DBB2194673
:105558001A48FFF7C4FB124B00221A700D4B0022A9
:105568001A700B4B00221A70084B00221A7008E0C0
:1055780000BF06E000BF04E000BF02E000BF00E09B
:1055880000BF00BF0837BD4680BD00BF040800202B
:1055980001080020130800205402002002080020FF
:1055A80012080020FC0700201408002050020020E8
:1055B8004C05010803080020F807002074050108BD
:1055C80080B400AF10494FF000024FF00003C1E96A
:1055D80000230E4B00221A700D4B1B78DAB20D4BCC
:1055E8001A700D4B00221A700C4B00221A700C4BCB
:1055F80000221A600B4B00221A7000231846BD4681
:105608005DF8047B704700BF0808002010080020E0
:1056180002080020110800201208002013080020AA
:10562800140800200408002080B584B000AF0346A9
:10563800FB80FB88002B3FD1314B1B78DAB2314B12
:105648001B789A4214BF01230023DBB2FB732C4B57
:105658001B78DAB22B4B1A70FB7B002B0BD02A4B32
:1056680000221A70294B00221A70294B00221A6056
:10567800284B00221A70224B1B78DBB2012B1BD15E
:10568800244B1B78DBB2002B04D1234B1B78DBB2F5
:10569800002B08D11F4B1B78DBB2012B0CD11C4B04
:1056A8001B68012B08D11A4B00221A601A4B0022E2
:1056B8001A70184B02221A70114B1B78DBB2012B9F
:1056C80007D1164B1B889BB2FA889A4201D1FFF783
:1056D80041FDFB88002B05D1FFF716FE104B002279
:1056E8001A7006E00E4B1B78002B02D00D4B1B786E
:1056F80001E0054B1B7818461037BD4680BD00BF3A
:1057080002080020110800201208002013080020B9
:10571800140800200408002054020020E00700209C
:10572800190800201808002080B400AF26494FF05F
:1057380000024FF00003C1E90023244B00221A7035
:10574800234B00221A70234B00221A70224B00228E
:105758001A80224B00221A70214B00221A70214B0A
:1057680000221A60204B00221A70204B00221A7067
:105778001F4B00221A601F4B00221A701E494FF05F
:1057880000024FF00003C1E900231C4B4FF47A726A
:105798001A601B4B00221A601A4B00221A601A4B1F
:1057A80000221A70194B01221A70194B00221A7024
:1057B800184B00221A70184B00221A700023184642
:1057C800BD465DF8047B70470808002010080020DB
:1057D8000408002011080020E0070020120800201B
:1057E80013080020140800201808002019080020B9
:1057F800E4070020E8070020F007002050020020FE
:10580800F8070020FC0700200008002054020020B0
:1058180001080020020800200308002080B400AF1F
:10582800194B1B78DBB2002B29D1184B1B78DBB244
:10583800002B0BD0164B1B78DBB2002B06D1154B77
:1058480001221A70144B01221A7018E0104B1B78B1
:10585800DBB21A460D4B1B78DBB2002B0CBF0123C1
:105868000023DBB21340002B06D00A4B00221A702B
:10587800094B01221A7002E0074B00221A7000BF80
:10588800BD465DF8047B70470208002054020020E2
:1058980001080020180800201908002080B586B0EB
:1058A80000AFF860B9607A603B600023FB7503F0D5
:1058B800FDFE3861FB681B68184604F00DF90021ED
:1058C800386803F06BFE0246BB681A6003F056FEA8
:1058D80002467B681A60BB681B68002B0FD0BB6848
:1058E8001B681946386904F0FDFB0246FB681A601C
:1058F800FB681B68002B04D1F623FB7501E0F82335
:10590800FB7597F9173018461837BD4680BD00005B
:1059180080B584B000AFF860B9607A60FA68BB6897
:1059280013441B7819460848FFF7D9F9FB68002B80
:1059380002D0F86804F0D0F87B6800221A600023CF
:1059480018461037BD4680BD9805010880B584B05B
:1059580000AFF860B9607A60FA68BB6813441B78D6
:1059680019460648FFF7BBF97B6802221A604FF018
:10597800FF3318461037BD4680BD00BFF405010847
:1059880080B485B000AF03460A46FB711346BB716D
:105998000523FB73FB79F02B02D90023FB7322E06C
:1059A800FB79E32B05D9FB79F02B02D80123FB7394
:1059B80019E0FB79D22B02D9FB79E22B08D9FB79C4
:1059C800C02B08D1BB79002B05D0BB79022B02D89C
:1059D8000223FB7307E0FB79C72B04D9FB79D22B91
:1059E80001D80323FB73FB7B18461437BD465DF8CB
:1059F800047B704780B58CB000AFF860B9607A60FE
:105A08003B60FB68BB62BB6A1B7887F827300023C2
:105A180087F82F3097F82730C02B06D1BB68012BA9
:105A280003D9BB6A5B7887F82F30364B1B78002B7D
:105A38003ED097F82F2097F8273011461846FFF7E1
:105A48009FFF0346FB76002387F82E30FB7E052B4D
:105A580023D0FB7E2C4A52F823307B6100233B6124
:105A68007B69002B19D097F827207B691046984747
:105A780038613B69002B14BF01230023DBB287F890
:105A88002E3097F82E30002B07D03B695A687B6878
:105A98001A603B699A683B681A6097F82E30002BA9
:105AA8002CD17B68194A1A603B68194A1A6025E0AC
:105AB80097F82730FF2B1BD1134B1B683B627B6881
:105AC80000221A603B6800221A603B6A002B15D03E
