:020000040800F2
:1000000000800120BDF500082FD6000835D6000875
:100010003BD6000841D6000847D600080000000083
:1000200000000000000000000000000019AE000801
:100030004DD6000800000000D5AD0008FDAC00085A
:100040000DF600080DF600080DF600080DF6000884
:100050000DF600080DF600080DF600080DF6000874
:100060000DF600080DF600080DF600080DF6000864
:100070000DF600080DF600080DF600080DF6000854
:1000800085BB00080DF60008693C00080000000070
:100090000000000000000000000000000DF6000855
:1000A0000DF600080DF600080DF600080DF6000824
:1000B0000DF600080DF600080DF600080DF6000814
:1000C0000DF600080DF600080DF600080DF6000804
:1000D0000DF600080DF6000871BB000800000000D6
:1000E000413300080DF600080DF60008000000007E
:1000F0000000000000000000000000000DF60008F5
:10010000000000000DF600085DD600080DF600089E
:1001100000000000000000000000000000000000DF
:1001200071D600080DF600080DF600080DF600085F
:100130000DF60008000000000000000000000000B4
:100140000000000000000000000000000DF60008A4
:100150000DF600080DF600080DF600080DF6000873
:100160000DF600080DF60008000000000000000079
:10017000000000000000000000000000000000007F
:10018000000000000DF60008000000000000000064
:040190000DF6000860
:1001980081F0004102E000BF83F0004330B54FEA30
:1001A80041044FEA430594EA050F08BF90EA020F9D
:1001B8001FBF54EA000C55EA020C7FEA645C7FEA30
:1001C800655C00F0E2804FEA5454D4EB5555B8BF53
:1001D8006D420CDD2C4480EA020281EA030382EAC4
:1001E800000083EA010180EA020281EA0303362D56
:1001F80088BF30BD11F0004F4FEA01314FF4801C29
:100208004CEA113102D0404261EB410113F0004F3A
:100218004FEA03334CEA133302D0524263EB4303F1
:1002280094EA050F00F0A780A4F10104D5F1200E8F
:100238000DDB02FA0EFC22FA05F2801841F10001EA
:1002480003FA0EF2801843FA05F359410EE0A5F1BE
:1002580020050EF1200E012A03FA0EFC28BF4CF0EF
:10026800020C43FA05F3C01851EBE37101F00045A5
:1002780007D54FF0000EDCF1000C7EEB00006EEBB2
:100288000101B1F5801F1BD3B1F5001F0CD349083C
:100298005FEA30004FEA3C0C04F101044FEA445293
:1002A80012F5800F80F09A80BCF1004F08BF5FEA1A
:1002B800500C50F1000041EB045141EA050130BDFA
:1002C8005FEA4C0C404141EB0101013C28BFB1F50C
:1002D800801FE9D291F0000F04BF01460020B1FA57
:1002E80081F308BF2033A3F10B03B3F120020CDA2A
:1002F8000C3208DD02F1140CC2F10C0201FA0CF008
:1003080021FA02F10CE002F11402D8BFC2F1200C6C
:1003180001FA02F120FA0CFCDCBF41EA0C01904022
:10032800E41AA2BF01EB0451294330BD6FEA04046B
:100338001F3C1CDA0C340EDC04F11404C4F1200256
:1003480020FA04F001FA02F340EA030021FA04F368
:1003580045EA030130BDC4F10C04C4F1200220FABF
:1003680002F001FA04F340EA0300294630BD21FAFD
:1003780004F0294630BD94F0000F83F4801306BFC3
:1003880081F480110134013D4EE77FEA645C18BFB7
:100398007FEA655C29D094EA050F08BF90EA020F4E
:1003A80005D054EA000C04BF1946104630BD91EA46
:1003B800030F1EBF0021002030BD5FEA545C05D149
:1003C8004000494128BF41F0004130BD14F5800488
:1003D8003CBF01F5801130BD01F0004545F0FE41FC
:1003E80041F470014FF0000030BD7FEA645C1ABF31
:1003F800194610467FEA655C1CBF0B46024650EA68
:10040800013406BF52EA033591EA030F41F4002193
:1004180030BD00BF90F0000F04BF0021704730B519
:100428004FF4806404F132044FF000054FF00001EE
:1004380050E700BF90F0000F04BF0021704730B5AF
:100448004FF4806404F1320410F0004548BF404284
:100458004FF000013EE700BF42004FEAE2014FEAD9
:1004680031014FEA02701FBF12F07F4393F07F4FB4
:1004780081F06051704732F07F4208BF704793F0B7
:100488007F4F04BF41F40021704730B54FF46074CA
:1004980001F0004521F000411CE700BF50EA0102CD
:1004A80008BF704730B54FF000050AE050EA010276
:1004B80008BF704730B511F0004502D5404261EBE6
:1004C80041014FF4806404F132045FEA915C3FF427
:1004D800D8AE4FF003025FEADC0C18BF03325FEAC4
:1004E800DC0C18BF033202EBDC02C2F1200300FA75
:1004F80003FC20FA02F001FA03FE40EA0E0021FA9A
:1005080002F11444BDE600BF70B54FF0FF0C4CF487
:10051800E06C1CEA11541DBF1CEA135594EA0C0F39
:1005280095EA0C0F00F0DEF82C4481EA030621EA74
:100538004C5123EA4C5350EA013518BF52EA0335AF
:1005480041F4801143F4801338D0A0FB02CE4FF061
:100558000005E1FB02E506F00042E0FB03E54FF091
:100568000006E1FB03569CF0000F18BF4EF0010E89
:10057800A4F1FF04B6F5007F64F5407404D25FEA85
:100588004E0E6D4146EB060642EAC62141EA555138
:100598004FEAC52040EA5E504FEACE2EB4F1FD0C7A
:1005A80088BFBCF5E06F1ED8BEF1004F08BF5FEAF8
:1005B800500E50F1000041EB045170BD06F00046AA
:1005C80046EA010140EA020081EA0301B4EB5C0457
:1005D800C2BFD4EB0C0541EA045170BD41F480114F
:1005E8004FF0000E013C00F3AB8014F1360FDEBF74
:1005F800002001F0004170BDC4F10004203C35DA50
:100608000C341BDC04F11404C4F1200500FA05F3D2
:1006180020FA04F001FA05F240EA020001F0004273
:1006280021F0004110EBD37021FA04F642EB0601E9
:100638005EEA430E08BF20EAD37070BDC4F10C0413
:10064800C4F1200500FA04F320FA05F001FA04F2D7
:1006580040EA020001F0004110EBD37041F10001C3
:100668005EEA430E08BF20EAD37070BDC4F12005CE
:1006780000FA05F24EEA020E20FA04F301FA05F236
:1006880043EA020321FA04F001F0004121FA04F2DE
:1006980020EA020000EBD3705EEA430E08BF20EAAE
:1006A800D37070BD94F0000F0FD101F000464000E8
:1006B80041EB010111F4801F08BF013CF7D041EA6A
:1006C800060195F0000F18BF704703F0004652006E
:1006D80043EB030313F4801F08BF013DF7D043EA3F
:1006E8000603704794EA0C0F0CEA135518BF95EAF5
:1006F8000C0F0CD050EA410618BF52EA4306D1D17C
:1007080081EA030101F000414FF0000070BD50EA9A
:10071800410606BF1046194652EA430619D094EA24
:100728000C0F02D150EA013613D195EA0C0F05D10E
:1007380052EA03361CBF104619460AD181EA030162
:1007480001F0004141F0FE4141F470014FF000001A
:1007580070BD41F0FE4141F4780170BD70B54FF0B5
:10076800FF0C4CF4E06C1CEA11541DBF1CEA135535
:1007780094EA0C0F95EA0C0F00F0A7F8A4EB050417
:1007880081EA030E52EA03354FEA013100F088800E
:100798004FEA03334FF0805545EA131343EA1263D7
:1007A8004FEA022245EA111545EA10654FEA00268C
:1007B8000EF000419D4208BF964244F1FD0404F545
:1007C800407402D25B084FEA3202B61A65EB0305A1
:1007D8005B084FEA32024FF480104FF4002CB6EB5E
:1007E800020E75EB030E22BFB61A754640EA0C00DE
:1007F8005B084FEA3202B6EB020E75EB030E22BF1E
:10080800B61A754640EA5C005B084FEA3202B6EB5E
:10081800020E75EB030E22BFB61A754640EA9C001D
:100828005B084FEA3202B6EB020E75EB030E22BFED
:10083800B61A754640EADC0055EA060E18D04FEAAB
:10084800051545EA16754FEA06164FEAC30343EA4B
:1008580052734FEAC2025FEA1C1CC0D111F4801F18
:100868000BD141EA00014FF000004FF0004CB6E711
:1008780011F4801F04BF01430020B4F1FD0C88BFB0
:10088800BCF5E06F3FF6AFAEB5EB030C04BFB6EBBB
:10089800020C5FEA500C50F1000041EB045170BDAE
:1008A8000EF0004E4EEA113114EB5C04C2BFD4EBDB
:1008B8000C0541EA045170BD41F480114FF0000E5F
:1008C800013C90E645EA060E8DE60CEA135594EADB
:1008D8000C0F08BF95EA0C0F3FF43BAF94EA0C0FDE
:1008E8000AD150EA01347FF434AF95EA0C0F7FF453
:1008F80025AF104619462CE795EA0C0F06D152EAA7
:1009080003353FF4FDAE1046194622E750EA41068A
:1009180018BF52EA43067FF4C5AE50EA41047FF49B
:100928000DAF52EA43057FF4EBAE12E74FF0FF3C00
:1009380006E000BF4FF0010C02E000BF4FF0010CD1
:100948004DF804CD4FEA410C7FEA6C5C4FEA430C4A
:1009580018BF7FEA6C5C1BD001B050EA410C0CBF99
:1009680052EA430C91EA030F02BF90EA020F0020FB
:10097800704710F1000F91EA030F58BF994208BF62
:1009880090422CBFD8176FEAE37040F0010070471F
:100998004FEA410C7FEA6C5C02D150EA013C07D176
:1009A8004FEA430C7FEA6C5CD6D152EA033CD3D0C1
:1009B8005DF8040B704700BF8446104662468C46BB
:1009C8001946634600E000BF01B5FFF7B7FF0028EE
:1009D80048BF10F1000F01BD4DF808EDFFF7F4FF17
:1009E8000CBF012000205DF808FB00BF4DF808EDA2
:1009F800FFF7EAFF34BF012000205DF808FB00BFC5
:100A08004DF808EDFFF7E0FF94BF012000205DF8E6
:100A180008FB00BF4DF808EDFFF7CEFF94BF01209B
:100A280000205DF808FB00BF4DF808EDFFF7C4FF94
:100A380034BF012000205DF808FB00BF4FEA410CDD
:100A48007FEA6C5C02D150EA013C0AD14FEA430CC0
:100A58007FEA6C5C02D152EA033C02D14FF00000FD
:100A680070474FF0010070474A0011D212F500128A
:100A780011D20DD56FF47873B3EB62520ED44FEAEE
:100A8800C12343F0004343EA505323FA02F070476E
:100A98004FF00000704750EA013002D14FF0FF30AC
:100AA80070474FF0000070474FEA4102B2F1E0434F
:100AB80024BFB3F5001CDCF1FE5C0DD901F0004C3D
:100AC8004FEAC0024CEA5070B2F1004F40EB83008D
:100AD80008BF20F00100704711F0804F21D113F1B9
:100AE8003872BCBF01F00040704741F480114FEAF2
:100AF8005252C2F11802C2F1200C10FA0CF320FA7B
:100B080002F018BF40F001004FEAC1234FEAD32397
:100B180003FA0CFC40EA0C0023FA02F34FEA430301
:100B2800CCE77FEA625307D150EA01331EBF4FF08A
:100B3800FE4040F44000704701F0004040F0FE40A5
:100B480040F40000704700BF53B94AB9002908BFF4
:100B580000281CBF4FF0FF314FF0FF3000F00CB8F9
:100B6800ADF1080C6DE904CE0EF0C2FEDDF804E02C
:100B7800DDE9022304B07047704700BF0348044B07
:100B8800834202D0034B03B118477047B8020020D4
:100B9800B8020020000000000548064B1B1AD90FB8
:100BA80001EBA301491002D0034B03B1184770476A
:100BB800B8020020B80200200000000010B5064C62
:100BC800237843B9FFF7DAFF044B13B10448AFF3B6
:100BD80000800123237010BDB8020020000000002F
:100BE80040FC000808B5054B1BB105490548AFF3A3
:100BF8000080BDE80840FFF7CFBF00BF000000003D
:100C0800BC02002040FC000880B483B000AF7860CC
:100C180039607B68DB6A23F470023B681A437B689F
:100C2800DA6200BF0C37BD465DF8047B704780B4BC
:100C380083B000AF786039607B689B6823F44072AA
:100C48003B681A437B689A6000BF0C37BD465DF865
:100C5800047B704780B483B000AF78607B689B6882
:100C680003F44013002B0CBF01230023DBB218460A
:100C78000C37BD465DF8047B704780B483B000AF85
:100C880078607B689B6843F001027B689A6000BFCC
:100C98000C37BD465DF8047B704780B483B000AF65
:100CA80078607B689B6823F001027B689A6000BFCC
:100CB8000C37BD465DF8047B704780B483B000AF45
:100CC80078607B689B6803F00103012B0CBF01234C
:100CD8000023DBB218460C37BD465DF8047B70472D
:100CE80080B483B000AF78607B689B6843F480026F
:100CF8007B689A6000BF0C37BD465DF8047B70477F
:100D080080B483B000AF78607B681B6803F004038D
:100D1800042B0CBF01230023DBB218460C37BD4659
:100D28005DF8047B704780B483B000AF78607B685F
:100D38006FF004021A6000BF0C37BD465DF8047BF3
:100D4800704780B483B000AF78607B685B6843F01D
:100D580020027B685A6000BF0C37BD465DF8047BF3
:100D6800704780B483B000AF78607B685B6843F0FD
:100D780080027B685A6000BF0C37BD465DF8047B73
:100D8800704780B483B000AF78607B685B6823F0FD
:100D980020027B685A6000BF0C37BD465DF8047BB3
:100DA800704780B483B000AF78607B685B6823F0DD
:100DB80080627B685A6000BF0C37BD465DF8047BD3
:100DC800704780B483B000AF78607B685B6823F0BD
:100DD80080027B685A6000BF0C37BD465DF8047B13
:100DE800704780B483B000AF78607B685B6823F09D
:100DF80040027B685A6000BF0C37BD465DF8047B33
:100E0800704780B483B000AF78607B685B6803F09C
:100E18008063B3F1806F0CBF01230023DBB2184657
:100E28000C37BD465DF8047B704780B483B000AFD3
:100E380078607B685B6803F04003402B0CBF01239C
:100E48000023DBB218460C37BD465DF8047B7047BB
:100E580080B584B000AF78600123FB817B681B6993
:100E68001846FFF7F7FE0346002B24D07B689B7AD1
:100E7800DBB2022B0CD07B689B7ADBB2082B07D045
:100E88007B681B691846FFF73BFF0346012B12D10D
:100E98007B689B7ADBB2082B03D17B6801229A72AC
:100EA80002E07B6820229A727B681B691846FFF76C
:100EB80017FF0023FB81FB8918461037BD4680BD0C
:100EC80080B487B000AFF8600B467A607B81FB681E
:100ED8003C333B6100237B610DE07B699B003A69F1
:100EE800134419687B695B007A6813448AB21A80D4
:100EF8007B6901337B617B897A699A42EDDB00BFAC
:100F080000BF1C37BD465DF8047B704780B485B0D0
:100F180000AFF860B9607A603B6000BF1437BD4627
:100F28005DF8047B704780B485B000AFF860B960A5
:100F38007A6000BF1437BD465DF8047B704780B502
:100F480084B000AF78607B681B691846FFF7D8FE4D
:100F58000346FB73FB7B012B07D17B681B69184693
:100F6800FFF7E1FE7B6802229A72FB7B1846103776
:100F7800BD4680BD80B483B000AF78600B46FB707F
:100F880000BF0C37BD465DF8047B704790B589B04B
:100F980002AFF860084611461A4603467B810B46A5
:100FA8003B811346FB8000237B61FB681B693D4A3C
:100FB800934201D13C4B7B617B69002B6CD0FB6871
:100FC8001A697B691A617B690022DA71FB88012B37
:100FD80062D03B89002B48D07B695B7ADBB2082B57
:100FE80043D0FB68DA687B69DA60FB681A687B695A
:100FF8001A60FB685A697B695A61FB689A797B6950
:101008009A71FB681A797B691A717B691B69B96ADD
:101018001846FFF7F9FD7B89012B22D07B89042B29
:1010280017D17B691B694FF440711846FFF7FFFD24
:101038007B6918697B6959697B699B791C467B695F
:10104800DA687B691B68009313462246FFF75EFF48
:1010580007E07B89022B04D17B691B691846FFF7DF
:1010680070FE7B6908225A7216E03B89002B13D167
:101078007B699B7ADBB2082B0ED0FB685A797B69B7
:101088005A717B89022B04D17B691B691846FFF7CB
:1010980068FE7B6908229A727B6918461C37BD4630
:1010A80090BD00BF00200140D402002080B582B06E
:1010B80000AF78607B681B691846FFF7FEFD0346A2
:1010C800002B04D17B681B691846FFF7D6FD00BFCB
:1010D8000837BD4680BD80B586B000AFF8600B46C6
:1010E8007A607B810123FB82FB681B69002B4BD054
:1010F8007B89012B05D1F868FFF7AAFE0346FB821E
:1011080042E07B89042B24D1FB681B691846FFF752
:10111800A1FD0346002B37D0FB6801229A72FB68B9
:101128001B691846FFF7DCFD00BFFB689B7ADBB242
:10113800022BFAD1FB681869FB685B799BB27A6865
:101148001946FFF7BDFEFB6808229A720023FB824E
:101158001AE07B89022B17D1FB689B7ADBB2202B24
:1011680004D0FB689B7ADBB2022B0DD1FB68082206
:101178009A72FB681869FB685B799BB27A681946B2
:10118800FFF79EFE0023FB82FB8A18461837BD46F0
:1011980080BD80B582B000AF78600B467B80134677
:1011A8003B807B681B691846FFF787FD0346002BC9
:1011B80004D07B681B691846FFF76FFD7B681B69C5
:1011C8001846FFF732FE0346002B04D07B681B69E4
:1011D8001846FFF706FE7B681B691846FFF711FEE5
:1011E8000346002B04D07B681B691846FFF7D9FD1E
:1011F8003B88002B35D07B88012B1AD07B88022BAB
:1012080005D17B681B691846FFF7BBFD11E07B8899
:10121800042B0ED17B6818697B6859697B689B79B8
:101228001A46FFF780FE7B681B6900211846FFF706
:10123800FEFC7B680022DA607B6800221A607B680B
:1012480000225A617B6800229A717B6800221A7119
:101258007B681A697B681B7919461046FFF7D4FC2E
:101268000AE07B6800225A717B88022B04D17B68D4
:101278001B691846FFF7A5FD00BF0837BD4680BDAE
:1012880080B485B000AF78607B681B6803F06003AA
:10129800FB60FB68002B04D17B681B6803F010031C
:1012A800FB60FB6818461437BD465DF8047B704741
:1012B80080B483B000AF78607B685B6A18460C37EF
:1012C800BD465DF8047B704780B483B000AF78609A
:1012D8007B681B6B18460C37BD465DF8047B70476E
:1012E80080B483B000AF786039607B681A6A3B6865
:1012F8001A437B681A6200BF0C37BD465DF8047B51
:10130800704780B483B000AF786039607B681A6A30
:101318003B68DB431A407B681A6200BF0C37BD4646
:101328005DF8047B704780B483B000AF78607B6859
:101338005B6C43F400427B685A6400BF0C37BD46BF
:101348005DF8047B704780B483B000AF78607B6839
:10135800DB6843F001027B68DA6000BF0C37BD46EA
:101368005DF8047B704780B483B000AF78607B6819
:10137800DB6823F001027B68DA6000BF0C37BD46EA
:101388005DF8047B704780B483B000AF78607B68F9
:10139800DB6803F00103012B01D1012300E00023E6
:1013A80018460C37BD465DF8047B704780B483B09F
:1013B80000AF78607B68DB6843F002027B68DA6024
:1013C80000BF0C37BD465DF8047B704780B483B01E
:1013D80000AF78607B68DB6823F002027B68DA6024
:1013E80000BF0C37BD465DF8047B704780B483B0FE
:1013F80000AF78607B68DB6803F00203022B01D141
:10140800012300E0002318460C37BD465DF8047B35
:10141800704780B483B000AF78607B68DB6843F0C6
:1014280004027B68DA6000BF0C37BD465DF8047BB8
:10143800704780B483B000AF78607B68DB6823F0C6
:1014480004027B68DA6000BF0C37BD465DF8047B98
:10145800704780B483B000AF78607B68DB6803F0C6
:101468000403042B01D1012300E0002318460C37A4
:10147800BD465DF8047B704780B483B000AF7860E8
:101488007B68DB6843F008027B68DA6000BF0C37D2
:10149800BD465DF8047B704780B483B000AF7860C8
:1014A8007B68DB6823F008027B68DA6000BF0C37D2
:1014B800BD465DF8047B704780B483B000AF7860A8
:1014C8007B68DB6803F00803082B01D1012300E0E7
:1014D800002318460C37BD465DF8047B704780B47E
:1014E80083B000AF78607B68DB6843F010027B68EC
:1014F800DA6000BF0C37BD465DF8047B704780B4E6
:1015080083B000AF78607B68DB6823F010027B68EB
:10151800DA6000BF0C37BD465DF8047B704780B4C5
:1015280083B000AF78607B68DB6803F01003102B92
:1015380001D1012300E0002318460C37BD465DF8B1
:10154800047B704780B483B000AF78607B68DB6849
:1015580043F020027B68DA6000BF0C37BD465DF8B7
:10156800047B704780B483B000AF78607B68DB6829
:1015780023F020027B68DA6000BF0C37BD465DF8B7
:10158800047B704780B483B000AF78607B68DB6809
:1015980003F02003202B01D1012300E0002318468B
:1015A8000C37BD465DF8047B704780B483B000AF4C
:1015B80078607B68DB6843F040027B68DA6000BFD4
:1015C8000C37BD465DF8047B704780B483B000AF2C
:1015D80078607B68DB6823F040027B68DA6000BFD4
:1015E8000C37BD465DF8047B704780B483B000AF0C
:1015F80078607B68DB6803F04003402B01D101234E
:1016080000E0002318460C37BD465DF8047B7047A0
:1016180080B483B000AF78607B68DB6843F08002F9
:101628007B68DA6000BF0C37BD465DF8047B704705
:1016380080B483B000AF78607B68DB6823F08002F9
:101648007B68DA6000BF0C37BD465DF8047B7047E5
:1016580080B483B000AF78607B68DB6803F08003F8
:10166800802B01D1012300E0002318460C37BD462A
:101678005DF8047B704780B582B000AF78600B4698
:101688007B807B8803F00103002B0CD07B681B68F0
:101698001846FFF7AAFF0346012B04D07B681B6896
:1016A8001846FFF782FF7B8803F00203002B0CD05B
:1016B8007B681B681846FFF799FE0346012B04D088
:1016C8007B681B681846FFF771FE7B8803F00403EC
:1016D800002B0CD07B681B681846FFF7BAFE034640
:1016E800012B04D07B681B681846FFF792FE7B88A5
:1016F80003F00803002B0CD07B681B681846FFF723
:10170800DBFE0346012B04D07B681B681846FFF7F5
:10171800B3FE7B8803F01003002B0CD07B681B689A
:101728001846FFF7FCFE0346012B04D07B681B68B4
:101738001846FFF7D4FE7B8803F02003002B0CD05B
:101748007B681B681846FFF71EFE0346012B04D072
:101758007B681B681846FFF7F6FD7B8803F040039B
:10176800002B0CD07B681B681846FFF771FF0346F7
:10177800012B04D07B681B681846FFF749FF7B885C
:1017880003F08003002B0CD07B681B681846FFF71A
:10179800F9FE0346012B04D07B681B681846FFF747
:1017A800D1FE00BF0837BD4680BD80B582B000AF0E
:1017B80078600B467B807B8803F00103002B0CD0FC
:1017C8007B681B681846FFF710FF0346012B04D1FE
:1017D8007B681B681846FFF7F8FE7B8803F0020356
:1017E800002B0CD07B681B681846FFF7FFFD0346EB
:1017F800012B04D17B681B681846FFF7E7FD7B883F
:1018080003F00403002B0CD07B681B681846FFF715
:1018180020FE0346012B04D17B681B681846FFF79E
:1018280008FE7B8803F00803002B0CD07B681B683C
:101838001846FFF741FE0346012B04D17B681B685D
:101848001846FFF729FE7B8803F01003002B0CD005
:101858007B681B681846FFF762FE0346012B04D11C
:101868007B681B681846FFF74AFE7B8803F0200355
:10187800002B0CD07B681B681846FFF784FD0346D5
:10188800012B04D07B681B681846FFF76CFD7B882A
:1018980003F04003002B0CD07B681B681846FFF749
:1018A800D7FE0346012B04D17B681B681846FFF757
:1018B800BFFE7B8803F08003002B0CD07B681B687D
:1018C8001846FFF75FFE0346012B04D17B681B68AF
:1018D8001846FFF747FE00BF0837BD4680BD000029
:1018E80080B582B000AF78600B46FB70FB78022BA6
:1018F80006D17B681B6801211846FFF7F1FC1DE043
:101908007B681B680F4A934218D1FB78032B06D1DA
:101918007B681B6804211846FFF7E2FC0EE0FB78A1
:10192800042B0BD17B681B6801211846FFF7D8FCF4
:101938007B681B6804211846FFF7D2FC00BF0837F4
:10194800BD4680BD0000014080B582B000AF786020
:101958000B46FB70FB78022B06D17B681B680121C4
:101968001846FFF7CEFC1DE07B681B680F4A9342C0
:1019780018D1FB78032B06D17B681B680421184615
:10198800FFF7BFFC0EE0FB78042B0BD17B681B68CC
:1019980001211846FFF7B5FC7B681B68042118462F
:1019A800FFF7AFFC00BF0837BD4680BD000001400F
:1019B80080B582B000AF78600B46FB70FB78022BD5
:1019C80006D17B681B6810211846FFF789FC1DE0CB
:1019D8007B681B680F4A934218D1FB78032B06D10A
:1019E8007B681B6840211846FFF77AFC0EE0FB78FD
:1019F800042B0BD17B681B6810211846FFF770FC7D
:101A08007B681B6840211846FFF76AFC00BF08374F
:101A1800BD4680BD0000014080B582B000AF78604F
:101A28000B46FB70FB78022B06D17B681B681021E4
:101A38001846FFF766FC1DE07B681B680F4A934257
:101A480018D1FB78032B06D17B681B684021184608
:101A5800FFF757FC0EE0FB78042B0BD17B681B6863
:101A680010211846FFF74DFC7B681B68402118467B
:101A7800FFF747FC00BF0837BD4680BD00000140A6
:101A880080B582B000AF78600B46FB70FB78022B04
:101A980007D17B681B684FF480711846FFF720FC5C
:101AA80020E07B681B68114A93421BD1FB78032B0B
:101AB80007D17B681B684FF480611846FFF710FC5C
:101AC80010E0FB78042B0DD17B681B684FF4807104
:101AD8001846FFF705FC7B681B684FF480611846C1
:101AE800FFF7FEFB00BF0837BD4680BD0000014080
:101AF80080B582B000AF78600B46FB70FB78022B94
:101B080007D17B681B684FF480711846FFF7F9FB13
:101B180020E07B681B68114A93421BD1FB78032B9A
:101B280007D17B681B684FF480611846FFF7E9FB13
:101B380010E0FB78042B0DD17B681B684FF4807193
:101B48001846FFF7DEFB7B681B684FF48061184678
:101B5800FFF7D7FB00BF0837BD4680BD0000014036
:101B680080B584B000AF78600023FB607B681B6899
:101B7800204A934202D1204BFB6006E07B681B6839
:101B8800B3F1804F01D11D4BFB607B681A68FB687D
:101B98001A60FB681B681846FFF772FBB860BB68E1
:101BA800002B06D0BB68102B03D0FB6801221A71EA
:101BB80002E0FB6800221A71FB681B680D4A934219
:101BC80004D1FB681B681846FFF7ADFBFB681B6870
:101BD800084A934208D17B681B681846FFF774FBD4
:101BE8000346DAB2FB685A71FB6818461037BD46DF
:101BF80080BD00BF00000140F00200207C030020EF
:101C080080B582B000AF78607B681B681846FFF724
:101C18004FFB034618460837BD4680BD80B485B0E3
:101C280000AF786039600023FB7397F90F301846CE
:101C38001437BD465DF8047B7047000080B584B05A
:101C480000AF786039600023FB727B68002B05D1F8
:101C5800374802F09FFE4FF0FF3365E03B68002BEA
:101C680005D1344802F096FE4FF0FF335CE0324B6A
:101C7800D3E900014FF000024FF04043FEF7ACFEFD
:101C88000346002B06D03B68D3E900232A49C1E963
:101C9800002305E0284BD3E900233968C1E9002374
:101CA800254BD3E900014FF00002244BFEF794FEC8
:101CB8000346002B02D0224802F06CFE7B685B686A
:101CC8001B68204A13607B685B685B681E4A136068
:101CD8007B685B689B681D4A13607B685B68DB6890
:101CE8001B4A13601B4B00221A6003F0C5FA00233D
:101CF800FB600023FB6007E0174AFB68174942F8BE
:101D08002310FB680133FB60FB68012BF4D902F058
:101D1800FDFE0346FB7297F90B30002B02D1104BE6
:101D280001221A7097F90B3018461037BD4680BD4E
:101D380058FC00087CFC0008D80100200000F0BF17
:101D4800A8FC0008200700202407002028070020FE
:101D58002C0700203007002008040020E952000862
:101D68001E07002080B586B000AF78600023FB75A1
:101D780000233B610023FB732A4B1B78DBB2002B4B
:101D88000CBF01230023DBB2BB73274B02221A705E
:101D98007B68002B0BD1234B1B78DBB2002B06D1C1
:101DA800224B1B78DBB2002B01D1012300E000237A
:101DB800FB7316E00A2008F0A1FE3B6903F51C53EB
:101DC80010333B617B68B3F1FF3F05D03A697B680C
:101DD8009A4201D9012300E00023FB73002002F09E
:101DE800E3FE104B1B78DBB2002B07D10F4B1B789F
:101DF800DBB2002B02D1FB7B002BDBD00A4B03228A
:101E08001A70FB7B002B01D09C23FB75BB7B002B3E
:101E180001D003F05FFB97F9173018461837BD4615
:101E280080BD00BF1C0700201E0700201D070020E2
:101E380080B586B000AF034687ED000BFB81002319
:101E4800FB750123BB754FF000024FF00003D7E983
:101E58000001FEF7CBFD0346002B05D02E4802F00B
:101E680099FD4FF0FF3353E0FB89FF2B08D9FB891D
:101E7800FF221946294802F08DFD4FF0FF3347E055
:101E8800274B1B78DBB2032B04D0254B1B78DBB226
:101E9800012B02D1224B04221A70FB89012B15D881
:101EA800FB89204A52F82330002B0FD003F0DCFEC8
:101EB80003467B757B7D022B08D1FB89194A52F8B2
:101EC8002330FA89104698470346BB75FB897B8205
:101ED800FB89184697ED000B02F07AFDBB7D002BBD
:101EE80006D07B8A184603F097FE0346FB7503E08D
:101EF8007B8A184603F0F3FE97F91730002B05D0BC
:101F080097F917301946084802F044FD97F9173039
:101F180018461837BD4680BD14FD000858FD000856
:101F28001E0700200804002098FD000880B582B034
:101F380000AF0023FB71002002F036FE0346FB7160
:101F480097F9073018460837BD4680BD80B582B07E
:101F580000AF0023FB710B4B06221A7002F0C2FE81
:101F68000346FB710822002107480DF025FE03F007
:101F780037FA044B00221A7097F9073018460837C9
:101F8800BD4680BD1E0700200804002080B400AFB5
:101F9800034B1B78DBB21846BD465DF8047B7047DF
:101FA8001D07002080B400AF034B1B78DBB2184636
:101FB800BD465DF8047B70473407002080B483B0C9
:101FC80000AF03463960FB7197F90730002B0ADB35
:101FD8003B68DAB20C4997F907301201D2B20B44C8
:101FE80083F800230AE03B68DAB20849FB7903F07A
:101FF8000F03043B1201D2B20B441A7600BF0C3710
:10200800BD465DF8047B704700E100E000ED00E0AC
:1020180080B584B000AFF860B9607A60FB68DBB265
:102028000F3BDBB25BB279681846FFF7C7FF00BF0A
:102038001037BD4680BD80B485B000AFEFF3108384
:102048007B607B68FB600123BB60BB6883F31088FF
:1020580000BFFB6818461437BD465DF8047B70471F
:1020680080B483B000AF0346FB7197F90730002BAB
:102078000BDBFB7903F01F02074997F907305B096F
:10208800012000FA02F241F8232000BF0C37BD46B8
:102098005DF8047B704700BF00E100E080B483B0C6
:1020A80000AF0346FB7197F90730002B12DBFB7971
:1020B80003F01F020A4997F907305B09012000FA6B
:1020C80002F2203341F82320BFF34F8F00BFBFF344
:1020D8006F8F00BF00BF0C37BD465DF8047B7047AB
:1020E80000E100E080B483B000AF78607B686FF0F7
:1020F80004021A6000BF0C37BD465DF8047B7047C8
:1021080080B483B000AF78607B685B6803F08003BD
:10211800802B0CBF01230023DBB218460C37BD46C9
:102128005DF8047B7047000080B483B000AF78602E
:10213800074B1A687B6813407A689A420CBF0123E0
:102148000023DBB218460C37BD465DF8047B7047A8
:10215800003C014080B483B000AF7860074B5A69F7
:102168007B6813407A689A420CBF01230023DBB2D4
:1021780018460C37BD465DF8047B7047003C0140AB
:1021880080B483B000AF7860044A7B68536100BFB5
:102198000C37BD465DF8047B704700BF003C01402A
:1021A80080B483B000AF78607B681B6843F001029D
:1021B8007B681A6000BF0C37BD465DF8047B70472A
:1021C80080B483B000AF78607B681B6823F001029D
:1021D8007B681A6000BF0C37BD465DF8047B70470A
:1021E80080B483B000AF786039607B681B6823F0E7
:1021F80004023B681A437B681A6000BF0C37BD466F
:102208005DF8047B704780B483B000AF78607B686A
:102218001B6803F0040318460C37BD465DF8047BC1
:10222800704780B483B000AF78607B68DB6A18467B
:102238000C37BD465DF8047B704780B483B000AFAF
:10224800786039607B683A681A6300BF0C37BD460E
:102258005DF8047B704780B483B000AF7860396064
:102268007B683A685A6300BF0C37BD465DF8047B4B
:10227800704780B483B000AF786039607B683A6893
:102288009A6300BF0C37BD465DF8047B704780B485
:1022980083B000AF786039607B683A68DA6300BF62
:1022A8000C37BD465DF8047B704780B483B000AF3F
:1022B80078607B685B6B18460C37BD465DF8047B1D
:1022C800704780B483B000AF78607B689B6B18461A
:1022D8000C37BD465DF8047B704780B483B000AF0F
:1022E80078607B68DB6B18460C37BD465DF8047B6D
:1022F800704780B483B000AF78607B685B6943F057
:1023080001027B685A6100BF0C37BD465DF8047B4B
:10231800704780B483B000AF78607B681B6918464B
:102328000C37BD465DF8047B704780B483B000AFBE
:10233800786039607B683A689A6100BF0C37BD469F
:102348005DF8047B704780B483B000AF7860396073
:102358003B681A047B689A6100BF0C37BD465DF87C
:10236800047B704780B584B000AF786087ED000AC1
:10237800D7ED007AF5EEC07AF1EE10FA03D54FF0FA
:1023880000033B600AE0D7ED007A9FED167AF4EE81
:10239800C77AF1EE10FA01DD134B3B607B681B68CE
:1023A8001846FFF73EFFF8607B681B79002B0CBFCF
:1023B80001230023DBB21A46FB68134407EE903A68
:1023C800B8EE677AD7ED007A27EE277ADFED056A4F
:1023D800C7EE267AFCEEE77A17EE903A18461037E1
:1023E800BD4680BD0000C8420000C84280B582B02A
:1023F80000AF786039607B681B681846FFF755FFA7
:1024080002463B68934205D07B681B6839681846CA
:10241800FFF721FF00BF0837BD4680BD80B582B0F9
:1024280000AF786039607B681B681846FFF749FF82
:1024380002463B68934205D07B681B68396818469A
:10244800FFF717FF00BF0837BD4680BD80B582B0D3
:1024580000AF786039607B681B681846FFF73DFF5E
:1024680002463B68934205D07B681B68396818466A
:10247800FFF70DFF00BF0837BD4680BD80B584B0AB
:1024880000AF786087ED000A97ED000A7868FFF7DB
:1024980069FFF860F9687868FFF7A8FF00BF103790
:1024A800BD4680BD80B584B000AF786087ED000A76
:1024B80097ED000A7868FFF755FFF860F9687868C3
:1024C800FFF7ACFF00BF1037BD4680BD80B584B0B4
:1024D80000AF786087ED000A97ED000A7868FFF78B
:1024E80041FFF860F9687868FFF7B0FF00BF103760
:1024F800BD4680BD80B485B000AF78607B681B683E
:102508009B6803F00703FB60FB68062B0CBF0123E5
:102518000023DBB218461437BD465DF8047B7047CC
:1025280080B584B000AF78600B46FB707B681B6891
:102538001846FFF768FEF860FB78002B0AD07B6826
:102548001B681E4A934205D17B681B680021184608
:10255800FFF773FEFB68042B11D07B681B6804210E
:102568001846FFF73DFE7B681B681846FFF7C1FE5B
:102578007B681B68F9681846FFF732FE04E07B6841
:102588001B681846FFF7B5FE7B681B681846FFF7FF
:1025980007FEFB78002B0CD07B681B68074A934228
:1025A80007D17B681A687B685B7919461046FFF784
:1025B80044FE00BF1037BD4680BD00BF000001408B
:1025C80080B582B000AF78607B681B681846FFF75B
:1025D800F7FD00BF0837BD4680BD000080B483B05A
:1025E80000AF7860084BB3F85230002B0CBF0123C2
:1025F8000023DAB27B6801331A7000BF0C37BD467E
:102608005DF8047B704700BF0805002080B400AF68
:102618000A4BB3F85220013292B2A3F85220074B6A
:10262800B3F85230B3F5FA6F03D3044B0022A3F882
:10263800522000BFBD465DF8047B704708050020A6
:1026480080B485B000AFF860B9607A607B68B3F990
:102658000020FB681A807B685A88BB681A8000BF14
:102668001437BD465DF8047B704780B485B000AF71
:10267800F860B9607A607B681A88FB681A807B68A2
:102688005A88BB681A8000BF1437BD465DF8047BC2
:10269800704780B483B000AF786039603B689A882F
:1026A8007B681A803B68DA887B685A803B68B3F994
:1026B80000207B68DA803B681A897B689A8000BFB3
:1026C8000C37BD465DF8047B7047000080B584B0C8
:1026D80000AF7B600346FB810B46BB8113467B81C1
:1026E800FB89013B052B45D801A252F823F000BF16
:1026F8006B270008472700085927000823270008E8
:102708001127000835270008386A3B6A991CBB6AFC
:1027180020331A46FFF7A9FF30E0386A3B6A991C54
:10272800BB6A1C331A46FFF7A0FF27E0386A3B6AEA
:10273800991CBB6A18331A46FFF797FF1EE0386AE0
:102748003B6A991CBB6A14331A46FFF78EFF15E0E3
:10275800386A3B6A991CBB6A10331A46FFF785FF33
:102768000CE0386A3B6A991CBB6A0C331A46FFF7BF
:102778007CFF03E07B6A04225A7000BF3B6A1B8817
:10278800BA899A4209D13B6A981D3B6A191DBB6AEE
:1027980028331A46FFF754FF15E03B6A5B88BA896D
:1027A8009A4209D13B6A981D3B6A191DBB6A2433BA
:1027B8001A46FFF745FF06E0BB6A5A883B6A9A80CB
:1027C8007B6A04229A703B6A9A88FB691A803B6A82
:1027D800B3F90620BB691A803B6A9B88002B04D09A
:1027E800BB6A9A7A7B681A700CE03B6AB3F90630C8
:1027F800B7F90A209A420CBF01230023DBB21A461C
:102808007B681A7000BF1037BD4680BD80B485B0A4
:1028180000AFB9607A603B600346FB81BB691A88E8
:10282800BB681A807B68FA891A80BB699A783B680A
:102838001A7000BF1437BD465DF8047B704780B43A
:1028480083B000AF786039603B681A687B681A60AB
:1028580000BF0C37BD465DF8047B704780B58CB06F
:1028680002AF78607B6800221A727B6801225A6086
:102878000023BB6100233B74174BFB6100233B62C1
:102888000023BB74002387F82430012387F8253000
:102898000323FB6003237B7407F10C004FF4001340
:1028A8000093022300220221FEF770FB02467B6898
:1028B800DA607B68DB681846FEF7F8FB7B68DB6844
:1028C80000211846FEF756FB7B6801221A7200BFEA
:1028D8002837BD4680BD00BF0020014080B5A6B0A6
:1028E80000AF78601D4BBB6000233B7300237B73F4
:1028F80007F108031846FFF733F902467B68DA60E8
:102908007B68DB6800211846FEF7B5FE7B68DB684C
:1029180004211846FEF7E4FF7B68DB6804211846AB
:10292800FFF746F87B68DB6804211846FFF7A8F82C
:102938007B68DB681846FFF7DDFD034687F89730AC
:1029480097F89730002B05D17B68DB680121184682
:10295800FFF7E6FD00BF9837BD4680BD0000014087
:1029680080B5A6B000AF78607B6801225A604FF04E
:102978008043BB6000233B7300237B7307F108038C
:102988001846FFF7EDF802467B68DA607B68DB687B
:1029980000211846FEF76FFE7B68DB681846FFF7D4
:1029A800A9FD034687F8973097F89730002B05D193
:1029B8007B68DB6800211846FFF7B2FD7B680122BF
:1029C8001A7200BF9837BD4680BD000090B583B02D
:1029D80000AFFFF71BFE2C4BDB682B4A93602A4B9A
:1029E8005A8B294B9A82294BDC69294BD3E90C2352
:1029F80010461946FEF758F8034600EE103A2046EE
:102A0800FFF73CFD214BDC69214BD3E90C23104631
:102A18001946FEF749F8034600EE103A2046FFF73C
:102A280041FD1A4BDC691A4BD3E90C2310461946B1
:102A3800FEF73AF8034600EE103A2046FFF746FD47
:102A4800124BB3F86220104BDA82104BDB6A18463F
:102A5800FFF7D6F878600D4A7B6853640D4B9A6A85
:102A680001329A629B6A1846FDF7D4FC094BD3E9F8
:102A78000C23084CFDF748FD02460B46C4E9082321
:102A880000BF0C37BD4690BD18040020500400203C
:102A98000000002008050020B0B586B000AF314B1B
:102AA8001B6C1846FDF7C6FC2F4BD3E91223FDF724
:102AB8009DFF0346002B07D02A4B1B6C002B03DB22
:102AC800294BD3E90E2303E04FF000024FF0000337
:102AD800C7E90223234B1B6C1846FDF7ABFC0446E1
:102AE8000D46214BD3E910014FF000021F4BFDF7B3
:102AF80053FB02460B4620462946FDF78BFF03464B
:102B0800002B03D0174B00221A6404E0154B1B6CF2
:102B18000133144A1364164B7B604FF000024FF0E8
:102B28000003D7E90201FDF757FF0346002B02D146
:102B380020237B6101E000237B617B69194678686B
:102B4800FFF7F3FB7B69DB4303F020031946786842
:102B5800FFF7F9FB074B9A6B01329A6300BF1837EE
:102B6800BD46B0BD50040020000000200000F03F2A
:102B7800000002400805002080B584B000AF9649E7
:102B88004FF00002954BC1E91623934990A3D3E96E
:102B98000023C1E90C23904B914A9A608E4B914ACD
:102BA800DA608D4B904A1A618B4B904A5A618A4B76
:102BB8008F4A5A608E4B8F4A1A608E4B8E4A1A6023
:102BC8008C4B8E4A5A608B4B8C4A9A60894B8B4A45
:102BD800DA60884B8A4A1A61864B8A4A5A61854B61
:102BE800894A9A61834B894ADA61824B884A1A6218
:102BF800804B884A5A627F4B874A9A627D4B874A44
:102C0800DA627C4B864A1A637A4B864A5A63794B56
:102C1800854A9A63774B854ADA63764B844A1A6405
:102C2800744B844A5A64734B834A9A64714B834A3F
:102C3800DA64704B824A1A656E4B824A5A656D4B4C
:102C4800814A9A656B4B814ADA656A4B804A1A66F3
:102C5800684B804A5A66674B7F4A9A66654B7F4A3B
:102C6800DA66644B7E4A1A67624B7E4A5A67614B42
:102C78007D4A9A675F4B7D4ADA675E4B7C4AC3F8A8
:102C880080205C4B7B4AC3F884205A4B5B4AC3F8CC
:102C98008820584B594AC3F88C20564B574AC3F8DA
:102CA8009020544B554AC3F89420524B724AC3F8AB
:102CB8009820504B714AC3F89C204E4B704AC3F879
:102CC800A0204C4B6F4AC3F8A4204A4B6E4AC3F865
:102CD800A820484B6D4AC3F8AC20464B6C4AC3F851
:102CE800B020444B6B4AC3F8B420424B6A4AC3F83D
:102CF800B820404B694AC3F8BC203E4B684AC3F829
:102D0800C0203C4B674AC3F8C4203A4B654AC3F815
:102D1800C820384B634AC3F8CC20364B624AC3F804
:102D2800D020344B604AC3F8D420324B5E4AC3F8F3
:102D3800D820304B5C4AC3F8DC202E4B5B4AC3F8E2
:102D4800E0202C4B5A4AC3F8E4202A4B594AC3F8CE
:102D5800E820284B584AC3F8EC20264B574AC3F8BA
:102D6800F020244B564AC3F8F420224B554AC3F8A6
:102D7800F820204B544AC3F8FC201E4B534AC3F892
:102D880000211C4B524AC3F804211A4B514AC3F87C
:102D98000821184B504AC3F80C21164B4E4AC3F869
:102DA8001021144B4C4AC3F81421124B4B4AC3F858
:102DB8001821104B494AC3F81C210E4B474AC3F847
:102DC80020210C4B454AC3F8242189E0AFF3008049
:102DD8002D431CEBE2360A3F080500200000F0BF37
:102DE8008D970B748AB7262EAAF58E04628D4F4FE5
:102DF8007005002084050020E4240108BB0400209D
:102E0800CF040020CE040020CD040020CC040020F4
:102E1800CB040020CA040020C9040020BC04002000
:102E2800C4040020C3040020D6040020D5040020D8
:102E3800D4040020D3040020D2040020D1040020B0
:102E4800D0040020C1040020DD040020DC040020A0
:102E5800DB040020DA040020D9040020D804002074
:102E6800D7040020C2040020BF040020C0040020B2
:102E7800BE040020BD040020DE040020E70400207A
:102E8800E6040020E5040020E4040020E304002018
:102E9800E2040020E9040020E8040020E104002006
:102EA800E0040020DF040020C5040020EA0400201C
:102EB800F3040020F2040020F1040020F0040020B4
:102EC800EF040020EE040020F5040020F4040020A4
:102ED800ED040020EC040020EB040020C6040020D0
:102EE800A54BA64AC3F82821A34BA54AC3F82C2111
:102EF800A14BA44AC3F830219F4BA34AC3F83421FD
:102F08009D4BA24AC3F838219B4BA14AC3F83C21E8
:102F1800994BA04AC3F84021974B9F4AC3F84421D4
:102F2800954B9E4AC3F84821934B9D4AC3F84C21C0
:102F3800914B9C4AC3F850218F4B9B4AC3F85421AC
:102F48008D4B994AC3F858218B4B974AC3F85C219B
:102F5800894B964AC3F86021874B944AC3F8642189
:102F6800854B924AC3F86821834B904AC3F86C2179
:102F7800814B8F4AC3F870217F4B8D4AC3F8742167
:102F88007D4B8B4AC3F878217B4B894AC3F87C2157
:102F9800794B874AC3F88021774B854AC3F8842147
:102FA800754B834AC3F88821824A824B5B68183282
:102FB8009A60804A7F4B5B6808325A607D4A7D4B35
:102FC8005B682032DA607C4BD3F8A8307B4A136008
:102FD800794BB3F8DE207A4BA3F86220764B93F84E
:102FE800F320774B83F87820734BD3F8AC30744ACE
:102FF8009364714BD3F8B030714AD3646E4BB3F914
:10300800C0206F4BA3F860206B4BD3F8B4306C4AE8
:103018001365694BB3F8E020694BA3F86420664B4D
:10302800D3F8B830664A5365634BD3F8BC30644A6A
:103038009365614BD3F8A830614A53645D4B5D4A90
:103048009B6A93645C4B93F8E2205D4B83F869209C
:10305800594BD3F8A4305A4A1363574B93F8E320DB
:10306800574B83F86A20544B5A88554BA3F85C2079
:10307800514BB3F8DC20524BA3F85E204E4B1B6F2C
:103088004E4A13614E4B00225A604D4B00221A7073
:103098004B48FFF7E3FB484BDB6F484AD360464B8E
:1030A800B3F8CE20454B5A83424B424A9B6AD363BE
:1030B800414B93F8F020424B83F868203E4BD3F8FD
:1030C80088303F4AD3633F493F48FFF7E2FA394B1C
:1030D800384A9B6A1364384B93F8F120384B83F8CD
:1030E8006720354BD3F89030354A936337493848D1
:1030F800FFF7CFFA2F4B2F4A9B6A53642E4B93F856
:10310800F2202F4B83F866202B4BD3F898302C4AAB
:10311800536330493048FFF7BCFA294B00221A7430
:10312800274B00221A76264B01225A612B48FFF7BB
:10313800D5FB234B01221A76214B00225A62204BE1
:10314800002283F820202648FFF70AFC2548FFF7CD
:10315800E0F8F8602348FFF7DCF8B8602148FFF78B
:10316800D8F87860FB6803F48063002B3ED0124BDC
:1031780093F8E7305B0937E084050020F604002067
:10318800FF040020FE040020FD040020FC040020B1
:10319800FB040020FA04002001050020000500209F
:1031A800F9040020F8040020F7040020C7040020D8
:1031B800E42401080805002000000020180400206D
:1031C80050040020AC010020460400207C010020AF
:1031D8003E0400204C01002036040020600400203A
:1031E8007004002000080240DAB200E00022BB6848
:1031F80003F40063002B05D00E4B93F8EB309B09CA
:10320800DBB200E000231344DAB27B6803F4805396
:10321800002B05D0074B93F8EF30DB09DBB200E059
:1032280000231344DAB2044B83F8782000BF103728
:10323800BD4680BD000000205004002080B500AFCE
:10324800304B1B78002B11D12E4B01221A702D4BBD
:103258005B68012B0AD12B4B1B7A002B06D0294B1C
:10326800DB68002202211846FDF793FF254B1B7CE3
:10327800002B27D1234B01221A74224B5B69012BA7
:1032880020D1204B1B7E002B1CD01E4BDB6918461F
:10329800FFF796F91B4BDB6900211846FEF785FA04
:1032A800184BDB6904211846FEF74EFB154BDB690A
:1032B80004211846FEF7B0FB124BDB6904211846BF
:1032C800FEF716FC0F4B93F82030002B17D10D4B4F
:1032D800012283F820200B4B5B6A012B0FD1094B8D
:1032E80093F82830002B0AD0064BDB6A1846FFF704
:1032F80067F9044BDB6A00211846FEF756FA00BF4F
:1033080080BD00BF5004002080B500AF02220849EC
:103318002120FEF77DFE1220FEF7A2FE02220549BB
:103328003720FEF775FE2820FEF79AFE00BF80BD05
:10333800693C00084133000890B59DB006AFFEF720
:103348007AFEB8644FF48050FEF7EEFE0346002B79
:1033580008D04FF48050FEF7FDFE0346002B01D045
:10336800012300E00023002B00F026824FF4805058
:10337800FEF706FFC94B1B78DBB2012B40F01C821D
:10338800C74B93F9B13087F84730002387F8573097
:1033980097F84730042B20D801A252F823F000BF39
:1033A800BD330008C5330008CD330008D533000805
:1033B800DD330008002387F857300EE0032387F831
:1033C80057300AE0032387F8573006E0002387F8D0
:1033D800573002E0002387F8573097F95720B04B51
:1033E80083F8B120AE4B93F9A93087F84630002313
:1033F80087F8563097F84630042B20D801A252F8A7
:1034080023F000BF213400082934000831340008B3
:103418003934000841340008002387F856300EE09C
:10342800032387F856300AE0032387F8563006E06E
:10343800002387F8563002E0002387F8563097F9C2
:103448005620974B83F8A920954B93F9AF3087F80E
:103458004530002387F8553097F84530042B20D89D
:1034680001A252F823F000BF853400088D3400080B
:10347800953400089D340008A5340008002387F817
:1034880055300EE0032387F855300AE0032387F808
:10349800553006E0002387F8553002E0002387F80E
:1034A800553097F955207E4B83F8AF207C4B93F924
:1034B800A83087F84430002387F8543097F8443010
:1034C800042B20D801A252F823F000BFE9340008E9
:1034D800F1340008F93400080135000809350008FE
:1034E800002387F854300EE0032387F854300AE0AD
:1034F800032387F8543006E0002387F8543002E0AD
:10350800002387F8543097F95420654B83F8A82096
:10351800634B93F9A73087F84330002387F853307B
:1035280097F84330042B20D801A252F823F000BFAB
:103538004D350008553500085D350008653500082B
:103548006D350008002387F853300EE0032387F811
:1035580053300AE0032387F8533006E0002387F846
:10356800533002E0002387F8533097F953204C4B2F
:1035780083F8A7204A4B93F9A63087F842300023F6
:1035880087F8523097F84230042B20D801A252F81D
:1035980023F000BFB1350008B9350008C13500086F
:1035A800C9350008D1350008002387F852300EE0ED
:1035B800032387F852300AE0032387F8523006E0E5
:1035C800002387F8523002E0002387F8523097F939
:1035D8005220334B83F8A620314B93F9773087F884
:1035E8004130002387F8513097F84130042B20D818
:1035F80001A252F823F000BF153600081D36000856
:10360800253600082D36000835360008002387F8CF
:1036180051300EE0032387F851300AE0032387F87E
:10362800513006E0002387F8513002E0002387F884
:10363800513097F951201A4B83F87720184B5B6C5F
:10364800184A1360184B184A9B6AD363154B1B68BA
:10365800134AD3641548FEF75CFEF8631348FEF777
:1036680058FEB8631148FEF754FE7863FB6B03F409
:103678008063002B05D00E4B93F8E4305B09DAB277
:1036880000E00022BB6B03F40063002B12D0084B50
:1036980093F8E8309B09DBB20DE000BF1B07002060
:1036A80050040020180400200805002000080240EB
:1036B8000000002000231344DAB27B6B03F480532C
:1036C800002B05D09A4B93F8EC30DB09DBB200E015
:1036D80000231344DAB2974B83F87820954B93F87C
:1036E8007830013B052B1BD8924B93F8783098B271
:1036F800904B93F8683099B28E4BB3F9602007F17C
:103708000D048D4B04938D4B03938D4B029307F15E
:103718000E0301938B4B00932346FEF7D7FF0CE073
:10372800844BB3F9600007F10D0307F10E01864AD7
:103738000092844AFFF76AF800BF844B1B681A4658
:103748007C4BDB6BD31A1A467A4B1A657B7B9AB291
:10375800784BA3F86220764BB3F8C220754BA3F8D8
:103768006420744B1B6D734A9364724B93F87820F2
:10377800704B83F868206F4BDB6C6E4AD3636D4BDC
:10378800042283F87720724BDB6B1846FCF742FE65
:1037980065A3D3E90023FCF7B7FE02460B466D4943
:1037A800C1E900236B4B93ED007BB0EE470AF0EEC6
:1037B800670A0220FEF73CFB4FF40060FEF7B4FCFA
:1037C8000346002B08D04FF40060FEF7C3FC034605
:1037D800002B01D0012300E00023002B00F0128110
:1037E8004FF40060FEF7CCFC5B4B1B78DBB2012B7F
:1037F80040F008814F4B93F9763087F83330002337
:1038080087F8503097F83330042B20D801A252F8AB
:1038180023F000BF31380008393800084138000863
:103828004938000851380008002387F850300EE066
:10383800032387F850300AE0032387F8503006E066
:10384800002387F8503002E0002387F8503097F9BA
:103858005020384B83F87620364B5B6C3B4A13601C
:103868003B4B3B4A9B6A1364384B1B68314AD36411
:103878003A48FEF74EFDF8623848FEF74AFDB8624E
:103888003648FEF746FD7862FB6A03F48063002B36
:1038980005D0274B93F8E5305B09DAB200E0002247
:1038A800BB6A03F40063002B05D0214B93F8E93081
:1038B8009B09DBB200E000231344DAB27B6A03F40D
:1038C8008053002B05D01A4B93F8ED30DB09DBB29F
:1038D80000E000231344DAB2164B83F87820154B26
:1038E80093F87830013B052B40D8124B93F8783089
:1038F80098B2104B93F8673099B20E4BB3F9602029
:1039080007F10904164B0493164B0393164B0293C5
:1039180007F10A0301930B4B00932346FEF7D6FEEB
:1039280031E000BFAFF300802D431CEBE2360A3FC5
:103938000000002050040020AC010020F704002003
:1039480046040020B0040020A8010020180400202C
:1039580008050020100400201B0700200008024072
:103968007C010020EB0400203E040020AE4BB3F99C
:10397800600007F1090307F10A01AC4A0092AC4A5A
:10398800FEF744FF00BFAB4B1B681A46A64B9B6B68
:10399800D31A1A46A44B1A657B7A9AB2A24BA3F89B
:1039A8006220A54BB3F8C4209F4BA3F864209E4B1C
:1039B8001B6D9D4A53659C4B93F878209A4B83F86E
:1039C8006720994BDB6C984A9363974B042283F8E2
:1039D80076209A4B1B6C1846FCF71CFD90A3D3E984
:1039E8000023FCF791FD02460B469549C1E90023E7
:1039F800934B93ED007BB0EE470AF0EE670A032085
:103A0800FEF716FA4FF48060FEF78EFB0346002B94
:103A180008D04FF48060FEF79DFB0346002B01D0D1
:103A2800012300E00023002B00F0E9804FF48060C0
:103A3800FEF7A6FB834B1B78DBB2012B40F0DF803F
:103A4800794B93F9753087F82330002387F84F3086
:103A580097F82330042B20D801A252F823F000BF96
:103A68007D3A0008853A00088D3A0008953A000822
:103A78009D3A0008002387F84F300EE0032387F8AB
:103A88004F300AE0032387F84F3006E0002387F819
:103A98004F3002E0002387F84F3097F94F20624BF0
:103AA80083F87520604B5B6C624A1360634B634A12
:103AB8009B6A53645F4B1B685B4AD3646248FEF79A
:103AC80028FCF8616048FEF724FCB8615E48FEF700
:103AD80020FC7861FB6903F48063002B05D0564B0A
:103AE80093F8E6305B09DAB200E00022BB6903F420
:103AF8000063002B05D0504B93F8EA309B09DBB2EA
:103B080000E000231344DAB27B6903F48053002BEE
:103B180005D0494B93F8EE30DB09DBB200E0002317
:103B28001344DAB2404B83F878203F4B93F878304F
:103B3800013B052B19D83C4B93F8783098B23A4B97
:103B480093F8663099B2384BB3F960207C1D3F4B2F
:103B580004933F4B03933F4B0293BB1D0193344B9C
:103B680000932346FEF7B2FD0AE02F4BB3F960003D
:103B78007B1DB91D384A00922D4AFEF747FE00BF4B
:103B88002C4B1B681A46284B5B6BD31A1A46264BDC
:103B98001A657B799AB2244BA3F86220264BB3F8B6
:103BA800C620214BA3F864201F4B1B6D1E4A93654A
:103BB8001D4B93F878201C4B83F866201A4BDB6C5E
:103BC800194A5363184B042283F875201B4B5B6C0E
:103BD8001846FCF71FFC12A3D3E90023FCF794FC5A
:103BE80002460B461649C1E90023154B93ED007BAD
:103BF800B0EE470AF0EE670A0420FEF719F9BFF3A2
:103C08006F8F00BFBFF34F8F00BFBB6C3B613B6939
:103C180083F3108800BF00BF5C37BD4690BD00BF6E
:103C28002D431CEBE2360A3F5004002078010020A7
:103C3800B00400201804002000000020080500201F
:103C4800100400201B070020000802404C0100203F
:103C5800DF04002036040020480100200000000096
:103C680080B590B000AFFEF7E6F97862CC48FEF771
:103C780047FA0346002B07D0CA48FDF760F9034608
:103C8800002B01D0012300E00023002B00F0F78473
:103C9800C348FEF727FAC44B1B78DBB2012B40F070
:103CA800EE84C24B93F9743087F82330002387F8E9
:103CB8003F3097F82330042B1FD801A252F823F085
:103CC800DD3C0008E53C0008ED3C0008F53C000838
:103CD800FD3C0008002387F83F300EE0032387F8F7
:103CE8003F300AE0032387F83F3006E0002387F8D7
:103CF8003F3002E0002387F83F3097F93F20AB4B75
:103D080083F87420A94B93F9733087F82230002385
:103D180087F83E3097F82230042B20D801A252F8B9
:103D280023F000BF413D0008493D0008513D00080F
:103D3800593D0008613D0008002387F83E300EE039
:103D4800032387F83E300AE0032387F83E3006E075
:103D5800002387F83E3002E0002387F83E3097F9C9
:103D68003E20924B83F87320904B93F98D3087F85F
:103D78002130002387F83D3097F82130042B20D8D4
:103D880001A252F823F000BFA53D0008AD3D000890
:103D9800B53D0008BD3D0008C53D0008002387F873
:103DA8003D300EE0032387F83D300AE0032387F80F
:103DB8003D3006E0002387F83D3002E0002387F815
:103DC8003D3097F93D20794B83F88D20774B93F957
:103DD800723087F82030002387F83C3097F820307D
:103DE800042B20D801A252F823F000BF093E000896
:103DF800113E0008193E0008213E0008293E00082F
:103E0800002387F83C300EE0032387F83C300AE0B3
:103E1800032387F83C3006E0002387F83C3002E0B3
:103E2800002387F83C3097F93C20604B83F87220D8
:103E38005E4B93F97130FB77002387F83B30FB7FAB
:103E4800042B20D801A252F823F000BF693E0008D5
:103E5800713E0008793E0008813E0008893E00084E
:103E6800002387F83B300EE0032387F83B300AE055
:103E7800032387F83B3006E0002387F83B3002E055
:103E8800002387F83B3097F93B20484B83F8712093
:103E9800464B93F97030BB77002387F83A30BB7FE5
:103EA800042B20D801A252F823F000BFC93E000815
:103EB800D13E0008D93E0008E13E0008E93E00086E
:103EC800002387F83A300EE0032387F83A300AE0F7
:103ED800032387F83A3006E0002387F83A3002E0F7
:103EE800002387F83A3097F93A20304B83F870204E
:103EF8002E4B93F96F307B77002387F839307B7F1F
:103F0800042B20D801A252F823F000BF293F000853
:103F1800313F0008393F0008413F0008493F000889
:103F2800002387F839300EE0032387F839300AE098
:103F3800032387F8393006E0002387F8393002E098
:103F4800002387F8393097F93920184B83F86F2008
:103F5800164B93F96E303B77002387F838303B7F58
:103F6800042B28D801A252F823F000BF893F00088B
:103F7800913F0008993F0008A13F0008B93F000899
:103F8800002387F8383016E0032387F8383012E02A
:103F9800032387F838300EE0002387F838300AE02A
:103FA80000200140D40200201B07002050040020FC
:103FB800002387F8383097F938209D4B83F86E2016
:103FC8009B4B93F96D30FB76002387F83730FB7EE7
:103FD800042B20D801A252F823F000BFF93F0008B3
:103FE8000140000809400008114000081940000875
:103FF800002387F837300EE0032387F837300AE0CC
:10400800032387F8373006E0002387F8373002E0CB
:10401800002387F8373097F93720854B83F86D20D0
:10402800834B93F96C30BB76002387F83630BB7E20
:10403800042B20D801A252F823F000BF59400008F1
:104048006140000869400008714000087940000894
:10405800002387F836300EE0032387F836300AE06D
:10406800032387F8363006E0002387F8363002E06D
:10407800002387F8363097F936206D4B83F86C208B
:104088006B4B93F96B307B76002387F835307B7E5A
:10409800042B20D801A252F823F000BFB940000831
:1040A800C1400008C9400008D1400008D9400008B4
:1040B800002387F835300EE0032387F835300AE00F
:1040C800032387F8353006E0002387F8353002E00F
:1040D800002387F8353097F93520554B83F86B2046
:1040E800544B544A9B6A9364514BB3F864303B85F4
:1040F8004F4BB3F86430002B05D04F4BB3F8CC20AE
:104108004B4BA3F864204C4BB3F8D2204A4BB3F87E
:10411800D4309A4202D93B8D7B8503E0464BB3F8F5
:10412800D2307B857B8D002B08D0414B93F86920DA
:10413800424B1A773E4B1B6B404A53603C4B9A6D7F
:104148003B4B5B6D9A4203D8394B9B6D3B6302E056
:10415800374B5B6D3B63364B9B6C3A6B9A4202D98B
:10416800334B9B6C3B63324B93F86A30002B02D184
:104178003B8D002B01D0012300E000233B763B7EE2
:10418800002B0CD03B8D002B04D02B4B5A88284B8E
:10419800A3F85C20264BB3F85C20284B1A83274BE6
:1041A8001A8B254BB3F8D0309A428CBF01230023D9
:1041B800DBB21A461E4B83F86A201D4B93F86A300F
:1041C800002B23D01A4B1B6D3A6B9A4203D8184B1D
:1041D8001B6DFB6201E03B6BFB62174BD3F8A03011
:1041E800FA6A9A4204D3144BB3F8D6303B8511E0EF
:1041F8000F4BB3F86230002B03D1104B1B7F002B01
:1042080001D0012300E000233B8503E00A4BB3F80B
:10421800D6303B853B8D002B00F04C81044BB3F925
:104228006030002B0CDD024B042283F874200BE075
:104238005004002008050020000000201804002079
:10424800BC4B042283F87320BB4BB3F8CA30002B55
:1042580000F02881B84BD3E902014FF00002B74BB8
:10426800FCF7E2FB0346002B39D03B6B07EE903A94
:10427800F8EE676AAF4B1B6D07EE903AB8EE677AB7
:10428800C6EE877AC7ED047A97ED047A3B6B07EEA2
:10429800903AB8EE676AAA4B5B6807EE903AF8EE78
:1042A800676AC6EE267A37EE677AA34BD3ED177A9C
:1042B80027EE277AA04BD3ED167A37EE277AD7ED7B
:1042C800047A27EE277A9C4BD3ED187A67EE277A83
:1042D800C7ED047A974B042283F8702017E03B6BF4
:1042E80007EE903AF8EE676A924B1B6D07EE903A2C
:1042F800F8EE677A86EEA77A8F4BD3ED197A67EED8
:10430800277AC7ED047A8B4B042283F86F208A4BF7
:1043180093ED1A7AD7ED047AB4EEE77AF1EE10FA53
:1043280003D5854B9B6E3B610CE0834B93ED1B7A69
:10433800D7ED047AB4EEE77AF1EE10FA02DD7E4B9F
:10434800DB6E3B617B4BB3F96030012B53D0794B6B
:1043580093F87830013B052B38D801A252F823F0A6
:10436800C7430008AB430008B94300088F4300085F
:10437800814300089D43000807F10C037149184662
:10438800FEF75DFA29E007F10C036F491846FEF7BE
:1043980056FA22E007F10C036C491846FEF74FFA6B
:1043A8001BE007F10C036A491846FEF748FA14E0C7
:1043B80007F10C0367491846FEF741FA0DE007F1CB
:1043C8000C0365491846FEF73AFA06E007F10C03B4
:1043D80062491846FEF733FA00BF97ED037AD7ED26
:1043E800047A77EE677A564BC3ED047A514B042270
:1043F80083F8722052E04F4B93F87830013B052B3D
:1044080038D801A252F823F06F440008534400083A
:10441800614400083744000829440008454400085E
:1044280007F10C034E491846FEF709FA29E007F18F
:104438000C034C491846FEF702FA22E007F10C0378
:1044480049491846FEF7FBF91BE007F10C034749F9
:104458001846FEF7F4F914E007F10C03444918462E
:10446800FEF7EDF90DE007F10C0342491846FEF797
:10447800E6F906E007F10C033F491846FEF7DFF9B5
:1044880000BF97ED037AD7ED047A77EE277A2C4BA5
:10449800C3ED047A274B042283F87120254B0422AC
:1044A80083F86E20264B1B693B61224B042283F85C
:1044B8006D207AE01F4B93F87830013B052B69D8C3
:1044C80001A252F823F000BF2F4500081345000849
:1044D80021450008F7440008E9440008054500089C
:1044E80007F1100325491846FEF7A9F959E007F125
:1044F800100323491846FEF7A2F952E007F110030A
:1045080020491846FEF79BF94BE007F110031E49B6
:104518001846FEF794F944E007F110031B491846C2
:10452800FEF78DF93DE007F1100319491846FEF72B
:1045380086F936E050040020000000200000F03F1B
:104548001804002044010020400100203C01002004
:104558003801002034010020300100202C01002007
:104568002801002024010020200100201C01002037
:104578001801002014010020100100200C01002067
:10458800080100200401002000010020FC00002098
:10459800F800002007F1100343491846FEF74FF9C9
:1045A80000BF424B042283F86C20414B93ED207AE4
:1045B800D7ED047A67EE277A3E4BC3ED037A3B4B7F
:1045C800B3F85E203B4B5A833A4B5A8B384BB3F8BF
:1045D800DA3013443B85354BDB683A1D0221184617
:1045E800FCF779FD7B8D002B0FD0304BB3F8623090
:1045F800002B14BF01230023DBB21A462B4B83F890
:1046080069202A4B1B6D294A13633B7E002B09D076
:10461800284B1A8B264BB3F8D830D31A9AB2234BAF
:10462800A3F85C20224B1B883A8D9A4206D9204B6E
:10463800B3F8C8201D4BA3F85E2003E01B4A3B8D4E
:10464800A2F85E30194B042283F86B201A4B9B6C3E
:104658001846FBF7DFFE12A3D3E90023FBF754FF4C
:1046680002460B461549C1E90023144B93ED007B24
:10467800B0EE470AF0EE670A0520FDF7D9FBBFF355
:104688006F8F00BFBFF34F8F00BF7B6A7B617B6971
:1046980083F3108800BF00BF4037BD4680BD00BF10
:1046A8002D431CEBE2360A3FF400002050040020A2
:1046B8000000002018040020080500201004002035
:1046C80080B500AF1220FDF7E9FC2820FDF7E6FCD5
:1046D80000BF80BD0000000080B584B000AF4FF07F
:1046E80000024FF00003C7E90223414B1B785A1C14
:1046F800D1B23F4A1170002B09D03E4B01221A60FB
:104708003B4B1B78013BDAB2394B1A7066E03B1D14
:104718001846FDF763FF62B600BF374B1B68D3E945
:104728000823C7E90223FEF751F997ED020B002091
:10473800FDF77EFB72B600BF2D4B1B78013BDAB24A
:104748002B4B1A707B79002B11D02C4B5B785A1CA1
:10475800D1B22A4A5170002B09D0264B01221A6087
:10476800264B5B78013BDAB2244B5A7036E0234B78
:104778005B78002B32D01E4B5B78002B2DD11C4B65
:104788005B780133DAB21A4B5A7062B600BF1A4B23
:104798001B689B6B1846FBF73DFE13A3D3E9002368
:1047A800FBF7B2FE02460B46C7E90223FEF774F98F
:1047B80097ED020B0120FDF73BFB00BF72B600BF6F
:1047C8000E4B5B78013BDAB20C4B5A70084B5B78A6
:1047D800013BDAB2064B5A7000E000BF1037BD4605
:1047E80080BD00BFAFF300809A9999999999B93F14
:1047F8001407002010070020E024010818070020F3
:1048080080B586B000AF786039605C4B7B615C4BEB
:104818003B610023FB735B4B00221A705A4B00224A
:104828001A7001DF09F024FE08F000FB06F07EF99B
:1048380008F02AFE08F0FCFD08F078FD08F046FBB9
:1048480008F074FC08F03EFD504B1B6800221A600B
:1048580000210020FDF7E2F90346FB7397F90F30BA
:10486800002B02D097F90F3084E0FEF74DFDFEF7DC
:1048780083F972B600BF62B600BF444B1B685A6822
:10488800424B1B68583319461046FDF7D7F90346C3
:10489800FB7397F90F30002B0DD14FF0FF30FDF768
:1048A80061FAFDF773FB0346002B04D0374B1B68F6
:1048B800012283F8602072B600BF97ED050A06F062
:1048C80029FAFDF76FFB0346002B0CD1FDF75EFBC1
:1048D8000346002B07D12D4B1B6893F86030002B43
:1048E80001D1012300E00023DAB2274B1A7062B627
:1048F80000BF62B600BF2FE0FDF718FB0346FB734D
:10490800FDF750FB0346002B0AD1FDF73FFB03469A
:10491800002B05D11D4B1B6893F86030002B01D08C
:10492800012300E00023DAB2164B1A70154B1B78EE
:10493800DBB2002B0CBF01230023DBB21A46124B5B
:104948001A70104B1B78DBB2002B05D0104B1B687C
:104958000F4A23F0010313600B4B1B78DBB2002BCB
:10496800CAD1FEF76BFCFDF7F1FAFFF7A9FE72B6A4
:1049780000BF002318461837BD4680BD17B7513809
:104988000000A8421A0700201B070020E0240108A5
:1049980010E000E00FB480B400AF00BFBD465DF882
:1049A800047B04B0704780B485B000AFF860B9608C
:1049B8007A60FB68BA681A60FB6804337A681A6020
:1049C80000BF1437BD465DF8047B70470000000047
:1049D800F0B58BB000AF87ED020B0346FB80FB8878
:1049E800002B77D14FF00002414BD7E90201FBF7CA
:1049F8008BFD02460B46C7E906239FED391B97ED51
:104A0800060B0AF001FE53EC102B10461946FCF772
:104A18002BF803467B6100237B6233A3D3E9002391
:104A2800D7E90601FCF700F80346002B0ED02EA3A9
:104A3800D3E90023D7E90601FBF790FE02460B46AF
:104A480010461946FCF710F803467B627A6A7969C2
:104A58002848FFF7A8FF284BD3E900014FF00002D0
:104A6800264BFBF7B9FF0346002B2ED1224BD3E987
:104A780000014FF000024FF04043FBF7ADFF034643
:104A8800002B22D11C4BD3E90001D7E90223FBF705
:104A980083FB02460B4614461D464FF00002184B96
:104AA800D7E90201FBF730FD02460B4601210E460D
:104AB80020462946FBF79AFF0346002B01D1002325
:104AC8001E46F3B21A460F4B1A700F49D7E9022354
:104AD800C1E9002300BF2C37BD46F0BDAFF300800D
:104AE800000000000000F0410000E0FFFFFFEF4180
:104AF80000408F4040070020D80100200000F0BF90
:104B08000000B03C340700204807002080B584B07E
:104B180000AF0023BB6000237B600023FB731F49A9
:104B28004FF000024FF00003C1E900233A1D07F1DE
:104B380008031146184605F0B3FFBB687A681146AA
:104B4800184604F0D3F80346FB7397F90F30002B8F
:104B580005D01348FFF71EFF97F90F301AE03A1DEA
:104B680007F108031146184605F0B1FFBB687A68DB
:104B78001146184600F054FF0346FB7397F90F30AF
:104B8800002B05D097F90F3019460648FFF702FFAA
:104B980097F90F3018461037BD4680BD38070020FA
:104BA80014FF00083CFF000880B584B000AF03463E
:104BB800FB710023FB730023BB73002005F09EFFED
:104BC80000237B7304F060FA0346FB7397F90F30F8
:104BD800002B0DD097F90F3013F1020F08D097F979
:104BE8000F3019463C48FFF7D5FE0123BB730BE095
:104BF8007B7B002B04D197F90F3013F1020F01D002
:104C0800012300E000237B73BB7B002B21D100F044
:104C180039FF0346FB7397F90F30002B0DD097F936
:104C28000F3013F1020F08D097F90F3019462B48AF
:104C3800FFF7B0FE0123BB730BE07B7B002B04D195
:104C480097F90F3013F1020F01D0012300E0002380
:104C58007B73BB7B002B21D104F0A0F90346FB73C7
:104C680097F90F30002B0DD097F90F3013F1020F81
:104C780008D097F90F3019461948FFF78BFE012322
:104C8800BB730BE07B7B002B04D197F90F3013F13A
:104C9800020F01D0012300E000237B73FB79002B76
:104CA8000DD0002005F02AFFBB7B002B02D17B7BB7
:104CB800002B01D1012300E00023BB7301E0012395
:104CC800BB73BB7B002B3FF47BAF97F90F301846C3
:104CD8001037BD4680BD00BF64FF00089CFF000878
:104CE800CCFF000880B582B000AF0023BB70394B01
:104CF8001B78DBB2002B02D0002000F0E1FF00F0AF
:104D0800B3FF0346FB7000237B600EE00A2005F02A
:104D1800F5FE7B6803F51C5310337B600120FFF719
:104D280043FF00F0A1FF0346FB707B682A4A9342C9
:104D380002D8FB78002BE9D100F0A2FF0346BB7034
:104D480097F90230002B05D097F90230194623480D
:104D5800FFF720FE04F012FB0346BB7097F9023000
:104D6800002B05D097F9023019461D48FFF712FEAF
:104D78001C4B00221A701C4B00221A701B4B00227D
:104D88001A601B4B00221A601A4B00221A601A4B39
:104D980000221A60194B00221A6019494FF00002CC
:104DA8004FF04043C1E900230A4B00221A70082241
:104DB800002114480AF000FF13494FF000024FF099
:104DC8000003C1E9002397F9023018460837BD46A9
:104DD80080BD00BF34070020FF2C3101040001080A
:104DE800200001081C0700201D07002020070020C4
:104DF80024070020280700202C0700203007002067
:104E0800D8010020400700204807002080B586B060
:104E180000AF614B1B687B617B69002B00F0B88099
:104E28005E4B1B78DBB2002B04D15B4B1B68002B5D
:104E380000F0AE805A4B1B78DBB2022B40F0A88002
:104E4800584B1B78002B40F0A3807B69D3E90023E3
:104E5800C7E90223544B1B78002B00F08A80534B80
:104E68001B78DBB2002B04D0504B1B78DBB2022B33
:104E780001D1012300E00023FB714C4B1B78DBB20E
:104E8800012B04D0494B1B78DBB2022B01D1012343
:104E980000E00023BB71FB79002B33D0444BD3E9EE
:104EA8000023D7E90201FBF7B5FD0346002B0AD022
:104EB800404BD3E900013E4BD3E90023FBF796FDB5
:104EC8000346002B14D13A4BD3E90023D7E902015A
:104ED800FBF7AAFD0346002B14D0364BD3E900019B
:104EE800334BD3E90023FBF777FD0346002B09D0AA
:104EF800314B1B68002B02D1304B01221A70294B11
:104F080001221A70BB79002B33D0294BD3E9002337
:104F1800D7E90201FBF76AFD0346002B0AD0254BAF
:104F2800D3E90001224BD3E90023FBF773FD0346C5
:104F3800002B14D11E4BD3E90023D7E90201FBF75C
:104F48004BFD0346002B14D01A4BD3E90001184B34
:104F5800D3E90023FBF768FD0346002B09D0164B65
:104F68001B68002B02D1154B01221A700D4B012230
:104F78001A700C4B1B78002B0CBF01230023DBB2EB
:104F88001A46094B1A700B49D7E90223C1E90023D5
:104F980000BF1837BD4680BD5407002058070020C1
:104FA8007407002083070020800700207007002076
:104FB80060070020780700206C0700208207002087
:104FC80080B582B000AF0023FB719E4B1B78DBB22B
:104FD800002B18D19C4B00221A709C4B00221A708F
:104FE8009B4B1B78DBB2002B2DD0964B02221A70FC
:104FF800974B00221A70974B1B78DBB2002B22D1FB
:105008000123FB711FE0924B00221A708E4B1B7814
:10501800DBB2002B09D0904B00221A70894B00227A
:105028001A70894B00221A700DE08A4B1B78DBB28C
:10503800002B02D10123FB7105E0844B1B78FB7127
:10504800824B00221A707F4B1B78DBB2042B00F2D4
:10505800D78001A252F823F075500008AF5100081C
:105068008F50000863510008ED500008784B1B78FA
:10507800DBB2002B00F0D880724B02221A70744BFE
:1050880000221A70D0E0FB79002B00F0CF80734B20
:105098001B68002B0DDD6F4B1B78DBB2012B08D191
:1050A8006E4B1B681A466E4B1A60664B03221A70C9
:1050B800BCE06C4B1B68002B0AD0674B01221A70AE
:1050C800684B1B68664A13605E4B04221A70ADE099
:1050D8006548FFF75FFC604B00221A70594B0022AD
:1050E8001A70A3E05E4B1B68002B04D05C4B1B6856
:1050F800013B5B4A13605A4B1B68002B40F09880B9
:105108005A4B1B78DBB2012B06D1534B00221A7085
:105118004C4B00221A708BE0554B1B68002B0AD0B1
:105128004D4B00221A70524B1B684D4A1360454B79
:1051380001221A707CE0FB79002B07D0494B1B68D1
:10514800474A13603F4B04221A7071E0424B002219
:105158001A703C4B02221A706AE0414B1B68002B04
:1051680004D03F4B1B68013B3D4A13603C4B1B6816
:10517800002B5FD13B4B1B68002B0AD0364B01221A
:105188001A70384B1B68364A13602E4B04221A706B
:1051980050E03548FFF7FEFB2F4B00221A70294BD1
:1051A80000221A7046E02E4B1B68002B04D02C4BB3
:1051B8001B68013B2A4A1360294B1B68002B3BD113
:1051C800FB79002B18D0274B1B68002B0AD0224BE9
:1051D80001221A70234B1B68214A1360194B0422C1
:1051E8001A7029E02048FFF7D5FB1B4B00221A70E4
:1051F800144B00221A701FE0124B02221A701BE097
:10520800104B1B78DBB219461A48FFF7C3FB124B49
:1052180000221A700D4B00221A700B4B00221A70D4
:10522800084B00221A7008E000BF06E000BF04E047
:1052380000BF02E000BF00E000BF00BF0837BD4666
:1052480080BD00BF7407002071070020830700207D
:10525800E401002072070020820700206C0700206C
:1052680084070020E00100204400010873070020A3
:10527800680700206C00010880B400AF10494FF0A7
:1052880000024FF00003C1E900230E4B00221A7000
:105298000D4B1B78DAB20D4B1A700D4B00221A70A9
:1052A8000C4B00221A700C4B00221A600B4B002288
:1052B8001A7000231846BD465DF8047B704700BF8E
:1052C800780700208007002072070020810700204F
:1052D800820700208307002084070020740700202D
:1052E80080B584B000AF0346FB80FB88002B3FD11C
:1052F800314B1B78DAB2314B1B789A4214BF012329
:105308000023DBB2FB732C4B1B78DAB22B4B1A70E1
:10531800FB7B002B0BD02A4B00221A70294B002252
:105328001A70294B00221A60284B00221A70224B4F
:105338001B78DBB2012B1BD1244B1B78DBB2002B73
:1053480004D1234B1B78DBB2002B08D11F4B1B78F1
:10535800DBB2012B0CD11C4B1B68012B08D11A4B5B
:1053680000221A601A4B00221A70184B02221A7077
:10537800114B1B78DBB2012B07D1164B1B889BB254
:10538800FA889A4201D1FFF741FDFB88002B05D12D
:10539800FFF716FE104B00221A7006E00E4B1B7822
:1053A800002B02D00D4B1B7801E0054B1B781846EB
:1053B8001037BD4680BD00BF72070020810700205E
:1053C800820700208307002084070020740700203C
:1053D800E4010020500700208907002088070020EA
:1053E80080B400AF26494FF000024FF00003C1E936
:1053F8000023244B00221A70234B00221A70234BDF
:1054080000221A70224B00221A80224B00221A70A6
:10541800214B00221A70214B00221A60204B0022D7
:105428001A70204B00221A701F4B00221A601F4B63
:1054380000221A701E494FF000024FF00003C1E924
:1054480000231C4B4FF47A721A601B4B00221A601F
:105458001A4B00221A601A4B00221A70194B0122AB
:105468001A70194B00221A70184B00221A70184B28
:1054780000221A7000231846BD465DF8047B704769
:10548800780700208007002074070020810700208B
:10549800500700208207002083070020840700208F
:1054A800880700208907002054070020580700209B
:1054B80060070020E0010020680700206C0700203A
:1054C80070070020E4010020710700207207002007
:1054D8007307002080B400AF194B1B78DBB2002B98
:1054E80029D1184B1B78DBB2002B0BD0164B1B783D
:1054F800DBB2002B06D1154B01221A70144B012286
:105508001A7018E0104B1B78DBB21A460D4B1B784B
:10551800DBB2002B0CBF01230023DBB21340002BAE
:1055280006D00A4B00221A70094B01221A7002E0B9
:10553800074B00221A7000BFBD465DF8047B704718
:1055480072070020E401002071070020880700206E
:105558008907002080B586B000AFF860B9607A602E
:105568003B600023FB7503F0FDFE3861FB681B6898
:10557800184604F00DF90021386803F06BFE024666
:10558800BB681A6003F056FE02467B681A60BB6867
:105598001B68002B0FD0BB681B681946386904F0DC
:1055A800FDFB0246FB681A60FB681B68002B04D1F0
:1055B800F623FB7501E0F823FB7597F917301846B9
:1055C8001837BD4680BD000080B584B000AFF860D4
:1055D800B9607A60FA68BB6813441B7819460848B2
:1055E800FFF7D8F9FB68002B02D0F86804F0D0F870
:1055F8007B6800221A60002318461037BD4680BD1C
:105608009000010880B584B000AFF860B9607A6096
:10561800FA68BB6813441B7819460648FFF7BAF9BD
:105628007B6802221A604FF0FF3318461037BD46D8
:1056380080BD00BFEC00010880B485B000AF034610
:105648000A46FB711346BB710523FB73FB79F02BEC
:1056580002D90023FB7322E0FB79E32B05D9FB7900
:10566800F02B02D80123FB7319E0FB79D22B02D966
:10567800FB79E22B08D9FB79C02B08D1BB79002B29
:1056880005D0BB79022B02D80223FB7307E0FB7914
:10569800C72B04D9FB79D22B01D80323FB73FB7BDF
:1056A80018461437BD465DF8047B704780B58CB04A
:1056B80000AFF860B9607A603B60FB68BB62BB6AA8
:1056C8001B7887F82730002387F82F3097F8273082
:1056D800C02B06D1BB68012B03D9BB6A5B7887F85E
:1056E8002F30364B1B78002B3ED097F82F2097F899
:1056F800273011461846FFF79FFF0346FB76002325
:1057080087F82E30FB7E052B23D0FB7E2C4A52F8DF
:1057180023307B6100233B617B69002B19D097F80C
:1057280027207B691046984738613B69002B14BFD6
:1057380001230023DBB287F82E3097F82E30002B98
:1057480007D03B695A687B681A603B699A683B686E
:105758001A6097F82E30002B2CD17B68194A1A60F2
:105768003B68194A1A6025E097F82730FF2B1BD1B0
:10577800134B1B683B627B6800221A603B6800225F
:105788001A603B6A002B15D03B6AFF209847F861E6
:10579800FB69002B0ED0FB695A687B681A60FB69AD
:1057A8009A683B681A6005E07B68084A1A603B689B
:1057B80000221A6000BF3037BD4680BD8B0700202D
:1057C800900700200D5600089D580008D155000884
:1057D80080B483B000AF0346FB71044AFB791370B1
:1057E80000BF0C37BD465DF8047B70478B0700206F
:1057F80080B400AF034B1B781846BD465DF8047BA8
:10580800704700BF8C07002080B483B000AF034608
:10581800FB71064B1A78FB791343DAB2034B1A7003
:1058280000BF0C37BD465DF8047B70478C0700202D
:1058380080B483B000AF0346FB7197F90730DB43B0
:105848005AB2074B1B785BB213405BB2DAB2044B17
:105858001A7000BF0C37BD465DF8047B704700BF67
:105868008C07002080B400AF034B1B781846BD4658
:105878005DF8047B704700BF8D07002080B400AF3F
:10588800034B1B881846BD465DF8047B704700BF74
:105898008E07002080B586B000AF0346B9607A60F5
:1058A800FB7397F90F30002B05D1BB683B613B694F
:1058B800FF221A7076E0BB687B617B69FE221A7052
:1058C80097F90F3010330F2B62D801A252F823F04A
:1058D8009159000889590008815900087959000828
:1058E8007159000869590008595900086159000898
:1058F8005159000849590008415900083959000808
:105908002159000819590008295900083159000877
:105918007B6930225A7045E07B6929225A7041E040
:105928007B6922225A703DE07B6920225A7039E057
:105938007B6900225A7035E07B6923225A7031E076
:105948007B6921225A702DE07B6911225A7029E067
:105958007B6927225A7025E07B692A225A7021E048
:105968007B6910225A701DE07B6924225A7019E065
:105978007B6928225A7015E07B6926225A7011E04B
:105988007B6931225A700DE07B6933225A7009E035
:1059980097F90F3019460548FEF7FCFF7B6920226E
:1059A8005A70FFE700BF1837BD4680BD1C010108CB
:1059B80080B487B000AF0346B9607A60FB730023F8
:1059C8007B61BB68002B23D000233B6100233B6134
:1059D80017E03A6913465B0013449B001A46BB68FC
:1059E80013441B78FA7B9A4208D13A6913465B0044
:1059F80013449B001A46BB6813447B613B6901331F
:105A08003B613A697B689A4202D27B69002BE0D0FD
:105A18007B6918461C37BD465DF8047B704700005B
:105A280080B582B000AF78603960134B1B78002BCB
:105A380005D01248FEF7AEFF6FF00B0318E000F038
:105A48007BFC00F085FC03460D4A136002F052FA15
:105A580002F06CFA03460A4A936003F045F803F033
:105A68004DF80346064A5360034B01221A7000237F
:105A780018460837BD4680BD8A0700206001010826
:105A88009007002080B58CB002AF002387F827303C
:105A9800002387F826300023FB610023BB61002325
:105AA8007B6100233B610023FB6000233B620023F2
:105AB800BB6000237B60554B1B78002B05D15448F5
:105AC800FEF768FF6FF008039BE007F1140007F189
