:020000040800F2
:1000000000800120D57000083B51000841510008D4
:10001000475100084D5100085351000800000000EE
:10002000000000000000000000000000153E000875
:100030005951000800000000D13D0008F93C0008BB
:100040002571000825710008257100082571000838
:100050002571000825710008257100082571000828
:100060002571000825710008257100082571000818
:100070002571000825710008257100082571000808
:100080006751000825710008C13700080000000012
:1000900000000000000000000000000025710008C2
:1000A00025710008257100082571000825710008D8
:1000B00025710008257100082571000825710008C8
:1000C00025710008257100082571000825710008B8
:1000D00025710008257100086D240008000000004B
:1000E0002571000825710008257100080000000036
:1000F0000000000000000000000000002571000862
:1001000000000000257100087551000825710008E5
:1001100000000000000000000000000000000000DF
:100120008951000825710008257100082571000813
:100130002571000800000000000000000000000021
:100140000000000000000000000000002571000811
:100150002571000825710008257100082571000827
:100160002571000825710008000000000000000053
:10017000000000000000000000000000000000007F
:1001800000000000257100080000000000000000D1
:0401900025710008CD
:1001980081F0004102E000BF83F0004330B54FEA30
:1001A80041044FEA430594EA050F08BF90EA020F9D
:1001B8001FBF54EA000C55EA020C7FEA645C7FEA30
:1001C800655C00F0E2804FEA5454D4EB5555B8BF53
:1001D8006D420CDD2C4480EA020281EA030382EAC4
:1001E800000083EA010180EA020281EA0303362D56
:1001F80088BF30BD11F0004F4FEA01314FF4801C29
:100208004CEA113102D0404261EB410113F0004F3A
:100218004FEA03334CEA133302D0524263EB4303F1
:1002280094EA050F00F0A780A4F10104D5F1200E8F
:100238000DDB02FA0EFC22FA05F2801841F10001EA
:1002480003FA0EF2801843FA05F359410EE0A5F1BE
:1002580020050EF1200E012A03FA0EFC28BF4CF0EF
:10026800020C43FA05F3C01851EBE37101F00045A5
:1002780007D54FF0000EDCF1000C7EEB00006EEBB2
:100288000101B1F5801F1BD3B1F5001F0CD349083C
:100298005FEA30004FEA3C0C04F101044FEA445293
:1002A80012F5800F80F09A80BCF1004F08BF5FEA1A
:1002B800500C50F1000041EB045141EA050130BDFA
:1002C8005FEA4C0C404141EB0101013C28BFB1F50C
:1002D800801FE9D291F0000F04BF01460020B1FA57
:1002E80081F308BF2033A3F10B03B3F120020CDA2A
:1002F8000C3208DD02F1140CC2F10C0201FA0CF008
:1003080021FA02F10CE002F11402D8BFC2F1200C6C
:1003180001FA02F120FA0CFCDCBF41EA0C01904022
:10032800E41AA2BF01EB0451294330BD6FEA04046B
:100338001F3C1CDA0C340EDC04F11404C4F1200256
:1003480020FA04F001FA02F340EA030021FA04F368
:1003580045EA030130BDC4F10C04C4F1200220FABF
:1003680002F001FA04F340EA0300294630BD21FAFD
:1003780004F0294630BD94F0000F83F4801306BFC3
:1003880081F480110134013D4EE77FEA645C18BFB7
:100398007FEA655C29D094EA050F08BF90EA020F4E
:1003A80005D054EA000C04BF1946104630BD91EA46
:1003B800030F1EBF0021002030BD5FEA545C05D149
:1003C8004000494128BF41F0004130BD14F5800488
:1003D8003CBF01F5801130BD01F0004545F0FE41FC
:1003E80041F470014FF0000030BD7FEA645C1ABF31
:1003F800194610467FEA655C1CBF0B46024650EA68
:10040800013406BF52EA033591EA030F41F4002193
:1004180030BD00BF90F0000F04BF0021704730B519
:100428004FF4806404F132044FF000054FF00001EE
:1004380050E700BF90F0000F04BF0021704730B5AF
:100448004FF4806404F1320410F0004548BF404284
:100458004FF000013EE700BF42004FEAE2014FEAD9
:1004680031014FEA02701FBF12F07F4393F07F4FB4
:1004780081F06051704732F07F4208BF704793F0B7
:100488007F4F04BF41F40021704730B54FF46074CA
:1004980001F0004521F000411CE700BF50EA0102CD
:1004A80008BF704730B54FF000050AE050EA010276
:1004B80008BF704730B511F0004502D5404261EBE6
:1004C80041014FF4806404F132045FEA915C3FF427
:1004D800D8AE4FF003025FEADC0C18BF03325FEAC4
:1004E800DC0C18BF033202EBDC02C2F1200300FA75
:1004F80003FC20FA02F001FA03FE40EA0E0021FA9A
:1005080002F11444BDE600BF70B54FF0FF0C4CF487
:10051800E06C1CEA11541DBF1CEA135594EA0C0F39
:1005280095EA0C0F00F0DEF82C4481EA030621EA74
:100538004C5123EA4C5350EA013518BF52EA0335AF
:1005480041F4801143F4801338D0A0FB02CE4FF061
:100558000005E1FB02E506F00042E0FB03E54FF091
:100568000006E1FB03569CF0000F18BF4EF0010E89
:10057800A4F1FF04B6F5007F64F5407404D25FEA85
:100588004E0E6D4146EB060642EAC62141EA555138
:100598004FEAC52040EA5E504FEACE2EB4F1FD0C7A
:1005A80088BFBCF5E06F1ED8BEF1004F08BF5FEAF8
:1005B800500E50F1000041EB045170BD06F00046AA
:1005C80046EA010140EA020081EA0301B4EB5C0457
:1005D800C2BFD4EB0C0541EA045170BD41F480114F
:1005E8004FF0000E013C00F3AB8014F1360FDEBF74
:1005F800002001F0004170BDC4F10004203C35DA50
:100608000C341BDC04F11404C4F1200500FA05F3D2
:1006180020FA04F001FA05F240EA020001F0004273
:1006280021F0004110EBD37021FA04F642EB0601E9
:100638005EEA430E08BF20EAD37070BDC4F10C0413
:10064800C4F1200500FA04F320FA05F001FA04F2D7
:1006580040EA020001F0004110EBD37041F10001C3
:100668005EEA430E08BF20EAD37070BDC4F12005CE
:1006780000FA05F24EEA020E20FA04F301FA05F236
:1006880043EA020321FA04F001F0004121FA04F2DE
:1006980020EA020000EBD3705EEA430E08BF20EAAE
:1006A800D37070BD94F0000F0FD101F000464000E8
:1006B80041EB010111F4801F08BF013CF7D041EA6A
:1006C800060195F0000F18BF704703F0004652006E
:1006D80043EB030313F4801F08BF013DF7D043EA3F
:1006E8000603704794EA0C0F0CEA135518BF95EAF5
:1006F8000C0F0CD050EA410618BF52EA4306D1D17C
:1007080081EA030101F000414FF0000070BD50EA9A
:10071800410606BF1046194652EA430619D094EA24
:100728000C0F02D150EA013613D195EA0C0F05D10E
:1007380052EA03361CBF104619460AD181EA030162
:1007480001F0004141F0FE4141F470014FF000001A
:1007580070BD41F0FE4141F4780170BD70B54FF0B5
:10076800FF0C4CF4E06C1CEA11541DBF1CEA135535
:1007780094EA0C0F95EA0C0F00F0A7F8A4EB050417
:1007880081EA030E52EA03354FEA013100F088800E
:100798004FEA03334FF0805545EA131343EA1263D7
:1007A8004FEA022245EA111545EA10654FEA00268C
:1007B8000EF000419D4208BF964244F1FD0404F545
:1007C800407402D25B084FEA3202B61A65EB0305A1
:1007D8005B084FEA32024FF480104FF4002CB6EB5E
:1007E800020E75EB030E22BFB61A754640EA0C00DE
:1007F8005B084FEA3202B6EB020E75EB030E22BF1E
:10080800B61A754640EA5C005B084FEA3202B6EB5E
:10081800020E75EB030E22BFB61A754640EA9C001D
:100828005B084FEA3202B6EB020E75EB030E22BFED
:10083800B61A754640EADC0055EA060E18D04FEAAB
:10084800051545EA16754FEA06164FEAC30343EA4B
:1008580052734FEAC2025FEA1C1CC0D111F4801F18
:100868000BD141EA00014FF000004FF0004CB6E711
:1008780011F4801F04BF01430020B4F1FD0C88BFB0
:10088800BCF5E06F3FF6AFAEB5EB030C04BFB6EBBB
:10089800020C5FEA500C50F1000041EB045170BDAE
:1008A8000EF0004E4EEA113114EB5C04C2BFD4EBDB
:1008B8000C0541EA045170BD41F480114FF0000E5F
:1008C800013C90E645EA060E8DE60CEA135594EADB
:1008D8000C0F08BF95EA0C0F3FF43BAF94EA0C0FDE
:1008E8000AD150EA01347FF434AF95EA0C0F7FF453
:1008F80025AF104619462CE795EA0C0F06D152EAA7
:1009080003353FF4FDAE1046194622E750EA41068A
:1009180018BF52EA43067FF4C5AE50EA41047FF49B
:100928000DAF52EA43057FF4EBAE12E74FF0FF3C00
:1009380006E000BF4FF0010C02E000BF4FF0010CD1
:100948004DF804CD4FEA410C7FEA6C5C4FEA430C4A
:1009580018BF7FEA6C5C1BD001B050EA410C0CBF99
:1009680052EA430C91EA030F02BF90EA020F0020FB
:10097800704710F1000F91EA030F58BF994208BF62
:1009880090422CBFD8176FEAE37040F0010070471F
:100998004FEA410C7FEA6C5C02D150EA013C07D176
:1009A8004FEA430C7FEA6C5CD6D152EA033CD3D0C1
:1009B8005DF8040B704700BF8446104662468C46BB
:1009C8001946634600E000BF01B5FFF7B7FF0028EE
:1009D80048BF10F1000F01BD4DF808EDFFF7F4FF17
:1009E8000CBF012000205DF808FB00BF4DF808EDA2
:1009F800FFF7EAFF34BF012000205DF808FB00BFC5
:100A08004DF808EDFFF7E0FF94BF012000205DF8E6
:100A180008FB00BF4DF808EDFFF7CEFF94BF01209B
:100A280000205DF808FB00BF4DF808EDFFF7C4FF94
:100A380034BF012000205DF808FB00BF4FEA410CDD
:100A48007FEA6C5C02D150EA013C0AD14FEA430CC0
:100A58007FEA6C5C02D152EA033C02D14FF00000FD
:100A680070474FF0010070474A0011D212F500128A
:100A780011D20DD56FF47873B3EB62520ED44FEAEE
:100A8800C12343F0004343EA505323FA02F070476E
:100A98004FF00000704750EA013002D14FF0FF30AC
:100AA80070474FF0000070474FEA4102B2F1E0434F
:100AB80024BFB3F5001CDCF1FE5C0DD901F0004C3D
:100AC8004FEAC0024CEA5070B2F1004F40EB83008D
:100AD80008BF20F00100704711F0804F21D113F1B9
:100AE8003872BCBF01F00040704741F480114FEAF2
:100AF8005252C2F11802C2F1200C10FA0CF320FA7B
:100B080002F018BF40F001004FEAC1234FEAD32397
:100B180003FA0CFC40EA0C0023FA02F34FEA430301
:100B2800CCE77FEA625307D150EA01331EBF4FF08A
:100B3800FE4040F44000704701F0004040F0FE40A5
:100B480040F40000704700BF53B94AB9002908BFF4
:100B580000281CBF4FF0FF314FF0FF3000F00CB8F9
:100B6800ADF1080C6DE904CE06F064FDDDF804E093
:100B7800DDE9022304B07047704700BF0348044B07
:100B8800834202D0034B03B118477047E0000020AE
:100B9800E0000020000000000548064B1B1AD90F92
:100BA80001EBA301491002D0034B03B1184770476A
:100BB800E0000020E00000200000000010B5064C16
:100BC800237843B9FFF7DAFF044B13B10448AFF3B6
:100BD80000800123237010BDE00000200000000009
:100BE8008479000808B5054B1BB105490548AFF3E2
:100BF8000080BDE80840FFF7CFBF00BF000000003D
:100C0800E40000208479000880B483B000AF7860E5
:100C180039607B68DB6A23F470023B681A437B689F
:100C2800DA6200BF0C37BD465DF8047B704780B4BC
:100C380083B000AF786039607B689B6823F44072AA
:100C48003B681A437B689A6000BF0C37BD465DF865
:100C5800047B704780B483B000AF78607B689B6882
:100C680003F44013002B0CBF01230023DBB218460A
:100C78000C37BD465DF8047B704780B483B000AF85
:100C880078607B689B6843F001027B689A6000BFCC
:100C98000C37BD465DF8047B704780B483B000AF65
:100CA80078607B689B6823F001027B689A6000BFCC
:100CB8000C37BD465DF8047B704780B483B000AF45
:100CC80078607B689B6803F00103012B0CBF01234C
:100CD8000023DBB218460C37BD465DF8047B70472D
:100CE80080B483B000AF78607B689B6843F480026F
:100CF8007B689A6000BF0C37BD465DF8047B70477F
:100D080080B483B000AF78607B681B6803F004038D
:100D1800042B0CBF01230023DBB218460C37BD4659
:100D28005DF8047B704780B483B000AF78607B685F
:100D38006FF004021A6000BF0C37BD465DF8047BF3
:100D4800704780B483B000AF78607B685B6843F01D
:100D580020027B685A6000BF0C37BD465DF8047BF3
:100D6800704780B483B000AF78607B685B6843F0FD
:100D780080027B685A6000BF0C37BD465DF8047B73
:100D8800704780B483B000AF78607B685B6823F0FD
:100D980020027B685A6000BF0C37BD465DF8047BB3
:100DA800704780B483B000AF78607B685B6823F0DD
:100DB80080627B685A6000BF0C37BD465DF8047BD3
:100DC800704780B483B000AF78607B685B6823F0BD
:100DD80080027B685A6000BF0C37BD465DF8047B13
:100DE800704780B483B000AF78607B685B6823F09D
:100DF80040027B685A6000BF0C37BD465DF8047B33
:100E0800704780B483B000AF78607B685B6803F09C
:100E18008063B3F1806F0CBF01230023DBB2184657
:100E28000C37BD465DF8047B704780B483B000AFD3
:100E380078607B685B6803F04003402B0CBF01239C
:100E48000023DBB218460C37BD465DF8047B7047BB
:100E580080B584B000AF78600123FB817B681B6993
:100E68001846FFF7F7FE0346002B24D07B689B7AD1
:100E7800DBB2022B0CD07B689B7ADBB2082B07D045
:100E88007B681B691846FFF73BFF0346012B12D10D
:100E98007B689B7ADBB2082B03D17B6801229A72AC
:100EA80002E07B6820229A727B681B691846FFF76C
:100EB80017FF0023FB81FB8918461037BD4680BD0C
:100EC80080B487B000AFF8600B467A607B81FB681E
:100ED8003C333B6100237B610DE07B699B003A69F1
:100EE800134419687B695B007A6813448AB21A80D4
:100EF8007B6901337B617B897A699A42EDDB00BFAC
:100F080000BF1C37BD465DF8047B704780B485B0D0
:100F180000AFF860B9607A603B6000BF1437BD4627
:100F28005DF8047B704780B485B000AFF860B960A5
:100F38007A6000BF1437BD465DF8047B704780B502
:100F480084B000AF78607B681B691846FFF7D8FE4D
:100F58000346FB73FB7B012B07D17B681B69184693
:100F6800FFF7E1FE7B6802229A72FB7B1846103776
:100F7800BD4680BD80B483B000AF78600B46FB707F
:100F880000BF0C37BD465DF8047B704790B589B04B
:100F980002AFF860084611461A4603467B810B46A5
:100FA8003B811346FB8000237B61FB681B693D4A3C
:100FB800934201D13C4B7B617B69002B6CD0FB6871
:100FC8001A697B691A617B690022DA71FB88012B37
:100FD80062D03B89002B48D07B695B7ADBB2082B57
:100FE80043D0FB68DA687B69DA60FB681A687B695A
:100FF8001A60FB685A697B695A61FB689A797B6950
:101008009A71FB681A797B691A717B691B69B96ADD
:101018001846FFF7F9FD7B89012B22D07B89042B29
:1010280017D17B691B694FF440711846FFF7FFFD24
:101038007B6918697B6959697B699B791C467B695F
:10104800DA687B691B68009313462246FFF75EFF48
:1010580007E07B89022B04D17B691B691846FFF7DF
:1010680070FE7B6908225A7216E03B89002B13D167
:101078007B699B7ADBB2082B0ED0FB685A797B69B7
:101088005A717B89022B04D17B691B691846FFF7CB
:1010980068FE7B6908229A727B6918461C37BD4630
:1010A80090BD00BF00200140FC00002080B582B048
:1010B80000AF78607B681B691846FFF7FEFD0346A2
:1010C800002B04D17B681B691846FFF7D6FD00BFCB
:1010D8000837BD4680BD80B586B000AFF8600B46C6
:1010E8007A607B810123FB82FB681B69002B4BD054
:1010F8007B89012B05D1F868FFF7AAFE0346FB821E
:1011080042E07B89042B24D1FB681B691846FFF752
:10111800A1FD0346002B37D0FB6801229A72FB68B9
:101128001B691846FFF7DCFD00BFFB689B7ADBB242
:10113800022BFAD1FB681869FB685B799BB27A6865
:101148001946FFF7BDFEFB6808229A720023FB824E
:101158001AE07B89022B17D1FB689B7ADBB2202B24
:1011680004D0FB689B7ADBB2022B0DD1FB68082206
:101178009A72FB681869FB685B799BB27A681946B2
:10118800FFF79EFE0023FB82FB8A18461837BD46F0
:1011980080BD80B582B000AF78600B467B80134677
:1011A8003B807B681B691846FFF787FD0346002BC9
:1011B80004D07B681B691846FFF76FFD7B681B69C5
:1011C8001846FFF732FE0346002B04D07B681B69E4
:1011D8001846FFF706FE7B681B691846FFF711FEE5
:1011E8000346002B04D07B681B691846FFF7D9FD1E
:1011F8003B88002B35D07B88012B1AD07B88022BAB
:1012080005D17B681B691846FFF7BBFD11E07B8899
:10121800042B0ED17B6818697B6859697B689B79B8
:101228001A46FFF780FE7B681B6900211846FFF706
:10123800FEFC7B680022DA607B6800221A607B680B
:1012480000225A617B6800229A717B6800221A7119
:101258007B681A697B681B7919461046FFF7D4FC2E
:101268000AE07B6800225A717B88022B04D17B68D4
:101278001B691846FFF7A5FD00BF0837BD4680BDAE
:1012880080B485B000AF78607B681B6803F06003AA
:10129800FB60FB68002B04D17B681B6803F010031C
:1012A800FB60FB6818461437BD465DF8047B704741
:1012B80080B483B000AF78607B681B6B18460C372E
:1012C800BD465DF8047B704780B483B000AF78609A
:1012D80039607B681A6A3B681A437B681A6200BFE8
:1012E8000C37BD465DF8047B704780B483B000AF0F
:1012F800786039607B681A6A3B68DB431A407B6810
:101308001A6200BF0C37BD465DF8047B704780B495
:1013180083B000AF78607B685B6C43F400427B6805
:101328005A6400BF0C37BD465DF8047B704780B433
:1013380083B000AF78607B68DB6843F001027B68AC
:10134800DA6000BF0C37BD465DF8047B704780B497
:1013580083B000AF78607B68DB6823F001027B68AC
:10136800DA6000BF0C37BD465DF8047B704780B477
:1013780083B000AF78607B68DB6803F00103012B62
:1013880001D1012300E0002318460C37BD465DF863
:10139800047B704780B483B000AF78607B68DB68FB
:1013A80043F002027B68DA6000BF0C37BD465DF887
:1013B800047B704780B483B000AF78607B68DB68DB
:1013C80023F002027B68DA6000BF0C37BD465DF887
:1013D800047B704780B483B000AF78607B68DB68BB
:1013E80003F00203022B01D1012300E00023184679
:1013F8000C37BD465DF8047B704780B483B000AFFE
:1014080078607B68DB6843F004027B68DA6000BFC1
:101418000C37BD465DF8047B704780B483B000AFDD
:1014280078607B68DB6823F004027B68DA6000BFC1
:101438000C37BD465DF8047B704780B483B000AFBD
:1014480078607B68DB6803F00403042B01D1012377
:1014580000E0002318460C37BD465DF8047B704752
:1014680080B483B000AF78607B68DB6843F0080223
:101478007B68DA6000BF0C37BD465DF8047B7047B7
:1014880080B483B000AF78607B68DB6823F0080223
:101498007B68DA6000BF0C37BD465DF8047B704797
:1014A80080B483B000AF78607B68DB6803F0080322
:1014B800082B01D1012300E0002318460C37BD4654
:1014C8005DF8047B704780B483B000AF78607B68B8
:1014D800DB6843F010027B68DA6000BF0C37BD465A
:1014E8005DF8047B704780B483B000AF78607B6898
:1014F800DB6823F010027B68DA6000BF0C37BD465A
:101508005DF8047B704780B483B000AF78607B6877
:10151800DB6803F01003102B01D1012300E0002346
:1015280018460C37BD465DF8047B704780B483B01D
:1015380000AF78607B68DB6843F020027B68DA6084
:1015480000BF0C37BD465DF8047B704780B483B09C
:1015580000AF78607B68DB6823F020027B68DA6084
:1015680000BF0C37BD465DF8047B704780B483B07C
:1015780000AF78607B68DB6803F02003202B01D183
:10158800012300E0002318460C37BD465DF8047BB4
:10159800704780B483B000AF78607B68DB6843F045
:1015A80040027B68DA6000BF0C37BD465DF8047BFB
:1015B800704780B483B000AF78607B68DB6823F045
:1015C80040027B68DA6000BF0C37BD465DF8047BDB
:1015D800704780B483B000AF78607B68DB6803F045
:1015E8004003402B01D1012300E0002318460C37AB
:1015F800BD465DF8047B704780B483B000AF786067
:101608007B68DB6843F080027B68DA6000BF0C37D8
:10161800BD465DF8047B704780B483B000AF786046
:101628007B68DB6823F080027B68DA6000BF0C37D8
:10163800BD465DF8047B704780B483B000AF786026
:101648007B68DB6803F08003802B01D1012300E075
:10165800002318460C37BD465DF8047B704780B5FB
:1016680082B000AF78600B467B807B8803F0010373
:10167800002B0CD07B681B681846FFF7AAFF0346AF
:10168800012B04D07B681B681846FFF782FF7B8814
:1016980003F00203002B0CD07B681B681846FFF789
:1016A80099FE0346012B04D07B681B681846FFF798
:1016B80071FE7B8803F00403002B0CD07B681B6849
:1016C8001846FFF7BAFE0346012B04D07B681B6857
:1016D8001846FFF792FE7B8803F00803002B0CD016
:1016E8007B681B681846FFF7DBFE0346012B04D016
:1016F8007B681B681846FFF7B3FE7B8803F010036E
:10170800002B0CD07B681B681846FFF7FCFE0346CD
:10171800012B04D07B681B681846FFF7D4FE7B8832
:1017280003F02003002B0CD07B681B681846FFF7DA
:101738001EFE0346012B04D07B681B681846FFF782
:10174800F6FD7B8803F04003002B0CD07B681B68F8
:101758001846FFF771FF0346012B04D07B681B680E
:101768001846FFF749FF7B8803F08003002B0CD055
:101778007B681B681846FFF7F9FE0346012B04D067
:101788007B681B681846FFF7D1FE00BF0837BD46C7
:1017980080BD80B582B000AF78600B467B807B88C7
:1017A80003F00103002B0CD07B681B681846FFF779
:1017B80010FF0346012B04D17B681B681846FFF70E
:1017C800F8FE7B8803F00203002B0CD07B681B68B3
:1017D8001846FFF7FFFD0346012B04D17B681B6801
:1017E8001846FFF7E7FD7B8803F00403002B0CD0B5
:1017F8007B681B681846FFF720FE0346012B04D1BF
:101808007B681B681846FFF708FE7B8803F008030F
:10181800002B0CD07B681B681846FFF741FE034677
:10182800012B04D17B681B681846FFF729FE7B88CB
:1018380003F01003002B0CD07B681B681846FFF7D9
:1018480062FE0346012B04D17B681B681846FFF72C
:101858004AFE7B8803F02003002B0CD07B681B68B2
:101868001846FFF784FD0346012B04D07B681B68EC
:101878001846FFF76CFD7B8803F04003002B0CD063
:101888007B681B681846FFF7D7FE0346012B04D177
:101898007B681B681846FFF7BFFE7B8803F0800350
:1018A800002B0CD07B681B681846FFF75FFE0346C9
:1018B800012B04D17B681B681846FFF747FE00BF61
:1018C8000837BD4680BD000080B582B000AF7860A3
:1018D8000B46FB70FB78022B06D17B681B68012145
:1018E8001846FFF7F1FC1DE07B681B680F4A93421E
:1018F80018D1FB78032B06D17B681B680421184696
:10190800FFF7E2FC0EE0FB78042B0BD17B681B6829
:1019180001211846FFF7D8FC7B681B68042118468C
:10192800FFF7D2FC00BF0837BD4680BD000001406C
:1019380080B582B000AF78600B46FB70FB78022B55
:1019480006D17B681B6801211846FFF7CEFC1DE015
:101958007B681B680F4A934218D1FB78032B06D18A
:101968007B681B6804211846FFF7BFFC0EE0FB7874
:10197800042B0BD17B681B6801211846FFF7B5FCC7
:101988007B681B6804211846FFF7AFFC00BF0837C7
:10199800BD4680BD0000014080B582B000AF7860D0
:1019A8000B46FB70FB78022B06D17B681B68102165
:1019B8001846FFF789FC1DE07B681B680F4A9342B5
:1019C80018D1FB78032B06D17B681B684021184689
:1019D800FFF77AFC0EE0FB78042B0BD17B681B68C1
:1019E80010211846FFF770FC7B681B6840211846D9
:1019F800FFF76AFC00BF0837BD4680BD0000014004
:101A080080B582B000AF78600B46FB70FB78022B84
:101A180006D17B681B6810211846FFF766FC1DE09D
:101A28007B681B680F4A934218D1FB78032B06D1B9
:101A38007B681B6840211846FFF757FC0EE0FB78CF
:101A4800042B0BD17B681B6810211846FFF74DFC4F
:101A58007B681B6840211846FFF747FC00BF083722
:101A6800BD4680BD0000014080B582B000AF7860FF
:101A78000B46FB70FB78022B07D17B681B684FF481
:101A880080711846FFF720FC20E07B681B68114A2C
:101A980093421BD1FB78032B07D17B681B684FF45B
:101AA80080611846FFF710FC10E0FB78042B0DD17D
:101AB8007B681B684FF480711846FFF705FC7B684C
:101AC8001B684FF480611846FFF7FEFB00BF08371C
:101AD800BD4680BD0000014080B582B000AF78608F
:101AE8000B46FB70FB78022B07D17B681B684FF411
:101AF80080711846FFF7F9FB20E07B681B68114AE4
:101B080093421BD1FB78032B07D17B681B684FF4EA
:101B180080611846FFF7E9FB10E0FB78042B0DD134
:101B28007B681B684FF480711846FFF7DEFB7B6803
:101B38001B684FF480611846FFF7D7FB00BF0837D2
:101B4800BD4680BD0000014080B584B000AF78601C
:101B58000023FB607B681B681C4A934201D11C4B25
:101B6800FB607B681A68FB681A60FB681B6818468C
:101B7800FFF786FBB860BB68002B06D0BB68102B4C
:101B880003D0FB6801221A7102E0FB6800221A7177
:101B9800FB681B680D4A934204D1FB681B68184612
:101BA800FFF7B5FBFB681B68084A934208D17B68BE
:101BB8001B681846FFF77CFB0346DAB2FB685A71CC
:101BC800FB6818461037BD4680BD00BF00000140C5
:101BD8001801002080B485B000AF786039603B6898
:101BE800FB603B68B3F5803F0CD37B681B68B3F19F
:101BF800804F07D07B681B68064A934202D04FF695
:101C0800FF73FB60FB6818461437BD465DF8047B1C
:101C1800704700BF000C004080B400AF044BDB6885
:101C28001B0A03F007031846BD465DF8047B70479E
:101C380000ED00E080B483B000AF0346FB7197F974
:101C48000730002B0BDBFB7903F01F02074997F9DC
:101C580007305B09012000FA02F241F8232000BF97
:101C68000C37BD465DF8047B704700BF00E100E01B
:101C780080B483B000AF03463960FB7197F9073031
:101C8800002B0ADB3B68DAB20C4997F907301201DE
:101C9800D2B20B4483F800230AE03B68DAB2084961
:101CA800FB7903F00F03043B1201D2B20B441A76FE
:101CB80000BF0C37BD465DF8047B704700E100E0CB
:101CC80000ED00E080B489B000AFF860B9607A60D8
:101CD800FB6803F00703FB61FB69C3F10703042BEF
:101CE80028BF0423BB61FB690433062B02D9FB69B7
:101CF800033B00E000237B614FF0FF32BB6902FA2F
:101D080003F3DA43BB681A407B699A404FF0FF310E
:101D18007B6901FA03F3D9437B680B4013431846E8
:101D28002437BD465DF8047B7047000080B483B05B
:101D380000AF786039600C4A3B6813441B781A4638
:101D48007B6813441B6808493A680A4412781146AC
:101D58007A680A4443F00103136000BF0C37BD469C
:101D68005DF8047B704700BFA079000880B485B097
:101D780000AFF860B9607A600D4ABB6813441B78FD
:101D88001A46FB6813445B681B0C1B040849BA68B5
:101D98000A4412781146FA680A4411467A681343CD
:101DA8004B6000BF1437BD465DF8047B704700BF29
:101DB800A079000880B485B000AFF860B9607A6097
:101DC8003B60BB69402B14D1174ABB6813441B788E
:101DD8001A46FB6813441A467B68D360124ABB68EC
:101DE80013441B781A46FB6813441A463B689360F1
:101DF80013E00D4ABB6813441B781A46FB6813446A
:101E08001A467B689360084ABB6813441B781A46D5
:101E1800FB6813441A463B68D36000BF1437BD46BD
:101E28005DF8047B704700BFA079000880B483B0D8
:101E380000AF786039600C4A3B6813441B781A4637
:101E48007B6813441B6808493A680A4412781146AB
:101E58007A680A4443F01003136000BF0C37BD468C
:101E68005DF8047B704700BFA079000880B483B098
:101E780000AF786039600C4A3B6813441B781A46F7
:101E88007B6813441B6808493A680A44127811466B
:101E98007A680A4423F01003136000BF0C37BD466C
:101EA8005DF8047B704700BFA079000880B483B058
:101EB80000AF78607B68DB6843F400527B68DA60C7
:101EC80000BF0C37BD465DF8047B704780B483B013
:101ED80000AF78607B68DB6823F400527B68DA60C7
:101EE80000BF0C37BD465DF8047B704780B483B0F3
:101EF80000AF78607B681B6803F08003802B0CBF01
:101F080001230023DBB218460C37BD465DF8047B7D
:101F1800704780B489B000AF78607B680C33FB6091
:101F2800FB6853E8003FBB60BB6843F02003FB61DC
:101F38007B680C33FA69BA617B617969BA6941E8EF
:101F480000233B613B69002BE7D100BF00BF24376A
:101F5800BD465DF8047B704780B489B000AF7860F7
:101F68007B680C33FB60FB6853E8003FBB60BB68D1
:101F780043F08003FB617B680C33FA69BA617B61CB
:101F88007969BA6941E800233B613B69002BE7D1D5
:101F980000BF00BF2437BD465DF8047B704780B49E
:101FA80089B000AF78607B680C33FB60FB6853E84E
:101FB800003FBB60BB6843F48073FB617B680C33F4
:101FC800FA69BA617B617969BA6941E800233B61C2
:101FD8003B69002BE7D100BF00BF2437BD465DF841
:101FE800047B704780B489B000AF78607B68143395
:101FF800FB60FB6853E8003FBB60BB6843F001032C
:10200800FB617B681433FA69BA617B617969BA69E3
:1020180041E800233B613B69002BE7D100BF00BFCB
:102028002437BD465DF8047B704780B489B000AFA3
:1020380078607B680C33FB60FB6853E8003FBB604B
:10204800BB6823F02003FB617B680C33FA69BA6133
:102058007B617969BA6941E800233B613B69002BE0
:10206800E7D100BF00BF2437BD465DF8047B704749
:1020780080B489B000AF78607B680C33FB60FB6884
:1020880053E8003FBB60BB6823F08003FB617B68BB
:102098000C33FA69BA617B617969BA6941E800234E
:1020A8003B613B69002BE7D100BF00BF2437BD4629
:1020B8005DF8047B704780B489B000AF78607B68B6
:1020C8000C33FB60FB6853E8003FBB60BB6823F43C
:1020D8008073FB617B680C33FA69BA617B6179694B
:1020E800BA6941E800233B613B69002BE7D100BF97
:1020F80000BF2437BD465DF8047B704780B489B0C3
:1021080000AF78607B681433FB60FB6853E8003FDE
:10211800BB60BB6823F00103FB617B681433FA6979
:10212800BA617B617969BA6941E800233B613B691F
:10213800002BE7D100BF00BF2437BD465DF8047B04
:10214800704780B489B000AF78607B681433FB6057
:10215800FB6853E8003FBB60BB6843F04003FB618A
:102168007B681433FA69BA617B617969BA6941E8B5
:1021780000233B613B69002BE7D100BF00BF243738
:10218800BD465DF8047B704780B489B000AF7860C5
:102198007B681433FB60FB6853E8003FBB60BB6897
:1021A80023F04003FB617B681433FA69BA617B61F1
:1021B8007969BA6941E800233B613B69002BE7D1A3
:1021C80000BF00BF2437BD465DF8047B704780B46C
:1021D80089B000AF78607B681433FB60FB6853E814
:1021E800003FBB60BB6843F08003FB617B6814332E
:1021F800FA69BA617B617969BA6941E800233B6190
:102208003B69002BE7D100BF00BF2437BD465DF80E
:10221800047B704780B489B000AF78607B68143362
:10222800FB60FB6853E8003FBB60BB6823F080039A
:10223800FB617B681433FA69BA617B617969BA69B1
:1022480041E800233B613B69002BE7D100BF00BF99
:102258002437BD465DF8047B704780B483B000AF77
:1022680078607B68043318460C37BD465DF8047BFC
:10227800704780B483B000AF78600B46FB70FA7883
:102288007B685A6000BF0C37BD465DF8047B704719
:1022980080B485B000AF786039607B685B6B3A6862
:1022A8001344FB607B685A6B7B689B6B9A4204D231
:1022B8007B689B6BFA689A4212D27B685A6B7B6880
:1022C8009B6B9A420ED37B689B6AFA689A4209D341
:1022D8007B689B6AFA68D21A7B689B6B9A4201D327
:1022E800012300E00023DBB218461437BD465DF831
:1022F800047B704780B586B000AFF860B9607A603B
:102308003B607968F868FFF7C3FF0346002B21D0CC
:102318003B68002B1CD003F06DFE786100BF796824
:10232800F868FFF7B5FF0346002B07D0012178694D
:1023380001F058FC02463B689342F0D201217869CB
:1023480001F050FC02463B68934203D2012347E068
:10235800012345E0FB685A6B7B681A44FB689B6A5B
:102368009A4223D9FB689A6AFB685B6BD31A3B6174
:10237800FB681A6AFB685B6B13443A69B9681846CC
:1023880005F0EEFAFB685A6B7B681A44FB689B6A97
:10239800D21AFB685A63FB68186A3B69BA68D11895
:1023A800FB685B6B1A4605F0DBFA0FE0FB681A6AFC
:1023B800FB685B6B13447A68B968184605F0D0FA75
:1023C800FB685A6B7B681A44FB685A63FB685A6B54
:1023D800FB689B6A9A4202D1FB6800225A63002379
:1023E80018461837BD4680BD80B584B000AF786008
:1023F8007B681B681846FFF779FD0346FB73FB7B78
:10240800012B29D17B689A6B7B685B6B9A421BD046
:102418007B6818687B681A6A7B689B6B13441B7817
:102428001946FFF726FF7B689B6B5A1C7B689B6AE3
:102438009A4203D17B6800229A630DE07B689B6B0C
:102448005A1C7B689A6307E07B681B681846FFF78D
:102458000FFE7B6800229A74FB7B18461037BD4636
:1024680080BD000080B500AF0248FFF7BDFF00BF88
:1024780080BD00BFA4010020B0B584B002AF786071
:102488007B685C687B681B7C1D467B681B681846FC
:10249800FFF7E3FE02467B68DB69194600230093D9
:1024A8000B4629462046FFF785FC7B6858687B6801
:1024B8001B7C19467B685B6A1A46FFF757FC7B68EA
:1024C8005A687B681B7C19461046FFF7AFFC7B688F
:1024D8001B681846FFF735FE7B681B685A697B68DE
:1024E8001B6842F040025A617B685A687B681B7C13
:1024F80019461046FFF71AFC00BF0837BD46B0BDA5
:10250800F0B585B002AF78607B689C687B685B7CBF
:102518001D467B681B6A1E467B681B681846FFF7CA
:102528009CFE034640220092324629462046FFF789
:1025380041FC7B689A687B685B7C19461046FFF70C
:1025480075FC7B681B681846FFF741FE00BF0C3717
:10255800BD46F0BD80B584B000AF78607B681B686D
:102568001A46604B9A4202D15F4BFB6002E000239F
:10257800FB6000BFFB68002B00F0AF80FB685A7D52
:102588007B685B7D1343DAB2FB685A75FB689A7DFA
:102598007B689B7D1343DAB2FB689A757B681A687F
:1025A800FB681A60FB6800221A83FB6800225A83C2
:1025B800FB681B681846FFF789FC7B685B7D03F0A6
:1025C8000103002B3CD07B685A6AFB685A627B681F
:1025D800DA69FB68DA61FB680022DA62FB680022CC
:1025E8001A637B681A7DFB681A75FB68002283F8FA
:1025F8003C20FB689B7D03F01003002B15D07B6803
:102608005A68FB685A607B681A7CFB681A74F86819
:10261800FFF732FFFB681B681846FFF7E3FCFB680F
:102628001B681846FFF7BBFC0AE0FB689B7D03F0BC
:102638000403002B04D0FB681B681846FFF769FCED
:102648007B685B7D03F00203002B27D07B689A6AC6
:10265800FB689A627B681A6AFB681A62FB68002248
:102668005A63FB6800229A63FB6800229A74FB682D
:102678000022DA74FB689B7D03F02003002B0DD049
:102688007B689A68FB689A607B685A7CFB685A7416
:10269800FB680022DA60F868FFF732FFFB681B6806
:1026A8001846FFF703FC7B681B681A460D4B9A42D5
:1026B80010D1FFF7B1FA0346002200211846FFF7B0
:1026C80001FB034619462620FFF7D2FA2620FFF71A
:1026D800B1FA02E00023FB6000BFFB681846103720
:1026E800BD4680BD00440040A401002080B584B0F0
:1026F80000AFF860B9607A603B60BB6900221A607D
:10270800FB685B8B03F08003002B01D0802353E030
:102718007B68002B4FD0FB685B8B43F080039AB239
:10272800FB685A833B687A68B968F868FFF7E2FD86
:102738000346012B08D1FB685B8B23F080039AB218
:10274800FB685A83402337E0FB689B7C002B28D129
:10275800FB681868FB681A6AFB689B6B13441B7854
:102768001946FFF786FDFB689B6B5A1CFB689B6A42
:102778009A4203D1FB6800229A6304E0FB689B6BD2
:102788005A1CFB689A63FB689A6BFB685B6B9A42FE
:1027980007D0FB6801229A74FB681B681846FFF78C
:1027A800DBFBBB697A681A60FB685B8B23F08003EC
:1027B8009AB2FB685A83002318461037BD4680BD7D
:1027C80080B582B000AF78607B681B681846FFF759
:1027D8007DFB7B689B7D03F02003002B0DD07B687D
:1027E8009A687B685B7C19461046FFF73FFB7B685D
:1027F8001B681846FFF70EFD0AE07B689B7D03F017
:102808000803002B04D07B681B681846FFF730FCD0
:102818007B689B7D03F01003002B17D07B681B6837
:102828001846FFF76BFC7B681B681846FFF743FCEC
:102838007B685A687B681B7C19461046FFF716FBB5
:102848007B681B681846FFF79FFC0AE07B689B7D46
:1028580003F00403002B04D07B681B681846FFF7BD
:10286800E4FB00BF0837BD4680BD000080B483B0DC
:1028780000AF03463960FB7197F90730002B0ADB7C
:102888003B68DAB20C4997F907301201D2B20B440F
:1028980083F800230AE03B68DAB20849FB7903F0C1
:1028A8000F03043B1201D2B20B441A7600BF0C3757
:1028B800BD465DF8047B704700E100E000ED00E0F4
:1028C80080B584B000AFF860B9607A60FB68DBB2AD
:1028D8000F3BDBB25BB279681846FFF7C7FF00BF52
:1028E8001037BD4680BD000080B483B000AF0346FA
:1028F800FB7197F90730002B0BDBFB7903F01F0204
:10290800074997F907305B09012000FA02F241F8FC
:10291800232000BF0C37BD465DF8047B704700BF1D
:1029280000E100E080B483B000AF0346FB7197F983
:102938000730002B12DBFB7903F01F020A4997F9D5
:1029480007305B09012000FA02F2203341F8232006
:10295800BFF34F8F00BFBFF36F8F00BF00BF0C37AF
:10296800BD465DF8047B704700E100E080B483B0A9
:1029780000AF78607B686FF004021A6000BF0C3704
:10298800BD465DF8047B704780B483B000AF7860C3
:102998007B685B6803F08003802B0CBF0123002356
:1029A800DBB218460C37BD465DF8047B704780B42F
:1029B80083B000AF78607B681B6843F001027B68D6
:1029C8001A6000BF0C37BD465DF8047B704780B4C1
:1029D80083B000AF78607B681B6823F001027B68D6
:1029E8001A6000BF0C37BD465DF8047B704780B4A1
:1029F80083B000AF786039607B681B6823F00402FD
:102A08003B681A437B681A6000BF0C37BD465DF807
:102A1800047B704780B483B000AF78607B681B6824
:102A280003F0040318460C37BD465DF8047B704775
:102A380080B483B000AF786039607B683A68DA6246
:102A480000BF0C37BD465DF8047B704780B483B087
:102A580000AF78607B68DB6A18460C37BD465DF8C6
:102A6800047B704780B483B000AF786039607B68BE
:102A78003A681A6300BF0C37BD465DF8047B70479F
:102A880080B483B000AF786039607B683A685A6375
:102A980000BF0C37BD465DF8047B704780B483B037
:102AA80000AF786039607B683A689A6300BF0C377A
:102AB800BD465DF8047B704780B483B000AF786092
:102AC80039607B683A68DA6300BF0C37BD465DF849
:102AD800047B704780B483B000AF78607B685B6B21
:102AE80018460C37BD465DF8047B704780B483B048
:102AF80000AF78607B689B6B18460C37BD465DF865
:102B0800047B704780B483B000AF78607B68DB6B70
:102B180018460C37BD465DF8047B704780B483B017
:102B280000AF78607B685B6943F001027B685A619B
:102B380000BF0C37BD465DF8047B704780B483B096
:102B480000AF786039607B683A689A6100BF0C37DB
:102B5800BD465DF8047B704780B483B000AF7860F1
:102B680039603B681A047B689A6100BF0C37BD4620
:102B78005DF8047B7047000080B584B000AF7860D2
:102B880087ED000AD7ED007AF5EEC07AF1EE10FA7B
:102B980003D54FF000033B600AE0D7ED007A9FEDC4
:102BA800167AF4EEC77AF1EE10FA01DD134B3B60AA
:102BB8007B681B681846FFF749FFF8607B681B793C
:102BC800002B0CBF01230023DBB21A46FB68134419
:102BD80007EE903AB8EE677AD7ED007A27EE277AB3
:102BE800DFED056AC7EE267AFCEEE77A17EE903A33
:102BF80018461037BD4680BD0000C8420000C842D4
:102C080080B582B000AF786039607B681B68184671
:102C1800FFF71CFF02463B68934205D07B681B68A0
:102C280039681846FFF704FF00BF0837BD4680BD66
:102C380080B582B000AF786039607B681B68184641
:102C4800FFF748FF02463B68934205D07B681B6844
:102C580039681846FFF714FF00BF0837BD4680BD26
:102C680080B582B000AF786039607B681B68184611
:102C7800FFF73CFF02463B68934205D07B681B6820
:102C880039681846FFF70AFF00BF0837BD4680BD00
:102C980080B582B000AF786039607B681B681846E1
:102CA800FFF730FF02463B68934205D07B681B68FC
:102CB80039681846FFF700FF00BF0837BD4680BDDA
:102CC80080B584B000AF786087ED000A97ED000A00
:102CD8007868FFF751FFF860F9687868FFF7A8FF90
:102CE80000BF1037BD4680BD80B584B000AF7860A6
:102CF80087ED000A97ED000A7868FFF73DFFF86056
:102D0800F9687868FFF7ACFF00BF1037BD4680BD93
:102D180080B584B000AF786087ED000A97ED000AAF
:102D28007868FFF729FFF860F9687868FFF7B0FF5F
:102D380000BF1037BD4680BD80B485B000AF786055
:102D48007B681B689B6803F00703FB60FB68062B26
:102D58000CBF01230023DBB218461437BD465DF8CB
:102D6800047B704780B584B000AF78600B46FB7079
:102D78007B681B681846FFF74DFEF860FB78002B50
:102D88000AD07B681B681E4A934205D17B681B6882
:102D980000211846FFF766FEFB68042B11D07B68FC
:102DA8001B6804211846FFF722FE7B681B6818463B
:102DB800FFF7B4FE7B681B68F9681846FFF717FE33
:102DC80004E07B681B681846FFF7A8FE7B681B6851
:102DD8001846FFF7ECFDFB78002B0CD07B681B68CE
:102DE800074A934207D17B681A687B685B79194662
:102DF8001046FFF737FE00BF1037BD4680BD00BF45
:102E08000000014080B582B000AF78607B681B6825
:102E18001846FFF7DCFD00BF0837BD4680BD00003F
:102E280080B58EB000AF87ED060B87ED041B87EDEC
:102E3800022B78603960D7E90423D7E90601FDF74A
:102E4800DFFD0346002B09D000237B6339684FF070
:102E580000024FF00003C1E900235DE0D7E9022337
:102E68004FF000002F49FDF779FC02460B46C7E9F1
:102E78000A23D7E90423D7E90601FDF78DF90246AD
:102E88000B46D7E90A01FDF73FFB02460B46C7E9A7
:102E980008237868FDF7BEFA02460B46D7E9080111
:102EA800FDF7A4FD0346002B2DD0D7E90801FDF757
:102EB800DBFD03467B63D7E90801FDF7D5FD034633
:102EC8001846FDF7A7FAD7E90223FDF71DFB0246CE
:102ED8000B4610461946D7E90423FDF75FF9024669
:102EE8000B46D7E90601FDF757F902460B4610468F
:102EF8001946D7E90A23FDF707FB02460B4639684E
:102F0800C1E9002308E07B68013B7B6339684FF027
:102F18000002044BC1E900237B6B18463837BD46D5
:102F280080BD00BF0000F03F80B586B000AFF860FC
:102F380087ED000BB960FB68DB00BA681344D3E97E
:102F48000023C7E90423FB680133DB00BA68134494
:102F5800D3E90001D7E90423FDF71EF902460B4621
:102F680010461946D7E90023FDF7CEFA02460B466C
:102F780010461946D7E90423FDF710F902460B4617
:102F880043EC172BB0EE470AF0EE670A1837BD4638
:102F980080BD000080B58CB002AF78607B680022ED
:102FA8001A727B6801225A600023BB6100233B74BC
:102FB800174BFB6100233B620023BB74002387F897
:102FC8002430012387F825300223FB6002237B7419
:102FD80007F10C004FF48013009302230022022112
:102FE800FDF7D4FF02467B68DA607B68DB68184629
:102FF800FEF75CF87B68DB6800211846FDF7BAFF2E
:103008007B6801221A7200BF2837BD4680BD00BF09
:1030180000200140F0B58BB000AF87ED020B87EDC3
:10302800001BD7E90223C7E908234FF000024FF03D
:103038000003D7E90001FDF7CFFC0346002B10D0B1
:103048004FF000024FF00003D7E90201FDF7C4FC7E
:103058000346002B00F01281D7E90023C7E90823B3
:103068000CE197ED020B00F07FFD0346002B0DD11C
:1030780097ED000B00F078FD0346002B06D197ED85
:10308800020B00F04DFD0346002B05D0814BD3E920
:103098000023C7E90823F1E04FF000024FF00003D6
:1030A800D7E90201FDF798FC0346002B0CD0D7E9BD
:1030B80000234FF000004FF00001FDF74FFB0246E0
:1030C8000B46C7E90823D9E097ED000B00F028FD6F
:1030D8000346002B29D001231C464FF000024FF075
:1030E8000003D7E90001FDF781FC0346002B01D15D
:1030F80000231C46E4B201231D464FF000024FF0A6
:103108000003D7E90201FDF771FC0346002B01D14A
:1031180000231D46EBB26340DBB2002B00F0AE800B
:10312800D7E90023C7E90823A8E097ED001B97ED2E
:10313800020B03F0F5FF87ED080B01231E464FF045
:1031480000024FF00003D7E90801FDF745FC0346EC
:10315800002B01D100231E46F3B2FB77FB7F002B27
:103168004ED197ED000B04F09BF853EC102BD7E9E8
:103178000001FDF759FC0346002B41D0D7E9002395
:10318800D7E90201FDF7EAFA02460B461146396112
:1031980023F000437B614FF000023F4BD7E9040165
:1031A800FCF7FCFF02460B4643EC172BB0EE470A30
:1031B800F0EE670A04F074F853EC102BD7E9040119
:1031C800FCF7EAFF02460B46144623F000454FF091
:1031D8000002324BD7E90401FDF796F902460B4687
:1031E80001210E4620462946FDF71EFC0346002B0A
:1031F80001D100231E46F3B283F00103DBB2FB7753
:10320800FB7F002B0CD04FF000024FF00003D7E9F2
:103218000001FDF779F902460B46C7E908232DE0BE
:1032280001231C464FF000024FF00003D7E90201CA
:10323800FDF7DCFB0346002B01D100231C46E4B25A
:1032480001231D464FF000024FF00003D7E90001AB
:10325800FDF7CCFB0346002B01D100231D46EBB242
:103268006340DBB2002B09D0D7E90023D7E9080176
:10327800FCF794FF02460B46C7E90823D7E9082361
:1032880043EC172BB0EE470AF0EE670A2C37BD4621
:10329800F0BD00BF700000200000E03F0000B03C1F
:1032A80080B584B000AF87ED000B38687B6823F0E9
:1032B80000414FF000022F4BFDF798FB0346002B0F
:1032C80048D04FF000022C4BD7E90001FDF7A2FBD4
:1032D8000346002B13D04FF00002274BD7E900011B
:1032E800FCF75CFF02460B4643EC172BB0EE470A8F
:1032F800F0EE670A03F0D4FF87ED020B2EE04FF0E3
:1033080000021E4BD7E90001FDF78EFB0346002B98
:103318000CD04FF000024FF00003D7E90001FDF791
:10332800F3F802460B46C7E9022317E04FF0000204
:10333800114BD7E90001FCF72FFF02460B4643EC7F
:10334800172BB0EE470AF0EE670A03F021FF87ED6E
:10335800020B03E0D7E90023C7E90223D7E90223D8
:1033680043EC172BB0EE470AF0EE670A1037BD465C
:1033780080BD00BF000030430000E03F0000E0BF18
:1033880080B5A6B000AF78601D4BBB6000233B73CF
:1033980000237B7307F108031846FEF7D5FB0246A6
:1033A8007B68DA607B68DB6800211846FEF757F90E
:1033B8007B68DB6804211846FEF786FA7B68DB68C1
:1033C80004211846FEF7E8FA7B68DB6804211846F2
:1033D800FEF74AFB7B68DB681846FFF7ADFC03463F
:1033E80087F8973097F89730002B05D17B68DB6812
:1033F80001211846FFF7B6FC00BF9837BD4680BDCF
:103408000000014080B592B000AF78607B6810334F
:10341800BB6202237B770823BB770A4BBB60002380
:103428003B6100237B7680233B6307F10803184642
:10343800FFF790F802467B68DA6000BF4837BD4660
:1034480080BD00BF00440040B0B58AB002AF744BE5
:1034580093ED087BB0EE470AF0EE670AFFF720FF0E
:1034680087ED040B4FF000026E4BD7E90401FDF71E
:10347800BDFA0346002B14D04FF000024FF00003B2
:10348800D7E90401FDF7C6FA0346002B06D0D7E9B1
:103498000401FDF7E9FA03467B6005E000237B6041
:1034A80002E04FF0FF337B605F4BD3F8AC307A68B3
:1034B80011461846FEF78EFB03467B605A4BD3F83D
:1034C800AC307A6811461846FFF79AFB564BD3F88A
:1034D800AC40534BD3E90A2310461946FDF7E4FAEA
:1034E800034600EE103A2046FFF7EAFB4E4BD3F8AE
:1034F800AC404B4BD3E90C2310461946FDF7D4FAE0
:10350800034600EE103A2046FFF7EEFB464BD3F891
:10351800AC40434BD3E90C2310461946FDF7C4FAD7
:10352800034600EE103A2046FFF7F2FB3F4BD3E983
:103538000023C7E90423D7E90401FDF7B5FA0346D8
:10354800BB60394BD86807F108013B1D0093002385
:103558000422FFF7CBF8344BD3F8B4301846FCF705
:1035680069FF2F4BD3E91223FDF740FA0346002BDE
:1035780008D02D4BD3F8B430002B03DB284BD3E90C
:103588000E2303E04FF000024FF00003C7E90423C5
:10359800254BD3F8B4301846FCF74CFF04460D46CB
:1035A8001F4BD3E910014FF00002214BFCF7F4FD4B
:1035B80002460B4620462946FDF72CFA0346002B07
:1035C80004D0194B0022C3F8B42006E0164BD3F8F8
:1035D800B4300133144AC2F8B430164BFB604FF0D4
:1035E80000024FF00003D7E90401FDF7F5F903469F
:1035F800002B02D12023FB6101E00023FB61FB6962
:103608001946F868FFF79AFAFB69DB4303F02003D1
:103618001946F868FFF7A0FA00BF2037BD46B0BDCD
:10362800000000200000F041F0010020E801002027
:103638000000F03F0000024080B500AF1C4B1B6E3D
:103648001C4AC2F8B0301B4B0022C3F89420194B17
:10365800002283F890201848FFF79CFC144BD3E90C
:1036680002231649C1E90023124B002283F8A02047
:10367800104B002283F8A8200E4B0122C3F8A42087
:103688000F48FFF77DFE0B4B012283F8A820094B5A
:1036980000221A70074B00221A72064B01225A6048
:1036A8000448FFF7AFFE034B01221A7200BF80BD2A
:1036B80000000020F001002080020020E801002026
:1036C8009002002080B500AF324B93F8A030002B59
:1036D8002FD1304B012283F8A0202E4BD3F8A430F1
:1036E800012B26D12B4B93F8A830002B21D0294B46
:1036F800D3F8AC301846FFF785FB264BD3F8AC302F
:1037080000211846FEF745F8224BD3F8AC300421C7
:103718001846FEF70DF91F4BD3F8AC3004211846B4
:10372800FEF76EF91B4BD3F8AC3004211846FEF7B0
:10373800D3F9184B93F89030002B15D1154B012273
:1037480083F89020134BD3F89430012B0CD1114BF4
:1037580093F89830002B07D00E4BD3F89C300022FA
:1037680002211846FDF715FD0A4B1B78002B0FD1D7
:10377800084B01221A70074B5B68012B08D1054BD7
:103788001B7A002B04D0034BDB681846FFF718F8A8
:1037980000BF80BDF001002080B500AF02220449BF
:1037A8002120FFF78DF81220FFF79EF800BF80BD9B
:1037B800C1370008000000002DE9B04F8AB000AF03
:1037C8007D48FFF7E1F80346002B07D07B48FDF75B
:1037D800B6FB0346002B01D0012300E00023002B99
:1037E80000F0D0807448FFF7C1F8754B1B78DBB246
:1037F800012B40F0C780734BD3F89C3007F10C02C3
:1038080002211846FDF767FC6F4B9B6D00229A4614
:1038180093466C4BD3F8B03000229846914608FB8B
:103828000BF20AFB09F31344AAFB08452B441D4677
:1038380020462946FCF732FE4FF00002634BFCF7A6
:1038480063FE02460B4643EC162B5F4B93ED067B5B
:10385800B0EE471AF0EE671AB0EE460AF0EE660AC6
:10386800FFF7D8FB51EC100B4DA3D3E90023FCF76D
:1038780075FF02460B46C7E908234FF000024FF0D8
:103888000003D7E90801FDF7B1F80346002B0AD079
:103898004FF000024E4BD7E90801FCF77FFC0246C7
:1038A8000B46C7E908234FF000024A4BD7E9080145
:1038B800FDF7BAF80346002B0DD04FF00002454B38
:1038C800D7E90801FCF768FC02460B46C7E908235C
:1038D8000123FB7701E00023FB774FF000023E4B0A
:1038E800D7E90801FDF7A0F80346002B0AD0D7E96D
:1038F80008234FF000003749FCF74EFC02460B4600
:10390800C7E9082307F1100319460F209FED262B5E
:103918009FED271B97ED080BFFF782FAB86197ED2B
:10392800047B2E49B0EE470AF0EE670AB869FFF744
:10393800FBFA87ED080BFB7F002B09D03B6A3B6045
:103948007B6A83F000437B6097ED007B87ED087B03
:103958002349D7E90823C1E900231A4BD3F8B0203B
:10396800194B5B6E1344174AC2F8B030154BD3F8A5
:10397800B020154B1B689A4204D9134BDB6D114AD2
:10398800C2F8B030BFF36F8F00BFBFF34F8F00BFD7
:1039980000BF2837BD46BDE8B08F00BFAFF3008039
:1039A800182D4454FB211940111111111111913F87
:1039B800000000000000000000200140FC00002082
:1039C800B2020020F0010020000000200000603D4D
:1039D8000000F03F0000E03F0000D03FB079000851
:1039E800E801002080B500AF1220FEF79BFF00BF62
:1039F80080BD000080B500AF0F4B1B785A1CD1B2B8
:103A08000D4A1170002B09D00C4B01221A600A4B89
:103A18001B78013BDAB2084B1A700BE062B600BFA4
:103A2800FFF712FD72B600BF034B1B78013BDAB2F9
:103A3800014B1A7080BD00BFB0020020AC0200200C
:103A480080B584B000AF786039602F4BFB602F4B96
:103A5800BB602F4B00221A702E4B00221A7001DF18
:103A680002F092FA01F00CF800F094F801F0DEFA96
:103A780001F0B0FA01F02CFA01F05EF901F050F80B
:103A8800254B1B6800221A60FFF786FEFFF7D4FD5E
:103A980072B600BF97ED030A00F03AF91E4B1B6897
:103AA8001B68002B0CBF01230023DBB21A46194BFD
:103AB8001A7062B600BF62B600BF15E0164B1B68ED
:103AC8001B68002B14BF01230023DBB21A46104BDE
:103AD8001A700F4B1B78DBB2002B05D00F4B1B68FD
:103AE8000E4A23F0010313600A4B1B78DBB2002B4C
:103AF800E4D1FFF7E7FDFFF775FF72B600BF0023BB
:103B080018461037BD4680BDCDCCCC3D0000A8423C
:103B1800B1020020B2020020A879000810E000E0FD
:103B280080B582B000AF87ED000B0D4BD3E90023C1
:103B3800D7E90001FCF750FF0346002B09D1094BD8
:103B4800D3E90023D7E90001FCF746FF0346002B21
:103B580001D0012300E0002318460837BD4680BD88
:103B6800780000208000002080B582B000AF87ED8B
:103B7800000BD7E90023D7E90001FCF75FFF0346F4
:103B8800002B01D0012300E0002318460837BD466A
:103B980080BD000080B400AF00BFBD465DF8047B67
:103BA800704700BF10B50E4C82B0636A019302F0F3
:103BB80021FA0090626A019B9A4207D3009B019800
:103BC8004FF47A7202FB030002B010BD02F012FA41
:103BD800636A4FF47A7202FB003002B010BD00BF76
:103BE800000C004010B5044641B9FFF7DBFFA042C6
:103BF800A0EB040038BF00F1FF3010BD02F0FAF965
:103C0800A042A0EB040038BF00F1FF3010BD00BF98
:103C180080B483B000AF03463960FB7197F9073071
:103C2800002B0ADB3B68DAB20C4997F9073012011E
:103C3800D2B20B4483F800230AE03B68DAB20849A1
:103C4800FB7903F00F03043B1201D2B20B441A763E
:103C580000BF0C37BD465DF8047B704700E100E00B
:103C680000ED00E080B582B000AF78607B68013B72
:103C7800B3F1807F01D301230FE00A4A7B68013B3F
:103C880053600F214FF0FF30FFF7C2FF054B0022B2
:103C98009A60044B07221A60002318460837BD466D
:103CA80080BD00BF10E000E080B500AFBFF34F8FCC
:103CB80000BFBFF36F8F00BF0B4B1A680B4B1B681D
:103CC8009A4202D3084B00221A60074B1B685A1C01
:103CD80005490A60002B05D172B600BFFFF78AFEBE
:103CE80062B600BF00BF80BDB4020020B802002049
:103CF80080B400AF054B5B68044A43F080535360BF
:103D080000BFBD465DF8047B704700BF00ED00E0D2
:103D180080B584B000AF87ED010A254B1B6807EE1C
:103D2800903AB8EE677AD7ED017A67EE277AFCEE1B
:103D3800E77A17EE903AFB60FB68B3F1807F18D3FF
:103D4800FB6807EE903AB8EE677ADFED1A6AC7EEBD
:103D5800267AFCEEE77A17EE903A0133164A13609A
:103D6800154B1B68FA68B2FBF3F31846FFF77AFFA6
:103D780005E0114B00221A60F868FFF773FF0F4B3C
:103D880000221A6003214FF0FF30FFF741FF0C4A71
:103D98000C4B1A600F216FF00400FFF739FF0F2159
:103DA8006FF00100FFF734FF00BF1037BD4680BD3C
:103DB8008C000020FFFF7F4BB8020020B4020020D7
:103DC800B13C0008BC020020EFF3008001B5EFF31E
:103DD800118003B41EF0100F08BFB0EE400A0A4865
:103DE800006803B488B004A006904FF08070079074
:103DF8006FF006008646704703BC8047BFF36F8F9D
:103E080000DFFEE700BF0000BC0200201EF0100F1C
:103E180008BFB0EE400A1EF0040F0CBFEFF3088095
:103E2800EFF30980816911F8020C10B101280DD057
:103E38000BE01EF0100F0CBF1AB008B003BC80F3E3
:103E4800118803BC80F300880847FEE74EF614513A
:103E5800CEF200010A6842F001020A607047F4E7F6
:103E680000BF00BF80B400AF044BDB681B0A03F03F
:103E780007031846BD465DF8047B704700ED00E077
:103E880080B483B000AF0346FB7197F90730002B6D
:103E98000BDBFB7903F01F02074997F907305B0931
:103EA800012000FA02F241F8232000BF0C37BD467A
:103EB8005DF8047B704700BF00E100E080B483B088
:103EC80000AF03463960FB7197F90730002B0ADB16
:103ED8003B68DAB20C4997F907301201D2B20B44A9
:103EE80083F800230AE03B68DAB20849FB7903F05B
:103EF8000F03043B1201D2B20B441A7600BF0C37F1
:103F0800BD465DF8047B704700E100E000ED00E08D
:103F180080B489B000AFF860B9607A60FB6803F0DC
:103F28000703FB61FB69C3F10703042B28BF0423C4
:103F3800BB61FB690433062B02D9FB69033B00E034
:103F480000237B614FF0FF32BB6902FA03F3DA43C7
:103F5800BB681A407B699A404FF0FF317B6901FAD0
:103F680003F3D9437B680B40134318462437BD46F7
:103F78005DF8047B704780B489B000AFF860B96021
:103F88007A60FB682C331946BB6803F440734FF41E
:103F980040727A617A6992FAA2F23A613A69BA6130
:103FA800BA69002A01D1202203E0BA69B2FA82F282
:103FB800D2B2D3409B000B44FB61FB691A68BB6813
:103FC80003F01F031F2101FA03F3DB431A407B6848
:103FD80003F01F01BB6803F01F0301FA03F31A4340
:103FE800FB691A6000BF2437BD465DF8047B704743
:103FF80080B483B000AF786039607B689B6823F435
:1040080080623B681A437B689A6000BF0C37BD46E4
:104018005DF8047B704780B487B000AFF860B96082
:104028007A60FB689B6B1B0D03F0030301337B6114
:10403800FB689A6BBB68D9B27B69DBB2CB1ADBB27F
:104048000333DBB219460B469B000B441F2101FAD0
:1040580003F3DB431A407B6803F01F01BB68D8B247
:104068007B69DBB2C31ADBB20333DBB21846034603
:104078009B00034401FA03F31A43FB689A6300BFE9
:104088001C37BD465DF8047B704780B489B000AF2B
:10409800F860B9607A60FB6814331946BB6803F4AA
:1040A80040534FF440527A617A6992FAA2F23A6127
:1040B8003A69BA61BA69002A01D1202203E0BA69D3
:1040C800B2FA82F2D2B2D3409B000B44FB61FB6987
:1040D8001B6823F47F6323F00F037A681A43FB6994
:1040E8001A6000BF2437BD465DF8047B704780B472
:1040F8008FB000AFF860B9607A60FB680C3319467E
:10410800BB6803F000734FF000727A617A6992FA23
:10411800A2F23A613A69BA61BA69002A01D1202249
:1041280003E0BA69B2FA82F2D2B2D3409B000B44E0
:104138007B637B6B1A68BB6803F0F8734FF0F87108
:104148003962396A91FAA1F1F961F9697962796A92
:10415800002901D1202103E0796AB1FA81F1C9B2BD
:10416800CB40072101FA03F3DB431A40BB6803F095
:10417800F8734FF0F871F962F96A91FAA1F1B9622E
:10418800B96A3963396B002901D1202103E0396B01
:10419800B1FA81F1C9B2CB40796801FA03F31A4345
:1041A8007B6B1A6000BF3C37BD465DF8047B7047E7
:1041B80080B483B000AF786039607B689A683B68E8
:1041C8001A437B689A6000BF0C37BD465DF8047BD4
:1041D8007047000080B485B000AFF860B9607A60BD
:1041E8000D4ABB6813441B781A46FB6813441B68C6
:1041F80023F0C0020849BB680B441B781946FB68CA
:104208000B4419467B6813430B6000BF1437BD4647
:104218005DF8047B704700BF307A000880B485B031
:1042280000AFF860B9607A600D4ABB6813441B7828
:104238001A46FB6813441B6823F490720849BB684C
:104248000B441B781946FB680B4419467B681343DB
:104258000B6000BF1437BD465DF8047B704700BF94
:10426800307A000880B485B000AFF860B9607A6031
:104278000D4ABB6813441B781A46FB6813441B6835
:1042880023F400720849BB680B441B781946FB6885
:104298000B4419467B6813430B6000BF1437BD46B7
:1042A8005DF8047B704700BF307A000880B485B0A1
:1042B80000AFF860B9607A600D4ABB6813441B7898
:1042C8001A46FB6813441B6823F480620849BB68DC
:1042D8000B441B781946FB680B4419467B6813434B
:1042E8000B6000BF1437BD465DF8047B704700BF04
:1042F800307A000880B485B000AFF860B9607A60A1
:104308000D4ABB6813441B781A46FB6813441B68A4
:1043180023F4C0520849BB680B441B781946FB6854
:104328000B4419467B6813430B6000BF1437BD4626
:104338005DF8047B704700BF307A000880B485B010
:1043480000AFF860B9607A600D4ABB6813441B7807
:104358001A46FB6813441B6823F4C0420849BB682B
:104368000B441B781946FB680B4419467B681343BA
:104378000B6000BF1437BD465DF8047B704700BF73
:10438800307A000880B485B000AFF860B9607A6010
:104398000D4ABB6813441B781A46FB6813441B6814
:1043A80023F440320849BB680B441B781946FB6864
:1043B8000B4419467B6813430B6000BF1437BD4696
:1043C8005DF8047B704700BF307A000880B485B080
:1043D80000AFF860B9607A600D4ABB6813441B7877
:1043E8001A46FB6813441B6823F060620849BB68DF
:1043F8000B441B781946FB680B4419467B6813432A
:104408000B6000BF1437BD465DF8047B704700BFE2
:10441800307A000880B483B000AF786039600C4A05
:104428003B6813441B781A467B6813445B69084948
:104438003A680A44127811467A680A4423F0040359
:10444800536100BF0C37BD465DF8047B704700BF61
:10445800307A000880B400AF054B1B68044A43F06B
:104468000103136000BFBD465DF8047B704700BFC1
:104478000038024080B400AF064B1B6803F002030B
:10448800022B0CBF01230023DBB21846BD465DF8A2
:10449800047B70470038024080B483B000AF786076
:1044A800074B1B6823F0F8027B68DB0004491343C1
:1044B8000B6000BF0C37BD465DF8047B704700BF3A
:1044C8000038024080B483B000AF7860064B9B6828
:1044D80023F0030204497B6813438B6000BF0C3749
:1044E800BD465DF8047B70470038024080B400AFD9
:1044F800044B9B6803F00C031846BD465DF8047B2B
:10450800704700BF0038024080B483B000AF7860C5
:10451800064B9B6823F0F00204497B6813438B60C9
:1045280000BF0C37BD465DF8047B70470038024079
:1045380080B483B000AF7860064B9B6823F4E052E8
:1045480004497B6813438B6000BF0C37BD465DF898
:10455800047B70470038024080B483B000AF7860B5
:10456800064B9B6823F4604204497B6813438B60C5
:1045780000BF0C37BD465DF8047B70470038024029
:1045880080B483B000AF7860074BD3F88C3023F049
:10459800807205497B681343C1F88C3000BF0C3723
:1045A800BD465DF8047B70470038024080B400AF18
:1045B800054B1B68044A43F08073136000BFBD4677
:1045C8005DF8047B704700BF0038024080B400AF3C
:1045D800074B1B6803F00073B3F1007F0CBF012386
:1045E8000023DBB21846BD465DF8047B704700BF68
:1045F8000038024080B485B000AFF860B9607A60D6
:104608003B600D4B5A680D4B1340F968BA6811436B
:104618007A6892010A43084913434B60064B5B686A
:1046280023F4403204493B6813434B6000BF1437FE
:10463800BD465DF8047B7047003802400080BFFF2C
:1046480080B485B000AF7860084B1A6B07497B6867
:1046580013430B63054B1A6B7B681340FB60FB68C5
:1046680000BF1437BD465DF8047B70470038024030
:1046780080B485B000AF7860084B1A6C07497B6836
:1046880013430B64054B1A6C7B681340FB60FB6893
:1046980000BF1437BD465DF8047B70470038024000
:1046A80080B485B000AF7860084B5A6C07497B68C6
:1046B80013434B64054B5A6C7B681340FB60FB68E3
:1046C80000BF1437BD465DF8047B704700380240D0
:1046D80080B487B000AF78603960174A3B68DBB2B6
:1046E800023352F823203B681B0CDB4302EA030128
:1046F8003B681B0C3B613B6993FAA3F3FB60FB68C7
:104708007B617B69002B01D1202303E07B69B3FA2D
:1047180083F3DBB21A467B6803FA02F206483B6869
:10472800DBB20A43023340F8232000BF1C37BD46E2
:104738005DF8047B704700BF0038014080B483B047
:1047480000AF7860064B1B6823F0070204497B68BA
:1047580013430B6000BF0C37BD465DF8047B704700
:10476800003C024080B400AF044B1B6803F0070311
:104778001846BD465DF8047B704700BF003C024008
:1047880080B483B000AF7860064B1B6823F44042C6
:1047980004497B6813430B6000BF0C37BD465DF8C6
:1047A800047B70470070004080B483B000AF78602D
:1047B8007B681B6843F080027B681A6000BF0C3777
:1047C800BD465DF8047B704780B485B000AF786063
:1047D80039603B68012B1CD03B68042B17D03B6821
:1047E800102B12D03B68402B0DD03B68B3F5807F6F
:1047F80007D03B68B3F5806F01D105230AE0062393
:1048080008E0042306E0032304E0022302E0012376
:1048180000E00023FB737B6818331946FB7B0B4AC7
:10482800D35C0B44BB60BB681A68FB7B0849CB5C54
:10483800194604238B40DB431A40BB681A6000BF4B
:104848001437BD465DF8047B704700BF387A00080E
:10485800407A000880B485B000AF786039603B6862
:10486800012B1CD03B68042B17D03B68102B12D0AF
:104878003B68402B0DD03B68B3F5807F07D03B6881
:10488800B3F5806F01D105230AE0062308E004236D
:1048980006E0032304E0022302E0012300E00023F2
:1048A800FB737B6818331946FB7B0A4AD35C0B44BD
:1048B800BB60BB681A68FB7B0749CB5C19460823B9
:1048C8008B401A43BB681A6000BF1437BD465DF8B9
:1048D800047B7047387A0008407A000880B483B0B7
:1048E80000AF786039607B685B6823F070023B68D2
:1048F8001A437B685A6000BF0C37BD465DF8047BDD
:10490800704780B483B000AF78607B689B6843F0E1
:1049180080027B689A6000BF0C37BD465DF8047B57
:10492800704780B483B000AF78607B68DB6843F47D
:1049380000527B68DA6000BF0C37BD465DF8047B27
:10494800704780B483B000AF78607B681B6923F43C
:1049580090427B681A617B685B6923F02A027B6856
:104968005A6100BF0C37BD465DF8047B704780B4C0
:104978008BB000AFF860B9607A60FB681A68BB68F2
:104988007B617B6993FAA3F33B613B69BB61BB69BC
:10499800002B01D1202303E0BB69B3FA83F3DBB218
:1049A8005B00032101FA03F3DB431A40BB683B6257
:1049B8003B6A93FAA3F3FB61FB697B627B6A002B7A
:1049C80001D1202303E07B6AB3FA83F3DBB25B00F7
:1049D800796801FA03F31A43FB681A6000BF2C37A1
:1049E800BD465DF8047B704780B48BB000AFF860BB
:1049F800B9607A60FB68DA68BB687B617B6993FAA7
:104A0800A3F33B613B69BB61BB69002B01D1202348
:104A180003E0BB69B3FA83F3DBB25B00032101FA5D
:104A280003F3DB431A40BB683B623B6A93FAA3F388
:104A3800FB61FB697B627B6A002B01D1202303E0C9
:104A48007B6AB3FA83F3DBB25B00796801FA03F39C
:104A58001A43FB68DA6000BF2C37BD465DF8047B5B
:104A6800704780B483B000AF786039603B681A043F
:104A78007B689A6100BF0C37BD465DF8047B7047C0
:104A880080B500AF0220FFF759FE00BFFFF76AFEAE
:104A98000346022BFAD14FF40040FFF771FE1020B5
:104AA800FFF7FAFCFFF7D6FC00BFFFF7E3FC03466D
:104AB800012BFAD14FF480334FF4A8721021002053
:104AC800FFF798FDFFF772FD00BFFFF77FFD034674
:104AD800012BFAD10020FFF717FD4FF48050FFF7A4
:104AE80027FD0020FFF738FD0220FFF7EBFC00BF91
:104AF800FFF7FCFC0346082BFAD1084800F0E8FF52
:104B0800002000F06DFB0346002B01D000F00CFBE9
:104B18000020FFF735FD00BF80BD00BF00BD0105C7
:104B280080B594B000AF07F1440300221A605A60C0
:104B38009A6007F1300300221A605A609A60DA60BE
:104B48001A610023FB6207F11C0300221A605A60F5
:104B58009A60DA603B1D00221A605A609A60DA6037
:104B68001A615A614FF48070FFF79AFD0420FFF72D
:104B780067FD0120FFF764FD0220FFF761FD0323B5
:104B88007B600323BB6000237B613B1D19466248A1
:104B980000F0CBFC03237B600323BB6000237B6115
:104BA8003B1D19465D4800F0C0FC02237B600323CF
:104BB800BB6000237B613B1D1946594800F0B5FCDA
:104BC800002200215748FFF701FC00220021554828
:104BD800FFF700FB002200215248FFF7D3FB002219
:104BE80000215048FFF71AFB002200214D48FFF72B
:104BF80039FB4FF4806200214A48FFF757FB4FF416
:104C0800006200214748FFF775FB4FF4005200216E
:104C18004448FFF793FB00214248FFF7FBFB0023C2
:104C28007B640023BB644FF48073FB6407F1440387
:104C380019463D4800F064FD00233B6300237B6375
:104C48000023BB630023FB634FF480733B6407F1CD
:104C580030031946344800F07FFD00213248FFF741
:104C6800C7F94FF48033FB6207F12C0319462F482C
:104C780000F028FD2E4A4FF400712B48FFF77BF90E
:104C880000222B492848FFF732FA4FF48813FB61BA
:104C98004FF480133B6200237B620023BB6207F161
:104CA8001C031946204800F099FD4FF000720121BD
:104CB8001D48FFF7B0F900224FF000711A48FFF7BE
:104CC80016FA002201211848FFF7DFF94FF4801186
:104CD8001548FFF76DFA07F11C031946124800F052
:104CE8007DFD144A41F202110F48FFF794F90022A2
:104CF80010490D48FFF7FBF9002241F202110A485A
:104D0800FFF7C3F94FF480110748FFF751FA00BFC6
:104D18005037BD4680BD00BF000802400000024079
:104D280000040240006402400020014000230140CA
:104D38000900B0030B00300080B59AB000AF07F14E
:104D4800540300221A605A609A60DA601A6107F107
:104D5800340320220021184602F0D0FD07F11C037D
:104D680000221A605A609A60DA601A615A613B1D23
:104D780000221A605A609A60DA601A615A6101204A
:104D8800FFF78EFC0023A7F854304023BB6540F69C
:104D98003403FB6500233B6601237B6607F154035C
:104DA8001946484801F024FC4648FFF7FDFC01215C
:104DB8004448FFF74FFD60237B630023BB63002358
:104DC800FB6300233B6400237B640223BB64002352
:104DD800FB6400233B6507F134031A460121394877
:104DE80001F080FC01213748FFF7EEFC102135481F
:104DF800FFF730FD07F134031A461021314801F05E
:104E080071FC10212F48FFF7DFFC4FF480712D480B
:104E1800FFF720FD07F134031A464FF48071294843
:104E280001F060FC4FF480712648FFF7CDFC20218B
:104E38002448FFF753FD2348FFF763FD0023FB6178
:104E480000233B6200237B62002387F8283000237D
:104E58007B854FF40053FB6200233B6307F11C037F
:104E68001946184801F07FFC0120FFF7E9FB0220F2
:104E7800FFF7E6FB4FF4F0637B600223BB6000237F
:104E8800FB6000233B6100237B610123BB613B1D69
:104E980019460D4800F049FB48F201037B600223E4
:104EA800BB600023FB6000233B6100237B6101237F
:104EB800BB613B1D1946054800F037FB00BF68374A
:104EC800BD4680BD000001400000024000040240D1
:104ED80080B58EB000AF07F11C0300221A605A603B
:104EE8009A60DA601A615A619A613B1D00221A6061
:104EF8005A609A60DA601A615A614FF40030FFF71D
:104F0800B7FB0120FFF79CFB0C237B600223BB60EF
:104F18000023FB6000233B6100237B610723BB6107
:104F28003B1D1946284800F000FB4FF000620521A0
:104F38002648FFF74BFA002205212448FFF74AF9D3
:104F48004FF4403205212148FFF71CFA00220521C1
:104F58001E48FFF763F9002205211C48FFF782F974
:104F68004FF4806205211948FFF7A0F900220521B6
:104F78001648FFF7BFF9002205211448FFF7DEF9AC
:104F880005211248FFF746FA4FF4E133FB6100238D
:104F98003B6200237B620023BB620C23FB6200237D
:104FA8003B6300237B6307F11C031946084802F0A2
:104FB80017F80748FFF7C5FC0548FFF7B2FC00BF24
:104FC8003837BD4680BD00BF000002400060024087
:104FD8000044004080B500AF4FF40010FFF730FBED
:104FE8004FF48000FFF72CFBFEF73CFF034600223E
:104FF80000211846FEF78CFF034619461020FEF7DD
:105008005DFF1020FEF73CFFFEF72CFF0346002251
:1050180000211846FEF77CFF034619463820FEF7A4
:105028004DFF3820FEF72CFF00BF80BD80B588B04B
:1050380000AF07F1180300221A605A603B460022AD
:105048001A605A609A60DA601A615A610420FFF7A0
:10505800F7FA8020FFF7F4FA0120FFF7F1FA0220AF
:10506800FFF7EEFA20212448FFF7FBFC4FF480718C
:105078002248FFF7F6FC22490220FFF729FB4FF4EC
:105088000053BB6101233B7700237B770223BB7767
:1050980007F11803184600F0C3FD00224FF4005131
:1050A8001648FFF7A1FC00224FF400511348FFF700
:1050B8005EFC20233B6001237B600023BB60002350
:1050C800FB6000233B613B4619460B4800F02DFA74
:1050D8004FF480733B6001237B600023BB60002397
:1050E800FB6000233B613B461946044800F01DFA6B
:1050F80000BF2037BD4680BD0000024000080240C6
:105108000300F00080B582B000AF78607B681B6850
:10511800044A934201D100F059FF00BF0837BD4649
:1051280080BD00BF000C004080B400AF72B600BF65
:10513800FEE780B400AFFEE780B400AFFEE780B4BE
:1051480000AFFEE780B400AFFEE780B400AFFEE733
:1051580080B400AF00BFBD465DF8047B704780B4E3
:1051680000AF00BFBD465DF8047B704780B500AF57
:10517800024801F007F800BF80BD00BFC002002050
:1051880080B400AF00BFBD465DF8047B70470000E7
:1051980080B582B000AF00237B60104B5B6C0F4A78
:1051A80043F4804353640D4B5B6C03F480437B6092
:1051B8007B6800233B60094B1B6C084A43F0805313
:1051C8001364064B1B6C03F080533B603B6807205D
:1051D80000F0A5FE00BF0837BD4680BD003802407C
:1051E80080B58CB000AF78600023FB620023BB62FF
:1051F80000227968322000F09DFE322000F0B6FED1
:105208000023FB601F4B1B6C1E4A43F0080313640A
:105218001C4B1B6C03F00803FB60FB6807F11002D2
:1052280007F114031146184600F09AFD00F084FDBA
:1052380003465B00FB62FB6A134AA2FB03239B0C39
:10524800013BBB62114B124A1A60104B40F2E73225
:10525800DA600E4ABB6A53600C4B00221A610B4B92
:1052680000229A60094800F0D1FE0346002B04D1C1
:10527800064800F025FF034600E0012318463037B2
:10528800BD4680BD0038024083DE1B43C0020020BB
:10529800000C004080B48BB000AFF860B9607A6051
:1052A800FB681A68BB687B617B6993FAA3F33B616F
:1052B8003B69BB61BB69002B01D1202303E0BB69BB
:1052C800B3FA83F3DBB25B00032101FA03F3DB4398
:1052D8001A40BB683B623B6A93FAA3F3FB61FB6924
:1052E8007B627B6A002B01D1202303E07B6AB3FA3F
:1052F80083F3DBB25B00796801FA03F31A43FB68B6
:105308001A6000BF2C37BD465DF8047B704780B437
:1053180085B000AFF860B9607A60FB685A68BB680E
:10532800DB431A40BB68796801FB03F31A43FB6847
:105338005A6000BF1437BD465DF8047B704780B4DF
:105348008BB000AFF860B9607A60FB689A68BB6898
:105358007B617B6993FAA3F33B613B69BB61BB69E2
:10536800002B01D1202303E0BB69B3FA83F3DBB23E
:105378005B00032101FA03F3DB431A40BB683B627D
:105388003B6A93FAA3F3FB61FB697B627B6A002BA0
:1053980001D1202303E07B6AB3FA83F3DBB25B001D
:1053A800796801FA03F31A43FB689A6000BF2C3747
:1053B800BD465DF8047B704780B48BB000AFF860E1
:1053C800B9607A60FB68DA68BB687B617B6993FACD
:1053D800A3F33B613B69BB61BB69002B01D120236F
:1053E80003E0BB69B3FA83F3DBB25B00032101FA84
:1053F80003F3DB431A40BB683B623B6A93FAA3F3AF
:10540800FB61FB697B627B6A002B01D1202303E0EF
:105418007B6AB3FA83F3DBB25B00796801FA03F3C2
:105428001A43FB68DA6000BF2C37BD465DF8047B81
:10543800704780B48BB000AFF860B9607A60FB68E1
:105448001A6ABB687B617B6993FAA3F33B613B698A
:10545800BB61BB69002B01D1202303E0BB69B3FA10
:1054680083F3DBB29B000F2101FA03F3DB431A40FD
:10547800BB683B623B6A93FAA3F3FB61FB697B62FF
:105488007B6A002B01D1202303E07B6AB3FA83F304
:10549800DBB29B00796801FA03F31A43FB681A62CE
:1054A80000BF2C37BD465DF8047B704780B48BB0D5
:1054B80000AFF860B9607A60FB685A6ABB681B0A7B
:1054C8007B617B6993FAA3F33B613B69BB61BB6971
:1054D800002B01D1202303E0BB69B3FA83F3DBB2CD
:1054E8009B000F2101FA03F3DB431A40BB681B0A38
:1054F8003B623B6A93FAA3F3FB61FB697B627B6ABD
:10550800002B01D1202303E07B6AB3FA83F3DBB2DB
:105518009B00796801FA03F31A43FB685A6200BFDB
:105528002C37BD465DF8047B704780B58AB000AF64
:105538007860396000237B6200233B623B681B680C
:10554800BB61BB6993FAA3F37B617B69FB61FB6970
:10555800002B01D1202303E0FB69B3FA83F3DBB20C
:105568007B6257E03B681A6801217B6A01FA03F302
:1055780013403B623B6A002B49D03B685B68012BB8
:1055880003D03B685B68022B0DD13B689B681A46C9
:10559800396A7868FFF7D3FE3B68DB681A46396AD0
:1055A8007868FFF7B4FE3B681B691A46396A786861
:1055B800FFF702FF3B685B68022B21D13B6AFB6067
:1055C800FB6893FAA3F3BB60BB683B613B69002BA4
:1055D80001D1202303E03B69B3FA83F3DBB2072B45
:1055E80007D83B685B691A46396A7868FFF721FF74
:1055F80006E03B685B691A46396A7868FFF756FF28
:105608003B685B681A46396A7868FFF743FE7B6A2D
:1056180001337B623B681A687B6A22FA03F3002B2A
:10562800A0D1002318462837BD4680BD80B483B07A
:1056380000AF786039607B685B6823F440323B6870
:105648001A437B685A6000BF0C37BD465DF8047B7F
:10565800704780B483B000AF786039607B68DB6ADC
:1056680023F470023B681A437B68DA6200BF0C3788
:10567800BD465DF8047B704780B483B000AF7860A6
:1056880039607B689B6B23F440123B681A437B6844
:105698009A6300BF0C37BD465DF8047B704780B441
:1056A80083B000AF78607B689B6803F00103012B2F
:1056B8000CBF01230023DBB218460C37BD465DF84A
:1056C800047B704780B584B000AF786039600023F0
:1056D800FB730A48FFF7E3FF0346002B06D13B683C
:1056E8001B6819467868FFF7A1FF01E00123FB73E7
:1056F800FB7B18461037BD4680BD00BF0020014027
:1057080080B584B000AF786039600023FB73786897
:10571800FFF7C5FF0346002B17D17B685B6823F0B2
:10572800407323F480733A6811683A6892680A43B0
:105738001A437B685A607B689B6823F400623B6865
:105748005B681A437B689A6001E00123FB73FB7B6B
:1057580018461037BD4680BD80B584B000AF78606C
:1057680039600023FB737868FFF799FF0346002B25
:105778002BD13B685B68002B09D07B685B6823F4FE
:1057880068423B689B681A437B685A6005E07B68FF
:105798005B6823F468427B685A607B689A680E4BA2
:1057A80013403A68126802F070613A68D26811438F
:1057B8003A6812690A431A437B689A603B685B68D7
:1057C80019467868FFF745FF01E00123FB73FB7B6F
:1057D80018461037BD4680BDFDFCFFC080B584B0BB
:1057E80000AF786039600023FB737868FFF757FFD4
:1057F8000346002B2BD13B685B68002B0CD07B68E1
:105808005B6823F4A0523B6899683B68DB680B43EC
:105818001A437B685A6008E07B685B6823F4A052EF
:105828003B68DB681A437B685A607B689B6823F493
:105838007C123B681B6803F470231A437B689A60E8
:105848003B685B6819467868FFF716FF01E001239B
:10585800FB73FB7B18461037BD4680BD80B400AF94
:10586800044B9B6803F00C031846BD465DF8047BA7
:10587800704700BF0038024080B400AF044B9B68FB
:1058880003F0F0031846BD465DF8047B704700BF7F
:105898000038024080B400AF044B9B6803F4E05327
:1058A8001846BD465DF8047B704700BF00380240CB
:1058B80080B400AF044B9B6803F460431846BD46B0
:1058C8005DF8047B704700BF0038024080B400AF29
:1058D800044B5B6803F480031846BD465DF8047BFF
:1058E800704700BF0038024080B400AF044B5B68CB
:1058F8009B09C3F308031846BD465DF8047B70474F
:105908000038024080B400AF044B5B6803F44033B6
:105918001846BD465DF8047B704700BF003802405A
:1059280080B400AF044B5B6803F03F031846BD46E4
:105938005DF8047B704700BF0038024080B582B034
:1059480000AF786000F020F802467B681A607B6838
:105958001B68184600F040F802467B685A607B686E
:105968005B68184600F04EF802467B689A607B68D0
:105978005B68184600F05AF802467B68DA6000BF98
:105988000837BD4680BD000080B582B000AF002357
:105998007B60FFF763FF0346082B0CD0082B0FD85A
:1059A800002B02D0042B03D00AE0094B7B600AE0ED
:1059B800084B7B6007E0082000F04CF8786002E0B4
:1059C800034B7B6000BF7B6818460837BD4680BD27
:1059D8000024F40000127A0080B582B000AF78602D
:1059E800FFF74AFF03461B0903F00F03044AD35C81
:1059F8001A467B68D34018460837BD4680BD00BFAD
:105A0800487A000880B582B000AF7860FFF742FF9F
:105A180003469B0A044AD35C1A467B68D34018465F
:105A28000837BD4680BD00BF587A000880B582B0EF
:105A380000AF7860FFF73CFF03465B0B044AD35C7A
:105A48001A467B68D34018460837BD4680BD00BF5C
:105A5800587A000890B587B000AF786000237B6162
:105A68000023FB6000233B61FFF730FFF860FB6811
:105A7800002B04D0FB68B3F5800F03D005E0124B70
:105A88007B6105E0114B7B6102E00F4B7B6100BF3E
:105A98007B68082B13D1FFF743FF02467B69B3FBF2
:105AA800F2F4FFF721FF034603FB04F4FFF72AFF94
:105AB80003461B0C01335B00B4FBF3F33B613B690A
:105AC80018461C37BD4690BD0024F40000127A0029
