:020000040800F2
:100000000080012089E80008FBC8000801C9000839
:1000100007C900080DC9000813C900080000000046
:10002000000000000000000000000000C19C00086B
:1000300019C90008000000007D9C0008A59B00086D
:10004000D9E80008D9E80008D9E80008D9E800088C
:10005000D9E80008D9E80008D9E80008D9E800087C
:10006000D9E80008D9E80008D9E80008D9E800086C
:10007000D9E80008D9E80008D9E80008C513000845
:100080002DAA0008D9E80008B934000800000000D3
:10009000000000000000000000000000D9E8000897
:1000A000D9E80008D9E80008D9E80008D9E800082C
:1000B000D9E8000851330008D9E80008D9E8000859
:1000C000D9E80008D9E80008D9E80008D9E800080C
:1000D000D9E80008D9E8000819AA000800000000C3
:1000E000D9E80008D9E80008D9E8000800000000B5
:1000F000000000000000000000000000D9E8000837
:1001000000000000D9E8000829C90008D9E8000863
:1001100000000000000000000000000000000000DF
:100120003DC90008D9E80008D9E80008D9E8000866
:10013000D9E80008000000000000000000000000F6
:10014000000000000000000000000000D9E80008E6
:10015000D9E80008D9E80008D9E80008D9E800087B
:10016000D9E80008D9E800080000000000000000FD
:10017000000000000000000000000000000000007F
:1001800000000000D9E800080000000000000000A6
:04019000D9E80008A2
:1001980081F0004102E000BF83F0004330B54FEA30
:1001A80041044FEA430594EA050F08BF90EA020F9D
:1001B8001FBF54EA000C55EA020C7FEA645C7FEA30
:1001C800655C00F0E2804FEA5454D4EB5555B8BF53
:1001D8006D420CDD2C4480EA020281EA030382EAC4
:1001E800000083EA010180EA020281EA0303362D56
:1001F80088BF30BD11F0004F4FEA01314FF4801C29
:100208004CEA113102D0404261EB410113F0004F3A
:100218004FEA03334CEA133302D0524263EB4303F1
:1002280094EA050F00F0A780A4F10104D5F1200E8F
:100238000DDB02FA0EFC22FA05F2801841F10001EA
:1002480003FA0EF2801843FA05F359410EE0A5F1BE
:1002580020050EF1200E012A03FA0EFC28BF4CF0EF
:10026800020C43FA05F3C01851EBE37101F00045A5
:1002780007D54FF0000EDCF1000C7EEB00006EEBB2
:100288000101B1F5801F1BD3B1F5001F0CD349083C
:100298005FEA30004FEA3C0C04F101044FEA445293
:1002A80012F5800F80F09A80BCF1004F08BF5FEA1A
:1002B800500C50F1000041EB045141EA050130BDFA
:1002C8005FEA4C0C404141EB0101013C28BFB1F50C
:1002D800801FE9D291F0000F04BF01460020B1FA57
:1002E80081F308BF2033A3F10B03B3F120020CDA2A
:1002F8000C3208DD02F1140CC2F10C0201FA0CF008
:1003080021FA02F10CE002F11402D8BFC2F1200C6C
:1003180001FA02F120FA0CFCDCBF41EA0C01904022
:10032800E41AA2BF01EB0451294330BD6FEA04046B
:100338001F3C1CDA0C340EDC04F11404C4F1200256
:1003480020FA04F001FA02F340EA030021FA04F368
:1003580045EA030130BDC4F10C04C4F1200220FABF
:1003680002F001FA04F340EA0300294630BD21FAFD
:1003780004F0294630BD94F0000F83F4801306BFC3
:1003880081F480110134013D4EE77FEA645C18BFB7
:100398007FEA655C29D094EA050F08BF90EA020F4E
:1003A80005D054EA000C04BF1946104630BD91EA46
:1003B800030F1EBF0021002030BD5FEA545C05D149
:1003C8004000494128BF41F0004130BD14F5800488
:1003D8003CBF01F5801130BD01F0004545F0FE41FC
:1003E80041F470014FF0000030BD7FEA645C1ABF31
:1003F800194610467FEA655C1CBF0B46024650EA68
:10040800013406BF52EA033591EA030F41F4002193
:1004180030BD00BF90F0000F04BF0021704730B519
:100428004FF4806404F132044FF000054FF00001EE
:1004380050E700BF90F0000F04BF0021704730B5AF
:100448004FF4806404F1320410F0004548BF404284
:100458004FF000013EE700BF42004FEAE2014FEAD9
:1004680031014FEA02701FBF12F07F4393F07F4FB4
:1004780081F06051704732F07F4208BF704793F0B7
:100488007F4F04BF41F40021704730B54FF46074CA
:1004980001F0004521F000411CE700BF50EA0102CD
:1004A80008BF704730B54FF000050AE050EA010276
:1004B80008BF704730B511F0004502D5404261EBE6
:1004C80041014FF4806404F132045FEA915C3FF427
:1004D800D8AE4FF003025FEADC0C18BF03325FEAC4
:1004E800DC0C18BF033202EBDC02C2F1200300FA75
:1004F80003FC20FA02F001FA03FE40EA0E0021FA9A
:1005080002F11444BDE600BF70B54FF0FF0C4CF487
:10051800E06C1CEA11541DBF1CEA135594EA0C0F39
:1005280095EA0C0F00F0DEF82C4481EA030621EA74
:100538004C5123EA4C5350EA013518BF52EA0335AF
:1005480041F4801143F4801338D0A0FB02CE4FF061
:100558000005E1FB02E506F00042E0FB03E54FF091
:100568000006E1FB03569CF0000F18BF4EF0010E89
:10057800A4F1FF04B6F5007F64F5407404D25FEA85
:100588004E0E6D4146EB060642EAC62141EA555138
:100598004FEAC52040EA5E504FEACE2EB4F1FD0C7A
:1005A80088BFBCF5E06F1ED8BEF1004F08BF5FEAF8
:1005B800500E50F1000041EB045170BD06F00046AA
:1005C80046EA010140EA020081EA0301B4EB5C0457
:1005D800C2BFD4EB0C0541EA045170BD41F480114F
:1005E8004FF0000E013C00F3AB8014F1360FDEBF74
:1005F800002001F0004170BDC4F10004203C35DA50
:100608000C341BDC04F11404C4F1200500FA05F3D2
:1006180020FA04F001FA05F240EA020001F0004273
:1006280021F0004110EBD37021FA04F642EB0601E9
:100638005EEA430E08BF20EAD37070BDC4F10C0413
:10064800C4F1200500FA04F320FA05F001FA04F2D7
:1006580040EA020001F0004110EBD37041F10001C3
:100668005EEA430E08BF20EAD37070BDC4F12005CE
:1006780000FA05F24EEA020E20FA04F301FA05F236
:1006880043EA020321FA04F001F0004121FA04F2DE
:1006980020EA020000EBD3705EEA430E08BF20EAAE
:1006A800D37070BD94F0000F0FD101F000464000E8
:1006B80041EB010111F4801F08BF013CF7D041EA6A
:1006C800060195F0000F18BF704703F0004652006E
:1006D80043EB030313F4801F08BF013DF7D043EA3F
:1006E8000603704794EA0C0F0CEA135518BF95EAF5
:1006F8000C0F0CD050EA410618BF52EA4306D1D17C
:1007080081EA030101F000414FF0000070BD50EA9A
:10071800410606BF1046194652EA430619D094EA24
:100728000C0F02D150EA013613D195EA0C0F05D10E
:1007380052EA03361CBF104619460AD181EA030162
:1007480001F0004141F0FE4141F470014FF000001A
:1007580070BD41F0FE4141F4780170BD70B54FF0B5
:10076800FF0C4CF4E06C1CEA11541DBF1CEA135535
:1007780094EA0C0F95EA0C0F00F0A7F8A4EB050417
:1007880081EA030E52EA03354FEA013100F088800E
:100798004FEA03334FF0805545EA131343EA1263D7
:1007A8004FEA022245EA111545EA10654FEA00268C
:1007B8000EF000419D4208BF964244F1FD0404F545
:1007C800407402D25B084FEA3202B61A65EB0305A1
:1007D8005B084FEA32024FF480104FF4002CB6EB5E
:1007E800020E75EB030E22BFB61A754640EA0C00DE
:1007F8005B084FEA3202B6EB020E75EB030E22BF1E
:10080800B61A754640EA5C005B084FEA3202B6EB5E
:10081800020E75EB030E22BFB61A754640EA9C001D
:100828005B084FEA3202B6EB020E75EB030E22BFED
:10083800B61A754640EADC0055EA060E18D04FEAAB
:10084800051545EA16754FEA06164FEAC30343EA4B
:1008580052734FEAC2025FEA1C1CC0D111F4801F18
:100868000BD141EA00014FF000004FF0004CB6E711
:1008780011F4801F04BF01430020B4F1FD0C88BFB0
:10088800BCF5E06F3FF6AFAEB5EB030C04BFB6EBBB
:10089800020C5FEA500C50F1000041EB045170BDAE
:1008A8000EF0004E4EEA113114EB5C04C2BFD4EBDB
:1008B8000C0541EA045170BD41F480114FF0000E5F
:1008C800013C90E645EA060E8DE60CEA135594EADB
:1008D8000C0F08BF95EA0C0F3FF43BAF94EA0C0FDE
:1008E8000AD150EA01347FF434AF95EA0C0F7FF453
:1008F80025AF104619462CE795EA0C0F06D152EAA7
:1009080003353FF4FDAE1046194622E750EA41068A
:1009180018BF52EA43067FF4C5AE50EA41047FF49B
:100928000DAF52EA43057FF4EBAE12E74FF0FF3C00
:1009380006E000BF4FF0010C02E000BF4FF0010CD1
:100948004DF804CD4FEA410C7FEA6C5C4FEA430C4A
:1009580018BF7FEA6C5C1BD001B050EA410C0CBF99
:1009680052EA430C91EA030F02BF90EA020F0020FB
:10097800704710F1000F91EA030F58BF994208BF62
:1009880090422CBFD8176FEAE37040F0010070471F
:100998004FEA410C7FEA6C5C02D150EA013C07D176
:1009A8004FEA430C7FEA6C5CD6D152EA033CD3D0C1
:1009B8005DF8040B704700BF8446104662468C46BB
:1009C8001946634600E000BF01B5FFF7B7FF0028EE
:1009D80048BF10F1000F01BD4DF808EDFFF7F4FF17
:1009E8000CBF012000205DF808FB00BF4DF808EDA2
:1009F800FFF7EAFF34BF012000205DF808FB00BFC5
:100A08004DF808EDFFF7E0FF94BF012000205DF8E6
:100A180008FB00BF4DF808EDFFF7CEFF94BF01209B
:100A280000205DF808FB00BF4DF808EDFFF7C4FF94
:100A380034BF012000205DF808FB00BF4FEA410CDD
:100A48007FEA6C5C02D150EA013C0AD14FEA430CC0
:100A58007FEA6C5C02D152EA033C02D14FF00000FD
:100A680070474FF0010070474A0011D212F500128A
:100A780011D20DD56FF47873B3EB62520ED44FEAEE
:100A8800C12343F0004343EA505323FA02F070476E
:100A98004FF00000704750EA013002D14FF0FF30AC
:100AA80070474FF0000070474FEA4102B2F1E0434F
:100AB80024BFB3F5001CDCF1FE5C0DD901F0004C3D
:100AC8004FEAC0024CEA5070B2F1004F40EB83008D
:100AD80008BF20F00100704711F0804F21D113F1B9
:100AE8003872BCBF01F00040704741F480114FEAF2
:100AF8005252C2F11802C2F1200C10FA0CF320FA7B
:100B080002F018BF40F001004FEAC1234FEAD32397
:100B180003FA0CFC40EA0C0023FA02F34FEA430301
:100B2800CCE77FEA625307D150EA01331EBF4FF08A
:100B3800FE4040F44000704701F0004040F0FE40A5
:100B480040F40000704700BF53B94AB9002908BFF4
:100B580000281CBF4FF0FF314FF0FF3000F00CB8F9
:100B6800ADF1080C6DE904CE0EF028F8DDF804E0CC
:100B7800DDE9022304B07047704700BF0348044B07
:100B8800834202D0034B03B1184770475801002035
:100B980058010020000000000548064B1B1AD90F19
:100BA80001EBA301491002D0034B03B1184770476A
:100BB80058010020580100200000000010B5064C24
:100BC800237843B9FFF7DAFF044B13B10448AFF3B6
:100BD80000800123237010BD580100200000000090
:100BE8000CEF000808B5054B1BB105490548AFF3E4
:100BF8000080BDE80840FFF7CFBF00BF000000003D
:100C08005C0100200CEF000880B483B000AF78606E
:100C180039600C4A3B6813441B781A467B681344B6
:100C28001B6808493A680A44127811467A680A44E7
:100C380043F00103136000BF0C37BD465DF8047B29
:100C4800704700BFB017010880B483B000AF786068
:100C580039600C4A3B6813441B781A467B68134476
:100C68001B6808493A680A44127811467A680A44A7
:100C780023F00103136000BF0C37BD465DF8047B09
:100C8800704700BFB017010880B483B000AF786028
:100C98003960084A3B6813441B781A467B6813443A
:100CA8001B6803F4907318460C37BD465DF8047B47
:100CB800704700BFB017010880B485B000AFF86076
:100CC800B9607A600D4ABB6813441B781A46FB6802
:100CD80013445B681B0C1B040849BA680A44127861
:100CE8001146FA680A4411467A6813434B6000BFFC
:100CF8001437BD465DF8047B704700BFB017010884
:100D080080B483B000AF78603960074A3B68134409
:100D18001B781A467B6813445B689BB218460C37ED
:100D2800BD465DF8047B7047B017010880B485B0F4
:100D380000AFF860B9607A603B60BB69402B14D1A2
:100D4800174ABB6813441B781A46FB6813441A46B3
:100D58007B68D360124ABB6813441B781A46FB6849
:100D680013441A463B68936013E00D4ABB6813446A
:100D78001B781A46FB6813441A467B689360084A36
:100D8800BB6813441B781A46FB6813441A463B6831
:100D9800D36000BF1437BD465DF8047B704700BFC1
:100DA800B017010880B483B000AF78607B685B68D7
:100DB80003F02003202B0CBF01230023DBB21846CD
:100DC8000C37BD465DF8047B704780B483B000AF34
:100DD80078607B682022DA6000BF0C37BD465DF87A
:100DE800047B704780B483B000AF786039600C4AE8
:100DF8003B6813441B781A467B6813441B680849F0
:100E08003A680A44127811467A680A4443F0100393
:100E1800136000BF0C37BD465DF8047B704700BF08
:100E2800B017010880B483B000AF786039600A4A0F
:100E38003B6813441B781A467B6813441B6803F00D
:100E48001003102B0CBF01230023DBB218460C370C
:100E5800BD465DF8047B7047B017010880B485B0C3
:100E680000AF78607B681B6803F06003FB60FB6879
:100E7800002B04D17B681B6803F01003FB60FB6840
:100E880018461437BD465DF8047B704780B483B0BC
:100E980000AF78607B681B6B18460C37BD465DF861
:100EA800047B704780B483B000AF786039607B689A
:100EB8005B6823F008023B681A437B685A6000BFEE
:100EC8000C37BD465DF8047B704780B483B000AF33
:100ED800786039607B681A6A3B681A437B681A62D3
:100EE80000BF0C37BD465DF8047B704780B483B003
:100EF80000AF786039607B681A6A3B68DB431A4048
:100F08007B681A6200BF0C37BD465DF8047B7047EA
:100F180080B483B000AF78607B685B6C43F40042B8
:100F28007B685A6400BF0C37BD465DF8047B704788
:100F380080B483B000AF78607B681B6903F002035C
:100F4800022B01D1012300E0002318460C37BD46CF
:100F58005DF8047B704780B483B000AF78607B682D
:100F6800DB6843F001027B68DA6000BF0C37BD46DE
:100F78005DF8047B704780B483B000AF78607B680D
:100F8800DB6823F001027B68DA6000BF0C37BD46DE
:100F98005DF8047B704780B483B000AF78607B68ED
:100FA800DB6803F00103012B01D1012300E00023DA
:100FB80018460C37BD465DF8047B704780B483B093
:100FC80000AF78607B68DB6843F002027B68DA6018
:100FD80000BF0C37BD465DF8047B704780B483B012
:100FE80000AF78607B68DB6823F002027B68DA6018
:100FF80000BF0C37BD465DF8047B704780B483B0F2
:1010080000AF78607B68DB6803F00203022B01D134
:10101800012300E0002318460C37BD465DF8047B29
:10102800704780B483B000AF78607B68DB6843F0BA
:1010380004027B68DA6000BF0C37BD465DF8047BAC
:10104800704780B483B000AF78607B68DB6823F0BA
:1010580004027B68DA6000BF0C37BD465DF8047B8C
:10106800704780B483B000AF78607B68DB6803F0BA
:101078000403042B01D1012300E0002318460C3798
:10108800BD465DF8047B704780B483B000AF7860DC
:101098007B68DB6843F008027B68DA6000BF0C37C6
:1010A800BD465DF8047B704780B483B000AF7860BC
:1010B8007B68DB6823F008027B68DA6000BF0C37C6
:1010C800BD465DF8047B704780B483B000AF78609C
:1010D8007B68DB6803F00803082B01D1012300E0DB
:1010E800002318460C37BD465DF8047B704780B472
:1010F80083B000AF78607B68DB6843F010027B68E0
:10110800DA6000BF0C37BD465DF8047B704780B4D9
:1011180083B000AF78607B68DB6823F010027B68DF
:10112800DA6000BF0C37BD465DF8047B704780B4B9
:1011380083B000AF78607B68DB6803F01003102B86
:1011480001D1012300E0002318460C37BD465DF8A5
:10115800047B704780B483B000AF78607B68DB683D
:1011680043F020027B68DA6000BF0C37BD465DF8AB
:10117800047B704780B483B000AF78607B68DB681D
:1011880023F020027B68DA6000BF0C37BD465DF8AB
:10119800047B704780B483B000AF78607B68DB68FD
:1011A80003F02003202B01D1012300E0002318467F
:1011B8000C37BD465DF8047B704780B483B000AF40
:1011C80078607B68DB6843F040027B68DA6000BFC8
:1011D8000C37BD465DF8047B704780B483B000AF20
:1011E80078607B68DB6823F040027B68DA6000BFC8
:1011F8000C37BD465DF8047B704780B483B000AF00
:1012080078607B68DB6803F04003402B01D1012341
:1012180000E0002318460C37BD465DF8047B704794
:1012280080B483B000AF78607B68DB6843F08002ED
:101238007B68DA6000BF0C37BD465DF8047B7047F9
:1012480080B483B000AF78607B68DB6823F08002ED
:101258007B68DA6000BF0C37BD465DF8047B7047D9
:1012680080B483B000AF78607B68DB6803F08003EC
:10127800802B01D1012300E0002318460C37BD461E
:101288005DF8047B704780B483B000AF78607B68FA
:10129800DB6843F400727B68DA6000BF0C37BD4638
:1012A8005DF8047B704780B483B000AF78607B68DA
:1012B800DB6843F480627B68DA6000BF0C37BD46A8
:1012C8005DF8047B704780B483B000AF78607B68BA
:1012D800DB6843F400627B68DA6000BF0C37BD4608
:1012E8005DF8047B704780B483B000AF78607B689A
:1012F800DB6843F480527B68DA6000BF0C37BD4678
:101308005DF8047B704780B584B000AFF860B960C1
:101318007A60FB681A68FB681B7919461046FFF764
:1013280081FD0346002B44D0FB681A68BB68104651
:1013380098470346012B3CD1FB681A687B68104626
:101348009847FB681B7E012B09D1FB681B7F43F084
:101358000103DAB2FB681A77FB6800225A61FB685E
:1013680001221A76FB681A68FB681B791946104631
:10137800FFF78AFC0346002B19D1FB681A68FB6843
:101388001B7919461046FFF75FFCFB681868FB6875
:101398001B791946FB681B691A46FFF78DFCFB6829
:1013A8001A68FB681B7919461046FFF72DFC0123C4
:1013B80000E0002318461037BD4680BD80B500AF59
:1013C800034A04490448FFF79EFF00BF80BD00BFE1
:1013D800D30D0008AD0D00080802002080B582B0CA
:1013E80000AF78607B681B681846FFF7A1FD0346CD
:1013F800012B03D17B68012283F888207B6893F84E
:101408008830012B0CBF01230023DBB218460837B4
:10141800BD4680BD80B582B000AF78600B467B804A
:101428007B8803F00103002B0CD07B681B681846EF
:10143800FFF7E3FE0346012B04D07B681B681846C0
:10144800FFF7BBFE7B8803F00203002B0CD07B6800
:101458001B681846FFF7D2FD0346012B04D07B68B2
:101468001B681846FFF7AAFD7B8803F00403002BCE
:101478000CD07B681B681846FFF7F3FD0346012B69
:1014880004D07B681B681846FFF7CBFD7B8803F008
:101498000803002B0CD07B681B681846FFF714FE66
:1014A8000346012B04D07B681B681846FFF7ECFD48
:1014B8007B8803F01003002B0CD07B681B68184650
:1014C800FFF735FE0346012B04D07B681B681846DE
:1014D800FFF70DFE7B8803F02003002B0CD07B6800
:1014E8001B681846FFF757FD0346012B04D07B689D
:1014F8001B681846FFF72FFD7B8803F04003002B7D
:101508000CD07B681B681846FFF7AAFE0346012B20
:1015180004D07B681B681846FFF782FE7B8803F0BF
:101528008003002B0CD07B681B681846FFF732FE3F
:101538000346012B04D07B681B681846FFF70AFE98
:1015480000BF0837BD4680BD80B582B000AF786067
:101558000B467B807B8803F00103002B0CD07B6853
:101568001B681846FFF749FE0346012B04D17B6828
:101578001B681846FFF731FE7B8803F00203002B37
:101588000CD07B681B681846FFF738FD0346012B13
:1015980004D17B681B681846FFF720FD7B8803F0A1
:1015A8000403002B0CD07B681B681846FFF759FD15
:1015B8000346012B04D17B681B681846FFF741FDE1
:1015C8007B8803F00803002B0CD07B681B68184647
:1015D800FFF77AFD0346012B04D17B681B68184688
:1015E800FFF762FD7B8803F01003002B0CD07B68AB
:1015F8001B681846FFF79BFD0346012B04D17B6847
:101608001B681846FFF783FD7B8803F02003002B37
:101618000CD07B681B681846FFF7BDFC0346012BFE
:1016280004D07B681B681846FFF7A5FC7B8803F08D
:101638004003002B0CD07B681B681846FFF710FE90
:101648000346012B04D17B681B681846FFF7F8FD99
:101658007B8803F08003002B0CD07B681B6818463E
:10166800FFF798FD0346012B04D17B681B681846D9
:10167800FFF780FD00BF0837BD4680BD80B582B04A
:1016880000AF78600B46FB70FB78022B06D17B68B5
:101698001B6801211846FFF718FC1DE07B681B68D2
:1016A8000F4A934218D1FB78032B06D17B681B683D
:1016B80004211846FFF709FC0EE0FB78042B0BD138
:1016C8007B681B6801211846FFF7FFFB7B681B68D6
:1016D80004211846FFF7F9FB00BF0837BD4680BD57
:1016E8000000014080B582B000AF78600B46FB7007
:1016F800FB78022B06D17B681B6801211846FFF78F
:10170800F5FB1DE07B681B680F4A934218D1FB78F4
:10171800032B06D17B681B6804211846FFF7E6FBFC
:101728000EE0FB78042B0BD17B681B68012118465F
:10173800FFF7DCFB7B681B6804211846FFF7D6FB24
:1017480000BF0837BD4680BD0000014080B582B0AB
:1017580000AF78600B46FB70FB78022B06D17B68E4
:101768001B6810211846FFF7B0FB1DE07B681B685B
:101778000F4A934218D1FB78032B06D17B681B686C
:1017880040211846FFF7A1FB0EE0FB78042B0BD194
:101798007B681B6810211846FFF797FB7B681B685E
:1017A80040211846FFF791FB00BF0837BD4680BDB2
:1017B8000000014080B582B000AF78600B46FB7036
:1017C800FB78022B06D17B681B6810211846FFF7AF
:1017D8008DFB1DE07B681B680F4A934218D1FB788C
:1017E800032B06D17B681B6840211846FFF77EFB58
:1017F8000EE0FB78042B0BD17B681B681021184680
:10180800FFF774FB7B681B6840211846FFF76EFBE7
:1018180000BF0837BD4680BD0000014080B582B0DA
:1018280000AF78600B46FB70FB78022B07D17B6812
:101838001B684FF480711846FFF747FB20E07B6870
:101848001B68114A93421BD1FB78032B07D17B6895
:101858001B684FF480611846FFF737FB10E0FB78F0
:10186800042B0DD17B681B684FF480711846FFF775
:101878002CFB7B681B684FF480611846FFF725FB3B
:1018880000BF0837BD4680BD0000014080B582B06A
:1018980000AF78600B46FB70FB78022B07D17B68A2
:1018A8001B684FF480711846FFF720FB20E07B6827
:1018B8001B68114A93421BD1FB78032B07D17B6825
:1018C8001B684FF480611846FFF710FB10E0FB78A7
:1018D800042B0DD17B681B684FF480711846FFF705
:1018E80005FB7B681B684FF480611846FFF7FEFA1A
:1018F80000BF0837BD4680BD0000014080B584B0F8
:1019080000AF78600023FB607B681B68204A934225
:1019180002D1204BFB6006E07B681B681E4A93429D
:1019280001D11E4BFB607B681A68FB681A60FB6874
:101938001B681846FFF792FAB860BB68002B06D000
:10194800BB68102B03D0FB6801221A7102E0FB6808
:1019580000221A71FB681B680D4A934204D1FB6888
:101968001B681846FFF7D4FAFB681B68084A9342BD
:1019780008D17B681B681846FFF788FA0346DAB275
:10198800FB685A71FB6818461037BD4680BD00BF1A
:101998000000014074010020000400400002002003
:1019A80084B0F0B585B002AF786007F1240080E814
:1019B8000E00002697F84430013B032B5AD801A2A9
:1019C80052F823F0DD190008051A00082D1A00083E
:1019D800551A00087B681B6834331E467B6803F180
:1019E800080407F124050FCD0FC495E80F0084E81B
:1019F8000F007B68002283F888203BE07B681B6827
:101A080038331E467B6803F1280407F124050FCDFF
:101A18000FC495E80F0084E80F007B68002283F864
:101A2800892027E07B681B683C331E467B6803F1EE
:101A3800480407F124050FCD0FC495E80F0084E88A
:101A48000F007B68002283F88A2013E07B681B68FC
:101A580040331E467B6803F1680407F124050FCD67
:101A68000FC495E80F0084E80F007B68002283F814
:101A78008B2000BF7B681B68B3F1804F04D07B6864
:101A88001B68334A93420CD1786A97F82830194674
:101A98003B6B1A460023009313463246FFF746F97C
:101AA8000BE0786A97F828301946FB6A1A46002333
:101AB800009313463246FFF739F97B6A97F82820D6
:101AC80011467A6B1846FFF7F7F87B6A97F82820D3
:101AD80011461846FFF786F97B681B6800211846EF
:101AE800FFF7E0F997F84430013B032B22D801A215
:101AF80052F823F00D1B0008191B0008251B0008CD
:101B0800311B00087B681B681846FFF7BCFB11E017
:101B18007B681B681846FFF7C6FB0BE07B681B68F1
:101B28001846FFF7D0FB05E07B681B681846FFF7EF
:101B3800DAFB00BF7B6A97F8282011461846FFF7A2
:101B480063F800BF0C37BD46BDE8F04004B07047ED
:101B5800000C004080B586B000AF78607B681B7EC3
:101B6800FB747B681A687B681B7919461046FFF777
:101B7800C7F8F8607B681A69FB68D31A7B617B68D1
:101B88001B697A699A4201D100237B61FB7C012B96
:101B98000ED17B685B697A699A4209D97B681B7F99
:101BA80043F00103DAB27B681A777B687A695A6175
:101BB8007B685B697A699A4204D97B685B697A6950
:101BC800D31A13E07B685B697A699A4207D27B680B
:101BD8001A697B685B69D21A7B69134406E0FB7C4F
:101BE800012B02D17B681B6900E0002318461837D7
:101BF800BD4680BD80B586B000AFF860B9607A6038
:101C0800FB685A697B681A44FB681B699A422AD99F
:101C1800FB681A69FB685B69D31A7B61FB689A6881
:101C2800FB685B695B00D1187B695B001A46B86882
:101C38000DF05AF9FB685A697B681A44FB681B69FE
:101C4800D21AFB685A617B695B00BA68D018FB68D6
:101C58009968FB685B695B001A460DF045F9FB68FB
:101C680000221A7611E0FB689A68FB685B695B00E2
:101C7800D1187B685B001A46B8680DF035F9FB6827
:101C88005A697B681A44FB685A6100BF1837BD4619
:101C980080BD80B586B000AFF860B9607A60FB6837
:101CA8005A697B681A44FB681B699A422AD9FB68FF
:101CB8001A69FB685B69D31A7B61FB68DA68FB68A1
:101CC8005B699B00D1187B699B001A46B8680DF0C8
:101CD8000BF9FB685A697B681A44FB681B69D21ABE
:101CE800FB685A617B699B00BA68D018FB68D968A1
:101CF800FB685B699B001A460DF0F6F8FB6800224A
:101D08001A7611E0FB68DA68FB685B699B00D118FA
:101D18007B689B001A46B8680DF0E6F8FB685A69BC
:101D28007B681A44FB685A6100BF1837BD4680BDFE
:101D380080B586B000AFF860B9607A603B603B6AF6
:101D480000221A600023FB75B868FFF703FF3861AB
:101D58003A693B689A4201D23B693B603B69002B78
:101D680026D0FB681B68B3F1804F04D0FB681B6862
:101D7800134A934205D13A687968B868FFF789FF32
:101D880004E03A687968B868FFF734FFBB685A69B5
:101D9800BB681B699A4205D1BB6800225A61BB68BF
:101DA80000221A76BB681B7FFB75BB6800221A7776
:101DB8003B6A3A681A60FB7D18461837BD4680BDF5
:101DC800000C004080B586B002AFF860B9607A6058
:101DD8003B60FB6803F108013B6800937B68BA68C5
:101DE800F868FFF7A5FF034618461037BD4680BDC3
:101DF80080B483B000AF786039607B68DB6A23F415
:101E080070023B681A437B68DA6200BF0C37BD4634
:101E18005DF8047B704780B483B000AF78603960A8
:101E28007B689B6823F440723B681A437B689A601E
:101E380000BF0C37BD465DF8047B704780B483B0A3
:101E480000AF78607B689B6803F44013002B0CBFDD
:101E580001230023DBB218460C37BD465DF8047B2E
:101E6800704780B483B000AF78607B689B6843F0AC
:101E780001027B689A6000BF0C37BD465DF8047BA1
:101E8800704780B483B000AF78607B689B6823F0AC
:101E980001027B689A6000BF0C37BD465DF8047B81
:101EA800704780B483B000AF78607B689B6803F0AC
:101EB8000103012B0CBF01230023DBB218460C37AA
:101EC800BD465DF8047B704780B483B000AF78608E
:101ED8007B689B6843F480027B689A6000BF0C377C
:101EE800BD465DF8047B704780B483B000AF78606E
:101EF8007B681B6803F00403042B0CBF0123002339
:101F0800DBB218460C37BD465DF8047B704780B4D9
:101F180083B000AF78607B686FF004021A6000BF7E
:101F28000C37BD465DF8047B704780B483B000AFC2
:101F380078607B685B6843F020027B685A6000BF6A
:101F48000C37BD465DF8047B704780B483B000AFA2
:101F580078607B685B6843F080027B685A6000BFEA
:101F68000C37BD465DF8047B704780B483B000AF82
:101F780078607B685B6823F020027B685A6000BF4A
:101F88000C37BD465DF8047B704780B483B000AF62
:101F980078607B685B6823F080627B685A6000BF6A
:101FA8000C37BD465DF8047B704780B483B000AF42
:101FB80078607B685B6823F080027B685A6000BFAA
:101FC8000C37BD465DF8047B704780B483B000AF22
:101FD80078607B685B6823F040027B685A6000BFCA
:101FE8000C37BD465DF8047B704780B483B000AF02
:101FF80078607B685B6803F08063B3F1806F0CBF27
:1020080001230023DBB218460C37BD465DF8047B7C
:10201800704780B483B000AF78607B685B6803F07A
:102028004003402B0CBF01230023DBB218460C37BA
:10203800BD465DF8047B704780B584B000AF78601A
:102048000123FB817B681B691846FFF7F7FE0346EF
:10205800002B24D07B689B7ADBB2022B0CD07B68E8
:102068009B7ADBB2082B07D07B681B691846FFF701
:102078003BFF0346012B12D17B689B7ADBB2082B0E
:1020880003D17B6801229A7202E07B6820229A724F
:102098007B681B691846FFF717FF0023FB81FB8944
:1020A80018461037BD4680BD80B487B000AFF860D1
:1020B8000B467A607B81FB683C333B6100237B6184
:1020C8000DE07B699B003A69134419687B695B00E2
:1020D8007A6813448AB21A807B6901337B617B89F1
:1020E8007A699A42EDDB00BF00BF1C37BD465DF838
:1020F800047B704780B485B000AFF860B9607A603F
:102108003B6000BF1437BD465DF8047B704780B460
:1021180085B000AFF860B9607A6000BF1437BD467B
:102128005DF8047B704780B584B000AF78607B6849
:102138001B691846FFF7D8FE0346FB73FB7B012B90
:1021480007D17B681B691846FFF7E1FE7B6802220E
:102158009A72FB7B18461037BD4680BD80B483B0A9
:1021680000AF78600B46FB7000BF0C37BD465DF8CA
:10217800047B704790B589B002AFF86008461146F5
:102188001A4603467B810B463B811346FB8000239E
:102198007B61FB681B693D4A934201D13C4B7B61E3
:1021A8007B69002B6CD0FB681A697B691A617B69B3
:1021B8000022DA71FB88012B62D03B89002B48D0C2
:1021C8007B695B7ADBB2082B43D0FB68DA687B69F2
:1021D800DA60FB681A687B691A60FB685A697B6970
:1021E8005A61FB689A797B699A71FB681A797B69ED
:1021F8001A717B691B69B96A1846FFF7F9FD7B8973
:10220800012B22D07B89042B17D17B691B694FF4E2
:1022180040711846FFF7FFFD7B6918697B695969AA
:102228007B699B791C467B69DA687B691B6800932C
:1022380013462246FFF75EFF07E07B89022B04D195
:102248007B691B691846FFF770FE7B6908225A7282
:1022580016E03B89002B13D17B699B7ADBB2082BF4
:102268000ED0FB685A797B695A717B89022B04D19D
:102278007B691B691846FFF768FE7B6908229A721A
:102288007B6918461C37BD4690BD00BF0020014041
:102298008C02002080B582B000AF78607B681B6933
:1022A8001846FFF7FEFD0346002B04D17B681B6927
:1022B8001846FFF7D6FD00BF0837BD4680BD80B57C
:1022C80086B000AFF8600B467A607B810123FB8201
:1022D800FB681B69002B4BD07B89012B05D1F86863
:1022E800FFF7AAFE0346FB8242E07B89042B24D138
:1022F800FB681B691846FFF7A1FD0346002B37D082
:10230800FB6801229A72FB681B691846FFF7DCFD1F
:1023180000BFFB689B7ADBB2022BFAD1FB68186915
:10232800FB685B799BB27A681946FFF7BDFEFB68CC
:1023380008229A720023FB821AE07B89022B17D1AC
:10234800FB689B7ADBB2202B04D0FB689B7ADBB25C
:10235800022B0DD1FB6808229A72FB681869FB688A
:102368005B799BB27A681946FFF79EFE0023FB82D1
:10237800FB8A18461837BD4680BD80B582B000AFCD
:1023880078600B467B8013463B807B681B69184648
:10239800FFF787FD0346002B04D07B681B691846AE
:1023A800FFF76FFD7B681B691846FFF732FE03468F
:1023B800002B04D07B681B691846FFF706FE7B6874
:1023C8001B691846FFF711FE0346002B04D07B68F3
:1023D8001B691846FFF7D9FD3B88002B35D07B8851
:1023E800012B1AD07B88022B05D17B681B69184604
:1023F800FFF7BBFD11E07B88042B0ED17B681869C1
:102408007B6859697B689B791A46FFF780FE7B6871
:102418001B6900211846FFF7FEFC7B680022DA6082
:102428007B6800221A607B6800225A617B68002260
:102438009A717B6800221A717B681A697B681B791C
:1024480019461046FFF7D4FC0AE07B6800225A714F
:102458007B88022B04D17B681B691846FFF7A5FD12
:1024680000BF0837BD4680BD80B485B000AF786036
:1024780039600023FB7397F90F3018461437BD46AF
:102488005DF8047B7047000080B584B000AF7860C9
:1024980039600023FB727B68002B05D1374801F0B7
:1024A800CDF94FF0FF3365E03B68002B05D1344888
:1024B80001F0C4F94FF0FF335CE0324BD3E900017F
:1024C8004FF000024FF04043FEF786FA0346002B18
:1024D80006D03B68D3E900232A49C1E9002305E077
:1024E800284BD3E900233968C1E90023254BD3E9F8
:1024F80000014FF00002244BFEF76EFA0346002B52
:1025080002D0224801F09AF97B685B681B68204A70
:1025180013607B685B685B681E4A13607B685B6856
:102528009B681D4A13607B685B68DB681B4A136005
:102538001B4B00221A6001F0F3FD0023FB6000230F
:10254800FB6007E0174AFB68174942F82310FB684D
:102558000133FB60FB68022BF4D901F02BFA034628
:10256800FB7297F90B30002B02D1104B01221A7025
:1025780097F90B3018461037BD4680BD28EF000884
:102588004CEF0008780000200000F0BF78EF00084A
:10259800C4030020C8030020CC030020D00300207F
:1025A800D4030020A802002091410008C1030020A4
:1025B80080B586B000AF78600023FB7500233B61CF
:1025C8000023FB732A4B1B78DBB2002B0CBF0123C3
:1025D8000023DBB2BB73274B02221A707B68002BE7
:1025E8000BD1234B1B78DBB2002B06D1224B1B7877
:1025F800DBB2002B01D1012300E00023FB7316E0BE
:102608000A2007F0CFF93B6903F51C5310333B61EF
:102618007B68B3F1FF3F05D03A697B689A4201D9DC
:10262800012300E00023FB73002001F011FA104B96
:102638001B78DBB2002B07D10F4B1B78DBB2002BCA
:1026480002D1FB7B002BDBD00A4B03221A70FB7BE9
:10265800002B01D09C23FB75BB7B002B01D001F024
:102668008DFE97F9173018461837BD4680BD00BF54
:10267800BF030020C1030020C003002080B586B03E
:1026880000AF034687ED000BFB810023FB75012398
:10269800BB754FF000024FF00003D7E90001FEF7C9
:1026A800A5F90346002B05D02E4801F0C7F84FF0D6
:1026B800FF3353E0FB89FF2B08D9FB89FF2219461A
:1026C800294801F0BBF84FF0FF3347E0274B1B7850
:1026D800DBB2032B04D0254B1B78DBB2012B02D1D4
:1026E800224B04221A70FB89022B15D8FB89204A39
:1026F80052F82330002B0FD002F00AFA03467B75FC
:102708007B7D022B08D1FB89194A52F82330FA89BC
:10271800104698470346BB75FB897B82FB891846A0
:1027280097ED000B01F0A8F8BB7D002B06D07B8A43
:10273800184602F0C5F90346FB7503E07B8A184684
:1027480002F021FA97F91730002B05D097F91730C6
:102758001946084801F072F897F9173018461837E3
:10276800BD4680BDE4EF000828F00008C103002042
:10277800A802002068F0000880B582B000AF0023EE
:10278800FB71002001F064F90346FB7197F90730EB
:1027980018460837BD4680BD80B582B000AF00231B
:1027A800FB710B4B06221A7001F0F0F90346FB711E
:1027B8000C22002107480CF065FB01F065FD044B75
:1027C80000221A7097F9073018460837BD4680BDB1
:1027D800C1030020A802002080B400AF034B1B787F
:1027E800DBB21846BD465DF8047B7047C003002085
:1027F80080B400AF034B1B78DBB21846BD465DF8CA
:10280800047B7047D803002080B483B000AF034630
:102818003960FB7197F90730002B0ADB3B68DAB2A5
:102828000C4997F907301201D2B20B4483F8002300
:102838000AE03B68DAB20849FB7903F00F03043B6E
:102848001201D2B20B441A7600BF0C37BD465DF8B0
:10285800047B704700E100E000ED00E080B584B043
:1028680000AFF860B9607A60FB68DBB20F3BDBB29F
:102878005BB279681846FFF7C7FF00BF1037BD463F
:1028880080BD80B485B000AFEFF310837B607B68B8
:10289800FB600123BB60BB6883F3108800BFFB6843
:1028A80018461437BD465DF8047B704780B483B082
:1028B80000AF0346FB7197F90730002B0BDBFB7960
:1028C80003F01F02074997F907305B09012000FA56
:1028D80002F241F8232000BF0C37BD465DF8047BA7
:1028E800704700BF00E100E080B483B000AF03464A
:1028F800FB7197F90730002B12DBFB7903F01F02FD
:102908000A4997F907305B09012000FA02F22033DF
:1029180041F82320BFF34F8F00BFBFF36F8F00BF75
:1029280000BF0C37BD465DF8047B704700E100E04E
:1029380080B483B000AF78607B686FF004021A60DF
:1029480000BF0C37BD465DF8047B704780B483B088
:1029580000AF78607B685B6803F08003802B0CBF56
:1029680001230023DBB218460C37BD465DF8047B13
:10297800704780B483B000AF78607B681B6843F011
:1029880001027B681A6000BF0C37BD465DF8047B06
:10299800704780B483B000AF78607B681B6823F011
:1029A80001027B681A6000BF0C37BD465DF8047BE6
:1029B800704780B483B000AF786039607B681B686B
:1029C80023F004023B681A437B681A6000BF0C3787
:1029D800BD465DF8047B704780B483B000AF786073
:1029E8007B681B6803F0040318460C37BD465DF886
:1029F800047B704780B483B000AF78607B68DB6A83
:102A080018460C37BD465DF8047B704780B483B028
:102A180000AF786039607B683A681A6300BF0C378A
:102A2800BD465DF8047B704780B483B000AF786022
:102A380039607B683A685A6300BF0C37BD465DF859
:102A4800047B704780B483B000AF786039607B68DE
:102A58003A689A6300BF0C37BD465DF8047B70473F
:102A680080B483B000AF786039607B683A68DA6315
:102A780000BF0C37BD465DF8047B704780B483B057
:102A880000AF78607B685B6B18460C37BD465DF815
:102A9800047B704780B483B000AF78607B689B6B21
:102AA80018460C37BD465DF8047B704780B483B088
:102AB80000AF78607B68DB6B18460C37BD465DF865
:102AC800047B704780B483B000AF78607B686FF098
:102AD80002021A6100BF0C37BD465DF8047B7047DF
:102AE80080B483B000AF78607B68DB6803F00203D2
:102AF800022B01D1012300E0002318460C37BD4604
:102B08005DF8047B704780B483B000AF78607B6861
:102B18005B6943F001027B685A6100BF0C37BD4610
:102B28005DF8047B704780B483B000AF78607B6841
:102B38001B6918460C37BD465DF8047B704780B4A6
:102B480083B000AF786039607B683A689A6100BFEB
:102B58000C37BD465DF8047B704780B483B000AF86
:102B6800786039603B681A047B689A6100BF0C374B
:102B7800BD465DF8047B704780B584B000AF7860CF
:102B880087ED000AD7ED007AF5EEC07AF1EE10FA7B
:102B980003D54FF000033B600AE0D7ED007A9FEDC4
:102BA800167AF4EEC77AF1EE10FA01DD134B3B60AA
:102BB8007B681B681846FFF71DFFF8607B681B7968
:102BC800002B0CBF01230023DBB21A46FB68134419
:102BD80007EE903AB8EE677AD7ED007A27EE277AB3
:102BE800DFED056AC7EE267AFCEEE77A17EE903A33
:102BF80018461037BD4680BD0000C8420000C842D4
:102C080080B582B000AF786039607B681B68184671
:102C1800FFF734FF02463B68934205D07B681B6888
:102C280039681846FFF700FF00BF0837BD4680BD6A
:102C380080B582B000AF786039607B681B68184641
:102C4800FFF728FF02463B68934205D07B681B6864
:102C580039681846FFF7F6FE00BF0837BD4680BD45
:102C680080B582B000AF786039607B681B68184611
:102C7800FFF71CFF02463B68934205D07B681B6840
:102C880039681846FFF7ECFE00BF0837BD4680BD1F
:102C980080B584B000AF786087ED000A97ED000A30
:102CA8007868FFF769FFF860F9687868FFF7A8FFA8
:102CB80000BF1037BD4680BD80B584B000AF7860D6
:102CC80087ED000A97ED000A7868FFF755FFF8606E
:102CD800F9687868FFF7ACFF00BF1037BD4680BDC4
:102CE80080B584B000AF786087ED000A97ED000AE0
:102CF8007868FFF741FFF860F9687868FFF7B0FF78
:102D080000BF1037BD4680BD80B485B000AF786085
:102D18007B681B689B6803F00703FB60FB68062B56
:102D28000CBF01230023DBB218461437BD465DF8FB
:102D3800047B704780B584B000AF78600B46FB70A9
:102D48007B681B681846FFF747FEF860FB78002B86
:102D58000AD07B681B681E4A934205D17B681B68B2
:102D680000211846FFF752FEFB68042B11D07B6840
:102D78001B6804211846FFF71CFE7B681B68184671
:102D8800FFF7C1FE7B681B68F9681846FFF711FE5C
:102D980004E07B681B681846FFF7B5FE7B681B6874
:102DA8001846FFF7E6FDFB78002B0CD07B681B6804
:102DB800074A934207D17B681A687B685B79194692
:102DC8001046FFF723FE00BF1037BD4680BD00BF89
:102DD8000000014080B582B000AF78607B681B6856
:102DE8001846FFF7D6FD00BF0837BD4680BD000076
:102DF800F0B5B7B006AF78607B6800221A727B68BE
:102E080001225A60384BFB6000233B7400237B741B
:102E180007F10C031846FEF771FD02467B68DA607D
:102E28007B68DB6802211846FEF7F4FA0023C7F82E
:102E3800BC300BE07B68D7F8BC200832002123F8AF
:102E48001210D7F8BC300133C7F8BC30D7F8BC3003
:102E58000F2BEFDD7B681033C7F8A030234BC7F882
:102E68009830042387F89C301023C7F8A830002333
:102E7800C7F8A4300023C7F8AC30002387F8B03077
:102E8800002387F8B4307B68DE68012305936D461C
:102E980007F1A4040FCC0FC523682B6007F1980332
:102EA8000ECB3046FEF77CFD7B68DB6802211846B6
:102EB800FEF7E4FB7B68DB681846FFF725FF03464F
:102EC80087F8BB3097F8BB30002B05D17B68DB68EF
:102ED80000211846FFF72EFF7B6801221A7200BFF7
:102EE800C437BD46F0BD00BF00040040006002408A
:102EF80080B58CB002AF78607B6800221A727B685C
:102F080001225A600023BB6100233B74174BFB610D
:102F180000233B620023BB74002387F8243001237D
:102F280087F825300323FB6003237B7407F10C002B
:102F38004FF400130093022300220221FFF71AF92D
:102F480002467B68DA607B68DB681846FFF7A2F9FF
:102F58007B68DB6800211846FFF700F97B680122CF
:102F68001A7200BF2837BD4680BD00BF002001404F
:102F780080B5A6B000AF78601D4BBB6000233B73E3
:102F880000237B7307F108031846FEF7B7FC0246D7
:102F98007B68DA607B68DB6800211846FEF73AFA3E
:102FA8007B68DB6804211846FEF768FB7B68DB68F2
:102FB80004211846FEF7CAFB7B68DB680421184623
:102FC800FEF72CFC7B68DB681846FFF79DFE03467E
:102FD80087F8973097F89730002B05D17B68DB6826
:102FE80001211846FFF7A6FE00BF9837BD4680BDF1
:102FF8000000014090B585B000AF1948FFF793FD78
:10300800B860174B7B60BB6803F04003002B02D00D
:103018002023FB6001E00023FB60FB681946786809
:10302800FFF78DFDFB68DB4303F020031946786842
:10303800FFF793FD0B4B9A6A01329A629B6A184616
:10304800FDF7E8F9074BD3E90C23064CFDF75CFACA
:1030580002460B46C4E9082300BF1437BD4690BD9D
:10306800000002402003002098B500AF62494FF0ED
:103078000002624BC1E912235F495DA3D3E9002333
:10308800C1E90C235C4B5E4A9A605B4B5D4ADA608F
:10309800594B5D4A1A61584B5C4A5A61564B5C4A17
:1030A8005A605B4B5B4A1A605A4B5B4A1A60594B31
:1030B800594A5A60574B584A9A60564B574ADA60F1
:1030C800544B564A1A61534B544A5A61514B544A0D
:1030D8009A61504B524ADA614E4B514A1A624D4B33
:1030E8004D4A5A624B4B4C4A9A62434A424B5B6880
:1030F80018329A60404A404B5B6808325A603E4A30
:103108003D4B5B682032DA603B4B3B4A9B6A9363DA
:10311800444BB3F86E20444BA3F85220424B002294
:103128005A60414B00221A703F48FFF761FE3D4B41
:10313800B3F86A203D4B5A802F4B2F4A9B6AD363C2
:10314800384BB3F87620384BA3F85020364B002282
:103158005A63354B002283F830203548FFF7C8FE04
:10316800304BB3F87220314B1A802F4B002283F872
:1031780040202D4B002283F848202B4B01225A6413
:103188002C48FFF7F5FE284B012283F84820264BF0
:10319800DC6C244BD3E9022310461946FDF784FC66
:1031A800034600EE103A2046FFF772FD1E4BDC6C1A
:1031B8001C4BD3E9022310461946FDF775FC03465C
:1031C80000EE103A2046FFF777FD174BDC6C154BE5
:1031D800D3E9022310461946FDF766FC034600EEC4
:1031E800103A2046FFF77CFD00BF98BDAFF3008082
:1031F8009A9999999999C93F200300200000F0BF36
:1032080079B38E576DBBA96C7C4794A7CA03AEDA15
:10321800780300208C030020BC1701081903002044
:103228001803002000000020C4020020C002002073
:10323800F40200200403002080B500AF344B1B7853
:10324800002B1BD1324B01221A70314B5B68012BCA
:1032580014D12F4B1B7A002B10D02D4BDB6818464E
:10326800FFF7B8FD2A4BDB6802211846FEF76CF918
:10327800274BDB6802211846FEF734FA244B93F8F3
:103288003030002B13D1224B012283F83020204B01
:103298005B6B012B0BD11E4B93F83830002B06D0FB
:1032A8001B4BDB6B002202211846FFF766F8184B10
:1032B80093F84030002B29D1154B012283F8402088
:1032C800134B5B6C012B21D1114B93F84830002B29
:1032D8001CD00F4BDB6C1846FFF77CFD0C4BDB6CEE
:1032E80000211846FEF730F9094BDB6C042118461B
:1032F800FEF7F8F9064BDB6C04211846FEF75AFA7C
:10330800034BDB6C04211846FEF7C0FA00BF80BDF2
:10331800C402002080B500AF022208492C20FFF724
:103328009DFA1D20FFF7C2FA022205492120FFF766
:1033380095FA1220FFF7BAFA00BF80BD5133000892
:10334800B93400080000000080B58AB000AF5048CA
:10335800FFF7C6FB0346002B07D04E48FEF73EF8A2
:103368000346002B01D0012300E00023002B7FD06F
:103378004748FFF7A7FB484B1B78DBB2012B77D1F7
:10338800464B93F9553087F82630002387F82730C5
:1033980097F82630042B20D801A252F823F000BF5A
:1033A800BD330008C5330008CD330008D533000805
:1033B800DD330008002387F827300EE0032387F861
:1033C80027300AE0032387F8273006E0002387F830
:1033D800273002E0002387F8273097F927202F4B62
:1033E80083F855202E4B2E4A9B6A93632B4BB3F8D8
:1033F80052202C4BB3F86C301344BB84274BB3F8E2
:103408005220294B5A80254BD86807F120033946AA
:103418001022FEF7D7FC234B1B88BA8C9A4206D998
:10342800204BB3F868201D4BA3F8522003E01B4A39
:10343800BB8CA2F85230194B042283F85520184B44
:103448009B6B1846FCF7E6FF0FA3D3E90023FDF7B3
:103458005BF802460B461549C1E90023134B93ED6F
:10346800007BB0EE470AF0EE670A0120FFF706F985
:10347800BFF36F8F00BFBFF34F8F00BF00BF283768
:10348800BD4680BDAFF300809A9999999999C93F33
:103498000004004000020020BE030020C4020020F7
:1034A8002003002000000020C0020020B8020020F5
:1034B80080B586B000AFFFF7E4F938614E48FFF7F2
:1034C80045FA0346002B07D04C48FEF72CFE03466E
:1034D800002B01D0012300E00023002B76D04648C2
:1034E800FFF726FA464B1B78DBB2012B6ED1454B12
:1034F80093F95430FB730023FB75FB7B042B1BD81B
:1035080001A252F823F000BF253500082B3500082A
:1035180031350008373500083D3500080023FB75B4
:103528000AE00323FB7507E00323FB7504E000238F
:10353800FB7501E00023FB7597F91720314B83F8E1
:103548005420314B304A9B6AD3632E4BB3F850203A
:103558002E4BB3F874301344BB812A4BB3F8502078
:103568002B4B1A80274BDB6B3A4602211846FEF795
:10357800A6FE264B5B88BA899A4206D9234BB3F834
:103588007020204BA3F8502003E01E4ABB89A2F804
:1035980050301C4B042283F854201B4BDB6B18461D
:1035A800FCF738FF12A3D3E90023FCF7ADFF02466E
:1035B8000B461849C1E90023164B93ED007BB0EE8A
:1035C800470AF0EE670A0220FFF758F8BFF36F8F3B
:1035D80000BFBFF34F8F00BF3B69BB60BB6883F37D
:1035E800108800BF00BF1837BD4680BDAFF300800C
:1035F8009A9999999999C93F002001408C02002015
:10360800BE030020C4020020200300200000002088
:10361800C0020020B802002080B500AF1D20FFF7CF
:1036280063F91220FFF760F900BF80BD80B582B052
:1036380000AF4FF000024FF00003C7E90023164B1C
:103648001B785A1CD1B2144A1170002B09D0134BA5
:1036580001221A60104B1B78013BDAB20E4B1A702C
:1036680016E062B600BF0E4B1B68D3E90823C7E912
:103678000023FFF7BFFC97ED000B0020FEF7FEFFCD
:1036880072B600BF044B1B78013BDAB2024B1A70CA
:103698000837BD4680BD00BFBC030020B80300202A
:1036A800B817010880B586B000AF786039605D4B07
:1036B8007B615D4B3B610023FB735C4B00221A70FE
:1036C8005B4B00221A700AF039F808F089FC06F002
:1036D80081F909F09FF809F061F808F0DFFF08F0B8
:1036E800FFFD08F0CDFC08F0C7FE08F0F7FE514BCF
:1036F8001B6800221A6000210020FEF7B5FE034671
:10370800FB7397F90F30002B02D097F90F3084E044
:10371800FFF700FEFFF7A8FC72B600BF62B600BF55
:10372800444B1B685A68434B1B684833194610467C
:10373800FEF7AAFE0346FB7397F90F30002B0DD155
:103748004FF0FF30FEF734FFFFF746F80346002B33
:1037580004D0384B1B68012283F8502072B600BF92
:1037680097ED050A06F02AFAFFF742F80346002B00
:103778000CD1FFF731F80346002B07D12D4B1B68FE
:1037880093F85030002B01D1012300E00023DAB276
:10379800274B1A7062B600BF62B600BF2FE0FEF773
:1037A800EBFF0346FB73FFF723F80346002B0AD110
:1037B800FFF712F80346002B05D11E4B1B6893F840
:1037C8005030002B01D0012300E00023DAB2174B60
:1037D8001A70164B1B78DBB2002B0CBF0123002399
:1037E800DBB21A46124B1A70104B1B78DBB2002B57
:1037F80005D0114B1B68104A23F0010313600C4BD2
:103808001B78DBB2002BCAD1FFF716FDFEF7C4FF09
:10381800FFF702FF72B600BF002318461837BD46EF
:1038280080BD00BFCDCC4C3E0000A842BD030020A7
:10383800BE030020B817010810E000E00FB480B400
:1038480000AF00BFBD465DF8047B04B0704780B48C
:1038580085B000AFF860B9607A60FB68BA681A6032
:10386800FB6804337A681A6000BF1437BD465DF8F8
:10387800047B704700000000F0B58BB000AF87ED07
:10388800020B0346FB80FB88002B77D14FF0000228
:10389800414BD7E90201FCF737FE02460B46C7E960
:1038A80006239FED391B97ED060B0BF013F853EC2D
:1038B800102B10461946FDF7D7F803467B61002305
:1038C8007B6233A3D3E90023D7E90601FDF7ACF8FF
:1038D8000346002B0ED02EA3D3E90023D7E9060117
:1038E800FCF73CFF02460B4610461946FDF7BCF8AC
:1038F80003467B627A6A79692848FFF7A8FF284B54
:10390800D3E900014FF00002264BFDF765F80346A6
:10391800002B2ED1224BD3E900014FF000024FF0CB
:103928004043FDF759F80346002B22D11C4BD3E93D
:103938000001D7E90223FCF72FFC02460B46144688
:103948001D464FF00002184BD7E90201FCF7DCFDD9
:1039580002460B4601210E4620462946FDF746F849
:103968000346002B01D100231E46F3B21A460F4B23
:103978001A700F49D7E90223C1E9002300BF2C3789
:10398800BD46F0BDAFF30080000000000000F0412C
:103998000000E0FFFFFFEF4100408F40E8030020F8
:1039A800780000200000F0BF0000B03CD8030020E1
:1039B800F003002080B584B000AF0023BB60002373
:1039C8007B600023FB731F494FF000024FF0000398
:1039D800C1E900233A1D07F108031146184605F00E
:1039E800B3FFBB687A681146184604F0D3F803465B
:1039F800FB7397F90F30002B05D01348FFF71EFF14
:103A080097F90F301AE03A1D07F1080311461846D6
:103A180005F0B1FFBB687A681146184600F054FFFC
:103A28000346FB7397F90F30002B05D097F90F3039
:103A380019460648FFF702FF97F90F301846103766
:103A4800BD4680BDE0030020E4F100080CF2000848
:103A580080B584B000AF0346FB710023FB730023DD
:103A6800BB73002005F09EFF00237B7304F060FA0F
:103A78000346FB7397F90F30002B0DD097F90F30E1
:103A880013F1020F08D097F90F3019463C48FFF799
:103A9800D5FE0123BB730BE07B7B002B04D197F988
:103AA8000F3013F1020F01D0012300E000237B73D4
:103AB800BB7B002B21D100F039FF0346FB7397F93C
:103AC8000F30002B0DD097F90F3013F1020F08D0EB
:103AD80097F90F3019462B48FFF7B0FE0123BB7347
:103AE8000BE07B7B002B04D197F90F3013F1020F09
:103AF80001D0012300E000237B73BB7B002B21D185
:103B080004F0A0F90346FB7397F90F30002B0DD092
:103B180097F90F3013F1020F08D097F90F301946B3
:103B28001948FFF78BFE0123BB730BE07B7B002B4F
:103B380004D197F90F3013F1020F01D0012300E0EF
:103B480000237B73FB79002B0DD0002005F02AFFA2
:103B5800BB7B002B02D17B7B002B01D1012300E032
:103B68000023BB7301E00123BB73BB7B002B3FF435
:103B78007BAF97F90F3018461037BD4680BD00BFA0
:103B880034F200086CF200089CF2000880B582B09C
:103B980000AF0023BB70394B1B78DBB2002B02D07F
:103BA800002000F0E1FF00F0B3FF0346FB700023A4
:103BB8007B600EE00A2005F0F5FE7B6803F51C53D8
:103BC80010337B600120FFF743FF00F0A1FF03469D
:103BD800FB707B682A4A934202D8FB78002BE9D114
:103BE80000F0A2FF0346BB7097F90230002B05D006
:103BF80097F9023019462348FFF720FE04F012FB1C
:103C08000346BB7097F90230002B05D097F90230B4
:103C180019461D48FFF712FE1C4B00221A701C4B58
:103C280000221A701B4B00221A601B4B00221A60DC
:103C38001A4B00221A601A4B00221A60194B0022F4
:103C48001A6019494FF000024FF04043C1E90023C0
:103C58000A4B00221A700822002114480BF012F9AE
:103C680013494FF000024FF00003C1E9002397F910
:103C7800023018460837BD4680BD00BFD803002073
:103C8800FF2C3101D4F20008F0F20008BF03002035
:103C9800C0030020C4030020C8030020CC03002078
:103CA800D0030020D403002078000020E80300207F
:103CB800F003002080B586B000AF614B1B687B61C4
:103CC8007B69002B00F0B8805E4B1B78DBB2002BC1
:103CD80004D15B4B1B68002B00F0AE805A4B1B785D
:103CE800DBB2022B40F0A880584B1B78002B40F029
:103CF800A3807B69D3E90023C7E90223544B1B78CF
:103D0800002B00F08A80534B1B78DBB2002B04D0C9
:103D1800504B1B78DBB2022B01D1012300E00023BA
:103D2800FB714C4B1B78DBB2012B04D0494B1B7841
:103D3800DBB2022B01D1012300E00023BB71FB7928
:103D4800002B33D0444BD3E90023D7E90201FCF719
:103D580061FE0346002B0AD0404BD3E900013E4BDD
:103D6800D3E90023FCF742FE0346002B14D13A4B5B
:103D7800D3E90023D7E90201FCF756FE0346002BDE
:103D880014D0364BD3E90001334BD3E90023FCF7B9
:103D980023FE0346002B09D0314B1B68002B02D1B0
:103DA800304B01221A70294B01221A70BB79002B63
:103DB80033D0294BD3E90023D7E90201FCF716FEDB
:103DC8000346002B0AD0254BD3E90001224BD3E947
:103DD8000023FCF71FFE0346002B14D11E4BD3E92A
:103DE8000023D7E90201FCF7F7FD0346002B14D0A6
:103DF8001A4BD3E90001184BD3E90023FCF714FE52
:103E08000346002B09D0164B1B68002B02D1154B1B
:103E180001221A700D4B01221A700C4B1B78002BD3
:103E28000CBF01230023DBB21A46094B1A700B4959
:103E3800D7E90223C1E9002300BF1837BD4680BD7A
:103E4800FC030020000400201C0400202B04002098
:103E58002804002018040020080400202004002062
:103E6800140400202A04002080B582B000AF00238B
:103E7800FB719E4B1B78DBB2002B18D19C4B0022A8
:103E88001A709C4B00221A709B4B1B78DBB2002BDC
:103E98002DD0964B02221A70974B00221A70974B1E
:103EA8001B78DBB2002B22D10123FB711FE0924B60
:103EB80000221A708E4B1B78DBB2002B09D0904B76
:103EC80000221A70894B00221A70894B00221A703E
:103ED8000DE08A4B1B78DBB2002B02D10123FB716A
:103EE80005E0844B1B78FB71824B00221A707F4BD4
:103EF8001B78DBB2042B00F2D78001A252F823F022
:103F08001D3F000857400008373F00080B400008D5
:103F1800953F0008784B1B78DBB2002B00F0D88067
:103F2800724B02221A70744B00221A70D0E0FB798F
:103F3800002B00F0CF80734B1B68002B0DDD6F4BFF
:103F48001B78DBB2012B08D16E4B1B681A466E4BEF
:103F58001A60664B03221A70BCE06C4B1B68002B7E
:103F68000AD0674B01221A70684B1B68664A1360B7
:103F78005E4B04221A70ADE06548FFF75FFC604BAA
:103F880000221A70594B00221A70A3E05E4B1B687E
:103F9800002B04D05C4B1B68013B5B4A13605A4BF7
:103FA8001B68002B40F098805A4B1B78DBB2012B22
:103FB80006D1534B00221A704C4B00221A708BE02A
:103FC800554B1B68002B0AD04D4B00221A70524BE0
:103FD8001B684D4A1360454B01221A707CE0FB793F
:103FE800002B07D0494B1B68474A13603F4B0422FC
:103FF8001A7071E0424B00221A703C4B02221A7070
:104008006AE0414B1B68002B04D03F4B1B68013B07
:104018003D4A13603C4B1B68002B5FD13B4B1B6830
:10402800002B0AD0364B01221A70384B1B68364ACF
:1040380013602E4B04221A7050E03548FFF7FEFB40
:104048002F4B00221A70294B00221A7046E02E4B83
:104058001B68002B04D02C4B1B68013B2A4A1360B9
:10406800294B1B68002B3BD1FB79002B18D0274B21
:104078001B68002B0AD0224B01221A70234B1B68A5
:10408800214A1360194B04221A7029E02048FFF7CF
:10409800D5FB1B4B00221A70144B00221A701FE02C
:1040A800124B02221A701BE0104B1B78DBB2194628
:1040B8001A48FFF7C3FB124B00221A700D4B00225F
:1040C8001A700B4B00221A70084B00221A7008E075
:1040D80000BF06E000BF04E000BF02E000BF00E050
:1040E80000BF00BF0837BD4680BD00BF1C040020CC
:1040F800190400202B040020840000201A0400204A
:104108002A040020140400202C0400208000002031
:1041180014F300081B040020100400203CF30008DE
:1041280080B400AF10494FF000024FF00003C1E91E
:1041380000230E4B00221A700D4B1B78DAB20D4B80
:104148001A700D4B00221A700C4B00221A700C4B7F
:1041580000221A600B4B00221A7000231846BD4635
:104168005DF8047B704700BF20040020280400206D
:104178001A040020290400202A0400202B0400200F
:104188002C0400201C04002080B584B000AF034636
:10419800FB80FB88002B3FD1314B1B78DAB2314BC7
:1041A8001B789A4214BF01230023DBB2FB732C4B0C
:1041B8001B78DAB22B4B1A70FB7B002B0BD02A4BE7
:1041C80000221A70294B00221A70294B00221A600B
:1041D800284B00221A70224B1B78DBB2012B1BD113
:1041E800244B1B78DBB2002B04D1234B1B78DBB2AA
:1041F800002B08D11F4B1B78DBB2012B0CD11C4BB9
:104208001B68012B08D11A4B00221A601A4B002296
:104218001A70184B02221A70114B1B78DBB2012B53
:1042280007D1164B1B889BB2FA889A4201D1FFF737
:1042380041FDFB88002B05D1FFF716FE104B00222D
:104248001A7006E00E4B1B78002B02D00D4B1B7822
:1042580001E0054B1B7818461037BD4680BD00BFEE
:104268001A040020290400202A0400202B0400201E
:104278002C0400201C04002084000020F8030020E7
:10428800310400203004002080B400AF26494FF0EC
:1042980000024FF00003C1E90023244B00221A70EA
:1042A800234B00221A70234B00221A70224B002243
:1042B8001A80224B00221A70214B00221A70214BBF
:1042C80000221A60204B00221A70204B00221A701C
:1042D8001F4B00221A601F4B00221A701E494FF014
:1042E80000024FF00003C1E900231C4B4FF47A721F
:1042F8001A601B4B00221A601A4B00221A601A4BD4
:1043080000221A70194B01221A70194B00221A70D8
:10431800184B00221A70184B00221A7000231846F6
:10432800BD465DF8047B7047200400202804002067
:104338001C04002029040020F80300202A0400207F
:104348002B0400202C04002030040020310400201D
:10435800FC03002000040020080400208000002046
:1043680010040020140400201804002084000020F9
:10437800190400201A0400201B04002080B400AF98
:10438800194B1B78DBB2002B29D1184B1B78DBB2F9
:10439800002B0BD0164B1B78DBB2002B06D1154B2C
:1043A80001221A70144B01221A7018E0104B1B7866
:1043B800DBB21A460D4B1B78DBB2002B0CBF012376
:1043C8000023DBB21340002B06D00A4B00221A70E0
:1043D800094B01221A7002E0074B00221A7000BF35
:1043E800BD465DF8047B70471A0400208400002055
:1043F80019040020300400203104002080B586B064
:1044080000AFF860B9607A603B600023FB7503F089
:10441800FDFE3861FB681B68184604F00DF90021A1
:10442800386803F06BFE0246BB681A6003F056FE5C
:1044380002467B681A60BB681B68002B0FD0BB68FC
:104448001B681946386904F0FDFB0246FB681A60D0
:10445800FB681B68002B04D1F623FB7501E0F823E9
:10446800FB7597F9173018461837BD4680BD000010
:1044780080B584B000AFF860B9607A60FA68BB684C
:1044880013441B7819460848FFF7D8F9FB68002B36
:1044980002D0F86804F0D0F87B6800221A60002384
:1044A80018461037BD4680BD60F3000880B584B05B
:1044B80000AFF860B9607A60FA68BB6813441B788B
:1044C80019460648FFF7BAF97B6802221A604FF0CE
:1044D800FF3318461037BD4680BD00BFBCF3000847
:1044E80080B485B000AF03460A46FB711346BB7122
:1044F8000523FB73FB79F02B02D90023FB7322E021
:10450800FB79E32B05D9FB79F02B02D80123FB7348
:1045180019E0FB79D22B02D9FB79E22B08D9FB7978
:10452800C02B08D1BB79002B05D0BB79022B02D850
:104538000223FB7307E0FB79C72B04D9FB79D22B45
:1045480001D80323FB73FB7B18461437BD465DF87F
:10455800047B704780B58CB000AFF860B9607A60B2
:104568003B60FB68BB62BB6A1B7887F82730002377
:1045780087F82F3097F82730C02B06D1BB68012B5E
:1045880003D9BB6A5B7887F82F30364B1B78002B32
:104598003ED097F82F2097F8273011461846FFF796
:1045A8009FFF0346FB76002387F82E30FB7E052B02
:1045B80023D0FB7E2C4A52F823307B6100233B61D9
:1045C8007B69002B19D097F827207B6910469847FC
:1045D80038613B69002B14BF01230023DBB287F845
:1045E8002E3097F82E30002B07D03B695A687B682D
:1045F8001A603B699A683B681A6097F82E30002B5E
:104608002CD17B68194A1A603B68194A1A6025E060
:1046180097F82730FF2B1BD1134B1B683B627B6835
:1046280000221A603B6800221A603B6A002B15D0F2
:104638003B6AFF209847F861FB69002B0ED0FB69A5
:104648005A687B681A60FB699A683B681A6005E0DB
:104658007B68084A1A603B6800221A6000BF30373E
:10466800BD4680BD3304002038040020B54400084E
:10467800454700087944000880B483B000AF03467A
:10468800FB71044AFB79137000BF0C37BD465DF817
:10469800047B70473304002080B400AF034B1B78C1
:1046A8001846BD465DF8047B704700BF34040020FF
:1046B80080B483B000AF0346FB71064B1A78FB79D0
:1046C8001343DAB2034B1A7000BF0C37BD465DF8CE
:1046D800047B70473404002080B483B000AF0346E5
:1046E800FB7197F90730DB435AB2074B1B785BB273
:1046F80013405BB2DAB2044B1A7000BF0C37BD46E8
:104708005DF8047B704700BF3404002080B400AF1C
:10471800034B1B781846BD465DF8047B704700BF05
:104728003504002080B400AF034B1B881846BD46F3
:104738005DF8047B704700BF3604002080B586B062
:1047480000AF0346B9607A60FB7397F90F30002B0E
:1047580005D1BB683B613B69FF221A7076E0BB68F4
:104768007B617B69FE221A7097F90F3010330F2B8B
:1047780062D801A252F823F03948000831480008ED
:10478800294800082148000819480008114800086D
:104798000148000809480008F9470008F1470008DF
:1047A800E9470008E1470008C9470008C147000871
:1047B800D1470008D94700087B6930225A7045E084
:1047C8007B6929225A7041E07B6922225A703DE0B8
:1047D8007B6920225A7039E07B6900225A7035E0E3
:1047E8007B6923225A7031E07B6921225A702DE0BF
:1047F8007B6911225A7029E07B6927225A7025E0CB
:104808007B692A225A7021E07B6910225A701DE0C8
:104818007B6924225A7019E07B6928225A7015E0B6
:104828007B6926225A7011E07B6931225A700DE0AB
:104838007B6933225A7009E097F90F301946054809
:10484800FEF7FCFF7B6920225A70FFE700BF18378C
:10485800BD4680BDECF3000880B487B000AF0346C6
:10486800B9607A60FB7300237B61BB68002B23D09F
:1048780000233B6100233B6117E03A6913465B0064
:1048880013449B001A46BB6813441B78FA7B9A4270
:1048980008D13A6913465B0013449B001A46BB686B
:1048A80013447B613B6901333B613A697B689A42F7
:1048B80002D27B69002BE0D07B6918461C37BD46C5
:1048C8005DF8047B7047000080B582B000AF786067
:1048D8003960134B1B78002B05D01248FEF7AEFF4A
:1048E8006FF00B0318E000F07BFC00F085FC03463A
:1048F8000D4A136002F052FA02F06CFA03460A4AB3
:10490800936003F045F803F04DF80346064A5360F8
:10491800034B01221A70002318460837BD4680BD94
:104928003204002030F400083804002080B58CB030
:1049380002AF002387F82730002387F826300023AA
:10494800FB610023BB6100237B6100233B610023E3
:10495800FB6000233B620023BB6000237B60554B58
:104968001B78002B05D15448FEF768FF6FF0080349
:104978009BE007F1140007F1180207F11C0107F189
:10498800100300930346002003F012FB034687F848
:10499800273097F92730002B09D097F9273013F1E2
:1049A800040F04D097F9273013F1050F71D1FB6973
:1049B800002B05D07A693B691A44BB699A4203D92E
:1049C800F82387F8273067E0FA697B6913443B626C
:1049D80039693B1D07F10802386AFFF7BBFDBB6860
:1049E800002B09D13B6A1B7819463448FEF726FF8D
:1049F800F42387F827304FE0BB68F869796907F135
:104A08000C029847034687F826307B68002B3DD078
:104A1800FB68002B3AD0002387F827303A69FB68F7
:104A28009A420BD2FB6807F1140207F1180107F14B
:104A38001C00FFF7E3FC034687F827303B691A465A
:104A48000021386A0AF01EFA97F92730002B1DD189
:104A5800FA697B6913443B627B68FA6897F9260018
:104A6800396A9847F969B8697B69FA6801920093CD
:104A780003460A464FF6FF71012003F041F9034649
:104A880087F8273097F92730002B04D197F927307A
:104A98000BE000BF00E000BFFB69002B03D0FB69FF
:104AA800184603F0C9FD97F9273018462837BD4640
:104AB80080BD00BF3204002060F4000888F40008BC
:104AC80080B584B000AF0346FB800023FB7300234E
:104AD800BB600D4B1B78002B05D10C48FEF7AEFED2
:104AE8006FF008030CE004F0C7FFB860FB880022F1
:104AF800B968184602F06CFB0346FB7397F90F3050
:104B080018461037BD4680BD32040020B8F40008AE
:104B180080B400AF034B1B781846BD465DF8047B94
:104B2800704700BF3304002080B500AF0B4B1B78E3
:104B3800002B02D10A48FEF781FE02F04FFF02F077
:104B4800F1FD00F075FB1022002106480AF09AF9E1
:104B5800024B00221A700023184680BD3204002040
:104B6800B0F500083804002080B584B000AF786044
:104B7800786802F0B1FB0346FB7397F90F301846CB
:104B88001037BD4680BD80B584B000AF0346FB80BA
:104B98000123FB73FA7BFB880021184602F018FBFF
:104BA8000346BB7397F90E3018461037BD4680BDD3
:104BB80080B584B000AF0346FB710123FB6003F0AE
:104BC800DCFAB860FA79B968FB68B1FBF3F39A428A
:104BD80034BF01230023DBB218461037BD4680BD21
:104BE80080B584B000AF78600B46FB7000F02AFBFC
:104BF800F860F9680648FEF721FE064B1B781A464E
:104C0800F96878680AF070F900BF1037BD4680BDB2
:104C1800D8F500085004002080B588B000AFF860CF
:104C2800B9607A600023FB77FA68BB681344BB61FC
:104C3800BB697B610023FB7402F0A6FC0346FB748E
:104C4800FB7C002B08D11A48FEF7F8FD7B6802228E
:104C58001A606FF00A0327E07B695B78002B03D0AA
:104C68007B695B78012B01D1012300E00023FB74F1
:104C7800FB7C002B0BD17B695B7819460D48FEF74E
:104C8800DDFD7B6802221A606FF001030CE00A4820
:104C9800FEF7D4FD0120FFF7EFFC0023FB777B68CC
:104CA80008221A6097F91F3018462037BD4680BD84
:104CB800F0F500083CF6000860F6000880B586B0FC
:104CC80000AF0346B9607A60FB7397F90F30002B89
:104CD80047D1BB687B610822002178690AF0D2F8C5
:104CE8007B69FF221A7005227B695A7000227B6952
:104CF8009A7003F042FA0346DAB27B69DA7003F07D
:104D080035FA03469AB27B699A807B6901229A71C7
:104D18007B690122DA717B695B7819461648FEF7D0
:104D28008DFD7B699B7819461448FEF787FD7B69E2
:104D3800DB7819461248FEF781FD7B699B889BB298
:104D480019461048FEF77AFD7B699B7919460E488B
:104D5800FEF774FD7B69DB7919460C48FEF76EFD9A
:104D680006E097F90F307A68B9681846FFF7E6FC4D
:104D780000BF1837BD4680BD88F60008A4F60008B5
:104D8800C0F60008DCF60008F8F6000814F700087A
:104D980080B586B000AFF860B9607A600123FB7512
:104DA80002F0F2FB0346FB75FB7D002B08D10B4894
:104DB800FEF744FD7B6802221A606FF00A0309E0DF
:104DC8000748FEF73BFD0020FFF756FC7B680122F1
:104DD8001A60002318461837BD4680BD30F7000812
:104DE80080F7000880B584B000AFF860B9607A60D9
:104DF8000548FEF723FD7B6806221A600023184643
:104E08001037BD4680BD00BFB0F7000880B586B03A
:104E180000AF0346B9607A60FB73BB687B6106220A
:104E2800002178690AF02EF87B69FF221A70FFF7D3
:104E380033FC03461A467B695A70FFF767FC034642
:104E48001A467B699A70FFF76DFC03461A467B6920
:104E58009A807B695B7819460948FEF7EFFC7B6905
:104E68009B7819460748FEF7E9FC7B699B889BB24B
:104E780019460548FEF7E2FC00BF1837BD4680BD5D
:104E8800BCF70008E0F7000804F8000880B586B011
:104E980000AFF860B9607A600023FB750B48FEF735
:104EA800CDFC02F05BFB0346FB75FB7D002B03D0BA
:104EB80003F08CF902F061FB7B6802221A606FF044
:104EC800040318461837BD4680BD00BF28F80008FF
:104ED80080B588B000AFF860B9607A600023FB77CE
:104EE800FA68BB681344BB61BB697B610023FB7430
:104EF8007B695A687B69DB781946104600F0AEF981
:104F08000346FB74FB7C002B08D10D48FEF796FC8A
:104F18007B6802221A606FF00B030CE07B6959680A
:104F28007B69DB781A460748FEF788FC7B68012214
:104F38001A6097F91F3018462037BD4680BD00BF5C
:104F480030F800084CF8000880B58AB000AFF86067
:104F5800B9607A60002387F82730FA68BB68134481
:104F68003B623B6AFB610023FB7600F06BF97861DA
:104F7800FB695B781846FFF71BFE0346FB76FB7E52
:104F8800002B0BD1FB695B7819461248FEF756FCDB
:104F98007B6802221A606FF0010316E07B69002B20
:104FA80008D10D48FEF74AFC7B6802221A606FF0B0
:104FB8000B030AE0FB695A78084B1A70074B1B78F9
:104FC8005A1C7B681A6097F9273018462837BD465F
:104FD80080BD00BF80F80008B0F800085004002029
:104FE80080B588B000AF0346B9607A60FB7397F963
:104FF8000F30002B30D100F025F9F861BB68BB6198
:1050080001220021B86909F03DFFBB69FF221A702F
:10501800FB69002B1CD0164B1B7801337A689A4227
:1050280016D1BB6801337B610023FB741148FEF77E
:1050380005FCFB7C19467869FFF7D2FD0C4B1B7801
:10504800184600F029F90A4B00221A7000BF0AE03E
:105058000948FEF7F3FB06E097F90F307A68B9685C
:105068001846FFF76BFB00BF2037BD4680BD00BF69
:1050780050040020CCF80008D8F8000880B588B0A3
:1050880000AFF860B9607A600023FB77FA68BB6804
:105098001344BB61BB697B610023FB747B695B784C
:1050A8001846FFF785FD0346FB74FB7C002B0BD1EC
:1050B8007B695B7819461748FEF7C0FB7B680222BC
:1050C8001A606FF0010320E07B695A687B69DB781E
:1050D8001946104600F0C2F80346FB74FB7C002B0F
:1050E80008D10D48FEF7AAFB7B6802221A606FF010
:1050F8000B030AE07B695A78084B1A70074B1B7838
:105108005A1C7B681A6097F91F3018462037BD462D
:1051180080BD00BFF8F800082CF9000850040020F2
:1051280080B588B000AF0346B9607A60FB7397F921
:105138000F30002B30D100F085F8F861BB68BB61F7
:1051480001220021B86909F09DFEBB69FF221A708F
:10515800FB69002B1CD0164B1B7801337A689A42E6
:1051680016D1BB6801337B610023FB741148FEF73D
:1051780065FBFB7C19467869FFF732FD0C4B1B7801
:10518800184600F089F80A4B00221A7000BF0AE09E
:105198000948FEF753FB06E097F90F307A68B968BB
:1051A8001846FFF7CBFA00BF2037BD4680BD00BFC9
:1051B800500400204CF900085CF9000880B582B062
:1051C80000AF0346FB71FB79072204491846FFF735
:1051D80043FB034618460837BD4680BDC017010883
:1051E80080B500AF034800F013F800F069F800BF7D
:1051F80080BD00BFC551000880B400AF034B1B68D9
:105208001846BD465DF8047B704700BF5404002073
:1052180080B483B000AF7860044A7B68136000BF35
:105228000C37BD465DF8047B704700BF540400206E
:1052380080B500AF00F04BF80020FFF7E9FF00BF92
:1052480080BD000080B400AF034B1B681846BD4604
:105258005DF8047B704700BF4804002080B483B029
:1052680000AF78600B46FB70FB78002B04D17B689D
:10527800002B01D1002306E0064A7B681360054A2B
:10528800FB781371012318460C37BD465DF8047B83
:10529800704700BF4804002080B483B000AF0346C5
:1052A800FB71064B1A68FB791344044A136000BF6C
:1052B8000C37BD465DF8047B704700BF48040020EA
:1052C80080B400AF00BFBD465DF8047B704780B472
:1052D80000AF00BFBD465DF8047B704780B584B061
:1052E80000AF0346FB800023FB7305F08EFE0346E8
:1052F8000B4A13600B4B1B68002B0CBF01230023C8
:10530800DBB2FB73FB7B002B04D1054B1B681846F3
:1053180005F08CFEFB7B18461037BD4680BD00BFEC
:10532800640400206004002080B582B000AF03460A
:10533800FB80044B1B68184605F078FE00BF083751
:10534800BD4680BD6404002080B582B000AF03462E
:10535800FB8005F05AFE0346074A1360074B1B689B
:105368000133064A1360044B1B68184605F05EFEBD
:1053780000BF0837BD4680BD6404002060040020DB
:1053880080B582B000AF0346FB8005F03EFE0346C1
:10539800074A1360074B1B68013B064A1360044B1E
:1053A8001B68184605F042FE00BF0837BD4680BDA1
:1053B800640400206004002080B483B000AF03467A
:1053C800FB80104B1968FA8813465B001344DB0016
:1053D8000B445B79022B0AD00A4B1968FA881346EA
:1053E8005B001344DB000B445B79032B01D10123E1
:1053F80000E00023DBB218460C37BD465DF8047B9D
:10540800704700BF5804002080B582B000AF002369
:10541800FB710023BB800023BB8008E0BB881846D3
:10542800FFF7CAFF0346FB71BB880133BB80094BFA
:105438009B88BA889A4202D2FB79002BEED0FB797E
:10544800002B0CBF01230023DBB218460837BD46EA
:1054580080BD00BF5804002080B485B000AF03466B
:10546800FB800B467B7113463B71284B1B68002B56
:1054780042D0264B9B88FA889A423DD2234B196822
:10548800FA8813465B001344DB000B441B68002BAF
:1054980032D01E4B1968FA8813465B001344DB00B0
:1054A8000B441B797A799A4226D2184B1968FA88E4
:1054B80013465B001344DB000B4419687A791346E2
:1054C800DB009B1A9B000B441B68002B14D00F4B6E
:1054D8001968FA8813465B001344DB000B4419680B
:1054E8007A791346DB009B1A9B000B441B793A79A7
:1054F8009A4201D2012300E00023FB73FB7B18468C
:105508001437BD465DF8047B704700BF580400207F
:1055180080B485B000AF03463A60FB710B46BB719F
:105528000023FB73BB79BB81FB79FF2B04D1BB89BB
:10553800FF2B01D80123FB73FB7B18461437BD46AC
:105548005DF8047B704780B483B000AF0346FB71FD
:10555800FB7923F01003002B0CBF01230023DBB2DF
:1055680018460C37BD465DF8047B704780B485B09B
:1055780000AF0346FB710023FB73FB79002B05D0BA
:10558800FB79012B02D0FB79022B01D10123FB739C
:10559800FB7B18461437BD465DF8047B704780B422
:1055A80085B000AF0346FB710023FB73FB79002B2A
:1055B80005D0FB79012B02D0FB79022B01D1012305
:1055C800FB73FB7B18461437BD465DF8047B7047B8
:1055D80080B400AF01231846BD465DF8047B7047D0
:1055E80080B485B000AF0346FB80164B1968FA8873
:1055F80013465B001344DB000B441B7B022B0ED1CC
:10560800104B1968FA8813465B001344DB000B44FF
:10561800DA880D4B1B889A4201D0012300E0002351
:10562800FB73FB7B002B04D0FB88012B01D80123E3
:1056380000E00023FB73FB7B18461437BD465DF87A
:10564800047B7047580400209000002080B485B087
:1056580000AF78600B46FB707B681968FA781346D0
:10566800DB009B1A9B000B44BB60BB689B687A6895
:10567800D28902FB03F30133FB60FB78002B08D1CE
:105688007B681B7A03F01003002B02D0FB680433FD
:10569800FB60FB6818461437BD465DF8047B70470D
:1056A80080B586B000AF78600023BB7400237B61AF
:1056B8000023FB740023FB7415E0FB7C1946786813
:1056C800FFF7C4FFF8600023BB600121F86802F00F
:1056D80015FDB860BA687B699A4201D9BB687B61DD
:1056E800FB7C0133FB747B681B79FA7C9A42E4D318
:1056F8007B681B791A4613465B0099187B6814333C
:105708001A46786903F050F80346BB7497F91230CB
:10571800002B03D07B684FF0FF325A6197F91230A3
:1057280018461837BD4680BD80B582B000AF786096
:105738007B685B69B3F1FF3F04D07B685B691846FF
:1057480003F044F97B684FF0FF325A6100BF083715
:10575800BD4680BD80B58AB000AFF860B9607A6098
:10576800002387F82730FA68BB6813443B623B6A1A
:10577800FB61FB699A78DB781B0213437B83FB6927
:105788001B797B76FB695B793B760023FB753A7E58
:10579800797E7B8B1846FFF75FFE0346FB75FB7D22
:1057A800002B0BD1798B7A7E3B7E1D48FEF746F89D
:1057B8007B6802221A606FF001032CE07B8B18468D
:1057C800FFF7FAFD0346002B0CBF01230023DBB2D1
:1057D800FB75FB7D002B0AD17B8B19461148FEF720
:1057E8002DF87B6802221A606FF0070313E0798BAB
:1057F8007A7E3B7E0C48FEF721F80C4A7B8B13809F
:105808000A4A7B7E9370094A3B7ED3707B680122EB
:105818001A6097F9273018462837BD4680BD00BF63
:1058280084F90008C8F90008F8F900088C0000207D
:10583800F0B58FB004AFF860B9607A60002387F8DC
:105848002730FA68BB6813443B623B6AFB61584BDC
:105858001B887B83564B9B787B76554BDB783B7656
:1058680000237B610023FB743A7E797E7B8B18468C
:10587800FFF7F2FD0346FB74FB7C002B0BD1798B01
:105888007A7E3B7E4B48FDF7D9FF7B6802221A607F
:105898006FF0050387E07B8B1846FFF78DFD034605
:1058A800002B0CBF01230023DBB2FB74FB7C002B15
:1058B8000AD17B8B19464048FDF7C0FF7B6802225E
:1058C8001A606FF007036EE0FB695878FB699978F6
:1058D800FB695B681A46FFF71BFE0346FB74FB7CFB
:1058E800002B1BD1798B7A7E387EFB695B781C464E
:1058F800FB699B781D46FB69DB781E46FB695B6884
:10590800039302960195009403462C48FDF796FFF1
:105918007B6802221A606FF0010344E0798B7A7E7B
:10592800387EFB695B781C46FB699B781D46FB69E2
:10593800DB781E46FB695B68039302960195009429
:1059480003461F48FDF77AFF1E4B19687A8B1346EA
:105958005B001344DB000B4419687A7E1346DB00B6
:105968009B1A9B000B441A683B7EDB0013447B6147
:10597800FB695A787B691A70FB699A787B695A7057
:10598800FB69DA787B699A70FB695A687B695A60A7
:10599800074BDB780133DAB2054BDA707B680122FA
:1059A8001A6097F9273018462C37BD46F0BD00BF5E
:1059B8008C00002048FA0008A4FA0008D4FA00086D
:1059C8004CFB00085804002090B58DB002AFF86079
:1059D800B9607A60002387F82730FA68BB681344F7
:1059E8003B623B6AFB610023BB610023FB75614B93
:1059F8001B68002B08D0FB695B889AB25D4B9B88BB
:105A08009A4201D2012300E00023FB75FB7D002BA5
:105A18000CD1FB695B889BB219465748FDF70EFF0E
:105A28007B6802221A606FF001039FE0514B1A68ED
:105A3800FB695B889BB219460B465B000B44DB0095
:105A48001344BB61FB695B889BB21846FFF7B4FC43
:105A58000346002B0CBF01230023DBB2FB75FB7D43
:105A6800002B0CD1FB695B889BB219464348FDF7B4
:105A7800E5FE7B6802221A606FF0070376E0FB6997
:105A88009B889BB27F2B94BF01230023DBB2FB755D
:105A9800FB7D002B0CD1FB699B889BB219463848CB
:105AA800FDF7CCFE7B6802221A606FF001035DE00F
:105AB800FB69DB79002B0CBF01230023DBB2FB75EC
:105AC800FB7D002B08D12F48FDF7B8FE7B6802222A
