:020000040800F2
:1000000000800120A90901081BEA000821EA000874
:1000100027EA00082DEA000833EA00080000000083
:1000200000000000000000000000000009C20008FD
:1000300039EA000800000000C5C10008EDC0000852
:10004000F9090108F9090108F9090108F909010884
:10005000F9090108F9090108F9090108F909010874
:10006000F9090108F9090108F9090108F909010864
:10007000F9090108F9090108F9090108F909010854
:1000800075CF0008F9090108C93F00080000000009
:10009000000000000000000000000000F909010855
:1000A000F9090108F9090108F9090108F909010824
:1000B000F9090108F9090108F9090108F909010814
:1000C000F9090108F9090108F9090108F909010804
:1000D000F9090108F909010861CF000800000000D2
:1000E000F9350008F9090108F909010800000000C4
:1000F000000000000000000000000000F9090108F5
:1001000000000000F909010849EA0008F90901089E
:1001100000000000000000000000000000000000DF
:100120005DEA0008F9090108F9090108F90901085F
:10013000F9090108000000000000000000000000B4
:10014000000000000000000000000000F9090108A4
:10015000F9090108F9090108F9090108F909010873
:10016000F9090108F9090108000000000000000079
:10017000000000000000000000000000000000007F
:1001800000000000F9090108000000000000000064
:04019000F909010860
:1001980081F0004102E000BF83F0004330B54FEA30
:1001A80041044FEA430594EA050F08BF90EA020F9D
:1001B8001FBF54EA000C55EA020C7FEA645C7FEA30
:1001C800655C00F0E2804FEA5454D4EB5555B8BF53
:1001D8006D420CDD2C4480EA020281EA030382EAC4
:1001E800000083EA010180EA020281EA0303362D56
:1001F80088BF30BD11F0004F4FEA01314FF4801C29
:100208004CEA113102D0404261EB410113F0004F3A
:100218004FEA03334CEA133302D0524263EB4303F1
:1002280094EA050F00F0A780A4F10104D5F1200E8F
:100238000DDB02FA0EFC22FA05F2801841F10001EA
:1002480003FA0EF2801843FA05F359410EE0A5F1BE
:1002580020050EF1200E012A03FA0EFC28BF4CF0EF
:10026800020C43FA05F3C01851EBE37101F00045A5
:1002780007D54FF0000EDCF1000C7EEB00006EEBB2
:100288000101B1F5801F1BD3B1F5001F0CD349083C
:100298005FEA30004FEA3C0C04F101044FEA445293
:1002A80012F5800F80F09A80BCF1004F08BF5FEA1A
:1002B800500C50F1000041EB045141EA050130BDFA
:1002C8005FEA4C0C404141EB0101013C28BFB1F50C
:1002D800801FE9D291F0000F04BF01460020B1FA57
:1002E80081F308BF2033A3F10B03B3F120020CDA2A
:1002F8000C3208DD02F1140CC2F10C0201FA0CF008
:1003080021FA02F10CE002F11402D8BFC2F1200C6C
:1003180001FA02F120FA0CFCDCBF41EA0C01904022
:10032800E41AA2BF01EB0451294330BD6FEA04046B
:100338001F3C1CDA0C340EDC04F11404C4F1200256
:1003480020FA04F001FA02F340EA030021FA04F368
:1003580045EA030130BDC4F10C04C4F1200220FABF
:1003680002F001FA04F340EA0300294630BD21FAFD
:1003780004F0294630BD94F0000F83F4801306BFC3
:1003880081F480110134013D4EE77FEA645C18BFB7
:100398007FEA655C29D094EA050F08BF90EA020F4E
:1003A80005D054EA000C04BF1946104630BD91EA46
:1003B800030F1EBF0021002030BD5FEA545C05D149
:1003C8004000494128BF41F0004130BD14F5800488
:1003D8003CBF01F5801130BD01F0004545F0FE41FC
:1003E80041F470014FF0000030BD7FEA645C1ABF31
:1003F800194610467FEA655C1CBF0B46024650EA68
:10040800013406BF52EA033591EA030F41F4002193
:1004180030BD00BF90F0000F04BF0021704730B519
:100428004FF4806404F132044FF000054FF00001EE
:1004380050E700BF90F0000F04BF0021704730B5AF
:100448004FF4806404F1320410F0004548BF404284
:100458004FF000013EE700BF42004FEAE2014FEAD9
:1004680031014FEA02701FBF12F07F4393F07F4FB4
:1004780081F06051704732F07F4208BF704793F0B7
:100488007F4F04BF41F40021704730B54FF46074CA
:1004980001F0004521F000411CE700BF50EA0102CD
:1004A80008BF704730B54FF000050AE050EA010276
:1004B80008BF704730B511F0004502D5404261EBE6
:1004C80041014FF4806404F132045FEA915C3FF427
:1004D800D8AE4FF003025FEADC0C18BF03325FEAC4
:1004E800DC0C18BF033202EBDC02C2F1200300FA75
:1004F80003FC20FA02F001FA03FE40EA0E0021FA9A
:1005080002F11444BDE600BF70B54FF0FF0C4CF487
:10051800E06C1CEA11541DBF1CEA135594EA0C0F39
:1005280095EA0C0F00F0DEF82C4481EA030621EA74
:100538004C5123EA4C5350EA013518BF52EA0335AF
:1005480041F4801143F4801338D0A0FB02CE4FF061
:100558000005E1FB02E506F00042E0FB03E54FF091
:100568000006E1FB03569CF0000F18BF4EF0010E89
:10057800A4F1FF04B6F5007F64F5407404D25FEA85
:100588004E0E6D4146EB060642EAC62141EA555138
:100598004FEAC52040EA5E504FEACE2EB4F1FD0C7A
:1005A80088BFBCF5E06F1ED8BEF1004F08BF5FEAF8
:1005B800500E50F1000041EB045170BD06F00046AA
:1005C80046EA010140EA020081EA0301B4EB5C0457
:1005D800C2BFD4EB0C0541EA045170BD41F480114F
:1005E8004FF0000E013C00F3AB8014F1360FDEBF74
:1005F800002001F0004170BDC4F10004203C35DA50
:100608000C341BDC04F11404C4F1200500FA05F3D2
:1006180020FA04F001FA05F240EA020001F0004273
:1006280021F0004110EBD37021FA04F642EB0601E9
:100638005EEA430E08BF20EAD37070BDC4F10C0413
:10064800C4F1200500FA04F320FA05F001FA04F2D7
:1006580040EA020001F0004110EBD37041F10001C3
:100668005EEA430E08BF20EAD37070BDC4F12005CE
:1006780000FA05F24EEA020E20FA04F301FA05F236
:1006880043EA020321FA04F001F0004121FA04F2DE
:1006980020EA020000EBD3705EEA430E08BF20EAAE
:1006A800D37070BD94F0000F0FD101F000464000E8
:1006B80041EB010111F4801F08BF013CF7D041EA6A
:1006C800060195F0000F18BF704703F0004652006E
:1006D80043EB030313F4801F08BF013DF7D043EA3F
:1006E8000603704794EA0C0F0CEA135518BF95EAF5
:1006F8000C0F0CD050EA410618BF52EA4306D1D17C
:1007080081EA030101F000414FF0000070BD50EA9A
:10071800410606BF1046194652EA430619D094EA24
:100728000C0F02D150EA013613D195EA0C0F05D10E
:1007380052EA03361CBF104619460AD181EA030162
:1007480001F0004141F0FE4141F470014FF000001A
:1007580070BD41F0FE4141F4780170BD70B54FF0B5
:10076800FF0C4CF4E06C1CEA11541DBF1CEA135535
:1007780094EA0C0F95EA0C0F00F0A7F8A4EB050417
:1007880081EA030E52EA03354FEA013100F088800E
:100798004FEA03334FF0805545EA131343EA1263D7
:1007A8004FEA022245EA111545EA10654FEA00268C
:1007B8000EF000419D4208BF964244F1FD0404F545
:1007C800407402D25B084FEA3202B61A65EB0305A1
:1007D8005B084FEA32024FF480104FF4002CB6EB5E
:1007E800020E75EB030E22BFB61A754640EA0C00DE
:1007F8005B084FEA3202B6EB020E75EB030E22BF1E
:10080800B61A754640EA5C005B084FEA3202B6EB5E
:10081800020E75EB030E22BFB61A754640EA9C001D
:100828005B084FEA3202B6EB020E75EB030E22BFED
:10083800B61A754640EADC0055EA060E18D04FEAAB
:10084800051545EA16754FEA06164FEAC30343EA4B
:1008580052734FEAC2025FEA1C1CC0D111F4801F18
:100868000BD141EA00014FF000004FF0004CB6E711
:1008780011F4801F04BF01430020B4F1FD0C88BFB0
:10088800BCF5E06F3FF6AFAEB5EB030C04BFB6EBBB
:10089800020C5FEA500C50F1000041EB045170BDAE
:1008A8000EF0004E4EEA113114EB5C04C2BFD4EBDB
:1008B8000C0541EA045170BD41F480114FF0000E5F
:1008C800013C90E645EA060E8DE60CEA135594EADB
:1008D8000C0F08BF95EA0C0F3FF43BAF94EA0C0FDE
:1008E8000AD150EA01347FF434AF95EA0C0F7FF453
:1008F80025AF104619462CE795EA0C0F06D152EAA7
:1009080003353FF4FDAE1046194622E750EA41068A
:1009180018BF52EA43067FF4C5AE50EA41047FF49B
:100928000DAF52EA43057FF4EBAE12E74FF0FF3C00
:1009380006E000BF4FF0010C02E000BF4FF0010CD1
:100948004DF804CD4FEA410C7FEA6C5C4FEA430C4A
:1009580018BF7FEA6C5C1BD001B050EA410C0CBF99
:1009680052EA430C91EA030F02BF90EA020F0020FB
:10097800704710F1000F91EA030F58BF994208BF62
:1009880090422CBFD8176FEAE37040F0010070471F
:100998004FEA410C7FEA6C5C02D150EA013C07D176
:1009A8004FEA430C7FEA6C5CD6D152EA033CD3D0C1
:1009B8005DF8040B704700BF8446104662468C46BB
:1009C8001946634600E000BF01B5FFF7B7FF0028EE
:1009D80048BF10F1000F01BD4DF808EDFFF7F4FF17
:1009E8000CBF012000205DF808FB00BF4DF808EDA2
:1009F800FFF7EAFF34BF012000205DF808FB00BFC5
:100A08004DF808EDFFF7E0FF94BF012000205DF8E6
:100A180008FB00BF4DF808EDFFF7CEFF94BF01209B
:100A280000205DF808FB00BF4DF808EDFFF7C4FF94
:100A380034BF012000205DF808FB00BF4FEA410CDD
:100A48007FEA6C5C02D150EA013C0AD14FEA430CC0
:100A58007FEA6C5C02D152EA033C02D14FF00000FD
:100A680070474FF0010070474FEA410212F500123B
:100A780015D211D56FF47873B3EB625212D94FEADD
:100A8800C12343F0004343EA505311F0004F23FAC7
:100A980002F018BF404270474FF00000704750EA1C
:100AA800013005D111F0004008BF6FF000407047D9
:100AB8004FF00000704700BF4A0011D212F5001233
:100AC80011D20DD56FF47873B3EB62520ED44FEA9E
:100AD800C12343F0004343EA505323FA02F070471E
:100AE8004FF00000704750EA013002D14FF0FF305C
:100AF80070474FF0000070474FEA4102B2F1E043FF
:100B080024BFB3F5001CDCF1FE5C0DD901F0004CEC
:100B18004FEAC0024CEA5070B2F1004F40EB83003C
:100B280008BF20F00100704711F0804F21D113F168
:100B38003872BCBF01F00040704741F480114FEAA1
:100B48005252C2F11802C2F1200C10FA0CF320FA2A
:100B580002F018BF40F001004FEAC1234FEAD32347
:100B680003FA0CFC40EA0C0023FA02F34FEA4303B1
:100B7800CCE77FEA625307D150EA01331EBF4FF03A
:100B8800FE4040F44000704701F0004040F0FE4055
:100B980040F40000704700BF53B94AB9002908BFA4
:100BA80000281CBF4FF0FF314FF0FF3000F00CB8A9
:100BB800ADF1080C6DE904CE10F002FADDF804E09E
:100BC800DDE9022304B07047704700BF0348044BB7
:100BD800834202D0034B03B11847704740130020EB
:100BE80040130020000000000548064B1B1AD90FCF
:100BF80001EBA301491002D0034B03B1184770471A
:100C080040130020401300200000000010B5064CDF
:100C1800237843B9FFF7DAFF044B13B10448AFF365
:100C280000800123237010BD401300200000000045
:100C38001013010808B5054B1BB105490548AFF36A
:100C48000080BDE80840FFF7CFBF00BF00000000EC
:100C5800441300201013010880B483B000AF7860FB
:100C680039607B68DB6A23F470023B681A437B684F
:100C7800DA6200BF0C37BD465DF8047B704780B46C
:100C880083B000AF786039607B689B6823F440725A
:100C98003B681A437B689A6000BF0C37BD465DF815
:100CA800047B704780B483B000AF78607B689B6832
:100CB80003F44013002B0CBF01230023DBB21846BA
:100CC8000C37BD465DF8047B704780B483B000AF35
:100CD80078607B689B6843F001027B689A6000BF7C
:100CE8000C37BD465DF8047B704780B483B000AF15
:100CF80078607B689B6823F001027B689A6000BF7C
:100D08000C37BD465DF8047B704780B483B000AFF4
:100D180078607B689B6803F00103012B0CBF0123FB
:100D28000023DBB218460C37BD465DF8047B7047DC
:100D380080B483B000AF78607B689B6843F480021E
:100D48007B689A6000BF0C37BD465DF8047B70472E
:100D580080B483B000AF78607B681B6803F004033D
:100D6800042B0CBF01230023DBB218460C37BD4609
:100D78005DF8047B704780B483B000AF78607B680F
:100D88006FF004021A6000BF0C37BD465DF8047BA3
:100D9800704780B483B000AF78607B685B6843F0CD
:100DA80020027B685A6000BF0C37BD465DF8047BA3
:100DB800704780B483B000AF78607B685B6843F0AD
:100DC80080027B685A6000BF0C37BD465DF8047B23
:100DD800704780B483B000AF78607B685B6823F0AD
:100DE80020027B685A6000BF0C37BD465DF8047B63
:100DF800704780B483B000AF78607B685B6823F08D
:100E080080627B685A6000BF0C37BD465DF8047B82
:100E1800704780B483B000AF78607B685B6823F06C
:100E280080027B685A6000BF0C37BD465DF8047BC2
:100E3800704780B483B000AF78607B685B6823F04C
:100E480040027B685A6000BF0C37BD465DF8047BE2
:100E5800704780B483B000AF78607B685B6803F04C
:100E68008063B3F1806F0CBF01230023DBB2184607
:100E78000C37BD465DF8047B704780B483B000AF83
:100E880078607B685B6803F04003402B0CBF01234C
:100E98000023DBB218460C37BD465DF8047B70476B
:100EA80080B584B000AF78600123FB817B681B6943
:100EB8001846FFF7F7FE0346002B24D07B689B7A81
:100EC800DBB2022B0CD07B689B7ADBB2082B07D0F5
:100ED8007B681B691846FFF73BFF0346012B12D1BD
:100EE8007B689B7ADBB2082B03D17B6801229A725C
:100EF80002E07B6820229A727B681B691846FFF71C
:100F080017FF0023FB81FB8918461037BD4680BDBB
:100F180080B487B000AFF8600B467A607B81FB68CD
:100F28003C333B6100237B610DE07B699B003A69A0
:100F3800134419687B695B007A6813448AB21A8083
:100F48007B6901337B617B897A699A42EDDB00BF5B
:100F580000BF1C37BD465DF8047B704780B485B080
:100F680000AFF860B9607A603B6000BF1437BD46D7
:100F78005DF8047B704780B485B000AFF860B96055
:100F88007A6000BF1437BD465DF8047B704780B5B2
:100F980084B000AF78607B681B691846FFF7D8FEFD
:100FA8000346FB73FB7B012B07D17B681B69184643
:100FB800FFF7E1FE7B6802229A72FB7B1846103726
:100FC800BD4680BD80B483B000AF78600B46FB702F
:100FD80000BF0C37BD465DF8047B704790B589B0FB
:100FE80002AFF860084611461A4603467B810B4655
:100FF8003B811346FB8000237B61FB681B693D4AEC
:10100800934201D13C4B7B617B69002B6CD0FB6820
:101018001A697B691A617B690022DA71FB88012BE6
:1010280062D03B89002B48D07B695B7ADBB2082B06
:1010380043D0FB68DA687B69DA60FB681A687B6909
:101048001A60FB685A697B695A61FB689A797B69FF
:101058009A71FB681A797B691A717B691B69B96A8D
:101068001846FFF7F9FD7B89012B22D07B89042BD9
:1010780017D17B691B694FF440711846FFF7FFFDD4
:101088007B6918697B6959697B699B791C467B690F
:10109800DA687B691B68009313462246FFF75EFFF8
:1010A80007E07B89022B04D17B691B691846FFF78F
:1010B80070FE7B6908225A7216E03B89002B13D117
:1010C8007B699B7ADBB2082B0ED0FB685A797B6967
:1010D8005A717B89022B04D17B691B691846FFF77B
:1010E80068FE7B6908229A727B6918461C37BD46E0
:1010F80090BD00BF002001405C13002080B582B085
:1011080000AF78607B681B691846FFF7FEFD034651
:10111800002B04D17B681B691846FFF7D6FD00BF7A
:101128000837BD4680BD80B586B000AFF8600B4675
:101138007A607B810123FB82FB681B69002B4BD003
:101148007B89012B05D1F868FFF7AAFE0346FB82CD
:1011580042E07B89042B24D1FB681B691846FFF702
:10116800A1FD0346002B37D0FB6801229A72FB6869
:101178001B691846FFF7DCFD00BFFB689B7ADBB2F2
:10118800022BFAD1FB681869FB685B799BB27A6815
:101198001946FFF7BDFEFB6808229A720023FB82FE
:1011A8001AE07B89022B17D1FB689B7ADBB2202BD4
:1011B80004D0FB689B7ADBB2022B0DD1FB680822B6
:1011C8009A72FB681869FB685B799BB27A68194662
:1011D800FFF79EFE0023FB82FB8A18461837BD46A0
:1011E80080BD80B582B000AF78600B467B80134627
:1011F8003B807B681B691846FFF787FD0346002B79
:1012080004D07B681B691846FFF76FFD7B681B6974
:101218001846FFF732FE0346002B04D07B681B6993
:101228001846FFF706FE7B681B691846FFF711FE94
:101238000346002B04D07B681B691846FFF7D9FDCD
:101248003B88002B35D07B88012B1AD07B88022B5A
:1012580005D17B681B691846FFF7BBFD11E07B8849
:10126800042B0ED17B6818697B6859697B689B7968
:101278001A46FFF780FE7B681B6900211846FFF7B6
:10128800FEFC7B680022DA607B6800221A607B68BB
:1012980000225A617B6800229A717B6800221A71C9
:1012A8007B681A697B681B7919461046FFF7D4FCDE
:1012B8000AE07B6800225A717B88022B04D17B6884
:1012C8001B691846FFF7A5FD00BF0837BD4680BD5E
:1012D80080B485B000AF78607B681B6803F060035A
:1012E800FB60FB68002B04D17B681B6803F01003CC
:1012F800FB60FB6818461437BD465DF8047B7047F1
:1013080080B483B000AF78607B685B6A18460C379E
:10131800BD465DF8047B704780B483B000AF786049
:101328007B681B6B18460C37BD465DF8047B70471D
:1013380080B483B000AF786039607B681A6A3B6814
:101348001A437B681A6200BF0C37BD465DF8047B00
:10135800704780B483B000AF786039607B681A6AE0
:101368003B68DB431A407B681A6200BF0C37BD46F6
:101378005DF8047B704780B483B000AF78607B6809
:101388005B6C43F400427B685A6400BF0C37BD466F
:101398005DF8047B704780B483B000AF78607B68E9
:1013A800DB6843F001027B68DA6000BF0C37BD469A
:1013B8005DF8047B704780B483B000AF78607B68C9
:1013C800DB6823F001027B68DA6000BF0C37BD469A
:1013D8005DF8047B704780B483B000AF78607B68A9
:1013E800DB6803F00103012B01D1012300E0002396
:1013F80018460C37BD465DF8047B704780B483B04F
:1014080000AF78607B68DB6843F002027B68DA60D3
:1014180000BF0C37BD465DF8047B704780B483B0CD
:1014280000AF78607B68DB6823F002027B68DA60D3
:1014380000BF0C37BD465DF8047B704780B483B0AD
:1014480000AF78607B68DB6803F00203022B01D1F0
:10145800012300E0002318460C37BD465DF8047BE5
:10146800704780B483B000AF78607B68DB6843F076
:1014780004027B68DA6000BF0C37BD465DF8047B68
:10148800704780B483B000AF78607B68DB6823F076
:1014980004027B68DA6000BF0C37BD465DF8047B48
:1014A800704780B483B000AF78607B68DB6803F076
:1014B8000403042B01D1012300E0002318460C3754
:1014C800BD465DF8047B704780B483B000AF786098
:1014D8007B68DB6843F008027B68DA6000BF0C3782
:1014E800BD465DF8047B704780B483B000AF786078
:1014F8007B68DB6823F008027B68DA6000BF0C3782
:10150800BD465DF8047B704780B483B000AF786057
:101518007B68DB6803F00803082B01D1012300E096
:10152800002318460C37BD465DF8047B704780B42D
:1015380083B000AF78607B68DB6843F010027B689B
:10154800DA6000BF0C37BD465DF8047B704780B495
:1015580083B000AF78607B68DB6823F010027B689B
:10156800DA6000BF0C37BD465DF8047B704780B475
:1015780083B000AF78607B68DB6803F01003102B42
:1015880001D1012300E0002318460C37BD465DF861
:10159800047B704780B483B000AF78607B68DB68F9
:1015A80043F020027B68DA6000BF0C37BD465DF867
:1015B800047B704780B483B000AF78607B68DB68D9
:1015C80023F020027B68DA6000BF0C37BD465DF867
:1015D800047B704780B483B000AF78607B68DB68B9
:1015E80003F02003202B01D1012300E0002318463B
:1015F8000C37BD465DF8047B704780B483B000AFFC
:1016080078607B68DB6843F040027B68DA6000BF83
:101618000C37BD465DF8047B704780B483B000AFDB
:1016280078607B68DB6823F040027B68DA6000BF83
:101638000C37BD465DF8047B704780B483B000AFBB
:1016480078607B68DB6803F04003402B01D10123FD
:1016580000E0002318460C37BD465DF8047B704750
:1016680080B483B000AF78607B68DB6843F08002A9
:101678007B68DA6000BF0C37BD465DF8047B7047B5
:1016880080B483B000AF78607B68DB6823F08002A9
:101698007B68DA6000BF0C37BD465DF8047B704795
:1016A80080B483B000AF78607B68DB6803F08003A8
:1016B800802B01D1012300E0002318460C37BD46DA
:1016C8005DF8047B704780B582B000AF78600B4648
:1016D8007B807B8803F00103002B0CD07B681B68A0
:1016E8001846FFF7AAFF0346012B04D07B681B6846
:1016F8001846FFF782FF7B8803F00203002B0CD00B
:101708007B681B681846FFF799FE0346012B04D037
:101718007B681B681846FFF771FE7B8803F004039B
:10172800002B0CD07B681B681846FFF7BAFE0346EF
:10173800012B04D07B681B681846FFF792FE7B8854
:1017480003F00803002B0CD07B681B681846FFF7D2
:10175800DBFE0346012B04D07B681B681846FFF7A5
:10176800B3FE7B8803F01003002B0CD07B681B684A
:101778001846FFF7FCFE0346012B04D07B681B6864
:101788001846FFF7D4FE7B8803F02003002B0CD00B
:101798007B681B681846FFF71EFE0346012B04D022
:1017A8007B681B681846FFF7F6FD7B8803F040034B
:1017B800002B0CD07B681B681846FFF771FF0346A7
:1017C800012B04D07B681B681846FFF749FF7B880C
:1017D80003F08003002B0CD07B681B681846FFF7CA
:1017E800F9FE0346012B04D07B681B681846FFF7F7
:1017F800D1FE00BF0837BD4680BD80B582B000AFBE
:1018080078600B467B807B8803F00103002B0CD0AB
:101818007B681B681846FFF710FF0346012B04D1AD
:101828007B681B681846FFF7F8FE7B8803F0020305
:10183800002B0CD07B681B681846FFF7FFFD03469A
:10184800012B04D17B681B681846FFF7E7FD7B88EE
:1018580003F00403002B0CD07B681B681846FFF7C5
:1018680020FE0346012B04D17B681B681846FFF74E
:1018780008FE7B8803F00803002B0CD07B681B68EC
:101888001846FFF741FE0346012B04D17B681B680D
:101898001846FFF729FE7B8803F01003002B0CD0B5
:1018A8007B681B681846FFF762FE0346012B04D1CC
:1018B8007B681B681846FFF74AFE7B8803F0200305
:1018C800002B0CD07B681B681846FFF784FD034685
:1018D800012B04D07B681B681846FFF76CFD7B88DA
:1018E80003F04003002B0CD07B681B681846FFF7F9
:1018F800D7FE0346012B04D17B681B681846FFF707
:10190800BFFE7B8803F08003002B0CD07B681B682C
:101918001846FFF75FFE0346012B04D17B681B685E
:101928001846FFF747FE00BF0837BD4680BD0000D8
:1019380080B582B000AF78600B46FB70FB78022B55
:1019480006D17B681B6801211846FFF7F1FC1DE0F2
:101958007B681B680F4A934218D1FB78032B06D18A
:101968007B681B6804211846FFF7E2FC0EE0FB7851
:10197800042B0BD17B681B6801211846FFF7D8FCA4
:101988007B681B6804211846FFF7D2FC00BF0837A4
:10199800BD4680BD0000014080B582B000AF7860D0
:1019A8000B46FB70FB78022B06D17B681B68012174
:1019B8001846FFF7CEFC1DE07B681B680F4A934270
:1019C80018D1FB78032B06D17B681B6804211846C5
:1019D800FFF7BFFC0EE0FB78042B0BD17B681B687C
:1019E80001211846FFF7B5FC7B681B6804211846DF
:1019F800FFF7AFFC00BF0837BD4680BD00000140BF
:101A080080B582B000AF78600B46FB70FB78022B84
:101A180006D17B681B6810211846FFF789FC1DE07A
:101A28007B681B680F4A934218D1FB78032B06D1B9
:101A38007B681B6840211846FFF77AFC0EE0FB78AC
:101A4800042B0BD17B681B6810211846FFF770FC2C
:101A58007B681B6840211846FFF76AFC00BF0837FF
:101A6800BD4680BD0000014080B582B000AF7860FF
:101A78000B46FB70FB78022B06D17B681B68102194
:101A88001846FFF766FC1DE07B681B680F4A934207
:101A980018D1FB78032B06D17B681B6840211846B8
:101AA800FFF757FC0EE0FB78042B0BD17B681B6813
:101AB80010211846FFF74DFC7B681B68402118462B
:101AC800FFF747FC00BF0837BD4680BD0000014056
:101AD80080B582B000AF78600B46FB70FB78022BB4
:101AE80007D17B681B684FF480711846FFF720FC0C
:101AF80020E07B681B68114A93421BD1FB78032BBB
:101B080007D17B681B684FF480611846FFF710FC0B
:101B180010E0FB78042B0DD17B681B684FF48071B3
:101B28001846FFF705FC7B681B684FF48061184670
:101B3800FFF7FEFB00BF0837BD4680BD000001402F
:101B480080B582B000AF78600B46FB70FB78022B43
:101B580007D17B681B684FF480711846FFF7F9FBC3
:101B680020E07B681B68114A93421BD1FB78032B4A
:101B780007D17B681B684FF480611846FFF7E9FBC3
:101B880010E0FB78042B0DD17B681B684FF4807143
:101B98001846FFF7DEFB7B681B684FF48061184628
:101BA800FFF7D7FB00BF0837BD4680BD00000140E6
:101BB80080B584B000AF78600023FB607B681B6849
:101BC800204A934202D1204BFB6006E07B681B68E9
:101BD8001E4A934201D11E4BFB607B681A68FB6862
:101BE8001A60FB681B681846FFF772FBB860BB6891
:101BF800002B06D0BB68102B03D0FB6801221A719A
:101C080002E0FB6800221A71FB681B680D4A9342C8
:101C180004D1FB681B681846FFF7ADFBFB681B681F
:101C2800084A934208D17B681B681846FFF774FB83
:101C38000346DAB2FB685A71FB6818461037BD468E
:101C480080BD00BF00000140781300200004004060
:101C58000414002080B582B000AF78607B681B68F0
:101C68001846FFF74DFB034618460837BD4680BDAA
:101C780080B485B000AF786039600023FB7397F9B2
:101C88000F3018461437BD465DF8047B70470000D6
:101C980080B584B000AF786039600023FB727B6840
:101CA800002B05D1374804F06EF84FF0FF3365E09C
:101CB8003B68002B05D1344804F065F84FF0FF333A
:101CC8005CE0324BD3E900014FF000024FF0404393
:101CD800FEF782FE0346002B06D03B68D3E90023BB
:101CE8002A49C1E9002305E0284BD3E900233968D4
:101CF800C1E90023254BD3E900014FF00002244B32
:101D0800FEF76AFE0346002B02D0224804F03BF897
:101D18007B685B681B68204A13607B685B685B684C
:101D28001E4A13607B685B689B681D4A13607B686A
:101D38005B68DB681B4A13601B4B00221A6004F0C7
:101D480093FC0023FB600023FB6007E0174AFB6855
:101D5800174942F82310FB680133FB60FB68022B2C
:101D6800F4D904F0CBF80346FB7297F90B30002B3B
:101D780002D1104B01221A7097F90B301846103710
:101D8800BD4680BD281301084C13010860120020CD
:101D98000000F0BF781301086418002068180020BC
:101DA8006C1800207018002074180020901400206F
:101DB800D96600086218002080B586B000AF786048
:101DC8000023FB7500233B610023FB732A4B1B7820
:101DD800DBB2002B0CBF01230023DBB2BB73274B04
:101DE80002221A707B68002B0BD1234B1B78DBB2C5
:101DF800002B06D1224B1B78DBB2002B01D101232B
:101E080000E00023FB7316E00A200AF06FF83B6934
:101E180003F51C5310333B617B68B3F1FF3F05D0DA
:101E28003A697B689A4201D9012300E00023FB73D9
:101E3800002004F0B1F8104B1B78DBB2002B07D15F
:101E48000F4B1B78DBB2002B02D1FB7B002BDBD0C6
:101E58000A4B03221A70FB7B002B01D09C23FB75D5
:101E6800BB7B002B01D004F02DFD97F917301846E5
:101E78001837BD4680BD00BF6018002062180020DA
:101E88006118002080B586B000AF034687ED000BCF
:101E9800FB810023FB750123BB754FF000024FF057
:101EA8000003D7E90001FEF7A1FD0346002B05D08A
:101EB8002E4803F068FF4FF0FF3353E0FB89FF2BF8
:101EC80008D9FB89FF221946294803F05CFF4FF027
:101ED800FF3347E0274B1B78DBB2032B04D0254B9D
:101EE8001B78DBB2012B02D1224B04221A70FB892A
:101EF800022B15D8FB89204A52F82330002B0FD02B
:101F080005F0AAF803467B757B7D022B08D1FB8977
:101F1800194A52F82330FA89104698470346BB7588
:101F2800FB897B82FB89184697ED000B03F048FF7D
:101F3800BB7D002B06D07B8A184605F065F8034662
:101F4800FB7503E07B8A184605F0C1F897F917304E
:101F5800002B05D097F917301946084803F013FFEE
:101F680097F9173018461837BD4680BDE4130108A5
:101F78002814010862180020901400206814010831
:101F880080B582B000AF0023FB71002004F004F894
:101F98000346FB7197F9073018460837BD4680BDE0
:101FA80080B582B000AF0023FB710B4B06221A707C
:101FB80004F090F80346FB710C22002107480FF04B
:101FC80063F904F005FC044B00221A7097F90730F6
:101FD80018460837BD4680BD6218002090140020BE
:101FE80080B400AF034B1B78DBB21846BD465DF8E2
:101FF800047B70476118002080B400AF034B1B7846
:10200800DBB21846BD465DF8047B7047781800209F
:1020180080B483B000AF03463960FB7197F907308D
:10202800002B0ADB3B68DAB20C4997F9073012013A
:10203800D2B20B4483F800230AE03B68DAB20849BD
:10204800FB7903F00F03043B1201D2B20B441A765A
:1020580000BF0C37BD465DF8047B704700E100E027
:1020680000ED00E080B584B000AFF860B9607A6038
:10207800FB68DBB20F3BDBB25BB279681846FFF74F
:10208800C7FF00BF1037BD4680BD80B485B000AF24
:10209800EFF310837B607B68FB600123BB60BB6848
:1020A80083F3108800BFFB6818461437BD465DF8F7
:1020B800047B704780B483B000AF0346FB7197F987
:1020C8000730002B0BDBFB7903F01F02074997F958
:1020D80007305B09012000FA02F241F8232000BF13
:1020E8000C37BD465DF8047B704700BF00E100E097
:1020F80080B483B000AF0346FB7197F90730002B1B
:1021080012DBFB7903F01F020A4997F907305B09D4
:10211800012000FA02F2203341F82320BFF34F8F49
:1021280000BFBFF36F8F00BF00BF0C37BD465DF81F
:10213800047B704700E100E080B483B000AF7860B2
:102148007B686FF004021A6000BF0C37BD465DF86B
:10215800047B704780B483B000AF78607B685B68AD
:1021680003F08003802B0CBF01230023DBB2184649
:102178000C37BD465DF8047B7047000080B483B01F
:1021880000AF7860074B1A687B6813407A689A42F8
:102198000CBF01230023DBB218460C37BD465DF89F
:1021A800047B7047003C014080B483B000AF786086
:1021B800074B5A697B6813407A689A420CBF01231F
:1021C8000023DBB218460C37BD465DF8047B704728
:1021D800003C014080B483B000AF7860044A7B685B
:1021E800536100BF0C37BD465DF8047B704700BFE4
:1021F800003C014080B483B000AF78607B681B6806
:1022080043F001027B681A6000BF0C37BD465DF8D9
:10221800047B704780B483B000AF78607B681B682C
:1022280023F001027B681A6000BF0C37BD465DF8D9
:10223800047B704780B483B000AF786039607B68F6
:102248001B6823F004023B681A437B681A6000BFCE
:102258000C37BD465DF8047B704780B483B000AF8F
:1022680078607B681B6803F0040318460C37BD468A
:102278005DF8047B704780B483B000AF78607B68FA
:10228800DB6A18460C37BD465DF8047B704780B49E
:1022980083B000AF786039607B683A681A6300BF22
:1022A8000C37BD465DF8047B704780B483B000AF3F
:1022B800786039607B683A685A6300BF0C37BD465E
:1022C8005DF8047B704780B483B000AF78603960F4
:1022D8007B683A689A6300BF0C37BD465DF8047B9B
:1022E800704780B483B000AF786039607B683A6823
:1022F800DA6300BF0C37BD465DF8047B704780B4D5
:1023080083B000AF78607B685B6B18460C37BD46BE
:102318005DF8047B704780B483B000AF78607B6859
:102328009B6B18460C37BD465DF8047B704780B43C
:1023380083B000AF78607B68DB6B18460C37BD460E
:102348005DF8047B704780B483B000AF78607B6829
:102358005B6C43F400427B685A6400BF0C37BD468F
:102368005DF8047B704780B483B000AF78607B6809
:102378005B6C03F40043B3F5004F01D1012300E087
:10238800002318460C37BD465DF8047B704780B4BF
:1023980083B000AF78607B685B6943F001027B68BB
:1023A8005A6100BF0C37BD465DF8047B704780B4A6
:1023B80083B000AF78607B681B6918460C37BD4650
:1023C8005DF8047B704780B483B000AF78603960F3
:1023D8007B683A689A6100BF0C37BD465DF8047B9C
:1023E800704780B483B000AF786039603B681A04E6
:1023F8007B689A6100BF0C37BD465DF8047B704767
:1024080080B584B000AF786087ED000AD7ED007A18
:10241800F5EEC07AF1EE10FA03D54FF000033B60F9
:102428000AE0D7ED007A9FED167AF4EEC77AF1EE5E
:1024380010FA01DD134B3B607B681B681846FFF7F9
:102448001AFFF8607B681B79002B0CBF012300235F
:10245800DBB21A46FB68134407EE903AB8EE677A87
:10246800D7ED007A27EE277ADFED056AC7EE267AE0
:10247800FCEEE77A17EE903A18461037BD4680BD55
:102488000000C8420000C84280B582B000AF786042
:1024980039607B681B681846FFF731FF02463B68C6
:1024A800934205D07B681B6839681846FFF7FDFE24
:1024B80000BF0837BD4680BD80B582B000AF7860E8
:1024C80039607B681B681846FFF725FF02463B68A2
:1024D800934205D07B681B6839681846FFF7F3FEFE
:1024E80000BF0837BD4680BD80B582B000AF7860B8
:1024F80039607B681B681846FFF719FF02463B687E
:10250800934205D07B681B6839681846FFF7E9FED7
:1025180000BF0837BD4680BD80B584B000AF786085
:1025280087ED000A97ED000A7868FFF769FFF86001
:10253800F9687868FFF7A8FF00BF1037BD4680BD6F
:1025480080B584B000AF786087ED000A97ED000A87
:102558007868FFF755FFF860F9687868FFF7ACFF0F
:1025680000BF1037BD4680BD80B584B000AF78602D
:1025780087ED000A97ED000A7868FFF741FFF860D9
:10258800F9687868FFF7B0FF00BF1037BD4680BD17
:1025980080B485B000AF78607B681B689B6803F0E7
:1025A8000703FB60FB68062B0CBF01230023DBB28B
:1025B80018461437BD465DF8047B704780B584B073
:1025C80000AF78600B46FB707B681B681846FFF706
:1025D80044FEF860FB78002B0AD07B681B681E4A13
:1025E800934205D17B681B6800211846FFF74FFE10
:1025F800FB68042B11D07B681B6804211846FFF781
:1026080019FE7B681B681846FFF7C1FE7B681B68CC
:10261800F9681846FFF70EFE04E07B681B68184649
:10262800FFF7B5FE7B681B681846FFF7E3FDFB78EC
:10263800002B0CD07B681B68074A934207D17B6844
:102648001A687B685B7919461046FFF720FE00BFC1
:102658001037BD4680BD00BF0000014080B582B084
:1026680000AF78607B681B681846FFF7D3FD00BF92
:102678000837BD4680BD000080B582B000AF7860E5
:102688000B46FB70FB78012B11D17B681B680A4A4B
:1026980093420CD17B681B681846FFF764FE03461B
:1026A800002B04D17B681B681846FFF74CFE00BF5F
:1026B8000837BD4680BD00BF0000014080B483B02C
:1026C80000AF7860084BB3F85230002B0CBF0123E1
:1026D8000023DAB27B6801331A7000BF0C37BD469D
:1026E8005DF8047B704700BF0816002080B400AF77
:1026F8000A4BB3F85220013292B2A3F85220074B8A
:10270800B3F85230B3F5FA6F03D3044B0022A3F8A1
:10271800522000BFBD465DF8047B704708160020B4
:1027280080B485B000AFF860B9607A607B68B3F9AF
:102738000020FB681A807B685A88BB681A8000BF33
:102748001437BD465DF8047B704780B485B000AF90
:10275800F860B9607A607B681A88FB681A807B68C1
:102768005A88BB681A8000BF1437BD465DF8047BE1
:10277800704780B483B000AF786039603B689A884E
:102788007B681A803B68DA887B685A803B68B3F9B3
:1027980000207B68DA803B681A897B689A8000BFD2
:1027A8000C37BD465DF8047B7047000080B584B0E7
:1027B80000AF7B600346FB810B46BB8113467B81E0
:1027C800FB89013B052B45D801A252F823F000BF35
:1027D8004B28000827280008392800080328000883
:1027E800F127000815280008386A3B6A991CBB6A5B
:1027F80020331A46FFF7A9FF30E0386A3B6A991C74
:10280800BB6A1C331A46FFF7A0FF27E0386A3B6A09
:10281800991CBB6A18331A46FFF797FF1EE0386AFF
:102828003B6A991CBB6A14331A46FFF78EFF15E002
:10283800386A3B6A991CBB6A10331A46FFF785FF52
:102848000CE0386A3B6A991CBB6A0C331A46FFF7DE
:102858007CFF03E07B6A04225A7000BF3B6A1B8836
:10286800BA899A4209D13B6A981D3B6A191DBB6A0D
:1028780028331A46FFF754FF15E03B6A5B88BA898C
:102888009A4209D13B6A981D3B6A191DBB6A2433D9
:102898001A46FFF745FF06E0BB6A5A883B6A9A80EA
:1028A8007B6A04229A703B6A9A88FB691A803B6AA1
:1028B800B3F90620BB691A803B6A9B88002B04D0B9
:1028C800BB6A9A7A7B681A700CE03B6AB3F90630E7
:1028D800B7F90A209A420CBF01230023DBB21A463B
:1028E8007B681A7000BF1037BD4680BD80B485B0C4
:1028F80000AFB9607A603B600346FB81BB691A8808
:10290800BB681A807B68FA891A80BB699A783B6829
:102918001A7000BF1437BD465DF8047B704780B459
:1029280083B000AF786039603B681A687B681A60CA
:1029380000BF0C37BD465DF8047B704780B5A6B074
:1029480000AF78601D4BBB6000233B7300237B7393
:1029580007F108031846FFF72BF902467B68DA608F
:102968007B68DB6800211846FEF7ADFE7B68DB68F4
:1029780004211846FEF7DCFF7B68DB680421184653
:10298800FFF73EF87B68DB6804211846FFF7A0F8DC
:102998007B68DB681846FFF7FBFD034687F897302E
:1029A80097F89730002B05D17B68DB680121184622
:1029B800FFF704FE00BF9837BD4680BD0000014008
:1029C80080B58CB002AF78607B6800221A727B6891
:1029D80001225A600023BB6100233B74174BFB6143
:1029E80000233B620023BB74002387F824300123B3
:1029F80087F825300323FB6003237B7407F10C0061
:102A08004FF400130093022300220221FEF7E6FA96
:102A180002467B68DA607B68DB681846FEF76EFB67
:102A28007B68DB6800211846FEF7CCFA7B68012238
:102A38001A7200BF2837BD4680BD00BF0020014084
:102A480080B5A6B000AF78607B6801225A60164B4B
:102A5800BB6000233B7300237B7307F10803184610
:102A6800FFF7A6F802467B68DA607B68DB6800211E
:102A78001846FEF728FE7B68DB681846FFF788FDD6
:102A8800034687F8973097F89730002B05D17B6875
:102A9800DB6800211846FFF791FD7B6801221A7256
:102AA80000BF9837BD4680BD0004004090B585B092
:102AB80000AFFFF71BFE2E4BD3E918232D49C1E9C0
:102AC8000C232D4BD3E90A23C7E902232A4BB3F879
:102AD8006420294BA3F86020274BB3F86830FB80AB
:102AE800254BB3F86A30BB80234BB3F96C20224BDB
:102AF800A3F86620D7E90201FDF7B6FF0346012BCC
:102B080002D0022B05D009E01B4AFB88A2F86630E8
:102B180004E0194ABB88A2F8663000BF154BDB6A8F
:102B28001846FFF797F80346134A5364124B5B6C39
:102B3800104A5365104B5B6C0E4A93650E4B5B6CE9
:102B48000C4AD3650D4B9A6A01329A629B6A184601
:102B5800FDF760FC094BD3E90C23084CFDF7D4FCC6
:102B680002460B46C4E9082300BF1437BD4690BD92
:102B78000000002030150020A814002008160020AE
:102B8800B0B586B000AF314B1B6D1846FDF752FC4F
:102B98002F4BD3E92223FDF729FF0346002B07D04B
:102BA8002A4B1B6D002B03DB294BD3E91E2303E0C3
:102BB8004FF000024FF00003C7E90223234B1B6DBF
:102BC8001846FDF737FC04460D46214BD3E9200192
:102BD8004FF000021F4BFDF7DFFA02460B46204676
:102BE8002946FDF717FF0346002B03D0174B002299
:102BF8001A6504E0154B1B6D0133144A1365164B17
:102C08007B604FF000024FF00003D7E90201FDF7A7
:102C1800E3FE0346002B02D120237B6101E0002361
:102C28007B617B6919467868FFF7CDFB7B69DB43DD
:102C380003F0200319467868FFF7D3FB074B9A6B1C
:102C480001329A6300BF1837BD46B0BD3015002069
:102C5800000000200000F03F00000240081600209D
:102C680080B584B000AF96494FF00002954BC1E99A
:102C78001623934990A3D3E90023C1E90C23904B71
:102C8800914A9A608E4B914ADA608D4B904A1A614C
:102C98008B4B904A5A618A4B8F4A5A608E4B8F4AA7
:102CA8001A608E4B8E4A1A608C4B8E4A5A608B4B38
:102CB8008D4A9A60894B8C4ADA60884B8A4A1A6135
:102CC800864B8A4A5A61854B864A9A61834B854A64
:102CD800DA61824B864A1A62804B864A5A627F4B77
:102CE800854A9A627D4B854ADA627C4B844A1A632C
:102CF8007A4B844A5A63794B834A9A63774B834A5F
:102D0800DA63764B824A1A64744B824A5A64734B6C
:102D1800744A9A64714B734ADA64704B714A1A6543
:102D28006E4B704A5A656D4B7B4A9A656B4B7B4A72
:102D3800DA656A4B7A4A1A66684B7A4A5A66674B6A
:102D4800794A9A66654B794ADA66644B784A1A6713
:102D5800624B784A5A67614B774A9A675F4B774A62
:102D6800DA675E4B764AC3F880205C4B754AC3F835
:102D780084205A4B744AC3F88820584B734AC3F8C6
:102D88008C20564B724AC3F89020544B714AC3F8B2
:102D98009420524B704AC3F89820504B6F4AC3F89E
:102DA8009C204E4B6E4AC3F8A0204C4B6D4AC3F88A
:102DB800A4204A4B6C4AC3F8A820484B6B4AC3F876
:102DC800AC20464B6A4AC3F8B020444B694AC3F862
:102DD800B420424B684AC3F8B820404B674AC3F84E
:102DE800BC203E4B664AC3F8C0203C4B654AC3F83A
:102DF800C4203A4B644AC3F8C820384B634AC3F826
:102E0800CC20364B374AC3F8D020344B354AC3F868
:102E1800D420324B334AC3F8D820304B314AC3F858
:102E2800DC202E4B5A4AC3F8E0202C4B594AC3F8F1
:102E3800E4202A4B584AC3F8E820284B574AC3F8DD
:102E4800EC20264B564AC3F8F020244B554AC3F8C9
:102E5800F420224B544AC3F8F820204B534AC3F8B5
:102E6800FC201E4B524AC3F800211C4B514AC3F8A0
:102E780004211A4B504AC3F80821184B4F4AC3F88B
:102E88000C21164B4D4AC3F81021144B4B4AC3F87A
:102E98001421124B4A4AC3F81821104B484AC3F868
:102EA8001C210E4B464AC3F820210C4B444AC3F858
:102EB800242187E0AFF300802D431CEBE2360A3F64
:102EC800081600200000F0BFA74AD1032724A9F361
:102ED800B5E78D966D5E703E701600208416002052
:102EE800B43B0108AB150020C0150020BF15002019
:102EF800BE150020BD150020BC150020BB15002004
:102F0800BA150020B9150020B8150020B715002003
:102F1800B6150020B5150020CE150020CD150020CF
:102F2800CC150020CB150020CA150020C91500209B
:102F3800C8150020AC150020B4150020B3150020DA
:102F4800D5150020D4150020D3150020D215002057
:102F5800D1150020D0150020CF150020B115002074
:102F6800DC150020DB150020DA150020D91500201B
:102F7800D8150020D7150020D6150020B21500203E
:102F8800AF150020B0150020AE150020AD150020AB
:102F9800DD150020E6150020E5150020E4150020C9
:102FA800E3150020E2150020E1150020E8150020B7
:102FB800E7150020E0150020DF150020DE150020B1
:102FC800C1150020AD4BAE4AC3F82821AB4BAD4A22
:102FD800C3F82C21A94BAC4AC3F83021A74BAB4A04
:102FE800C3F83421A54BAA4AC3F83821A34BA94AF0
:102FF800C3F83C21A14BA84AC3F840219F4BA74ADC
:10300800C3F844219D4BA64AC3F848219B4BA54AC7
:10301800C3F84C21994BA44AC3F85021974BA34AB3
:10302800C3F85421954BA14AC3F85821934B9F4AA2
:10303800C3F85C21914B9E4AC3F860218F4B9C4A90
:10304800C3F864218D4B9A4AC3F868218B4B984A80
:10305800C3F86C21894B974AC3F87021874B964A6D
:10306800C3F87421854B954AC3F87821834B944A59
:10307800C3F87C21814B934AC3F880217F4B924A45
:10308800C3F884217D4B914AC3F888217B4B904A31
:10309800C3F88C21794B8F4AC3F89021774B8E4A1D
:1030A800C3F89421754B8D4AC3F89821734B8C4A09
:1030B800C3F89C21714B8A4AC3F8A0216F4B884AF8
:1030C800C3F8A4216D4B874AC3F8A8216B4B854AE6
:1030D800C3F8AC21694B834AC3F8B021674B814AD6
:1030E800C3F8B421654B804AC3F8B821634B7E4AC4
:1030F800C3F8BC21614B7C4AC3F8C0215F4B7A4AB4
:10310800C3F8C4215D4B784AC3F8C8215B4B764AA3
:10311800C3F8CC21754A754B5B6818329A60734ABC
:10312800724B5B6808325A60704A704B5B68203299
:10313800DA606F4BD3E91C236E49C1E90C236C4B51
:1031480003F5805393F86F216A4B83F89420684BFA
:1031580003F58053B3F92A21664BA3F86820644B22
:1031680003F58053B3F92C21624BA3F86A20604B16
:1031780003F58053D3F818315E4A13665C4B03F5A8
:103188008053B3F92E215B4BA3F86C20584B03F501
:103198008053B3F85621574BA3F87220544B03F5CC
:1031A8008053B3F85821534BA3F87420504B03F5C0
:1031B8008053B3F85A214F4BA3F876204C4B03F5B4
:1031C8008053B3F930214B4BA3F86E20484B03F5DD
:1031D8008053B3F93221474BA3F87020444B03F5D1
:1031E8008053D3F80C31434A5365414B03F5805360
:1031F800D3F810313F4A93653D4B03F58053D3F81C
:1032080014313C4AD365394B384A9B6A9364384B2E
:1032180003F5805393F86121364B83F87820344BBB
:1032280003F58053D3F80831324A9364304B03F5E1
:10323800805393F862212F4B83F879202C4BDA8A3C
:103248002C4BA3F864202A4B03F58053B3F8542180
:10325800284BA3F86620264BD3F80431264A136579
:10326800234BD3F8B830234A1364214BD3F8B43036
:10327800204A53641E4BD3F8E0303FE08416002008
:10328800E9150020F2150020F1150020F0150020A6
:10329800EF150020EE150020ED150020F415002094
:1032A800F3150020EC150020EB150020EA1500208E
:1032B800C2150020F5150020FE150020FD15002080
:1032C800FC150020FB150020FA150020F915002038
:1032D80000160020FF150020F8150020F715002023
:1032E800F6150020C3150020B43B0108081600207D
:1032F8000000002030150020A8140020704A9363B5
:10330800704BD3F8C4306E4AD3636E4B03F58053C9
:1033180093F85C216A4B83F87A206A4BD3F8D03053
:10332800694AD365674BD3F8D430674A9365654BD0
:1033380003F58053D3F8F830614AD364614B03F541
:103348008053D3F8F030604AD3645E4BD3F8D8305A
:103358005D4A53655B4B03F5805393F85E215A4BE6
:1033680083F86F20564B00221A74554B00221A76A8
:10337800534B01225A615548FFF7E0FA504B01229E
:103388001A764F4B00225A604D4B00221A704C4857
:10339800FFF716FB4B4B03F58053B3F846214A4B16
:1033A800A3F864204A4B4A4A9B6AD36349494A486E
:1033B800FFF7DFF9434BD3E906234349C1E90A2361
:1033C800404B03F58053B3F91C213F4BA3F86C2005
:1033D8003F4B3F4A9B6A136440494148FFF7C9F98C
:1033E800384BD3E908233849C1E90823354B03F59D
:1033F8008053B3F91E21344BA3F86A20344B344A66
:103408009B6A536437493848FFF7B3F92D4BD3E922
:103418000A232D49C1E906232A4B03F58053B3F942
:103428002021294BA3F86820254B00225A62244BFF
:10343800002283F820202D48FFF702FB2C48FEF7D6
:10344800B6FFF8602A48FEF7B2FFB8602848FEF7D2
:10345800AEFF7860FB6803F48063002B07D0194B3C
:1034680003F5805393F866315B09DAB200E0002275
:10347800BB6803F40063002B07D0124B03F580539D
:1034880093F86A319B09DBB200E000231344DAB2F7
:103498007B6803F48053002B07D00A4B03F5805355
:1034A80093F86E31DB09DBB200E000231344DAB293
:1034B800034B83F8942000BF1037BD4680BD00BF82
:1034C8003015002000000020A8140020401500201E
:1034D800081600202812002028150020F8110020C6
:1034E80020150020C81100201815002050150020B4
:1034F8000008024080B500AF304B1B7C002B27D161
:103508002E4B01221A742D4B5B69012B20D12B4BBA
:103518001B7E002B1CD0294BDB691846FFF79EF851
:10352800264BDB6900211846FEF767F9234BDB6958
:1035380004211846FEF730FA204BDB6904211846AF
:10354800FEF792FA1D4BDB6904211846FEF7F8FADC
:103558001A4B1B78002B11D1184B01221A70174BEC
:103568005B68012B0AD1154B1B7A002B06D0134B35
:10357800DB68002202211846FDF733FE0F4B93F853
:103588002030002B17D10D4B012283F820200B4B44
:103598005B6A012B0FD1094B93F82830002B0AD016
:1035A800064BDB6A1846FFF759F8044BDB6A002123
:1035B8001846FEF722F900BF80BD00BF3015002075
:1035C80080B500AF032208492120FEF74BFD1220E9
:1035D800FEF770FD022205493720FEF743FD28203B
:1035E800FEF768FD00BF80BDC93F0008F935000837
:1035F80090B59DB006AFFEF748FDB8644FF4805013
:10360800FEF7BCFD0346002B08D04FF48050FEF7B0
:10361800CBFD0346002B01D0012300E00023002B43
:1036280000F03C824FF48050FEF7D4FDC94B1B7864
:10363800DBB2012B40F03282C74B93F9D03087F8C8
:103648004730002387F8573097F84730042B20D8A5
:1036580001A252F823F000BF753600087D36000835
:10366800853600088D36000895360008002387F84F
:1036780057300EE0032387F857300AE0032387F812
:10368800573006E0002387F8573002E0002387F818
:10369800573097F95720B04B83F8D020AE4B93F9A9
:1036A800C83087F84630002387F8563097F84630F8
:1036B800042B20D801A252F823F000BFD936000805
:1036C800E1360008E9360008F1360008F936000846
:1036D800002387F856300EE0032387F856300AE0B7
:1036E800032387F8563006E0002387F8563002E0B7
:1036F800002387F8563097F95620974B83F8C8204F
:10370800954B93F9CE3087F84530002387F855302C
:1037180097F84530042B20D801A252F823F000BFB7
:103728003D370008453700084D3700085537000871
:103738005D370008002387F855300EE0032387F82B
:1037480055300AE0032387F8553006E0002387F850
:10375800553002E0002387F8553097F955207E4B05
:1037680083F8CE207C4B93F9C73087F84430002388
:1037780087F8543097F84430042B20D801A252F827
:1037880023F000BFA1370008A9370008B1370008A7
:10379800B9370008C1370008002387F854300EE015
:1037A800032387F854300AE0032387F8543006E0EF
:1037B800002387F8543002E0002387F8543097F943
:1037C8005420654B83F8C720634B93F9C63087F8BC
:1037D8004330002387F8533097F84330042B20D820
:1037E80001A252F823F000BF053800080D38000880
:1037F800153800081D38000825380008002387F808
:1038080053300EE0032387F853300AE0032387F888
:10381800533006E0002387F8533002E0002387F88E
:10382800533097F953204C4B83F8C6204A4B93F9F1
:10383800C53087F84230002387F8523097F8423075
:10384800042B20D801A252F823F000BF69380008E1
:10385800713800087938000881380008893800086C
:10386800002387F852300EE0032387F852300AE02D
:10387800032387F8523006E0002387F8523002E02D
:10388800002387F8523097F95220334B83F8C5202C
:10389800314B93F9933087F84130002387F8513042
:1038A80097F84130042B20D801A252F823F000BF2A
:1038B800CD380008D5380008DD380008E53800089C
:1038C800ED380008002387F851300EE0032387F80D
:1038D80051300AE0032387F8513006E0002387F8C7
:1038E800513002E0002387F8513097F951201A4BE4
:1038F80083F89320184B9B6D184A9363184B184A0A
:103908009B6AD3631748FEF752FDF8631548FEF724
:103918004EFDB8631348FEF74AFD7863FB6B03F46A
:103928008063002B07D0104B03F5805393F8633165
:103938005B09DAB200E00022BB6B03F40063002BE2
:1039480014D0094B03F5805393F867319B09DBB218
:103958000DE000BF5F18002030150020A8140020DB
:10396800081600200008024000000020002313442D
:10397800DAB27B6B03F48053002B07D0A64B03F518
:10398800805393F86B31DB09DBB200E0002313446A
:10399800DAB2A24B83F89420A04B93F89430013B01
:1039A800052B1BD89D4B93F8943098B29B4B93F8FA
:1039B800943099B2994BB3F96C2007F10D04984BE8
:1039C8000493984B0393984B029307F10E030193CA
:1039D800964B00932346FEF7E9FE0CE08F4BB3F9B4
:1039E8006C0007F10D0307F10E01914A00928F4A0E
:1039F800FEF77CFF00BF8F4B9B6B9AB2874B1B6E09
:103A08009BB2D31A9BB21AB28A4BA3F86C20894B8B
:103A1800B3F96C309AB2814BA3F872207B7B9AB2CF
:103A28007E4BA3F874207C4B03F58053B3F8342104
:103A38007A4BA3F876207F4BB3F96C20774BA3F829
:103A480068207C4BB3F96C20744BA3F86A20794B3F
:103A58009B6B724A1366704BD3E906237549C1E91B
:103A68000A236E4B042283F89320734BDB6B1846B2
:103A7800FCF7D0FC66A3D3E90023FCF745FD02461A
:103A88000B466E49C1E900236C4B93ED007BB0EE09
:103A9800470AF0EE670A0220FEF7F4F94FF40060D7
:103AA800FEF76CFB0346002B08D04FF40060FEF7CE
:103AB8007BFB0346002B01D0012300E00023002BF1
:103AC80000F028814FF40060FEF784FB5C4B1B7804
:103AD800DBB2012B40F01E81504B93F9923087F8EE
:103AE8003330002387F8503097F83330042B20D830
:103AF80001A252F823F000BF153B00081D3B000847
:103B0800253B00082D3B0008353B0008002387F8BB
:103B180050300EE0032387F850300AE0032387F87B
:103B2800503006E0002387F8503002E0002387F881
:103B3800503097F95020394B83F89220374B5B6D02
:103B48003C4AD3633C4B3C4A9B6A13643D48FEF7AE
:103B58002EFCF8623B48FEF72AFCB8623948FEF7AB
:103B680026FC7862FB6A03F48063002B07D02A4B9B
:103B780003F5805393F864315B09DAB200E0002260
:103B8800BB6A03F40063002B07D0234B03F5805373
:103B980093F868319B09DBB200E000231344DAB2E2
:103BA8007B6A03F48053002B07D01B4B03F580532B
:103BB80093F86C31DB09DBB200E000231344DAB27E
:103BC800164B83F89420154B93F89430013B052B42
:103BD80040D8124B93F8943098B2104B93F8943025
:103BE80099B20E4BB3F96C2007F10904164B0493F4
:103BF800164B0393164B029307F10A0301930B4BE1
:103C080000932346FEF7D2FD31E000BFAFF30080FA
:103C18002D431CEBE2360A3F00000020301500203F
:103C280028120020F6150020281500209C150020D9
:103C380024120020A814002008160020A014002038
:103C48005F18002000080240F8110020EA15002043
:103C5800201500208C4BB3F96C0007F1090307F11C
:103C68000A018A4A00928A4AFEF740FE00BF894B41
:103C7800DB6B9AB2844B1B6E9BB2D31A9BB21AB2FF
:103C8800844BA3F86A20834BB3F96A309AB27E4B0F
:103C9800A3F872207B7A9AB27B4BA3F874207E4BF0
:103CA80003F58053B3F83621774BA3F87620794B88
:103CB800B3F96A20744BA3F86E20764BB3F96A20E7
:103CC800714BA3F86A20734BDB6B6F4A1366724B18
:103CD800D3E908236F49C1E908236B4B042283F811
:103CE80092206E4B1B6C1846FCF794FB64A3D3E937
:103CF8000023FCF709FC02460B466949C1E9002389
:103D0800674B93ED007BB0EE470AF0EE670A03209D
:103D1800FEF7B8F84FF48060FEF730FA0346002B40
:103D280008D04FF48060FEF73FFA0346002B01D01D
:103D3800012300E00023002B00F01C814FF4806079
:103D4800FEF748FA574B1B78DBB2012B40F0128183
:103D58004D4B93F9913087F82330002387F84F3083
:103D680097F82330042B20D801A252F823F000BF83
:103D78008D3D0008953D00089D3D0008A53D0008C3
:103D8800AD3D0008002387F84F300EE0032387F885
:103D98004F300AE0032387F84F3006E0002387F806
:103DA8004F3002E0002387F84F3097F94F20364B09
:103DB80083F89120344BDB6D364A1364374B374A0E
:103DC8009B6A53643848FEF7F2FAF8613648FEF702
:103DD800EEFAB8613448FEF7EAFA7861FB6903F451
:103DE8008063002B07D02C4B03F5805393F8653183
:103DF8005B09DAB200E00022BB6903F40063002B20
:103E080007D0254B03F5805393F869319B09DBB242
:103E180000E000231344DAB27B6903F48053002BDB
:103E280007D01D4B03F5805393F86D31DB09DBB2E6
:103E380000E000231344DAB2134B83F89420124BAA
:103E480093F89430013B052B36D80F4B93F89430F8
:103E580098B20D4B93F8943099B20B4BB3F96C2090
:103E68007C1D124B0493124B0393124B0293BB1D00
:103E78000193074B00932346FEF798FC27E000BF09
:103E88002D431CEBE2360A3F30150020F4110020C8
:103E98009C150020A814002000000020081600200F
:103EA800A01400205F18002000080240C81100205C
:103EB800DE15002018150020394BB3F96C007B1D66
:103EC800B91D384A0092384AFEF710FD00BF374B3B
:103ED8001B6C9AB2324B1B6E9BB2D31A9BB21AB2AE
:103EE800324BA3F86820314BB3F968309AB22C4BA7
:103EF800A3F872207B799AB2294BA3F874202C4B33
:103F080003F58053B3F83821254BA3F87620274BC7
:103F1800B3F96820224BA3F87020244BB3F968202A
:103F28001F4BA3F86A20214B1B6C1D4A1366204BBC
:103F3800D3E90A231D49C1E90623194B042283F852
:103F480091201C4B5B6C1846FCF764FA12A3D3E96A
:103F58000023FCF7D9FA02460B461749C1E90023AA
:103F6800154B93ED007BB0EE470AF0EE670A04208C
:103F7800FDF788FFBFF36F8F00BFBFF34F8F00BF00
:103F8800BB6C3B613B6983F3108800BF00BF5C37A3
:103F9800BD4690BDAFF300802D431CEBE2360A3FCF
:103FA80030150020C41100209C150020A814002002
:103FB8000000002008160020A014002000000000C7
:103FC8002DE9B04F2DED028BA4B000AFFEF75DF8E0
:103FD800B864D148FEF7BEF80346002B07D0CF4897
:103FE800FCF7D5FF0346002B01D0012300E0002396
:103FF800002B01F00085C848FEF79EF8C84B1B78D7
:10400800DBB2012B41F0F784C64B93F9903087F867
:104018004730002387F88F3097F84730042B20D893
:1040280001A252F823F000BF454000084D400008A7
:10403800554000085D40000865400008002387F8E7
:104048008F300EE0032387F88F300AE0032387F8C8
:104058008F3006E0002387F88F3002E0002387F8CE
:104068008F3097F98F20AF4B83F89020AD4B93F9A1
:104078008F3087F84630002387F88E3097F846301F
:10408800042B20D801A252F823F000BFA940000851
:10409800B1400008B9400008C1400008C940000804
:1040A800002387F88E300EE0032387F88E300AE06D
:1040B800032387F88E3006E0002387F88E3002E06D
:1040C800002387F88E3097F98E20964B83F88F203F
:1040D800944B93F98E3087F84530002387F88D305C
:1040E80097F84530042B20D801A252F823F000BFDE
:1040F8000D410008154100081D4100082541000830
:104108002D410008002387F88D300EE0032387F83F
:104118008D300AE0032387F88D3006E0002387F806
:104128008D3002E0002387F88D3097F98D207D4B84
:1041380083F88E207B4B93F98D3087F84430002329
:1041480087F88C3097F84430042B20D801A252F815
:1041580023F000BF7141000879410008814100083F
:104168008941000891410008002387F88C300EE04F
:10417800032387F88C300AE0032387F88C3006E0A5
:10418800002387F88C3002E0002387F88C3097F9F9
:104198008C20644B83F88D20624B93F98C3087F820
:1041A8004330002387F88B3097F84330042B20D80E
:1041B80001A252F823F000BFD5410008DD410008F4
:1041C800E5410008ED410008F5410008002387F8A3
:1041D8008B300EE0032387F88B300AE0032387F83F
:1041E8008B3006E0002387F88B3002E0002387F845
:1041F8008B3097F98B204B4B83F88C20494B93F9E4
:104208008B3087F84230002387F88A3097F842309D
:10421800042B20D801A252F823F000BF394200082D
:10422800414200084942000851420008594200082A
:10423800002387F88A300EE0032387F88A300AE0E3
:10424800032387F88A3006E0002387F88A3002E0E3
:10425800002387F88A3097F98A20324B83F88B201D
:10426800304B93F98A3087F84130002387F889303A
:1042780097F84130042B20D801A252F823F000BF50
:104288009D420008A5420008AD420008B54200085A
:10429800BD420008002387F889300EE0032387F821
:1042A80089300AE0032387F8893006E0002387F87D
:1042B800893002E0002387F8893097F98920194B63
:1042C80083F88A20174B93F9893087F84030002308
:1042D80087F8883097F84030042B28D801A252F884
:1042E80023F000BF014300080943000811430008F8
:1042F8001943000831430008002387F8883016E086
:10430800032387F8883012E0032387F888300EE00B
:10431800002387F888300AE0002001405C13002061
:104328005F18002030150020002387F8883097F99F
:104338008820D64B83F88920D44B93F9883087F8A6
:104348003F30002387F8873097F83F30042B20D878
:1043580001A252F823F000BF754300087D4300080E
:10436800854300088D43000895430008002387F81B
:1043780087300EE0032387F887300AE0032387F8A5
:10438800873006E0002387F8873002E0002387F8AB
:10439800873097F98720BD4B83F88820BB4B93F96A
:1043A800873087F83E30002387F8863097F83E300C
:1043B800042B20D801A252F823F000BFD9430008EB
:1043C800E1430008E9430008F1430008F943000805
:1043D800002387F886300EE0032387F886300AE04A
:1043E800032387F8863006E0002387F8863002E04A
:1043F800002387F8863097F98620A44B83F8872016
:10440800A24B93F9863087F83D30002387F8853032
:1044180097F83D30042B20D801A252F823F000BFB2
:104428003D440008454400084D4400085544000830
:104438005D440008002387F885300EE0032387F8E1
:1044480085300AE0032387F8853006E0002387F8E3
:10445800853002E0002387F8853097F985208B4B5B
:1044680083F88620894B93F9853087F83C30002300
:1044780087F8843097F83C30042B20D801A252F8F2
:1044880023F000BFA1440008A9440008B144000873
:10449800B9440008C1440008002387F884300EE0BE
:1044A800032387F884300AE0032387F8843006E082
:1044B800002387F8843002E0002387F8843097F9D6
:1044C8008420724B83F88520704B93F9843087F8E9
:1044D8003B30002387F8833097F83B30042B20D8F3
:1044E80001A252F823F000BF054500080D45000859
:1044F800154500081D45000825450008002387F8D4
:1045080083300EE0032387F883300AE0032387F81B
:10451800833006E0002387F8833002E0002387F821
:10452800833097F98320594B83F88420574B93F9AC
:10453800833087F83A30002387F8823097F83A308A
:10454800042B20D801A252F823F000BF69450008C7
:10455800714500087945000881450008894500082B
:10456800002387F882300EE0032387F882300AE0C0
:10457800032387F8823006E0002387F8823002E0C0
:10458800002387F8823097F98220404B83F88320F4
:104598003E4B93F9AC3087F83930002387F88130E7
:1045A80097F83930042B20D801A252F823F000BF25
:1045B800CD450008D5450008DD450008E54500085B
:1045C800ED450008002387F881300EE0032387F8C3
:1045D80081300AE0032387F8813006E0002387F85A
:1045E800813002E0002387F8813097F98120274B3A
:1045F80083F8AC20254B93F9823087F838300023B4
:1046080087F8803097F83830042B20D801A252F868
:1046180023F000BF3146000839460008414600082B
:104628004946000851460008002387F880300EE00C
:10463800032387F880300AE0032387F8803006E0F8
:10464800002387F8803002E0002387F8803097F94C
:1046580080200E4B83F882200C4B93F9813087F829
:104668003730002387F87F3097F83730042B22D86B
:1046780001A252F823F000BF99460008A14600089D
:10468800A9460008B1460008B946000830150020C0
:10469800002387F87F300EE0032387F87F300AE095
:1046A800032387F87F3006E0002387F87F3002E095
:1046B800002387F87F3097F97F20CD4B83F881203E
:1046C800CB4B93F9803087F83630002387F87E305B
:1046D80097F83630042B20D801A252F823F000BFF7
:1046E800FD460008054700080D4700081547000863
:1046F8001D470008002387F87E300EE0032387F863
:104708007E300AE0032387F87E3006E0002387F82E
:104718007E3002E0002387F87E3097F97E20B44B84
:1047280083F88020B24B93F97F3087F83530002327
:1047380087F87D3097F83530042B20D801A252F83D
:1047480023F000BF61470008694700087147000867
:104758007947000881470008002387F87D300EE07C
:10476800032387F87D300AE0032387F87D3006E0CD
:10477800002387F87D3002E0002387F87D3097F921
:104788007D209B4B83F87F20994B93F97E3087F8E7
:104798003430002387F87C3097F83430042B20D845
:1047A80001A252F823F000BFC5470008CD47000812
:1047B800D5470008DD470008E5470008002387F8CB
:1047C8007C300EE0032387F87C300AE0032387F867
:1047D8007C3006E0002387F87C3002E0002387F86D
:1047E8007C3097F97C20824B83F87E20804B93F9AC
:1047F8007D3087F83330002387F87B3097F83330E3
:10480800042B20D801A252F823F000BF2948000841
:10481800314800083948000841480008494800085C
:10482800002387F87B300EE0032387F87B300AE00B
:10483800032387F87B3006E0002387F87B3002E00B
:10484800002387F87B3097F97B20694B83F87D201C
:10485800674B93F97C3087F83230002387F87A3039
:1048680097F83230042B20D801A252F823F000BF69
:104878008D480008954800089D480008A54800088C
:10488800AD480008002387F87A300EE0032387F844
:104898007A300AE0032387F87A3006E0002387F8A5
:1048A8007A3002E0002387F87A3097F97A20504B63
:1048B80083F87C204E4B93F97B3087F83130002306
:1048C80087F8793097F83130042B20D801A252F8B4
:1048D80023F000BFF1480008F94800080149000822
:1048E8000949000811490008002387F879300EE0CB
:1048F800032387F879300AE0032387F8793006E044
:10490800002387F8793002E0002387F8793097F997
:104918007920374B83F87B20364B364A9B6A936461
:10492800334BB3F87630A7F84C30314BB3F87630C8
:10493800002B07D0304B03F58053B3F844212C4BA0
:10494800A3F876202C4B03F58053B3F84A212A4B61
:1049580003F58053B3F84C319A4204D9B7F84C3078
:10496800A7F84E3006E0244B03F58053B3F84A31DC
:10497800A7F84E30B7F84E30002B09D01C4B93F8EF
:1049880078201E4B83F86E20194B9B6C1B4A93644E
:10499800174BB3F97020164BB3F96E309A4205DC09
:1049A800134BB3F87030A7F8523004E0104BB3F84B
:1049B8006E30A7F852300E4BB3F96830B7F9522071
:1049C8009A4204DCB7F85230A7F8503004E0084B9C
:1049D800B3F86830A7F85030054BB3F96830B7F929
:1049E80052209A420CDCB7F952307B650CE000BFCC
:1049F800301500200816002000000020A814002010
:104A0800C14BB3F968307B65BF4B93F87930002B05
:104A180003D1B7F84C30002B01D0012300E000236C
:104A280087F8303097F83030002B0ED0B7F84C307C
:104A3800002B04D0B54BDA8AB34BA3F86420B24BF1
:104A4800B3F86420B24BA3F86220B14BB3F86220EC
:104A5800AE4B03F58053B3F848319A428CBF01231B
:104A68000023DBB21A46A84B83F87920A64B93F8AB
:104A78007930002B2AD0A44BB3F872301A467B6DDC
:104A8800934203D8A04BB3F872307B659F4B03F574
:104A98008053D3F804317A6D9A4207D39B4B03F5C0
:104AA8008053B3F84E31A7F84C3016E0964BB3F864
:104AB8007430002B04D1964B93F86E30002B01D044
:104AC800012300E00023A7F84C3006E08F4B03F5E4
:104AD8008053B3F84E31A7F84C30B7F84C30002B60
:104AE80000F06881884BB3F96C30002B04DD864BED
:104AF800042283F8842003E0834B042283F8832074
:104B0800824B03F58053B3F84231002B00F04A8101
:104B18007E4BD3E90E014FF000027E4BFBF784FF7A
:104B28000346002B3CD0B7F9503007EE903AF8EE28
:104B3800676A754BB3F8723007EE903AB8EE677A49
:104B4800C6EE877AC7ED167AB7F9503007EE903A75
:104B5800F8EE676A6E4B9B6C07EE903AB8EE677A90
:104B6800C6EE877A97ED167A37EE677A674BD3EDFC
:104B78003C7A27EE277A654BD3ED3B7A37EE277AD6
:104B8800D7ED167A27EE277A604BD3ED3D7A67EE9C
:104B9800277AC7ED167A5C4B042283F8802019E047
:104BA800B7F9503007EE903AF8EE676A564BB3F80B
:104BB800723007EE903AF8EE677A86EEA77A534B92
:104BC800D3ED3E7A67EE277AC7ED167A4E4B04226C
:104BD80083F87F204D4BD3ED3F7A97ED167AB4EEEC
:104BE800E77AF1EE10FA04DD484BD3F8FC30BB65E8
:104BF8000DE0464BD3ED407A97ED167AB4EEE77A9E
:104C0800F1EE10FA03D5414BD3F80031BB653E4BAA
:104C1800B3F96C30012B54D03B4B93F89430013BE3
:104C2800052B39D801A252F823F000BF934C000895
:104C3800774C0008854C00085B4C00084D4C000878
:104C4800694C000807F10C0333491846FDF767FE65
:104C580029E007F10C0331491846FDF760FE22E010
:104C680007F10C032E491846FDF759FE1BE007F122
:104C78000C032C491846FDF752FE14E007F10C030B
:104C880029491846FDF74BFE0DE007F10C032749AB
:104C98001846FDF744FE06E007F10C0324491846C0
:104CA800FDF73DFE00BF97ED037AD7ED167A77EE54
:104CB800677A174BC3ED147A134B042283F88220CA
:104CC8006CE0114B93F89430013B052B52D801A2AC
:104CD80052F823F06F4D0008534D0008614D00084D
:104CE800034D0008F54C0008454D000807F10C037A
:104CF80010491846FDF713FE43E007F10C030E496F
:104D08001846FDF70CFE3CE030150020000000209E
:104D1800A81400200000F03FC0110020BC110020A2
:104D2800B8110020B4110020B0110020AC110020EF
:104D3800A8110020A4110020A011002007F10C03E5
:104D4800B6491846FDF7EBFD1BE007F10C03B44923
:104D58001846FDF7E4FD14E007F10C03B1491846C5
:104D6800FDF7DDFD0DE007F10C03AF491846FDF72F
:104D7800D6FD06E007F10C03AC491846FDF7CFFD58
:104D880000BF97ED037AD7ED167A77EE277AA84B0E
:104D9800C3ED147AA74B042283F88120A54B042283
:104DA80083F87E20A24B1B6D3B61A24B042283F843
:104DB8007D204AE09F4B93F89430013B052B39D86E
:104DC80001A252F823F000BF2F4E0008134E00082E
:104DD800214E0008F74D0008E94D0008054E00086F
:104DE80007F1100394491846FDF799FD29E007F1EA
:104DF800100392491846FDF792FD22E007F11003CF
:104E08008F491846FDF78BFD1BE007F110038D490C
:104E18001846FDF784FD14E007F110038A49184687
:104E2800FDF77DFD0DE007F1100388491846FDF7F1
:104E380076FD06E007F1100385491846FDF76FFD7A
:104E480000BF7C4B042283F87C20824B93ED457A8B
:104E5800D7ED047A67EE277AC7ED167A754BB3F863
:104E68006620734BA3F86420714BB3F86420794B28
:104E780003F58053B3F852311344A7F84C30754BFF
:104E88009B8AB7F84C209A4208D9724B03F5805395
:104E9800B3F83E21674BA3F8662004E0654AB7F8EB
:104EA8004C30A2F86630634BD3E90C014FF0000296
:104EB8004FF00003FBF7B8FD0346002B00F0858197
:104EC8005C4B93F89530002B08D1624BD3F8E03057
:104ED800584A9363574B012283F89520554BD3E9E1
:104EE8000C014FF000024FF00003FBF79DFD034655
:104EF800002B38D04F4B93F89630002B0AD1554BE6
:104F080003F58053D3F8F8304A4AD364494B012259
:104F180083F896204F4B03F58053D3F8F4300022E2
:104F280098469146434BDB6C00221C46154618EB0D
:104F3800040A49EB050BC7E918ABD7E91823012B7D
:104F480005D34FF0FF324FF00003C7E918233B6E3B
:104F5800374AD364364BDB6C364AD364354B04226C
:104F680083F889200FE0334B93F89630002B0AD052
:104F7800384B03F58053D3F8F0302D4AD3642D4BCA
:104F8800002283F896202A4BDA6C324BDB689A426F
:104F980009D9304BD3E90C232649C1E90C23254B09
:104FA800042283F88E20224BDA6C2A4B1B699A4222
:104FB80094BF01230023DBB21A461D4B83F86F20F0
:104FC8001B4BDA6C234B03F58053D3F8FC309A4221
:104FD80008D2204BD3F8BC30FB60164B042283F870
:104FE8008D2057E0134B93ED0F7A1A4BD3ED307A9F
:104FF80077EE277A0F4BC3ED0F7A0E4B93ED0F7AAE
:10500800144BD3ED327AB4EEE77AF1EE10FA23DDE1
:10501800104BD3F8C830074AD3632DE09C11002009
:105028009811002094110020901100208C1100206C
:10503800A8140020301500208811002084110020B9
:10504800801100207C1100207811002074110020AC
:105058007011002000000020C34B93ED0F7AC34B62
:10506800D3ED337AB4EEE77AF1EE10FA04D5BF4BFC
:10507800D3F8CC30BC4AD363BC4B93ED007ABA4B1F
:10508800D3ED0F7A67EE277AC7ED037AB64B042281
:1050980083F88C20B54B03F5805393F86031002BCF
:1050A8007FD1B14B93F87A30002B0DD0AF4B93EDF5
:1050B800377AD7ED037A67EE277AAD4BC3ED177AC7
:1050C800A94B042283F88B20A94B93ED177AA64BA2
:1050D800D3ED0E7A77EE277AC7ED047AD7ED047A06
:1050E800B0EE670A0BF038FDF0EE407AC7ED037AB0
:1050F800D7ED037AB0EE670A00F02EFE0346002BC8
:1051080008D1D7ED037AB0EE670A00F0FFFD034639
:10511800002B03D04FF00003FB600BE0D7ED037AC0
:10512800DFED940AB0EE670A0BF09AFCF0EE407AD5
:10513800C7ED037A97ED047AD7ED037AF5EEC07AD6
:10514800F1EE10FA10D5D7ED037AF1EE677AFCEE9E
:10515800E77A17EE903A9BB25B429BB21BB207EE1E
:10516800903AF8EEE77A0BE0D7ED037AFCEEE77AAF
:1051780017EE903A9BB21BB207EE903AF8EEE77A38
:1051880077EE677A7A4BC3ED167A784B03F580533E
:1051980093F85D21744B83F87A20734B042283F8CB
:1051A8008A20724B93ED397A714BD3ED167A67EEFC
:1051B800277A6F4BC3ED157A6D4B9B6D6A4A9363E3
:1051C800694B042283F8882020E0674B93F89530D8
:1051D800002B1BD0644B93F89630002B0AD0634BFE
:1051E80003F58053D3F8F030614AD3645E4B002254
:1051F80083F896205D4B03F5805393F85E215C4B52
:1052080083F86F20584B002283F89520574B03F5FD
:10521800805393ED327A564BD3ED157A67EE277AA1
:10522800C7ED047A514B93ED447AD7ED047AB4EE86
:10523800E77AF1EE10FA51DDD7ED047AB0EE670A9D
:105248000BF08AFCF0EE407AC7ED037AD7ED037ACB
:10525800B0EE670A00F05AFD0346002B03D04FF06A
:105268000003FB600BE0D7ED037ADFED420AB0EEF6
:10527800670A0BF0F5FBF0EE407AC7ED037A97ED7D
:10528800047AD7ED037AF5EEC07AF1EE10FA10D56C
:10529800D7ED037AF1EE677AFCEEE77A17EE903AEB
:1052A8009BB25B429BB21BB207EE903AF8EEE77AEC
:1052B8000BE0D7ED037AFCEEE77A17EE903A9BB253
:1052C8001BB207EE903AF8EEE77A77EE677AC7ED09
:1052D800047A254B042283F8872061E0D7ED047A0D
:1052E800B0EE670A0BF080FCF0EE407AC7ED037A67
:1052F800D7ED037AB0EE670A00F02EFD0346002BC7
:1053080008D1D7ED037AB0EE670A00F0FFFC034638
:10531800002B03D04FF00003FB600BE0D7ED037ABE
:10532800DFED140AB0EE670A0BF09AFBF0EE407A54
:10533800C7ED037A97ED047AD7ED037AF5EEC07AD4
:10534800F1EE10FA18D5D7ED037AF1EE677AFCEE94
:10535800E77A17EE903A9BB25B429BB21BB207EE1C
:10536800903AF8EEE77A13E03015002000000020AC
:10537800A814002000008047D7ED037AFCEEE77AF6
:1053880017EE903A9BB21BB207EE903AF8EEE77A26
:1053980077EE677AC7ED047A264B042283F88620D5
:1053A800254B03F5805393ED337AD7ED047A67EEF6
:1053B800277AC7ED047AD7ED047AB0EE670A0BF0C6
:1053C80013FCF0EE407AC7ED037AD7ED037AB0EE1E
:1053D800670A00F0C1FC0346002B08D1D7ED037A19
:1053E800B0EE670A00F092FC0346002B03D04FF0A2
:1053F8000003FB600BE0D7ED037ADFED100AB0EE97
:10540800670A0BF02DFBF0EE407AC7ED037AD7ED73
:10541800037AF5EEC07AF1EE10FA11D5D7ED037ADA
:10542800F1EE677AFCEEE77A17EE903A9BB25B42B0
:105438009BB20CE0301500200000002000008047DF
:10544800D7ED037AFCEEE77A17EE903A9BB2A7F80D
:105458004C3097ED047AB7F84C3007EE903AF8EEF6
:10546800677A77EE677AC7ED037AD64BD3F81821B7
:10547800D44BD3F81C31D34901F58051B1F922112D
:105488000846B7F84C100144CE4848318900014419
:1054980091ED007ACB4901F58051B1F92411084604
:1054A800B7F84C100144C748483189000144D1ED90
:1054B800007A37EE677AD7ED037A27EE277AC14963
:1054C80001F58051B1F924110846B7F84C10014490
:1054D800BC48483189000144D1ED007A37EE277A7B
:1054E800B84901F58051B1F926110846B7F84C10B2
:1054F8000144B448483189000144D1ED006AB149FA
:1055080001F58051B1F928110846B7F84C1001444B
:10551800AC48483189000144D1ED007A76EEE76A5B
:10552800D7ED037A66EEA76AA64901F58051B1F96D
:1055380028110846B7F84C100144A24848318900A0
:105548000144D1ED007A76EEA77AFA62BB6207F1E0
:1055580008037B6207F110033B6287ED077AC7ED0A
:10556800067A97ED0B7AD7ED067A27EE277AD7EDEC
:105578000A6AD7ED077A66EEA77A77EE677A7B6ACA
:10558800C3ED007A97ED0B7AD7ED077A27EE277AE5
:10559800D7ED0A6AD7ED067A66EEA77A77EE277A0C
:1055A8003B6AC3ED007A00BF864B03F5805393ED49
:1055B800347AD7ED027A67EE277AC7ED037A814B02
:1055C80003F5805393ED357AD7ED027A67EE277AA3
:1055D800C7ED027A7B4B03F5805393ED367AD7ED0E
:1055E800047A67EE277AC7ED047A97ED047AD7ED47
:1055F800027A37EE677A734B03F58053D3ED377A27
:1056080067EE277AC7ED177AD7ED027A9FED6E7AA3
:1056180037EE677AD7ED047A37EE677A694B03F588
:105628008053D3ED387A67EE277AC7ED027AD7ED43
:10563800037AD7ED170AB0EE670A0BF035FAB0EE29
:10564800407AD7ED027AF0EE670AB0EE470A0BF01F
:105658002BFAB0EE408AD7ED037AD7ED170AB0EEF1
:10566800670A0BF03FFAB0EE407AD7ED027AF0EE17
:10567800670AB0EE470A0BF035FAF0EE407A38EEDA
:10568800277A504B03F58053D3ED397A67EE277AA2
:10569800C7ED047A97ED037AD7ED047A37EE277AC7
:1056A800484B03F58053D3ED3A7A27EE277A454BDA
:1056B80003F58053D3ED3B7A67EE277A17EE900A0D
:1056C800FAF7CAFE3F4BD3E91223FAF767FD024601
:1056D8000B46104619463B4BD3E91423FAF714FF3F
:1056E80002460B463949C1E9002397ED047AD7ED04
:1056F800177A37EE277A334B03F58053D3ED3A7A8E
:1057080027EE277A2F4B03F58053D3ED3B7A67EECC
:10571800277A17EE900AFAF79FFE2A4BD3E912234D
:10572800FAF73CFD02460B4610461946254BD3E9CD
:105738001423FAF7E9FE02460B462449C1E902237D
:1057480097ED047AD7ED027A37EE277A1D4B03F5E9
:105758008053D3ED3A7A27EE277A1A4B03F5805314
:10576800D3ED3B7A67EE277A17EE900AFAF774FEC4
:10577800144BD3E91223FAF711FD02460B461046E3
:105788001946104BD3E91423FAF7BEFE02460B461E
:105798000E49C1E904230D4B93F86F30002B18D044
:1057A8000A4BD3E900230949C1E90C23074BD3E984
:1057B8000223C7E91C23054BD3E90423C7E91A23AD
:1057C80006E000BF0000002000000000A814002030
:1057D80024E0954B03F58053B3F840311846FAF7A7
:1057E80019FE02460B469149C1E90C238E4B03F57D
:1057F8008053B3F840311846FAF70CFE02460B46C0
:10580800C7E91C23884B03F58053B3F84031184689
:10581800FAF700FE02460B46C7E91A23844BDC69F7
:10582800824BD3E90C2310461946FBF765F903466A
:1058380000EE103A2046FCF76FFE7D4BDC69D7E995
:105848001C01FBF759F9034600EE103A2046FCF715
:1058580077FE774BDC69D7E91A01FBF74DF9034668
:1058680000EE103A2046FCF77FFE714BDB696F4A69
:1058780092F86F2011461846FCF7FEFE6C4BDB6869
:105888003A4602211846FBF74EFC684B93F86F30F6
:10589800002B64D0664B93F89730002B08D1624BED
:1058A800D3F8B830624A1364614B012283F8972019
:1058B8005E4B93ED157A5C4BD3ED017AB4EEE77A43
:1058C800F1EE10FA42D85A4B93ED107A564BD3EDBD
:1058D800027AB4EEE77AF1EE10FA37DB524B93ED29
:1058E8002B7A514BD3ED2C7AB4EEE77AF1EE10FA1D
:1058F8000EDD4D4BD3F89830BB604B4B93ED277AB8
:10590800494BD3ED267A77EE677AC7ED177A07E029
:10591800454BD3F8A030BB60434BD3F8A430FB65AC
:1059280097ED027AD7ED167A27EE277A404BD3ED1A
:10593800116AD7ED177A66EEA77A77EE277A3C4B8D
:10594800C3ED117A3A4B042283F89020374B5B6DF4
:10595800374A1364364B042283F88F2007E0344B10
:10596800002283F89720324B042283F88520B7F869
:105978004E30002B11D02E4BB3F87430002B14BFCF
:1059880001230023DBB21A46294B83F87820284BE1
:10599800B3F872301A46264B9A6497F83030002BC9
:1059A8000CD0224BB3F862201F4B03F58053B3F899
:1059B8005031D31A9AB21E4BA3F864201C4B042210
:1059C80083F87B201B4B9B6C1846FAF723FD14A326
:1059D800D3E90023FAF798FD02460B461649C1E9B8
:1059E8000023154B93ED007BB0EE470AF0EE670AF3
:1059F8000520FCF747FABFF36F8F00BFBFF34F8F47
:105A080000BFBB6C7B617B6983F3108800BF00BF5C
:105A18009037BD46BDEC028BBDE8B08FAFF3008078
:105A28002D431CEBE2360A3F00000020A81400209A
:105A38003015002008160020A014002080B500AF03
:105A48001220FCF755FB2820FCF752FB00BF80BD55
:105A580080B584B000AF4FF000024FF00003C7E9F3
:105A68000223414B1B785A1CD1B23F4A1170002BBC
:105A780009D03E4B01221A603B4B1B78013BDAB23E
:105A8800394B1A7066E03B1D1846FCF717FE62B6E4
:105A980000BF374B1B68D3E90823C7E90223FDF78A
:105AA80005F897ED020B0020FCF7ECF972B600BF81
:105AB8002D4B1B78013BDAB22B4B1A707B79002BEC
:105AC80011D02C4B5B785A1CD1B22A4A5170002B4A
